{
  "_format": "hh-sol-artifact-1",
  "contractName": "TimeswapV2PeripheryNoDexLendGivenPrincipal",
  "sourceName": "@timeswap-labs/v2-periphery-nodex/src/TimeswapV2PeripheryNoDexLendGivenPrincipal.sol",
  "abi": [
    {
      "inputs": [
        {
          "internalType": "address",
          "name": "chosenOptionFactory",
          "type": "address"
        },
        {
          "internalType": "address",
          "name": "chosenPoolFactory",
          "type": "address"
        },
        {
          "internalType": "address",
          "name": "chosenTokens",
          "type": "address"
        },
        {
          "internalType": "address",
          "name": "chosenNative",
          "type": "address"
        }
      ],
      "stateMutability": "nonpayable",
      "type": "constructor"
    },
    {
      "inputs": [],
      "name": "CanOnlyBeCalledByOptionContract",
      "type": "error"
    },
    {
      "inputs": [],
      "name": "CanOnlyBeCalledByPoolContract",
      "type": "error"
    },
    {
      "inputs": [],
      "name": "CanOnlyBeCalledByTokensContract",
      "type": "error"
    },
    {
      "inputs": [
        {
          "internalType": "uint256",
          "name": "deadline",
          "type": "uint256"
        }
      ],
      "name": "DeadlineReached",
      "type": "error"
    },
    {
      "inputs": [
        {
          "internalType": "uint256",
          "name": "positionAmount",
          "type": "uint256"
        },
        {
          "internalType": "uint256",
          "name": "minReturnAmount",
          "type": "uint256"
        }
      ],
      "name": "MinPositionReached",
      "type": "error"
    },
    {
      "inputs": [
        {
          "internalType": "uint256",
          "name": "multiplicand",
          "type": "uint256"
        },
        {
          "internalType": "uint256",
          "name": "multiplier",
          "type": "uint256"
        },
        {
          "internalType": "uint256",
          "name": "divisor",
          "type": "uint256"
        }
      ],
      "name": "MulDivOverflow",
      "type": "error"
    },
    {
      "inputs": [
        {
          "internalType": "string",
          "name": "revertString",
          "type": "string"
        }
      ],
      "name": "MulticallFailed",
      "type": "error"
    },
    {
      "inputs": [
        {
          "internalType": "address",
          "name": "to",
          "type": "address"
        },
        {
          "internalType": "uint256",
          "name": "value",
          "type": "uint256"
        }
      ],
      "name": "NativeTransferFailed",
      "type": "error"
    },
    {
      "inputs": [],
      "name": "ZeroAddress",
      "type": "error"
    },
    {
      "anonymous": false,
      "inputs": [
        {
          "indexed": true,
          "internalType": "address",
          "name": "token0",
          "type": "address"
        },
        {
          "indexed": true,
          "internalType": "address",
          "name": "token1",
          "type": "address"
        },
        {
          "indexed": false,
          "internalType": "uint256",
          "name": "strike",
          "type": "uint256"
        },
        {
          "indexed": true,
          "internalType": "uint256",
          "name": "maturity",
          "type": "uint256"
        },
        {
          "indexed": false,
          "internalType": "address",
          "name": "from",
          "type": "address"
        },
        {
          "indexed": false,
          "internalType": "address",
          "name": "to",
          "type": "address"
        },
        {
          "indexed": false,
          "internalType": "bool",
          "name": "isToken0",
          "type": "bool"
        },
        {
          "indexed": false,
          "internalType": "uint256",
          "name": "tokenAmount",
          "type": "uint256"
        },
        {
          "indexed": false,
          "internalType": "uint256",
          "name": "positionAmount",
          "type": "uint256"
        }
      ],
      "name": "LendGivenPrincipal",
      "type": "event"
    },
    {
      "inputs": [
        {
          "components": [
            {
              "internalType": "address",
              "name": "token0",
              "type": "address"
            },
            {
              "internalType": "address",
              "name": "token1",
              "type": "address"
            },
            {
              "internalType": "uint256",
              "name": "strike",
              "type": "uint256"
            },
            {
              "internalType": "uint256",
              "name": "maturity",
              "type": "uint256"
            },
            {
              "internalType": "address",
              "name": "to",
              "type": "address"
            },
            {
              "internalType": "bool",
              "name": "isToken0",
              "type": "bool"
            },
            {
              "internalType": "uint256",
              "name": "tokenAmount",
              "type": "uint256"
            },
            {
              "internalType": "uint256",
              "name": "minReturnAmount",
              "type": "uint256"
            },
            {
              "internalType": "uint256",
              "name": "deadline",
              "type": "uint256"
            }
          ],
          "internalType": "struct TimeswapV2PeripheryNoDexLendGivenPrincipalParam",
          "name": "param",
          "type": "tuple"
        }
      ],
      "name": "lendGivenPrincipal",
      "outputs": [
        {
          "internalType": "uint256",
          "name": "positionAmount",
          "type": "uint256"
        }
      ],
      "stateMutability": "nonpayable",
      "type": "function"
    },
    {
      "inputs": [
        {
          "internalType": "bytes[]",
          "name": "data",
          "type": "bytes[]"
        }
      ],
      "name": "multicall",
      "outputs": [
        {
          "internalType": "bytes[]",
          "name": "results",
          "type": "bytes[]"
        }
      ],
      "stateMutability": "payable",
      "type": "function"
    },
    {
      "inputs": [],
      "name": "optionFactory",
      "outputs": [
        {
          "internalType": "address",
          "name": "",
          "type": "address"
        }
      ],
      "stateMutability": "view",
      "type": "function"
    },
    {
      "inputs": [],
      "name": "poolFactory",
      "outputs": [
        {
          "internalType": "address",
          "name": "",
          "type": "address"
        }
      ],
      "stateMutability": "view",
      "type": "function"
    },
    {
      "inputs": [],
      "name": "refundNatives",
      "outputs": [],
      "stateMutability": "payable",
      "type": "function"
    },
    {
      "inputs": [
        {
          "components": [
            {
              "internalType": "uint256",
              "name": "strike",
              "type": "uint256"
            },
            {
              "internalType": "uint256",
              "name": "maturity",
              "type": "uint256"
            },
            {
              "internalType": "uint256",
              "name": "token0AndLong0Amount",
              "type": "uint256"
            },
            {
              "internalType": "uint256",
              "name": "token1AndLong1Amount",
              "type": "uint256"
            },
            {
              "internalType": "uint256",
              "name": "shortAmount",
              "type": "uint256"
            },
            {
              "internalType": "bytes",
              "name": "data",
              "type": "bytes"
            }
          ],
          "internalType": "struct TimeswapV2OptionMintCallbackParam",
          "name": "param",
          "type": "tuple"
        }
      ],
      "name": "timeswapV2OptionMintCallback",
      "outputs": [
        {
          "internalType": "bytes",
          "name": "data",
          "type": "bytes"
        }
      ],
      "stateMutability": "nonpayable",
      "type": "function"
    },
    {
      "inputs": [
        {
          "components": [
            {
              "internalType": "uint256",
              "name": "strike",
              "type": "uint256"
            },
            {
              "internalType": "uint256",
              "name": "maturity",
              "type": "uint256"
            },
            {
              "internalType": "uint256",
              "name": "long0Amount",
              "type": "uint256"
            },
            {
              "internalType": "uint256",
              "name": "long1Amount",
              "type": "uint256"
            },
            {
              "internalType": "uint256",
              "name": "shortAmount",
              "type": "uint256"
            },
            {
              "internalType": "bytes",
              "name": "data",
              "type": "bytes"
            }
          ],
          "internalType": "struct TimeswapV2PoolDeleverageCallbackParam",
          "name": "param",
          "type": "tuple"
        }
      ],
      "name": "timeswapV2PoolDeleverageCallback",
      "outputs": [
        {
          "internalType": "bytes",
          "name": "data",
          "type": "bytes"
        }
      ],
      "stateMutability": "nonpayable",
      "type": "function"
    },
    {
      "inputs": [
        {
          "components": [
            {
              "internalType": "uint256",
              "name": "strike",
              "type": "uint256"
            },
            {
              "internalType": "uint256",
              "name": "maturity",
              "type": "uint256"
            },
            {
              "internalType": "uint256",
              "name": "longAmount",
              "type": "uint256"
            },
            {
              "internalType": "uint256",
              "name": "shortAmount",
              "type": "uint256"
            },
            {
              "internalType": "bytes",
              "name": "data",
              "type": "bytes"
            }
          ],
          "internalType": "struct TimeswapV2PoolDeleverageChoiceCallbackParam",
          "name": "param",
          "type": "tuple"
        }
      ],
      "name": "timeswapV2PoolDeleverageChoiceCallback",
      "outputs": [
        {
          "internalType": "uint256",
          "name": "long0Amount",
          "type": "uint256"
        },
        {
          "internalType": "uint256",
          "name": "long1Amount",
          "type": "uint256"
        },
        {
          "internalType": "bytes",
          "name": "data",
          "type": "bytes"
        }
      ],
      "stateMutability": "view",
      "type": "function"
    },
    {
      "inputs": [
        {
          "components": [
            {
              "internalType": "address",
              "name": "token0",
              "type": "address"
            },
            {
              "internalType": "address",
              "name": "token1",
              "type": "address"
            },
            {
              "internalType": "uint256",
              "name": "strike",
              "type": "uint256"
            },
            {
              "internalType": "uint256",
              "name": "maturity",
              "type": "uint256"
            },
            {
              "internalType": "uint256",
              "name": "long0Amount",
              "type": "uint256"
            },
            {
              "internalType": "uint256",
              "name": "long1Amount",
              "type": "uint256"
            },
            {
              "internalType": "uint256",
              "name": "shortAmount",
              "type": "uint256"
            },
            {
              "internalType": "bytes",
              "name": "data",
              "type": "bytes"
            }
          ],
          "internalType": "struct TimeswapV2TokenMintCallbackParam",
          "name": "param",
          "type": "tuple"
        }
      ],
      "name": "timeswapV2TokenMintCallback",
      "outputs": [
        {
          "internalType": "bytes",
          "name": "data",
          "type": "bytes"
        }
      ],
      "stateMutability": "nonpayable",
      "type": "function"
    },
    {
      "inputs": [],
      "name": "tokens",
      "outputs": [
        {
          "internalType": "address",
          "name": "",
          "type": "address"
        }
      ],
      "stateMutability": "view",
      "type": "function"
    },
    {
      "inputs": [],
      "name": "wrappedNativeToken",
      "outputs": [
        {
          "internalType": "address",
          "name": "",
          "type": "address"
        }
      ],
      "stateMutability": "view",
      "type": "function"
    }
  ],
  "bytecode": "0x6101006040523480156200001257600080fd5b506040516200250f3803806200250f833981016040819052620000359162000082565b6001600160601b0319606094851b811660805292841b831660a05290831b821660c05290911b1660e052620000df565b80516001600160a01b03811681146200007d57600080fd5b919050565b600080600080608085870312156200009957600080fd5b620000a48562000065565b9350620000b46020860162000065565b9250620000c46040860162000065565b9150620000d46060860162000065565b905092959194509250565b60805160601c60a05160601c60c05160601c60e05160601c612397620001786000396000818160b30152818161113a01526111800152600081816101b3015281816102ec0152610abe0152600081816101040152818161073c015281816108bf0152610d3b015260008181610236015281816102b30152818161071b0152818161089e01528181610ae90152610d1a01526123976000f3fe60806040526004361061009c5760003560e01c80639d63848a116100645780639d63848a146101a1578063aaac7a74146101d5578063ac9650d814610204578063b3461c8714610224578063dfef25d814610258578063e13c022c1461026257600080fd5b806317fcb39b146100a15780634219dc40146100f25780634a358d651461012657806380699b791461015357806387a8993a14610181575b600080fd5b3480156100ad57600080fd5b506100d57f000000000000000000000000000000000000000000000000000000000000000081565b6040516001600160a01b0390911681526020015b60405180910390f35b3480156100fe57600080fd5b506100d57f000000000000000000000000000000000000000000000000000000000000000081565b34801561013257600080fd5b506101466101413660046118b6565b610282565b6040516100e991906119ac565b34801561015f57600080fd5b5061017361016e3660046119bf565b6104c0565b6040519081526020016100e9565b34801561018d57600080fd5b5061014661019c3660046119d8565b6106eb565b3480156101ad57600080fd5b506100d57f000000000000000000000000000000000000000000000000000000000000000081565b3480156101e157600080fd5b506101f56101f0366004611a12565b610869565b6040516100e993929190611a4c565b610217610212366004611a6b565b610918565b6040516100e99190611adf565b34801561023057600080fd5b506100d57f000000000000000000000000000000000000000000000000000000000000000081565b610260610aa5565b005b34801561026e57600080fd5b5061014661027d366004611b41565b610ab7565b60606000806000808560a001518060200190518101906102a29190611be1565b9850929650909450925090506102d97f00000000000000000000000000000000000000000000000000000000000000008585610bb5565b60808601516102e89082611c78565b90507f00000000000000000000000000000000000000000000000000000000000000006001600160a01b0316634fd991ea604051806101600160405280876001600160a01b03168152602001866001600160a01b031681526020018960000151815260200189602001518152602001306001600160a01b03168152602001306001600160a01b03168152602001856001600160a01b031681526020016000815260200160008152602001848152602001604051806020016040528060008152508152506040518263ffffffff1660e01b81526004016103c79190611c90565b600060405180830381600087803b1580156103e157600080fd5b505af11580156103f5573d6000803e3d6000fd5b505050506040513d6000823e601f3d908101601f1916820160405261041d9190810190611d61565b50610491604051806101200160405280336001600160a01b03168152602001866001600160a01b03168152602001856001600160a01b031681526020018860000151815260200188602001518152602001886040015181526020018860600151815260200183815260200187815250610c6b565b945080856040516020016104a6929190611d95565b604051602081830303815290604052945050505050919050565b60004282610100013510156104dd576104dd826101000135610cf3565b6000336104f060c0850160a08601611dbc565b604080516001600160a01b0390931660208401529015159082015260600160408051601f19818403018152610100830190915291506105ef90806105376020870187611dd9565b6001600160a01b031681526020018560200160208101906105589190611dd9565b6001600160a01b03168152602001856040013581526020018560600135815260200185608001602081019061058d9190611dd9565b6001600160a01b031681526020016105ab60c0870160a08801611dbc565b6105b65760006105bc565b8560c001355b81526020016105d160c0870160a08801611dbc565b6105df578560c001356105e2565b60005b8152602001839052610d0f565b50915060e08301358210156106295760405163ad4adf6960e01b81526004810183905260e084013560248201526044015b60405180910390fd5b606083013561063e6040850160208601611dd9565b6001600160a01b03166106546020860186611dd9565b6001600160a01b03167ff808557e6ddc9c95c51127e00f9e902d6fbf511bd82190554b94f277805c996860408701353361069460a08a0160808b01611dd9565b6106a460c08b0160a08c01611dbc565b604080519485526001600160a01b03938416602086015291909216908301521515606082015260c088810135608083015260a082018890520160405180910390a450919050565b6060600080806106fe60a0860186611df6565b81019061070b9190611e43565b96509194509250905060006107627f00000000000000000000000000000000000000000000000000000000000000007f00000000000000000000000000000000000000000000000000000000000000008686610ea2565b9050838383886080013588604051602001610781959493929190611eb7565b60408051808303601f1901815261012083018252883583526020808a01359084015233838301819052606080850191909152306080850152600060a08501528983013560c085015289013560e0840152610100830181905290516380e0667960e01b81529096506001600160a01b038316916380e06679916108069190600401611f1c565b600060405180830381600087803b15801561082057600080fd5b505af1158015610834573d6000803e3d6000fd5b505050506040513d6000823e601f3d908101601f1916820160405261085c9190810190611fbe565b9998505050505050505050565b600080606081808061087e6080880188611df6565b81019061088b919061200b565b919a5098509650919450925090506108e57f00000000000000000000000000000000000000000000000000000000000000007f00000000000000000000000000000000000000000000000000000000000000008585610ea2565b50828282866040516020016108fd9493929190612091565b60405160208183030381529060405293505050509193909250565b6060816001600160401b03811115610932576109326117cb565b60405190808252806020026020018201604052801561096557816020015b60608152602001906001900390816109505790505b50905060005b82811015610a9e5760008030868685818110610989576109896120cf565b905060200281019061099b9190611df6565b6040516109a99291906120e5565b600060405180830381855af49150503d80600081146109e4576040519150601f19603f3d011682016040523d82523d6000602084013e6109e9565b606091505b509150915081610a6b57604481511015610a3757604051635d2f436f60e11b815260206004820152600e60248201526d125b9d985b1a590814995cdd5b1d60921b6044820152606401610620565b60048101905080806020019051810190610a5191906120f5565b604051635d2f436f60e11b815260040161062091906119ac565b80848481518110610a7e57610a7e6120cf565b602002602001018190525050508080610a969061213d565b91505061096b565b5092915050565b4715610ab557610ab53347610fda565b565b6060610ae27f000000000000000000000000000000000000000000000000000000000000000061107f565b6000610b2a7f0000000000000000000000000000000000000000000000000000000000000000610b156020860186611dd9565b610b256040870160208801611dd9565b6110ab565b9050806001600160a01b031663b2ceca77846040013585606001353360028860c001356040518663ffffffff1660e01b8152600401610b6d959493929190612158565b600060405180830381600087803b158015610b8757600080fd5b505af1158015610b9b573d6000803e3d6000fd5b505060408051602081019091526000815295945050505050565b60405163d81e842360e01b81526001600160a01b03838116600483015282811660248301526000919085169063d81e84239060440160206040518083038186803b158015610c0257600080fd5b505afa158015610c16573d6000803e3d6000fd5b505050506040513d601f19601f82011682018060405250810190610c3a9190612198565b90506001600160a01b0381163314610c655760405163a5fbb7d960e01b815260040160405180910390fd5b50505050565b6060600080836101000151806020019051810190610c8991906121b5565b9150915080610c9c578360c00151610ca2565b8360a001515b15610cdc57610cdc81610cb9578460400151610cbf565b84602001515b8551849084610cd2578760c00151611138565b8760a00151611138565b505060408051602081019091526000815292915050565b60405163070b57d960e41b815260048101829052602401610620565b600060606000610d697f00000000000000000000000000000000000000000000000000000000000000007f000000000000000000000000000000000000000000000000000000000000000086600001518760200151611222565b9150508360000151846020015185608001518660a001518760c001518860e00151604051602001610d9f969594939291906121ef565b60408051601f1981840301815260c0830182528682015183526060808801516020850152309284019290925293506001600160a01b038316916378fb9d3891810160018152602001610e008860a001518960c001518a6040015160006112d7565b8152602001858152506040518263ffffffff1660e01b8152600401610e25919061223d565b600060405180830381600087803b158015610e3f57600080fd5b505af1158015610e53573d6000803e3d6000fd5b505050506040513d6000823e601f3d908101601f19168201604052610e7b9190810190611fbe565b8051909550610e979350850160209081019250850190506122a4565b909590945092505050565b60405163d81e842360e01b81526001600160a01b03838116600483015282811660248301526000919086169063d81e84239060440160206040518083038186803b158015610eef57600080fd5b505afa158015610f03573d6000803e3d6000fd5b505050506040513d601f19601f82011682018060405250810190610f279190612198565b6040516330af0bbf60e21b81526001600160a01b03808316600483015291925060009186169063c2bc2efc9060240160206040518083038186803b158015610f6e57600080fd5b505afa158015610f82573d6000803e3d6000fd5b505050506040513d601f19601f82011682018060405250810190610fa69190612198565b90506001600160a01b0381163314610fd15760405163863b47e760e01b815260040160405180910390fd5b50949350505050565b604080516000808252602082019092526001600160a01b03841690839060405161100491906122ea565b60006040518083038185875af1925050503d8060008114611041576040519150601f19603f3d011682016040523d82523d6000602084013e611046565b606091505b505090508061107a5760405163296c17bb60e21b81526001600160a01b038416600482015260248101839052604401610620565b505050565b6001600160a01b03811633146110a85760405163d2bc8fc960e01b815260040160405180910390fd5b50565b60405163d81e842360e01b81526001600160a01b03838116600483015282811660248301526000919085169063d81e84239060440160206040518083038186803b1580156110f857600080fd5b505afa15801561110c573d6000803e3d6000fd5b505050506040513d601f19601f820116820180604052508101906111309190612198565b949350505050565b7f00000000000000000000000000000000000000000000000000000000000000006001600160a01b0316846001600160a01b03161480156111795750804710155b1561120d577f00000000000000000000000000000000000000000000000000000000000000006001600160a01b031663d0e30db0826040518263ffffffff1660e01b81526004016000604051808303818588803b1580156111d957600080fd5b505af11580156111ed573d6000803e3d6000fd5b50611208935050506001600160a01b0386169050838361132c565b610c65565b610c656001600160a01b03851684848461138f565b6000806112396001600160a01b03871685856113c7565b6040516330af0bbf60e21b81526001600160a01b0380831660048301529193509086169063c2bc2efc9060240160206040518083038186803b15801561127e57600080fd5b505afa158015611292573d6000803e3d6000fd5b505050506040513d601f19601f820116820180604052508101906112b69190612198565b90506001600160a01b0381166112ce576112ce6113f3565b94509492505050565b60006fffffffffffffffffffffffffffffffff831161130c576112fd858460018561140c565b6113079085611c78565b611323565b611319848460008561140c565b6113239086611c78565b95945050505050565b6040516001600160a01b03831660248201526044810182905261107a90849063a9059cbb60e01b906064015b60408051601f198184030181529190526020810180516001600160e01b03166001600160e01b031990931692909217909152611433565b6040516001600160a01b0380851660248301528316604482015260648101829052610c659085906323b872dd60e01b90608401611358565b60006113d48484846110ab565b90506001600160a01b0381166113ec576113ec6113f3565b9392505050565b60405163d92e233d60e01b815260040160405180910390fd5b6000826114235761130785600160801b8685611505565b6113238585600160801b85611505565b6000611488826040518060400160405280602081526020017f5361666545524332303a206c6f772d6c6576656c2063616c6c206661696c6564815250856001600160a01b03166116019092919063ffffffff16565b80519091501561107a57808060200190518101906114a69190612306565b61107a5760405162461bcd60e51b815260206004820152602a60248201527f5361666545524332303a204552433230206f7065726174696f6e20646964206e6044820152691bdd081cdd58d8d9595960b21b6064820152608401610620565b60008060006115148787611610565b9150915080600014156115355761152c82868661162f565b92505050611130565b8085116115665760405163362ced0960e11b8152600481018890526024810187905260448101869052606401610620565b600085878909600087810388169788900497600260038a028118808b02820302808b02820302808b02820302808b02820302808b02820302808b029091030291819003819004600101868411909503948502929095039490940417928302935084905080156115e4575084806115de576115de612323565b86880915155b156115f757826115f38161213d565b9350505b5050949350505050565b60606111308484600085611661565b6000806000198385098385029250828110838203039150509250929050565b600061163b8385612339565b9050818015611652575061164f838561234d565b15155b156113ec57806113238161213d565b6060824710156116c25760405162461bcd60e51b815260206004820152602660248201527f416464726573733a20696e73756666696369656e742062616c616e636520666f6044820152651c8818d85b1b60d21b6064820152608401610620565b6001600160a01b0385163b6117195760405162461bcd60e51b815260206004820152601d60248201527f416464726573733a2063616c6c20746f206e6f6e2d636f6e74726163740000006044820152606401610620565b600080866001600160a01b0316858760405161173591906122ea565b60006040518083038185875af1925050503d8060008114611772576040519150601f19603f3d011682016040523d82523d6000602084013e611777565b606091505b5091509150611787828286611792565b979650505050505050565b606083156117a15750816113ec565b8251156117b15782518084602001fd5b8160405162461bcd60e51b815260040161062091906119ac565b634e487b7160e01b600052604160045260246000fd5b60405160c081016001600160401b0381118282101715611803576118036117cb565b60405290565b604051601f8201601f191681016001600160401b0381118282101715611831576118316117cb565b604052919050565b60006001600160401b03821115611852576118526117cb565b50601f01601f191660200190565b600082601f83011261187157600080fd5b813561188461187f82611839565b611809565b81815284602083860101111561189957600080fd5b816020850160208301376000918101602001919091529392505050565b6000602082840312156118c857600080fd5b81356001600160401b03808211156118df57600080fd5b9083019060c082860312156118f357600080fd5b6118fb6117e1565b823581526020830135602082015260408301356040820152606083013560608201526080830135608082015260a08301358281111561193957600080fd5b61194587828601611860565b60a08301525095945050505050565b60005b8381101561196f578181015183820152602001611957565b83811115610c655750506000910152565b60008151808452611998816020860160208601611954565b601f01601f19169290920160200192915050565b6020815260006113ec6020830184611980565b600061012082840312156119d257600080fd5b50919050565b6000602082840312156119ea57600080fd5b81356001600160401b03811115611a0057600080fd5b820160c081850312156113ec57600080fd5b600060208284031215611a2457600080fd5b81356001600160401b03811115611a3a57600080fd5b820160a081850312156113ec57600080fd5b8381528260208201526060604082015260006113236060830184611980565b60008060208385031215611a7e57600080fd5b82356001600160401b0380821115611a9557600080fd5b818501915085601f830112611aa957600080fd5b813581811115611ab857600080fd5b8660208260051b8501011115611acd57600080fd5b60209290920196919550909350505050565b6000602080830181845280855180835260408601915060408160051b870101925083870160005b82811015611b3457603f19888603018452611b22858351611980565b94509285019290850190600101611b06565b5092979650505050505050565b600060208284031215611b5357600080fd5b81356001600160401b03811115611b6957600080fd5b820161010081850312156113ec57600080fd5b6001600160a01b03811681146110a857600080fd5b6000611b9f61187f84611839565b9050828152838383011115611bb357600080fd5b6113ec836020830184611954565b600082601f830112611bd257600080fd5b6113ec83835160208501611b91565b600080600080600060a08688031215611bf957600080fd5b8551611c0481611b7c565b6020870151909550611c1581611b7c565b6040870151909450611c2681611b7c565b6060870151608088015191945092506001600160401b03811115611c4957600080fd5b611c5588828901611bc1565b9150509295509295909350565b634e487b7160e01b600052601160045260246000fd5b60008219821115611c8b57611c8b611c62565b500190565b60208152611caa6020820183516001600160a01b03169052565b60006020830151611cc660408401826001600160a01b03169052565b5060408301516060830152606083015160808301526080830151611cf560a08401826001600160a01b03169052565b5060a08301516001600160a01b03811660c08401525060c08301516001600160a01b03811660e08401525060e083015161010083810191909152830151610120808401919091528301516101408084019190915283015161016080840152611130610180840182611980565b600060208284031215611d7357600080fd5b81516001600160401b03811115611d8957600080fd5b61113084828501611bc1565b8281526040602082015260006111306040830184611980565b80151581146110a857600080fd5b600060208284031215611dce57600080fd5b81356113ec81611dae565b600060208284031215611deb57600080fd5b81356113ec81611b7c565b6000808335601e19843603018112611e0d57600080fd5b8301803591506001600160401b03821115611e2757600080fd5b602001915036819003821315611e3c57600080fd5b9250929050565b60008060008060808587031215611e5957600080fd5b8435611e6481611b7c565b93506020850135611e7481611b7c565b92506040850135611e8481611b7c565b915060608501356001600160401b03811115611e9f57600080fd5b611eab87828801611860565b91505092959194509250565b6001600160a01b0386811682528581166020830152841660408201526060810183905260a06080820181905260009061178790830184611980565b634e487b7160e01b600052602160045260246000fd5b60028110611f1857611f18611ef2565b9052565b60208152815160208201526020820151604082015260006040830151611f4d60608401826001600160a01b03169052565b5060608301516001600160a01b03811660808401525060808301516001600160a01b03811660a08401525060a0830151611f8a60c0840182611f08565b5060c083015160e0838101919091528301516101008084019190915283015161012080840152611130610140840182611980565b60008060008060808587031215611fd457600080fd5b84519350602085015192506040850151915060608501516001600160401b03811115611fff57600080fd5b611eab87828801611bc1565b60008060008060008060c0878903121561202457600080fd5b863561202f81611b7c565b9550602087013561203f81611b7c565b9450604087013561204f81611b7c565b9350606087013592506080870135915060a08701356001600160401b0381111561207857600080fd5b61208489828a01611860565b9150509295509295509295565b6001600160a01b0385811682528481166020830152831660408201526080606082018190526000906120c590830184611980565b9695505050505050565b634e487b7160e01b600052603260045260246000fd5b8183823760009101908152919050565b60006020828403121561210757600080fd5b81516001600160401b0381111561211d57600080fd5b8201601f8101841361212e57600080fd5b61113084825160208401611b91565b600060001982141561215157612151611c62565b5060010190565b858152602081018590526001600160a01b038416604082015260a081016003841061218557612185611ef2565b6060820193909352608001529392505050565b6000602082840312156121aa57600080fd5b81516113ec81611b7c565b600080604083850312156121c857600080fd5b82516121d381611b7c565b60208401519092506121e481611dae565b809150509250929050565b6001600160a01b038781168252868116602083015285166040820152606081018490526080810183905260c060a0820181905260009061223190830184611980565b98975050505050505050565b60208152815160208201526020820151604082015260018060a01b036040830151166060820152600060608301516004811061227b5761227b611ef2565b80608084015250608083015160a083015260a083015160c08084015261113060e0840182611980565b600080604083850312156122b757600080fd5b8251915060208301516001600160401b038111156122d457600080fd5b6122e085828601611bc1565b9150509250929050565b600082516122fc818460208701611954565b9190910192915050565b60006020828403121561231857600080fd5b81516113ec81611dae565b634e487b7160e01b600052601260045260246000fd5b60008261234857612348612323565b500490565b60008261235c5761235c612323565b50069056fea264697066735822122025a41cc64078eaa88653022fe745b08ed490f116e4080a712e01f6f60ac2766264736f6c63430008080033",
  "linkReferences": {},
  "deployedLinkReferences": {}
}