{
  "_format": "hh-sol-artifact-1",
  "contractName": "TimeswapV2PeripheryUniswapV3CollectTransactionFeesAfterMaturity",
  "sourceName": "@timeswap-labs/v2-periphery-uniswapV3/contracts/TimeswapV2PeripheryUniswapV3CollectTransactionFeesAfterMaturity.sol",
  "abi": [
    {
      "inputs": [
        {
          "internalType": "address",
          "name": "chosenOptionFactory",
          "type": "address"
        },
        {
          "internalType": "address",
          "name": "chosenPoolFactory",
          "type": "address"
        },
        {
          "internalType": "address",
          "name": "chosenTokens",
          "type": "address"
        },
        {
          "internalType": "address",
          "name": "chosenLiquidityTokens",
          "type": "address"
        },
        {
          "internalType": "address",
          "name": "chosenUniswapV3Factory",
          "type": "address"
        },
        {
          "internalType": "address",
          "name": "chosenNative",
          "type": "address"
        }
      ],
      "stateMutability": "nonpayable",
      "type": "constructor"
    },
    {
      "inputs": [
        {
          "internalType": "uint256",
          "name": "addendA0",
          "type": "uint256"
        },
        {
          "internalType": "uint256",
          "name": "addendA1",
          "type": "uint256"
        },
        {
          "internalType": "uint256",
          "name": "addendB0",
          "type": "uint256"
        },
        {
          "internalType": "uint256",
          "name": "addendB1",
          "type": "uint256"
        }
      ],
      "name": "AddOverflow",
      "type": "error"
    },
    {
      "inputs": [
        {
          "internalType": "address",
          "name": "from",
          "type": "address"
        }
      ],
      "name": "CallerNotWrappedNative",
      "type": "error"
    },
    {
      "inputs": [],
      "name": "CanOnlyBeCalledByUniswapV3Contract",
      "type": "error"
    },
    {
      "inputs": [
        {
          "internalType": "uint256",
          "name": "deadline",
          "type": "uint256"
        }
      ],
      "name": "DeadlineReached",
      "type": "error"
    },
    {
      "inputs": [
        {
          "internalType": "uint256",
          "name": "dividend0",
          "type": "uint256"
        },
        {
          "internalType": "uint256",
          "name": "dividend1",
          "type": "uint256"
        },
        {
          "internalType": "uint256",
          "name": "divisor",
          "type": "uint256"
        }
      ],
      "name": "DivOverflow",
      "type": "error"
    },
    {
      "inputs": [],
      "name": "DivideByZero",
      "type": "error"
    },
    {
      "inputs": [
        {
          "internalType": "uint256",
          "name": "value",
          "type": "uint256"
        }
      ],
      "name": "InsufficientWrappedNative",
      "type": "error"
    },
    {
      "inputs": [
        {
          "internalType": "uint256",
          "name": "tokenAmount",
          "type": "uint256"
        },
        {
          "internalType": "uint256",
          "name": "minTokenAmount",
          "type": "uint256"
        }
      ],
      "name": "MinTokenReached",
      "type": "error"
    },
    {
      "inputs": [],
      "name": "ModuloByZero",
      "type": "error"
    },
    {
      "inputs": [
        {
          "internalType": "string",
          "name": "revertString",
          "type": "string"
        }
      ],
      "name": "MulticallFailed",
      "type": "error"
    },
    {
      "inputs": [
        {
          "internalType": "address",
          "name": "to",
          "type": "address"
        },
        {
          "internalType": "uint256",
          "name": "value",
          "type": "uint256"
        }
      ],
      "name": "NativeTransferFailed",
      "type": "error"
    },
    {
      "inputs": [
        {
          "internalType": "int256",
          "name": "amount0",
          "type": "int256"
        },
        {
          "internalType": "int256",
          "name": "amount1",
          "type": "int256"
        }
      ],
      "name": "PassCalculateInfo",
      "type": "error"
    },
    {
      "inputs": [
        {
          "internalType": "uint256",
          "name": "maturity",
          "type": "uint256"
        },
        {
          "internalType": "uint96",
          "name": "blockTimestamp",
          "type": "uint96"
        }
      ],
      "name": "StillActive",
      "type": "error"
    },
    {
      "inputs": [],
      "name": "Uint160Overflow",
      "type": "error"
    },
    {
      "inputs": [],
      "name": "ZeroAddress",
      "type": "error"
    },
    {
      "inputs": [],
      "name": "ZeroPoolAddress",
      "type": "error"
    },
    {
      "anonymous": false,
      "inputs": [
        {
          "indexed": true,
          "internalType": "address",
          "name": "token0",
          "type": "address"
        },
        {
          "indexed": true,
          "internalType": "address",
          "name": "token1",
          "type": "address"
        },
        {
          "indexed": false,
          "internalType": "uint256",
          "name": "strike",
          "type": "uint256"
        },
        {
          "indexed": true,
          "internalType": "uint256",
          "name": "maturity",
          "type": "uint256"
        },
        {
          "indexed": false,
          "internalType": "uint24",
          "name": "uniswapV3Fee",
          "type": "uint24"
        },
        {
          "indexed": false,
          "internalType": "address",
          "name": "from",
          "type": "address"
        },
        {
          "indexed": false,
          "internalType": "address",
          "name": "to",
          "type": "address"
        },
        {
          "indexed": false,
          "internalType": "bool",
          "name": "isToken0",
          "type": "bool"
        },
        {
          "indexed": false,
          "internalType": "uint256",
          "name": "tokenAmount",
          "type": "uint256"
        }
      ],
      "name": "CollectTransactionFeesAfterMaturity",
      "type": "event"
    },
    {
      "inputs": [
        {
          "components": [
            {
              "internalType": "address",
              "name": "token0",
              "type": "address"
            },
            {
              "internalType": "address",
              "name": "token1",
              "type": "address"
            },
            {
              "internalType": "uint256",
              "name": "strike",
              "type": "uint256"
            },
            {
              "internalType": "uint256",
              "name": "maturity",
              "type": "uint256"
            },
            {
              "internalType": "uint24",
              "name": "uniswapV3Fee",
              "type": "uint24"
            },
            {
              "internalType": "address",
              "name": "to",
              "type": "address"
            },
            {
              "internalType": "bool",
              "name": "isToken0",
              "type": "bool"
            },
            {
              "internalType": "uint256",
              "name": "shortRequested",
              "type": "uint256"
            },
            {
              "internalType": "uint256",
              "name": "minTokenAmount",
              "type": "uint256"
            },
            {
              "internalType": "uint256",
              "name": "deadline",
              "type": "uint256"
            }
          ],
          "internalType": "struct TimeswapV2PeripheryUniswapV3CollectTransactionFeesAfterMaturityParam",
          "name": "param",
          "type": "tuple"
        }
      ],
      "name": "collectTransactionFeesAfterMaturity",
      "outputs": [
        {
          "internalType": "uint256",
          "name": "tokenAmount",
          "type": "uint256"
        }
      ],
      "stateMutability": "nonpayable",
      "type": "function"
    },
    {
      "inputs": [],
      "name": "liquidityTokens",
      "outputs": [
        {
          "internalType": "address",
          "name": "",
          "type": "address"
        }
      ],
      "stateMutability": "view",
      "type": "function"
    },
    {
      "inputs": [
        {
          "internalType": "bytes[]",
          "name": "data",
          "type": "bytes[]"
        }
      ],
      "name": "multicall",
      "outputs": [
        {
          "internalType": "bytes[]",
          "name": "results",
          "type": "bytes[]"
        }
      ],
      "stateMutability": "payable",
      "type": "function"
    },
    {
      "inputs": [],
      "name": "optionFactory",
      "outputs": [
        {
          "internalType": "address",
          "name": "",
          "type": "address"
        }
      ],
      "stateMutability": "view",
      "type": "function"
    },
    {
      "inputs": [],
      "name": "poolFactory",
      "outputs": [
        {
          "internalType": "address",
          "name": "",
          "type": "address"
        }
      ],
      "stateMutability": "view",
      "type": "function"
    },
    {
      "inputs": [],
      "name": "tokens",
      "outputs": [
        {
          "internalType": "address",
          "name": "",
          "type": "address"
        }
      ],
      "stateMutability": "view",
      "type": "function"
    },
    {
      "inputs": [],
      "name": "uniswapV3Factory",
      "outputs": [
        {
          "internalType": "address",
          "name": "",
          "type": "address"
        }
      ],
      "stateMutability": "view",
      "type": "function"
    },
    {
      "inputs": [
        {
          "internalType": "int256",
          "name": "amount0Delta",
          "type": "int256"
        },
        {
          "internalType": "int256",
          "name": "amount1Delta",
          "type": "int256"
        },
        {
          "internalType": "bytes",
          "name": "data",
          "type": "bytes"
        }
      ],
      "name": "uniswapV3SwapCallback",
      "outputs": [],
      "stateMutability": "nonpayable",
      "type": "function"
    },
    {
      "inputs": [
        {
          "internalType": "uint256",
          "name": "amountMinimum",
          "type": "uint256"
        },
        {
          "internalType": "address",
          "name": "recipient",
          "type": "address"
        }
      ],
      "name": "unwrapWrappedNatives",
      "outputs": [],
      "stateMutability": "payable",
      "type": "function"
    },
    {
      "inputs": [],
      "name": "wrappedNativeToken",
      "outputs": [
        {
          "internalType": "address",
          "name": "",
          "type": "address"
        }
      ],
      "stateMutability": "view",
      "type": "function"
    },
    {
      "stateMutability": "payable",
      "type": "receive"
    }
  ],
  "bytecode": "0x6101406040523480156200001257600080fd5b506040516200294838038062002948833981016040819052620000359162000091565b6001600160601b0319606092831b811660805295821b861660a05293811b851660c05291821b841660e052811b8316610100521b166101205262000112565b80516001600160a01b03811681146200008c57600080fd5b919050565b60008060008060008060c08789031215620000ab57600080fd5b620000b68762000074565b9550620000c66020880162000074565b9450620000d66040880162000074565b9350620000e66060880162000074565b9250620000f66080880162000074565b91506200010660a0880162000074565b90509295509295509295565b60805160601c60a05160601c60c05160601c60e05160601c6101005160601c6101205160601c612788620001c06000396000818160a501528181610103015281816108d40152610998015260008181610188015281816102e8015281816103e80152610be20152600061021e0152600081816101540152610b3a0152600081816102720152610b190152600081816101bc01528181610a4801528181610ecc015261112d01526127886000f3fe6080604052600436106100955760003560e01c80639d63848a116100595780639d63848a1461020c578063ac9650d814610240578063b3461c8714610260578063b7f68a0e14610294578063fa461e33146102a757600080fd5b806317fcb39b146100f15780634219dc40146101425780634b8ce602146101765780635b549182146101aa5780636fc884f9146101de57600080fd5b366100ec57336001600160a01b037f000000000000000000000000000000000000000000000000000000000000000016146100ea5760405163631b2c4f60e11b81523360048201526024015b60405180910390fd5b005b600080fd5b3480156100fd57600080fd5b506101257f000000000000000000000000000000000000000000000000000000000000000081565b6040516001600160a01b0390911681526020015b60405180910390f35b34801561014e57600080fd5b506101257f000000000000000000000000000000000000000000000000000000000000000081565b34801561018257600080fd5b506101257f000000000000000000000000000000000000000000000000000000000000000081565b3480156101b657600080fd5b506101257f000000000000000000000000000000000000000000000000000000000000000081565b3480156101ea57600080fd5b506101fe6101f9366004611d1a565b6102c7565b604051908152602001610139565b34801561021857600080fd5b506101257f000000000000000000000000000000000000000000000000000000000000000081565b61025361024e366004611d33565b61072e565b6040516101399190611e04565b34801561026c57600080fd5b506101257f000000000000000000000000000000000000000000000000000000000000000081565b6100ea6102a2366004611e7b565b6108bc565b3480156102b357600080fd5b506100ea6102c2366004611eab565b610a0b565b60004282610120013510156102e4576102e4826101200135610abe565b60007f00000000000000000000000000000000000000000000000000000000000000006001600160a01b0316637facccee3360405180608001604052808760000160208101906103349190611f2b565b6001600160a01b031681526020018760200160208101906103559190611f2b565b6001600160a01b031681526020018760400135815260200187606001358152506040518363ffffffff1660e01b8152600401610392929190611f48565b60606040518083038186803b1580156103aa57600080fd5b505afa1580156103be573d6000803e3d6000fd5b505050506040513d601f19601f820116820180604052508101906103e29190611f91565b925050507f00000000000000000000000000000000000000000000000000000000000000006001600160a01b03166380f126e3333060405180608001604052808860000160208101906104359190611f2b565b6001600160a01b031681526020018860200160208101906104569190611f2b565b6001600160a01b031681526040808a0135602083015260608a013591015260008061048560e08b013589610ada565b6040518763ffffffff1660e01b81526004016104a696959493929190611fbf565b600060405180830381600087803b1580156104c057600080fd5b505af11580156104d4573d6000803e3d6000fd5b505050506000806105c06040518060e001604052808760000160208101906104fc9190611f2b565b6001600160a01b0316815260200187602001602081019061051d9190611f2b565b6001600160a01b0316815260200187604001358152602001876060013581526020018760c0016020810190610552919061203d565b61055c573061056c565b61056c60c0890160a08a01611f2b565b6001600160a01b0316815260200161058a60e0890160c08a0161203d565b6105a35761059e60c0890160a08a01611f2b565b6105a5565b305b6001600160a01b031681526020018760e00135815250610af4565b90925090506106236105d56020870187611f2b565b6105e56040880160208901611f2b565b60408801356105fa60a08a0160808b0161206b565b61060a60c08b0160a08c01611f2b565b61061a60e08c0160c08d0161203d565b88886001610ea2565b9350846101000135841015610659576040516312bc00e560e11b81526004810185905261010086013560248201526044016100e1565b606085013561066e6040870160208801611f2b565b6001600160a01b03166106846020880188611f2b565b6001600160a01b03167f687df94cadfc3170c20cdc12c26a0ccc030caa4d2eb9b9c355fc57abebbb74b160408901356106c360a08b0160808c0161206b565b336106d460c08d0160a08e01611f2b565b6106e460e08e0160c08f0161203d565b6040805195865262ffffff9490941660208601526001600160a01b0392831685850152911660608401521515608083015260a082018a9052519081900360c00190a4505050919050565b60608167ffffffffffffffff81111561074957610749612088565b60405190808252806020026020018201604052801561077c57816020015b60608152602001906001900390816107675790505b50905060005b828110156108b557600080308686858181106107a0576107a061209e565b90506020028101906107b291906120b4565b6040516107c0929190612102565b600060405180830381855af49150503d80600081146107fb576040519150601f19603f3d011682016040523d82523d6000602084013e610800565b606091505b5091509150816108825760448151101561084e57604051635d2f436f60e11b815260206004820152600e60248201526d125b9d985b1a590814995cdd5b1d60921b60448201526064016100e1565b6004810190508080602001905181019061086891906121a0565b604051635d2f436f60e11b81526004016100e191906121e9565b808484815181106108955761089561209e565b6020026020010181905250505080806108ad90612212565b915050610782565b5092915050565b6040516370a0823160e01b81523060048201526000907f00000000000000000000000000000000000000000000000000000000000000006001600160a01b0316906370a082319060240160206040518083038186803b15801561091e57600080fd5b505afa158015610932573d6000803e3d6000fd5b505050506040513d601f19601f82011682018060405250810190610956919061222d565b90508281101561097c57604051636b8c4dab60e01b8152600481018290526024016100e1565b8015610a0657604051632e1a7d4d60e01b8152600481018290527f00000000000000000000000000000000000000000000000000000000000000006001600160a01b031690632e1a7d4d90602401600060405180830381600087803b1580156109e457600080fd5b505af11580156109f8573d6000803e3d6000fd5b50505050610a068282610fd7565b505050565b600080610a1a83850185612246565b915091508115610aab57600080600083806020019051810190610a3d91906122d4565b925092509250610a6f7f0000000000000000000000000000000000000000000000000000000000000000848484611077565b610aa33360008b13610a815789610a83565b8a5b60008c13610a915784610a93565b855b6001600160a01b031691906110b7565b505050610ab6565b610ab6868683611109565b505050505050565b60405163070b57d960e41b8152600481018290526024016100e1565b6000818310610ae95781610aeb565b825b90505b92915050565b6000804283606001511115610b1157610b1183606001514261115e565b600080610b687f00000000000000000000000000000000000000000000000000000000000000007f00000000000000000000000000000000000000000000000000000000000000008760000151886020015161118e565b604080516101208101825288516001600160a01b0390811682526020808b01518216818401528a840151838501526060808c015190840152306080840152600060a0840181905260c08085018290528c015160e08501528451918201855281526101008301529151630d5a19df60e31b81529395509193507f00000000000000000000000000000000000000000000000000000000000000001691636ad0cef891610c1591600401612321565b600060405180830381600087803b158015610c2f57600080fd5b505af1158015610c43573d6000803e3d6000fd5b505050506040513d6000823e601f3d908101601f19168201604052610c6b91908101906123c6565b505060408051610100810182528882015181526060808a01516020830152308284018190529082018190526080820152600060a0820181905260c08083018290528a015160e083015291516303182c1760e11b81529193506001600160a01b0385169250630630582e91610d4691906004016000610100820190508251825260208301516020830152604083015160018060a01b038082166040850152806060860151166060850152806080860151166080850152505060a083015160a083015260c083015160c083015260e083015160e083015292915050565b606060405180830381600087803b158015610d6057600080fd5b505af1158015610d74573d6000803e3d6000fd5b505050506040513d601f19601f82011682018060405250810190610d989190611f91565b92505050826001600160a01b0316637087c1f66040518060e00160405280896040015181526020018960600151815260200189608001516001600160a01b031681526020018960a001516001600160a01b0316815260200160006002811115610e0357610e03612434565b8152602001848152602001604051806020016040528060008152508152506040518263ffffffff1660e01b8152600401610e3d919061244a565b600060405180830381600087803b158015610e5757600080fd5b505af1158015610e6b573d6000803e3d6000fd5b505050506040513d6000823e601f3d908101601f19168201604052610e9391908101906123c6565b50919890975095505050505050565b600084610eaf5782610eb1565b835b905084610ebe5783610ec0565b825b15610fca576000610ef37f00000000000000000000000000000000000000000000000000000000000000008c8c8b611243565b604080516001600160a01b038e811660208301528d168183015262ffffff8b16606080830191909152825180830390910181526080820190925291925090610f4290600190839060a0016124d0565b60408051601f1981840301815260c0830182526001600160a01b038b168352891560208401526001918301919091529150600090610fb690606081018a610f895789610f8b565b885b815260200187610f9b578d610f9e565b60005b81526020018490526001600160a01b0385169061126d565b9150610fc4905081856124eb565b93505050505b9998505050505050505050565b604080516000808252602082019092526001600160a01b0384169083906040516110019190612503565b60006040518083038185875af1925050503d806000811461103e576040519150601f19603f3d011682016040523d82523d6000602084013e611043565b606091505b5050905080610a065760405163296c17bb60e21b81526001600160a01b0384166004820152602481018390526044016100e1565b6000611085858585856114ed565b90506001600160a01b03811633146110b0576040516307c1698f60e01b815260040160405180910390fd5b5050505050565b604080516001600160a01b038416602482015260448082018490528251808303909101815260649091019091526020810180516001600160e01b031663a9059cbb60e01b179052610a06908490611586565b60008060008380602001905181019061112291906122d4565b9250925092506111547f0000000000000000000000000000000000000000000000000000000000000000848484611077565b610ab68686611658565b60405163b9e0f8d560e01b8152600481018390526bffffffffffffffffffffffff821660248201526044016100e1565b6000806111a56001600160a01b038716858561167b565b6040516330af0bbf60e21b81526001600160a01b0380831660048301529193509086169063c2bc2efc9060240160206040518083038186803b1580156111ea57600080fd5b505afa1580156111fe573d6000803e3d6000fd5b505050506040513d601f19601f82011682018060405250810190611222919061251f565b90506001600160a01b03811661123a5761123a6116a7565b94509492505050565b6000611251858585856114ed565b9050611265816001600160a01b03166116c0565b949350505050565b6000806000846001600160a01b0316633850c7bd6040518163ffffffff1660e01b815260040160e06040518083038186803b1580156112ab57600080fd5b505afa1580156112bf573d6000803e3d6000fd5b505050506040513d601f19601f820116820180604052508101906112e39190612553565b5050505050509050600084608001516000141561133757846020015161132757611322600173fffd8963efd1fc6a506488495d951d5263988d266125f2565b611344565b6113226401000276a3600161261a565b61134485608001516116ea565b90506401000276a36001600160a01b0382161161136e5761136b6401000276a3600161261a565b90505b73fffd8963efd1fc6a506488495d951d5263988d266001600160a01b038216106113b4576113b1600173fffd8963efd1fc6a506488495d951d5263988d266125f2565b90505b84602001516113d757806001600160a01b0316826001600160a01b0316106113ed565b806001600160a01b0316826001600160a01b0316115b156114e457600080876001600160a01b031663128acb08886000015189602001518a60400151611432576114248b6060015161173a565b61142d90612645565b61143f565b61143f8b6060015161173a565b878c60a001516040518663ffffffff1660e01b8152600401611465959493929190612662565b6040805180830381600087803b15801561147e57600080fd5b505af1158015611492573d6000803e3d6000fd5b505050506040513d601f19601f820116820180604052508101906114b6919061269d565b9150915086602001516114d257806114cd83612645565b6114dc565b816114dc82612645565b909650945050505b50509250929050565b604051630b4c774160e11b81526001600160a01b038481166004830152838116602483015262ffffff8316604483015260009190861690631698ee829060640160206040518083038186803b15801561154557600080fd5b505afa158015611559573d6000803e3d6000fd5b505050506040513d601f19601f8201168201806040525081019061157d919061251f565b95945050505050565b60006115db826040518060400160405280602081526020017f5361666545524332303a206c6f772d6c6576656c2063616c6c206661696c6564815250856001600160a01b03166117509092919063ffffffff16565b805190915015610a0657808060200190518101906115f991906126c1565b610a065760405162461bcd60e51b815260206004820152602a60248201527f5361666545524332303a204552433230206f7065726174696f6e20646964206e6044820152691bdd081cdd58d8d9595960b21b60648201526084016100e1565b6040516377760aaf60e11b815260048101839052602481018290526044016100e1565b600061168884848461175f565b90506001600160a01b0381166116a0576116a06116a7565b9392505050565b60405163d92e233d60e01b815260040160405180910390fd5b6001600160a01b0381166116e75760405163037064f160e01b815260040160405180910390fd5b50565b60006001600160c01b03821161171157610aee61170c604084901b60006117e4565b61186b565b6000806117278468010000000000000000611895565b9150915061126561170c838360006118b4565b6000600160ff1b821061174c57600080fd5b5090565b60606112658484600085611942565b60405163d81e842360e01b81526001600160a01b03838116600483015282811660248301526000919085169063d81e84239060440160206040518083038186803b1580156117ac57600080fd5b505afa1580156117c0573d6000803e3d6000fd5b505050506040513d601f19601f82011682018060405250810190611265919061251f565b600060001983141561180757506fffffffffffffffffffffffffffffffff610aee565b8261181457506000610aee565b50816001818101901c5b818110156118465780915060018182868161183b5761183b6126de565b0401901c905061181e565b5081801561185c57508261185a82806126f4565b105b15610aee578061126581612212565b60006001600160a01b0382111561174c57604051630ba006e160e41b815260040160405180910390fd5b6000806000198385098385029250828110838203039150509250929050565b6000826118cc576118c584836117e4565b90506116a0565b60006118db8585600019611a73565b905060001991505b81811015611900578091506118f9858583611a73565b90506118e3565b821561193a576000806119138485611895565b915091508086118061192457508187115b15611937578361193381612212565b9450505b50505b509392505050565b6060824710156119a35760405162461bcd60e51b815260206004820152602660248201527f416464726573733a20696e73756666696369656e742062616c616e636520666f6044820152651c8818d85b1b60d21b60648201526084016100e1565b6001600160a01b0385163b6119fa5760405162461bcd60e51b815260206004820152601d60248201527f416464726573733a2063616c6c20746f206e6f6e2d636f6e747261637400000060448201526064016100e1565b600080866001600160a01b03168587604051611a169190612503565b60006040518083038185875af1925050503d8060008114611a53576040519150601f19603f3d011682016040523d82523d6000602084013e611a58565b606091505b5091509150611a68828286611ab2565b979650505050505050565b600080611a838585856000611aeb565b90506000611a95826000866000611b71565b9092509050611aa8828260026000611aeb565b9695505050505050565b60608315611ac15750816116a0565b825115611ad15782518084602001fd5b8160405162461bcd60e51b81526004016100e191906121e9565b600080611af9868686611be2565b90925090508015611b2e57604051636aa917ab60e01b81526004810187905260248101869052604481018590526064016100e1565b8215611b6857600080611b418487611895565b9150915080871180611b5257508188115b15611b655783611b6181612212565b9450505b50505b50949350505050565b8184018481108285018101908015611b9e57811580611b995750611b96600183612713565b86115b611ba2565b8186115b15611bd8576040516347b1893f60e01b8152600481018890526024810187905260448101869052606481018590526084016100e1565b5094509492505050565b60008083611bfd57611bf685846000611c91565b9150611c89565b6000611c0884611cc3565b90506000611c1585611cf0565b90505b8515611c6957600080611c2b8885611895565b91509150611c3b86868484611b71565b9096509450611c4a8884611895565b9092509050611c5c82828b6000611b71565b9099509750611c18915050565b611c818484611c7a8a896000611c91565b6000611b71565b909450925050505b935093915050565b6000611c9d838561272a565b9050818015611cb45750611cb1838561273e565b15155b156116a0578061157d81612212565b600081611ce3576040516301de42a960e41b815260040160405180910390fd5b5060008190030460010190565b600081611d10576040516319dbad9f60e01b815260040160405180910390fd5b5060008190030690565b60006101408284031215611d2d57600080fd5b50919050565b60008060208385031215611d4657600080fd5b823567ffffffffffffffff80821115611d5e57600080fd5b818501915085601f830112611d7257600080fd5b813581811115611d8157600080fd5b8660208260051b8501011115611d9657600080fd5b60209290920196919550909350505050565b60005b83811015611dc3578181015183820152602001611dab565b83811115611dd2576000848401525b50505050565b60008151808452611df0816020860160208601611da8565b601f01601f19169290920160200192915050565b6000602080830181845280855180835260408601915060408160051b870101925083870160005b82811015611e5957603f19888603018452611e47858351611dd8565b94509285019290850190600101611e2b565b5092979650505050505050565b6001600160a01b03811681146116e757600080fd5b60008060408385031215611e8e57600080fd5b823591506020830135611ea081611e66565b809150509250929050565b60008060008060608587031215611ec157600080fd5b8435935060208501359250604085013567ffffffffffffffff80821115611ee757600080fd5b818701915087601f830112611efb57600080fd5b813581811115611f0a57600080fd5b886020828501011115611f1c57600080fd5b95989497505060200194505050565b600060208284031215611f3d57600080fd5b81356116a081611e66565b6001600160a01b038316815260a081016116a0602083018480516001600160a01b0390811683526020808301519091169083015260408082015190830152606090810151910152565b600080600060608486031215611fa657600080fd5b8351925060208401519150604084015190509250925092565b6001600160a01b038781168252861660208201526101208101612011604083018780516001600160a01b0390811683526020808301519091169083015260408082015190830152606090810151910152565b8460c08301528360e083015282610100830152979650505050505050565b80151581146116e757600080fd5b60006020828403121561204f57600080fd5b81356116a08161202f565b62ffffff811681146116e757600080fd5b60006020828403121561207d57600080fd5b81356116a08161205a565b634e487b7160e01b600052604160045260246000fd5b634e487b7160e01b600052603260045260246000fd5b6000808335601e198436030181126120cb57600080fd5b83018035915067ffffffffffffffff8211156120e657600080fd5b6020019150368190038213156120fb57600080fd5b9250929050565b8183823760009101908152919050565b604051601f8201601f1916810167ffffffffffffffff8111828210171561213b5761213b612088565b604052919050565b600067ffffffffffffffff82111561215d5761215d612088565b50601f01601f191660200190565b600061217e61217984612143565b612112565b905082815283838301111561219257600080fd5b6116a0836020830184611da8565b6000602082840312156121b257600080fd5b815167ffffffffffffffff8111156121c957600080fd5b8201601f810184136121da57600080fd5b6112658482516020840161216b565b602081526000610aeb6020830184611dd8565b634e487b7160e01b600052601160045260246000fd5b6000600019821415612226576122266121fc565b5060010190565b60006020828403121561223f57600080fd5b5051919050565b6000806040838503121561225957600080fd5b82356122648161202f565b9150602083013567ffffffffffffffff81111561228057600080fd5b8301601f8101851361229157600080fd5b803561229f61217982612143565b8181528660208385010111156122b457600080fd5b816020840160208301376000602083830101528093505050509250929050565b6000806000606084860312156122e957600080fd5b83516122f481611e66565b602085015190935061230581611e66565b60408501519092506123168161205a565b809150509250925092565b6020815261233b6020820183516001600160a01b03169052565b6000602083015161235760408401826001600160a01b03169052565b506040830151606083015260608301516080830152608083015161238660a08401826001600160a01b03169052565b5060a083015160c083015260c083015160e083015260e0830151610100818185015280850151915050610120808185015250611265610140840182611dd8565b600080600080608085870312156123dc57600080fd5b845193506020850151925060408501519150606085015167ffffffffffffffff81111561240857600080fd5b8501601f8101871361241957600080fd5b6124288782516020840161216b565b91505092959194509250565b634e487b7160e01b600052602160045260246000fd5b6020815281516020820152602082015160408201526000604083015160018060a01b03808216606085015280606086015116608085015250506080830151600381106124a657634e487b7160e01b600052602160045260246000fd5b8060a08401525060a083015160c083015260c083015160e080840152611265610100840182611dd8565b82151581526040602082015260006112656040830184611dd8565b600082198211156124fe576124fe6121fc565b500190565b60008251612515818460208701611da8565b9190910192915050565b60006020828403121561253157600080fd5b81516116a081611e66565b805161ffff8116811461254e57600080fd5b919050565b600080600080600080600060e0888a03121561256e57600080fd5b875161257981611e66565b8097505060208801518060020b811461259157600080fd5b955061259f6040890161253c565b94506125ad6060890161253c565b93506125bb6080890161253c565b925060a088015160ff811681146125d157600080fd5b60c08901519092506125e28161202f565b8091505092959891949750929550565b60006001600160a01b0383811690831681811015612612576126126121fc565b039392505050565b60006001600160a01b0382811684821680830382111561263c5761263c6121fc565b01949350505050565b6000600160ff1b82141561265b5761265b6121fc565b5060000390565b6001600160a01b0386811682528515156020830152604082018590528316606082015260a060808201819052600090611a6890830184611dd8565b600080604083850312156126b057600080fd5b505080516020909101519092909150565b6000602082840312156126d357600080fd5b81516116a08161202f565b634e487b7160e01b600052601260045260246000fd5b600081600019048311821515161561270e5761270e6121fc565b500290565b600082821015612725576127256121fc565b500390565b600082612739576127396126de565b500490565b60008261274d5761274d6126de565b50069056fea264697066735822122025b1b027f5250f09af22dfe3ce7c8a3143c07b225d588884a869164a4291bf2e64736f6c63430008080033",
  "linkReferences": {},
  "deployedLinkReferences": {}
}