{
  "_format": "hh-sol-artifact-1",
  "contractName": "TimeswapV2PeripheryUniswapV3QuoterBorrowGivenPrincipal",
  "sourceName": "@timeswap-labs/v2-periphery-uniswapV3/contracts/lens/TimeswapV2PeripheryUniswapV3QuoterBorrowGivenPrincipal.sol",
  "abi": [
    {
      "inputs": [
        {
          "internalType": "address",
          "name": "chosenOptionFactory",
          "type": "address"
        },
        {
          "internalType": "address",
          "name": "chosenPoolFactory",
          "type": "address"
        },
        {
          "internalType": "address",
          "name": "chosenTokens",
          "type": "address"
        },
        {
          "internalType": "address",
          "name": "chosenUniswapV3Factory",
          "type": "address"
        }
      ],
      "stateMutability": "nonpayable",
      "type": "constructor"
    },
    {
      "inputs": [
        {
          "internalType": "uint256",
          "name": "addendA0",
          "type": "uint256"
        },
        {
          "internalType": "uint256",
          "name": "addendA1",
          "type": "uint256"
        },
        {
          "internalType": "uint256",
          "name": "addendB0",
          "type": "uint256"
        },
        {
          "internalType": "uint256",
          "name": "addendB1",
          "type": "uint256"
        }
      ],
      "name": "AddOverflow",
      "type": "error"
    },
    {
      "inputs": [],
      "name": "CanOnlyBeCalledByOptionContract",
      "type": "error"
    },
    {
      "inputs": [],
      "name": "CanOnlyBeCalledByPoolContract",
      "type": "error"
    },
    {
      "inputs": [],
      "name": "CanOnlyBeCalledByTokensContract",
      "type": "error"
    },
    {
      "inputs": [],
      "name": "CanOnlyBeCalledByUniswapV3Contract",
      "type": "error"
    },
    {
      "inputs": [
        {
          "internalType": "uint256",
          "name": "dividend0",
          "type": "uint256"
        },
        {
          "internalType": "uint256",
          "name": "dividend1",
          "type": "uint256"
        },
        {
          "internalType": "uint256",
          "name": "divisor",
          "type": "uint256"
        }
      ],
      "name": "DivOverflow",
      "type": "error"
    },
    {
      "inputs": [],
      "name": "DivideByZero",
      "type": "error"
    },
    {
      "inputs": [],
      "name": "ModuloByZero",
      "type": "error"
    },
    {
      "inputs": [
        {
          "internalType": "uint256",
          "name": "multiplicand",
          "type": "uint256"
        },
        {
          "internalType": "uint256",
          "name": "multiplier",
          "type": "uint256"
        },
        {
          "internalType": "uint256",
          "name": "divisor",
          "type": "uint256"
        }
      ],
      "name": "MulDivOverflow",
      "type": "error"
    },
    {
      "inputs": [
        {
          "internalType": "string",
          "name": "revertString",
          "type": "string"
        }
      ],
      "name": "MulticallFailed",
      "type": "error"
    },
    {
      "inputs": [
        {
          "internalType": "int256",
          "name": "amount0",
          "type": "int256"
        },
        {
          "internalType": "int256",
          "name": "amount1",
          "type": "int256"
        }
      ],
      "name": "PassCalculateInfo",
      "type": "error"
    },
    {
      "inputs": [
        {
          "internalType": "bytes",
          "name": "data",
          "type": "bytes"
        }
      ],
      "name": "PassOptionMintCallbackInfo",
      "type": "error"
    },
    {
      "inputs": [
        {
          "internalType": "bytes",
          "name": "data",
          "type": "bytes"
        }
      ],
      "name": "PassOptionSwapCallbackInfo",
      "type": "error"
    },
    {
      "inputs": [
        {
          "internalType": "uint160",
          "name": "timeswapV2SqrtInterestRateAfter",
          "type": "uint160"
        },
        {
          "internalType": "bytes",
          "name": "data",
          "type": "bytes"
        }
      ],
      "name": "PassPoolLeverageCallbackInfo",
      "type": "error"
    },
    {
      "inputs": [
        {
          "internalType": "int256",
          "name": "amount0",
          "type": "int256"
        },
        {
          "internalType": "int256",
          "name": "amount1",
          "type": "int256"
        },
        {
          "internalType": "uint160",
          "name": "uniswapV3SqrtPriceAfter",
          "type": "uint160"
        }
      ],
      "name": "PassUniswapV3SwapCallbackInfo",
      "type": "error"
    },
    {
      "inputs": [],
      "name": "Uint160Overflow",
      "type": "error"
    },
    {
      "inputs": [],
      "name": "ZeroAddress",
      "type": "error"
    },
    {
      "inputs": [],
      "name": "ZeroPoolAddress",
      "type": "error"
    },
    {
      "inputs": [
        {
          "components": [
            {
              "internalType": "address",
              "name": "token0",
              "type": "address"
            },
            {
              "internalType": "address",
              "name": "token1",
              "type": "address"
            },
            {
              "internalType": "uint256",
              "name": "strike",
              "type": "uint256"
            },
            {
              "internalType": "uint256",
              "name": "maturity",
              "type": "uint256"
            },
            {
              "internalType": "uint24",
              "name": "uniswapV3Fee",
              "type": "uint24"
            },
            {
              "internalType": "address",
              "name": "tokenTo",
              "type": "address"
            },
            {
              "internalType": "address",
              "name": "longTo",
              "type": "address"
            },
            {
              "internalType": "bool",
              "name": "isToken0",
              "type": "bool"
            },
            {
              "internalType": "bool",
              "name": "isLong0",
              "type": "bool"
            },
            {
              "internalType": "uint256",
              "name": "tokenAmount",
              "type": "uint256"
            }
          ],
          "internalType": "struct TimeswapV2PeripheryUniswapV3QuoterBorrowGivenPrincipalParam",
          "name": "param",
          "type": "tuple"
        },
        {
          "internalType": "uint96",
          "name": "durationForward",
          "type": "uint96"
        }
      ],
      "name": "borrowGivenPrincipal",
      "outputs": [
        {
          "internalType": "uint256",
          "name": "positionAmount",
          "type": "uint256"
        },
        {
          "internalType": "uint160",
          "name": "timeswapV2SqrtInterestRateAfter",
          "type": "uint160"
        },
        {
          "internalType": "uint160",
          "name": "uniswapV3SqrtPriceAfter",
          "type": "uint160"
        }
      ],
      "stateMutability": "nonpayable",
      "type": "function"
    },
    {
      "inputs": [
        {
          "internalType": "bytes[]",
          "name": "data",
          "type": "bytes[]"
        }
      ],
      "name": "multicall",
      "outputs": [
        {
          "internalType": "bytes[]",
          "name": "results",
          "type": "bytes[]"
        }
      ],
      "stateMutability": "payable",
      "type": "function"
    },
    {
      "inputs": [],
      "name": "optionFactory",
      "outputs": [
        {
          "internalType": "address",
          "name": "",
          "type": "address"
        }
      ],
      "stateMutability": "view",
      "type": "function"
    },
    {
      "inputs": [],
      "name": "poolFactory",
      "outputs": [
        {
          "internalType": "address",
          "name": "",
          "type": "address"
        }
      ],
      "stateMutability": "view",
      "type": "function"
    },
    {
      "inputs": [
        {
          "components": [
            {
              "internalType": "uint256",
              "name": "strike",
              "type": "uint256"
            },
            {
              "internalType": "uint256",
              "name": "maturity",
              "type": "uint256"
            },
            {
              "internalType": "uint256",
              "name": "token0AndLong0Amount",
              "type": "uint256"
            },
            {
              "internalType": "uint256",
              "name": "token1AndLong1Amount",
              "type": "uint256"
            },
            {
              "internalType": "uint256",
              "name": "shortAmount",
              "type": "uint256"
            },
            {
              "internalType": "bytes",
              "name": "data",
              "type": "bytes"
            }
          ],
          "internalType": "struct TimeswapV2OptionMintCallbackParam",
          "name": "param",
          "type": "tuple"
        }
      ],
      "name": "timeswapV2OptionMintCallback",
      "outputs": [
        {
          "internalType": "bytes",
          "name": "data",
          "type": "bytes"
        }
      ],
      "stateMutability": "nonpayable",
      "type": "function"
    },
    {
      "inputs": [
        {
          "components": [
            {
              "internalType": "uint256",
              "name": "strike",
              "type": "uint256"
            },
            {
              "internalType": "uint256",
              "name": "maturity",
              "type": "uint256"
            },
            {
              "internalType": "bool",
              "name": "isLong0ToLong1",
              "type": "bool"
            },
            {
              "internalType": "uint256",
              "name": "token0AndLong0Amount",
              "type": "uint256"
            },
            {
              "internalType": "uint256",
              "name": "token1AndLong1Amount",
              "type": "uint256"
            },
            {
              "internalType": "bytes",
              "name": "data",
              "type": "bytes"
            }
          ],
          "internalType": "struct TimeswapV2OptionSwapCallbackParam",
          "name": "param",
          "type": "tuple"
        }
      ],
      "name": "timeswapV2OptionSwapCallback",
      "outputs": [
        {
          "internalType": "bytes",
          "name": "data",
          "type": "bytes"
        }
      ],
      "stateMutability": "nonpayable",
      "type": "function"
    },
    {
      "inputs": [
        {
          "components": [
            {
              "internalType": "uint256",
              "name": "strike",
              "type": "uint256"
            },
            {
              "internalType": "uint256",
              "name": "maturity",
              "type": "uint256"
            },
            {
              "internalType": "uint256",
              "name": "long0Amount",
              "type": "uint256"
            },
            {
              "internalType": "uint256",
              "name": "long1Amount",
              "type": "uint256"
            },
            {
              "internalType": "uint256",
              "name": "shortAmount",
              "type": "uint256"
            },
            {
              "internalType": "bytes",
              "name": "data",
              "type": "bytes"
            }
          ],
          "internalType": "struct TimeswapV2PoolLeverageCallbackParam",
          "name": "param",
          "type": "tuple"
        }
      ],
      "name": "timeswapV2PoolLeverageCallback",
      "outputs": [
        {
          "internalType": "bytes",
          "name": "data",
          "type": "bytes"
        }
      ],
      "stateMutability": "nonpayable",
      "type": "function"
    },
    {
      "inputs": [
        {
          "components": [
            {
              "internalType": "uint256",
              "name": "strike",
              "type": "uint256"
            },
            {
              "internalType": "uint256",
              "name": "maturity",
              "type": "uint256"
            },
            {
              "internalType": "uint256",
              "name": "long0Balance",
              "type": "uint256"
            },
            {
              "internalType": "uint256",
              "name": "long1Balance",
              "type": "uint256"
            },
            {
              "internalType": "uint256",
              "name": "longAmount",
              "type": "uint256"
            },
            {
              "internalType": "uint256",
              "name": "shortAmount",
              "type": "uint256"
            },
            {
              "internalType": "bytes",
              "name": "data",
              "type": "bytes"
            }
          ],
          "internalType": "struct TimeswapV2PoolLeverageChoiceCallbackParam",
          "name": "param",
          "type": "tuple"
        }
      ],
      "name": "timeswapV2PoolLeverageChoiceCallback",
      "outputs": [
        {
          "internalType": "uint256",
          "name": "long0Amount",
          "type": "uint256"
        },
        {
          "internalType": "uint256",
          "name": "long1Amount",
          "type": "uint256"
        },
        {
          "internalType": "bytes",
          "name": "data",
          "type": "bytes"
        }
      ],
      "stateMutability": "view",
      "type": "function"
    },
    {
      "inputs": [
        {
          "components": [
            {
              "internalType": "address",
              "name": "token0",
              "type": "address"
            },
            {
              "internalType": "address",
              "name": "token1",
              "type": "address"
            },
            {
              "internalType": "uint256",
              "name": "strike",
              "type": "uint256"
            },
            {
              "internalType": "uint256",
              "name": "maturity",
              "type": "uint256"
            },
            {
              "internalType": "uint256",
              "name": "long0Amount",
              "type": "uint256"
            },
            {
              "internalType": "uint256",
              "name": "long1Amount",
              "type": "uint256"
            },
            {
              "internalType": "uint256",
              "name": "shortAmount",
              "type": "uint256"
            },
            {
              "internalType": "bytes",
              "name": "data",
              "type": "bytes"
            }
          ],
          "internalType": "struct TimeswapV2TokenMintCallbackParam",
          "name": "param",
          "type": "tuple"
        }
      ],
      "name": "timeswapV2TokenMintCallback",
      "outputs": [
        {
          "internalType": "bytes",
          "name": "data",
          "type": "bytes"
        }
      ],
      "stateMutability": "nonpayable",
      "type": "function"
    },
    {
      "inputs": [],
      "name": "tokens",
      "outputs": [
        {
          "internalType": "address",
          "name": "",
          "type": "address"
        }
      ],
      "stateMutability": "view",
      "type": "function"
    },
    {
      "inputs": [],
      "name": "uniswapV3Factory",
      "outputs": [
        {
          "internalType": "address",
          "name": "",
          "type": "address"
        }
      ],
      "stateMutability": "view",
      "type": "function"
    },
    {
      "inputs": [
        {
          "internalType": "int256",
          "name": "amount0Delta",
          "type": "int256"
        },
        {
          "internalType": "int256",
          "name": "amount1Delta",
          "type": "int256"
        },
        {
          "internalType": "bytes",
          "name": "data",
          "type": "bytes"
        }
      ],
      "name": "uniswapV3SwapCallback",
      "outputs": [],
      "stateMutability": "view",
      "type": "function"
    }
  ],
  "bytecode": "0x6101006040523480156200001257600080fd5b506040516200451b3803806200451b833981016040819052620000359162000081565b6001600160601b0319606091821b811660805293811b841660a05291821b831660c052901b1660e052620000de565b80516001600160a01b03811681146200007c57600080fd5b919050565b600080600080608085870312156200009857600080fd5b620000a38562000064565b9350620000b36020860162000064565b9250620000c36040860162000064565b9150620000d36060860162000064565b905092959194509250565b60805160601c60a05160601c60c05160601c60e05160601c614379620001a26000396000818161020401528181610bba0152818161141d01526116d90152600081816101080152818161030701528181610e9d01528181610f540152611cbb015260008181610258015281816102e6015281816109b801528181610e7c01528181610f33015281816113c5015281816117040152611c9a015260008181610181015281816103e1015281816118330152818161200001526124ab01526143796000f3fe6080604052600436106100a75760003560e01c80639d63848a116100645780639d63848a146101f2578063ac9650d814610226578063b3461c8714610246578063dc4a48471461027a578063e13c022c1461029a578063fa461e33146102ba57600080fd5b80633d21acee146100ac5780634219dc40146100f65780634a358d65146101425780635b5491821461016f578063797481d0146101a35780638662fa6a146101d2575b600080fd5b3480156100b857600080fd5b506100cc6100c7366004613042565b6102dc565b604080519384526001600160a01b0392831660208501529116908201526060015b60405180910390f35b34801561010257600080fd5b5061012a7f000000000000000000000000000000000000000000000000000000000000000081565b6040516001600160a01b0390911681526020016100ed565b34801561014e57600080fd5b5061016261015d3660046131a1565b610953565b6040516100ed9190613297565b34801561017b57600080fd5b5061012a7f000000000000000000000000000000000000000000000000000000000000000081565b3480156101af57600080fd5b506101c36101be3660046132aa565b610e40565b6040516100ed939291906132e4565b3480156101de57600080fd5b506101626101ed36600461331b565b610efc565b3480156101fe57600080fd5b5061012a7f000000000000000000000000000000000000000000000000000000000000000081565b61023961023436600461334f565b611203565b6040516100ed91906133c3565b34801561025257600080fd5b5061012a7f000000000000000000000000000000000000000000000000000000000000000081565b34801561028657600080fd5b5061016261029536600461331b565b611390565b3480156102a657600080fd5b506101626102b5366004613425565b6116d2565b3480156102c657600080fd5b506102da6102d5366004613460565b6117f5565b005b60008080806103487f00000000000000000000000000000000000000000000000000000000000000007f000000000000000000000000000000000000000000000000000000000000000061033360208a018a6134f4565b61034360408b0160208c016134f4565b6118fc565b60408051633a9d71e760e01b8152908901356004820152606089013560248201529092506000915081906001600160a01b03841690633a9d71e790604401604080518083038186803b15801561039d57600080fd5b505afa1580156103b1573d6000803e3d6000fd5b505050506040513d601f19601f820116820180604052508101906103d59190613511565b909250905060006104327f000000000000000000000000000000000000000000000000000000000000000061040d60208c018c6134f4565b61041d60408d0160208e016134f4565b61042d60a08e0160808f01613546565b6119b1565b9050610463604051806080016040528060001515815260200160001515815260200160008152602001600081525090565b600061047260208c018c6134f4565b61048260408d0160208e016134f4565b61049260a08e0160808f01613546565b604080516001600160a01b039485166020820152939092169183019190915262ffffff16606082015260800160405160208183030381529060405290506000816040516020016104e3929190613563565b60408051601f1981840301815291905290506105066101008c0160e08d0161358c565b6105105784610512565b835b1561062c5761056f6040518060a001604052808d60e0016020810190610538919061358c565b158152600060208201526101208e01356040808301919091528e013560608201526080018390526001600160a01b038516906119db565b6060840152604083015261058a6101008c0160e08d0161358c565b6105945784610596565b835b8260400151111561062c576106216040518060a001604052808d60e00160208101906105c2919061358c565b151515815260200160018560000190151590811515815250151581526020018d60e00160208101906105f4919061358c565b6105fe5787610600565b865b81526040808f01356020830152018390526001600160a01b038516906119db565b606084015260408301525b61063d6101008c0160e08d0161358c565b6106475783610649565b845b606083015161065d906101208e01356135bf565b111561071257600182602001901515908115158152505060006040518060a001604052808d60e0016020810190610694919061358c565b151515815260200160008560000190151590811515815250151581526020018d60e00160208101906106c6919061358c565b6106d057866106d2565b875b8e61012001356106e291906135bf565b81526000602082015260400183905290506107066001600160a01b038516826119db565b60608501526040840152505b3361072360a08d0160808e01613546565b61073360c08e0160a08f016134f4565b8d60e0016020810190610746919061358c565b855160208088015160608901516040516107a8989796959493016001600160a01b03978816815262ffffff96909616602087015293909516604085015290151560608401521515608083015291151560a082015260c081019190915260e00190565b60408051601f198184030181526101408301909152915061092890806107d160208f018f6134f4565b6001600160a01b031681526020018d60200160208101906107f291906134f4565b6001600160a01b031681526020018d6040013581526020018d6060013581526020018d610100016020810190610828919061358c565b15158e60e001602081019061083d919061358c565b15151461085c578d60a001602081019061085791906134f4565b61085e565b305b6001600160a01b031681526020018d60c001602081019061087f91906134f4565b6001600160a01b031681526020018d6101000160208101906108a1919061358c565b151581526020018d60e00160208101906108bb919061358c565b6108c95784604001516108de565b84606001518e61012001356108de91906135bf565b81526020018d60e00160208101906108f6919061358c565b6109145784606001518e610120013561090f91906135bf565b61091a565b84604001515b81526020018390528b611c8e565b8151929b509950915061094490820160209081019083016135d6565b96505050505050509250925092565b6040805160e08101825260008082526020820181905291810182905260608181018390526080820183905260a0820183905260c08201929092528260a001518060200190518101906109a59190613653565b815160208301519194509192506109dd917f000000000000000000000000000000000000000000000000000000000000000091611e9a565b80608001516109f05782606001516109f6565b82604001515b8160c001818151610a07919061371d565b90525060a081015115610bb8578051602082015160608301516080840151610a33578560600151610a39565b85604001515b8460c0015186604051602001610a5496959493929190613735565b60408051601f19818403018152610100830182528551835260208681015190840152838201516001600160a01b03169183019190915230606083015260808084018051159184019190915251909350339163b084c2529160a0820190610abb576000610abe565b60015b6001811115610acf57610acf613783565b81526020018460a001518152602001858152506040518263ffffffff1660e01b8152600401610afe91906137ad565b600060405180830381600087803b158015610b1857600080fd5b505af1925050508015610b4d57506040513d6000823e601f3d908101601f19168201604052610b4a9190810190613833565b60015b610bb0573d808015610b7b576040519150601f19603f3d011682016040523d82523d6000602084013e610b80565b606091505b50610b9281636fd90d8560e01b611f50565b925082806020019051810190610ba89190613882565b925050610e1c565b505050610e1c565b7f00000000000000000000000000000000000000000000000000000000000000006001600160a01b0316634fd991ea60405180610160016040528084600001516001600160a01b0316815260200184602001516001600160a01b0316815260200186600001518152602001866020015181526020018460800151610c3c5730610c42565b84606001515b6001600160a01b031681526020018460800151610c63578460600151610c65565b305b6001600160a01b03168152602001306001600160a01b031681526020018460800151610c92576000610c98565b8460c001515b81526020018460800151610cb0578460c00151610cb3565b60005b815260200160008152602001604051806020016040528060008152508152506040518263ffffffff1660e01b8152600401610cee91906138b6565b600060405180830381600087803b158015610d0857600080fd5b505af1158015610d1c573d6000803e3d6000fd5b505050506040513d6000823e601f3d908101601f19168201604052610d449190810190613882565b50610df1604051806101400160405280336001600160a01b0316815260200183600001516001600160a01b0316815260200183602001516001600160a01b0316815260200185600001518152602001856020015181526020018360800151151581526020018360800151610db9576000610dbf565b85604001515b81526020018360800151610dd7578560600151610dda565b60005b815260c08401516020820152604001849052611fc4565b91508060c0015182604051602001610e0a929190613987565b60405160208183030381529060405291505b81604051632e1c70f360e11b8152600401610e379190613297565b60405180910390fd5b60008060608180808080610e5760c08a018a6139a0565b810190610e6491906139ed565b919e509c509a50939850919650945092509050610ec37f00000000000000000000000000000000000000000000000000000000000000007f0000000000000000000000000000000000000000000000000000000000000000878761222c565b5084848484848a604051602001610edf96959493929190613a9a565b604051602081830303815290604052955050505050509193909250565b6060600080808080610f1160a08801886139a0565b810190610f1e9190613ade565b9a509398509196509450925090506000610f7a7f00000000000000000000000000000000000000000000000000000000000000007f0000000000000000000000000000000000000000000000000000000000000000888861222c565b90506040518060e00160405280876001600160a01b03168152602001866001600160a01b03168152602001856001600160a01b03168152602001846001600160a01b03168152602001831515815260200183610fda578960400135610fe0565b89606001355b815260200183610ff4578960600135610ffa565b89604001355b905260405161100e91908990602001613b76565b60408051601f19818403018152610120830182528a35835260208b8101359084015230918301829052606083019190915233608083015297506001600160a01b038216906380e066799060a08101600181526020018561106f576000611075565b8b608001355b815260200185611089578b6080013561108c565b60005b81526020018a8152506040518263ffffffff1660e01b81526004016110b19190613bdf565b600060405180830381600087803b1580156110cb57600080fd5b505af192505050801561110057506040513d6000823e601f3d908101601f191682016040526110fd9190810190613c81565b60015b611163573d80801561112e576040519150601f19603f3d011682016040523d82523d6000602084013e611133565b606091505b5061114581632e1c70f360e11b611f50565b97508780602001905181019061115b9190613882565b975050611168565b505050505b60405163a8f403b760e01b81528835600482015260208901356024820152600090339063a8f403b79060440160206040518083038186803b1580156111ac57600080fd5b505afa1580156111c0573d6000803e3d6000fd5b505050506040513d601f19601f820116820180604052508101906111e491906135d6565b905080886040516312201d1760e31b8152600401610e37929190613cda565b6060816001600160401b0381111561121d5761121d613094565b60405190808252806020026020018201604052801561125057816020015b606081526020019060019003908161123b5790505b50905060005b82811015611389576000803086868581811061127457611274613cfe565b905060200281019061128691906139a0565b604051611294929190613d14565b600060405180830381855af49150503d80600081146112cf576040519150601f19603f3d011682016040523d82523d6000602084013e6112d4565b606091505b5091509150816113565760448151101561132257604051635d2f436f60e11b815260206004820152600e60248201526d125b9d985b1a590814995cdd5b1d60921b6044820152606401610e37565b6004810190508080602001905181019061133c9190613d24565b604051635d2f436f60e11b8152600401610e379190613297565b8084848151811061136957611369613cfe565b60200260200101819052505050808061138190613d6c565b915050611256565b5092915050565b60606000808080806113a560a08801886139a0565b8101906113b29190613d87565b9a509398509196509450925090506113eb7f00000000000000000000000000000000000000000000000000000000000000008686611e9a565b6113fb606088016040890161358c565b61140957866060013561140f565b86608001355b611419908261371d565b90507f00000000000000000000000000000000000000000000000000000000000000006001600160a01b0316634fd991ea604051806101600160405280886001600160a01b03168152602001876001600160a01b031681526020018a6000013581526020018a6020013581526020018a604001602081019061149b919061358c565b6114a557866114a7565b305b6001600160a01b031681526020016114c560608c0160408d0161358c565b6114cf57306114d1565b865b6001600160a01b031681523060208201526040908101906114f89060608d01908d0161358c565b6115025784611505565b60005b815260200161151a60608c0160408d0161358c565b611525576000611527565b845b815260200160008152602001604051806020016040528060008152508152506040518263ffffffff1660e01b815260040161156291906138b6565b600060405180830381600087803b15801561157c57600080fd5b505af1158015611590573d6000803e3d6000fd5b505050506040513d6000823e601f3d908101601f191682016040526115b89190810190613882565b50611691604051806101400160405280336001600160a01b03168152602001876001600160a01b03168152602001866001600160a01b03168152602001896000013581526020018960200135815260200189604001602081019061161c919061358c565b15815260200161163260608b0160408c0161358c565b61163c578461163f565b60005b61164d9060608c013561371d565b815260200161166260608b0160408c0161358c565b61166d57600061166f565b845b61167d9060808c013561371d565b815260200183815260200188815250611fc4565b955080866040516020016116a6929190613987565b604051602081830303815290604052955085604051636fd90d8560e01b8152600401610e379190613297565b60606116fd7f0000000000000000000000000000000000000000000000000000000000000000612364565b60006117457f000000000000000000000000000000000000000000000000000000000000000061173060208601866134f4565b61174060408701602088016134f4565b612390565b90506001600160a01b03811663b2ceca7760408501356060860135336080880135611771576001611774565b60005b6080890135611787578860a0013561178d565b88608001355b6040518663ffffffff1660e01b81526004016117ad959493929190613df4565b600060405180830381600087803b1580156117c757600080fd5b505af11580156117db573d6000803e3d6000fd5b505060408051602081019091526000815295945050505050565b60008061180483850185613e34565b9150915081156118e9576000806000838060200190518101906118279190613e79565b9350935093505061185a7f0000000000000000000000000000000000000000000000000000000000000000848484612415565b6000336001600160a01b0316633850c7bd6040518163ffffffff1660e01b815260040160e06040518083038186803b15801561189557600080fd5b505afa1580156118a9573d6000803e3d6000fd5b505050506040513d601f19601f820116820180604052508101906118cd9190613eea565b50505050505090506118e08a8a83612455565b505050506118f4565b6118f4868683612487565b505050505050565b6000806119136001600160a01b03871685856124dc565b6040516330af0bbf60e21b81526001600160a01b0380831660048301529193509086169063c2bc2efc9060240160206040518083038186803b15801561195857600080fd5b505afa15801561196c573d6000803e3d6000fd5b505050506040513d601f19601f8201168201806040525081019061199091906135d6565b90506001600160a01b0381166119a8576119a8612508565b94509492505050565b60006119bf85858585612521565b90506119d3816001600160a01b03166125ba565b949350505050565b6000806000846001600160a01b0316633850c7bd6040518163ffffffff1660e01b815260040160e06040518083038186803b158015611a1957600080fd5b505afa158015611a2d573d6000803e3d6000fd5b505050506040513d601f19601f82011682018060405250810190611a519190613eea565b50505050505090506000846060015160001415611aa2578451611a9257611a8d600173fffd8963efd1fc6a506488495d951d5263988d26613f89565b611aaf565b611a8d6401000276a36001613fb1565b611aaf85606001516125e1565b90506401000276a36001600160a01b03821611611ad957611ad66401000276a36001613fb1565b90505b73fffd8963efd1fc6a506488495d951d5263988d266001600160a01b03821610611b1f57611b1c600173fffd8963efd1fc6a506488495d951d5263988d26613f89565b90505b8451611b3f57816001600160a01b0316816001600160a01b031611611b55565b816001600160a01b0316816001600160a01b0316105b15611c8557600080876001600160a01b031663128acb083089600001518a60200151611b9657611b888b60400151612631565b611b9190613fdc565b611ba3565b611ba38b60400151612631565b878c608001516040518663ffffffff1660e01b8152600401611bc9959493929190613ff9565b6040805180830381600087803b158015611be257600080fd5b505af1925050508015611c12575060408051601f3d908101601f19168201909252611c0f91810190613511565b60015b611c5b573d808015611c40576040519150601f19603f3d011682016040523d82523d6000602084013e611c45565b606091505b50611c4f81612647565b9093509150611c5e9050565b50505b8651611c735780611c6e83613fdc565b611c7d565b81611c7d82613fdc565b909650945050505b50509250929050565b60006060600080611ce97f00000000000000000000000000000000000000000000000000000000000000007f0000000000000000000000000000000000000000000000000000000000000000886000015189602001516118fc565b9150508560000151866020015187608001518860a001518960c001518a60e001518b61010001518c6101200151604051602001611d2d98979695949392919061403f565b60408051601f1981840301815260e0830182528882015183526060808a015160208501523092840183905283019190915293506001600160a01b03821690639eee6e51906080810160018152602001611d968a60e001518b61010001518c604001516001612677565b815260200186815250876040518363ffffffff1660e01b8152600401611dbd9291906140a1565b600060405180830381600087803b158015611dd757600080fd5b505af1925050508015611e0c57506040513d6000823e601f3d908101601f19168201604052611e099190810190613c81565b60015b611e72573d808015611e3a576040519150601f19603f3d011682016040523d82523d6000602084013e611e3f565b606091505b50611e51816312201d1760e31b611f50565b935083806020019051810190611e679190614138565b94509250611e779050565b505050505b82806020019051810190611e8b9190614172565b90979096509194509092505050565b60405163d81e842360e01b81526001600160a01b03838116600483015282811660248301526000919085169063d81e84239060440160206040518083038186803b158015611ee757600080fd5b505afa158015611efb573d6000803e3d6000fd5b505050506040513d601f19601f82011682018060405250810190611f1f91906135d6565b90506001600160a01b0381163314611f4a5760405163a5fbb7d960e01b815260040160405180910390fd5b50505050565b81516060906020611f626004836135bf565b611f6c91906141b8565b158015611f9457506001600160e01b03198316611f88856141cc565b6001600160e01b031916145b15611fb657611fae846004611fa981856135bf565b6126ba565b915050611fbe565b835184602001fd5b92915050565b60606000806000806000806000886101200151806020019051810190611fea9190614203565b965096509650965096509650965060008061202f7f00000000000000000000000000000000000000000000000000000000000000008c602001518d604001518b612521565b90508461203c5782612051565b8561204b578a60c00151612051565b8a60e001515b1561217e578a60a0015115158615151461206b578861206d565b305b60208c8101516040808f015181516001600160a01b03958616948101949094529184169083015291909116606082015262ffffff8916608082015260a001604051602081830303815290604052995060018a6040516020016120d0929190613563565b60405160208183030381529060405299506121726040518060c001604052808d60a001511515891515146121045789612106565b305b6001600160a01b031681528815602082015287151560408201526060018761212e5785612143565b8861213d578d60c00151612143565b8d60e001515b815260200186612157578d6060015161215a565b60005b81526020018c90526001600160a01b038316906127c6565b90945092506121f99050565b806001600160a01b0316633850c7bd6040518163ffffffff1660e01b815260040160e06040518083038186803b1580156121b757600080fd5b505afa1580156121cb573d6000803e3d6000fd5b505050506040513d601f19601f820116820180604052508101906121ef9190613eea565b5094965050505050505b604080516001600160a01b0384166020820152016040516020818303038152906040529950505050505050505050919050565b60405163d81e842360e01b81526001600160a01b03838116600483015282811660248301526000919086169063d81e84239060440160206040518083038186803b15801561227957600080fd5b505afa15801561228d573d6000803e3d6000fd5b505050506040513d601f19601f820116820180604052508101906122b191906135d6565b6040516330af0bbf60e21b81526001600160a01b03808316600483015291925060009186169063c2bc2efc9060240160206040518083038186803b1580156122f857600080fd5b505afa15801561230c573d6000803e3d6000fd5b505050506040513d601f19601f8201168201806040525081019061233091906135d6565b90506001600160a01b038116331461235b5760405163863b47e760e01b815260040160405180910390fd5b50949350505050565b6001600160a01b038116331461238d5760405163d2bc8fc960e01b815260040160405180910390fd5b50565b60405163d81e842360e01b81526001600160a01b03838116600483015282811660248301526000919085169063d81e84239060440160206040518083038186803b1580156123dd57600080fd5b505afa1580156123f1573d6000803e3d6000fd5b505050506040513d601f19601f820116820180604052508101906119d391906135d6565b600061242385858585612521565b90506001600160a01b038116331461244e576040516307c1698f60e01b815260040160405180910390fd5b5050505050565b604051633ab8e87b60e21b815260048101849052602481018390526001600160a01b0382166044820152606401610e37565b6000806000838060200190518101906124a09190614295565b9250925092506124d27f0000000000000000000000000000000000000000000000000000000000000000848484612415565b6118f48686612b05565b60006124e9848484612390565b90506001600160a01b03811661250157612501612508565b9392505050565b60405163d92e233d60e01b815260040160405180910390fd5b604051630b4c774160e11b81526001600160a01b038481166004830152838116602483015262ffffff8316604483015260009190861690631698ee829060640160206040518083038186803b15801561257957600080fd5b505afa15801561258d573d6000803e3d6000fd5b505050506040513d601f19601f820116820180604052508101906125b191906135d6565b95945050505050565b6001600160a01b03811661238d5760405163037064f160e01b815260040160405180910390fd5b60006001600160c01b03821161260857611fbe612603604084901b6000612b28565b612ba6565b60008061261e8468010000000000000000612bd0565b915091506119d361260383836000612bef565b6000600160ff1b821061264357600080fd5b5090565b60008061265b836377760aaf60e11b611f50565b80602001905181019061266e9190613511565b91509150915091565b60006001600160801b0383116126a3576126948584600185612c7d565b61269e908561371d565b6125b1565b6126b08484600085612c7d565b6125b1908661371d565b6060816126c881601f61371d565b10156127075760405162461bcd60e51b815260206004820152600e60248201526d736c6963655f6f766572666c6f7760901b6044820152606401610e37565b612711828461371d565b845110156127555760405162461bcd60e51b8152602060048201526011602482015270736c6963655f6f75744f66426f756e647360781b6044820152606401610e37565b606082158015612774576040519150600082526020820160405261235b565b6040519150601f8416801560200281840101858101878315602002848b0101015b818310156127ad578051835260209283019201612795565b5050858452601f01601f19166040525050949350505050565b6000806000846001600160a01b0316633850c7bd6040518163ffffffff1660e01b815260040160e06040518083038186803b15801561280457600080fd5b505afa158015612818573d6000803e3d6000fd5b505050506040513d601f19601f8201168201806040525081019061283c9190613eea565b5050506080880151939450600093151592506128929150505784602001516128825761287d600173fffd8963efd1fc6a506488495d951d5263988d26613f89565b61289f565b61287d6401000276a36001613fb1565b61289f85608001516125e1565b90506401000276a36001600160a01b038216116128c9576128c66401000276a36001613fb1565b90505b73fffd8963efd1fc6a506488495d951d5263988d266001600160a01b0382161061290f5761290c600173fffd8963efd1fc6a506488495d951d5263988d26613f89565b90505b846020015161293257806001600160a01b0316826001600160a01b031610612948565b806001600160a01b0316826001600160a01b0316115b15612a8257600080876001600160a01b031663128acb083089602001518a604001516129895761297b8b60600151612631565b61298490613fdc565b612996565b6129968b60600151612631565b878c60a001516040518663ffffffff1660e01b81526004016129bc959493929190613ff9565b6040805180830381600087803b1580156129d557600080fd5b505af1925050508015612a05575060408051601f3d908101601f19168201909252612a0291810190613511565b60015b612a50573d808015612a33576040519150601f19603f3d011682016040523d82523d6000602084013e612a38565b606091505b50612a4281612ca4565b96509093509150612a539050565b50505b8660200151612a6b5780612a6683613fdc565b612a75565b81612a7582613fdc565b9096509450612afd915050565b856001600160a01b0316633850c7bd6040518163ffffffff1660e01b815260040160e06040518083038186803b158015612abb57600080fd5b505afa158015612acf573d6000803e3d6000fd5b505050506040513d601f19601f82011682018060405250810190612af39190613eea565b5094965050505050505b509250925092565b6040516377760aaf60e11b81526004810183905260248101829052604401610e37565b6000600019831415612b4257506001600160801b03611fbe565b82612b4f57506000611fbe565b50816001818101901c5b81811015612b8157809150600181828681612b7657612b766141a2565b0401901c9050612b59565b50818015612b97575082612b9582806142e2565b105b15611fbe57806119d381613d6c565b60006001600160a01b0382111561264357604051630ba006e160e41b815260040160405180910390fd5b6000806000198385098385029250828110838203039150509250929050565b600082612c0757612c008483612b28565b9050612501565b6000612c168585600019612cd9565b905060001991505b81811015612c3b57809150612c34858583612cd9565b9050612c1e565b8215612c7557600080612c4e8485612bd0565b9150915080861180612c5f57508187115b15612c725783612c6e81613d6c565b9450505b50505b509392505050565b600082612c945761269e85600160801b8685612d18565b6125b18585600160801b85612d18565b60008080612cb984633ab8e87b60e21b611f50565b806020019051810190612ccc9190614301565b9250925092509193909250565b600080612ce98585856000612e14565b90506000612cfb826000866000612e99565b9092509050612d0e828260026000612e14565b9695505050505050565b6000806000612d278787612bd0565b915091508060001415612d4857612d3f828686612f0a565b925050506119d3565b808511612d795760405163362ced0960e11b8152600481018890526024810187905260448101869052606401610e37565b600085878909600087810388169788900497600260038a028118808b02820302808b02820302808b02820302808b02820302808b02820302808b02909103029181900381900460010186841190950394850292909503949094041792830293508490508015612df757508480612df157612df16141a2565b86880915155b15612e0a5782612e0681613d6c565b9350505b5050949350505050565b600080612e22868686612f3c565b90925090508015612e5757604051636aa917ab60e01b8152600481018790526024810186905260448101859052606401610e37565b821561235b57600080612e6a8487612bd0565b9150915080871180612e7b57508188115b15612e8e5783612e8a81613d6c565b9450505b505050949350505050565b8184018481108285018101908015612ec657811580612ec15750612ebe6001836135bf565b86115b612eca565b8186115b15612f00576040516347b1893f60e01b815260048101889052602481018790526044810186905260648101859052608401610e37565b5094509492505050565b6000612f16838561432f565b9050818015612f2d5750612f2a83856141b8565b15155b1561250157806125b181613d6c565b60008083612f5757612f5085846000612f0a565b9150612fe3565b6000612f6284612feb565b90506000612f6f85613018565b90505b8515612fc357600080612f858885612bd0565b91509150612f9586868484612e99565b9096509450612fa48884612bd0565b9092509050612fb682828b6000612e99565b9099509750612f72915050565b612fdb8484612fd48a896000612f0a565b6000612e99565b909450925050505b935093915050565b60008161300b576040516301de42a960e41b815260040160405180910390fd5b5060008190030460010190565b600081613038576040516319dbad9f60e01b815260040160405180910390fd5b5060008190030690565b60008082840361016081121561305757600080fd5b6101408082121561306757600080fd5b84935083013590506bffffffffffffffffffffffff8116811461308957600080fd5b809150509250929050565b634e487b7160e01b600052604160045260246000fd5b60405160c081016001600160401b03811182821017156130cc576130cc613094565b60405290565b60405160e081016001600160401b03811182821017156130cc576130cc613094565b604051601f8201601f191681016001600160401b038111828210171561311c5761311c613094565b604052919050565b60006001600160401b0382111561313d5761313d613094565b50601f01601f191660200190565b600082601f83011261315c57600080fd5b813561316f61316a82613124565b6130f4565b81815284602083860101111561318457600080fd5b816020850160208301376000918101602001919091529392505050565b6000602082840312156131b357600080fd5b81356001600160401b03808211156131ca57600080fd5b9083019060c082860312156131de57600080fd5b6131e66130aa565b823581526020830135602082015260408301356040820152606083013560608201526080830135608082015260a08301358281111561322457600080fd5b6132308782860161314b565b60a08301525095945050505050565b60005b8381101561325a578181015183820152602001613242565b83811115611f4a5750506000910152565b6000815180845261328381602086016020860161323f565b601f01601f19169290920160200192915050565b602081526000612501602083018461326b565b6000602082840312156132bc57600080fd5b81356001600160401b038111156132d257600080fd5b820160e0818503121561250157600080fd5b8381528260208201526060604082015260006125b1606083018461326b565b600060c0828403121561331557600080fd5b50919050565b60006020828403121561332d57600080fd5b81356001600160401b0381111561334357600080fd5b6119d384828501613303565b6000806020838503121561336257600080fd5b82356001600160401b038082111561337957600080fd5b818501915085601f83011261338d57600080fd5b81358181111561339c57600080fd5b8660208260051b85010111156133b157600080fd5b60209290920196919550909350505050565b6000602080830181845280855180835260408601915060408160051b870101925083870160005b8281101561341857603f1988860301845261340685835161326b565b945092850192908501906001016133ea565b5092979650505050505050565b60006020828403121561343757600080fd5b81356001600160401b0381111561344d57600080fd5b8201610100818503121561250157600080fd5b6000806000806060858703121561347657600080fd5b843593506020850135925060408501356001600160401b038082111561349b57600080fd5b818701915087601f8301126134af57600080fd5b8135818111156134be57600080fd5b8860208285010111156134d057600080fd5b95989497505060200194505050565b6001600160a01b038116811461238d57600080fd5b60006020828403121561350657600080fd5b8135612501816134df565b6000806040838503121561352457600080fd5b505080516020909101519092909150565b62ffffff8116811461238d57600080fd5b60006020828403121561355857600080fd5b813561250181613535565b82151581526040602082015260006119d3604083018461326b565b801515811461238d57600080fd5b60006020828403121561359e57600080fd5b81356125018161357e565b634e487b7160e01b600052601160045260246000fd5b6000828210156135d1576135d16135a9565b500390565b6000602082840312156135e857600080fd5b8151612501816134df565b80516135fe8161357e565b919050565b600061361161316a84613124565b905082815283838301111561362557600080fd5b61250183602083018461323f565b600082601f83011261364457600080fd5b61250183835160208501613603565b60008082840361010081121561366857600080fd5b60e081121561367657600080fd5b5061367f6130d2565b835161368a816134df565b8152602084015161369a816134df565b602082015260408401516136ad816134df565b604082015260608401516136c0816134df565b60608201526136d1608085016135f3565b608082015260a084015160a082015260c084015160c08201528092505060e08301516001600160401b0381111561370757600080fd5b61371385828601613633565b9150509250929050565b60008219821115613730576137306135a9565b500190565b6001600160a01b038781168252868116602083015285166040820152606081018490526080810183905260c060a082018190526000906137779083018461326b565b98975050505050505050565b634e487b7160e01b600052602160045260246000fd5b600281106137a9576137a9613783565b9052565b6020815281516020820152602082015160408201526000604083015160018060a01b038082166060850152806060860151166080850152505060808301516137f960a084018215159052565b5060a083015161380c60c0840182613799565b5060c083015160e083015260e08301516101008081850152506119d361012084018261326b565b60008060006060848603121561384857600080fd5b835192506020840151915060408401516001600160401b0381111561386c57600080fd5b61387886828701613633565b9150509250925092565b60006020828403121561389457600080fd5b81516001600160401b038111156138aa57600080fd5b6119d384828501613633565b602081526138d06020820183516001600160a01b03169052565b600060208301516138ec60408401826001600160a01b03169052565b506040830151606083015260608301516080830152608083015161391b60a08401826001600160a01b03169052565b5060a08301516001600160a01b03811660c08401525060c08301516001600160a01b03811660e08401525060e0830151610100838101919091528301516101208084019190915283015161014080840191909152830151610160808401526119d361018084018261326b565b8281526040602082015260006119d3604083018461326b565b6000808335601e198436030181126139b757600080fd5b8301803591506001600160401b038211156139d157600080fd5b6020019150368190038213156139e657600080fd5b9250929050565b600080600080600080600080610100898b031215613a0a57600080fd5b8835613a15816134df565b97506020890135613a25816134df565b96506040890135613a35816134df565b95506060890135613a45816134df565b94506080890135613a558161357e565b935060a0890135925060c0890135915060e08901356001600160401b03811115613a7e57600080fd5b613a8a8b828c0161314b565b9150509295985092959890939650565b6001600160a01b0387811682528681166020830152858116604083015284166060820152821515608082015260c060a082018190526000906137779083018461326b565b60008060008060008060c08789031215613af757600080fd5b8635613b02816134df565b95506020870135613b12816134df565b94506040870135613b22816134df565b93506060870135613b32816134df565b92506080870135613b428161357e565b915060a08701356001600160401b03811115613b5d57600080fd5b613b6989828a0161314b565b9150509295509295509295565b600061010060018060a01b038086511684528060208701511660208501528060408701511660408501528060608701511660608501525060808501511515608084015260a085015160a084015260c085015160c08401528060e08401526125b18184018561326b565b60208152815160208201526020820151604082015260006040830151613c1060608401826001600160a01b03169052565b5060608301516001600160a01b03811660808401525060808301516001600160a01b03811660a08401525060a0830151613c4d60c0840182613799565b5060c083015160e08381019190915283015161010080840191909152830151610120808401526119d361014084018261326b565b60008060008060808587031215613c9757600080fd5b84519350602085015192506040850151915060608501516001600160401b03811115613cc257600080fd5b613cce87828801613633565b91505092959194509250565b6001600160a01b03831681526040602082018190526000906119d39083018461326b565b634e487b7160e01b600052603260045260246000fd5b8183823760009101908152919050565b600060208284031215613d3657600080fd5b81516001600160401b03811115613d4c57600080fd5b8201601f81018413613d5d57600080fd5b6119d384825160208401613603565b6000600019821415613d8057613d806135a9565b5060010190565b60008060008060008060c08789031215613da057600080fd5b8635613dab816134df565b95506020870135613dbb816134df565b94506040870135613dcb816134df565b9350606087013592506080870135915060a08701356001600160401b03811115613b5d57600080fd5b858152602081018590526001600160a01b038416604082015260a0810160038410613e2157613e21613783565b6060820193909352608001529392505050565b60008060408385031215613e4757600080fd5b8235613e528161357e565b915060208301356001600160401b03811115613e6d57600080fd5b6137138582860161314b565b60008060008060808587031215613e8f57600080fd5b8451613e9a816134df565b6020860151909450613eab816134df565b6040860151909350613ebc816134df565b6060860151909250613ecd81613535565b939692955090935050565b805161ffff811681146135fe57600080fd5b600080600080600080600060e0888a031215613f0557600080fd5b8751613f10816134df565b8097505060208801518060020b8114613f2857600080fd5b9550613f3660408901613ed8565b9450613f4460608901613ed8565b9350613f5260808901613ed8565b925060a088015160ff81168114613f6857600080fd5b60c0890151909250613f798161357e565b8091505092959891949750929550565b60006001600160a01b0383811690831681811015613fa957613fa96135a9565b039392505050565b60006001600160a01b03828116848216808303821115613fd357613fd36135a9565b01949350505050565b6000600160ff1b821415613ff257613ff26135a9565b5060000390565b6001600160a01b0386811682528515156020830152604082018590528316606082015260a0608082018190526000906140349083018461326b565b979650505050505050565b6001600160a01b0389811682528881166020830152878116604083015286166060820152841515608082015260a0810184905260c0810183905261010060e082018190526000906140928382018561326b565b9b9a5050505050505050505050565b6040815282516040820152602083015160608201526000604084015160018060a01b0380821660808501528060608701511660a085015250506080840151600481106140ef576140ef613783565b8060c08401525060a084015160e083015260c084015160e061010084015261411b61012084018261326b565b91505061250160208301846bffffffffffffffffffffffff169052565b6000806040838503121561414b57600080fd5b8251614156816134df565b60208401519092506001600160401b0381111561370757600080fd5b6000806040838503121561418557600080fd5b8251915060208301516001600160401b0381111561370757600080fd5b634e487b7160e01b600052601260045260246000fd5b6000826141c7576141c76141a2565b500690565b805160208201516001600160e01b031980821692919060048310156141fb5780818460040360031b1b83161693505b505050919050565b600080600080600080600060e0888a03121561421e57600080fd5b8751614229816134df565b602089015190975061423a81613535565b604089015190965061424b816134df565b606089015190955061425c8161357e565b608089015190945061426d8161357e565b60a089015190935061427e8161357e565b8092505060c0880151905092959891949750929550565b6000806000606084860312156142aa57600080fd5b83516142b5816134df565b60208501519093506142c6816134df565b60408501519092506142d781613535565b809150509250925092565b60008160001904831182151516156142fc576142fc6135a9565b500290565b60008060006060848603121561431657600080fd5b835192506020840151915060408401516142d7816134df565b60008261433e5761433e6141a2565b50049056fea2646970667358221220b6c37c170b96c80af2142b42aaada26d678128b4bec88206af4e324673ce569764736f6c63430008080033",
  "linkReferences": {},
  "deployedLinkReferences": {}
}