{
  "_format": "hh-sol-artifact-1",
  "contractName": "TimeswapV2PeripheryUniswapV3CloseBorrowGivenPosition",
  "sourceName": "@timeswap-labs/v2-periphery-uniswapV3/contracts/TimeswapV2PeripheryUniswapV3CloseBorrowGivenPosition.sol",
  "abi": [
    {
      "inputs": [
        {
          "internalType": "address",
          "name": "chosenOptionFactory",
          "type": "address"
        },
        {
          "internalType": "address",
          "name": "chosenPoolFactory",
          "type": "address"
        },
        {
          "internalType": "address",
          "name": "chosenTokens",
          "type": "address"
        },
        {
          "internalType": "address",
          "name": "chosenUniswapV3Factory",
          "type": "address"
        },
        {
          "internalType": "address",
          "name": "chosenNative",
          "type": "address"
        }
      ],
      "stateMutability": "nonpayable",
      "type": "constructor"
    },
    {
      "inputs": [
        {
          "internalType": "uint256",
          "name": "addendA0",
          "type": "uint256"
        },
        {
          "internalType": "uint256",
          "name": "addendA1",
          "type": "uint256"
        },
        {
          "internalType": "uint256",
          "name": "addendB0",
          "type": "uint256"
        },
        {
          "internalType": "uint256",
          "name": "addendB1",
          "type": "uint256"
        }
      ],
      "name": "AddOverflow",
      "type": "error"
    },
    {
      "inputs": [
        {
          "internalType": "address",
          "name": "from",
          "type": "address"
        }
      ],
      "name": "CallerNotWrappedNative",
      "type": "error"
    },
    {
      "inputs": [],
      "name": "CanOnlyBeCalledByOptionContract",
      "type": "error"
    },
    {
      "inputs": [],
      "name": "CanOnlyBeCalledByPoolContract",
      "type": "error"
    },
    {
      "inputs": [],
      "name": "CanOnlyBeCalledByUniswapV3Contract",
      "type": "error"
    },
    {
      "inputs": [
        {
          "internalType": "uint256",
          "name": "deadline",
          "type": "uint256"
        }
      ],
      "name": "DeadlineReached",
      "type": "error"
    },
    {
      "inputs": [
        {
          "internalType": "uint256",
          "name": "dividend0",
          "type": "uint256"
        },
        {
          "internalType": "uint256",
          "name": "dividend1",
          "type": "uint256"
        },
        {
          "internalType": "uint256",
          "name": "divisor",
          "type": "uint256"
        }
      ],
      "name": "DivOverflow",
      "type": "error"
    },
    {
      "inputs": [],
      "name": "DivideByZero",
      "type": "error"
    },
    {
      "inputs": [
        {
          "internalType": "uint256",
          "name": "value",
          "type": "uint256"
        }
      ],
      "name": "InsufficientWrappedNative",
      "type": "error"
    },
    {
      "inputs": [
        {
          "internalType": "uint256",
          "name": "tokenAmount",
          "type": "uint256"
        },
        {
          "internalType": "uint256",
          "name": "maxTokenAmount",
          "type": "uint256"
        }
      ],
      "name": "MaxTokenReached",
      "type": "error"
    },
    {
      "inputs": [],
      "name": "ModuloByZero",
      "type": "error"
    },
    {
      "inputs": [
        {
          "internalType": "uint256",
          "name": "multiplicand",
          "type": "uint256"
        },
        {
          "internalType": "uint256",
          "name": "multiplier",
          "type": "uint256"
        },
        {
          "internalType": "uint256",
          "name": "divisor",
          "type": "uint256"
        }
      ],
      "name": "MulDivOverflow",
      "type": "error"
    },
    {
      "inputs": [
        {
          "internalType": "string",
          "name": "revertString",
          "type": "string"
        }
      ],
      "name": "MulticallFailed",
      "type": "error"
    },
    {
      "inputs": [
        {
          "internalType": "address",
          "name": "to",
          "type": "address"
        },
        {
          "internalType": "uint256",
          "name": "value",
          "type": "uint256"
        }
      ],
      "name": "NativeTransferFailed",
      "type": "error"
    },
    {
      "inputs": [
        {
          "internalType": "int256",
          "name": "amount0",
          "type": "int256"
        },
        {
          "internalType": "int256",
          "name": "amount1",
          "type": "int256"
        }
      ],
      "name": "PassCalculateInfo",
      "type": "error"
    },
    {
      "inputs": [],
      "name": "Uint160Overflow",
      "type": "error"
    },
    {
      "inputs": [],
      "name": "ZeroAddress",
      "type": "error"
    },
    {
      "inputs": [],
      "name": "ZeroPoolAddress",
      "type": "error"
    },
    {
      "anonymous": false,
      "inputs": [
        {
          "indexed": true,
          "internalType": "address",
          "name": "token0",
          "type": "address"
        },
        {
          "indexed": true,
          "internalType": "address",
          "name": "token1",
          "type": "address"
        },
        {
          "indexed": false,
          "internalType": "uint256",
          "name": "strike",
          "type": "uint256"
        },
        {
          "indexed": true,
          "internalType": "uint256",
          "name": "maturity",
          "type": "uint256"
        },
        {
          "indexed": false,
          "internalType": "uint24",
          "name": "uniswapV3Fee",
          "type": "uint24"
        },
        {
          "indexed": false,
          "internalType": "address",
          "name": "from",
          "type": "address"
        },
        {
          "indexed": false,
          "internalType": "address",
          "name": "to",
          "type": "address"
        },
        {
          "indexed": false,
          "internalType": "bool",
          "name": "isToken0",
          "type": "bool"
        },
        {
          "indexed": false,
          "internalType": "bool",
          "name": "isLong0",
          "type": "bool"
        },
        {
          "indexed": false,
          "internalType": "uint256",
          "name": "tokenAmount",
          "type": "uint256"
        },
        {
          "indexed": false,
          "internalType": "uint256",
          "name": "positionAmount",
          "type": "uint256"
        }
      ],
      "name": "CloseBorrowGivenPosition",
      "type": "event"
    },
    {
      "inputs": [
        {
          "components": [
            {
              "internalType": "address",
              "name": "token0",
              "type": "address"
            },
            {
              "internalType": "address",
              "name": "token1",
              "type": "address"
            },
            {
              "internalType": "uint256",
              "name": "strike",
              "type": "uint256"
            },
            {
              "internalType": "uint256",
              "name": "maturity",
              "type": "uint256"
            },
            {
              "internalType": "uint24",
              "name": "uniswapV3Fee",
              "type": "uint24"
            },
            {
              "internalType": "address",
              "name": "to",
              "type": "address"
            },
            {
              "internalType": "bool",
              "name": "isToken0",
              "type": "bool"
            },
            {
              "internalType": "bool",
              "name": "isLong0",
              "type": "bool"
            },
            {
              "internalType": "uint256",
              "name": "positionAmount",
              "type": "uint256"
            },
            {
              "internalType": "uint256",
              "name": "maxTokenAmount",
              "type": "uint256"
            },
            {
              "internalType": "uint256",
              "name": "deadline",
              "type": "uint256"
            }
          ],
          "internalType": "struct TimeswapV2PeripheryUniswapV3CloseBorrowGivenPositionParam",
          "name": "param",
          "type": "tuple"
        }
      ],
      "name": "closeBorrowGivenPosition",
      "outputs": [
        {
          "internalType": "uint256",
          "name": "tokenAmount",
          "type": "uint256"
        }
      ],
      "stateMutability": "payable",
      "type": "function"
    },
    {
      "inputs": [
        {
          "internalType": "bytes[]",
          "name": "data",
          "type": "bytes[]"
        }
      ],
      "name": "multicall",
      "outputs": [
        {
          "internalType": "bytes[]",
          "name": "results",
          "type": "bytes[]"
        }
      ],
      "stateMutability": "payable",
      "type": "function"
    },
    {
      "inputs": [
        {
          "internalType": "address",
          "name": "",
          "type": "address"
        },
        {
          "internalType": "address",
          "name": "",
          "type": "address"
        },
        {
          "internalType": "uint256[]",
          "name": "",
          "type": "uint256[]"
        },
        {
          "internalType": "uint256[]",
          "name": "",
          "type": "uint256[]"
        },
        {
          "internalType": "bytes",
          "name": "",
          "type": "bytes"
        }
      ],
      "name": "onERC1155BatchReceived",
      "outputs": [
        {
          "internalType": "bytes4",
          "name": "",
          "type": "bytes4"
        }
      ],
      "stateMutability": "pure",
      "type": "function"
    },
    {
      "inputs": [
        {
          "internalType": "address",
          "name": "operator",
          "type": "address"
        },
        {
          "internalType": "address",
          "name": "",
          "type": "address"
        },
        {
          "internalType": "uint256",
          "name": "",
          "type": "uint256"
        },
        {
          "internalType": "uint256",
          "name": "",
          "type": "uint256"
        },
        {
          "internalType": "bytes",
          "name": "",
          "type": "bytes"
        }
      ],
      "name": "onERC1155Received",
      "outputs": [
        {
          "internalType": "bytes4",
          "name": "",
          "type": "bytes4"
        }
      ],
      "stateMutability": "view",
      "type": "function"
    },
    {
      "inputs": [],
      "name": "optionFactory",
      "outputs": [
        {
          "internalType": "address",
          "name": "",
          "type": "address"
        }
      ],
      "stateMutability": "view",
      "type": "function"
    },
    {
      "inputs": [],
      "name": "poolFactory",
      "outputs": [
        {
          "internalType": "address",
          "name": "",
          "type": "address"
        }
      ],
      "stateMutability": "view",
      "type": "function"
    },
    {
      "inputs": [],
      "name": "refundNatives",
      "outputs": [],
      "stateMutability": "payable",
      "type": "function"
    },
    {
      "inputs": [
        {
          "internalType": "bytes4",
          "name": "interfaceId",
          "type": "bytes4"
        }
      ],
      "name": "supportsInterface",
      "outputs": [
        {
          "internalType": "bool",
          "name": "",
          "type": "bool"
        }
      ],
      "stateMutability": "view",
      "type": "function"
    },
    {
      "inputs": [
        {
          "components": [
            {
              "internalType": "uint256",
              "name": "strike",
              "type": "uint256"
            },
            {
              "internalType": "uint256",
              "name": "maturity",
              "type": "uint256"
            },
            {
              "internalType": "bool",
              "name": "isLong0ToLong1",
              "type": "bool"
            },
            {
              "internalType": "uint256",
              "name": "token0AndLong0Amount",
              "type": "uint256"
            },
            {
              "internalType": "uint256",
              "name": "token1AndLong1Amount",
              "type": "uint256"
            },
            {
              "internalType": "bytes",
              "name": "data",
              "type": "bytes"
            }
          ],
          "internalType": "struct TimeswapV2OptionSwapCallbackParam",
          "name": "param",
          "type": "tuple"
        }
      ],
      "name": "timeswapV2OptionSwapCallback",
      "outputs": [
        {
          "internalType": "bytes",
          "name": "data",
          "type": "bytes"
        }
      ],
      "stateMutability": "nonpayable",
      "type": "function"
    },
    {
      "inputs": [
        {
          "components": [
            {
              "internalType": "uint256",
              "name": "strike",
              "type": "uint256"
            },
            {
              "internalType": "uint256",
              "name": "maturity",
              "type": "uint256"
            },
            {
              "internalType": "uint256",
              "name": "long0Amount",
              "type": "uint256"
            },
            {
              "internalType": "uint256",
              "name": "long1Amount",
              "type": "uint256"
            },
            {
              "internalType": "uint256",
              "name": "shortAmount",
              "type": "uint256"
            },
            {
              "internalType": "bytes",
              "name": "data",
              "type": "bytes"
            }
          ],
          "internalType": "struct TimeswapV2PoolDeleverageCallbackParam",
          "name": "param",
          "type": "tuple"
        }
      ],
      "name": "timeswapV2PoolDeleverageCallback",
      "outputs": [
        {
          "internalType": "bytes",
          "name": "data",
          "type": "bytes"
        }
      ],
      "stateMutability": "nonpayable",
      "type": "function"
    },
    {
      "inputs": [
        {
          "components": [
            {
              "internalType": "uint256",
              "name": "strike",
              "type": "uint256"
            },
            {
              "internalType": "uint256",
              "name": "maturity",
              "type": "uint256"
            },
            {
              "internalType": "uint256",
              "name": "longAmount",
              "type": "uint256"
            },
            {
              "internalType": "uint256",
              "name": "shortAmount",
              "type": "uint256"
            },
            {
              "internalType": "bytes",
              "name": "data",
              "type": "bytes"
            }
          ],
          "internalType": "struct TimeswapV2PoolDeleverageChoiceCallbackParam",
          "name": "param",
          "type": "tuple"
        }
      ],
      "name": "timeswapV2PoolDeleverageChoiceCallback",
      "outputs": [
        {
          "internalType": "uint256",
          "name": "long0Amount",
          "type": "uint256"
        },
        {
          "internalType": "uint256",
          "name": "long1Amount",
          "type": "uint256"
        },
        {
          "internalType": "bytes",
          "name": "data",
          "type": "bytes"
        }
      ],
      "stateMutability": "nonpayable",
      "type": "function"
    },
    {
      "inputs": [],
      "name": "tokens",
      "outputs": [
        {
          "internalType": "address",
          "name": "",
          "type": "address"
        }
      ],
      "stateMutability": "view",
      "type": "function"
    },
    {
      "inputs": [],
      "name": "uniswapV3Factory",
      "outputs": [
        {
          "internalType": "address",
          "name": "",
          "type": "address"
        }
      ],
      "stateMutability": "view",
      "type": "function"
    },
    {
      "inputs": [
        {
          "internalType": "int256",
          "name": "amount0Delta",
          "type": "int256"
        },
        {
          "internalType": "int256",
          "name": "amount1Delta",
          "type": "int256"
        },
        {
          "internalType": "bytes",
          "name": "data",
          "type": "bytes"
        }
      ],
      "name": "uniswapV3SwapCallback",
      "outputs": [],
      "stateMutability": "nonpayable",
      "type": "function"
    },
    {
      "inputs": [
        {
          "internalType": "uint256",
          "name": "amountMinimum",
          "type": "uint256"
        },
        {
          "internalType": "address",
          "name": "recipient",
          "type": "address"
        }
      ],
      "name": "unwrapWrappedNatives",
      "outputs": [],
      "stateMutability": "payable",
      "type": "function"
    },
    {
      "inputs": [],
      "name": "wrappedNativeToken",
      "outputs": [
        {
          "internalType": "address",
          "name": "",
          "type": "address"
        }
      ],
      "stateMutability": "view",
      "type": "function"
    },
    {
      "stateMutability": "payable",
      "type": "receive"
    }
  ],
  "bytecode": "0x6101206040523480156200001257600080fd5b50604051620042ef380380620042ef833981016040819052620000359162000089565b6001600160601b0319606092831b811660805294821b851660a05292811b841660c05290811b831660e0521b1661010052620000f9565b80516001600160a01b03811681146200008457600080fd5b919050565b600080600080600060a08688031215620000a257600080fd5b620000ad866200006c565b9450620000bd602087016200006c565b9350620000cd604087016200006c565b9250620000dd606087016200006c565b9150620000ed608087016200006c565b90509295509295909350565b60805160601c60a05160601c60c05160601c60e05160601c6101005160601c614124620001cb60003960008181610107015281816101bb01528181610f3f0152818161100301528181611db70152611dfd01526000818161029c0152818161044b015261133d0152600081816102070152818161085601528181610c95015261130a01526000818161031f0152818161083501528181610c74015281816110b701526112e901526000818161023b0152818161120b0152818161179601528181611a7e0152611ec301526141246000f3fe6080604052600436106100f75760003560e01c8063ac9650d81161008a578063dc4a484711610059578063dc4a48471461038d578063dfef25d8146103ad578063f23a6e61146103b5578063fa461e33146103d557600080fd5b8063ac9650d8146102ed578063b3461c871461030d578063b7f68a0e14610341578063bc197c811461035457600080fd5b80635b549182116100c65780635b5491821461022957806387a8993a1461025d5780639d63848a1461028a578063aaac7a74146102be57600080fd5b806301ffc9a714610153578063076706591461018857806317fcb39b146101a95780634219dc40146101f557600080fd5b3661014e57336001600160a01b037f0000000000000000000000000000000000000000000000000000000000000000161461014c5760405163631b2c4f60e11b81523360048201526024015b60405180910390fd5b005b600080fd5b34801561015f57600080fd5b5061017361016e366004613068565b6103f5565b60405190151581526020015b60405180910390f35b61019b610196366004613092565b61042c565b60405190815260200161017f565b3480156101b557600080fd5b506101dd7f000000000000000000000000000000000000000000000000000000000000000081565b6040516001600160a01b03909116815260200161017f565b34801561020157600080fd5b506101dd7f000000000000000000000000000000000000000000000000000000000000000081565b34801561023557600080fd5b506101dd7f000000000000000000000000000000000000000000000000000000000000000081565b34801561026957600080fd5b5061027d6102783660046130bd565b6107fe565b60405161017f9190613149565b34801561029657600080fd5b506101dd7f000000000000000000000000000000000000000000000000000000000000000081565b3480156102ca57600080fd5b506102de6102d936600461315c565b610c3d565b60405161017f93929190613196565b6103006102fb3660046131b5565b610d9a565b60405161017f9190613229565b34801561031957600080fd5b506101dd7f000000000000000000000000000000000000000000000000000000000000000081565b61014c61034f3660046132a0565b610f27565b34801561036057600080fd5b5061037461036f366004613407565b611076565b6040516001600160e01b0319909116815260200161017f565b34801561039957600080fd5b5061027d6103a83660046130bd565b611082565b61014c611191565b3480156103c157600080fd5b506103746103d03660046134b4565b6111a3565b3480156103e157600080fd5b5061014c6103f036600461351c565b6111cb565b60006001600160e01b03198216630271189760e51b148061042657506301ffc9a760e01b6001600160e01b03198316145b92915050565b6000428261014001351015610449576104498261014001356112c1565b7f00000000000000000000000000000000000000000000000000000000000000006001600160a01b0316635c9b728233306040518060a00160405280876000016020810190610498919061359b565b6001600160a01b031681526020018760200160208101906104b9919061359b565b6001600160a01b0316815260200187604001358152602001876060013581526020018760e00160208101906104ee91906135c6565b6104f95760016104fc565b60005b600281111561050d5761050d6135e3565b8152508661010001356040518563ffffffff1660e01b8152600401610535949392919061360d565b600060405180830381600087803b15801561054f57600080fd5b505af1158015610563573d6000803e3d6000fd5b5050505060003383608001602081019061057d9190613687565b61058d60c0860160a0870161359b565b61059d60e0870160c088016135c6565b604080516001600160a01b03958616602082015262ffffff9094169084015292166060820152901515608082015260a00160408051601f19818403018152610100830190915291506106b690806105f7602087018761359b565b6001600160a01b03168152602001856020016020810190610618919061359b565b6001600160a01b0316815260200185604001358152602001856060013581526020018560e001602081019061064d91906135c6565b151561065f60e0880160c089016135c6565b15151461067b5761067660c0870160a0880161359b565b61067d565b305b6001600160a01b0316815260200161069c610100870160e088016135c6565b1515815261010086013560208201526040018390526112dd565b80519093506106d0925083016020908101915083016136a4565b915082610120013582111561070657604051637218df3b60e11b8152600481018390526101208401356024820152604401610143565b606083013561071b604085016020860161359b565b6001600160a01b0316610731602086018661359b565b6001600160a01b03167f336632fdcea05a494e626b2f1b73dd2b3bae36e9950e1ff96426670628ddf78b604087013561077060a0890160808a01613687565b3361078160c08b0160a08c0161359b565b61079160e08c0160c08d016135c6565b6107a26101008d0160e08e016135c6565b6040805196875262ffffff90951660208701526001600160a01b03938416948601949094529116606084015215156080830152151560a082015260c081018790526101008089013560e08301520160405180910390a450919050565b606060008080808061081360a08801886136bd565b810190610820919061370a565b9a50939850919650945092509050600061087c7f00000000000000000000000000000000000000000000000000000000000000007f000000000000000000000000000000000000000000000000000000000000000088886115d7565b9050600080826001600160a01b031663622fb68f6040518061010001604052808d6000013581526020018d602001358152602001886108bb57306108bd565b895b6001600160a01b03168152602001886108d657896108d8565b305b6001600160a01b0316815260200160018152602001886108f95760006108ff565b8d608001355b815260200188610913578d60800135610916565b60005b8152602001604051806020016040528060008152508152506040518263ffffffff1660e01b815260040161094a91906137a9565b600060405180830381600087803b15801561096457600080fd5b505af1158015610978573d6000803e3d6000fd5b505050506040513d6000823e601f3d908101601f191682016040526109a09190810190613875565b505091509150846109b55789606001356109bb565b89604001355b15610a4e576001600160a01b03831663b2ceca778b3560208d013533896109e35760016109e6565b60005b8a6109f5578f606001356109fb565b8f604001355b6040518663ffffffff1660e01b8152600401610a1b9594939291906138ce565b600060405180830381600087803b158015610a3557600080fd5b505af1158015610a49573d6000803e3d6000fd5b505050505b84610a5d578960400135610a63565b89606001355b15610bba5787878687610a765783610a78565b845b878d604051602001610a8f96959493929190613908565b60408051601f19818403018152610100830182528c35835260208d810135908401526001600160a01b038981169284019290925233606084015287151560808401529a5084169063b084c2529060a0810188610aec576001610aef565b60005b6001811115610b0057610b006135e3565b815260200188610b1d57610b1860608f01358661396c565b610b2b565b610b2b60408f01358761396c565b610b359089613984565b81526020018c8152506040518263ffffffff1660e01b8152600401610b5a919061399b565b600060405180830381600087803b158015610b7457600080fd5b505af1158015610b88573d6000803e3d6000fd5b505050506040513d6000823e601f3d908101601f19168201604052610bb09190810190613a21565b9a50610c30915050565b610c2d604051806101400160405280336001600160a01b031681526020018a6001600160a01b03168152602001896001600160a01b031681526020018c6000013581526020018c60200135815260200187151581526020018481526020018381526020018681526020018b81525061170f565b98505b5050505050505050919050565b60008060608180808080610c5460808a018a6136bd565b810190610c61919061370a565b9a50939850919650945092509050610cbb7f00000000000000000000000000000000000000000000000000000000000000007f000000000000000000000000000000000000000000000000000000000000000087876115d7565b506000610cd060608b01358b358515846119c3565b610cda9083613984565b9050610d596040518060e00160405280886001600160a01b03168152602001876001600160a01b031681526020018c6000013581526020018c6020013581526020018515158152602001610d4c86610d33576000610d35565b845b87610d405785610d43565b60005b8f356000611a13565b8152602001899052611a51565b604051929b509099509750610d7c90879087908790879087908d90602001613a70565b60405160208183030381529060405296505050505050509193909250565b6060816001600160401b03811115610db457610db46132d0565b604051908082528060200260200182016040528015610de757816020015b6060815260200190600190039081610dd25790505b50905060005b82811015610f205760008030868685818110610e0b57610e0b613ab3565b9050602002810190610e1d91906136bd565b604051610e2b929190613ac9565b600060405180830381855af49150503d8060008114610e66576040519150601f19603f3d011682016040523d82523d6000602084013e610e6b565b606091505b509150915081610eed57604481511015610eb957604051635d2f436f60e11b815260206004820152600e60248201526d125b9d985b1a590814995cdd5b1d60921b6044820152606401610143565b60048101905080806020019051810190610ed39190613ad9565b604051635d2f436f60e11b81526004016101439190613149565b80848481518110610f0057610f00613ab3565b602002602001018190525050508080610f1890613b21565b915050610ded565b5092915050565b6040516370a0823160e01b81523060048201526000907f00000000000000000000000000000000000000000000000000000000000000006001600160a01b0316906370a082319060240160206040518083038186803b158015610f8957600080fd5b505afa158015610f9d573d6000803e3d6000fd5b505050506040513d601f19601f82011682018060405250810190610fc191906136a4565b905082811015610fe757604051636b8c4dab60e01b815260048101829052602401610143565b801561107157604051632e1a7d4d60e01b8152600481018290527f00000000000000000000000000000000000000000000000000000000000000006001600160a01b031690632e1a7d4d90602401600060405180830381600087803b15801561104f57600080fd5b505af1158015611063573d6000803e3d6000fd5b505050506110718282611bbc565b505050565b60005b95945050505050565b606060008080808061109760a08801886136bd565b8101906110a49190613b3c565b9a509398509196509450925090506110dd7f00000000000000000000000000000000000000000000000000000000000000008686611c5c565b611186604051806101400160405280336001600160a01b03168152602001876001600160a01b03168152602001866001600160a01b031681526020018960000135815260200189602001358152602001851515815260200185611141576000611143565b845b6111519060608c013561396c565b8152602001856111615784611164565b60005b6111729060808c013561396c565b81526020018381526020018881525061170f565b979650505050505050565b47156111a1576111a13347611bbc565b565b60006001600160a01b03861630146111bd57506000611079565b5063f23a6e6160e01b611079565b6000806111da83850185613ba9565b9150915081156112ae57600080600080848060200190518101906111fe9190613bf8565b93509350935093506112327f0000000000000000000000000000000000000000000000000000000000000000848484611d12565b6001600160a01b03841630141561127c576112773360008c13611255578a611257565b8b5b60008d136112655784611267565b855b6001600160a01b03169190611d52565b6112a5565b6112a560008b1361128d578261128f565b835b853360008e1361129f578c611db5565b8d611db5565b505050506112b9565b6112b9868683611e9f565b505050505050565b60405163070b57d960e41b815260048101829052602401610143565b600080606060006113387f00000000000000000000000000000000000000000000000000000000000000007f000000000000000000000000000000000000000000000000000000000000000087600001518860200151611ef4565b9150507f00000000000000000000000000000000000000000000000000000000000000006001600160a01b031663a38d7a1760405180610160016040528088600001516001600160a01b0316815260200188602001516001600160a01b031681526020018860400151815260200188606001518152602001306001600160a01b03168152602001306001600160a01b03168152602001306001600160a01b031681526020018860a001516113ed5760006113f3565b8860c001515b81526020018860a0015161140b578860c0015161140e565b60005b815260200160008152602001604051806020016040528060008152508152506040518263ffffffff1660e01b81526004016114499190613c57565b600060405180830381600087803b15801561146357600080fd5b505af1158015611477573d6000803e3d6000fd5b505050506040513d6000823e601f3d908101601f1916820160405261149f9190810190613d28565b508451602080870151608088015160a089015160c08a015160e08b01516040516114ca979601613a70565b60408051601f1981840301815260c0830182528782015183526060808901516020850152309284019290925293506001600160a01b038316916378fb9d389181016003815260200161154d8960a0015161152557600061152b565b8960c001515b8a60a0015161153e578a60c00151611541565b60005b8b604001516000611a13565b8152602001858152506040518263ffffffff1660e01b81526004016115729190613d5c565b600060405180830381600087803b15801561158c57600080fd5b505af11580156115a0573d6000803e3d6000fd5b505050506040513d6000823e601f3d908101601f191682016040526115c89190810190613875565b92989197509195509350505050565b60405163d81e842360e01b81526001600160a01b03838116600483015282811660248301526000919086169063d81e84239060440160206040518083038186803b15801561162457600080fd5b505afa158015611638573d6000803e3d6000fd5b505050506040513d601f19601f8201168201806040525081019061165c9190613dc3565b6040516330af0bbf60e21b81526001600160a01b03808316600483015291925060009186169063c2bc2efc9060240160206040518083038186803b1580156116a357600080fd5b505afa1580156116b7573d6000803e3d6000fd5b505050506040513d601f19601f820116820180604052508101906116db9190613dc3565b90506001600160a01b03811633146117065760405163863b47e760e01b815260040160405180910390fd5b50949350505050565b60606000806000808561012001518060200190518101906117309190613de0565b9350935093509350600081611749578660e0015161174f565b8660c001515b90508660a001511515821515141561177557808761010001516117729190613984565b90505b81611784578660c0015161178a565b8660e001515b156119055760006117c57f000000000000000000000000000000000000000000000000000000000000000089602001518a6040015188611fa9565b90508760a001511515831515146117dc57856117de565b305b6020898101516040808c015181516001600160a01b03958616948101949094529184169083015291909116606082015262ffffff8616608082015260a0016040516020818303038152906040529650600187604051602001611841929190613e34565b6040516020818303038152906040529650600083611863578860c00151611869565b8860e001515b90508860a0015115158415151461188e578089610100015161188b9190613984565b90505b60006118f26040518060c001604052808c60a001511515881515146118b357886118b6565b8c515b6001600160a01b03908116825288151560208301526000604083015260608083018790528e0151608083015260a09091018c9052851690612039565b5090506118ff818561396c565b93505050505b8660a00151151582151514156119675780876101000151111561014e576119628361193e838a61010001516122b990919063ffffffff16565b8461194d578960400151611267565b89602001516001600160a01b03169190611d52565b61199c565b61199c8261197957876040015161197f565b87602001515b8851879085611992578a60e00151611db5565b8a60c00151611db5565b60408051602081018390520160405160208183030381529060405295505050505050919050565b60006001600160801b0384116119f057826119ea576119e585856000856122be565b611a08565b84611a08565b826119fb5784611a08565b611a0885856001856122be565b90505b949350505050565b60006001600160801b038311611a3a57611a3085846001856122be565b6119e5908561396c565b611a4784846000856122be565b611a08908661396c565b60008060606000808560c00151806020019051810190611a719190613de0565b9350509250506000611aad7f000000000000000000000000000000000000000000000000000000000000000088600001518960200151866122e5565b87516020808a0151604080516001600160a01b039485169381019390935292169181019190915262ffffff851660608201529091506000906080016040516020818303038152906040529450600085604051602001611b0d929190613e34565b60408051601f1981840301815260a080840183528615158452600060208501528b01518b830151919850611b6d9392830191611b4c91908860016119c3565b81526040808c01516020830152018790526001600160a01b03841690612307565b9050809150506000611b8c8960a00151838b604001518715600161259a565b905083611b995781611b9b565b805b975083611ba85780611baa565b815b60c09099015197999650505050505050565b604080516000808252602082019092526001600160a01b038416908390604051611be69190613e4f565b60006040518083038185875af1925050503d8060008114611c23576040519150601f19603f3d011682016040523d82523d6000602084013e611c28565b606091505b50509050806110715760405163296c17bb60e21b81526001600160a01b038416600482015260248101839052604401610143565b60405163d81e842360e01b81526001600160a01b03838116600483015282811660248301526000919085169063d81e84239060440160206040518083038186803b158015611ca957600080fd5b505afa158015611cbd573d6000803e3d6000fd5b505050506040513d601f19601f82011682018060405250810190611ce19190613dc3565b90506001600160a01b0381163314611d0c5760405163a5fbb7d960e01b815260040160405180910390fd5b50505050565b6000611d2085858585611fa9565b90506001600160a01b0381163314611d4b576040516307c1698f60e01b815260040160405180910390fd5b5050505050565b6040516001600160a01b03831660248201526044810182905261107190849063a9059cbb60e01b906064015b60408051601f198184030181529190526020810180516001600160e01b03166001600160e01b031990931692909217909152612615565b7f00000000000000000000000000000000000000000000000000000000000000006001600160a01b0316846001600160a01b0316148015611df65750804710155b15611e8a577f00000000000000000000000000000000000000000000000000000000000000006001600160a01b031663d0e30db0826040518263ffffffff1660e01b81526004016000604051808303818588803b158015611e5657600080fd5b505af1158015611e6a573d6000803e3d6000fd5b50611e85935050506001600160a01b03861690508383611d52565b611d0c565b611d0c6001600160a01b0385168484846126e7565b600080600083806020019051810190611eb89190613e6b565b925092509250611eea7f0000000000000000000000000000000000000000000000000000000000000000848484611d12565b6112b9868661271f565b600080611f0b6001600160a01b0387168585612742565b6040516330af0bbf60e21b81526001600160a01b0380831660048301529193509086169063c2bc2efc9060240160206040518083038186803b158015611f5057600080fd5b505afa158015611f64573d6000803e3d6000fd5b505050506040513d601f19601f82011682018060405250810190611f889190613dc3565b90506001600160a01b038116611fa057611fa061276e565b94509492505050565b604051630b4c774160e11b81526001600160a01b038481166004830152838116602483015262ffffff8316604483015260009190861690631698ee829060640160206040518083038186803b15801561200157600080fd5b505afa158015612015573d6000803e3d6000fd5b505050506040513d601f19601f82011682018060405250810190611a089190613dc3565b6000806000846001600160a01b0316633850c7bd6040518163ffffffff1660e01b815260040160e06040518083038186803b15801561207757600080fd5b505afa15801561208b573d6000803e3d6000fd5b505050506040513d601f19601f820116820180604052508101906120af9190613ecf565b505050505050905060008460800151600014156121035784602001516120f3576120ee600173fffd8963efd1fc6a506488495d951d5263988d26613f6e565b612110565b6120ee6401000276a36001613f96565b6121108560800151612787565b90506401000276a36001600160a01b0382161161213a576121376401000276a36001613f96565b90505b73fffd8963efd1fc6a506488495d951d5263988d266001600160a01b038216106121805761217d600173fffd8963efd1fc6a506488495d951d5263988d26613f6e565b90505b84602001516121a357806001600160a01b0316826001600160a01b0316106121b9565b806001600160a01b0316826001600160a01b0316115b156122b057600080876001600160a01b031663128acb08886000015189602001518a604001516121fe576121f08b606001516127d7565b6121f990613fc1565b61220b565b61220b8b606001516127d7565b878c60a001516040518663ffffffff1660e01b8152600401612231959493929190613fde565b6040805180830381600087803b15801561224a57600080fd5b505af115801561225e573d6000803e3d6000fd5b505050506040513d601f19601f820116820180604052508101906122829190614019565b91509150866020015161229e578061229983613fc1565b6122a8565b816122a882613fc1565b909650945050505b50509250929050565b900390565b6000826122d5576119e585600160801b86856127ed565b611a088585600160801b856127ed565b60006122f385858585611fa9565b9050611a0b816001600160a01b03166128e9565b6000806000846001600160a01b0316633850c7bd6040518163ffffffff1660e01b815260040160e06040518083038186803b15801561234557600080fd5b505afa158015612359573d6000803e3d6000fd5b505050506040513d601f19601f8201168201806040525081019061237d9190613ecf565b505050505050905060008460600151600014156123ce5784516123be576123b9600173fffd8963efd1fc6a506488495d951d5263988d26613f6e565b6123db565b6123b96401000276a36001613f96565b6123db8560600151612787565b90506401000276a36001600160a01b03821611612405576124026401000276a36001613f96565b90505b73fffd8963efd1fc6a506488495d951d5263988d266001600160a01b0382161061244b57612448600173fffd8963efd1fc6a506488495d951d5263988d26613f6e565b90505b845161246b57816001600160a01b0316816001600160a01b031611612481565b816001600160a01b0316816001600160a01b0316105b156122b057600080876001600160a01b031663128acb083089600001518a602001516124c2576124b48b604001516127d7565b6124bd90613fc1565b6124cf565b6124cf8b604001516127d7565b878c608001516040518663ffffffff1660e01b81526004016124f5959493929190613fde565b6040805180830381600087803b15801561250e57600080fd5b505af192505050801561253e575060408051601f3d908101601f1916820190925261253b91810190614019565b60015b612587573d80801561256c576040519150601f19603f3d011682016040523d82523d6000602084013e612571565b606091505b5061257b81612913565b909350915061258a9050565b50505b865161229e578061229983613fc1565b60006001600160801b0384116125e257826125ca576125c56125bc8688613984565b856000856122be565b61260b565b6125d88585600185156122be565b6125c59087613984565b826125f5576125d88585600085156122be565b61260b6126028688613984565b856001856122be565b9695505050505050565b600061266a826040518060400160405280602081526020017f5361666545524332303a206c6f772d6c6576656c2063616c6c206661696c6564815250856001600160a01b03166129439092919063ffffffff16565b8051909150156110715780806020019051810190612688919061403d565b6110715760405162461bcd60e51b815260206004820152602a60248201527f5361666545524332303a204552433230206f7065726174696f6e20646964206e6044820152691bdd081cdd58d8d9595960b21b6064820152608401610143565b6040516001600160a01b0380851660248301528316604482015260648101829052611d0c9085906323b872dd60e01b90608401611d7e565b6040516377760aaf60e11b81526004810183905260248101829052604401610143565b600061274f848484612952565b90506001600160a01b0381166127675761276761276e565b9392505050565b60405163d92e233d60e01b815260040160405180910390fd5b60006001600160c01b0382116127ae576104266127a9604084901b60006129d7565b612a55565b6000806127c48468010000000000000000612a7f565b91509150611a0b6127a983836000612a9e565b6000600160ff1b82106127e957600080fd5b5090565b60008060006127fc8787612a7f565b91509150806000141561281d57612814828686612b2c565b92505050611a0b565b80851161284e5760405163362ced0960e11b8152600481018890526024810187905260448101869052606401610143565b600085878909600087810388169788900497600260038a028118808b02820302808b02820302808b02820302808b02820302808b02820302808b029091030291819003819004600101868411909503948502929095039490940417928302935084905080156128cc575084806128c6576128c661405a565b86880915155b156128df57826128db81613b21565b9350505b5050949350505050565b6001600160a01b0381166129105760405163037064f160e01b815260040160405180910390fd5b50565b600080612927836377760aaf60e11b612b5e565b80602001905181019061293a9190614019565b91509150915091565b6060611a0b8484600085612bcc565b60405163d81e842360e01b81526001600160a01b03838116600483015282811660248301526000919085169063d81e84239060440160206040518083038186803b15801561299f57600080fd5b505afa1580156129b3573d6000803e3d6000fd5b505050506040513d601f19601f82011682018060405250810190611a0b9190613dc3565b60006000198314156129f157506001600160801b03610426565b826129fe57506000610426565b50816001818101901c5b81811015612a3057809150600181828681612a2557612a2561405a565b0401901c9050612a08565b50818015612a46575082612a448280614070565b105b156104265780611a0b81613b21565b60006001600160a01b038211156127e957604051630ba006e160e41b815260040160405180910390fd5b6000806000198385098385029250828110838203039150509250929050565b600082612ab657612aaf84836129d7565b9050612767565b6000612ac58585600019612cf2565b905060001991505b81811015612aea57809150612ae3858583612cf2565b9050612acd565b8215612b2457600080612afd8485612a7f565b9150915080861180612b0e57508187115b15612b215783612b1d81613b21565b9450505b50505b509392505050565b6000612b38838561408f565b9050818015612b4f5750612b4c83856140a3565b15155b15612767578061107981613b21565b81516060906020612b70600483613984565b612b7a91906140a3565b158015612ba257506001600160e01b03198316612b96856140b7565b6001600160e01b031916145b15612bc457612bbc846004612bb78185613984565b612d27565b915050610426565b835184602001fd5b606082471015612c2d5760405162461bcd60e51b815260206004820152602660248201527f416464726573733a20696e73756666696369656e742062616c616e636520666f6044820152651c8818d85b1b60d21b6064820152608401610143565b6001600160a01b0385163b612c845760405162461bcd60e51b815260206004820152601d60248201527f416464726573733a2063616c6c20746f206e6f6e2d636f6e74726163740000006044820152606401610143565b600080866001600160a01b03168587604051612ca09190613e4f565b60006040518083038185875af1925050503d8060008114612cdd576040519150601f19603f3d011682016040523d82523d6000602084013e612ce2565b606091505b5091509150611186828286612e33565b600080612d028585856000612e6c565b90506000612d14826000866000612ef1565b909250905061260b828260026000612e6c565b606081612d3581601f61396c565b1015612d745760405162461bcd60e51b815260206004820152600e60248201526d736c6963655f6f766572666c6f7760901b6044820152606401610143565b612d7e828461396c565b84511015612dc25760405162461bcd60e51b8152602060048201526011602482015270736c6963655f6f75744f66426f756e647360781b6044820152606401610143565b606082158015612de15760405191506000825260208201604052611706565b6040519150601f8416801560200281840101858101878315602002848b0101015b81831015612e1a578051835260209283019201612e02565b5050858452601f01601f19166040525050949350505050565b60608315612e42575081612767565b825115612e525782518084602001fd5b8160405162461bcd60e51b81526004016101439190613149565b600080612e7a868686612f62565b90925090508015612eaf57604051636aa917ab60e01b8152600481018790526024810186905260448101859052606401610143565b821561170657600080612ec28487612a7f565b9150915080871180612ed357508188115b15612ee65783612ee281613b21565b9450505b505050949350505050565b8184018481108285018101908015612f1e57811580612f195750612f16600183613984565b86115b612f22565b8186115b15612f58576040516347b1893f60e01b815260048101889052602481018790526044810186905260648101859052608401610143565b5094509492505050565b60008083612f7d57612f7685846000612b2c565b9150613009565b6000612f8884613011565b90506000612f958561303e565b90505b8515612fe957600080612fab8885612a7f565b91509150612fbb86868484612ef1565b9096509450612fca8884612a7f565b9092509050612fdc82828b6000612ef1565b9099509750612f98915050565b6130018484612ffa8a896000612b2c565b6000612ef1565b909450925050505b935093915050565b600081613031576040516301de42a960e41b815260040160405180910390fd5b5060008190030460010190565b60008161305e576040516319dbad9f60e01b815260040160405180910390fd5b5060008190030690565b60006020828403121561307a57600080fd5b81356001600160e01b03198116811461276757600080fd5b600061016082840312156130a557600080fd5b50919050565b600060c082840312156130a557600080fd5b6000602082840312156130cf57600080fd5b81356001600160401b038111156130e557600080fd5b611a0b848285016130ab565b60005b8381101561310c5781810151838201526020016130f4565b83811115611d0c5750506000910152565b600081518084526131358160208601602086016130f1565b601f01601f19169290920160200192915050565b602081526000612767602083018461311d565b60006020828403121561316e57600080fd5b81356001600160401b0381111561318457600080fd5b820160a0818503121561276757600080fd5b838152826020820152606060408201526000611a08606083018461311d565b600080602083850312156131c857600080fd5b82356001600160401b03808211156131df57600080fd5b818501915085601f8301126131f357600080fd5b81358181111561320257600080fd5b8660208260051b850101111561321757600080fd5b60209290920196919550909350505050565b6000602080830181845280855180835260408601915060408160051b870101925083870160005b8281101561327e57603f1988860301845261326c85835161311d565b94509285019290850190600101613250565b5092979650505050505050565b6001600160a01b038116811461291057600080fd5b600080604083850312156132b357600080fd5b8235915060208301356132c58161328b565b809150509250929050565b634e487b7160e01b600052604160045260246000fd5b604051601f8201601f191681016001600160401b038111828210171561330e5761330e6132d0565b604052919050565b600082601f83011261332757600080fd5b813560206001600160401b03821115613342576133426132d0565b8160051b6133518282016132e6565b928352848101820192828101908785111561336b57600080fd5b83870192505b8483101561118657823582529183019190830190613371565b60006001600160401b038211156133a3576133a36132d0565b50601f01601f191660200190565b600082601f8301126133c257600080fd5b81356133d56133d08261338a565b6132e6565b8181528460208386010111156133ea57600080fd5b816020850160208301376000918101602001919091529392505050565b600080600080600060a0868803121561341f57600080fd5b853561342a8161328b565b9450602086013561343a8161328b565b935060408601356001600160401b038082111561345657600080fd5b61346289838a01613316565b9450606088013591508082111561347857600080fd5b61348489838a01613316565b9350608088013591508082111561349a57600080fd5b506134a7888289016133b1565b9150509295509295909350565b600080600080600060a086880312156134cc57600080fd5b85356134d78161328b565b945060208601356134e78161328b565b9350604086013592506060860135915060808601356001600160401b0381111561351057600080fd5b6134a7888289016133b1565b6000806000806060858703121561353257600080fd5b843593506020850135925060408501356001600160401b038082111561355757600080fd5b818701915087601f83011261356b57600080fd5b81358181111561357a57600080fd5b88602082850101111561358c57600080fd5b95989497505060200194505050565b6000602082840312156135ad57600080fd5b81356127678161328b565b801515811461291057600080fd5b6000602082840312156135d857600080fd5b8135612767816135b8565b634e487b7160e01b600052602160045260246000fd5b60038110613609576136096135e3565b9052565b60006101008201905060018060a01b03808716835280861660208401528085511660408401528060208601511660608401525060408401516080830152606084015160a0830152608084015161366660c08401826135f9565b508260e083015295945050505050565b62ffffff8116811461291057600080fd5b60006020828403121561369957600080fd5b813561276781613676565b6000602082840312156136b657600080fd5b5051919050565b6000808335601e198436030181126136d457600080fd5b8301803591506001600160401b038211156136ee57600080fd5b60200191503681900382131561370357600080fd5b9250929050565b60008060008060008060c0878903121561372357600080fd5b863561372e8161328b565b9550602087013561373e8161328b565b9450604087013561374e8161328b565b9350606087013561375e816135b8565b92506080870135915060a08701356001600160401b0381111561378057600080fd5b61378c89828a016133b1565b9150509295509295509295565b60028110613609576136096135e3565b6020815281516020820152602082015160408201526000604083015160018060a01b038082166060850152806060860151166080850152505060808301516137f460a0840182613799565b5060a083015160c083015260c083015160e083015260e0830151610100808185015250611a0b61012084018261311d565b60006138336133d08461338a565b905082815283838301111561384757600080fd5b6127678360208301846130f1565b600082601f83011261386657600080fd5b61276783835160208501613825565b6000806000806080858703121561388b57600080fd5b84519350602085015192506040850151915060608501516001600160401b038111156138b657600080fd5b6138c287828801613855565b91505092959194509250565b858152602081018590526001600160a01b038416604082015260a081016138f860608301856135f9565b8260808301529695505050505050565b6001600160a01b038781168252861660208201528415156040820152606081018490526080810183905260c060a0820181905260009061394a9083018461311d565b98975050505050505050565b634e487b7160e01b600052601160045260246000fd5b6000821982111561397f5761397f613956565b500190565b60008282101561399657613996613956565b500390565b6020815281516020820152602082015160408201526000604083015160018060a01b038082166060850152806060860151166080850152505060808301516139e760a084018215159052565b5060a08301516139fa60c0840182613799565b5060c083015160e083015260e0830151610100808185015250611a0b61012084018261311d565b600080600060608486031215613a3657600080fd5b835192506020840151915060408401516001600160401b03811115613a5a57600080fd5b613a6686828701613855565b9150509250925092565b6001600160a01b03878116825286811660208301528516604082015283151560608201526080810183905260c060a0820181905260009061394a9083018461311d565b634e487b7160e01b600052603260045260246000fd5b8183823760009101908152919050565b600060208284031215613aeb57600080fd5b81516001600160401b03811115613b0157600080fd5b8201601f81018413613b1257600080fd5b611a0b84825160208401613825565b6000600019821415613b3557613b35613956565b5060010190565b60008060008060008060c08789031215613b5557600080fd5b8635613b608161328b565b95506020870135613b708161328b565b94506040870135613b80816135b8565b9350606087013592506080870135915060a08701356001600160401b0381111561378057600080fd5b60008060408385031215613bbc57600080fd5b8235613bc7816135b8565b915060208301356001600160401b03811115613be257600080fd5b613bee858286016133b1565b9150509250929050565b60008060008060808587031215613c0e57600080fd5b8451613c198161328b565b6020860151909450613c2a8161328b565b6040860151909350613c3b8161328b565b6060860151909250613c4c81613676565b939692955090935050565b60208152613c716020820183516001600160a01b03169052565b60006020830151613c8d60408401826001600160a01b03169052565b5060408301516060830152606083015160808301526080830151613cbc60a08401826001600160a01b03169052565b5060a08301516001600160a01b03811660c08401525060c08301516001600160a01b03811660e08401525060e083015161010083810191909152830151610120808401919091528301516101408084019190915283015161016080840152611a0b61018084018261311d565b600060208284031215613d3a57600080fd5b81516001600160401b03811115613d5057600080fd5b611a0b84828501613855565b60208152815160208201526020820151604082015260018060a01b0360408301511660608201526000606083015160048110613d9a57613d9a6135e3565b80608084015250608083015160a083015260a083015160c080840152611a0b60e084018261311d565b600060208284031215613dd557600080fd5b81516127678161328b565b60008060008060808587031215613df657600080fd5b8451613e018161328b565b6020860151909450613e1281613676565b6040860151909350613e238161328b565b6060860151909250613c4c816135b8565b8215158152604060208201526000611a0b604083018461311d565b60008251613e618184602087016130f1565b9190910192915050565b600080600060608486031215613e8057600080fd5b8351613e8b8161328b565b6020850151909350613e9c8161328b565b6040850151909250613ead81613676565b809150509250925092565b805161ffff81168114613eca57600080fd5b919050565b600080600080600080600060e0888a031215613eea57600080fd5b8751613ef58161328b565b8097505060208801518060020b8114613f0d57600080fd5b9550613f1b60408901613eb8565b9450613f2960608901613eb8565b9350613f3760808901613eb8565b925060a088015160ff81168114613f4d57600080fd5b60c0890151909250613f5e816135b8565b8091505092959891949750929550565b60006001600160a01b0383811690831681811015613f8e57613f8e613956565b039392505050565b60006001600160a01b03828116848216808303821115613fb857613fb8613956565b01949350505050565b6000600160ff1b821415613fd757613fd7613956565b5060000390565b6001600160a01b0386811682528515156020830152604082018590528316606082015260a0608082018190526000906111869083018461311d565b6000806040838503121561402c57600080fd5b505080516020909101519092909150565b60006020828403121561404f57600080fd5b8151612767816135b8565b634e487b7160e01b600052601260045260246000fd5b600081600019048311821515161561408a5761408a613956565b500290565b60008261409e5761409e61405a565b500490565b6000826140b2576140b261405a565b500690565b805160208201516001600160e01b031980821692919060048310156140e65780818460040360031b1b83161693505b50505091905056fea2646970667358221220c4337c4b98cf32f069e4e5d339638146fc305758fe25cf0c56c7735800bbae6164736f6c63430008080033",
  "linkReferences": {},
  "deployedLinkReferences": {}
}