{
  "_format": "hh-sol-artifact-1",
  "contractName": "TimeswapV2PeripheryUniswapV3RemoveLiquidityGivenPosition",
  "sourceName": "@timeswap-labs/v2-periphery-uniswapV3/contracts/TimeswapV2PeripheryUniswapV3RemoveLiquidityGivenPosition.sol",
  "abi": [
    {
      "inputs": [
        {
          "internalType": "address",
          "name": "chosenOptionFactory",
          "type": "address"
        },
        {
          "internalType": "address",
          "name": "chosenPoolFactory",
          "type": "address"
        },
        {
          "internalType": "address",
          "name": "chosenTokens",
          "type": "address"
        },
        {
          "internalType": "address",
          "name": "chosenLiquidityTokens",
          "type": "address"
        },
        {
          "internalType": "address",
          "name": "chosenUniswapV3Factory",
          "type": "address"
        },
        {
          "internalType": "address",
          "name": "chosenNative",
          "type": "address"
        }
      ],
      "stateMutability": "nonpayable",
      "type": "constructor"
    },
    {
      "inputs": [
        {
          "internalType": "uint256",
          "name": "addendA0",
          "type": "uint256"
        },
        {
          "internalType": "uint256",
          "name": "addendA1",
          "type": "uint256"
        },
        {
          "internalType": "uint256",
          "name": "addendB0",
          "type": "uint256"
        },
        {
          "internalType": "uint256",
          "name": "addendB1",
          "type": "uint256"
        }
      ],
      "name": "AddOverflow",
      "type": "error"
    },
    {
      "inputs": [
        {
          "internalType": "address",
          "name": "from",
          "type": "address"
        }
      ],
      "name": "CallerNotWrappedNative",
      "type": "error"
    },
    {
      "inputs": [],
      "name": "CanOnlyBeCalledByPoolContract",
      "type": "error"
    },
    {
      "inputs": [],
      "name": "CanOnlyBeCalledByTokensContract",
      "type": "error"
    },
    {
      "inputs": [],
      "name": "CanOnlyBeCalledByUniswapV3Contract",
      "type": "error"
    },
    {
      "inputs": [
        {
          "internalType": "uint256",
          "name": "deadline",
          "type": "uint256"
        }
      ],
      "name": "DeadlineReached",
      "type": "error"
    },
    {
      "inputs": [
        {
          "internalType": "uint256",
          "name": "dividend0",
          "type": "uint256"
        },
        {
          "internalType": "uint256",
          "name": "dividend1",
          "type": "uint256"
        },
        {
          "internalType": "uint256",
          "name": "divisor",
          "type": "uint256"
        }
      ],
      "name": "DivOverflow",
      "type": "error"
    },
    {
      "inputs": [],
      "name": "DivideByZero",
      "type": "error"
    },
    {
      "inputs": [
        {
          "internalType": "uint256",
          "name": "value",
          "type": "uint256"
        }
      ],
      "name": "InsufficientWrappedNative",
      "type": "error"
    },
    {
      "inputs": [
        {
          "internalType": "uint256",
          "name": "excessLong0Amount",
          "type": "uint256"
        },
        {
          "internalType": "uint256",
          "name": "minExcessLong0Amount",
          "type": "uint256"
        }
      ],
      "name": "MinExcessLong0Reached",
      "type": "error"
    },
    {
      "inputs": [
        {
          "internalType": "uint256",
          "name": "excessLong1Amount",
          "type": "uint256"
        },
        {
          "internalType": "uint256",
          "name": "minExcessLong1Amount",
          "type": "uint256"
        }
      ],
      "name": "MinExcessLong1Reached",
      "type": "error"
    },
    {
      "inputs": [
        {
          "internalType": "uint256",
          "name": "excessShortAmount",
          "type": "uint256"
        },
        {
          "internalType": "uint256",
          "name": "minExcessShortAmount",
          "type": "uint256"
        }
      ],
      "name": "MinExcessShortReached",
      "type": "error"
    },
    {
      "inputs": [
        {
          "internalType": "uint256",
          "name": "tokenAmount",
          "type": "uint256"
        },
        {
          "internalType": "uint256",
          "name": "minTokenAmount",
          "type": "uint256"
        }
      ],
      "name": "MinTokenReached",
      "type": "error"
    },
    {
      "inputs": [],
      "name": "ModuloByZero",
      "type": "error"
    },
    {
      "inputs": [
        {
          "internalType": "uint256",
          "name": "multiplicand",
          "type": "uint256"
        },
        {
          "internalType": "uint256",
          "name": "multiplier",
          "type": "uint256"
        },
        {
          "internalType": "uint256",
          "name": "divisor",
          "type": "uint256"
        }
      ],
      "name": "MulDivOverflow",
      "type": "error"
    },
    {
      "inputs": [
        {
          "internalType": "string",
          "name": "revertString",
          "type": "string"
        }
      ],
      "name": "MulticallFailed",
      "type": "error"
    },
    {
      "inputs": [
        {
          "internalType": "address",
          "name": "to",
          "type": "address"
        },
        {
          "internalType": "uint256",
          "name": "value",
          "type": "uint256"
        }
      ],
      "name": "NativeTransferFailed",
      "type": "error"
    },
    {
      "inputs": [
        {
          "internalType": "int256",
          "name": "amount0",
          "type": "int256"
        },
        {
          "internalType": "int256",
          "name": "amount1",
          "type": "int256"
        }
      ],
      "name": "PassCalculateInfo",
      "type": "error"
    },
    {
      "inputs": [],
      "name": "Uint160Overflow",
      "type": "error"
    },
    {
      "inputs": [],
      "name": "ZeroAddress",
      "type": "error"
    },
    {
      "inputs": [],
      "name": "ZeroPoolAddress",
      "type": "error"
    },
    {
      "anonymous": false,
      "inputs": [
        {
          "indexed": true,
          "internalType": "address",
          "name": "token0",
          "type": "address"
        },
        {
          "indexed": true,
          "internalType": "address",
          "name": "token1",
          "type": "address"
        },
        {
          "indexed": false,
          "internalType": "uint256",
          "name": "strike",
          "type": "uint256"
        },
        {
          "indexed": true,
          "internalType": "uint256",
          "name": "maturity",
          "type": "uint256"
        },
        {
          "indexed": false,
          "internalType": "uint24",
          "name": "uniswapV3Fee",
          "type": "uint24"
        },
        {
          "indexed": false,
          "internalType": "address",
          "name": "from",
          "type": "address"
        },
        {
          "indexed": false,
          "internalType": "address",
          "name": "to",
          "type": "address"
        },
        {
          "indexed": false,
          "internalType": "bool",
          "name": "isToken0",
          "type": "bool"
        },
        {
          "indexed": false,
          "internalType": "uint256",
          "name": "tokenAmount",
          "type": "uint256"
        },
        {
          "indexed": false,
          "internalType": "uint256",
          "name": "liquidityAmount",
          "type": "uint256"
        },
        {
          "indexed": false,
          "internalType": "uint256",
          "name": "excessLong0Amount",
          "type": "uint256"
        },
        {
          "indexed": false,
          "internalType": "uint256",
          "name": "excessLong1Amount",
          "type": "uint256"
        },
        {
          "indexed": false,
          "internalType": "uint256",
          "name": "excessShortAmount",
          "type": "uint256"
        }
      ],
      "name": "RemoveLiquidityGivenPosition",
      "type": "event"
    },
    {
      "inputs": [],
      "name": "liquidityTokens",
      "outputs": [
        {
          "internalType": "address",
          "name": "",
          "type": "address"
        }
      ],
      "stateMutability": "view",
      "type": "function"
    },
    {
      "inputs": [
        {
          "internalType": "bytes[]",
          "name": "data",
          "type": "bytes[]"
        }
      ],
      "name": "multicall",
      "outputs": [
        {
          "internalType": "bytes[]",
          "name": "results",
          "type": "bytes[]"
        }
      ],
      "stateMutability": "payable",
      "type": "function"
    },
    {
      "inputs": [
        {
          "internalType": "address",
          "name": "",
          "type": "address"
        },
        {
          "internalType": "address",
          "name": "",
          "type": "address"
        },
        {
          "internalType": "uint256[]",
          "name": "",
          "type": "uint256[]"
        },
        {
          "internalType": "uint256[]",
          "name": "",
          "type": "uint256[]"
        },
        {
          "internalType": "bytes",
          "name": "",
          "type": "bytes"
        }
      ],
      "name": "onERC1155BatchReceived",
      "outputs": [
        {
          "internalType": "bytes4",
          "name": "",
          "type": "bytes4"
        }
      ],
      "stateMutability": "pure",
      "type": "function"
    },
    {
      "inputs": [
        {
          "internalType": "address",
          "name": "operator",
          "type": "address"
        },
        {
          "internalType": "address",
          "name": "",
          "type": "address"
        },
        {
          "internalType": "uint256",
          "name": "",
          "type": "uint256"
        },
        {
          "internalType": "uint256",
          "name": "",
          "type": "uint256"
        },
        {
          "internalType": "bytes",
          "name": "",
          "type": "bytes"
        }
      ],
      "name": "onERC1155Received",
      "outputs": [
        {
          "internalType": "bytes4",
          "name": "",
          "type": "bytes4"
        }
      ],
      "stateMutability": "view",
      "type": "function"
    },
    {
      "inputs": [],
      "name": "optionFactory",
      "outputs": [
        {
          "internalType": "address",
          "name": "",
          "type": "address"
        }
      ],
      "stateMutability": "view",
      "type": "function"
    },
    {
      "inputs": [],
      "name": "poolFactory",
      "outputs": [
        {
          "internalType": "address",
          "name": "",
          "type": "address"
        }
      ],
      "stateMutability": "view",
      "type": "function"
    },
    {
      "inputs": [
        {
          "components": [
            {
              "internalType": "address",
              "name": "token0",
              "type": "address"
            },
            {
              "internalType": "address",
              "name": "token1",
              "type": "address"
            },
            {
              "internalType": "uint256",
              "name": "strike",
              "type": "uint256"
            },
            {
              "internalType": "uint256",
              "name": "maturity",
              "type": "uint256"
            },
            {
              "internalType": "uint24",
              "name": "uniswapV3Fee",
              "type": "uint24"
            },
            {
              "internalType": "address",
              "name": "tokenTo",
              "type": "address"
            },
            {
              "internalType": "address",
              "name": "excessLong0To",
              "type": "address"
            },
            {
              "internalType": "address",
              "name": "excessLong1To",
              "type": "address"
            },
            {
              "internalType": "address",
              "name": "excessShortTo",
              "type": "address"
            },
            {
              "internalType": "bool",
              "name": "isToken0",
              "type": "bool"
            },
            {
              "internalType": "bool",
              "name": "preferLong0Excess",
              "type": "bool"
            },
            {
              "internalType": "uint160",
              "name": "liquidityAmount",
              "type": "uint160"
            },
            {
              "internalType": "uint256",
              "name": "minTokenAmount",
              "type": "uint256"
            },
            {
              "internalType": "uint256",
              "name": "minExcessLong0Amount",
              "type": "uint256"
            },
            {
              "internalType": "uint256",
              "name": "minExcessLong1Amount",
              "type": "uint256"
            },
            {
              "internalType": "uint256",
              "name": "minExcessShortAmount",
              "type": "uint256"
            },
            {
              "internalType": "uint256",
              "name": "deadline",
              "type": "uint256"
            }
          ],
          "internalType": "struct TimeswapV2PeripheryUniswapV3RemoveLiquidityGivenPositionParam",
          "name": "param",
          "type": "tuple"
        }
      ],
      "name": "removeLiquidityGivenPosition",
      "outputs": [
        {
          "internalType": "uint256",
          "name": "tokenAmount",
          "type": "uint256"
        },
        {
          "internalType": "uint256",
          "name": "excessLong0Amount",
          "type": "uint256"
        },
        {
          "internalType": "uint256",
          "name": "excessLong1Amount",
          "type": "uint256"
        },
        {
          "internalType": "uint256",
          "name": "excessShortAmount",
          "type": "uint256"
        }
      ],
      "stateMutability": "nonpayable",
      "type": "function"
    },
    {
      "inputs": [
        {
          "internalType": "bytes4",
          "name": "interfaceId",
          "type": "bytes4"
        }
      ],
      "name": "supportsInterface",
      "outputs": [
        {
          "internalType": "bool",
          "name": "",
          "type": "bool"
        }
      ],
      "stateMutability": "view",
      "type": "function"
    },
    {
      "inputs": [
        {
          "components": [
            {
              "internalType": "uint256",
              "name": "strike",
              "type": "uint256"
            },
            {
              "internalType": "uint256",
              "name": "maturity",
              "type": "uint256"
            },
            {
              "internalType": "uint256",
              "name": "long0Amount",
              "type": "uint256"
            },
            {
              "internalType": "uint256",
              "name": "long1Amount",
              "type": "uint256"
            },
            {
              "internalType": "uint256",
              "name": "shortAmount",
              "type": "uint256"
            },
            {
              "internalType": "uint160",
              "name": "liquidityAmount",
              "type": "uint160"
            },
            {
              "internalType": "bytes",
              "name": "data",
              "type": "bytes"
            }
          ],
          "internalType": "struct TimeswapV2PoolBurnCallbackParam",
          "name": "param",
          "type": "tuple"
        }
      ],
      "name": "timeswapV2PoolBurnCallback",
      "outputs": [
        {
          "internalType": "bytes",
          "name": "data",
          "type": "bytes"
        }
      ],
      "stateMutability": "pure",
      "type": "function"
    },
    {
      "inputs": [
        {
          "components": [
            {
              "internalType": "uint256",
              "name": "strike",
              "type": "uint256"
            },
            {
              "internalType": "uint256",
              "name": "maturity",
              "type": "uint256"
            },
            {
              "internalType": "uint256",
              "name": "long0Balance",
              "type": "uint256"
            },
            {
              "internalType": "uint256",
              "name": "long1Balance",
              "type": "uint256"
            },
            {
              "internalType": "uint256",
              "name": "longAmount",
              "type": "uint256"
            },
            {
              "internalType": "uint256",
              "name": "shortAmount",
              "type": "uint256"
            },
            {
              "internalType": "uint160",
              "name": "liquidityAmount",
              "type": "uint160"
            },
            {
              "internalType": "bytes",
              "name": "data",
              "type": "bytes"
            }
          ],
          "internalType": "struct TimeswapV2PoolBurnChoiceCallbackParam",
          "name": "param",
          "type": "tuple"
        }
      ],
      "name": "timeswapV2PoolBurnChoiceCallback",
      "outputs": [
        {
          "internalType": "uint256",
          "name": "long0Amount",
          "type": "uint256"
        },
        {
          "internalType": "uint256",
          "name": "long1Amount",
          "type": "uint256"
        },
        {
          "internalType": "bytes",
          "name": "data",
          "type": "bytes"
        }
      ],
      "stateMutability": "nonpayable",
      "type": "function"
    },
    {
      "inputs": [
        {
          "components": [
            {
              "internalType": "address",
              "name": "token0",
              "type": "address"
            },
            {
              "internalType": "address",
              "name": "token1",
              "type": "address"
            },
            {
              "internalType": "uint256",
              "name": "strike",
              "type": "uint256"
            },
            {
              "internalType": "uint256",
              "name": "maturity",
              "type": "uint256"
            },
            {
              "internalType": "uint256",
              "name": "long0Amount",
              "type": "uint256"
            },
            {
              "internalType": "uint256",
              "name": "long1Amount",
              "type": "uint256"
            },
            {
              "internalType": "uint256",
              "name": "shortAmount",
              "type": "uint256"
            },
            {
              "internalType": "bytes",
              "name": "data",
              "type": "bytes"
            }
          ],
          "internalType": "struct TimeswapV2TokenMintCallbackParam",
          "name": "param",
          "type": "tuple"
        }
      ],
      "name": "timeswapV2TokenMintCallback",
      "outputs": [
        {
          "internalType": "bytes",
          "name": "data",
          "type": "bytes"
        }
      ],
      "stateMutability": "nonpayable",
      "type": "function"
    },
    {
      "inputs": [],
      "name": "tokens",
      "outputs": [
        {
          "internalType": "address",
          "name": "",
          "type": "address"
        }
      ],
      "stateMutability": "view",
      "type": "function"
    },
    {
      "inputs": [],
      "name": "uniswapV3Factory",
      "outputs": [
        {
          "internalType": "address",
          "name": "",
          "type": "address"
        }
      ],
      "stateMutability": "view",
      "type": "function"
    },
    {
      "inputs": [
        {
          "internalType": "int256",
          "name": "amount0Delta",
          "type": "int256"
        },
        {
          "internalType": "int256",
          "name": "amount1Delta",
          "type": "int256"
        },
        {
          "internalType": "bytes",
          "name": "data",
          "type": "bytes"
        }
      ],
      "name": "uniswapV3SwapCallback",
      "outputs": [],
      "stateMutability": "nonpayable",
      "type": "function"
    },
    {
      "inputs": [
        {
          "internalType": "uint256",
          "name": "amountMinimum",
          "type": "uint256"
        },
        {
          "internalType": "address",
          "name": "recipient",
          "type": "address"
        }
      ],
      "name": "unwrapWrappedNatives",
      "outputs": [],
      "stateMutability": "payable",
      "type": "function"
    },
    {
      "inputs": [],
      "name": "wrappedNativeToken",
      "outputs": [
        {
          "internalType": "address",
          "name": "",
          "type": "address"
        }
      ],
      "stateMutability": "view",
      "type": "function"
    },
    {
      "stateMutability": "payable",
      "type": "receive"
    }
  ],
  "bytecode": "0x6101406040523480156200001257600080fd5b506040516200425c3803806200425c833981016040819052620000359162000091565b6001600160601b0319606092831b811660805295821b861660a05293811b851660c05291821b841660e052811b8316610100521b166101205262000112565b80516001600160a01b03811681146200008c57600080fd5b919050565b60008060008060008060c08789031215620000ab57600080fd5b620000b68762000074565b9550620000c66020880162000074565b9450620000d66040880162000074565b9350620000e66060880162000074565b9250620000f66080880162000074565b91506200010660a0880162000074565b90509295509295509295565b60805160601c60a05160601c60c05160601c60e05160601c6101005160601c6101205160601c614078620001e4600039600081816101070152818161019a01528181610be00152610ca401526000818161021a0152818161049a015261138c0152600081816102ef01528181611033015261170a0152600081816101e601528181610d74015261135801526000818161034301528181610d530152818161105e015261133701526000818161028e015281816112930152818161188501528181611e39015261222d01526140786000f3fe6080604052600436106100f75760003560e01c8063ac9650d81161008a578063bc4cee8b11610059578063bc4cee8b146103b1578063e13c022c146103e0578063f23a6e6114610400578063fa461e331461042057600080fd5b8063ac9650d814610311578063b3461c8714610331578063b7f68a0e14610365578063bc197c811461037857600080fd5b806355ab1cd6116100c657806355ab1cd61461023c5780635b5491821461027c5780638bb7053d146102b05780639d63848a146102dd57600080fd5b806301ffc9a71461015357806317fcb39b146101885780634219dc40146101d45780634b8ce6021461020857600080fd5b3661014e57336001600160a01b037f0000000000000000000000000000000000000000000000000000000000000000161461014c5760405163631b2c4f60e11b81523360048201526024015b60405180910390fd5b005b600080fd5b34801561015f57600080fd5b5061017361016e3660046130fa565b610440565b60405190151581526020015b60405180910390f35b34801561019457600080fd5b506101bc7f000000000000000000000000000000000000000000000000000000000000000081565b6040516001600160a01b03909116815260200161017f565b3480156101e057600080fd5b506101bc7f000000000000000000000000000000000000000000000000000000000000000081565b34801561021457600080fd5b506101bc7f000000000000000000000000000000000000000000000000000000000000000081565b34801561024857600080fd5b5061025c610257366004613124565b610477565b60408051948552602085019390935291830152606082015260800161017f565b34801561028857600080fd5b506101bc7f000000000000000000000000000000000000000000000000000000000000000081565b3480156102bc57600080fd5b506102d06102cb36600461313d565b6109f1565b60405161017f91906131d3565b3480156102e957600080fd5b506101bc7f000000000000000000000000000000000000000000000000000000000000000081565b61032461031f3660046131e6565b610a3b565b60405161017f919061325a565b34801561033d57600080fd5b506101bc7f000000000000000000000000000000000000000000000000000000000000000081565b61014c6103733660046132d1565b610bc8565b34801561038457600080fd5b50610398610393366004613438565b610d17565b6040516001600160e01b0319909116815260200161017f565b3480156103bd57600080fd5b506103d16103cc3660046134f8565b610d23565b60405161017f9392919061352c565b3480156103ec57600080fd5b506102d06103fb3660046134f8565b61102c565b34801561040c57600080fd5b5061039861041b36600461354b565b61122e565b34801561042c57600080fd5b5061014c61043b3660046135b3565b611256565b60006001600160e01b03198216630271189760e51b148061047157506301ffc9a760e01b6001600160e01b03198316145b92915050565b60008060008042856102000135101561049857610498856102000135611309565b7f00000000000000000000000000000000000000000000000000000000000000006001600160a01b031663aeb2e579333060405180608001604052808a60000160208101906104e79190613632565b6001600160a01b031681526020018a60200160208101906105089190613632565b6001600160a01b031681526040808c0135602083015260608c01359101526105386101808b016101608c01613632565b6040805160e087901b6001600160e01b03191681526001600160a01b0395861660048201529385166024850152825185166044850152602083015185166064850152820151608484015260609091015160a483015290911660c482015260e401600060405180830381600087803b1580156105b257600080fd5b505af11580156105c6573d6000803e3d6000fd5b50600092506105de91505060a0870160808801613660565b6105f06101408801610120890161368b565b6040805162ffffff90931660208401529015159082015260600160408051601f19818403018152610180830190915291506000908190610790908061063860208c018c613632565b6001600160a01b031681526020018a60200160208101906106599190613632565b6001600160a01b031681526020018a6040013581526020018a6060013581526020018a61012001602081019061068f919061368b565b61069957306106a9565b6106a960c08c0160a08d01613632565b6001600160a01b031681526020016106c96101408c016101208d0161368b565b6106e2576106dd60c08c0160a08d01613632565b6106e4565b305b6001600160a01b0316815260200161070260e08c0160c08d01613632565b6001600160a01b031681526020016107216101008c0160e08d01613632565b6001600160a01b031681526020016107416101208c016101008d01613632565b6001600160a01b031681526020016107616101808c016101608d01613632565b6001600160a01b031681526020016107816101608c016101408d0161368b565b15158152602001859052611325565b929a509098509650945090925090506108136107af60208a018a613632565b6107bf60408b0160208c01613632565b60408b01356107d460a08d0160808e01613660565b6107e460c08e0160a08f01613632565b8d6101200160208101906107f8919061368b565b88888b80602001905181019061080e91906136a8565b61185b565b965050505084610180013584101561084c576040516312bc00e560e11b8152600481018590526101808601356024820152604401610143565b846101e00135811015610880576040516355f5ffcf60e11b8152600481018290526101e08601356024820152604401610143565b846101a001358310156108b457604051631de9229d60e01b8152600481018490526101a08601356024820152604401610143565b846101c001358210156108e857604051633593b0fb60e21b8152600481018390526101c08601356024820152604401610143565b60608501356108fd6040870160208801613632565b6001600160a01b03166109136020880188613632565b6001600160a01b03167f51ea5c98605130b833d6c67b5612d0d10f9026a5494a9333879f315cd457e839604089013561095260a08b0160808c01613660565b3361096360c08d0160a08e01613632565b6109756101408e016101208f0161368b565b8c8e61016001602081019061098a9190613632565b6040805197885262ffffff9690961660208801526001600160a01b03948516878701529284166060870152901515608086015260a08501521660c083015260e082018990526101008201889052610120820187905251908190036101400190a49193509193565b6060610a0060c08301836136c5565b8080601f0160208091040260200160405190810160405280939291908181526020018383808284376000920191909152509295945050505050565b6060816001600160401b03811115610a5557610a55613301565b604051908082528060200260200182016040528015610a8857816020015b6060815260200190600190039081610a735790505b50905060005b82811015610bc15760008030868685818110610aac57610aac613712565b9050602002810190610abe91906136c5565b604051610acc929190613728565b600060405180830381855af49150503d8060008114610b07576040519150601f19603f3d011682016040523d82523d6000602084013e610b0c565b606091505b509150915081610b8e57604481511015610b5a57604051635d2f436f60e11b815260206004820152600e60248201526d125b9d985b1a590814995cdd5b1d60921b6044820152606401610143565b60048101905080806020019051810190610b749190613768565b604051635d2f436f60e11b815260040161014391906131d3565b80848481518110610ba157610ba1613712565b602002602001018190525050508080610bb9906137c6565b915050610a8e565b5092915050565b6040516370a0823160e01b81523060048201526000907f00000000000000000000000000000000000000000000000000000000000000006001600160a01b0316906370a082319060240160206040518083038186803b158015610c2a57600080fd5b505afa158015610c3e573d6000803e3d6000fd5b505050506040513d601f19601f82011682018060405250810190610c6291906137e1565b905082811015610c8857604051636b8c4dab60e01b815260048101829052602401610143565b8015610d1257604051632e1a7d4d60e01b8152600481018290527f00000000000000000000000000000000000000000000000000000000000000006001600160a01b031690632e1a7d4d90602401600060405180830381600087803b158015610cf057600080fd5b505af1158015610d04573d6000803e3d6000fd5b50505050610d12828261197f565b505050565b60005b95945050505050565b6000806060818080610d3860e08801886136c5565b810190610d4591906137fa565b965091945092509050610d9a7f00000000000000000000000000000000000000000000000000000000000000007f00000000000000000000000000000000000000000000000000000000000000008585611a1f565b5086608001358760a0013510610e5157610e12604051806101000160405280856001600160a01b03168152602001846001600160a01b03168152602001896000013581526020018960200135815260200189604001358152602001896060013581526020018960800135815260200186815250611b57565b91975095509350600080608089013560a08a01350386604051602001610e3b949392919061386e565b6040516020818303038152906040529350611022565b6000610e8382610e62576000610e68565b8860a001355b83610e77578960a00135610e7a565b60005b8a356001611c21565b90506000610e95828a35851584611c6f565b610ea860808b01358b3586156000611c6f565b610eb29190613899565b9050600083610ec5578960600135610ecb565b89604001355b8210610f1457610efa610ef085610ee6578b60600135840390565b8b60400135840390565b8b35866000611cab565b905083610f0b578960600135610f11565b89604001355b91505b610fa4604051806101000160405280886001600160a01b03168152602001876001600160a01b031681526020018c6000013581526020018c60200135815260200186610f605783610f62565b845b610f709060408f0135613899565b815260200186610f805784610f82565b835b610f909060608f0135613899565b815260200185815260200189815250611b57565b919a509850965083610fb65780610fb8565b815b610fc2908a6138b0565b985083610fcf5781610fd1565b805b610fdb90896138b0565b975083610fe85780610fea565b815b84610ff55782610ff7565b815b60008960405160200161100d94939291906138c8565b60405160208183030381529060405296505050505b5050509193909250565b60606110577f0000000000000000000000000000000000000000000000000000000000000000611cd2565b600061109f7f000000000000000000000000000000000000000000000000000000000000000061108a6020860186613632565b61109a6040870160208801613632565b611cfe565b905060808301351561111e576040805163b2ceca7760e01b81526001600160a01b0383169163b2ceca77916110eb9187013590606088013590339060009060808b013590600401613906565b600060405180830381600087803b15801561110557600080fd5b505af1158015611119573d6000803e3d6000fd5b505050505b60a08301351561119b576040805163b2ceca7760e01b81526001600160a01b0383169163b2ceca77916111689187013590606088013590339060019060a08b013590600401613906565b600060405180830381600087803b15801561118257600080fd5b505af1158015611196573d6000803e3d6000fd5b505050505b60c083013515611218576040805163b2ceca7760e01b81526001600160a01b0383169163b2ceca77916111e59187013590606088013590339060029060c08b013590600401613906565b600060405180830381600087803b1580156111ff57600080fd5b505af1158015611213573d6000803e3d6000fd5b505050505b5050604080516020810190915260008152919050565b60006001600160a01b038616301461124857506000610d1a565b5063f23a6e6160e01b610d1a565b60008061126583850185613946565b9150915081156112f6576000806000838060200190518101906112889190613995565b9250925092506112ba7f0000000000000000000000000000000000000000000000000000000000000000848484611d83565b6112ee3360008b136112cc57896112ce565b8a5b60008c136112dc57846112de565b855b6001600160a01b03169190611dc3565b505050611301565b611301868683611e15565b505050505050565b60405163070b57d960e41b815260048101829052602401610143565b600080600080600060606000806113867f00000000000000000000000000000000000000000000000000000000000000007f00000000000000000000000000000000000000000000000000000000000000008b600001518c60200151611e6a565b915091507f00000000000000000000000000000000000000000000000000000000000000006001600160a01b0316637c229f166040518060e001604052808c600001516001600160a01b031681526020018c602001516001600160a01b031681526020018c6040015181526020018c606001518152602001306001600160a01b031681526020018c61012001516001600160a01b03168152602001604051806020016040528060008152508152506040518263ffffffff1660e01b815260040161145091906139e2565b600060405180830381600087803b15801561146a57600080fd5b505af115801561147e573d6000803e3d6000fd5b505050506040513d6000823e601f3d908101601f191682016040526114a69190810190613a6a565b5088516020808b01516101408c01516101608d01516040516114c9959401613a9e565b60408051808303601f19018152610100830182528b82015183526060808d01516020850152308484018190529084018190526080840152600060a08401526101208c01516001600160a01b0390811660c085015260e08401829052915163630b15f360e01b81529095509083169163630b15f39161154a9190600401613ae6565b600060405180830381600087803b15801561156457600080fd5b505af1158015611578573d6000803e3d6000fd5b505050506040513d6000823e601f3d908101601f191682016040526115a09190810190613b73565b8051939c50919a509095506115c092505084016020908101908501613bd4565b80965081975082985083995050505050816001600160a01b031663622fb68f6040518061010001604052808c6040015181526020018c6060015181526020018c608001516001600160a01b031681526020018c60a001516001600160a01b0316815260200160006001811115611638576116386138f0565b81526020016116478a8d613899565b8082529b50602001611659898c613899565b9a508a8152602001604051806020016040528060008152508152506040518263ffffffff1660e01b81526004016116909190613c31565b600060405180830381600087803b1580156116aa57600080fd5b505af11580156116be573d6000803e3d6000fd5b505050506040513d6000823e601f3d908101601f191682016040526116e69190810190613bd4565b505050508560001415806116f957508415155b8061170357508315155b15611850577f00000000000000000000000000000000000000000000000000000000000000006001600160a01b0316634fd991ea6040518061016001604052808c600001516001600160a01b031681526020018c602001516001600160a01b031681526020018c6040015181526020018c6060015181526020018c60c001516001600160a01b031681526020018c60e001516001600160a01b031681526020018c61010001516001600160a01b03168152602001898152602001888152602001878152602001604051806020016040528060008152508152506040518263ffffffff1660e01b81526004016117f89190613cad565b600060405180830381600087803b15801561181257600080fd5b505af1158015611826573d6000803e3d6000fd5b505050506040513d6000823e601f3d908101601f1916820160405261184e9190810190613a6a565b505b505091939550919395565b600084611868578261186a565b835b9050846118775783611879565b825b156119725760006118ac7f00000000000000000000000000000000000000000000000000000000000000008c8c8b611f1f565b905060008b8b8a6040516020016118c593929190613d7e565b60405160208183030381529060405290506001816040516020016118ea929190613da6565b60408051601f1981840301815260c0830182526001600160a01b038b16835289156020840152600191830191909152915060009061195e90606081018a6119315789611933565b885b815260200187611943578d611946565b60005b81526020018490526001600160a01b03851690611f41565b915061196c905081856138b0565b93505050505b9998505050505050505050565b604080516000808252602082019092526001600160a01b0384169083906040516119a99190613dc1565b60006040518083038185875af1925050503d80600081146119e6576040519150601f19603f3d011682016040523d82523d6000602084013e6119eb565b606091505b5050905080610d125760405163296c17bb60e21b81526001600160a01b038416600482015260248101839052604401610143565b60405163d81e842360e01b81526001600160a01b03838116600483015282811660248301526000919086169063d81e84239060440160206040518083038186803b158015611a6c57600080fd5b505afa158015611a80573d6000803e3d6000fd5b505050506040513d601f19601f82011682018060405250810190611aa49190613ddd565b6040516330af0bbf60e21b81526001600160a01b03808316600483015291925060009186169063c2bc2efc9060240160206040518083038186803b158015611aeb57600080fd5b505afa158015611aff573d6000803e3d6000fd5b505050506040513d601f19601f82011682018060405250810190611b239190613ddd565b90506001600160a01b0381163314611b4e5760405163863b47e760e01b815260040160405180910390fd5b50949350505050565b60008060606000808560e00151806020019051810190611b779190613dfa565b915091506000611bf060405180610100016040528089600001516001600160a01b0316815260200189602001516001600160a01b03168152602001896040015181526020018562ffffff1681526020018415158152602001896080015181526020018960a0015181526020018960c001518152506121c1565b6040805184151560208201529299509097509192500160405160208183030381529060405293505050509193909250565b60006001600160801b038311611c4d57611c3e8584600185611cab565b611c4890856138b0565b611c64565b611c5a8484600085611cab565b611c6490866138b0565b90505b949350505050565b60006001600160801b038411611c975782611c9157611c488585600085611cab565b84611c64565b82611ca25784611c64565b611c6485856001855b600082611cc257611c4885600160801b86856123b5565b611c648585600160801b856123b5565b6001600160a01b0381163314611cfb5760405163d2bc8fc960e01b815260040160405180910390fd5b50565b60405163d81e842360e01b81526001600160a01b03838116600483015282811660248301526000919085169063d81e84239060440160206040518083038186803b158015611d4b57600080fd5b505afa158015611d5f573d6000803e3d6000fd5b505050506040513d601f19601f82011682018060405250810190611c679190613ddd565b6000611d91858585856124b1565b90506001600160a01b0381163314611dbc576040516307c1698f60e01b815260040160405180910390fd5b5050505050565b604080516001600160a01b038416602482015260448082018490528251808303909101815260649091019091526020810180516001600160e01b031663a9059cbb60e01b179052610d12908490612534565b600080600083806020019051810190611e2e9190613995565b925092509250611e607f0000000000000000000000000000000000000000000000000000000000000000848484611d83565b6113018686612606565b600080611e816001600160a01b0387168585612629565b6040516330af0bbf60e21b81526001600160a01b0380831660048301529193509086169063c2bc2efc9060240160206040518083038186803b158015611ec657600080fd5b505afa158015611eda573d6000803e3d6000fd5b505050506040513d601f19601f82011682018060405250810190611efe9190613ddd565b90506001600160a01b038116611f1657611f16612655565b94509492505050565b6000611f2d858585856124b1565b9050611c67816001600160a01b031661266e565b6000806000846001600160a01b0316633850c7bd6040518163ffffffff1660e01b815260040160e06040518083038186803b158015611f7f57600080fd5b505afa158015611f93573d6000803e3d6000fd5b505050506040513d601f19601f82011682018060405250810190611fb79190613e40565b5050505050509050600084608001516000141561200b578460200151611ffb57611ff6600173fffd8963efd1fc6a506488495d951d5263988d26613edf565b612018565b611ff66401000276a36001613f07565b6120188560800151612695565b90506401000276a36001600160a01b038216116120425761203f6401000276a36001613f07565b90505b73fffd8963efd1fc6a506488495d951d5263988d266001600160a01b0382161061208857612085600173fffd8963efd1fc6a506488495d951d5263988d26613edf565b90505b84602001516120ab57806001600160a01b0316826001600160a01b0316106120c1565b806001600160a01b0316826001600160a01b0316115b156121b857600080876001600160a01b031663128acb08886000015189602001518a60400151612106576120f88b606001516126e5565b61210190613f32565b612113565b6121138b606001516126e5565b878c60a001516040518663ffffffff1660e01b8152600401612139959493929190613f4f565b6040805180830381600087803b15801561215257600080fd5b505af1158015612166573d6000803e3d6000fd5b505050506040513d601f19601f8201168201806040525081019061218a9190613f8a565b9150915086602001516121a657806121a183613f32565b6121b0565b816121b082613f32565b909650945050505b50509250929050565b60008060008061220385608001516121dd578560c001516121e3565b8560a001515b6121fd8760e0015188604001518960800151156000611c6f565b906126fb565b9050600080866080015161221b578660a00151612221565b8660c001515b156123835760006122607f000000000000000000000000000000000000000000000000000000000000000089600001518a602001518b60600151611f1f565b90506000612299896080015161227a578960a00151612280565b8960c001515b6121fd8b60e001518c604001518d608001516000611c6f565b89516020808c015160608d01516040519495506000946122ba949301613d7e565b60405160208183030381529060405290506000816040516020016122df929190613da6565b60408051601f1981840301815260a0830182526080808e015115845260016020850152838301869052918d01516060840152908201819052915061232d906001600160a01b03851690612711565b5080955050505061234f8860e00151848a604001518b608001511560006129a4565b91508382111561237d576001965083915061237a8860e00151838a604001518b6080015160006129a4565b92505b50612386565b50815b86608001516123955781612397565b805b945086608001516123a857806123aa565b815b959794965050505050565b60008060006123c48787612a1f565b9150915080600014156123e5576123dc828686612a3e565b92505050611c67565b8085116124165760405163362ced0960e11b8152600481018890526024810187905260448101869052606401610143565b600085878909600087810388169788900497600260038a028118808b02820302808b02820302808b02820302808b02820302808b02820302808b029091030291819003819004600101868411909503948502929095039490940417928302935084905080156124945750848061248e5761248e613fae565b86880915155b156124a757826124a3816137c6565b9350505b5050949350505050565b604051630b4c774160e11b81526000906001600160a01b03861690631698ee82906124e490879087908790600401613d7e565b60206040518083038186803b1580156124fc57600080fd5b505afa158015612510573d6000803e3d6000fd5b505050506040513d601f19601f82011682018060405250810190611c649190613ddd565b6000612589826040518060400160405280602081526020017f5361666545524332303a206c6f772d6c6576656c2063616c6c206661696c6564815250856001600160a01b0316612a709092919063ffffffff16565b805190915015610d1257808060200190518101906125a791906136a8565b610d125760405162461bcd60e51b815260206004820152602a60248201527f5361666545524332303a204552433230206f7065726174696f6e20646964206e6044820152691bdd081cdd58d8d9595960b21b6064820152608401610143565b6040516377760aaf60e11b81526004810183905260248101829052604401610143565b6000612636848484611cfe565b90506001600160a01b03811661264e5761264e612655565b9392505050565b60405163d92e233d60e01b815260040160405180910390fd5b6001600160a01b038116611cfb5760405163037064f160e01b815260040160405180910390fd5b60006001600160c01b0382116126bc576104716126b7604084901b6000612a7f565b612afd565b6000806126d28468010000000000000000612a1f565b91509150611c676126b783836000612b27565b6000600160ff1b82106126f757600080fd5b5090565b600081831061270a578161264e565b5090919050565b6000806000846001600160a01b0316633850c7bd6040518163ffffffff1660e01b815260040160e06040518083038186803b15801561274f57600080fd5b505afa158015612763573d6000803e3d6000fd5b505050506040513d601f19601f820116820180604052508101906127879190613e40565b505050505050905060008460600151600014156127d85784516127c8576127c3600173fffd8963efd1fc6a506488495d951d5263988d26613edf565b6127e5565b6127c36401000276a36001613f07565b6127e58560600151612695565b90506401000276a36001600160a01b0382161161280f5761280c6401000276a36001613f07565b90505b73fffd8963efd1fc6a506488495d951d5263988d266001600160a01b0382161061285557612852600173fffd8963efd1fc6a506488495d951d5263988d26613edf565b90505b845161287557816001600160a01b0316816001600160a01b03161161288b565b816001600160a01b0316816001600160a01b0316105b156121b857600080876001600160a01b031663128acb083089600001518a602001516128cc576128be8b604001516126e5565b6128c790613f32565b6128d9565b6128d98b604001516126e5565b878c608001516040518663ffffffff1660e01b81526004016128ff959493929190613f4f565b6040805180830381600087803b15801561291857600080fd5b505af1925050508015612948575060408051601f3d908101601f1916820190925261294591810190613f8a565b60015b612991573d808015612976576040519150601f19603f3d011682016040523d82523d6000602084013e61297b565b606091505b5061298581612bb5565b90935091506129949050565b50505b86516121a657806121a183613f32565b60006001600160801b0384116129ec57826129d4576129cf6129c68688613899565b85600085611cab565b612a15565b6129e2858560018515611cab565b6129cf9087613899565b826129ff576129e2858560008515611cab565b612a15612a0c8688613899565b85600185611cab565b9695505050505050565b6000806000198385098385029250828110838203039150509250929050565b6000612a4a8385613fc4565b9050818015612a615750612a5e8385613fd8565b15155b1561264e5780610d1a816137c6565b6060611c678484600085612be5565b6000600019831415612a9957506001600160801b03610471565b82612aa657506000610471565b50816001818101901c5b81811015612ad857809150600181828681612acd57612acd613fae565b0401901c9050612ab0565b50818015612aee575082612aec8280613fec565b105b156104715780611c67816137c6565b60006001600160a01b038211156126f757604051630ba006e160e41b815260040160405180910390fd5b600082612b3f57612b388483612a7f565b905061264e565b6000612b4e8585600019612d16565b905060001991505b81811015612b7357809150612b6c858583612d16565b9050612b56565b8215612bad57600080612b868485612a1f565b9150915080861180612b9757508187115b15612baa5783612ba6816137c6565b9450505b50505b509392505050565b600080612bc9836377760aaf60e11b612d4b565b806020019051810190612bdc9190613f8a565b91509150915091565b606082471015612c465760405162461bcd60e51b815260206004820152602660248201527f416464726573733a20696e73756666696369656e742062616c616e636520666f6044820152651c8818d85b1b60d21b6064820152608401610143565b6001600160a01b0385163b612c9d5760405162461bcd60e51b815260206004820152601d60248201527f416464726573733a2063616c6c20746f206e6f6e2d636f6e74726163740000006044820152606401610143565b600080866001600160a01b03168587604051612cb99190613dc1565b60006040518083038185875af1925050503d8060008114612cf6576040519150601f19603f3d011682016040523d82523d6000602084013e612cfb565b606091505b5091509150612d0b828286612db9565b979650505050505050565b600080612d268585856000612df2565b90506000612d38826000866000612e77565b9092509050612a15828260026000612df2565b81516060906020612d5d600483613899565b612d679190613fd8565b158015612d8f57506001600160e01b03198316612d838561400b565b6001600160e01b031916145b15612db157612da9846004612da48185613899565b612ee8565b915050610471565b835184602001fd5b60608315612dc857508161264e565b825115612dd85782518084602001fd5b8160405162461bcd60e51b815260040161014391906131d3565b600080612e00868686612ff4565b90925090508015612e3557604051636aa917ab60e01b8152600481018790526024810186905260448101859052606401610143565b8215611b4e57600080612e488487612a1f565b9150915080871180612e5957508188115b15612e6c5783612e68816137c6565b9450505b505050949350505050565b8184018481108285018101908015612ea457811580612e9f5750612e9c600183613899565b86115b612ea8565b8186115b15612ede576040516347b1893f60e01b815260048101889052602481018790526044810186905260648101859052608401610143565b5094509492505050565b606081612ef681601f6138b0565b1015612f355760405162461bcd60e51b815260206004820152600e60248201526d736c6963655f6f766572666c6f7760901b6044820152606401610143565b612f3f82846138b0565b84511015612f835760405162461bcd60e51b8152602060048201526011602482015270736c6963655f6f75744f66426f756e647360781b6044820152606401610143565b606082158015612fa25760405191506000825260208201604052611b4e565b6040519150601f8416801560200281840101858101878315602002848b0101015b81831015612fdb578051835260209283019201612fc3565b5050858452601f01601f19166040525050949350505050565b6000808361300f5761300885846000612a3e565b915061309b565b600061301a846130a3565b90506000613027856130d0565b90505b851561307b5760008061303d8885612a1f565b9150915061304d86868484612e77565b909650945061305c8884612a1f565b909250905061306e82828b6000612e77565b909950975061302a915050565b613093848461308c8a896000612a3e565b6000612e77565b909450925050505b935093915050565b6000816130c3576040516301de42a960e41b815260040160405180910390fd5b5060008190030460010190565b6000816130f0576040516319dbad9f60e01b815260040160405180910390fd5b5060008190030690565b60006020828403121561310c57600080fd5b81356001600160e01b03198116811461264e57600080fd5b6000610220828403121561313757600080fd5b50919050565b60006020828403121561314f57600080fd5b81356001600160401b0381111561316557600080fd5b820160e0818503121561264e57600080fd5b60005b8381101561319257818101518382015260200161317a565b838111156131a1576000848401525b50505050565b600081518084526131bf816020860160208601613177565b601f01601f19169290920160200192915050565b60208152600061264e60208301846131a7565b600080602083850312156131f957600080fd5b82356001600160401b038082111561321057600080fd5b818501915085601f83011261322457600080fd5b81358181111561323357600080fd5b8660208260051b850101111561324857600080fd5b60209290920196919550909350505050565b6000602080830181845280855180835260408601915060408160051b870101925083870160005b828110156132af57603f1988860301845261329d8583516131a7565b94509285019290850190600101613281565b5092979650505050505050565b6001600160a01b0381168114611cfb57600080fd5b600080604083850312156132e457600080fd5b8235915060208301356132f6816132bc565b809150509250929050565b634e487b7160e01b600052604160045260246000fd5b604051601f8201601f191681016001600160401b038111828210171561333f5761333f613301565b604052919050565b600082601f83011261335857600080fd5b813560206001600160401b0382111561337357613373613301565b8160051b613382828201613317565b928352848101820192828101908785111561339c57600080fd5b83870192505b84831015612d0b578235825291830191908301906133a2565b60006001600160401b038211156133d4576133d4613301565b50601f01601f191660200190565b600082601f8301126133f357600080fd5b8135613406613401826133bb565b613317565b81815284602083860101111561341b57600080fd5b816020850160208301376000918101602001919091529392505050565b600080600080600060a0868803121561345057600080fd5b853561345b816132bc565b9450602086013561346b816132bc565b935060408601356001600160401b038082111561348757600080fd5b61349389838a01613347565b945060608801359150808211156134a957600080fd5b6134b589838a01613347565b935060808801359150808211156134cb57600080fd5b506134d8888289016133e2565b9150509295509295909350565b6000610100828403121561313757600080fd5b60006020828403121561350a57600080fd5b81356001600160401b0381111561352057600080fd5b611c67848285016134e5565b838152826020820152606060408201526000611c6460608301846131a7565b600080600080600060a0868803121561356357600080fd5b853561356e816132bc565b9450602086013561357e816132bc565b9350604086013592506060860135915060808601356001600160401b038111156135a757600080fd5b6134d8888289016133e2565b600080600080606085870312156135c957600080fd5b843593506020850135925060408501356001600160401b03808211156135ee57600080fd5b818701915087601f83011261360257600080fd5b81358181111561361157600080fd5b88602082850101111561362357600080fd5b95989497505060200194505050565b60006020828403121561364457600080fd5b813561264e816132bc565b62ffffff81168114611cfb57600080fd5b60006020828403121561367257600080fd5b813561264e8161364f565b8015158114611cfb57600080fd5b60006020828403121561369d57600080fd5b813561264e8161367d565b6000602082840312156136ba57600080fd5b815161264e8161367d565b6000808335601e198436030181126136dc57600080fd5b8301803591506001600160401b038211156136f657600080fd5b60200191503681900382131561370b57600080fd5b9250929050565b634e487b7160e01b600052603260045260246000fd5b8183823760009101908152919050565b6000613746613401846133bb565b905082815283838301111561375a57600080fd5b61264e836020830184613177565b60006020828403121561377a57600080fd5b81516001600160401b0381111561379057600080fd5b8201601f810184136137a157600080fd5b611c6784825160208401613738565b634e487b7160e01b600052601160045260246000fd5b60006000198214156137da576137da6137b0565b5060010190565b6000602082840312156137f357600080fd5b5051919050565b6000806000806080858703121561381057600080fd5b843561381b816132bc565b9350602085013561382b816132bc565b9250604085013561383b8161367d565b915060608501356001600160401b0381111561385657600080fd5b613862878288016133e2565b91505092959194509250565b60ff8516815260ff84166020820152826040820152608060608201526000612a1560808301846131a7565b6000828210156138ab576138ab6137b0565b500390565b600082198211156138c3576138c36137b0565b500190565b84815283602082015260ff83166040820152608060608201526000612a1560808301846131a7565b634e487b7160e01b600052602160045260246000fd5b858152602081018590526001600160a01b038416604082015260a0810160038410613933576139336138f0565b6060820193909352608001529392505050565b6000806040838503121561395957600080fd5b82356139648161367d565b915060208301356001600160401b0381111561397f57600080fd5b61398b858286016133e2565b9150509250929050565b6000806000606084860312156139aa57600080fd5b83516139b5816132bc565b60208501519093506139c6816132bc565b60408501519092506139d78161364f565b809150509250925092565b60208152600060018060a01b0380845116602084015280602085015116604084015260408401516060840152606084015160808401528060808501511660a08401528060a08501511660c08401525060c083015160e080840152611c676101008401826131a7565b600082601f830112613a5b57600080fd5b61264e83835160208501613738565b600060208284031215613a7c57600080fd5b81516001600160401b03811115613a9257600080fd5b611c6784828501613a4a565b6001600160a01b038581168252841660208201528215156040820152608060608201819052600090612a15908301846131a7565b60048110613ae257613ae26138f0565b9052565b6020815281516020820152602082015160408201526000604083015160018060a01b03808216606085015280606086015116608085015250506080830151613b3960a08401826001600160a01b03169052565b5060a0830151613b4c60c0840182613ad2565b5060c083015160e083015260e0830151610100808185015250611c676101208401826131a7565b600080600080600060a08688031215613b8b57600080fd5b8551613b96816132bc565b8095505060208601519350604086015192506060860151915060808601516001600160401b03811115613bc857600080fd5b6134d888828901613a4a565b60008060008060808587031215613bea57600080fd5b84519350602085015192506040850151915060608501516001600160401b03811115613c1557600080fd5b61386287828801613a4a565b60028110613ae257613ae26138f0565b6020815281516020820152602082015160408201526000604083015160018060a01b03808216606085015280606086015116608085015250506080830151613c7c60a0840182613c21565b5060a083015160c083015260c083015160e083015260e0830151610100808185015250611c676101208401826131a7565b60208152613cc76020820183516001600160a01b03169052565b60006020830151613ce360408401826001600160a01b03169052565b5060408301516060830152606083015160808301526080830151613d1260a08401826001600160a01b03169052565b5060a08301516001600160a01b03811660c08401525060c08301516001600160a01b03811660e08401525060e083015161010083810191909152830151610120808401919091528301516101408084019190915283015161016080840152611c676101808401826131a7565b6001600160a01b03938416815291909216602082015262ffffff909116604082015260600190565b8215158152604060208201526000611c6760408301846131a7565b60008251613dd3818460208701613177565b9190910192915050565b600060208284031215613def57600080fd5b815161264e816132bc565b60008060408385031215613e0d57600080fd5b8251613e188161364f565b60208401519092506132f68161367d565b805161ffff81168114613e3b57600080fd5b919050565b600080600080600080600060e0888a031215613e5b57600080fd5b8751613e66816132bc565b8097505060208801518060020b8114613e7e57600080fd5b9550613e8c60408901613e29565b9450613e9a60608901613e29565b9350613ea860808901613e29565b925060a088015160ff81168114613ebe57600080fd5b60c0890151909250613ecf8161367d565b8091505092959891949750929550565b60006001600160a01b0383811690831681811015613eff57613eff6137b0565b039392505050565b60006001600160a01b03828116848216808303821115613f2957613f296137b0565b01949350505050565b6000600160ff1b821415613f4857613f486137b0565b5060000390565b6001600160a01b0386811682528515156020830152604082018590528316606082015260a060808201819052600090612d0b908301846131a7565b60008060408385031215613f9d57600080fd5b505080516020909101519092909150565b634e487b7160e01b600052601260045260246000fd5b600082613fd357613fd3613fae565b500490565b600082613fe757613fe7613fae565b500690565b6000816000190483118215151615614006576140066137b0565b500290565b805160208201516001600160e01b0319808216929190600483101561403a5780818460040360031b1b83161693505b50505091905056fea26469706673582212204af3c2ba2a99d4f5d0be891b352c8ad7f10ca2ed83ed3c2e2034e2074e8d439264736f6c63430008080033",
  "linkReferences": {},
  "deployedLinkReferences": {}
}