{
  "_format": "hh-sol-artifact-1",
  "contractName": "TimeswapV2PeripheryNoDexQuoterLendGivenPrincipal",
  "sourceName": "@timeswap-labs/v2-periphery-nodex/src/lens/TimeswapV2PeripheryNoDexQuoterLendGivenPrincipal.sol",
  "abi": [
    {
      "inputs": [
        {
          "internalType": "address",
          "name": "chosenOptionFactory",
          "type": "address"
        },
        {
          "internalType": "address",
          "name": "chosenPoolFactory",
          "type": "address"
        },
        {
          "internalType": "address",
          "name": "chosenTokens",
          "type": "address"
        }
      ],
      "stateMutability": "nonpayable",
      "type": "constructor"
    },
    {
      "inputs": [],
      "name": "CanOnlyBeCalledByOptionContract",
      "type": "error"
    },
    {
      "inputs": [],
      "name": "CanOnlyBeCalledByPoolContract",
      "type": "error"
    },
    {
      "inputs": [],
      "name": "CanOnlyBeCalledByTokensContract",
      "type": "error"
    },
    {
      "inputs": [
        {
          "internalType": "uint256",
          "name": "multiplicand",
          "type": "uint256"
        },
        {
          "internalType": "uint256",
          "name": "multiplier",
          "type": "uint256"
        },
        {
          "internalType": "uint256",
          "name": "divisor",
          "type": "uint256"
        }
      ],
      "name": "MulDivOverflow",
      "type": "error"
    },
    {
      "inputs": [
        {
          "internalType": "string",
          "name": "revertString",
          "type": "string"
        }
      ],
      "name": "MulticallFailed",
      "type": "error"
    },
    {
      "inputs": [
        {
          "internalType": "bytes",
          "name": "data",
          "type": "bytes"
        }
      ],
      "name": "PassOptionMintCallbackInfo",
      "type": "error"
    },
    {
      "inputs": [
        {
          "internalType": "uint160",
          "name": "timeswapV2SqrtInterestRateAfter",
          "type": "uint160"
        },
        {
          "internalType": "bytes",
          "name": "data",
          "type": "bytes"
        }
      ],
      "name": "PassPoolDeleverageCallbackInfo",
      "type": "error"
    },
    {
      "inputs": [],
      "name": "ZeroAddress",
      "type": "error"
    },
    {
      "inputs": [
        {
          "components": [
            {
              "internalType": "address",
              "name": "token0",
              "type": "address"
            },
            {
              "internalType": "address",
              "name": "token1",
              "type": "address"
            },
            {
              "internalType": "uint256",
              "name": "strike",
              "type": "uint256"
            },
            {
              "internalType": "uint256",
              "name": "maturity",
              "type": "uint256"
            },
            {
              "internalType": "address",
              "name": "to",
              "type": "address"
            },
            {
              "internalType": "bool",
              "name": "isToken0",
              "type": "bool"
            },
            {
              "internalType": "uint256",
              "name": "tokenAmount",
              "type": "uint256"
            }
          ],
          "internalType": "struct TimeswapV2PeripheryNoDexQuoterLendGivenPrincipalParam",
          "name": "param",
          "type": "tuple"
        },
        {
          "internalType": "uint96",
          "name": "durationForward",
          "type": "uint96"
        }
      ],
      "name": "lendGivenPrincipal",
      "outputs": [
        {
          "internalType": "uint256",
          "name": "positionAmount",
          "type": "uint256"
        },
        {
          "internalType": "uint160",
          "name": "timeswapV2SqrtInterestRateAfter",
          "type": "uint160"
        }
      ],
      "stateMutability": "nonpayable",
      "type": "function"
    },
    {
      "inputs": [
        {
          "internalType": "bytes[]",
          "name": "data",
          "type": "bytes[]"
        }
      ],
      "name": "multicall",
      "outputs": [
        {
          "internalType": "bytes[]",
          "name": "results",
          "type": "bytes[]"
        }
      ],
      "stateMutability": "payable",
      "type": "function"
    },
    {
      "inputs": [],
      "name": "optionFactory",
      "outputs": [
        {
          "internalType": "address",
          "name": "",
          "type": "address"
        }
      ],
      "stateMutability": "view",
      "type": "function"
    },
    {
      "inputs": [],
      "name": "poolFactory",
      "outputs": [
        {
          "internalType": "address",
          "name": "",
          "type": "address"
        }
      ],
      "stateMutability": "view",
      "type": "function"
    },
    {
      "inputs": [
        {
          "components": [
            {
              "internalType": "uint256",
              "name": "strike",
              "type": "uint256"
            },
            {
              "internalType": "uint256",
              "name": "maturity",
              "type": "uint256"
            },
            {
              "internalType": "uint256",
              "name": "token0AndLong0Amount",
              "type": "uint256"
            },
            {
              "internalType": "uint256",
              "name": "token1AndLong1Amount",
              "type": "uint256"
            },
            {
              "internalType": "uint256",
              "name": "shortAmount",
              "type": "uint256"
            },
            {
              "internalType": "bytes",
              "name": "data",
              "type": "bytes"
            }
          ],
          "internalType": "struct TimeswapV2OptionMintCallbackParam",
          "name": "param",
          "type": "tuple"
        }
      ],
      "name": "timeswapV2OptionMintCallback",
      "outputs": [
        {
          "internalType": "bytes",
          "name": "data",
          "type": "bytes"
        }
      ],
      "stateMutability": "nonpayable",
      "type": "function"
    },
    {
      "inputs": [
        {
          "components": [
            {
              "internalType": "uint256",
              "name": "strike",
              "type": "uint256"
            },
            {
              "internalType": "uint256",
              "name": "maturity",
              "type": "uint256"
            },
            {
              "internalType": "uint256",
              "name": "long0Amount",
              "type": "uint256"
            },
            {
              "internalType": "uint256",
              "name": "long1Amount",
              "type": "uint256"
            },
            {
              "internalType": "uint256",
              "name": "shortAmount",
              "type": "uint256"
            },
            {
              "internalType": "bytes",
              "name": "data",
              "type": "bytes"
            }
          ],
          "internalType": "struct TimeswapV2PoolDeleverageCallbackParam",
          "name": "param",
          "type": "tuple"
        }
      ],
      "name": "timeswapV2PoolDeleverageCallback",
      "outputs": [
        {
          "internalType": "bytes",
          "name": "data",
          "type": "bytes"
        }
      ],
      "stateMutability": "nonpayable",
      "type": "function"
    },
    {
      "inputs": [
        {
          "components": [
            {
              "internalType": "uint256",
              "name": "strike",
              "type": "uint256"
            },
            {
              "internalType": "uint256",
              "name": "maturity",
              "type": "uint256"
            },
            {
              "internalType": "uint256",
              "name": "longAmount",
              "type": "uint256"
            },
            {
              "internalType": "uint256",
              "name": "shortAmount",
              "type": "uint256"
            },
            {
              "internalType": "bytes",
              "name": "data",
              "type": "bytes"
            }
          ],
          "internalType": "struct TimeswapV2PoolDeleverageChoiceCallbackParam",
          "name": "param",
          "type": "tuple"
        }
      ],
      "name": "timeswapV2PoolDeleverageChoiceCallback",
      "outputs": [
        {
          "internalType": "uint256",
          "name": "long0Amount",
          "type": "uint256"
        },
        {
          "internalType": "uint256",
          "name": "long1Amount",
          "type": "uint256"
        },
        {
          "internalType": "bytes",
          "name": "data",
          "type": "bytes"
        }
      ],
      "stateMutability": "view",
      "type": "function"
    },
    {
      "inputs": [
        {
          "components": [
            {
              "internalType": "address",
              "name": "token0",
              "type": "address"
            },
            {
              "internalType": "address",
              "name": "token1",
              "type": "address"
            },
            {
              "internalType": "uint256",
              "name": "strike",
              "type": "uint256"
            },
            {
              "internalType": "uint256",
              "name": "maturity",
              "type": "uint256"
            },
            {
              "internalType": "uint256",
              "name": "long0Amount",
              "type": "uint256"
            },
            {
              "internalType": "uint256",
              "name": "long1Amount",
              "type": "uint256"
            },
            {
              "internalType": "uint256",
              "name": "shortAmount",
              "type": "uint256"
            },
            {
              "internalType": "bytes",
              "name": "data",
              "type": "bytes"
            }
          ],
          "internalType": "struct TimeswapV2TokenMintCallbackParam",
          "name": "param",
          "type": "tuple"
        }
      ],
      "name": "timeswapV2TokenMintCallback",
      "outputs": [
        {
          "internalType": "bytes",
          "name": "data",
          "type": "bytes"
        }
      ],
      "stateMutability": "nonpayable",
      "type": "function"
    },
    {
      "inputs": [],
      "name": "tokens",
      "outputs": [
        {
          "internalType": "address",
          "name": "",
          "type": "address"
        }
      ],
      "stateMutability": "view",
      "type": "function"
    }
  ],
  "bytecode": "0x60e06040523480156200001157600080fd5b50604051620021d5380380620021d5833981016040819052620000349162000079565b6001600160601b0319606093841b811660805291831b821660a05290911b1660c052620000c3565b80516001600160a01b03811681146200007457600080fd5b919050565b6000806000606084860312156200008f57600080fd5b6200009a846200005c565b9250620000aa602085016200005c565b9150620000ba604085016200005c565b90509250925092565b60805160601c60a05160601c60c05160601c612094620001416000396000818161013b015281816102a70152610a6a015260008181609d015281816104e80152818161075a0152610df00152600081816101fb0152818161026e015281816104c70152818161073901528181610a950152610dcf01526120946000f3fe6080604052600436106100865760003560e01c8063aaac7a7411610059578063aaac7a741461015d578063ac9650d81461018c578063b336d13a146101ac578063b3461c87146101e9578063e13c022c1461021d57600080fd5b80634219dc401461008b5780634a358d65146100dc57806387a8993a146101095780639d63848a14610129575b600080fd5b34801561009757600080fd5b506100bf7f000000000000000000000000000000000000000000000000000000000000000081565b6040516001600160a01b0390911681526020015b60405180910390f35b3480156100e857600080fd5b506100fc6100f7366004611520565b61023d565b6040516100d39190611616565b34801561011557600080fd5b506100fc610124366004611629565b610497565b34801561013557600080fd5b506100bf7f000000000000000000000000000000000000000000000000000000000000000081565b34801561016957600080fd5b5061017d610178366004611663565b610704565b6040516100d39392919061169d565b61019f61019a3660046116bc565b6107b3565b6040516100d39190611730565b3480156101b857600080fd5b506101cc6101c7366004611792565b610940565b604080519283526001600160a01b039091166020830152016100d3565b3480156101f557600080fd5b506100bf7f000000000000000000000000000000000000000000000000000000000000000081565b34801561022957600080fd5b506100fc6102383660046117e3565b610a63565b60606000806000808560a0015180602001905181019061025d9190611883565b9850929650909450925090506102947f00000000000000000000000000000000000000000000000000000000000000008585610b61565b60808601516102a3908261191a565b90507f00000000000000000000000000000000000000000000000000000000000000006001600160a01b0316634fd991ea604051806101600160405280876001600160a01b03168152602001866001600160a01b031681526020018960000151815260200189602001518152602001306001600160a01b03168152602001306001600160a01b03168152602001856001600160a01b031681526020016000815260200160008152602001848152602001604051806020016040528060008152508152506040518263ffffffff1660e01b81526004016103829190611932565b600060405180830381600087803b15801561039c57600080fd5b505af11580156103b0573d6000803e3d6000fd5b505050506040513d6000823e601f3d908101601f191682016040526103d89190810190611a03565b5061044d604051806101200160405280336001600160a01b03168152602001866001600160a01b03168152602001856001600160a01b03168152602001886000015181526020018860200151815260200188604001518152602001886060015181526020018381526020018781525050606090565b94508085604051602001610462929190611a37565b604051602081830303815290604052945084604051632e1c70f360e11b815260040161048e9190611616565b60405180910390fd5b6060600080806104aa60a0860186611a50565b8101906104b79190611a9d565b965091945092509050600061050e7f00000000000000000000000000000000000000000000000000000000000000007f00000000000000000000000000000000000000000000000000000000000000008686610c17565b905083838388608001358860405160200161052d959493929190611b11565b60408051808303601f1901815261012083018252883583526020808a01359084015233838301819052606080850191909152306080850152600060a08501528983013560c085015289013560e0840152610100830181905290516380e0667960e01b81529096506001600160a01b038316916380e06679916105b29190600401611b81565b600060405180830381600087803b1580156105cc57600080fd5b505af192505050801561060157506040513d6000823e601f3d908101601f191682016040526105fe9190810190611c23565b60015b610664573d80801561062f576040519150601f19603f3d011682016040523d82523d6000602084013e610634565b606091505b5061064681632e1c70f360e11b610d4f565b95508580602001905181019061065c9190611a03565b955050610669565b505050505b60405163a8f403b760e01b81528635600482015260208701356024820152600090339063a8f403b79060440160206040518083038186803b1580156106ad57600080fd5b505afa1580156106c1573d6000803e3d6000fd5b505050506040513d601f19601f820116820180604052508101906106e59190611c70565b9050808660405163b602147560e01b815260040161048e929190611c8d565b60008060608180806107196080880188611a50565b8101906107269190611cb1565b919a5098509650919450925090506107807f00000000000000000000000000000000000000000000000000000000000000007f00000000000000000000000000000000000000000000000000000000000000008585610c17565b50828282866040516020016107989493929190611d37565b60405160208183030381529060405293505050509193909250565b6060816001600160401b038111156107cd576107cd611435565b60405190808252806020026020018201604052801561080057816020015b60608152602001906001900390816107eb5790505b50905060005b82811015610939576000803086868581811061082457610824611d75565b90506020028101906108369190611a50565b604051610844929190611d8b565b600060405180830381855af49150503d806000811461087f576040519150601f19603f3d011682016040523d82523d6000602084013e610884565b606091505b509150915081610906576044815110156108d257604051635d2f436f60e11b815260206004820152600e60248201526d125b9d985b1a590814995cdd5b1d60921b604482015260640161048e565b600481019050808060200190518101906108ec9190611d9b565b604051635d2f436f60e11b815260040161048e9190611616565b8084848151811061091957610919611d75565b60200260200101819052505050808061093190611de3565b915050610806565b5092915050565b600080803361095560c0870160a08801611dfe565b604080516001600160a01b0390931660208401529015159082015260600160408051601f1981840301815261010083019091529150610a55908061099c6020890189611e20565b6001600160a01b031681526020018760200160208101906109bd9190611e20565b6001600160a01b0316815260200187604001358152602001876060013581526020018760800160208101906109f29190611e20565b6001600160a01b03168152602001610a1060c0890160a08a01611dfe565b610a1b576000610a21565b8760c001355b8152602001610a3660c0890160a08a01611dfe565b610a44578760c00135610a47565b60005b815260200183905285610dc3565b919791965090945050505050565b6060610a8e7f0000000000000000000000000000000000000000000000000000000000000000610fb9565b6000610ad67f0000000000000000000000000000000000000000000000000000000000000000610ac16020860186611e20565b610ad16040870160208801611e20565b610fe5565b9050806001600160a01b031663b2ceca77846040013585606001353360028860c001356040518663ffffffff1660e01b8152600401610b19959493929190611e3d565b600060405180830381600087803b158015610b3357600080fd5b505af1158015610b47573d6000803e3d6000fd5b505060408051602081019091526000815295945050505050565b60405163d81e842360e01b81526001600160a01b03838116600483015282811660248301526000919085169063d81e84239060440160206040518083038186803b158015610bae57600080fd5b505afa158015610bc2573d6000803e3d6000fd5b505050506040513d601f19601f82011682018060405250810190610be69190611c70565b90506001600160a01b0381163314610c115760405163a5fbb7d960e01b815260040160405180910390fd5b50505050565b60405163d81e842360e01b81526001600160a01b03838116600483015282811660248301526000919086169063d81e84239060440160206040518083038186803b158015610c6457600080fd5b505afa158015610c78573d6000803e3d6000fd5b505050506040513d601f19601f82011682018060405250810190610c9c9190611c70565b6040516330af0bbf60e21b81526001600160a01b03808316600483015291925060009186169063c2bc2efc9060240160206040518083038186803b158015610ce357600080fd5b505afa158015610cf7573d6000803e3d6000fd5b505050506040513d601f19601f82011682018060405250810190610d1b9190611c70565b90506001600160a01b0381163314610d465760405163863b47e760e01b815260040160405180910390fd5b50949350505050565b81516060906020610d61600483611e7d565b610d6b9190611eaa565b158015610d9357506001600160e01b03198316610d8785611ebe565b6001600160e01b031916145b15610db557610dad846004610da88185611e7d565b611072565b915050610dbd565b835184602001fd5b92915050565b60006060600080610e1e7f00000000000000000000000000000000000000000000000000000000000000007f000000000000000000000000000000000000000000000000000000000000000088600001518960200151611181565b9150508560000151866020015187608001518860a001518960c001518a60e00151604051602001610e5496959493929190611ef5565b60408051601f1981840301815260c0830182528882015183526060808a01516020850152309284019290925294506001600160a01b0383169163bfec5c8a91810160018152602001610eb58a60a001518b60c001518c604001516000611236565b815260200186815250876040518363ffffffff1660e01b8152600401610edc929190611f43565b600060405180830381600087803b158015610ef657600080fd5b505af1925050508015610f2b57506040513d6000823e601f3d908101601f19168201604052610f289190810190611c23565b60015b610f91573d808015610f59576040519150601f19603f3d011682016040523d82523d6000602084013e610f5e565b606091505b50610f708163b602147560e01b610d4f565b935083806020019051810190610f869190611fca565b94509250610f969050565b505050505b82806020019051810190610faa919061201a565b90979096509194509092505050565b6001600160a01b0381163314610fe25760405163d2bc8fc960e01b815260040160405180910390fd5b50565b60405163d81e842360e01b81526001600160a01b03838116600483015282811660248301526000919085169063d81e84239060440160206040518083038186803b15801561103257600080fd5b505afa158015611046573d6000803e3d6000fd5b505050506040513d601f19601f8201168201806040525081019061106a9190611c70565b949350505050565b60608161108081601f61191a565b10156110bf5760405162461bcd60e51b815260206004820152600e60248201526d736c6963655f6f766572666c6f7760901b604482015260640161048e565b6110c9828461191a565b8451101561110d5760405162461bcd60e51b8152602060048201526011602482015270736c6963655f6f75744f66426f756e647360781b604482015260640161048e565b60608215801561112c5760405191506000825260208201604052611176565b6040519150601f8416801560200281840101858101878315602002848b0101015b8183101561116557805183526020928301920161114d565b5050858452601f01601f1916604052505b5090505b9392505050565b6000806111986001600160a01b038716858561128b565b6040516330af0bbf60e21b81526001600160a01b0380831660048301529193509086169063c2bc2efc9060240160206040518083038186803b1580156111dd57600080fd5b505afa1580156111f1573d6000803e3d6000fd5b505050506040513d601f19601f820116820180604052508101906112159190611c70565b90506001600160a01b03811661122d5761122d6112ac565b94509492505050565b60006fffffffffffffffffffffffffffffffff831161126b5761125c85846001856112c5565b611266908561191a565b611282565b61127884846000856112c5565b611282908661191a565b95945050505050565b6000611298848484610fe5565b90506001600160a01b03811661117a5761117a5b60405163d92e233d60e01b815260040160405180910390fd5b6000826112dc5761126685600160801b86856112e8565b6112828585600160801b855b60008060006112f787876113e4565b9150915080600014156113185761130f828686611403565b9250505061106a565b8085116113495760405163362ced0960e11b815260048101889052602481018790526044810186905260640161048e565b600085878909600087810388169788900497600260038a028118808b02820302808b02820302808b02820302808b02820302808b02820302808b029091030291819003819004600101868411909503948502929095039490940417928302935084905080156113c7575084806113c1576113c1611e94565b86880915155b156113da57826113d681611de3565b9350505b5050949350505050565b6000806000198385098385029250828110838203039150509250929050565b600061140f838561204a565b905081801561142657506114238385611eaa565b15155b1561117a578061128281611de3565b634e487b7160e01b600052604160045260246000fd5b60405160c081016001600160401b038111828210171561146d5761146d611435565b60405290565b604051601f8201601f191681016001600160401b038111828210171561149b5761149b611435565b604052919050565b60006001600160401b038211156114bc576114bc611435565b50601f01601f191660200190565b600082601f8301126114db57600080fd5b81356114ee6114e9826114a3565b611473565b81815284602083860101111561150357600080fd5b816020850160208301376000918101602001919091529392505050565b60006020828403121561153257600080fd5b81356001600160401b038082111561154957600080fd5b9083019060c0828603121561155d57600080fd5b61156561144b565b823581526020830135602082015260408301356040820152606083013560608201526080830135608082015260a0830135828111156115a357600080fd5b6115af878286016114ca565b60a08301525095945050505050565b60005b838110156115d95781810151838201526020016115c1565b83811115610c115750506000910152565b600081518084526116028160208601602086016115be565b601f01601f19169290920160200192915050565b60208152600061117a60208301846115ea565b60006020828403121561163b57600080fd5b81356001600160401b0381111561165157600080fd5b820160c0818503121561117a57600080fd5b60006020828403121561167557600080fd5b81356001600160401b0381111561168b57600080fd5b820160a0818503121561117a57600080fd5b83815282602082015260606040820152600061128260608301846115ea565b600080602083850312156116cf57600080fd5b82356001600160401b03808211156116e657600080fd5b818501915085601f8301126116fa57600080fd5b81358181111561170957600080fd5b8660208260051b850101111561171e57600080fd5b60209290920196919550909350505050565b6000602080830181845280855180835260408601915060408160051b870101925083870160005b8281101561178557603f198886030184526117738583516115ea565b94509285019290850190600101611757565b5092979650505050505050565b6000808284036101008112156117a757600080fd5b60e08112156117b557600080fd5b5082915060e08301356bffffffffffffffffffffffff811681146117d857600080fd5b809150509250929050565b6000602082840312156117f557600080fd5b81356001600160401b0381111561180b57600080fd5b8201610100818503121561117a57600080fd5b6001600160a01b0381168114610fe257600080fd5b60006118416114e9846114a3565b905082815283838301111561185557600080fd5b61117a8360208301846115be565b600082601f83011261187457600080fd5b61117a83835160208501611833565b600080600080600060a0868803121561189b57600080fd5b85516118a68161181e565b60208701519095506118b78161181e565b60408701519094506118c88161181e565b6060870151608088015191945092506001600160401b038111156118eb57600080fd5b6118f788828901611863565b9150509295509295909350565b634e487b7160e01b600052601160045260246000fd5b6000821982111561192d5761192d611904565b500190565b6020815261194c6020820183516001600160a01b03169052565b6000602083015161196860408401826001600160a01b03169052565b506040830151606083015260608301516080830152608083015161199760a08401826001600160a01b03169052565b5060a08301516001600160a01b03811660c08401525060c08301516001600160a01b03811660e08401525060e08301516101008381019190915283015161012080840191909152830151610140808401919091528301516101608084015261106a6101808401826115ea565b600060208284031215611a1557600080fd5b81516001600160401b03811115611a2b57600080fd5b61106a84828501611863565b82815260406020820152600061106a60408301846115ea565b6000808335601e19843603018112611a6757600080fd5b8301803591506001600160401b03821115611a8157600080fd5b602001915036819003821315611a9657600080fd5b9250929050565b60008060008060808587031215611ab357600080fd5b8435611abe8161181e565b93506020850135611ace8161181e565b92506040850135611ade8161181e565b915060608501356001600160401b03811115611af957600080fd5b611b05878288016114ca565b91505092959194509250565b6001600160a01b0386811682528581166020830152841660408201526060810183905260a060808201819052600090611b4c908301846115ea565b979650505050505050565b634e487b7160e01b600052602160045260246000fd5b60028110611b7d57611b7d611b57565b9052565b60208152815160208201526020820151604082015260006040830151611bb260608401826001600160a01b03169052565b5060608301516001600160a01b03811660808401525060808301516001600160a01b03811660a08401525060a0830151611bef60c0840182611b6d565b5060c083015160e083810191909152830151610100808401919091528301516101208084015261106a6101408401826115ea565b60008060008060808587031215611c3957600080fd5b84519350602085015192506040850151915060608501516001600160401b03811115611c6457600080fd5b611b0587828801611863565b600060208284031215611c8257600080fd5b815161117a8161181e565b6001600160a01b038316815260406020820181905260009061106a908301846115ea565b60008060008060008060c08789031215611cca57600080fd5b8635611cd58161181e565b95506020870135611ce58161181e565b94506040870135611cf58161181e565b9350606087013592506080870135915060a08701356001600160401b03811115611d1e57600080fd5b611d2a89828a016114ca565b9150509295509295509295565b6001600160a01b038581168252848116602083015283166040820152608060608201819052600090611d6b908301846115ea565b9695505050505050565b634e487b7160e01b600052603260045260246000fd5b8183823760009101908152919050565b600060208284031215611dad57600080fd5b81516001600160401b03811115611dc357600080fd5b8201601f81018413611dd457600080fd5b61106a84825160208401611833565b6000600019821415611df757611df7611904565b5060010190565b600060208284031215611e1057600080fd5b8135801515811461117a57600080fd5b600060208284031215611e3257600080fd5b813561117a8161181e565b858152602081018590526001600160a01b038416604082015260a0810160038410611e6a57611e6a611b57565b6060820193909352608001529392505050565b600082821015611e8f57611e8f611904565b500390565b634e487b7160e01b600052601260045260246000fd5b600082611eb957611eb9611e94565b500690565b805160208201516001600160e01b03198082169291906004831015611eed5780818460040360031b1b83161693505b505050919050565b6001600160a01b038781168252868116602083015285166040820152606081018490526080810183905260c060a08201819052600090611f37908301846115ea565b98975050505050505050565b60408152825160408201526020830151606082015260018060a01b0360408401511660808201526000606084015160048110611f8157611f81611b57565b8060a084015250608084015160c083015260a084015160c060e0840152611fac6101008401826115ea565b9150506bffffffffffffffffffffffff831660208301529392505050565b60008060408385031215611fdd57600080fd5b8251611fe88161181e565b60208401519092506001600160401b0381111561200457600080fd5b61201085828601611863565b9150509250929050565b6000806040838503121561202d57600080fd5b8251915060208301516001600160401b0381111561200457600080fd5b60008261205957612059611e94565b50049056fea2646970667358221220589d0ea9a4bdf755134963c382017c9ec1aafcc1600a3590f99a65864339b17c64736f6c63430008080033",
  "linkReferences": {},
  "deployedLinkReferences": {}
}