{
  "_format": "hh-sol-artifact-1",
  "contractName": "TimeswapV2PeripheryUniswapV3BorrowGivenPrincipal",
  "sourceName": "@timeswap-labs/v2-periphery-uniswapV3/contracts/TimeswapV2PeripheryUniswapV3BorrowGivenPrincipal.sol",
  "abi": [
    {
      "inputs": [
        {
          "internalType": "address",
          "name": "chosenOptionFactory",
          "type": "address"
        },
        {
          "internalType": "address",
          "name": "chosenPoolFactory",
          "type": "address"
        },
        {
          "internalType": "address",
          "name": "chosenTokens",
          "type": "address"
        },
        {
          "internalType": "address",
          "name": "chosenUniswapV3Factory",
          "type": "address"
        },
        {
          "internalType": "address",
          "name": "chosenNative",
          "type": "address"
        }
      ],
      "stateMutability": "nonpayable",
      "type": "constructor"
    },
    {
      "inputs": [
        {
          "internalType": "uint256",
          "name": "addendA0",
          "type": "uint256"
        },
        {
          "internalType": "uint256",
          "name": "addendA1",
          "type": "uint256"
        },
        {
          "internalType": "uint256",
          "name": "addendB0",
          "type": "uint256"
        },
        {
          "internalType": "uint256",
          "name": "addendB1",
          "type": "uint256"
        }
      ],
      "name": "AddOverflow",
      "type": "error"
    },
    {
      "inputs": [
        {
          "internalType": "address",
          "name": "from",
          "type": "address"
        }
      ],
      "name": "CallerNotWrappedNative",
      "type": "error"
    },
    {
      "inputs": [],
      "name": "CanOnlyBeCalledByOptionContract",
      "type": "error"
    },
    {
      "inputs": [],
      "name": "CanOnlyBeCalledByPoolContract",
      "type": "error"
    },
    {
      "inputs": [],
      "name": "CanOnlyBeCalledByTokensContract",
      "type": "error"
    },
    {
      "inputs": [],
      "name": "CanOnlyBeCalledByUniswapV3Contract",
      "type": "error"
    },
    {
      "inputs": [
        {
          "internalType": "uint256",
          "name": "deadline",
          "type": "uint256"
        }
      ],
      "name": "DeadlineReached",
      "type": "error"
    },
    {
      "inputs": [
        {
          "internalType": "uint256",
          "name": "dividend0",
          "type": "uint256"
        },
        {
          "internalType": "uint256",
          "name": "dividend1",
          "type": "uint256"
        },
        {
          "internalType": "uint256",
          "name": "divisor",
          "type": "uint256"
        }
      ],
      "name": "DivOverflow",
      "type": "error"
    },
    {
      "inputs": [],
      "name": "DivideByZero",
      "type": "error"
    },
    {
      "inputs": [
        {
          "internalType": "uint256",
          "name": "value",
          "type": "uint256"
        }
      ],
      "name": "InsufficientWrappedNative",
      "type": "error"
    },
    {
      "inputs": [
        {
          "internalType": "uint256",
          "name": "positionAmount",
          "type": "uint256"
        },
        {
          "internalType": "uint256",
          "name": "maxPositionAmount",
          "type": "uint256"
        }
      ],
      "name": "MaxPositionReached",
      "type": "error"
    },
    {
      "inputs": [],
      "name": "ModuloByZero",
      "type": "error"
    },
    {
      "inputs": [
        {
          "internalType": "uint256",
          "name": "multiplicand",
          "type": "uint256"
        },
        {
          "internalType": "uint256",
          "name": "multiplier",
          "type": "uint256"
        },
        {
          "internalType": "uint256",
          "name": "divisor",
          "type": "uint256"
        }
      ],
      "name": "MulDivOverflow",
      "type": "error"
    },
    {
      "inputs": [
        {
          "internalType": "string",
          "name": "revertString",
          "type": "string"
        }
      ],
      "name": "MulticallFailed",
      "type": "error"
    },
    {
      "inputs": [
        {
          "internalType": "address",
          "name": "to",
          "type": "address"
        },
        {
          "internalType": "uint256",
          "name": "value",
          "type": "uint256"
        }
      ],
      "name": "NativeTransferFailed",
      "type": "error"
    },
    {
      "inputs": [
        {
          "internalType": "int256",
          "name": "amount0",
          "type": "int256"
        },
        {
          "internalType": "int256",
          "name": "amount1",
          "type": "int256"
        }
      ],
      "name": "PassCalculateInfo",
      "type": "error"
    },
    {
      "inputs": [],
      "name": "Uint160Overflow",
      "type": "error"
    },
    {
      "inputs": [],
      "name": "ZeroAddress",
      "type": "error"
    },
    {
      "inputs": [],
      "name": "ZeroPoolAddress",
      "type": "error"
    },
    {
      "anonymous": false,
      "inputs": [
        {
          "indexed": true,
          "internalType": "address",
          "name": "token0",
          "type": "address"
        },
        {
          "indexed": true,
          "internalType": "address",
          "name": "token1",
          "type": "address"
        },
        {
          "indexed": false,
          "internalType": "uint256",
          "name": "strike",
          "type": "uint256"
        },
        {
          "indexed": true,
          "internalType": "uint256",
          "name": "maturity",
          "type": "uint256"
        },
        {
          "indexed": false,
          "internalType": "uint24",
          "name": "uniswapV3Fee",
          "type": "uint24"
        },
        {
          "indexed": false,
          "internalType": "address",
          "name": "from",
          "type": "address"
        },
        {
          "indexed": false,
          "internalType": "address",
          "name": "tokenTo",
          "type": "address"
        },
        {
          "indexed": false,
          "internalType": "address",
          "name": "longTo",
          "type": "address"
        },
        {
          "indexed": false,
          "internalType": "bool",
          "name": "isToken0",
          "type": "bool"
        },
        {
          "indexed": false,
          "internalType": "bool",
          "name": "isLong0",
          "type": "bool"
        },
        {
          "indexed": false,
          "internalType": "uint256",
          "name": "tokenAmount",
          "type": "uint256"
        },
        {
          "indexed": false,
          "internalType": "uint256",
          "name": "positionAmount",
          "type": "uint256"
        }
      ],
      "name": "BorrowGivenPrincipal",
      "type": "event"
    },
    {
      "inputs": [
        {
          "components": [
            {
              "internalType": "address",
              "name": "token0",
              "type": "address"
            },
            {
              "internalType": "address",
              "name": "token1",
              "type": "address"
            },
            {
              "internalType": "uint256",
              "name": "strike",
              "type": "uint256"
            },
            {
              "internalType": "uint256",
              "name": "maturity",
              "type": "uint256"
            },
            {
              "internalType": "uint24",
              "name": "uniswapV3Fee",
              "type": "uint24"
            },
            {
              "internalType": "address",
              "name": "tokenTo",
              "type": "address"
            },
            {
              "internalType": "address",
              "name": "longTo",
              "type": "address"
            },
            {
              "internalType": "bool",
              "name": "isToken0",
              "type": "bool"
            },
            {
              "internalType": "bool",
              "name": "isLong0",
              "type": "bool"
            },
            {
              "internalType": "uint256",
              "name": "tokenAmount",
              "type": "uint256"
            },
            {
              "internalType": "uint256",
              "name": "maxPositionAmount",
              "type": "uint256"
            },
            {
              "internalType": "uint256",
              "name": "deadline",
              "type": "uint256"
            }
          ],
          "internalType": "struct TimeswapV2PeripheryUniswapV3BorrowGivenPrincipalParam",
          "name": "param",
          "type": "tuple"
        }
      ],
      "name": "borrowGivenPrincipal",
      "outputs": [
        {
          "internalType": "uint256",
          "name": "positionAmount",
          "type": "uint256"
        }
      ],
      "stateMutability": "payable",
      "type": "function"
    },
    {
      "inputs": [
        {
          "internalType": "bytes[]",
          "name": "data",
          "type": "bytes[]"
        }
      ],
      "name": "multicall",
      "outputs": [
        {
          "internalType": "bytes[]",
          "name": "results",
          "type": "bytes[]"
        }
      ],
      "stateMutability": "payable",
      "type": "function"
    },
    {
      "inputs": [],
      "name": "optionFactory",
      "outputs": [
        {
          "internalType": "address",
          "name": "",
          "type": "address"
        }
      ],
      "stateMutability": "view",
      "type": "function"
    },
    {
      "inputs": [],
      "name": "poolFactory",
      "outputs": [
        {
          "internalType": "address",
          "name": "",
          "type": "address"
        }
      ],
      "stateMutability": "view",
      "type": "function"
    },
    {
      "inputs": [],
      "name": "refundNatives",
      "outputs": [],
      "stateMutability": "payable",
      "type": "function"
    },
    {
      "inputs": [
        {
          "components": [
            {
              "internalType": "uint256",
              "name": "strike",
              "type": "uint256"
            },
            {
              "internalType": "uint256",
              "name": "maturity",
              "type": "uint256"
            },
            {
              "internalType": "uint256",
              "name": "token0AndLong0Amount",
              "type": "uint256"
            },
            {
              "internalType": "uint256",
              "name": "token1AndLong1Amount",
              "type": "uint256"
            },
            {
              "internalType": "uint256",
              "name": "shortAmount",
              "type": "uint256"
            },
            {
              "internalType": "bytes",
              "name": "data",
              "type": "bytes"
            }
          ],
          "internalType": "struct TimeswapV2OptionMintCallbackParam",
          "name": "param",
          "type": "tuple"
        }
      ],
      "name": "timeswapV2OptionMintCallback",
      "outputs": [
        {
          "internalType": "bytes",
          "name": "data",
          "type": "bytes"
        }
      ],
      "stateMutability": "nonpayable",
      "type": "function"
    },
    {
      "inputs": [
        {
          "components": [
            {
              "internalType": "uint256",
              "name": "strike",
              "type": "uint256"
            },
            {
              "internalType": "uint256",
              "name": "maturity",
              "type": "uint256"
            },
            {
              "internalType": "bool",
              "name": "isLong0ToLong1",
              "type": "bool"
            },
            {
              "internalType": "uint256",
              "name": "token0AndLong0Amount",
              "type": "uint256"
            },
            {
              "internalType": "uint256",
              "name": "token1AndLong1Amount",
              "type": "uint256"
            },
            {
              "internalType": "bytes",
              "name": "data",
              "type": "bytes"
            }
          ],
          "internalType": "struct TimeswapV2OptionSwapCallbackParam",
          "name": "param",
          "type": "tuple"
        }
      ],
      "name": "timeswapV2OptionSwapCallback",
      "outputs": [
        {
          "internalType": "bytes",
          "name": "data",
          "type": "bytes"
        }
      ],
      "stateMutability": "nonpayable",
      "type": "function"
    },
    {
      "inputs": [
        {
          "components": [
            {
              "internalType": "uint256",
              "name": "strike",
              "type": "uint256"
            },
            {
              "internalType": "uint256",
              "name": "maturity",
              "type": "uint256"
            },
            {
              "internalType": "uint256",
              "name": "long0Amount",
              "type": "uint256"
            },
            {
              "internalType": "uint256",
              "name": "long1Amount",
              "type": "uint256"
            },
            {
              "internalType": "uint256",
              "name": "shortAmount",
              "type": "uint256"
            },
            {
              "internalType": "bytes",
              "name": "data",
              "type": "bytes"
            }
          ],
          "internalType": "struct TimeswapV2PoolLeverageCallbackParam",
          "name": "param",
          "type": "tuple"
        }
      ],
      "name": "timeswapV2PoolLeverageCallback",
      "outputs": [
        {
          "internalType": "bytes",
          "name": "data",
          "type": "bytes"
        }
      ],
      "stateMutability": "nonpayable",
      "type": "function"
    },
    {
      "inputs": [
        {
          "components": [
            {
              "internalType": "uint256",
              "name": "strike",
              "type": "uint256"
            },
            {
              "internalType": "uint256",
              "name": "maturity",
              "type": "uint256"
            },
            {
              "internalType": "uint256",
              "name": "long0Balance",
              "type": "uint256"
            },
            {
              "internalType": "uint256",
              "name": "long1Balance",
              "type": "uint256"
            },
            {
              "internalType": "uint256",
              "name": "longAmount",
              "type": "uint256"
            },
            {
              "internalType": "uint256",
              "name": "shortAmount",
              "type": "uint256"
            },
            {
              "internalType": "bytes",
              "name": "data",
              "type": "bytes"
            }
          ],
          "internalType": "struct TimeswapV2PoolLeverageChoiceCallbackParam",
          "name": "param",
          "type": "tuple"
        }
      ],
      "name": "timeswapV2PoolLeverageChoiceCallback",
      "outputs": [
        {
          "internalType": "uint256",
          "name": "long0Amount",
          "type": "uint256"
        },
        {
          "internalType": "uint256",
          "name": "long1Amount",
          "type": "uint256"
        },
        {
          "internalType": "bytes",
          "name": "data",
          "type": "bytes"
        }
      ],
      "stateMutability": "view",
      "type": "function"
    },
    {
      "inputs": [
        {
          "components": [
            {
              "internalType": "address",
              "name": "token0",
              "type": "address"
            },
            {
              "internalType": "address",
              "name": "token1",
              "type": "address"
            },
            {
              "internalType": "uint256",
              "name": "strike",
              "type": "uint256"
            },
            {
              "internalType": "uint256",
              "name": "maturity",
              "type": "uint256"
            },
            {
              "internalType": "uint256",
              "name": "long0Amount",
              "type": "uint256"
            },
            {
              "internalType": "uint256",
              "name": "long1Amount",
              "type": "uint256"
            },
            {
              "internalType": "uint256",
              "name": "shortAmount",
              "type": "uint256"
            },
            {
              "internalType": "bytes",
              "name": "data",
              "type": "bytes"
            }
          ],
          "internalType": "struct TimeswapV2TokenMintCallbackParam",
          "name": "param",
          "type": "tuple"
        }
      ],
      "name": "timeswapV2TokenMintCallback",
      "outputs": [
        {
          "internalType": "bytes",
          "name": "data",
          "type": "bytes"
        }
      ],
      "stateMutability": "nonpayable",
      "type": "function"
    },
    {
      "inputs": [],
      "name": "tokens",
      "outputs": [
        {
          "internalType": "address",
          "name": "",
          "type": "address"
        }
      ],
      "stateMutability": "view",
      "type": "function"
    },
    {
      "inputs": [],
      "name": "uniswapV3Factory",
      "outputs": [
        {
          "internalType": "address",
          "name": "",
          "type": "address"
        }
      ],
      "stateMutability": "view",
      "type": "function"
    },
    {
      "inputs": [
        {
          "internalType": "int256",
          "name": "amount0Delta",
          "type": "int256"
        },
        {
          "internalType": "int256",
          "name": "amount1Delta",
          "type": "int256"
        },
        {
          "internalType": "bytes",
          "name": "data",
          "type": "bytes"
        }
      ],
      "name": "uniswapV3SwapCallback",
      "outputs": [],
      "stateMutability": "nonpayable",
      "type": "function"
    },
    {
      "inputs": [
        {
          "internalType": "uint256",
          "name": "amountMinimum",
          "type": "uint256"
        },
        {
          "internalType": "address",
          "name": "recipient",
          "type": "address"
        }
      ],
      "name": "unwrapWrappedNatives",
      "outputs": [],
      "stateMutability": "payable",
      "type": "function"
    },
    {
      "inputs": [],
      "name": "wrappedNativeToken",
      "outputs": [
        {
          "internalType": "address",
          "name": "",
          "type": "address"
        }
      ],
      "stateMutability": "view",
      "type": "function"
    },
    {
      "stateMutability": "payable",
      "type": "receive"
    }
  ],
  "bytecode": "0x6101206040523480156200001257600080fd5b50604051620049cf380380620049cf833981016040819052620000359162000089565b6001600160601b0319606092831b811660805294821b851660a05292811b841660c05290811b831660e0521b1661010052620000f9565b80516001600160a01b03811681146200008457600080fd5b919050565b600080600080600060a08688031215620000a257600080fd5b620000ad866200006c565b9450620000bd602087016200006c565b9350620000cd604087016200006c565b9250620000dd606087016200006c565b9150620000ed608087016200006c565b90509295509295909350565b60805160601c60a05160601c60c05160601c60e05160601c6101005160601c6147e2620001ed6000396000818160fc0152818161015a015281816113ba0152818161147e015281816126ad01526126f30152600081816102b001528181610cd70152818161157e015261183b0152600081816101cc015281816103e601528181610f9c015281816110530152611e28015260008181610304015281816103c501528181610b2f01528181610f7b0152818161103201528181611526015281816118660152611e0701526000818161022d015281816104c001528181611997015281816120bb01526127b901526147e26000f3fe6080604052600436106100ec5760003560e01c80639d63848a1161008a578063dc4a484711610059578063dc4a484714610339578063dfef25d814610359578063e13c022c14610361578063fa461e331461038157600080fd5b80639d63848a1461029e578063ac9650d8146102d2578063b3461c87146102f2578063b7f68a0e1461032657600080fd5b80634a358d65116100c65780634a358d65146101ee5780635b5491821461021b578063797481d01461024f5780638662fa6a1461027e57600080fd5b806317fcb39b146101485780632d780db4146101995780634219dc40146101ba57600080fd5b3661014357336001600160a01b037f000000000000000000000000000000000000000000000000000000000000000016146101415760405163631b2c4f60e11b81523360048201526024015b60405180910390fd5b005b600080fd5b34801561015457600080fd5b5061017c7f000000000000000000000000000000000000000000000000000000000000000081565b6040516001600160a01b0390911681526020015b60405180910390f35b6101ac6101a7366004613533565b6103a1565b604051908152602001610190565b3480156101c657600080fd5b5061017c7f000000000000000000000000000000000000000000000000000000000000000081565b3480156101fa57600080fd5b5061020e610209366004613653565b610aca565b6040516101909190613749565b34801561022757600080fd5b5061017c7f000000000000000000000000000000000000000000000000000000000000000081565b34801561025b57600080fd5b5061026f61026a36600461375c565b610f3f565b60405161019093929190613796565b34801561028a57600080fd5b5061020e6102993660046137c7565b610ffb565b3480156102aa57600080fd5b5061017c7f000000000000000000000000000000000000000000000000000000000000000081565b6102e56102e03660046137fb565b611215565b604051610190919061386f565b3480156102fe57600080fd5b5061017c7f000000000000000000000000000000000000000000000000000000000000000081565b6101416103343660046138e6565b6113a2565b34801561034557600080fd5b5061020e6103543660046137c7565b6114f1565b610141611822565b34801561036d57600080fd5b5061020e61037c366004613916565b611834565b34801561038d57600080fd5b5061014161039c366004613951565b611957565b60004282610160013510156103be576103be826101600135611a4e565b60006104277f00000000000000000000000000000000000000000000000000000000000000007f000000000000000000000000000000000000000000000000000000000000000061041260208701876139d0565b61042260408801602089016139d0565b611a6a565b60408051633a9d71e760e01b8152908601356004820152606086013560248201529092506000915081906001600160a01b03841690633a9d71e790604401604080518083038186803b15801561047c57600080fd5b505afa158015610490573d6000803e3d6000fd5b505050506040513d601f19601f820116820180604052508101906104b491906139ed565b909250905060006105117f00000000000000000000000000000000000000000000000000000000000000006104ec60208901896139d0565b6104fc60408a0160208b016139d0565b61050c60a08b0160808c01613a22565b611b1f565b905060008080808061052660208c018c6139d0565b61053660408d0160208e016139d0565b61054660a08e0160808f01613a22565b604080516001600160a01b039485166020820152939092169183019190915262ffffff1660608201526080016040516020818303038152906040529050600081604051602001610597929190613a3f565b60408051601f1981840301815291905290506105ba6101008c0160e08d01613a68565b6105c457876105c6565b865b156106c7576106236040518060a001604052808d60e00160208101906105ec9190613a68565b158152600060208201526101208e01356040808301919091528e013560608201526080018390526001600160a01b03881690611b49565b90935091506106396101008c0160e08d01613a68565b6106435787610645565b865b8311156106c7576106c16040518060a001604052808d60e001602081019061066d9190613a68565b15151581526020016001975087151581526020018d60e00160208101906106949190613a68565b61069e578a6106a0565b895b81526040808f01356020830152018390526001600160a01b03881690611b49565b90935091505b6106d86101008c0160e08d01613a68565b6106e257866106e4565b875b6106f3836101208e0135613a9b565b111561078b576001935060006040518060a001604052808d60e001602081019061071d9190613a68565b15151581526020016000975087151581526020018d60e00160208101906107449190613a68565b61074e5789610750565b8a5b8e61012001356107609190613a9b565b81526000602082015260400183905290506107846001600160a01b03881682611b49565b9094509250505b3361079c60a08d0160808e01613a22565b6107ac60c08e0160a08f016139d0565b8d60e00160208101906107bf9190613a68565b604080516001600160a01b03958616602082015262ffffff9094169084015292166060820152901515608082015285151560a082015284151560c082015260e081018390526101000160408051601f1981840301815261014083019091529150610977908061083160208f018f6139d0565b6001600160a01b031681526020018d602001602081019061085291906139d0565b6001600160a01b031681526020018d6040013581526020018d6060013581526020018d6101000160208101906108889190613a68565b15158e60e001602081019061089d9190613a68565b1515146108bc578d60a00160208101906108b791906139d0565b6108be565b305b6001600160a01b031681526020018d60c00160208101906108df91906139d0565b6001600160a01b031681526020018d6101000160208101906109019190613a68565b151581526020018d60e001602081019061091b9190613a68565b6109255785610936565b848e61012001356109369190613a9b565b81526020018d60e001602081019061094e9190613a68565b61096857848e61012001356109639190613a9b565b61096a565b855b8152602001839052611dfc565b50809a50505050505050505050508161014001358111156109b957604051633d14758360e11b8152600481018290526101408301356024820152604401610138565b60608201356109ce60408401602085016139d0565b6001600160a01b03166109e460208501856139d0565b6001600160a01b03167f319869ce99e1a1f0954078ca235aeb1867c1a21d61430b7ff0951b503488e80a6040860135610a2360a0880160808901613a22565b33610a3460c08a0160a08b016139d0565b610a4460e08b0160c08c016139d0565b610a556101008c0160e08d01613a68565b610a676101208d016101008e01613a68565b6040805197885262ffffff9690961660208801526001600160a01b039485168787015292841660608701529216608085015290151560a0840152151560c08301526101208881013560e084015261010083018890529051918290030190a4919050565b6040805160e08101825260008082526020820181905291810182905260608181018390526080820183905260a0820183905260c08201929092528260a00151806020019051810190610b1c9190613b12565b81516020830151919450919250610b54917f000000000000000000000000000000000000000000000000000000000000000091611fa5565b8060800151610b67578260600151610b6d565b82604001515b8160c001818151610b7e9190613bdc565b90525060a081015115610cd5578051602082015160608301516080840151610baa578560600151610bb0565b85604001515b8460c0015186604051602001610bcb96959493929190613bf4565b60408051601f19818403018152610100830182528551835260208681015190840152838201516001600160a01b03169183019190915230606083015260808084018051159184019190915251909350339163b084c2529160a0820190610c32576000610c35565b60015b6001811115610c4657610c46613c42565b81526020018460a001518152602001858152506040518263ffffffff1660e01b8152600401610c759190613c6c565b600060405180830381600087803b158015610c8f57600080fd5b505af1158015610ca3573d6000803e3d6000fd5b505050506040513d6000823e601f3d908101601f19168201604052610ccb9190810190613cf2565b9350610f39915050565b7f00000000000000000000000000000000000000000000000000000000000000006001600160a01b0316634fd991ea60405180610160016040528084600001516001600160a01b0316815260200184602001516001600160a01b0316815260200186600001518152602001866020015181526020018460800151610d595730610d5f565b84606001515b6001600160a01b031681526020018460800151610d80578460600151610d82565b305b6001600160a01b03168152602001306001600160a01b031681526020018460800151610daf576000610db5565b8460c001515b81526020018460800151610dcd578460c00151610dd0565b60005b815260200160008152602001604051806020016040528060008152508152506040518263ffffffff1660e01b8152600401610e0b9190613d41565b600060405180830381600087803b158015610e2557600080fd5b505af1158015610e39573d6000803e3d6000fd5b505050506040513d6000823e601f3d908101601f19168201604052610e619190810190613e12565b50610f0e604051806101400160405280336001600160a01b0316815260200183600001516001600160a01b0316815260200183602001516001600160a01b0316815260200185600001518152602001856020015181526020018360800151151581526020018360800151610ed6576000610edc565b85604001515b81526020018360800151610ef4578560600151610ef7565b60005b815260c0840151602082015260400184905261205b565b91508060c0015182604051602001610f27929190613e46565b60405160208183030381529060405291505b50919050565b60008060608180808080610f5660c08a018a613e5f565b810190610f639190613eac565b919e509c509a50939850919650945092509050610fc27f00000000000000000000000000000000000000000000000000000000000000007f0000000000000000000000000000000000000000000000000000000000000000878761237f565b5084848484848a604051602001610fde96959493929190613f59565b604051602081830303815290604052955050505050509193909250565b606060008080808061101060a0880188613e5f565b81019061101d9190613f9d565b9a5093985091965094509250905060006110797f00000000000000000000000000000000000000000000000000000000000000007f0000000000000000000000000000000000000000000000000000000000000000888861237f565b90506040518060e00160405280876001600160a01b03168152602001866001600160a01b03168152602001856001600160a01b03168152602001846001600160a01b031681526020018315158152602001836110d95789604001356110df565b89606001355b8152602001836110f35789606001356110f9565b89604001355b905260405161110d91908990602001614035565b60408051601f19818403018152610120830182528a35835260208b8101359084015230918301829052606083019190915233608083015297506001600160a01b038216906380e066799060a08101600181526020018561116e576000611174565b8b608001355b815260200185611188578b6080013561118b565b60005b81526020018a8152506040518263ffffffff1660e01b81526004016111b0919061409e565b600060405180830381600087803b1580156111ca57600080fd5b505af11580156111de573d6000803e3d6000fd5b505050506040513d6000823e601f3d908101601f191682016040526112069190810190614140565b9b9a5050505050505050505050565b6060816001600160401b0381111561122f5761122f613546565b60405190808252806020026020018201604052801561126257816020015b606081526020019060019003908161124d5790505b50905060005b8281101561139b576000803086868581811061128657611286614199565b90506020028101906112989190613e5f565b6040516112a69291906141af565b600060405180830381855af49150503d80600081146112e1576040519150601f19603f3d011682016040523d82523d6000602084013e6112e6565b606091505b5091509150816113685760448151101561133457604051635d2f436f60e11b815260206004820152600e60248201526d125b9d985b1a590814995cdd5b1d60921b6044820152606401610138565b6004810190508080602001905181019061134e91906141bf565b604051635d2f436f60e11b81526004016101389190613749565b8084848151811061137b5761137b614199565b60200260200101819052505050808061139390614207565b915050611268565b5092915050565b6040516370a0823160e01b81523060048201526000907f00000000000000000000000000000000000000000000000000000000000000006001600160a01b0316906370a082319060240160206040518083038186803b15801561140457600080fd5b505afa158015611418573d6000803e3d6000fd5b505050506040513d601f19601f8201168201806040525081019061143c9190614222565b90508281101561146257604051636b8c4dab60e01b815260048101829052602401610138565b80156114ec57604051632e1a7d4d60e01b8152600481018290527f00000000000000000000000000000000000000000000000000000000000000006001600160a01b031690632e1a7d4d90602401600060405180830381600087803b1580156114ca57600080fd5b505af11580156114de573d6000803e3d6000fd5b505050506114ec82826124b7565b505050565b606060008080808061150660a0880188613e5f565b810190611513919061423b565b9a5093985091965094509250905061154c7f00000000000000000000000000000000000000000000000000000000000000008686611fa5565b61155c6060880160408901613a68565b61156a578660600135611570565b86608001355b61157a9082613bdc565b90507f00000000000000000000000000000000000000000000000000000000000000006001600160a01b0316634fd991ea604051806101600160405280886001600160a01b03168152602001876001600160a01b031681526020018a6000013581526020018a6020013581526020018a60400160208101906115fc9190613a68565b6116065786611608565b305b6001600160a01b0316815260200161162660608c0160408d01613a68565b6116305730611632565b865b6001600160a01b031681523060208201526040908101906116599060608d01908d01613a68565b6116635784611666565b60005b815260200161167b60608c0160408d01613a68565b611686576000611688565b845b815260200160008152602001604051806020016040528060008152508152506040518263ffffffff1660e01b81526004016116c39190613d41565b600060405180830381600087803b1580156116dd57600080fd5b505af11580156116f1573d6000803e3d6000fd5b505050506040513d6000823e601f3d908101601f191682016040526117199190810190613e12565b506117f2604051806101400160405280336001600160a01b03168152602001876001600160a01b03168152602001866001600160a01b03168152602001896000013581526020018960200135815260200189604001602081019061177d9190613a68565b15815260200161179360608b0160408c01613a68565b61179d57846117a0565b60005b6117ae9060608c0135613bdc565b81526020016117c360608b0160408c01613a68565b6117ce5760006117d0565b845b6117de9060808c0135613bdc565b81526020018381526020018881525061205b565b95508086604051602001611807929190613e46565b60405160208183030381529060405295505050505050919050565b47156118325761183233476124b7565b565b606061185f7f0000000000000000000000000000000000000000000000000000000000000000612557565b60006118a77f000000000000000000000000000000000000000000000000000000000000000061189260208601866139d0565b6118a260408701602088016139d0565b612583565b90506001600160a01b03811663b2ceca77604085013560608601353360808801356118d35760016118d6565b60005b60808901356118e9578860a001356118ef565b88608001355b6040518663ffffffff1660e01b815260040161190f9594939291906142a8565b600060405180830381600087803b15801561192957600080fd5b505af115801561193d573d6000803e3d6000fd5b505060408051602081019091526000815295945050505050565b600080611966838501856142e8565b915091508115611a3b576000806000808480602001905181019061198a919061432d565b93509350935093506119be7f0000000000000000000000000000000000000000000000000000000000000000848484612608565b6001600160a01b038416301415611a0857611a033360008c136119e1578a6119e3565b8b5b60008d136119f157846119f3565b855b6001600160a01b03169190612648565b611a32565b611a3260008b13611a195782611a1b565b835b853360008e13611a2b578c6126ab565b8d5b6126ab565b50505050611a46565b611a46868683612795565b505050505050565b60405163070b57d960e41b815260048101829052602401610138565b600080611a816001600160a01b03871685856127ea565b6040516330af0bbf60e21b81526001600160a01b0380831660048301529193509086169063c2bc2efc9060240160206040518083038186803b158015611ac657600080fd5b505afa158015611ada573d6000803e3d6000fd5b505050506040513d601f19601f82011682018060405250810190611afe919061438c565b90506001600160a01b038116611b1657611b16612816565b94509492505050565b6000611b2d8585858561282f565b9050611b41816001600160a01b03166128c8565b949350505050565b6000806000846001600160a01b0316633850c7bd6040518163ffffffff1660e01b815260040160e06040518083038186803b158015611b8757600080fd5b505afa158015611b9b573d6000803e3d6000fd5b505050506040513d601f19601f82011682018060405250810190611bbf91906143bb565b50505050505090506000846060015160001415611c10578451611c0057611bfb600173fffd8963efd1fc6a506488495d951d5263988d2661445a565b611c1d565b611bfb6401000276a36001614482565b611c1d85606001516128ef565b90506401000276a36001600160a01b03821611611c4757611c446401000276a36001614482565b90505b73fffd8963efd1fc6a506488495d951d5263988d266001600160a01b03821610611c8d57611c8a600173fffd8963efd1fc6a506488495d951d5263988d2661445a565b90505b8451611cad57816001600160a01b0316816001600160a01b031611611cc3565b816001600160a01b0316816001600160a01b0316105b15611df357600080876001600160a01b031663128acb083089600001518a60200151611d0457611cf68b60400151612945565b611cff906144ad565b611d11565b611d118b60400151612945565b878c608001516040518663ffffffff1660e01b8152600401611d379594939291906144ca565b6040805180830381600087803b158015611d5057600080fd5b505af1925050508015611d80575060408051601f3d908101601f19168201909252611d7d918101906139ed565b60015b611dc9573d808015611dae576040519150601f19603f3d011682016040523d82523d6000602084013e611db3565b606091505b50611dbd8161295b565b9093509150611dcc9050565b50505b8651611de15780611ddc836144ad565b611deb565b81611deb826144ad565b909650945050505b50509250929050565b600060606000611e567f00000000000000000000000000000000000000000000000000000000000000007f000000000000000000000000000000000000000000000000000000000000000086600001518760200151611a6a565b9150508360000151846020015185608001518660a001518760c001518860e001518961010001518a6101200151604051602001611e9a989796959493929190614505565b60408051601f1981840301815260e08301825286820151835260608088015160208501523092840183905283019190915292506001600160a01b0382169063e0260d11906080810160018152602001611f038860e001518961010001518a60400151600161298b565b8152602001858152506040518263ffffffff1660e01b8152600401611f289190614558565b600060405180830381600087803b158015611f4257600080fd5b505af1158015611f56573d6000803e3d6000fd5b505050506040513d6000823e601f3d908101601f19168201604052611f7e9190810190614140565b8051909550611f9a9350850160209081019250850190506145d0565b909590945092505050565b60405163d81e842360e01b81526001600160a01b03838116600483015282811660248301526000919085169063d81e84239060440160206040518083038186803b158015611ff257600080fd5b505afa158015612006573d6000803e3d6000fd5b505050506040513d601f19601f8201168201806040525081019061202a919061438c565b90506001600160a01b03811633146120555760405163a5fbb7d960e01b815260040160405180910390fd5b50505050565b606060008060008060008060008861012001518060200190518101906120819190614600565b96509650965096509650965096508261209a57806120af565b836120a9578860c001516120af565b8860e001515b1561221e5760006120ea7f00000000000000000000000000000000000000000000000000000000000000008b602001518c604001518a61282f565b90508960a001511515851515146121015787612103565b305b60208b8101516040808e015181516001600160a01b03958616948101949094529184169083015291909116606082015262ffffff8816608082015260a0016040516020818303038152906040529850600189604051602001612166929190613a3f565b60405160208183030381529060405298506122086040518060c001604052808c60a0015115158815151461219a578861219c565b305b6001600160a01b03168152871560208201528615156040820152606001866121c457846121d9565b876121d3578c60c001516121d9565b8c60e001515b8152602001856121ed578c606001516121f0565b60005b81526020018b90526001600160a01b038316906129ce565b6040805160208101909152600081529a50925050505b8860a001511515841515141561233457808960a00151612242578960e00151612248565b8960c001515b11156122905761228b8960a0015161226457896040015161226a565b89602001515b8830611a2d858e60a00151612282578e60e001510390565b8e60c001510390565b6122fc565b808960a001516122a4578960e001516122aa565b8960c001515b10156122fc576122fc856122d48b60a001516122ca578b60e00151840390565b8b60c00151840390565b8b60a001516122e7578b604001516119f3565b8b602001516001600160a01b03169190612648565b61232f89600001518a60a00151612317578a60e001516122d4565b8a60c001518b60a001516122e7578b604001516119f3565b612373565b6123738960a0015161234a578960400151612350565b89602001515b888b600001518c60a00151612369578c60e001516126ab565b8c60c001516126ab565b50505050505050919050565b60405163d81e842360e01b81526001600160a01b03838116600483015282811660248301526000919086169063d81e84239060440160206040518083038186803b1580156123cc57600080fd5b505afa1580156123e0573d6000803e3d6000fd5b505050506040513d601f19601f82011682018060405250810190612404919061438c565b6040516330af0bbf60e21b81526001600160a01b03808316600483015291925060009186169063c2bc2efc9060240160206040518083038186803b15801561244b57600080fd5b505afa15801561245f573d6000803e3d6000fd5b505050506040513d601f19601f82011682018060405250810190612483919061438c565b90506001600160a01b03811633146124ae5760405163863b47e760e01b815260040160405180910390fd5b50949350505050565b604080516000808252602082019092526001600160a01b0384169083906040516124e19190614692565b60006040518083038185875af1925050503d806000811461251e576040519150601f19603f3d011682016040523d82523d6000602084013e612523565b606091505b50509050806114ec5760405163296c17bb60e21b81526001600160a01b038416600482015260248101839052604401610138565b6001600160a01b03811633146125805760405163d2bc8fc960e01b815260040160405180910390fd5b50565b60405163d81e842360e01b81526001600160a01b03838116600483015282811660248301526000919085169063d81e84239060440160206040518083038186803b1580156125d057600080fd5b505afa1580156125e4573d6000803e3d6000fd5b505050506040513d601f19601f82011682018060405250810190611b41919061438c565b60006126168585858561282f565b90506001600160a01b0381163314612641576040516307c1698f60e01b815260040160405180910390fd5b5050505050565b6040516001600160a01b0383166024820152604481018290526114ec90849063a9059cbb60e01b906064015b60408051601f198184030181529190526020810180516001600160e01b03166001600160e01b031990931692909217909152612c2e565b7f00000000000000000000000000000000000000000000000000000000000000006001600160a01b0316846001600160a01b03161480156126ec5750804710155b15612780577f00000000000000000000000000000000000000000000000000000000000000006001600160a01b031663d0e30db0826040518263ffffffff1660e01b81526004016000604051808303818588803b15801561274c57600080fd5b505af1158015612760573d6000803e3d6000fd5b5061277b935050506001600160a01b03861690508383612648565b612055565b6120556001600160a01b038516848484612d00565b6000806000838060200190518101906127ae91906146ae565b9250925092506127e07f0000000000000000000000000000000000000000000000000000000000000000848484612608565b611a468686612d38565b60006127f7848484612583565b90506001600160a01b03811661280f5761280f612816565b9392505050565b60405163d92e233d60e01b815260040160405180910390fd5b604051630b4c774160e11b81526001600160a01b038481166004830152838116602483015262ffffff8316604483015260009190861690631698ee829060640160206040518083038186803b15801561288757600080fd5b505afa15801561289b573d6000803e3d6000fd5b505050506040513d601f19601f820116820180604052508101906128bf919061438c565b95945050505050565b6001600160a01b0381166125805760405163037064f160e01b815260040160405180910390fd5b60006001600160c01b03821161291c57612916612911604084901b6000612d5b565b612dd9565b92915050565b6000806129328468010000000000000000612e03565b91509150611b4161291183836000612e22565b6000600160ff1b821061295757600080fd5b5090565b60008061296f836377760aaf60e11b612eb0565b80602001905181019061298291906139ed565b91509150915091565b60006001600160801b0383116129b7576129a88584600185612f1e565b6129b29085613bdc565b6128bf565b6129c48484600085612f1e565b6128bf9086613bdc565b6000806000846001600160a01b0316633850c7bd6040518163ffffffff1660e01b815260040160e06040518083038186803b158015612a0c57600080fd5b505afa158015612a20573d6000803e3d6000fd5b505050506040513d601f19601f82011682018060405250810190612a4491906143bb565b50505050505090506000846080015160001415612a98578460200151612a8857612a83600173fffd8963efd1fc6a506488495d951d5263988d2661445a565b612aa5565b612a836401000276a36001614482565b612aa585608001516128ef565b90506401000276a36001600160a01b03821611612acf57612acc6401000276a36001614482565b90505b73fffd8963efd1fc6a506488495d951d5263988d266001600160a01b03821610612b1557612b12600173fffd8963efd1fc6a506488495d951d5263988d2661445a565b90505b8460200151612b3857806001600160a01b0316826001600160a01b031610612b4e565b806001600160a01b0316826001600160a01b0316115b15611df357600080876001600160a01b031663128acb08886000015189602001518a60400151612b9357612b858b60600151612945565b612b8e906144ad565b612ba0565b612ba08b60600151612945565b878c60a001516040518663ffffffff1660e01b8152600401612bc69594939291906144ca565b6040805180830381600087803b158015612bdf57600080fd5b505af1158015612bf3573d6000803e3d6000fd5b505050506040513d601f19601f82011682018060405250810190612c1791906139ed565b915091508660200151611de15780611ddc836144ad565b6000612c83826040518060400160405280602081526020017f5361666545524332303a206c6f772d6c6576656c2063616c6c206661696c6564815250856001600160a01b0316612f459092919063ffffffff16565b8051909150156114ec5780806020019051810190612ca191906146fb565b6114ec5760405162461bcd60e51b815260206004820152602a60248201527f5361666545524332303a204552433230206f7065726174696f6e20646964206e6044820152691bdd081cdd58d8d9595960b21b6064820152608401610138565b6040516001600160a01b03808516602483015283166044820152606481018290526120559085906323b872dd60e01b90608401612674565b6040516377760aaf60e11b81526004810183905260248101829052604401610138565b6000600019831415612d7557506001600160801b03612916565b82612d8257506000612916565b50816001818101901c5b81811015612db457809150600181828681612da957612da9614718565b0401901c9050612d8c565b50818015612dca575082612dc8828061472e565b105b156129165780611b4181614207565b60006001600160a01b0382111561295757604051630ba006e160e41b815260040160405180910390fd5b6000806000198385098385029250828110838203039150509250929050565b600082612e3a57612e338483612d5b565b905061280f565b6000612e498585600019612f54565b905060001991505b81811015612e6e57809150612e67858583612f54565b9050612e51565b8215612ea857600080612e818485612e03565b9150915080861180612e9257508187115b15612ea55783612ea181614207565b9450505b50505b509392505050565b81516060906020612ec2600483613a9b565b612ecc919061474d565b158015612ef457506001600160e01b03198316612ee885614761565b6001600160e01b031916145b15612f1657612f0e846004612f098185613a9b565b612f93565b915050612916565b835184602001fd5b600082612f35576129b285600160801b868561309f565b6128bf8585600160801b8561309f565b6060611b41848460008561319b565b600080612f6485858560006132cc565b90506000612f76826000866000613351565b9092509050612f898282600260006132cc565b9695505050505050565b606081612fa181601f613bdc565b1015612fe05760405162461bcd60e51b815260206004820152600e60248201526d736c6963655f6f766572666c6f7760901b6044820152606401610138565b612fea8284613bdc565b8451101561302e5760405162461bcd60e51b8152602060048201526011602482015270736c6963655f6f75744f66426f756e647360781b6044820152606401610138565b60608215801561304d57604051915060008252602082016040526124ae565b6040519150601f8416801560200281840101858101878315602002848b0101015b8183101561308657805183526020928301920161306e565b5050858452601f01601f19166040525050949350505050565b60008060006130ae8787612e03565b9150915080600014156130cf576130c68286866133c2565b92505050611b41565b8085116131005760405163362ced0960e11b8152600481018890526024810187905260448101869052606401610138565b600085878909600087810388169788900497600260038a028118808b02820302808b02820302808b02820302808b02820302808b02820302808b0290910302918190038190046001018684119095039485029290950394909404179283029350849050801561317e5750848061317857613178614718565b86880915155b15613191578261318d81614207565b9350505b5050949350505050565b6060824710156131fc5760405162461bcd60e51b815260206004820152602660248201527f416464726573733a20696e73756666696369656e742062616c616e636520666f6044820152651c8818d85b1b60d21b6064820152608401610138565b6001600160a01b0385163b6132535760405162461bcd60e51b815260206004820152601d60248201527f416464726573733a2063616c6c20746f206e6f6e2d636f6e74726163740000006044820152606401610138565b600080866001600160a01b0316858760405161326f9190614692565b60006040518083038185875af1925050503d80600081146132ac576040519150601f19603f3d011682016040523d82523d6000602084013e6132b1565b606091505b50915091506132c18282866133f4565b979650505050505050565b6000806132da86868661342d565b9092509050801561330f57604051636aa917ab60e01b8152600481018790526024810186905260448101859052606401610138565b82156124ae576000806133228487612e03565b915091508087118061333357508188115b15613346578361334281614207565b9450505b505050949350505050565b818401848110828501810190801561337e578115806133795750613376600183613a9b565b86115b613382565b8186115b156133b8576040516347b1893f60e01b815260048101889052602481018790526044810186905260648101859052608401610138565b5094509492505050565b60006133ce8385614798565b90508180156133e557506133e2838561474d565b15155b1561280f57806128bf81614207565b6060831561340357508161280f565b8251156134135782518084602001fd5b8160405162461bcd60e51b81526004016101389190613749565b6000808361344857613441858460006133c2565b91506134d4565b6000613453846134dc565b9050600061346085613509565b90505b85156134b4576000806134768885612e03565b9150915061348686868484613351565b90965094506134958884612e03565b90925090506134a782828b6000613351565b9099509750613463915050565b6134cc84846134c58a8960006133c2565b6000613351565b909450925050505b935093915050565b6000816134fc576040516301de42a960e41b815260040160405180910390fd5b5060008190030460010190565b600081613529576040516319dbad9f60e01b815260040160405180910390fd5b5060008190030690565b60006101808284031215610f3957600080fd5b634e487b7160e01b600052604160045260246000fd5b60405160c081016001600160401b038111828210171561357e5761357e613546565b60405290565b60405160e081016001600160401b038111828210171561357e5761357e613546565b604051601f8201601f191681016001600160401b03811182821017156135ce576135ce613546565b604052919050565b60006001600160401b038211156135ef576135ef613546565b50601f01601f191660200190565b600082601f83011261360e57600080fd5b813561362161361c826135d6565b6135a6565b81815284602083860101111561363657600080fd5b816020850160208301376000918101602001919091529392505050565b60006020828403121561366557600080fd5b81356001600160401b038082111561367c57600080fd5b9083019060c0828603121561369057600080fd5b61369861355c565b823581526020830135602082015260408301356040820152606083013560608201526080830135608082015260a0830135828111156136d657600080fd5b6136e2878286016135fd565b60a08301525095945050505050565b60005b8381101561370c5781810151838201526020016136f4565b838111156120555750506000910152565b600081518084526137358160208601602086016136f1565b601f01601f19169290920160200192915050565b60208152600061280f602083018461371d565b60006020828403121561376e57600080fd5b81356001600160401b0381111561378457600080fd5b820160e0818503121561280f57600080fd5b8381528260208201526060604082015260006128bf606083018461371d565b600060c08284031215610f3957600080fd5b6000602082840312156137d957600080fd5b81356001600160401b038111156137ef57600080fd5b611b41848285016137b5565b6000806020838503121561380e57600080fd5b82356001600160401b038082111561382557600080fd5b818501915085601f83011261383957600080fd5b81358181111561384857600080fd5b8660208260051b850101111561385d57600080fd5b60209290920196919550909350505050565b6000602080830181845280855180835260408601915060408160051b870101925083870160005b828110156138c457603f198886030184526138b285835161371d565b94509285019290850190600101613896565b5092979650505050505050565b6001600160a01b038116811461258057600080fd5b600080604083850312156138f957600080fd5b82359150602083013561390b816138d1565b809150509250929050565b60006020828403121561392857600080fd5b81356001600160401b0381111561393e57600080fd5b8201610100818503121561280f57600080fd5b6000806000806060858703121561396757600080fd5b843593506020850135925060408501356001600160401b038082111561398c57600080fd5b818701915087601f8301126139a057600080fd5b8135818111156139af57600080fd5b8860208285010111156139c157600080fd5b95989497505060200194505050565b6000602082840312156139e257600080fd5b813561280f816138d1565b60008060408385031215613a0057600080fd5b505080516020909101519092909150565b62ffffff8116811461258057600080fd5b600060208284031215613a3457600080fd5b813561280f81613a11565b8215158152604060208201526000611b41604083018461371d565b801515811461258057600080fd5b600060208284031215613a7a57600080fd5b813561280f81613a5a565b634e487b7160e01b600052601160045260246000fd5b600082821015613aad57613aad613a85565b500390565b8051613abd81613a5a565b919050565b6000613ad061361c846135d6565b9050828152838383011115613ae457600080fd5b61280f8360208301846136f1565b600082601f830112613b0357600080fd5b61280f83835160208501613ac2565b600080828403610100811215613b2757600080fd5b60e0811215613b3557600080fd5b50613b3e613584565b8351613b49816138d1565b81526020840151613b59816138d1565b60208201526040840151613b6c816138d1565b60408201526060840151613b7f816138d1565b6060820152613b9060808501613ab2565b608082015260a084015160a082015260c084015160c08201528092505060e08301516001600160401b03811115613bc657600080fd5b613bd285828601613af2565b9150509250929050565b60008219821115613bef57613bef613a85565b500190565b6001600160a01b038781168252868116602083015285166040820152606081018490526080810183905260c060a08201819052600090613c369083018461371d565b98975050505050505050565b634e487b7160e01b600052602160045260246000fd5b60028110613c6857613c68613c42565b9052565b6020815281516020820152602082015160408201526000604083015160018060a01b03808216606085015280606086015116608085015250506080830151613cb860a084018215159052565b5060a0830151613ccb60c0840182613c58565b5060c083015160e083015260e0830151610100808185015250611b4161012084018261371d565b600080600060608486031215613d0757600080fd5b835192506020840151915060408401516001600160401b03811115613d2b57600080fd5b613d3786828701613af2565b9150509250925092565b60208152613d5b6020820183516001600160a01b03169052565b60006020830151613d7760408401826001600160a01b03169052565b5060408301516060830152606083015160808301526080830151613da660a08401826001600160a01b03169052565b5060a08301516001600160a01b03811660c08401525060c08301516001600160a01b03811660e08401525060e083015161010083810191909152830151610120808401919091528301516101408084019190915283015161016080840152611b4161018084018261371d565b600060208284031215613e2457600080fd5b81516001600160401b03811115613e3a57600080fd5b611b4184828501613af2565b828152604060208201526000611b41604083018461371d565b6000808335601e19843603018112613e7657600080fd5b8301803591506001600160401b03821115613e9057600080fd5b602001915036819003821315613ea557600080fd5b9250929050565b600080600080600080600080610100898b031215613ec957600080fd5b8835613ed4816138d1565b97506020890135613ee4816138d1565b96506040890135613ef4816138d1565b95506060890135613f04816138d1565b94506080890135613f1481613a5a565b935060a0890135925060c0890135915060e08901356001600160401b03811115613f3d57600080fd5b613f498b828c016135fd565b9150509295985092959890939650565b6001600160a01b0387811682528681166020830152858116604083015284166060820152821515608082015260c060a08201819052600090613c369083018461371d565b60008060008060008060c08789031215613fb657600080fd5b8635613fc1816138d1565b95506020870135613fd1816138d1565b94506040870135613fe1816138d1565b93506060870135613ff1816138d1565b9250608087013561400181613a5a565b915060a08701356001600160401b0381111561401c57600080fd5b61402889828a016135fd565b9150509295509295509295565b600061010060018060a01b038086511684528060208701511660208501528060408701511660408501528060608701511660608501525060808501511515608084015260a085015160a084015260c085015160c08401528060e08401526128bf8184018561371d565b602081528151602082015260208201516040820152600060408301516140cf60608401826001600160a01b03169052565b5060608301516001600160a01b03811660808401525060808301516001600160a01b03811660a08401525060a083015161410c60c0840182613c58565b5060c083015160e0838101919091528301516101008084019190915283015161012080840152611b4161014084018261371d565b6000806000806080858703121561415657600080fd5b84519350602085015192506040850151915060608501516001600160401b0381111561418157600080fd5b61418d87828801613af2565b91505092959194509250565b634e487b7160e01b600052603260045260246000fd5b8183823760009101908152919050565b6000602082840312156141d157600080fd5b81516001600160401b038111156141e757600080fd5b8201601f810184136141f857600080fd5b611b4184825160208401613ac2565b600060001982141561421b5761421b613a85565b5060010190565b60006020828403121561423457600080fd5b5051919050565b60008060008060008060c0878903121561425457600080fd5b863561425f816138d1565b9550602087013561426f816138d1565b9450604087013561427f816138d1565b9350606087013592506080870135915060a08701356001600160401b0381111561401c57600080fd5b858152602081018590526001600160a01b038416604082015260a08101600384106142d5576142d5613c42565b6060820193909352608001529392505050565b600080604083850312156142fb57600080fd5b823561430681613a5a565b915060208301356001600160401b0381111561432157600080fd5b613bd2858286016135fd565b6000806000806080858703121561434357600080fd5b845161434e816138d1565b602086015190945061435f816138d1565b6040860151909350614370816138d1565b606086015190925061438181613a11565b939692955090935050565b60006020828403121561439e57600080fd5b815161280f816138d1565b805161ffff81168114613abd57600080fd5b600080600080600080600060e0888a0312156143d657600080fd5b87516143e1816138d1565b8097505060208801518060020b81146143f957600080fd5b9550614407604089016143a9565b9450614415606089016143a9565b9350614423608089016143a9565b925060a088015160ff8116811461443957600080fd5b60c089015190925061444a81613a5a565b8091505092959891949750929550565b60006001600160a01b038381169083168181101561447a5761447a613a85565b039392505050565b60006001600160a01b038281168482168083038211156144a4576144a4613a85565b01949350505050565b6000600160ff1b8214156144c3576144c3613a85565b5060000390565b6001600160a01b0386811682528515156020830152604082018590528316606082015260a0608082018190526000906132c19083018461371d565b6001600160a01b0389811682528881166020830152878116604083015286166060820152841515608082015260a0810184905260c0810183905261010060e082018190526000906112068382018561371d565b6020815281516020820152602082015160408201526000604083015160018060a01b03808216606085015280606086015116608085015250506080830151600481106145a6576145a6613c42565b8060a08401525060a083015160c083015260c083015160e080840152611b4161010084018261371d565b600080604083850312156145e357600080fd5b8251915060208301516001600160401b03811115613bc657600080fd5b600080600080600080600060e0888a03121561461b57600080fd5b8751614626816138d1565b602089015190975061463781613a11565b6040890151909650614648816138d1565b606089015190955061465981613a5a565b608089015190945061466a81613a5a565b60a089015190935061467b81613a5a565b8092505060c0880151905092959891949750929550565b600082516146a48184602087016136f1565b9190910192915050565b6000806000606084860312156146c357600080fd5b83516146ce816138d1565b60208501519093506146df816138d1565b60408501519092506146f081613a11565b809150509250925092565b60006020828403121561470d57600080fd5b815161280f81613a5a565b634e487b7160e01b600052601260045260246000fd5b600081600019048311821515161561474857614748613a85565b500290565b60008261475c5761475c614718565b500690565b805160208201516001600160e01b031980821692919060048310156147905780818460040360031b1b83161693505b505050919050565b6000826147a7576147a7614718565b50049056fea26469706673582212207e340c5d07de4a2f4d50a93036b1b11ee50099351f121629cca1b1c9e229efd964736f6c63430008080033",
  "linkReferences": {},
  "deployedLinkReferences": {}
}