{
  "_format": "hh-sol-artifact-1",
  "contractName": "TimeswapV2PeripheryUniswapV3CloseLendGivenPosition",
  "sourceName": "@timeswap-labs/v2-periphery-uniswapV3/contracts/TimeswapV2PeripheryUniswapV3CloseLendGivenPosition.sol",
  "abi": [
    {
      "inputs": [
        {
          "internalType": "address",
          "name": "chosenOptionFactory",
          "type": "address"
        },
        {
          "internalType": "address",
          "name": "chosenPoolFactory",
          "type": "address"
        },
        {
          "internalType": "address",
          "name": "chosenTokens",
          "type": "address"
        },
        {
          "internalType": "address",
          "name": "chosenUniswapV3Factory",
          "type": "address"
        },
        {
          "internalType": "address",
          "name": "chosenNative",
          "type": "address"
        }
      ],
      "stateMutability": "nonpayable",
      "type": "constructor"
    },
    {
      "inputs": [
        {
          "internalType": "uint256",
          "name": "addendA0",
          "type": "uint256"
        },
        {
          "internalType": "uint256",
          "name": "addendA1",
          "type": "uint256"
        },
        {
          "internalType": "uint256",
          "name": "addendB0",
          "type": "uint256"
        },
        {
          "internalType": "uint256",
          "name": "addendB1",
          "type": "uint256"
        }
      ],
      "name": "AddOverflow",
      "type": "error"
    },
    {
      "inputs": [
        {
          "internalType": "address",
          "name": "from",
          "type": "address"
        }
      ],
      "name": "CallerNotWrappedNative",
      "type": "error"
    },
    {
      "inputs": [],
      "name": "CanOnlyBeCalledByPoolContract",
      "type": "error"
    },
    {
      "inputs": [],
      "name": "CanOnlyBeCalledByUniswapV3Contract",
      "type": "error"
    },
    {
      "inputs": [
        {
          "internalType": "uint256",
          "name": "deadline",
          "type": "uint256"
        }
      ],
      "name": "DeadlineReached",
      "type": "error"
    },
    {
      "inputs": [
        {
          "internalType": "uint256",
          "name": "dividend0",
          "type": "uint256"
        },
        {
          "internalType": "uint256",
          "name": "dividend1",
          "type": "uint256"
        },
        {
          "internalType": "uint256",
          "name": "divisor",
          "type": "uint256"
        }
      ],
      "name": "DivOverflow",
      "type": "error"
    },
    {
      "inputs": [],
      "name": "DivideByZero",
      "type": "error"
    },
    {
      "inputs": [
        {
          "internalType": "uint256",
          "name": "value",
          "type": "uint256"
        }
      ],
      "name": "InsufficientWrappedNative",
      "type": "error"
    },
    {
      "inputs": [
        {
          "internalType": "uint256",
          "name": "tokenAmount",
          "type": "uint256"
        },
        {
          "internalType": "uint256",
          "name": "minTokenAmount",
          "type": "uint256"
        }
      ],
      "name": "MinTokenReached",
      "type": "error"
    },
    {
      "inputs": [],
      "name": "ModuloByZero",
      "type": "error"
    },
    {
      "inputs": [
        {
          "internalType": "uint256",
          "name": "multiplicand",
          "type": "uint256"
        },
        {
          "internalType": "uint256",
          "name": "multiplier",
          "type": "uint256"
        },
        {
          "internalType": "uint256",
          "name": "divisor",
          "type": "uint256"
        }
      ],
      "name": "MulDivOverflow",
      "type": "error"
    },
    {
      "inputs": [
        {
          "internalType": "string",
          "name": "revertString",
          "type": "string"
        }
      ],
      "name": "MulticallFailed",
      "type": "error"
    },
    {
      "inputs": [
        {
          "internalType": "address",
          "name": "to",
          "type": "address"
        },
        {
          "internalType": "uint256",
          "name": "value",
          "type": "uint256"
        }
      ],
      "name": "NativeTransferFailed",
      "type": "error"
    },
    {
      "inputs": [
        {
          "internalType": "int256",
          "name": "amount0",
          "type": "int256"
        },
        {
          "internalType": "int256",
          "name": "amount1",
          "type": "int256"
        }
      ],
      "name": "PassCalculateInfo",
      "type": "error"
    },
    {
      "inputs": [],
      "name": "Uint160Overflow",
      "type": "error"
    },
    {
      "inputs": [],
      "name": "ZeroAddress",
      "type": "error"
    },
    {
      "inputs": [],
      "name": "ZeroPoolAddress",
      "type": "error"
    },
    {
      "anonymous": false,
      "inputs": [
        {
          "indexed": true,
          "internalType": "address",
          "name": "token0",
          "type": "address"
        },
        {
          "indexed": true,
          "internalType": "address",
          "name": "token1",
          "type": "address"
        },
        {
          "indexed": false,
          "internalType": "uint256",
          "name": "strike",
          "type": "uint256"
        },
        {
          "indexed": true,
          "internalType": "uint256",
          "name": "maturity",
          "type": "uint256"
        },
        {
          "indexed": false,
          "internalType": "uint24",
          "name": "uniswapV3Fee",
          "type": "uint24"
        },
        {
          "indexed": false,
          "internalType": "address",
          "name": "from",
          "type": "address"
        },
        {
          "indexed": false,
          "internalType": "address",
          "name": "to",
          "type": "address"
        },
        {
          "indexed": false,
          "internalType": "bool",
          "name": "isToken0",
          "type": "bool"
        },
        {
          "indexed": false,
          "internalType": "uint256",
          "name": "tokenAmount",
          "type": "uint256"
        },
        {
          "indexed": false,
          "internalType": "uint256",
          "name": "positionAmount",
          "type": "uint256"
        }
      ],
      "name": "CloseLendGivenPosition",
      "type": "event"
    },
    {
      "inputs": [
        {
          "components": [
            {
              "internalType": "address",
              "name": "token0",
              "type": "address"
            },
            {
              "internalType": "address",
              "name": "token1",
              "type": "address"
            },
            {
              "internalType": "uint256",
              "name": "strike",
              "type": "uint256"
            },
            {
              "internalType": "uint256",
              "name": "maturity",
              "type": "uint256"
            },
            {
              "internalType": "uint24",
              "name": "uniswapV3Fee",
              "type": "uint24"
            },
            {
              "internalType": "address",
              "name": "to",
              "type": "address"
            },
            {
              "internalType": "bool",
              "name": "isToken0",
              "type": "bool"
            },
            {
              "internalType": "uint256",
              "name": "positionAmount",
              "type": "uint256"
            },
            {
              "internalType": "uint256",
              "name": "minTokenAmount",
              "type": "uint256"
            },
            {
              "internalType": "uint256",
              "name": "deadline",
              "type": "uint256"
            }
          ],
          "internalType": "struct TimeswapV2PeripheryUniswapV3CloseLendGivenPositionParam",
          "name": "param",
          "type": "tuple"
        }
      ],
      "name": "closeLendGivenPosition",
      "outputs": [
        {
          "internalType": "uint256",
          "name": "tokenAmount",
          "type": "uint256"
        }
      ],
      "stateMutability": "nonpayable",
      "type": "function"
    },
    {
      "inputs": [
        {
          "internalType": "bytes[]",
          "name": "data",
          "type": "bytes[]"
        }
      ],
      "name": "multicall",
      "outputs": [
        {
          "internalType": "bytes[]",
          "name": "results",
          "type": "bytes[]"
        }
      ],
      "stateMutability": "payable",
      "type": "function"
    },
    {
      "inputs": [
        {
          "internalType": "address",
          "name": "",
          "type": "address"
        },
        {
          "internalType": "address",
          "name": "",
          "type": "address"
        },
        {
          "internalType": "uint256[]",
          "name": "",
          "type": "uint256[]"
        },
        {
          "internalType": "uint256[]",
          "name": "",
          "type": "uint256[]"
        },
        {
          "internalType": "bytes",
          "name": "",
          "type": "bytes"
        }
      ],
      "name": "onERC1155BatchReceived",
      "outputs": [
        {
          "internalType": "bytes4",
          "name": "",
          "type": "bytes4"
        }
      ],
      "stateMutability": "pure",
      "type": "function"
    },
    {
      "inputs": [
        {
          "internalType": "address",
          "name": "operator",
          "type": "address"
        },
        {
          "internalType": "address",
          "name": "",
          "type": "address"
        },
        {
          "internalType": "uint256",
          "name": "",
          "type": "uint256"
        },
        {
          "internalType": "uint256",
          "name": "",
          "type": "uint256"
        },
        {
          "internalType": "bytes",
          "name": "",
          "type": "bytes"
        }
      ],
      "name": "onERC1155Received",
      "outputs": [
        {
          "internalType": "bytes4",
          "name": "",
          "type": "bytes4"
        }
      ],
      "stateMutability": "view",
      "type": "function"
    },
    {
      "inputs": [],
      "name": "optionFactory",
      "outputs": [
        {
          "internalType": "address",
          "name": "",
          "type": "address"
        }
      ],
      "stateMutability": "view",
      "type": "function"
    },
    {
      "inputs": [],
      "name": "poolFactory",
      "outputs": [
        {
          "internalType": "address",
          "name": "",
          "type": "address"
        }
      ],
      "stateMutability": "view",
      "type": "function"
    },
    {
      "inputs": [
        {
          "internalType": "bytes4",
          "name": "interfaceId",
          "type": "bytes4"
        }
      ],
      "name": "supportsInterface",
      "outputs": [
        {
          "internalType": "bool",
          "name": "",
          "type": "bool"
        }
      ],
      "stateMutability": "view",
      "type": "function"
    },
    {
      "inputs": [
        {
          "components": [
            {
              "internalType": "uint256",
              "name": "strike",
              "type": "uint256"
            },
            {
              "internalType": "uint256",
              "name": "maturity",
              "type": "uint256"
            },
            {
              "internalType": "uint256",
              "name": "long0Amount",
              "type": "uint256"
            },
            {
              "internalType": "uint256",
              "name": "long1Amount",
              "type": "uint256"
            },
            {
              "internalType": "uint256",
              "name": "shortAmount",
              "type": "uint256"
            },
            {
              "internalType": "bytes",
              "name": "data",
              "type": "bytes"
            }
          ],
          "internalType": "struct TimeswapV2PoolLeverageCallbackParam",
          "name": "param",
          "type": "tuple"
        }
      ],
      "name": "timeswapV2PoolLeverageCallback",
      "outputs": [
        {
          "internalType": "bytes",
          "name": "data",
          "type": "bytes"
        }
      ],
      "stateMutability": "nonpayable",
      "type": "function"
    },
    {
      "inputs": [
        {
          "components": [
            {
              "internalType": "uint256",
              "name": "strike",
              "type": "uint256"
            },
            {
              "internalType": "uint256",
              "name": "maturity",
              "type": "uint256"
            },
            {
              "internalType": "uint256",
              "name": "long0Balance",
              "type": "uint256"
            },
            {
              "internalType": "uint256",
              "name": "long1Balance",
              "type": "uint256"
            },
            {
              "internalType": "uint256",
              "name": "longAmount",
              "type": "uint256"
            },
            {
              "internalType": "uint256",
              "name": "shortAmount",
              "type": "uint256"
            },
            {
              "internalType": "bytes",
              "name": "data",
              "type": "bytes"
            }
          ],
          "internalType": "struct TimeswapV2PoolLeverageChoiceCallbackParam",
          "name": "param",
          "type": "tuple"
        }
      ],
      "name": "timeswapV2PoolLeverageChoiceCallback",
      "outputs": [
        {
          "internalType": "uint256",
          "name": "long0Amount",
          "type": "uint256"
        },
        {
          "internalType": "uint256",
          "name": "long1Amount",
          "type": "uint256"
        },
        {
          "internalType": "bytes",
          "name": "data",
          "type": "bytes"
        }
      ],
      "stateMutability": "nonpayable",
      "type": "function"
    },
    {
      "inputs": [],
      "name": "tokens",
      "outputs": [
        {
          "internalType": "address",
          "name": "",
          "type": "address"
        }
      ],
      "stateMutability": "view",
      "type": "function"
    },
    {
      "inputs": [],
      "name": "uniswapV3Factory",
      "outputs": [
        {
          "internalType": "address",
          "name": "",
          "type": "address"
        }
      ],
      "stateMutability": "view",
      "type": "function"
    },
    {
      "inputs": [
        {
          "internalType": "int256",
          "name": "amount0Delta",
          "type": "int256"
        },
        {
          "internalType": "int256",
          "name": "amount1Delta",
          "type": "int256"
        },
        {
          "internalType": "bytes",
          "name": "data",
          "type": "bytes"
        }
      ],
      "name": "uniswapV3SwapCallback",
      "outputs": [],
      "stateMutability": "nonpayable",
      "type": "function"
    },
    {
      "inputs": [
        {
          "internalType": "uint256",
          "name": "amountMinimum",
          "type": "uint256"
        },
        {
          "internalType": "address",
          "name": "recipient",
          "type": "address"
        }
      ],
      "name": "unwrapWrappedNatives",
      "outputs": [],
      "stateMutability": "payable",
      "type": "function"
    },
    {
      "inputs": [],
      "name": "wrappedNativeToken",
      "outputs": [
        {
          "internalType": "address",
          "name": "",
          "type": "address"
        }
      ],
      "stateMutability": "view",
      "type": "function"
    },
    {
      "stateMutability": "payable",
      "type": "receive"
    }
  ],
  "bytecode": "0x6101206040523480156200001257600080fd5b5060405162003a0938038062003a09833981016040819052620000359162000089565b6001600160601b0319606092831b811660805294821b851660a05292811b841660c05290811b831660e0521b1661010052620000f9565b80516001600160a01b03811681146200008457600080fd5b919050565b600080600080600060a08688031215620000a257600080fd5b620000ad866200006c565b9450620000bd602087016200006c565b9350620000cd604087016200006c565b9250620000dd606087016200006c565b9150620000ed608087016200006c565b90509295509295909350565b60805160601c60a05160601c60c05160601c60e05160601c6101005160601c613854620001b56000396000818160f10152818161018401528181610be40152610ca80152600081816102940152818161074701526110800152600081816101d0015281816104530152818161057a015261104d0152600081816103160152818161043201528181610559015261102c01526000818161020401528181610d8c015281816112ea0152818161153a01526115d701526138546000f3fe6080604052600436106100e15760003560e01c8063ac67a4571161007f578063b7f68a0e11610059578063b7f68a0e14610338578063bc197c811461034b578063f23a6e6114610384578063fa461e33146103a457600080fd5b8063ac67a457146102b6578063ac9650d8146102e4578063b3461c871461030457600080fd5b80635b549182116100bb5780635b549182146101f2578063797481d0146102265780638662fa6a146102555780639d63848a1461028257600080fd5b806301ffc9a71461013d57806317fcb39b146101725780634219dc40146101be57600080fd5b3661013857336001600160a01b037f000000000000000000000000000000000000000000000000000000000000000016146101365760405163631b2c4f60e11b81523360048201526024015b60405180910390fd5b005b600080fd5b34801561014957600080fd5b5061015d6101583660046128ee565b6103c4565b60405190151581526020015b60405180910390f35b34801561017e57600080fd5b506101a67f000000000000000000000000000000000000000000000000000000000000000081565b6040516001600160a01b039091168152602001610169565b3480156101ca57600080fd5b506101a67f000000000000000000000000000000000000000000000000000000000000000081565b3480156101fe57600080fd5b506101a67f000000000000000000000000000000000000000000000000000000000000000081565b34801561023257600080fd5b50610246610241366004612918565b6103fb565b604051610169939291906129ae565b34801561026157600080fd5b506102756102703660046129cd565b610522565b6040516101699190612a07565b34801561028e57600080fd5b506101a67f000000000000000000000000000000000000000000000000000000000000000081565b3480156102c257600080fd5b506102d66102d1366004612ae3565b610728565b604051908152602001610169565b6102f76102f2366004612b8a565b610a3f565b6040516101699190612bfe565b34801561031057600080fd5b506101a67f000000000000000000000000000000000000000000000000000000000000000081565b610136610346366004612c60565b610bcc565b34801561035757600080fd5b5061036b610366366004612d81565b610d1b565b6040516001600160e01b03199091168152602001610169565b34801561039057600080fd5b5061036b61039f366004612e2e565b610d27565b3480156103b057600080fd5b506101366103bf366004612e96565b610d4f565b60006001600160e01b03198216630271189760e51b14806103f557506301ffc9a760e01b6001600160e01b03198316145b92915050565b6000806060818080808061041260c08a018a612f15565b81019061041f9190612f62565b9a509398509196509450925090506104797f00000000000000000000000000000000000000000000000000000000000000007f00000000000000000000000000000000000000000000000000000000000000008787610e02565b506104e2604051806101000160405280876001600160a01b03168152602001866001600160a01b031681526020018b6000013581526020018b6020013581526020018b6040013581526020018b6060013581526020018b60800135815260200188815250610f3a565b604051929a50909850965061050590869086908690869086908c90602001612ff1565b604051602081830303815290604052955050505050509193909250565b606060008080808061053760a0880188612f15565b8101906105449190612f62565b9a5093985091965094509250905060006105a07f00000000000000000000000000000000000000000000000000000000000000007f00000000000000000000000000000000000000000000000000000000000000008888610e02565b90506000816001600160a01b031663622fb68f6040518061010001604052808c6000013581526020018c602001358152602001886001600160a01b03168152602001876001600160a01b031681526020016000600181111561060457610604613040565b81526020018c6040013581526020018c606001358152602001604051806020016040528060008152508152506040518263ffffffff1660e01b815260040161064c919061306a565b600060405180830381600087803b15801561066657600080fd5b505af115801561067a573d6000803e3d6000fd5b505050506040513d6000823e601f3d908101601f191682016040526106a29190810190613136565b50925050506001600160a01b03821663b2ceca778a3560208c01353360026106ca878a6131a5565b6040518663ffffffff1660e01b81526004016106ea9594939291906131cc565b600060405180830381600087803b15801561070457600080fd5b505af1158015610718573d6000803e3d6000fd5b5050505050505050505050919050565b600042826101200151101561074557610745826101200151611004565b7f00000000000000000000000000000000000000000000000000000000000000006001600160a01b0316635c9b728233306040518060a0016040528087600001516001600160a01b0316815260200187602001516001600160a01b0316815260200187604001518152602001876060015181526020016002808111156107cd576107cd613040565b8152508660e001516040518563ffffffff1660e01b81526004016107f49493929190613206565b600060405180830381600087803b15801561080e57600080fd5b505af1158015610822573d6000803e3d6000fd5b505050608083015160c08401516040805162ffffff90931660208401529015159082015260009150606001604051602081830303815290604052905060008061090260405180610100016040528087600001516001600160a01b0316815260200187602001516001600160a01b0316815260200187604001518152602001876060015181526020018760c001516108b957306108bf565b8760a001515b6001600160a01b031681526020018760c001516108e0578760a001516108e2565b305b6001600160a01b0316815260e08801516020820152604001859052611020565b80955081935082945050505061094a85600001518660200151876040015188608001518960a001518a60c0015188888b806020019051810190610945919061326f565b6112c0565b9350846101000151841015610983576101008501516040516312bc00e560e11b815261012d918691600401918252602082015260400190565b846060015185602001516001600160a01b031686600001516001600160a01b03167f2f7dab43f92df0ccd95b1c8eb7ec06baa2dcbddec1b9d23abd04ed16a9ba7dbe88604001518960800151338b60a001518c60c001518c8e60e00151604051610a2f979695949392919096875262ffffff9590951660208701526001600160a01b039384166040870152919092166060850152901515608084015260a083015260c082015260e00190565b60405180910390a4505050919050565b6060816001600160401b03811115610a5957610a59612a1a565b604051908082528060200260200182016040528015610a8c57816020015b6060815260200190600190039081610a775790505b50905060005b82811015610bc55760008030868685818110610ab057610ab061328c565b9050602002810190610ac29190612f15565b604051610ad09291906132a2565b600060405180830381855af49150503d8060008114610b0b576040519150601f19603f3d011682016040523d82523d6000602084013e610b10565b606091505b509150915081610b9257604481511015610b5e57604051635d2f436f60e11b815260206004820152600e60248201526d125b9d985b1a590814995cdd5b1d60921b604482015260640161012d565b60048101905080806020019051810190610b7891906132b2565b604051635d2f436f60e11b815260040161012d9190612a07565b80848481518110610ba557610ba561328c565b602002602001018190525050508080610bbd906132fa565b915050610a92565b5092915050565b6040516370a0823160e01b81523060048201526000907f00000000000000000000000000000000000000000000000000000000000000006001600160a01b0316906370a082319060240160206040518083038186803b158015610c2e57600080fd5b505afa158015610c42573d6000803e3d6000fd5b505050506040513d601f19601f82011682018060405250810190610c669190613315565b905082811015610c8c57604051636b8c4dab60e01b81526004810182905260240161012d565b8015610d1657604051632e1a7d4d60e01b8152600481018290527f00000000000000000000000000000000000000000000000000000000000000006001600160a01b031690632e1a7d4d90602401600060405180830381600087803b158015610cf457600080fd5b505af1158015610d08573d6000803e3d6000fd5b50505050610d1682826113e4565b505050565b60005b95945050505050565b60006001600160a01b0386163014610d4157506000610d1e565b5063f23a6e6160e01b610d1e565b600080610d5e8385018561332e565b915091508115610def57600080600083806020019051810190610d81919061337d565b925092509250610db37f0000000000000000000000000000000000000000000000000000000000000000848484611484565b610de73360008b13610dc55789610dc7565b8a5b60008c13610dd55784610dd7565b855b6001600160a01b031691906114c4565b505050610dfa565b610dfa868683611516565b505050505050565b60405163d81e842360e01b81526001600160a01b03838116600483015282811660248301526000919086169063d81e84239060440160206040518083038186803b158015610e4f57600080fd5b505afa158015610e63573d6000803e3d6000fd5b505050506040513d601f19601f82011682018060405250810190610e8791906133ca565b6040516330af0bbf60e21b81526001600160a01b03808316600483015291925060009186169063c2bc2efc9060240160206040518083038186803b158015610ece57600080fd5b505afa158015610ee2573d6000803e3d6000fd5b505050506040513d601f19601f82011682018060405250810190610f0691906133ca565b90506001600160a01b0381163314610f315760405163863b47e760e01b815260040160405180910390fd5b50949350505050565b60008060606000808560e00151806020019051810190610f5a91906133e7565b915091506000610fd360405180610100016040528089600001516001600160a01b0316815260200189602001516001600160a01b03168152602001896040015181526020018562ffffff1681526020018415158152602001896080015181526020018960a0015181526020018960c0015181525061156b565b6040805184151560208201529299509097509192500160405160208183030381529060405293505050509193909250565b60405163070b57d960e41b81526004810182905260240161012d565b6000806060600061107b7f00000000000000000000000000000000000000000000000000000000000000007f00000000000000000000000000000000000000000000000000000000000000008760000151886020015161175f565b9150507f00000000000000000000000000000000000000000000000000000000000000006001600160a01b031663a38d7a1760405180610160016040528088600001516001600160a01b0316815260200188602001516001600160a01b031681526020018860400151815260200188606001518152602001306001600160a01b03168152602001306001600160a01b03168152602001306001600160a01b0316815260200160008152602001600081526020018860c001518152602001604051806020016040528060008152508152506040518263ffffffff1660e01b81526004016111679190613416565b600060405180830381600087803b15801561118157600080fd5b505af1158015611195573d6000803e3d6000fd5b505050506040513d6000823e601f3d908101601f191682016040526111bd91908101906134e7565b508451602080870151608088015160a089015160c08a015160e08b01516040516111e8979601612ff1565b60408051808303601f1901815260e083018252878201518352606080890151602085015230848401819052908401526003608084015260c08089015160a08501528301819052905163e0260d1160e01b81529093506001600160a01b0383169163e0260d119161125b919060040161351b565b600060405180830381600087803b15801561127557600080fd5b505af1158015611289573d6000803e3d6000fd5b505050506040513d6000823e601f3d908101601f191682016040526112b19190810190613136565b92989197509195509350505050565b6000846112cd57826112cf565b835b9050846112dc57836112de565b825b156113d75760006113117f00000000000000000000000000000000000000000000000000000000000000008c8c8b611814565b905060008b8b8a60405160200161132a93929190613593565b604051602081830303815290604052905060018160405160200161134f9291906135bb565b60408051601f1981840301815260c0830182526001600160a01b038b1683528915602084015260019183019190915291506000906113c390606081018a6113965789611398565b885b8152602001876113a8578d6113ab565b60005b81526020018490526001600160a01b0385169061183e565b91506113d1905081856135d6565b93505050505b9998505050505050505050565b604080516000808252602082019092526001600160a01b03841690839060405161140e91906135ee565b60006040518083038185875af1925050503d806000811461144b576040519150601f19603f3d011682016040523d82523d6000602084013e611450565b606091505b5050905080610d165760405163296c17bb60e21b81526001600160a01b03841660048201526024810183905260440161012d565b600061149285858585611abe565b90506001600160a01b03811633146114bd576040516307c1698f60e01b815260040160405180910390fd5b5050505050565b604080516001600160a01b038416602482015260448082018490528251808303909101815260649091019091526020810180516001600160e01b031663a9059cbb60e01b179052610d16908490611b41565b60008060008380602001905181019061152f919061337d565b9250925092506115617f0000000000000000000000000000000000000000000000000000000000000000848484611484565b610dfa8686611c13565b6000806000806115ad8560800151611587578560c0015161158d565b8560a001515b6115a78760e0015188604001518960800151156000611c36565b90611c7b565b905060008086608001516115c5578660a001516115cb565b8660c001515b1561172d57600061160a7f000000000000000000000000000000000000000000000000000000000000000089600001518a602001518b60600151611814565b905060006116438960800151611624578960a0015161162a565b8960c001515b6115a78b60e001518c604001518d608001516000611c36565b89516020808c015160608d0151604051949550600094611664949301613593565b60405160208183030381529060405290506000816040516020016116899291906135bb565b60408051601f1981840301815260a0830182526080808e015115845260016020850152838301869052918d0151606084015290820181905291506116d7906001600160a01b03851690611c93565b508095505050506116f98860e00151848a604001518b60800151156000611f26565b91508382111561172757600196508391506117248860e00151838a604001518b608001516000611f26565b92505b50611730565b50815b866080015161173f5781611741565b805b945086608001516117525780611754565b815b959794965050505050565b6000806117766001600160a01b0387168585611fa1565b6040516330af0bbf60e21b81526001600160a01b0380831660048301529193509086169063c2bc2efc9060240160206040518083038186803b1580156117bb57600080fd5b505afa1580156117cf573d6000803e3d6000fd5b505050506040513d601f19601f820116820180604052508101906117f391906133ca565b90506001600160a01b03811661180b5761180b611fc2565b94509492505050565b600061182285858585611abe565b9050611836816001600160a01b0316611fdb565b949350505050565b6000806000846001600160a01b0316633850c7bd6040518163ffffffff1660e01b815260040160e06040518083038186803b15801561187c57600080fd5b505afa158015611890573d6000803e3d6000fd5b505050506040513d601f19601f820116820180604052508101906118b4919061361c565b505050505050905060008460800151600014156119085784602001516118f8576118f3600173fffd8963efd1fc6a506488495d951d5263988d266136bb565b611915565b6118f36401000276a360016136e3565b6119158560800151612005565b90506401000276a36001600160a01b0382161161193f5761193c6401000276a360016136e3565b90505b73fffd8963efd1fc6a506488495d951d5263988d266001600160a01b0382161061198557611982600173fffd8963efd1fc6a506488495d951d5263988d266136bb565b90505b84602001516119a857806001600160a01b0316826001600160a01b0316106119be565b806001600160a01b0316826001600160a01b0316115b15611ab557600080876001600160a01b031663128acb08886000015189602001518a60400151611a03576119f58b60600151612055565b6119fe9061370e565b611a10565b611a108b60600151612055565b878c60a001516040518663ffffffff1660e01b8152600401611a3695949392919061372b565b6040805180830381600087803b158015611a4f57600080fd5b505af1158015611a63573d6000803e3d6000fd5b505050506040513d601f19601f82011682018060405250810190611a879190613766565b915091508660200151611aa35780611a9e8361370e565b611aad565b81611aad8261370e565b909650945050505b50509250929050565b604051630b4c774160e11b81526000906001600160a01b03861690631698ee8290611af190879087908790600401613593565b60206040518083038186803b158015611b0957600080fd5b505afa158015611b1d573d6000803e3d6000fd5b505050506040513d601f19601f82011682018060405250810190610d1e91906133ca565b6000611b96826040518060400160405280602081526020017f5361666545524332303a206c6f772d6c6576656c2063616c6c206661696c6564815250856001600160a01b031661206b9092919063ffffffff16565b805190915015610d165780806020019051810190611bb4919061326f565b610d165760405162461bcd60e51b815260206004820152602a60248201527f5361666545524332303a204552433230206f7065726174696f6e20646964206e6044820152691bdd081cdd58d8d9595960b21b606482015260840161012d565b6040516377760aaf60e11b8152600481018390526024810182905260440161012d565b60006001600160801b038411611c635782611c5d57611c58858560008561207a565b610d1e565b84610d1e565b82611c6e5784610d1e565b610d1e858560018561207a565b6000818310611c8a5781611c8c565b825b9392505050565b6000806000846001600160a01b0316633850c7bd6040518163ffffffff1660e01b815260040160e06040518083038186803b158015611cd157600080fd5b505afa158015611ce5573d6000803e3d6000fd5b505050506040513d601f19601f82011682018060405250810190611d09919061361c565b50505050505090506000846060015160001415611d5a578451611d4a57611d45600173fffd8963efd1fc6a506488495d951d5263988d266136bb565b611d67565b611d456401000276a360016136e3565b611d678560600151612005565b90506401000276a36001600160a01b03821611611d9157611d8e6401000276a360016136e3565b90505b73fffd8963efd1fc6a506488495d951d5263988d266001600160a01b03821610611dd757611dd4600173fffd8963efd1fc6a506488495d951d5263988d266136bb565b90505b8451611df757816001600160a01b0316816001600160a01b031611611e0d565b816001600160a01b0316816001600160a01b0316105b15611ab557600080876001600160a01b031663128acb083089600001518a60200151611e4e57611e408b60400151612055565b611e499061370e565b611e5b565b611e5b8b60400151612055565b878c608001516040518663ffffffff1660e01b8152600401611e8195949392919061372b565b6040805180830381600087803b158015611e9a57600080fd5b505af1925050508015611eca575060408051601f3d908101601f19168201909252611ec791810190613766565b60015b611f13573d808015611ef8576040519150601f19603f3d011682016040523d82523d6000602084013e611efd565b606091505b50611f07816120a1565b9093509150611f169050565b50505b8651611aa35780611a9e8361370e565b60006001600160801b038411611f6e5782611f5657611f51611f4886886131a5565b8560008561207a565b611f97565b611f6485856001851561207a565b611f5190876131a5565b82611f8157611f6485856000851561207a565b611f97611f8e86886131a5565b8560018561207a565b9695505050505050565b6000611fae8484846120d1565b90506001600160a01b038116611c8c57611c8c5b60405163d92e233d60e01b815260040160405180910390fd5b6001600160a01b0381166120025760405163037064f160e01b815260040160405180910390fd5b50565b60006001600160c01b03821161202c576103f5612027604084901b6000612156565b6121d4565b60008061204284680100000000000000006121fe565b915091506118366120278383600061221d565b6000600160ff1b821061206757600080fd5b5090565b606061183684846000856122ab565b60008261209157611c5885600160801b86856123dc565b610d1e8585600160801b856123dc565b6000806120b5836377760aaf60e11b6124d8565b8060200190518101906120c89190613766565b91509150915091565b60405163d81e842360e01b81526001600160a01b03838116600483015282811660248301526000919085169063d81e84239060440160206040518083038186803b15801561211e57600080fd5b505afa158015612132573d6000803e3d6000fd5b505050506040513d601f19601f8201168201806040525081019061183691906133ca565b600060001983141561217057506001600160801b036103f5565b8261217d575060006103f5565b50816001818101901c5b818110156121af578091506001818286816121a4576121a461378a565b0401901c9050612187565b508180156121c55750826121c382806137a0565b105b156103f55780611836816132fa565b60006001600160a01b0382111561206757604051630ba006e160e41b815260040160405180910390fd5b6000806000198385098385029250828110838203039150509250929050565b6000826122355761222e8483612156565b9050611c8c565b60006122448585600019612546565b905060001991505b8181101561226957809150612262858583612546565b905061224c565b82156122a35760008061227c84856121fe565b915091508086118061228d57508187115b156122a0578361229c816132fa565b9450505b50505b509392505050565b60608247101561230c5760405162461bcd60e51b815260206004820152602660248201527f416464726573733a20696e73756666696369656e742062616c616e636520666f6044820152651c8818d85b1b60d21b606482015260840161012d565b6001600160a01b0385163b6123635760405162461bcd60e51b815260206004820152601d60248201527f416464726573733a2063616c6c20746f206e6f6e2d636f6e7472616374000000604482015260640161012d565b600080866001600160a01b0316858760405161237f91906135ee565b60006040518083038185875af1925050503d80600081146123bc576040519150601f19603f3d011682016040523d82523d6000602084013e6123c1565b606091505b50915091506123d182828661257b565b979650505050505050565b60008060006123eb87876121fe565b91509150806000141561240c576124038286866125b4565b92505050611836565b80851161243d5760405163362ced0960e11b815260048101889052602481018790526044810186905260640161012d565b600085878909600087810388169788900497600260038a028118808b02820302808b02820302808b02820302808b02820302808b02820302808b029091030291819003819004600101868411909503948502929095039490940417928302935084905080156124bb575084806124b5576124b561378a565b86880915155b156124ce57826124ca816132fa565b9350505b5050949350505050565b815160609060206124ea6004836131a5565b6124f491906137bf565b15801561251c57506001600160e01b03198316612510856137d3565b6001600160e01b031916145b1561253e5761253684600461253181856131a5565b6125e6565b9150506103f5565b835184602001fd5b60008061255685858560006126f2565b90506000612568826000866000612777565b9092509050611f978282600260006126f2565b6060831561258a575081611c8c565b82511561259a5782518084602001fd5b8160405162461bcd60e51b815260040161012d9190612a07565b60006125c0838561380a565b90508180156125d757506125d483856137bf565b15155b15611c8c5780610d1e816132fa565b6060816125f481601f6135d6565b10156126335760405162461bcd60e51b815260206004820152600e60248201526d736c6963655f6f766572666c6f7760901b604482015260640161012d565b61263d82846135d6565b845110156126815760405162461bcd60e51b8152602060048201526011602482015270736c6963655f6f75744f66426f756e647360781b604482015260640161012d565b6060821580156126a05760405191506000825260208201604052610f31565b6040519150601f8416801560200281840101858101878315602002848b0101015b818310156126d95780518352602092830192016126c1565b5050858452601f01601f19166040525050949350505050565b6000806127008686866127e8565b9092509050801561273557604051636aa917ab60e01b815260048101879052602481018690526044810185905260640161012d565b8215610f315760008061274884876121fe565b915091508087118061275957508188115b1561276c5783612768816132fa565b9450505b505050949350505050565b81840184811082850181019080156127a45781158061279f575061279c6001836131a5565b86115b6127a8565b8186115b156127de576040516347b1893f60e01b81526004810188905260248101879052604481018690526064810185905260840161012d565b5094509492505050565b60008083612803576127fc858460006125b4565b915061288f565b600061280e84612897565b9050600061281b856128c4565b90505b851561286f5760008061283188856121fe565b9150915061284186868484612777565b909650945061285088846121fe565b909250905061286282828b6000612777565b909950975061281e915050565b61288784846128808a8960006125b4565b6000612777565b909450925050505b935093915050565b6000816128b7576040516301de42a960e41b815260040160405180910390fd5b5060008190030460010190565b6000816128e4576040516319dbad9f60e01b815260040160405180910390fd5b5060008190030690565b60006020828403121561290057600080fd5b81356001600160e01b031981168114611c8c57600080fd5b60006020828403121561292a57600080fd5b81356001600160401b0381111561294057600080fd5b820160e08185031215611c8c57600080fd5b60005b8381101561296d578181015183820152602001612955565b8381111561297c576000848401525b50505050565b6000815180845261299a816020860160208601612952565b601f01601f19169290920160200192915050565b838152826020820152606060408201526000610d1e6060830184612982565b6000602082840312156129df57600080fd5b81356001600160401b038111156129f557600080fd5b820160c08185031215611c8c57600080fd5b602081526000611c8c6020830184612982565b634e487b7160e01b600052604160045260246000fd5b60405161014081016001600160401b0381118282101715612a5357612a53612a1a565b60405290565b604051601f8201601f191681016001600160401b0381118282101715612a8157612a81612a1a565b604052919050565b6001600160a01b038116811461200257600080fd5b8035612aa981612a89565b919050565b62ffffff8116811461200257600080fd5b8035612aa981612aae565b801515811461200257600080fd5b8035612aa981612aca565b60006101408284031215612af657600080fd5b612afe612a30565b612b0783612a9e565b8152612b1560208401612a9e565b60208201526040830135604082015260608301356060820152612b3a60808401612abf565b6080820152612b4b60a08401612a9e565b60a0820152612b5c60c08401612ad8565b60c082015260e083810135908201526101008084013590820152610120928301359281019290925250919050565b60008060208385031215612b9d57600080fd5b82356001600160401b0380821115612bb457600080fd5b818501915085601f830112612bc857600080fd5b813581811115612bd757600080fd5b8660208260051b8501011115612bec57600080fd5b60209290920196919550909350505050565b6000602080830181845280855180835260408601915060408160051b870101925083870160005b82811015612c5357603f19888603018452612c41858351612982565b94509285019290850190600101612c25565b5092979650505050505050565b60008060408385031215612c7357600080fd5b823591506020830135612c8581612a89565b809150509250929050565b600082601f830112612ca157600080fd5b813560206001600160401b03821115612cbc57612cbc612a1a565b8160051b612ccb828201612a59565b9283528481018201928281019087851115612ce557600080fd5b83870192505b848310156123d157823582529183019190830190612ceb565b60006001600160401b03821115612d1d57612d1d612a1a565b50601f01601f191660200190565b600082601f830112612d3c57600080fd5b8135612d4f612d4a82612d04565b612a59565b818152846020838601011115612d6457600080fd5b816020850160208301376000918101602001919091529392505050565b600080600080600060a08688031215612d9957600080fd5b8535612da481612a89565b94506020860135612db481612a89565b935060408601356001600160401b0380821115612dd057600080fd5b612ddc89838a01612c90565b94506060880135915080821115612df257600080fd5b612dfe89838a01612c90565b93506080880135915080821115612e1457600080fd5b50612e2188828901612d2b565b9150509295509295909350565b600080600080600060a08688031215612e4657600080fd5b8535612e5181612a89565b94506020860135612e6181612a89565b9350604086013592506060860135915060808601356001600160401b03811115612e8a57600080fd5b612e2188828901612d2b565b60008060008060608587031215612eac57600080fd5b843593506020850135925060408501356001600160401b0380821115612ed157600080fd5b818701915087601f830112612ee557600080fd5b813581811115612ef457600080fd5b886020828501011115612f0657600080fd5b95989497505060200194505050565b6000808335601e19843603018112612f2c57600080fd5b8301803591506001600160401b03821115612f4657600080fd5b602001915036819003821315612f5b57600080fd5b9250929050565b60008060008060008060c08789031215612f7b57600080fd5b8635612f8681612a89565b95506020870135612f9681612a89565b94506040870135612fa681612a89565b93506060870135612fb681612a89565b92506080870135915060a08701356001600160401b03811115612fd857600080fd5b612fe489828a01612d2b565b9150509295509295509295565b6001600160a01b03878116825286811660208301528581166040830152841660608201526080810183905260c060a0820181905260009061303490830184612982565b98975050505050505050565b634e487b7160e01b600052602160045260246000fd5b6002811061306657613066613040565b9052565b6020815281516020820152602082015160408201526000604083015160018060a01b038082166060850152806060860151166080850152505060808301516130b560a0840182613056565b5060a083015160c083015260c083015160e083015260e0830151610100808185015250611836610120840182612982565b60006130f4612d4a84612d04565b905082815283838301111561310857600080fd5b611c8c836020830184612952565b600082601f83011261312757600080fd5b611c8c838351602085016130e6565b6000806000806080858703121561314c57600080fd5b84519350602085015192506040850151915060608501516001600160401b0381111561317757600080fd5b61318387828801613116565b91505092959194509250565b634e487b7160e01b600052601160045260246000fd5b6000828210156131b7576131b761318f565b500390565b6003811061306657613066613040565b858152602081018590526001600160a01b038416604082015260a081016131f660608301856131bc565b8260808301529695505050505050565b60006101008201905060018060a01b03808716835280861660208401528085511660408401528060208601511660608401525060408401516080830152606084015160a0830152608084015161325f60c08401826131bc565b508260e083015295945050505050565b60006020828403121561328157600080fd5b8151611c8c81612aca565b634e487b7160e01b600052603260045260246000fd5b8183823760009101908152919050565b6000602082840312156132c457600080fd5b81516001600160401b038111156132da57600080fd5b8201601f810184136132eb57600080fd5b611836848251602084016130e6565b600060001982141561330e5761330e61318f565b5060010190565b60006020828403121561332757600080fd5b5051919050565b6000806040838503121561334157600080fd5b823561334c81612aca565b915060208301356001600160401b0381111561336757600080fd5b61337385828601612d2b565b9150509250929050565b60008060006060848603121561339257600080fd5b835161339d81612a89565b60208501519093506133ae81612a89565b60408501519092506133bf81612aae565b809150509250925092565b6000602082840312156133dc57600080fd5b8151611c8c81612a89565b600080604083850312156133fa57600080fd5b825161340581612aae565b6020840151909250612c8581612aca565b602081526134306020820183516001600160a01b03169052565b6000602083015161344c60408401826001600160a01b03169052565b506040830151606083015260608301516080830152608083015161347b60a08401826001600160a01b03169052565b5060a08301516001600160a01b03811660c08401525060c08301516001600160a01b03811660e08401525060e083015161010083810191909152830151610120808401919091528301516101408084019190915283015161016080840152611836610180840182612982565b6000602082840312156134f957600080fd5b81516001600160401b0381111561350f57600080fd5b61183684828501613116565b6020815281516020820152602082015160408201526000604083015160018060a01b038082166060850152806060860151166080850152505060808301516004811061356957613569613040565b8060a08401525060a083015160c083015260c083015160e080840152611836610100840182612982565b6001600160a01b03938416815291909216602082015262ffffff909116604082015260600190565b82151581526040602082015260006118366040830184612982565b600082198211156135e9576135e961318f565b500190565b60008251613600818460208701612952565b9190910192915050565b805161ffff81168114612aa957600080fd5b600080600080600080600060e0888a03121561363757600080fd5b875161364281612a89565b8097505060208801518060020b811461365a57600080fd5b95506136686040890161360a565b94506136766060890161360a565b93506136846080890161360a565b925060a088015160ff8116811461369a57600080fd5b60c08901519092506136ab81612aca565b8091505092959891949750929550565b60006001600160a01b03838116908316818110156136db576136db61318f565b039392505050565b60006001600160a01b038281168482168083038211156137055761370561318f565b01949350505050565b6000600160ff1b8214156137245761372461318f565b5060000390565b6001600160a01b0386811682528515156020830152604082018590528316606082015260a0608082018190526000906123d190830184612982565b6000806040838503121561377957600080fd5b505080516020909101519092909150565b634e487b7160e01b600052601260045260246000fd5b60008160001904831182151516156137ba576137ba61318f565b500290565b6000826137ce576137ce61378a565b500690565b805160208201516001600160e01b031980821692919060048310156138025780818460040360031b1b83161693505b505050919050565b6000826138195761381961378a565b50049056fea2646970667358221220444e1f8ced65e6686fd5faacff1ff6da266442d42e0d60a99c451da4d4720e7f64736f6c63430008080033",
  "linkReferences": {},
  "deployedLinkReferences": {}
}