{
  "_format": "hh-sol-artifact-1",
  "contractName": "TimeswapV2PeripheryUniswapV3QuoterWithdraw",
  "sourceName": "@timeswap-labs/v2-periphery-uniswapV3/contracts/lens/TimeswapV2PeripheryUniswapV3QuoterWithdraw.sol",
  "abi": [
    {
      "inputs": [
        {
          "internalType": "address",
          "name": "chosenOptionFactory",
          "type": "address"
        },
        {
          "internalType": "address",
          "name": "chosenTokens",
          "type": "address"
        },
        {
          "internalType": "address",
          "name": "chosenUniswapV3Factory",
          "type": "address"
        }
      ],
      "stateMutability": "nonpayable",
      "type": "constructor"
    },
    {
      "inputs": [
        {
          "internalType": "uint256",
          "name": "addendA0",
          "type": "uint256"
        },
        {
          "internalType": "uint256",
          "name": "addendA1",
          "type": "uint256"
        },
        {
          "internalType": "uint256",
          "name": "addendB0",
          "type": "uint256"
        },
        {
          "internalType": "uint256",
          "name": "addendB1",
          "type": "uint256"
        }
      ],
      "name": "AddOverflow",
      "type": "error"
    },
    {
      "inputs": [],
      "name": "CanOnlyBeCalledByUniswapV3Contract",
      "type": "error"
    },
    {
      "inputs": [
        {
          "internalType": "uint256",
          "name": "dividend0",
          "type": "uint256"
        },
        {
          "internalType": "uint256",
          "name": "dividend1",
          "type": "uint256"
        },
        {
          "internalType": "uint256",
          "name": "divisor",
          "type": "uint256"
        }
      ],
      "name": "DivOverflow",
      "type": "error"
    },
    {
      "inputs": [],
      "name": "DivideByZero",
      "type": "error"
    },
    {
      "inputs": [
        {
          "internalType": "uint256",
          "name": "tokenAmount",
          "type": "uint256"
        },
        {
          "internalType": "uint256",
          "name": "minTokenAmount",
          "type": "uint256"
        }
      ],
      "name": "MinTokenReached",
      "type": "error"
    },
    {
      "inputs": [],
      "name": "ModuloByZero",
      "type": "error"
    },
    {
      "inputs": [
        {
          "internalType": "string",
          "name": "revertString",
          "type": "string"
        }
      ],
      "name": "MulticallFailed",
      "type": "error"
    },
    {
      "inputs": [
        {
          "internalType": "int256",
          "name": "amount0",
          "type": "int256"
        },
        {
          "internalType": "int256",
          "name": "amount1",
          "type": "int256"
        }
      ],
      "name": "PassCalculateInfo",
      "type": "error"
    },
    {
      "inputs": [
        {
          "internalType": "uint256",
          "name": "token0Amount",
          "type": "uint256"
        },
        {
          "internalType": "uint256",
          "name": "token1Amount",
          "type": "uint256"
        }
      ],
      "name": "PassTokenBurnCallbackInfo",
      "type": "error"
    },
    {
      "inputs": [
        {
          "internalType": "int256",
          "name": "amount0",
          "type": "int256"
        },
        {
          "internalType": "int256",
          "name": "amount1",
          "type": "int256"
        },
        {
          "internalType": "uint160",
          "name": "uniswapV3SqrtPriceAfter",
          "type": "uint160"
        }
      ],
      "name": "PassUniswapV3SwapCallbackInfo",
      "type": "error"
    },
    {
      "inputs": [],
      "name": "Uint160Overflow",
      "type": "error"
    },
    {
      "inputs": [],
      "name": "ZeroAddress",
      "type": "error"
    },
    {
      "inputs": [],
      "name": "ZeroPoolAddress",
      "type": "error"
    },
    {
      "inputs": [
        {
          "internalType": "bytes[]",
          "name": "data",
          "type": "bytes[]"
        }
      ],
      "name": "multicall",
      "outputs": [
        {
          "internalType": "bytes[]",
          "name": "results",
          "type": "bytes[]"
        }
      ],
      "stateMutability": "payable",
      "type": "function"
    },
    {
      "inputs": [
        {
          "internalType": "address",
          "name": "",
          "type": "address"
        },
        {
          "internalType": "address",
          "name": "",
          "type": "address"
        },
        {
          "internalType": "uint256[]",
          "name": "",
          "type": "uint256[]"
        },
        {
          "internalType": "uint256[]",
          "name": "",
          "type": "uint256[]"
        },
        {
          "internalType": "bytes",
          "name": "",
          "type": "bytes"
        }
      ],
      "name": "onERC1155BatchReceived",
      "outputs": [
        {
          "internalType": "bytes4",
          "name": "",
          "type": "bytes4"
        }
      ],
      "stateMutability": "pure",
      "type": "function"
    },
    {
      "inputs": [
        {
          "internalType": "address",
          "name": "operator",
          "type": "address"
        },
        {
          "internalType": "address",
          "name": "",
          "type": "address"
        },
        {
          "internalType": "uint256",
          "name": "",
          "type": "uint256"
        },
        {
          "internalType": "uint256",
          "name": "",
          "type": "uint256"
        },
        {
          "internalType": "bytes",
          "name": "",
          "type": "bytes"
        }
      ],
      "name": "onERC1155Received",
      "outputs": [
        {
          "internalType": "bytes4",
          "name": "",
          "type": "bytes4"
        }
      ],
      "stateMutability": "view",
      "type": "function"
    },
    {
      "inputs": [],
      "name": "optionFactory",
      "outputs": [
        {
          "internalType": "address",
          "name": "",
          "type": "address"
        }
      ],
      "stateMutability": "view",
      "type": "function"
    },
    {
      "inputs": [
        {
          "internalType": "bytes4",
          "name": "interfaceId",
          "type": "bytes4"
        }
      ],
      "name": "supportsInterface",
      "outputs": [
        {
          "internalType": "bool",
          "name": "",
          "type": "bool"
        }
      ],
      "stateMutability": "view",
      "type": "function"
    },
    {
      "inputs": [
        {
          "components": [
            {
              "internalType": "address",
              "name": "token0",
              "type": "address"
            },
            {
              "internalType": "address",
              "name": "token1",
              "type": "address"
            },
            {
              "internalType": "uint256",
              "name": "strike",
              "type": "uint256"
            },
            {
              "internalType": "uint256",
              "name": "maturity",
              "type": "uint256"
            },
            {
              "internalType": "uint256",
              "name": "long0Amount",
              "type": "uint256"
            },
            {
              "internalType": "uint256",
              "name": "long1Amount",
              "type": "uint256"
            },
            {
              "internalType": "uint256",
              "name": "shortAmount",
              "type": "uint256"
            },
            {
              "internalType": "bytes",
              "name": "data",
              "type": "bytes"
            }
          ],
          "internalType": "struct TimeswapV2TokenBurnCallbackParam",
          "name": "param",
          "type": "tuple"
        }
      ],
      "name": "timeswapV2TokenBurnCallback",
      "outputs": [
        {
          "internalType": "bytes",
          "name": "data",
          "type": "bytes"
        }
      ],
      "stateMutability": "nonpayable",
      "type": "function"
    },
    {
      "inputs": [],
      "name": "tokens",
      "outputs": [
        {
          "internalType": "address",
          "name": "",
          "type": "address"
        }
      ],
      "stateMutability": "view",
      "type": "function"
    },
    {
      "inputs": [],
      "name": "uniswapV3Factory",
      "outputs": [
        {
          "internalType": "address",
          "name": "",
          "type": "address"
        }
      ],
      "stateMutability": "view",
      "type": "function"
    },
    {
      "inputs": [
        {
          "internalType": "int256",
          "name": "amount0Delta",
          "type": "int256"
        },
        {
          "internalType": "int256",
          "name": "amount1Delta",
          "type": "int256"
        },
        {
          "internalType": "bytes",
          "name": "data",
          "type": "bytes"
        }
      ],
      "name": "uniswapV3SwapCallback",
      "outputs": [],
      "stateMutability": "view",
      "type": "function"
    },
    {
      "inputs": [
        {
          "components": [
            {
              "internalType": "address",
              "name": "token0",
              "type": "address"
            },
            {
              "internalType": "address",
              "name": "token1",
              "type": "address"
            },
            {
              "internalType": "uint256",
              "name": "strike",
              "type": "uint256"
            },
            {
              "internalType": "uint256",
              "name": "maturity",
              "type": "uint256"
            },
            {
              "internalType": "uint24",
              "name": "uniswapV3Fee",
              "type": "uint24"
            },
            {
              "internalType": "address",
              "name": "to",
              "type": "address"
            },
            {
              "internalType": "bool",
              "name": "isToken0",
              "type": "bool"
            },
            {
              "internalType": "uint256",
              "name": "positionAmount",
              "type": "uint256"
            }
          ],
          "internalType": "struct TimeswapV2PeripheryUniswapV3QuoterWithdrawParam",
          "name": "param",
          "type": "tuple"
        }
      ],
      "name": "withdraw",
      "outputs": [
        {
          "internalType": "uint256",
          "name": "tokenAmount",
          "type": "uint256"
        },
        {
          "internalType": "uint160",
          "name": "uniswapV3SqrtPriceAfter",
          "type": "uint160"
        }
      ],
      "stateMutability": "nonpayable",
      "type": "function"
    }
  ],
  "bytecode": "0x60e06040523480156200001157600080fd5b50604051620024f5380380620024f5833981016040819052620000349162000079565b6001600160601b0319606093841b811660805291831b821660a05290911b1660c052620000c3565b80516001600160a01b03811681146200007457600080fd5b919050565b6000806000606084860312156200008f57600080fd5b6200009a846200005c565b9250620000aa602085016200005c565b9150620000ba604085016200005c565b90509250925092565b60805160601c60a05160601c60c05160601c6123d76200011e6000396000818160dd0152818161061801528181610a510152610c8401526000818161016601526109440152600081816101ba015261070f01526123d76000f3fe6080604052600436106100915760003560e01c8063b3461c8711610059578063b3461c87146101a8578063bc197c81146101dc578063f23a6e6114610215578063fa461e3314610235578063fb05b8fe1461025757600080fd5b806301ffc9a7146100965780635b549182146100cb578063932bc014146101175780639d63848a14610154578063ac9650d814610188575b600080fd5b3480156100a257600080fd5b506100b66100b13660046117a6565b610284565b60405190151581526020015b60405180910390f35b3480156100d757600080fd5b506100ff7f000000000000000000000000000000000000000000000000000000000000000081565b6040516001600160a01b0390911681526020016100c2565b34801561012357600080fd5b506101376101323660046117e9565b6102bb565b604080519283526001600160a01b039091166020830152016100c2565b34801561016057600080fd5b506100ff7f000000000000000000000000000000000000000000000000000000000000000081565b61019b610196366004611806565b610415565b6040516100c291906118d6565b3480156101b457600080fd5b506100ff7f000000000000000000000000000000000000000000000000000000000000000081565b3480156101e857600080fd5b506101fc6101f7366004611a8f565b6105a7565b6040516001600160e01b031990911681526020016100c2565b34801561022157600080fd5b506101fc610230366004611b3c565b6105b3565b34801561024157600080fd5b50610255610250366004611ba4565b6105db565b005b34801561026357600080fd5b50610277610272366004611c23565b6106e1565b6040516100c29190611c57565b60006001600160e01b03198216630271189760e51b14806102b557506301ffc9a760e01b6001600160e01b03198316145b92915050565b6000806000806103a66040518060e001604052808760000160208101906102e29190611c6a565b6001600160a01b031681526020018760200160208101906103039190611c6a565b6001600160a01b0316815260200187604001358152602001876060013581526020018760c00160208101906103389190611c95565b6103425730610352565b61035260c0890160a08a01611c6a565b6001600160a01b0316815260200161037060e0890160c08a01611c95565b6103895761038460c0890160a08a01611c6a565b61038b565b305b6001600160a01b031681526020018760e0013581525061087e565b90925090506104096103bb6020870187611c6a565b6103cb6040880160208901611c6a565b60408801356103e060a08a0160808b01611cc3565b6103f060c08b0160a08c01611c6a565b61040060e08c0160c08d01611c95565b88886001610a38565b90969095509350505050565b6060816001600160401b0381111561042f5761042f61194d565b60405190808252806020026020018201604052801561046257816020015b606081526020019060019003908161044d5790505b50905060005b828110156105a0576000803086868581811061048657610486611ce0565b90506020028101906104989190611cf6565b6040516104a6929190611d43565b600060405180830381855af49150503d80600081146104e1576040519150601f19603f3d011682016040523d82523d6000602084013e6104e6565b606091505b50915091508161056d5760448151101561053957604051635d2f436f60e11b815260206004820152600e60248201526d125b9d985b1a590814995cdd5b1d60921b60448201526064015b60405180910390fd5b600481019050808060200190518101906105539190611d83565b604051635d2f436f60e11b81526004016105309190611c57565b8084848151811061058057610580611ce0565b60200260200101819052505050808061059890611de1565b915050610468565b5092915050565b60005b95945050505050565b60006001600160a01b03861630146105cd575060006105aa565b5063f23a6e6160e01b6105aa565b6000806105ea83850185611dfc565b9150915081156106ce5760008060008380602001905181019061060d9190611e4b565b92509250925061063f7f0000000000000000000000000000000000000000000000000000000000000000848484610bee565b6000336001600160a01b0316633850c7bd6040518163ffffffff1660e01b815260040160e06040518083038186803b15801561067a57600080fd5b505afa15801561068e573d6000803e3d6000fd5b505050506040513d601f19601f820116820180604052508101906106b29190611eaf565b50505050505090506106c58a8a83610c2e565b505050506106d9565b6106d9868683610c60565b505050505050565b6060600080806106f460e0860186611cf6565b8101906107019190611f4e565b9194509250905060006107507f000000000000000000000000000000000000000000000000000000000000000061073b6020890189611c6a565b61074b60408a0160208b01611c6a565b610cb5565b9050600080826001600160a01b0316637087c1f66040518060e001604052808b6040013581526020018b606001358152602001896001600160a01b03168152602001886001600160a01b03168152602001600060028111156107b4576107b4611f8f565b8152602001878152602001604051806020016040528060008152508152506040518263ffffffff1660e01b81526004016107ee9190611fa5565b600060405180830381600087803b15801561080857600080fd5b505af115801561081c573d6000803e3d6000fd5b505050506040513d6000823e601f3d908101601f19168201604052610844919081019061204b565b5050604080516020810182526000815290516304d948b760e51b815260048101849052602481018390529099509193509150604401610530565b60808082015160a083015160c0840151604080516001600160a01b03948516602082015293909216918301919091526060820152600091829182910160408051808303601f190181526101608301825286516001600160a01b039081168452602080890151821690850152878301518484015260608089015190850152306080850181905260a0850181905260c080860191909152600060e086018190526101008601528801516101208501526101408401829052915163a38d7a1760e01b81529093507f00000000000000000000000000000000000000000000000000000000000000009091169163a38d7a179161097a91906004016120a4565b600060405180830381600087803b15801561099457600080fd5b505af19250505080156109c957506040513d6000823e601f3d908101601f191682016040526109c69190810190612175565b60015b610a30573d8080156109f7576040519150601f19603f3d011682016040523d82523d6000602084013e6109fc565b606091505b50610a0e816304d948b760e51b610ce1565b915081806020019051810190610a2491906121a9565b9094509250610a329050565b505b50915091565b60008085610a465783610a48565b845b91506000610a787f00000000000000000000000000000000000000000000000000000000000000008d8d8c610d4f565b905086610a855785610a87565b845b15610b6457604080516001600160a01b038e811660208301528d168183015262ffffff8b166060808301919091528251808303909101815260808201909252610ad790600190839060a0016121cd565b60408051601f1981840301815260c0830182526001600160a01b038c1683528a1560208401526001918301919091529150600090610b4b90606081018b610b1e578a610b20565b895b815260200188610b30578e610b33565b60005b81526020018490526001600160a01b03851690610d79565b95509150610b5b905081866121e8565b94505050610bdf565b806001600160a01b0316633850c7bd6040518163ffffffff1660e01b815260040160e06040518083038186803b158015610b9d57600080fd5b505afa158015610bb1573d6000803e3d6000fd5b505050506040513d601f19601f82011682018060405250810190610bd59190611eaf565b5094965050505050505b50995099975050505050505050565b6000610bfc858585856110b8565b90506001600160a01b0381163314610c27576040516307c1698f60e01b815260040160405180910390fd5b5050505050565b604051633ab8e87b60e21b815260048101849052602481018390526001600160a01b0382166044820152606401610530565b600080600083806020019051810190610c799190611e4b565b925092509250610cab7f0000000000000000000000000000000000000000000000000000000000000000848484610bee565b6106d98686611148565b6000610cc284848461116b565b90506001600160a01b038116610cda57610cda6111f0565b9392505050565b81516060906020610cf3600483612200565b610cfd919061222d565b158015610d2557506001600160e01b03198316610d1985612241565b6001600160e01b031916145b15610d4757610d3f846004610d3a8185612200565b611209565b9150506102b5565b835184602001fd5b6000610d5d858585856110b8565b9050610d71816001600160a01b0316611316565b949350505050565b6000806000846001600160a01b0316633850c7bd6040518163ffffffff1660e01b815260040160e06040518083038186803b158015610db757600080fd5b505afa158015610dcb573d6000803e3d6000fd5b505050506040513d601f19601f82011682018060405250810190610def9190611eaf565b505050608088015193945060009315159250610e45915050578460200151610e3557610e30600173fffd8963efd1fc6a506488495d951d5263988d26612278565b610e52565b610e306401000276a360016122a0565b610e528560800151611340565b90506401000276a36001600160a01b03821611610e7c57610e796401000276a360016122a0565b90505b73fffd8963efd1fc6a506488495d951d5263988d266001600160a01b03821610610ec257610ebf600173fffd8963efd1fc6a506488495d951d5263988d26612278565b90505b8460200151610ee557806001600160a01b0316826001600160a01b031610610efb565b806001600160a01b0316826001600160a01b0316115b1561103557600080876001600160a01b031663128acb083089602001518a60400151610f3c57610f2e8b60600151611390565b610f37906122cb565b610f49565b610f498b60600151611390565b878c60a001516040518663ffffffff1660e01b8152600401610f6f9594939291906122e8565b6040805180830381600087803b158015610f8857600080fd5b505af1925050508015610fb8575060408051601f3d908101601f19168201909252610fb5918101906121a9565b60015b611003573d808015610fe6576040519150601f19603f3d011682016040523d82523d6000602084013e610feb565b606091505b50610ff5816113a6565b965090935091506110069050565b50505b866020015161101e5780611019836122cb565b611028565b81611028826122cb565b90965094506110b0915050565b856001600160a01b0316633850c7bd6040518163ffffffff1660e01b815260040160e06040518083038186803b15801561106e57600080fd5b505afa158015611082573d6000803e3d6000fd5b505050506040513d601f19601f820116820180604052508101906110a69190611eaf565b5094965050505050505b509250925092565b604051630b4c774160e11b81526001600160a01b038481166004830152838116602483015262ffffff8316604483015260009190861690631698ee829060640160206040518083038186803b15801561111057600080fd5b505afa158015611124573d6000803e3d6000fd5b505050506040513d601f19601f820116820180604052508101906105aa9190612323565b6040516377760aaf60e11b81526004810183905260248101829052604401610530565b60405163d81e842360e01b81526001600160a01b03838116600483015282811660248301526000919085169063d81e84239060440160206040518083038186803b1580156111b857600080fd5b505afa1580156111cc573d6000803e3d6000fd5b505050506040513d601f19601f82011682018060405250810190610d719190612323565b60405163d92e233d60e01b815260040160405180910390fd5b60608161121781601f6121e8565b10156112565760405162461bcd60e51b815260206004820152600e60248201526d736c6963655f6f766572666c6f7760901b6044820152606401610530565b61126082846121e8565b845110156112a45760405162461bcd60e51b8152602060048201526011602482015270736c6963655f6f75744f66426f756e647360781b6044820152606401610530565b6060821580156112c3576040519150600082526020820160405261130d565b6040519150601f8416801560200281840101858101878315602002848b0101015b818310156112fc5780518352602092830192016112e4565b5050858452601f01601f1916604052505b50949350505050565b6001600160a01b03811661133d5760405163037064f160e01b815260040160405180910390fd5b50565b60006001600160c01b038211611367576102b5611362604084901b60006113db565b611462565b60008061137d846801000000000000000061148c565b91509150610d71611362838360006114ab565b6000600160ff1b82106113a257600080fd5b5090565b600080806113bb84633ab8e87b60e21b610ce1565b8060200190518101906113ce9190612340565b9250925092509193909250565b60006000198314156113fe57506fffffffffffffffffffffffffffffffff6102b5565b8261140b575060006102b5565b50816001818101901c5b8181101561143d5780915060018182868161143257611432612217565b0401901c9050611415565b50818015611453575082611451828061236e565b105b156102b55780610d7181611de1565b60006001600160a01b038211156113a257604051630ba006e160e41b815260040160405180910390fd5b6000806000198385098385029250828110838203039150509250929050565b6000826114c3576114bc84836113db565b9050610cda565b60006114d28585600019611539565b905060001991505b818110156114f7578091506114f0858583611539565b90506114da565b82156115315760008061150a848561148c565b915091508086118061151b57508187115b1561152e578361152a81611de1565b9450505b50505b509392505050565b6000806115498585856000611578565b9050600061155b8260008660006115fd565b909250905061156e828260026000611578565b9695505050505050565b60008061158686868661166e565b909250905080156115bb57604051636aa917ab60e01b8152600481018790526024810186905260448101859052606401610530565b821561130d576000806115ce848761148c565b91509150808711806115df57508188115b156115f257836115ee81611de1565b9450505b505050949350505050565b818401848110828501810190801561162a578115806116255750611622600183612200565b86115b61162e565b8186115b15611664576040516347b1893f60e01b815260048101889052602481018790526044810186905260648101859052608401610530565b5094509492505050565b60008083611689576116828584600061171d565b9150611715565b60006116948461174f565b905060006116a18561177c565b90505b85156116f5576000806116b7888561148c565b915091506116c7868684846115fd565b90965094506116d6888461148c565b90925090506116e882828b60006115fd565b90995097506116a4915050565b61170d84846117068a89600061171d565b60006115fd565b909450925050505b935093915050565b6000611729838561238d565b9050818015611740575061173d838561222d565b15155b15610cda57806105aa81611de1565b60008161176f576040516301de42a960e41b815260040160405180910390fd5b5060008190030460010190565b60008161179c576040516319dbad9f60e01b815260040160405180910390fd5b5060008190030690565b6000602082840312156117b857600080fd5b81356001600160e01b031981168114610cda57600080fd5b600061010082840312156117e357600080fd5b50919050565b600061010082840312156117fc57600080fd5b610cda83836117d0565b6000806020838503121561181957600080fd5b82356001600160401b038082111561183057600080fd5b818501915085601f83011261184457600080fd5b81358181111561185357600080fd5b8660208260051b850101111561186857600080fd5b60209290920196919550909350505050565b60005b8381101561189557818101518382015260200161187d565b838111156118a4576000848401525b50505050565b600081518084526118c281602086016020860161187a565b601f01601f19169290920160200192915050565b6000602080830181845280855180835260408601915060408160051b870101925083870160005b8281101561192b57603f198886030184526119198583516118aa565b945092850192908501906001016118fd565b5092979650505050505050565b6001600160a01b038116811461133d57600080fd5b634e487b7160e01b600052604160045260246000fd5b604051601f8201601f191681016001600160401b038111828210171561198b5761198b61194d565b604052919050565b600082601f8301126119a457600080fd5b813560206001600160401b038211156119bf576119bf61194d565b8160051b6119ce828201611963565b92835284810182019282810190878511156119e857600080fd5b83870192505b84831015611a07578235825291830191908301906119ee565b979650505050505050565b60006001600160401b03821115611a2b57611a2b61194d565b50601f01601f191660200190565b600082601f830112611a4a57600080fd5b8135611a5d611a5882611a12565b611963565b818152846020838601011115611a7257600080fd5b816020850160208301376000918101602001919091529392505050565b600080600080600060a08688031215611aa757600080fd5b8535611ab281611938565b94506020860135611ac281611938565b935060408601356001600160401b0380821115611ade57600080fd5b611aea89838a01611993565b94506060880135915080821115611b0057600080fd5b611b0c89838a01611993565b93506080880135915080821115611b2257600080fd5b50611b2f88828901611a39565b9150509295509295909350565b600080600080600060a08688031215611b5457600080fd5b8535611b5f81611938565b94506020860135611b6f81611938565b9350604086013592506060860135915060808601356001600160401b03811115611b9857600080fd5b611b2f88828901611a39565b60008060008060608587031215611bba57600080fd5b843593506020850135925060408501356001600160401b0380821115611bdf57600080fd5b818701915087601f830112611bf357600080fd5b813581811115611c0257600080fd5b886020828501011115611c1457600080fd5b95989497505060200194505050565b600060208284031215611c3557600080fd5b81356001600160401b03811115611c4b57600080fd5b610d71848285016117d0565b602081526000610cda60208301846118aa565b600060208284031215611c7c57600080fd5b8135610cda81611938565b801515811461133d57600080fd5b600060208284031215611ca757600080fd5b8135610cda81611c87565b62ffffff8116811461133d57600080fd5b600060208284031215611cd557600080fd5b8135610cda81611cb2565b634e487b7160e01b600052603260045260246000fd5b6000808335601e19843603018112611d0d57600080fd5b8301803591506001600160401b03821115611d2757600080fd5b602001915036819003821315611d3c57600080fd5b9250929050565b8183823760009101908152919050565b6000611d61611a5884611a12565b9050828152838383011115611d7557600080fd5b610cda83602083018461187a565b600060208284031215611d9557600080fd5b81516001600160401b03811115611dab57600080fd5b8201601f81018413611dbc57600080fd5b610d7184825160208401611d53565b634e487b7160e01b600052601160045260246000fd5b6000600019821415611df557611df5611dcb565b5060010190565b60008060408385031215611e0f57600080fd5b8235611e1a81611c87565b915060208301356001600160401b03811115611e3557600080fd5b611e4185828601611a39565b9150509250929050565b600080600060608486031215611e6057600080fd5b8351611e6b81611938565b6020850151909350611e7c81611938565b6040850151909250611e8d81611cb2565b809150509250925092565b805161ffff81168114611eaa57600080fd5b919050565b600080600080600080600060e0888a031215611eca57600080fd5b8751611ed581611938565b8097505060208801518060020b8114611eed57600080fd5b9550611efb60408901611e98565b9450611f0960608901611e98565b9350611f1760808901611e98565b925060a088015160ff81168114611f2d57600080fd5b60c0890151909250611f3e81611c87565b8091505092959891949750929550565b600080600060608486031215611f6357600080fd5b8335611f6e81611938565b92506020840135611f7e81611938565b929592945050506040919091013590565b634e487b7160e01b600052602160045260246000fd5b6020815281516020820152602082015160408201526000604083015160018060a01b038082166060850152806060860151166080850152505060808301516003811061200157634e487b7160e01b600052602160045260246000fd5b8060a08401525060a083015160c083015260c083015160e080840152610d716101008401826118aa565b600082601f83011261203c57600080fd5b610cda83835160208501611d53565b6000806000806080858703121561206157600080fd5b84519350602085015192506040850151915060608501516001600160401b0381111561208c57600080fd5b6120988782880161202b565b91505092959194509250565b602081526120be6020820183516001600160a01b03169052565b600060208301516120da60408401826001600160a01b03169052565b506040830151606083015260608301516080830152608083015161210960a08401826001600160a01b03169052565b5060a08301516001600160a01b03811660c08401525060c08301516001600160a01b03811660e08401525060e083015161010083810191909152830151610120808401919091528301516101408084019190915283015161016080840152610d716101808401826118aa565b60006020828403121561218757600080fd5b81516001600160401b0381111561219d57600080fd5b610d718482850161202b565b600080604083850312156121bc57600080fd5b505080516020909101519092909150565b8215158152604060208201526000610d7160408301846118aa565b600082198211156121fb576121fb611dcb565b500190565b60008282101561221257612212611dcb565b500390565b634e487b7160e01b600052601260045260246000fd5b60008261223c5761223c612217565b500690565b805160208201516001600160e01b031980821692919060048310156122705780818460040360031b1b83161693505b505050919050565b60006001600160a01b038381169083168181101561229857612298611dcb565b039392505050565b60006001600160a01b038281168482168083038211156122c2576122c2611dcb565b01949350505050565b6000600160ff1b8214156122e1576122e1611dcb565b5060000390565b6001600160a01b0386811682528515156020830152604082018590528316606082015260a060808201819052600090611a07908301846118aa565b60006020828403121561233557600080fd5b8151610cda81611938565b60008060006060848603121561235557600080fd5b83519250602084015191506040840151611e8d81611938565b600081600019048311821515161561238857612388611dcb565b500290565b60008261239c5761239c612217565b50049056fea26469706673582212208e0299e3c505b6e924c94585ee6fde511524def48a73bb6476455e490c6dff5464736f6c63430008080033",
  "linkReferences": {},
  "deployedLinkReferences": {}
}