{
  "_format": "hh-sol-artifact-1",
  "contractName": "TimeswapV2PeripheryNoDexQuoterBorrowGivenPrincipal",
  "sourceName": "@timeswap-labs/v2-periphery-nodex/src/lens/TimeswapV2PeripheryNoDexQuoterBorrowGivenPrincipal.sol",
  "abi": [
    {
      "inputs": [
        {
          "internalType": "address",
          "name": "chosenOptionFactory",
          "type": "address"
        },
        {
          "internalType": "address",
          "name": "chosenPoolFactory",
          "type": "address"
        },
        {
          "internalType": "address",
          "name": "chosenTokens",
          "type": "address"
        }
      ],
      "stateMutability": "nonpayable",
      "type": "constructor"
    },
    {
      "inputs": [],
      "name": "CanOnlyBeCalledByOptionContract",
      "type": "error"
    },
    {
      "inputs": [],
      "name": "CanOnlyBeCalledByPoolContract",
      "type": "error"
    },
    {
      "inputs": [],
      "name": "CanOnlyBeCalledByTokensContract",
      "type": "error"
    },
    {
      "inputs": [
        {
          "internalType": "uint256",
          "name": "multiplicand",
          "type": "uint256"
        },
        {
          "internalType": "uint256",
          "name": "multiplier",
          "type": "uint256"
        },
        {
          "internalType": "uint256",
          "name": "divisor",
          "type": "uint256"
        }
      ],
      "name": "MulDivOverflow",
      "type": "error"
    },
    {
      "inputs": [
        {
          "internalType": "string",
          "name": "revertString",
          "type": "string"
        }
      ],
      "name": "MulticallFailed",
      "type": "error"
    },
    {
      "inputs": [
        {
          "internalType": "uint256",
          "name": "minuend",
          "type": "uint256"
        },
        {
          "internalType": "uint256",
          "name": "subtrahend",
          "type": "uint256"
        }
      ],
      "name": "NotEnoughReceived",
      "type": "error"
    },
    {
      "inputs": [
        {
          "internalType": "bytes",
          "name": "data",
          "type": "bytes"
        }
      ],
      "name": "PassOptionMintCallbackInfo",
      "type": "error"
    },
    {
      "inputs": [
        {
          "internalType": "bytes",
          "name": "data",
          "type": "bytes"
        }
      ],
      "name": "PassOptionSwapCallbackInfo",
      "type": "error"
    },
    {
      "inputs": [
        {
          "internalType": "uint160",
          "name": "timeswapV2SqrtInterestRateAfter",
          "type": "uint160"
        },
        {
          "internalType": "bytes",
          "name": "data",
          "type": "bytes"
        }
      ],
      "name": "PassPoolLeverageCallbackInfo",
      "type": "error"
    },
    {
      "inputs": [],
      "name": "ZeroAddress",
      "type": "error"
    },
    {
      "inputs": [
        {
          "components": [
            {
              "internalType": "address",
              "name": "token0",
              "type": "address"
            },
            {
              "internalType": "address",
              "name": "token1",
              "type": "address"
            },
            {
              "internalType": "uint256",
              "name": "strike",
              "type": "uint256"
            },
            {
              "internalType": "uint256",
              "name": "maturity",
              "type": "uint256"
            },
            {
              "internalType": "address",
              "name": "tokenTo",
              "type": "address"
            },
            {
              "internalType": "address",
              "name": "longTo",
              "type": "address"
            },
            {
              "internalType": "bool",
              "name": "isToken0",
              "type": "bool"
            },
            {
              "internalType": "bool",
              "name": "isLong0",
              "type": "bool"
            },
            {
              "internalType": "uint256",
              "name": "tokenAmount",
              "type": "uint256"
            }
          ],
          "internalType": "struct TimeswapV2PeripheryNoDexQuoterBorrowGivenPrincipalParam",
          "name": "param",
          "type": "tuple"
        },
        {
          "internalType": "uint96",
          "name": "durationForward",
          "type": "uint96"
        }
      ],
      "name": "borrowGivenPrincipal",
      "outputs": [
        {
          "internalType": "uint256",
          "name": "positionAmount",
          "type": "uint256"
        },
        {
          "internalType": "uint160",
          "name": "timeswapV2SqrtInterestRateAfter",
          "type": "uint160"
        }
      ],
      "stateMutability": "nonpayable",
      "type": "function"
    },
    {
      "inputs": [
        {
          "internalType": "bytes[]",
          "name": "data",
          "type": "bytes[]"
        }
      ],
      "name": "multicall",
      "outputs": [
        {
          "internalType": "bytes[]",
          "name": "results",
          "type": "bytes[]"
        }
      ],
      "stateMutability": "payable",
      "type": "function"
    },
    {
      "inputs": [],
      "name": "optionFactory",
      "outputs": [
        {
          "internalType": "address",
          "name": "",
          "type": "address"
        }
      ],
      "stateMutability": "view",
      "type": "function"
    },
    {
      "inputs": [],
      "name": "poolFactory",
      "outputs": [
        {
          "internalType": "address",
          "name": "",
          "type": "address"
        }
      ],
      "stateMutability": "view",
      "type": "function"
    },
    {
      "inputs": [
        {
          "components": [
            {
              "internalType": "uint256",
              "name": "strike",
              "type": "uint256"
            },
            {
              "internalType": "uint256",
              "name": "maturity",
              "type": "uint256"
            },
            {
              "internalType": "uint256",
              "name": "token0AndLong0Amount",
              "type": "uint256"
            },
            {
              "internalType": "uint256",
              "name": "token1AndLong1Amount",
              "type": "uint256"
            },
            {
              "internalType": "uint256",
              "name": "shortAmount",
              "type": "uint256"
            },
            {
              "internalType": "bytes",
              "name": "data",
              "type": "bytes"
            }
          ],
          "internalType": "struct TimeswapV2OptionMintCallbackParam",
          "name": "param",
          "type": "tuple"
        }
      ],
      "name": "timeswapV2OptionMintCallback",
      "outputs": [
        {
          "internalType": "bytes",
          "name": "data",
          "type": "bytes"
        }
      ],
      "stateMutability": "nonpayable",
      "type": "function"
    },
    {
      "inputs": [
        {
          "components": [
            {
              "internalType": "uint256",
              "name": "strike",
              "type": "uint256"
            },
            {
              "internalType": "uint256",
              "name": "maturity",
              "type": "uint256"
            },
            {
              "internalType": "bool",
              "name": "isLong0ToLong1",
              "type": "bool"
            },
            {
              "internalType": "uint256",
              "name": "token0AndLong0Amount",
              "type": "uint256"
            },
            {
              "internalType": "uint256",
              "name": "token1AndLong1Amount",
              "type": "uint256"
            },
            {
              "internalType": "bytes",
              "name": "data",
              "type": "bytes"
            }
          ],
          "internalType": "struct TimeswapV2OptionSwapCallbackParam",
          "name": "param",
          "type": "tuple"
        }
      ],
      "name": "timeswapV2OptionSwapCallback",
      "outputs": [
        {
          "internalType": "bytes",
          "name": "data",
          "type": "bytes"
        }
      ],
      "stateMutability": "nonpayable",
      "type": "function"
    },
    {
      "inputs": [
        {
          "components": [
            {
              "internalType": "uint256",
              "name": "strike",
              "type": "uint256"
            },
            {
              "internalType": "uint256",
              "name": "maturity",
              "type": "uint256"
            },
            {
              "internalType": "uint256",
              "name": "long0Amount",
              "type": "uint256"
            },
            {
              "internalType": "uint256",
              "name": "long1Amount",
              "type": "uint256"
            },
            {
              "internalType": "uint256",
              "name": "shortAmount",
              "type": "uint256"
            },
            {
              "internalType": "bytes",
              "name": "data",
              "type": "bytes"
            }
          ],
          "internalType": "struct TimeswapV2PoolLeverageCallbackParam",
          "name": "param",
          "type": "tuple"
        }
      ],
      "name": "timeswapV2PoolLeverageCallback",
      "outputs": [
        {
          "internalType": "bytes",
          "name": "data",
          "type": "bytes"
        }
      ],
      "stateMutability": "nonpayable",
      "type": "function"
    },
    {
      "inputs": [
        {
          "components": [
            {
              "internalType": "uint256",
              "name": "strike",
              "type": "uint256"
            },
            {
              "internalType": "uint256",
              "name": "maturity",
              "type": "uint256"
            },
            {
              "internalType": "uint256",
              "name": "long0Balance",
              "type": "uint256"
            },
            {
              "internalType": "uint256",
              "name": "long1Balance",
              "type": "uint256"
            },
            {
              "internalType": "uint256",
              "name": "longAmount",
              "type": "uint256"
            },
            {
              "internalType": "uint256",
              "name": "shortAmount",
              "type": "uint256"
            },
            {
              "internalType": "bytes",
              "name": "data",
              "type": "bytes"
            }
          ],
          "internalType": "struct TimeswapV2PoolLeverageChoiceCallbackParam",
          "name": "param",
          "type": "tuple"
        }
      ],
      "name": "timeswapV2PoolLeverageChoiceCallback",
      "outputs": [
        {
          "internalType": "uint256",
          "name": "long0Amount",
          "type": "uint256"
        },
        {
          "internalType": "uint256",
          "name": "long1Amount",
          "type": "uint256"
        },
        {
          "internalType": "bytes",
          "name": "data",
          "type": "bytes"
        }
      ],
      "stateMutability": "view",
      "type": "function"
    },
    {
      "inputs": [
        {
          "components": [
            {
              "internalType": "address",
              "name": "token0",
              "type": "address"
            },
            {
              "internalType": "address",
              "name": "token1",
              "type": "address"
            },
            {
              "internalType": "uint256",
              "name": "strike",
              "type": "uint256"
            },
            {
              "internalType": "uint256",
              "name": "maturity",
              "type": "uint256"
            },
            {
              "internalType": "uint256",
              "name": "long0Amount",
              "type": "uint256"
            },
            {
              "internalType": "uint256",
              "name": "long1Amount",
              "type": "uint256"
            },
            {
              "internalType": "uint256",
              "name": "shortAmount",
              "type": "uint256"
            },
            {
              "internalType": "bytes",
              "name": "data",
              "type": "bytes"
            }
          ],
          "internalType": "struct TimeswapV2TokenMintCallbackParam",
          "name": "param",
          "type": "tuple"
        }
      ],
      "name": "timeswapV2TokenMintCallback",
      "outputs": [
        {
          "internalType": "bytes",
          "name": "data",
          "type": "bytes"
        }
      ],
      "stateMutability": "nonpayable",
      "type": "function"
    },
    {
      "inputs": [],
      "name": "tokens",
      "outputs": [
        {
          "internalType": "address",
          "name": "",
          "type": "address"
        }
      ],
      "stateMutability": "view",
      "type": "function"
    }
  ],
  "bytecode": "0x60e06040523480156200001157600080fd5b5060405162002d9638038062002d96833981016040819052620000349162000079565b6001600160601b0319606093841b811660805291831b821660a05290911b1660c052620000c3565b80516001600160a01b03811681146200007457600080fd5b919050565b6000806000606084860312156200008f57600080fd5b6200009a846200005c565b9250620000aa602085016200005c565b9150620000ba604085016200005c565b90509250925092565b60805160601c60a05160601c60c05160601c612c396200015d600039600081816101b2015281816104cf0152818161100f01526112cc01526000818160a8015281816107b30152818161083c01528181610b46015261175b015260008181610206015281816102cd015281816107920152818161081b01528181610b2501528181610fb7015281816112f7015261173a0152612c396000f3fe6080604052600436106100915760003560e01c80639d63848a116100595780639d63848a146101a0578063ac9650d8146101d4578063b3461c87146101f4578063dc4a484714610228578063e13c022c1461024857600080fd5b80634219dc40146100965780634a358d65146100e7578063797481d0146101145780637dd041a4146101435780638662fa6a14610180575b600080fd5b3480156100a257600080fd5b506100ca7f000000000000000000000000000000000000000000000000000000000000000081565b6040516001600160a01b0390911681526020015b60405180910390f35b3480156100f357600080fd5b50610107610102366004611e0e565b610268565b6040516100de9190611f04565b34801561012057600080fd5b5061013461012f366004611f17565b610756565b6040516100de93929190611f51565b34801561014f57600080fd5b5061016361015e366004611f70565b610812565b604080519283526001600160a01b039091166020830152016100de565b34801561018c57600080fd5b5061010761019b366004611fda565b610aee565b3480156101ac57600080fd5b506100ca7f000000000000000000000000000000000000000000000000000000000000000081565b6101e76101e236600461200e565b610df5565b6040516100de9190612082565b34801561020057600080fd5b506100ca7f000000000000000000000000000000000000000000000000000000000000000081565b34801561023457600080fd5b50610107610243366004611fda565b610f82565b34801561025457600080fd5b506101076102633660046120e4565b6112c5565b6040805160e08101825260008082526020820181905291810182905260608181018390526080820183905260a0820183905260c08201929092528260a001518060200190518101906102ba91906121a2565b815160208301519194509192506102f2917f0000000000000000000000000000000000000000000000000000000000000000916113e8565b806080015161030557826060015161030b565b82604001515b8160c00181815161031c9190612282565b90525060a0810151156104cd57805160208201516060830151608084015161034857856060015161034e565b85604001515b8460c00151866040516020016103699695949392919061229a565b60408051601f19818403018152610100830182528551835260208681015190840152838201516001600160a01b03169183019190915230606083015260808084018051159184019190915251909350339163b084c2529160a08201906103d05760006103d3565b60015b60018111156103e4576103e46122e8565b81526020018460a001518152602001858152506040518263ffffffff1660e01b81526004016104139190612312565b600060405180830381600087803b15801561042d57600080fd5b505af192505050801561046257506040513d6000823e601f3d908101601f1916820160405261045f9190810190612398565b60015b6104c5573d808015610490576040519150601f19603f3d011682016040523d82523d6000602084013e610495565b606091505b506104a781636fd90d8560e01b61149e565b9250828060200190518101906104bd91906123e7565b925050610732565b505050610732565b7f00000000000000000000000000000000000000000000000000000000000000006001600160a01b0316634fd991ea60405180610160016040528084600001516001600160a01b0316815260200184602001516001600160a01b03168152602001866000015181526020018660200151815260200184608001516105515730610557565b84606001515b6001600160a01b03168152602001846080015161057857846060015161057a565b305b6001600160a01b03168152602001306001600160a01b0316815260200184608001516105a75760006105ad565b8460c001515b815260200184608001516105c5578460c001516105c8565b60005b815260200160008152602001604051806020016040528060008152508152506040518263ffffffff1660e01b8152600401610603919061241b565b600060405180830381600087803b15801561061d57600080fd5b505af1158015610631573d6000803e3d6000fd5b505050506040513d6000823e601f3d908101601f1916820160405261065991908101906123e7565b50610707604051806101400160405280336001600160a01b0316815260200183600001516001600160a01b0316815260200183602001516001600160a01b03168152602001856000015181526020018560200151815260200183608001511515815260200183608001516106ce5760006106d4565b85604001515b815260200183608001516106ec5785606001516106ef565b60005b815260c0840151602082015260400184905250606090565b91508060c00151826040516020016107209291906124ec565b60405160208183030381529060405291505b81604051632e1c70f360e11b815260040161074d9190611f04565b60405180910390fd5b6000806060818080808061076d60c08a018a612505565b81019061077a9190612552565b919e509c509a509398509196509450925090506107d97f00000000000000000000000000000000000000000000000000000000000000007f00000000000000000000000000000000000000000000000000000000000000008787611512565b5084848484848a6040516020016107f5969594939291906125ff565b604051602081830303815290604052955050505050509193909250565b6000808061087d7f00000000000000000000000000000000000000000000000000000000000000007f00000000000000000000000000000000000000000000000000000000000000006108686020890189612643565b61087860408a0160208b01612643565b61164a565b60408051633a9d71e760e01b8152908801356004820152606088013560248201529092506000915081906001600160a01b03841690633a9d71e790604401604080518083038186803b1580156108d257600080fd5b505afa1580156108e6573d6000803e3d6000fd5b505050506040513d601f19601f8201168201806040525081019061090a9190612660565b909250905061091f60e0880160c08901612684565b1561093857610933828861010001356116ff565b610947565b610947818861010001356116ff565b60003361095a60a08a0160808b01612643565b61096a60e08b0160c08c01612684565b604080516001600160a01b03948516602082015293909216918301919091521515606082015260800160408051601f1981840301815261014083019091529150610add90806109bc60208c018c612643565b6001600160a01b031681526020018a60200160208101906109dd9190612643565b6001600160a01b031681526020018a6040013581526020018a6060013581526020018a60e0016020810190610a129190612684565b1515610a2460e08d0160c08e01612684565b151514610a4057610a3b60a08c0160808d01612643565b610a42565b305b6001600160a01b03168152602001610a6060c08c0160a08d01612643565b6001600160a01b03168152602001610a7f6101008c0160e08d01612684565b15158152602001610a9660e08c0160c08d01612684565b610aa1576000610aa8565b8a61010001355b8152602001610abd60e08c0160c08d01612684565b610acc578a6101000135610acf565b60005b81526020018390528861172e565b919a91995090975050505050505050565b6060600080808080610b0360a0880188612505565b810190610b1091906126a1565b9a509398509196509450925090506000610b6c7f00000000000000000000000000000000000000000000000000000000000000007f00000000000000000000000000000000000000000000000000000000000000008888611512565b90506040518060e00160405280876001600160a01b03168152602001866001600160a01b03168152602001856001600160a01b03168152602001846001600160a01b03168152602001831515815260200183610bcc578960400135610bd2565b89606001355b815260200183610be6578960600135610bec565b89604001355b9052604051610c0091908990602001612739565b60408051601f19818403018152610120830182528a35835260208b8101359084015230918301829052606083019190915233608083015297506001600160a01b038216906380e066799060a081016001815260200185610c61576000610c67565b8b608001355b815260200185610c7b578b60800135610c7e565b60005b81526020018a8152506040518263ffffffff1660e01b8152600401610ca391906127a2565b600060405180830381600087803b158015610cbd57600080fd5b505af1925050508015610cf257506040513d6000823e601f3d908101601f19168201604052610cef9190810190612844565b60015b610d55573d808015610d20576040519150601f19603f3d011682016040523d82523d6000602084013e610d25565b606091505b50610d3781632e1c70f360e11b61149e565b975087806020019051810190610d4d91906123e7565b975050610d5a565b505050505b60405163a8f403b760e01b81528835600482015260208901356024820152600090339063a8f403b79060440160206040518083038186803b158015610d9e57600080fd5b505afa158015610db2573d6000803e3d6000fd5b505050506040513d601f19601f82011682018060405250810190610dd6919061289d565b905080886040516312201d1760e31b815260040161074d9291906128ba565b6060816001600160401b03811115610e0f57610e0f611d01565b604051908082528060200260200182016040528015610e4257816020015b6060815260200190600190039081610e2d5790505b50905060005b82811015610f7b5760008030868685818110610e6657610e666128de565b9050602002810190610e789190612505565b604051610e869291906128f4565b600060405180830381855af49150503d8060008114610ec1576040519150601f19603f3d011682016040523d82523d6000602084013e610ec6565b606091505b509150915081610f4857604481511015610f1457604051635d2f436f60e11b815260206004820152600e60248201526d125b9d985b1a590814995cdd5b1d60921b604482015260640161074d565b60048101905080806020019051810190610f2e9190612904565b604051635d2f436f60e11b815260040161074d9190611f04565b80848481518110610f5b57610f5b6128de565b602002602001018190525050508080610f739061294c565b915050610e48565b5092915050565b6060600080808080610f9760a0880188612505565b810190610fa49190612967565b9a50939850919650945092509050610fdd7f000000000000000000000000000000000000000000000000000000000000000086866113e8565b610fed6060880160408901612684565b610ffb578660600135611001565b86608001355b61100b9082612282565b90507f00000000000000000000000000000000000000000000000000000000000000006001600160a01b0316634fd991ea604051806101600160405280886001600160a01b03168152602001876001600160a01b031681526020018a6000013581526020018a6020013581526020018a604001602081019061108d9190612684565b6110975786611099565b305b6001600160a01b031681526020016110b760608c0160408d01612684565b6110c157306110c3565b865b6001600160a01b031681523060208201526040908101906110ea9060608d01908d01612684565b6110f457846110f7565b60005b815260200161110c60608c0160408d01612684565b611117576000611119565b845b815260200160008152602001604051806020016040528060008152508152506040518263ffffffff1660e01b8152600401611154919061241b565b600060405180830381600087803b15801561116e57600080fd5b505af1158015611182573d6000803e3d6000fd5b505050506040513d6000823e601f3d908101601f191682016040526111aa91908101906123e7565b50611284604051806101400160405280336001600160a01b03168152602001876001600160a01b03168152602001866001600160a01b03168152602001896000013581526020018960200135815260200189604001602081019061120e9190612684565b15815260200161122460608b0160408c01612684565b61122e5784611231565b60005b61123f9060608c0135612282565b815260200161125460608b0160408c01612684565b61125f576000611261565b845b61126f9060808c0135612282565b81526020018381526020018881525050606090565b955080866040516020016112999291906124ec565b604051602081830303815290604052955085604051636fd90d8560e01b815260040161074d9190611f04565b60606112f07f000000000000000000000000000000000000000000000000000000000000000061193a565b60006113387f00000000000000000000000000000000000000000000000000000000000000006113236020860186612643565b6113336040870160208801612643565b611966565b90506001600160a01b03811663b2ceca7760408501356060860135336080880135611364576001611367565b60005b608089013561137a578860a00135611380565b88608001355b6040518663ffffffff1660e01b81526004016113a09594939291906129d4565b600060405180830381600087803b1580156113ba57600080fd5b505af11580156113ce573d6000803e3d6000fd5b505060408051602081019091526000815295945050505050565b60405163d81e842360e01b81526001600160a01b03838116600483015282811660248301526000919085169063d81e84239060440160206040518083038186803b15801561143557600080fd5b505afa158015611449573d6000803e3d6000fd5b505050506040513d601f19601f8201168201806040525081019061146d919061289d565b90506001600160a01b03811633146114985760405163a5fbb7d960e01b815260040160405180910390fd5b50505050565b815160609060206114b0600483612a14565b6114ba9190612a41565b1580156114e257506001600160e01b031983166114d685612a55565b6001600160e01b031916145b15611504576114fc8460046114f78185612a14565b6119f3565b91505061150c565b835184602001fd5b92915050565b60405163d81e842360e01b81526001600160a01b03838116600483015282811660248301526000919086169063d81e84239060440160206040518083038186803b15801561155f57600080fd5b505afa158015611573573d6000803e3d6000fd5b505050506040513d601f19601f82011682018060405250810190611597919061289d565b6040516330af0bbf60e21b81526001600160a01b03808316600483015291925060009186169063c2bc2efc9060240160206040518083038186803b1580156115de57600080fd5b505afa1580156115f2573d6000803e3d6000fd5b505050506040513d601f19601f82011682018060405250810190611616919061289d565b90506001600160a01b03811633146116415760405163863b47e760e01b815260040160405180910390fd5b50949350505050565b6000806116616001600160a01b0387168585611b02565b6040516330af0bbf60e21b81526001600160a01b0380831660048301529193509086169063c2bc2efc9060240160206040518083038186803b1580156116a657600080fd5b505afa1580156116ba573d6000803e3d6000fd5b505050506040513d601f19601f820116820180604052508101906116de919061289d565b90506001600160a01b0381166116f6576116f6611b23565b94509492505050565b8082101561172a57604051631c22ff0160e21b8152600481018390526024810182905260440161074d565b5050565b600060606000806117897f00000000000000000000000000000000000000000000000000000000000000007f00000000000000000000000000000000000000000000000000000000000000008860000151896020015161164a565b9150508560000151866020015187608001518860a001518960c001518a60e001518b61010001518c61012001516040516020016117cd989796959493929190612a8c565b60408051601f1981840301815260e0830182528882015183526060808a015160208501523092840183905283019190915293506001600160a01b03821690639eee6e519060808101600181526020016118368a60e001518b61010001518c604001516001611b3c565b815260200186815250876040518363ffffffff1660e01b815260040161185d929190612aee565b600060405180830381600087803b15801561187757600080fd5b505af19250505080156118ac57506040513d6000823e601f3d908101601f191682016040526118a99190810190612844565b60015b611912573d8080156118da576040519150601f19603f3d011682016040523d82523d6000602084013e6118df565b606091505b506118f1816312201d1760e31b61149e565b9350838060200190518101906119079190612b85565b945092506119179050565b505050505b8280602001905181019061192b9190612bbf565b90979096509194509092505050565b6001600160a01b03811633146119635760405163d2bc8fc960e01b815260040160405180910390fd5b50565b60405163d81e842360e01b81526001600160a01b03838116600483015282811660248301526000919085169063d81e84239060440160206040518083038186803b1580156119b357600080fd5b505afa1580156119c7573d6000803e3d6000fd5b505050506040513d601f19601f820116820180604052508101906119eb919061289d565b949350505050565b606081611a0181601f612282565b1015611a405760405162461bcd60e51b815260206004820152600e60248201526d736c6963655f6f766572666c6f7760901b604482015260640161074d565b611a4a8284612282565b84511015611a8e5760405162461bcd60e51b8152602060048201526011602482015270736c6963655f6f75744f66426f756e647360781b604482015260640161074d565b606082158015611aad5760405191506000825260208201604052611af7565b6040519150601f8416801560200281840101858101878315602002848b0101015b81831015611ae6578051835260209283019201611ace565b5050858452601f01601f1916604052505b5090505b9392505050565b6000611b0f848484611966565b90506001600160a01b038116611afb57611afb5b60405163d92e233d60e01b815260040160405180910390fd5b60006fffffffffffffffffffffffffffffffff8311611b7157611b628584600185611b91565b611b6c9085612282565b611b88565b611b7e8484600085611b91565b611b889086612282565b95945050505050565b600082611ba857611b6c85600160801b8685611bb4565b611b888585600160801b855b6000806000611bc38787611cb0565b915091508060001415611be457611bdb828686611ccf565b925050506119eb565b808511611c155760405163362ced0960e11b815260048101889052602481018790526044810186905260640161074d565b600085878909600087810388169788900497600260038a028118808b02820302808b02820302808b02820302808b02820302808b02820302808b02909103029181900381900460010186841190950394850292909503949094041792830293508490508015611c9357508480611c8d57611c8d612a2b565b86880915155b15611ca65782611ca28161294c565b9350505b5050949350505050565b6000806000198385098385029250828110838203039150509250929050565b6000611cdb8385612bef565b9050818015611cf25750611cef8385612a41565b15155b15611afb5780611b888161294c565b634e487b7160e01b600052604160045260246000fd5b60405160c081016001600160401b0381118282101715611d3957611d39611d01565b60405290565b60405160e081016001600160401b0381118282101715611d3957611d39611d01565b604051601f8201601f191681016001600160401b0381118282101715611d8957611d89611d01565b604052919050565b60006001600160401b03821115611daa57611daa611d01565b50601f01601f191660200190565b600082601f830112611dc957600080fd5b8135611ddc611dd782611d91565b611d61565b818152846020838601011115611df157600080fd5b816020850160208301376000918101602001919091529392505050565b600060208284031215611e2057600080fd5b81356001600160401b0380821115611e3757600080fd5b9083019060c08286031215611e4b57600080fd5b611e53611d17565b823581526020830135602082015260408301356040820152606083013560608201526080830135608082015260a083013582811115611e9157600080fd5b611e9d87828601611db8565b60a08301525095945050505050565b60005b83811015611ec7578181015183820152602001611eaf565b838111156114985750506000910152565b60008151808452611ef0816020860160208601611eac565b601f01601f19169290920160200192915050565b602081526000611afb6020830184611ed8565b600060208284031215611f2957600080fd5b81356001600160401b03811115611f3f57600080fd5b820160e08185031215611afb57600080fd5b838152826020820152606060408201526000611b886060830184611ed8565b600080828403610140811215611f8557600080fd5b61012080821215611f9557600080fd5b84935083013590506bffffffffffffffffffffffff81168114611fb757600080fd5b809150509250929050565b600060c08284031215611fd457600080fd5b50919050565b600060208284031215611fec57600080fd5b81356001600160401b0381111561200257600080fd5b6119eb84828501611fc2565b6000806020838503121561202157600080fd5b82356001600160401b038082111561203857600080fd5b818501915085601f83011261204c57600080fd5b81358181111561205b57600080fd5b8660208260051b850101111561207057600080fd5b60209290920196919550909350505050565b6000602080830181845280855180835260408601915060408160051b870101925083870160005b828110156120d757603f198886030184526120c5858351611ed8565b945092850192908501906001016120a9565b5092979650505050505050565b6000602082840312156120f657600080fd5b81356001600160401b0381111561210c57600080fd5b82016101008185031215611afb57600080fd5b6001600160a01b038116811461196357600080fd5b801515811461196357600080fd5b805161214d81612134565b919050565b6000612160611dd784611d91565b905082815283838301111561217457600080fd5b611afb836020830184611eac565b600082601f83011261219357600080fd5b611afb83835160208501612152565b6000808284036101008112156121b757600080fd5b60e08112156121c557600080fd5b506121ce611d3f565b83516121d98161211f565b815260208401516121e98161211f565b602082015260408401516121fc8161211f565b6040820152606084015161220f8161211f565b606082015261222060808501612142565b608082015260a084015160a082015260c084015160c08201528092505060e08301516001600160401b0381111561225657600080fd5b61226285828601612182565b9150509250929050565b634e487b7160e01b600052601160045260246000fd5b600082198211156122955761229561226c565b500190565b6001600160a01b038781168252868116602083015285166040820152606081018490526080810183905260c060a082018190526000906122dc90830184611ed8565b98975050505050505050565b634e487b7160e01b600052602160045260246000fd5b6002811061230e5761230e6122e8565b9052565b6020815281516020820152602082015160408201526000604083015160018060a01b0380821660608501528060608601511660808501525050608083015161235e60a084018215159052565b5060a083015161237160c08401826122fe565b5060c083015160e083015260e08301516101008081850152506119eb610120840182611ed8565b6000806000606084860312156123ad57600080fd5b835192506020840151915060408401516001600160401b038111156123d157600080fd5b6123dd86828701612182565b9150509250925092565b6000602082840312156123f957600080fd5b81516001600160401b0381111561240f57600080fd5b6119eb84828501612182565b602081526124356020820183516001600160a01b03169052565b6000602083015161245160408401826001600160a01b03169052565b506040830151606083015260608301516080830152608083015161248060a08401826001600160a01b03169052565b5060a08301516001600160a01b03811660c08401525060c08301516001600160a01b03811660e08401525060e0830151610100838101919091528301516101208084019190915283015161014080840191909152830151610160808401526119eb610180840182611ed8565b8281526040602082015260006119eb6040830184611ed8565b6000808335601e1984360301811261251c57600080fd5b8301803591506001600160401b0382111561253657600080fd5b60200191503681900382131561254b57600080fd5b9250929050565b600080600080600080600080610100898b03121561256f57600080fd5b883561257a8161211f565b9750602089013561258a8161211f565b9650604089013561259a8161211f565b955060608901356125aa8161211f565b945060808901356125ba81612134565b935060a0890135925060c0890135915060e08901356001600160401b038111156125e357600080fd5b6125ef8b828c01611db8565b9150509295985092959890939650565b6001600160a01b0387811682528681166020830152858116604083015284166060820152821515608082015260c060a082018190526000906122dc90830184611ed8565b60006020828403121561265557600080fd5b8135611afb8161211f565b6000806040838503121561267357600080fd5b505080516020909101519092909150565b60006020828403121561269657600080fd5b8135611afb81612134565b60008060008060008060c087890312156126ba57600080fd5b86356126c58161211f565b955060208701356126d58161211f565b945060408701356126e58161211f565b935060608701356126f58161211f565b9250608087013561270581612134565b915060a08701356001600160401b0381111561272057600080fd5b61272c89828a01611db8565b9150509295509295509295565b600061010060018060a01b038086511684528060208701511660208501528060408701511660408501528060608701511660608501525060808501511515608084015260a085015160a084015260c085015160c08401528060e0840152611b8881840185611ed8565b602081528151602082015260208201516040820152600060408301516127d360608401826001600160a01b03169052565b5060608301516001600160a01b03811660808401525060808301516001600160a01b03811660a08401525060a083015161281060c08401826122fe565b5060c083015160e08381019190915283015161010080840191909152830151610120808401526119eb610140840182611ed8565b6000806000806080858703121561285a57600080fd5b84519350602085015192506040850151915060608501516001600160401b0381111561288557600080fd5b61289187828801612182565b91505092959194509250565b6000602082840312156128af57600080fd5b8151611afb8161211f565b6001600160a01b03831681526040602082018190526000906119eb90830184611ed8565b634e487b7160e01b600052603260045260246000fd5b8183823760009101908152919050565b60006020828403121561291657600080fd5b81516001600160401b0381111561292c57600080fd5b8201601f8101841361293d57600080fd5b6119eb84825160208401612152565b60006000198214156129605761296061226c565b5060010190565b60008060008060008060c0878903121561298057600080fd5b863561298b8161211f565b9550602087013561299b8161211f565b945060408701356129ab8161211f565b9350606087013592506080870135915060a08701356001600160401b0381111561272057600080fd5b858152602081018590526001600160a01b038416604082015260a0810160038410612a0157612a016122e8565b6060820193909352608001529392505050565b600082821015612a2657612a2661226c565b500390565b634e487b7160e01b600052601260045260246000fd5b600082612a5057612a50612a2b565b500690565b805160208201516001600160e01b03198082169291906004831015612a845780818460040360031b1b83161693505b505050919050565b6001600160a01b0389811682528881166020830152878116604083015286166060820152841515608082015260a0810184905260c0810183905261010060e08201819052600090612adf83820185611ed8565b9b9a5050505050505050505050565b6040815282516040820152602083015160608201526000604084015160018060a01b0380821660808501528060608701511660a08501525050608084015160048110612b3c57612b3c6122e8565b8060c08401525060a084015160e083015260c084015160e0610100840152612b68610120840182611ed8565b915050611afb60208301846bffffffffffffffffffffffff169052565b60008060408385031215612b9857600080fd5b8251612ba38161211f565b60208401519092506001600160401b0381111561225657600080fd5b60008060408385031215612bd257600080fd5b8251915060208301516001600160401b0381111561225657600080fd5b600082612bfe57612bfe612a2b565b50049056fea26469706673582212204e6ff67c2c4e5cb7d9b0d05ed93788d140c9101c0ebcba70a09c98feacfa3a8364736f6c63430008080033",
  "linkReferences": {},
  "deployedLinkReferences": {}
}