{
  "_format": "hh-sol-artifact-1",
  "contractName": "TimeswapV2PeripheryUniswapV3AddLiquidityGivenPrincipal",
  "sourceName": "@timeswap-labs/v2-periphery-uniswapV3/contracts/TimeswapV2PeripheryUniswapV3AddLiquidityGivenPrincipal.sol",
  "abi": [
    {
      "inputs": [
        {
          "internalType": "address",
          "name": "chosenOptionFactory",
          "type": "address"
        },
        {
          "internalType": "address",
          "name": "chosenPoolFactory",
          "type": "address"
        },
        {
          "internalType": "address",
          "name": "chosenTokens",
          "type": "address"
        },
        {
          "internalType": "address",
          "name": "chosenLiquidityTokens",
          "type": "address"
        },
        {
          "internalType": "address",
          "name": "chosenUniswapV3Factory",
          "type": "address"
        },
        {
          "internalType": "address",
          "name": "chosenNative",
          "type": "address"
        }
      ],
      "stateMutability": "nonpayable",
      "type": "constructor"
    },
    {
      "inputs": [
        {
          "internalType": "uint256",
          "name": "addendA0",
          "type": "uint256"
        },
        {
          "internalType": "uint256",
          "name": "addendA1",
          "type": "uint256"
        },
        {
          "internalType": "uint256",
          "name": "addendB0",
          "type": "uint256"
        },
        {
          "internalType": "uint256",
          "name": "addendB1",
          "type": "uint256"
        }
      ],
      "name": "AddOverflow",
      "type": "error"
    },
    {
      "inputs": [],
      "name": "CanOnlyBeCalledByLiquidityTokensContract",
      "type": "error"
    },
    {
      "inputs": [],
      "name": "CanOnlyBeCalledByOptionContract",
      "type": "error"
    },
    {
      "inputs": [],
      "name": "CanOnlyBeCalledByPoolContract",
      "type": "error"
    },
    {
      "inputs": [],
      "name": "CanOnlyBeCalledByTokensContract",
      "type": "error"
    },
    {
      "inputs": [],
      "name": "CanOnlyBeCalledByUniswapV3Contract",
      "type": "error"
    },
    {
      "inputs": [
        {
          "internalType": "uint256",
          "name": "deadline",
          "type": "uint256"
        }
      ],
      "name": "DeadlineReached",
      "type": "error"
    },
    {
      "inputs": [
        {
          "internalType": "uint256",
          "name": "dividend0",
          "type": "uint256"
        },
        {
          "internalType": "uint256",
          "name": "dividend1",
          "type": "uint256"
        },
        {
          "internalType": "uint256",
          "name": "divisor",
          "type": "uint256"
        }
      ],
      "name": "DivOverflow",
      "type": "error"
    },
    {
      "inputs": [],
      "name": "DivideByZero",
      "type": "error"
    },
    {
      "inputs": [
        {
          "internalType": "uint256",
          "name": "excessLong0Amount",
          "type": "uint256"
        },
        {
          "internalType": "uint256",
          "name": "minExcessLong0Amount",
          "type": "uint256"
        }
      ],
      "name": "MinExcessLong0Reached",
      "type": "error"
    },
    {
      "inputs": [
        {
          "internalType": "uint256",
          "name": "excessLong1Amount",
          "type": "uint256"
        },
        {
          "internalType": "uint256",
          "name": "minExcessLong1Amount",
          "type": "uint256"
        }
      ],
      "name": "MinExcessLong1Reached",
      "type": "error"
    },
    {
      "inputs": [
        {
          "internalType": "uint256",
          "name": "excessShortAmount",
          "type": "uint256"
        },
        {
          "internalType": "uint256",
          "name": "minExcessShortAmount",
          "type": "uint256"
        }
      ],
      "name": "MinExcessShortReached",
      "type": "error"
    },
    {
      "inputs": [
        {
          "internalType": "uint160",
          "name": "liquidityAmount",
          "type": "uint160"
        },
        {
          "internalType": "uint160",
          "name": "minLiquidityAmount",
          "type": "uint160"
        }
      ],
      "name": "MinLiquidityReached",
      "type": "error"
    },
    {
      "inputs": [],
      "name": "ModuloByZero",
      "type": "error"
    },
    {
      "inputs": [
        {
          "internalType": "uint256",
          "name": "multiplicand",
          "type": "uint256"
        },
        {
          "internalType": "uint256",
          "name": "multiplier",
          "type": "uint256"
        },
        {
          "internalType": "uint256",
          "name": "divisor",
          "type": "uint256"
        }
      ],
      "name": "MulDivOverflow",
      "type": "error"
    },
    {
      "inputs": [
        {
          "internalType": "string",
          "name": "revertString",
          "type": "string"
        }
      ],
      "name": "MulticallFailed",
      "type": "error"
    },
    {
      "inputs": [
        {
          "internalType": "address",
          "name": "to",
          "type": "address"
        },
        {
          "internalType": "uint256",
          "name": "value",
          "type": "uint256"
        }
      ],
      "name": "NativeTransferFailed",
      "type": "error"
    },
    {
      "inputs": [
        {
          "internalType": "int256",
          "name": "amount0",
          "type": "int256"
        },
        {
          "internalType": "int256",
          "name": "amount1",
          "type": "int256"
        }
      ],
      "name": "PassCalculateInfo",
      "type": "error"
    },
    {
      "inputs": [],
      "name": "Uint160Overflow",
      "type": "error"
    },
    {
      "inputs": [],
      "name": "ZeroAddress",
      "type": "error"
    },
    {
      "inputs": [],
      "name": "ZeroPoolAddress",
      "type": "error"
    },
    {
      "anonymous": false,
      "inputs": [
        {
          "indexed": true,
          "internalType": "address",
          "name": "token0",
          "type": "address"
        },
        {
          "indexed": true,
          "internalType": "address",
          "name": "token1",
          "type": "address"
        },
        {
          "indexed": false,
          "internalType": "uint256",
          "name": "strike",
          "type": "uint256"
        },
        {
          "indexed": true,
          "internalType": "uint256",
          "name": "maturity",
          "type": "uint256"
        },
        {
          "indexed": false,
          "internalType": "uint24",
          "name": "uniswapV3Fee",
          "type": "uint24"
        },
        {
          "indexed": false,
          "internalType": "address",
          "name": "from",
          "type": "address"
        },
        {
          "indexed": false,
          "internalType": "address",
          "name": "to",
          "type": "address"
        },
        {
          "indexed": false,
          "internalType": "bool",
          "name": "isToken0",
          "type": "bool"
        },
        {
          "indexed": false,
          "internalType": "uint256",
          "name": "tokenAmount",
          "type": "uint256"
        },
        {
          "indexed": false,
          "internalType": "uint256",
          "name": "liquidityAmount",
          "type": "uint256"
        },
        {
          "indexed": false,
          "internalType": "uint256",
          "name": "excessLong0Amount",
          "type": "uint256"
        },
        {
          "indexed": false,
          "internalType": "uint256",
          "name": "excessLong1Amount",
          "type": "uint256"
        },
        {
          "indexed": false,
          "internalType": "uint256",
          "name": "excessShortAmount",
          "type": "uint256"
        }
      ],
      "name": "AddLiquidityGivenPrincipal",
      "type": "event"
    },
    {
      "inputs": [
        {
          "components": [
            {
              "internalType": "address",
              "name": "token0",
              "type": "address"
            },
            {
              "internalType": "address",
              "name": "token1",
              "type": "address"
            },
            {
              "internalType": "uint256",
              "name": "strike",
              "type": "uint256"
            },
            {
              "internalType": "uint256",
              "name": "maturity",
              "type": "uint256"
            },
            {
              "internalType": "uint24",
              "name": "uniswapV3Fee",
              "type": "uint24"
            },
            {
              "internalType": "address",
              "name": "liquidityTo",
              "type": "address"
            },
            {
              "internalType": "address",
              "name": "excessLong0To",
              "type": "address"
            },
            {
              "internalType": "address",
              "name": "excessLong1To",
              "type": "address"
            },
            {
              "internalType": "address",
              "name": "excessShortTo",
              "type": "address"
            },
            {
              "internalType": "bool",
              "name": "isToken0",
              "type": "bool"
            },
            {
              "internalType": "bool",
              "name": "preferLong0Excess",
              "type": "bool"
            },
            {
              "internalType": "uint256",
              "name": "tokenAmount",
              "type": "uint256"
            },
            {
              "internalType": "uint160",
              "name": "minLiquidityAmount",
              "type": "uint160"
            },
            {
              "internalType": "uint256",
              "name": "minExcessLong0Amount",
              "type": "uint256"
            },
            {
              "internalType": "uint256",
              "name": "minExcessLong1Amount",
              "type": "uint256"
            },
            {
              "internalType": "uint256",
              "name": "minExcessShortAmount",
              "type": "uint256"
            },
            {
              "internalType": "uint256",
              "name": "deadline",
              "type": "uint256"
            }
          ],
          "internalType": "struct TimeswapV2PeripheryUniswapV3AddLiquidityGivenPrincipalParam",
          "name": "param",
          "type": "tuple"
        }
      ],
      "name": "addLiquidityGivenPrincipal",
      "outputs": [
        {
          "internalType": "uint160",
          "name": "liquidityAmount",
          "type": "uint160"
        },
        {
          "internalType": "uint256",
          "name": "excessLong0Amount",
          "type": "uint256"
        },
        {
          "internalType": "uint256",
          "name": "excessLong1Amount",
          "type": "uint256"
        },
        {
          "internalType": "uint256",
          "name": "excessShortAmount",
          "type": "uint256"
        }
      ],
      "stateMutability": "payable",
      "type": "function"
    },
    {
      "inputs": [
        {
          "internalType": "address",
          "name": "token0",
          "type": "address"
        },
        {
          "internalType": "address",
          "name": "token1",
          "type": "address"
        },
        {
          "internalType": "uint256",
          "name": "strike",
          "type": "uint256"
        },
        {
          "internalType": "uint256",
          "name": "maturity",
          "type": "uint256"
        },
        {
          "internalType": "uint160",
          "name": "rate",
          "type": "uint160"
        }
      ],
      "name": "initialize",
      "outputs": [],
      "stateMutability": "nonpayable",
      "type": "function"
    },
    {
      "inputs": [],
      "name": "liquidityTokens",
      "outputs": [
        {
          "internalType": "address",
          "name": "",
          "type": "address"
        }
      ],
      "stateMutability": "view",
      "type": "function"
    },
    {
      "inputs": [
        {
          "internalType": "bytes[]",
          "name": "data",
          "type": "bytes[]"
        }
      ],
      "name": "multicall",
      "outputs": [
        {
          "internalType": "bytes[]",
          "name": "results",
          "type": "bytes[]"
        }
      ],
      "stateMutability": "payable",
      "type": "function"
    },
    {
      "inputs": [],
      "name": "optionFactory",
      "outputs": [
        {
          "internalType": "address",
          "name": "",
          "type": "address"
        }
      ],
      "stateMutability": "view",
      "type": "function"
    },
    {
      "inputs": [],
      "name": "poolFactory",
      "outputs": [
        {
          "internalType": "address",
          "name": "",
          "type": "address"
        }
      ],
      "stateMutability": "view",
      "type": "function"
    },
    {
      "inputs": [],
      "name": "refundNatives",
      "outputs": [],
      "stateMutability": "payable",
      "type": "function"
    },
    {
      "inputs": [
        {
          "components": [
            {
              "internalType": "address",
              "name": "token0",
              "type": "address"
            },
            {
              "internalType": "address",
              "name": "token1",
              "type": "address"
            },
            {
              "internalType": "uint256",
              "name": "strike",
              "type": "uint256"
            },
            {
              "internalType": "uint256",
              "name": "maturity",
              "type": "uint256"
            },
            {
              "internalType": "uint160",
              "name": "liquidityAmount",
              "type": "uint160"
            },
            {
              "internalType": "bytes",
              "name": "data",
              "type": "bytes"
            }
          ],
          "internalType": "struct TimeswapV2LiquidityTokenMintCallbackParam",
          "name": "param",
          "type": "tuple"
        }
      ],
      "name": "timeswapV2LiquidityTokenMintCallback",
      "outputs": [
        {
          "internalType": "bytes",
          "name": "data",
          "type": "bytes"
        }
      ],
      "stateMutability": "nonpayable",
      "type": "function"
    },
    {
      "inputs": [
        {
          "components": [
            {
              "internalType": "uint256",
              "name": "strike",
              "type": "uint256"
            },
            {
              "internalType": "uint256",
              "name": "maturity",
              "type": "uint256"
            },
            {
              "internalType": "uint256",
              "name": "token0AndLong0Amount",
              "type": "uint256"
            },
            {
              "internalType": "uint256",
              "name": "token1AndLong1Amount",
              "type": "uint256"
            },
            {
              "internalType": "uint256",
              "name": "shortAmount",
              "type": "uint256"
            },
            {
              "internalType": "bytes",
              "name": "data",
              "type": "bytes"
            }
          ],
          "internalType": "struct TimeswapV2OptionMintCallbackParam",
          "name": "param",
          "type": "tuple"
        }
      ],
      "name": "timeswapV2OptionMintCallback",
      "outputs": [
        {
          "internalType": "bytes",
          "name": "data",
          "type": "bytes"
        }
      ],
      "stateMutability": "nonpayable",
      "type": "function"
    },
    {
      "inputs": [
        {
          "components": [
            {
              "internalType": "uint256",
              "name": "strike",
              "type": "uint256"
            },
            {
              "internalType": "uint256",
              "name": "maturity",
              "type": "uint256"
            },
            {
              "internalType": "uint256",
              "name": "long0Amount",
              "type": "uint256"
            },
            {
              "internalType": "uint256",
              "name": "long1Amount",
              "type": "uint256"
            },
            {
              "internalType": "uint256",
              "name": "shortAmount",
              "type": "uint256"
            },
            {
              "internalType": "uint160",
              "name": "liquidityAmount",
              "type": "uint160"
            },
            {
              "internalType": "bytes",
              "name": "data",
              "type": "bytes"
            }
          ],
          "internalType": "struct TimeswapV2PoolMintCallbackParam",
          "name": "param",
          "type": "tuple"
        }
      ],
      "name": "timeswapV2PoolMintCallback",
      "outputs": [
        {
          "internalType": "bytes",
          "name": "data",
          "type": "bytes"
        }
      ],
      "stateMutability": "nonpayable",
      "type": "function"
    },
    {
      "inputs": [
        {
          "components": [
            {
              "internalType": "uint256",
              "name": "strike",
              "type": "uint256"
            },
            {
              "internalType": "uint256",
              "name": "maturity",
              "type": "uint256"
            },
            {
              "internalType": "uint256",
              "name": "longAmount",
              "type": "uint256"
            },
            {
              "internalType": "uint256",
              "name": "shortAmount",
              "type": "uint256"
            },
            {
              "internalType": "uint160",
              "name": "liquidityAmount",
              "type": "uint160"
            },
            {
              "internalType": "bytes",
              "name": "data",
              "type": "bytes"
            }
          ],
          "internalType": "struct TimeswapV2PoolMintChoiceCallbackParam",
          "name": "param",
          "type": "tuple"
        }
      ],
      "name": "timeswapV2PoolMintChoiceCallback",
      "outputs": [
        {
          "internalType": "uint256",
          "name": "long0Amount",
          "type": "uint256"
        },
        {
          "internalType": "uint256",
          "name": "long1Amount",
          "type": "uint256"
        },
        {
          "internalType": "bytes",
          "name": "data",
          "type": "bytes"
        }
      ],
      "stateMutability": "view",
      "type": "function"
    },
    {
      "inputs": [
        {
          "components": [
            {
              "internalType": "address",
              "name": "token0",
              "type": "address"
            },
            {
              "internalType": "address",
              "name": "token1",
              "type": "address"
            },
            {
              "internalType": "uint256",
              "name": "strike",
              "type": "uint256"
            },
            {
              "internalType": "uint256",
              "name": "maturity",
              "type": "uint256"
            },
            {
              "internalType": "uint256",
              "name": "long0Amount",
              "type": "uint256"
            },
            {
              "internalType": "uint256",
              "name": "long1Amount",
              "type": "uint256"
            },
            {
              "internalType": "uint256",
              "name": "shortAmount",
              "type": "uint256"
            },
            {
              "internalType": "bytes",
              "name": "data",
              "type": "bytes"
            }
          ],
          "internalType": "struct TimeswapV2TokenMintCallbackParam",
          "name": "param",
          "type": "tuple"
        }
      ],
      "name": "timeswapV2TokenMintCallback",
      "outputs": [
        {
          "internalType": "bytes",
          "name": "data",
          "type": "bytes"
        }
      ],
      "stateMutability": "nonpayable",
      "type": "function"
    },
    {
      "inputs": [],
      "name": "tokens",
      "outputs": [
        {
          "internalType": "address",
          "name": "",
          "type": "address"
        }
      ],
      "stateMutability": "view",
      "type": "function"
    },
    {
      "inputs": [],
      "name": "uniswapV3Factory",
      "outputs": [
        {
          "internalType": "address",
          "name": "",
          "type": "address"
        }
      ],
      "stateMutability": "view",
      "type": "function"
    },
    {
      "inputs": [
        {
          "internalType": "int256",
          "name": "amount0Delta",
          "type": "int256"
        },
        {
          "internalType": "int256",
          "name": "amount1Delta",
          "type": "int256"
        },
        {
          "internalType": "bytes",
          "name": "data",
          "type": "bytes"
        }
      ],
      "name": "uniswapV3SwapCallback",
      "outputs": [],
      "stateMutability": "nonpayable",
      "type": "function"
    },
    {
      "inputs": [],
      "name": "wrappedNativeToken",
      "outputs": [
        {
          "internalType": "address",
          "name": "",
          "type": "address"
        }
      ],
      "stateMutability": "view",
      "type": "function"
    }
  ],
  "bytecode": "0x6101406040523480156200001257600080fd5b506040516200452238038062004522833981016040819052620000359162000091565b6001600160601b0319606092831b811660805295821b861660a05293811b851660c05291821b841660e052811b8316610100521b166101205262000112565b80516001600160a01b03811681146200008c57600080fd5b919050565b60008060008060008060c08789031215620000ab57600080fd5b620000b68762000074565b9550620000c66020880162000074565b9450620000d66040880162000074565b9350620000e66060880162000074565b9250620000f66080880162000074565b91506200010660a0880162000074565b90509295509295509295565b60805160601c60a05160601c60c05160601c60e05160601c6101005160601c6101205160601c61431b620002076000396000818161010a015281816125fb01526126410152600081816101dc0152818161046e01526115700152600081816102b001528181610a7101526116c90152600081816101880152818161043c01528181610d35015281816115bc015281816118b901526120f10152600081816103040152818161041b01528181610a2101528181610d140152818161159b015281816116f40152818161189801526120d001526000818161021001528181610ee6015281816119950152612707015261431b6000f3fe6080604052600436106100f35760003560e01c80639d63848a1161008a578063dfef25d811610059578063dfef25d814610346578063e13c022c14610350578063f1acb77b14610370578063fa461e331461039057600080fd5b80639d63848a1461029e578063ac9650d8146102d2578063b3461c87146102f2578063bef8f8f51461032657600080fd5b80634b8ce602116100c65780634b8ce602146101ca5780635b549182146101fe5780636597135614610232578063985ad7df1461026157600080fd5b806317fcb39b146100f8578063321c8bed146101495780634219dc40146101765780634a358d65146101aa575b600080fd5b34801561010457600080fd5b5061012c7f000000000000000000000000000000000000000000000000000000000000000081565b6040516001600160a01b0390911681526020015b60405180910390f35b34801561015557600080fd5b5061016961016436600461307c565b6103b0565b604051610140919061310e565b34801561018257600080fd5b5061012c7f000000000000000000000000000000000000000000000000000000000000000081565b3480156101b657600080fd5b506101696101c5366004613252565b6109ac565b3480156101d657600080fd5b5061012c7f000000000000000000000000000000000000000000000000000000000000000081565b34801561020a57600080fd5b5061012c7f000000000000000000000000000000000000000000000000000000000000000081565b34801561023e57600080fd5b5061025261024d366004613308565b610ca2565b6040516101409392919061333c565b61027461026f36600461335b565b610ebe565b604080516001600160a01b0390951685526020850193909352918301526060820152608001610140565b3480156102aa57600080fd5b5061012c7f000000000000000000000000000000000000000000000000000000000000000081565b6102e56102e036600461336e565b6113dc565b60405161014091906133e2565b3480156102fe57600080fd5b5061012c7f000000000000000000000000000000000000000000000000000000000000000081565b34801561033257600080fd5b50610169610341366004613308565b611569565b61034e6116b0565b005b34801561035c57600080fd5b5061016961036b366004613444565b6116c2565b34801561037c57600080fd5b5061034e61038b3660046134a4565b611891565b34801561039c57600080fd5b5061034e6103ab366004613503565b611955565b604080516101008101825260008082526020820181905291810182905260608181018390526080820183905260a0820183905260c0820183905260e08201929092526103ff60c0840184613582565b81019061040c91906135cf565b8093508192505050600061046a7f00000000000000000000000000000000000000000000000000000000000000007f000000000000000000000000000000000000000000000000000000000000000084600001518560200151611a01565b90507f00000000000000000000000000000000000000000000000000000000000000006001600160a01b0316633594d9bc6040518060e0016040528085600001516001600160a01b0316815260200185602001516001600160a01b03168152602001876000013581526020018760200135815260200185604001516001600160a01b031681526020018760a001602081019061050691906136a4565b6001600160a01b03168152602001604051806020016040528060008152508152506040518263ffffffff1660e01b815260040161054391906136c1565b600060405180830381600087803b15801561055d57600080fd5b505af1158015610571573d6000803e3d6000fd5b505050506040513d6000823e601f3d908101601f191682016040526105999190810190613779565b5060006105b160408601356060870135873584611b39565b90506000856080013582116105d15760c0840151604087013590036105d4565b60005b90506000866080013583116105f45760e0850151606088013590036105f7565b60005b905060008760800135841161060d576000610615565b608088013584035b905060405180610120016040528087600001516001600160a01b0316815260200187602001516001600160a01b0316815260200187606001516001600160a01b0316815260200187608001516001600160a01b031681526020018760a001516001600160a01b031681526020018960a001602081019061069591906136a4565b6001600160a01b0316815260200184815260200183815260200182815250876040516020016106c59291906137ad565b60408051601f19818403018152610120830182528a35835260208b8101359084015298506001600160a01b038716916380e0667991810160808c0135881161070d573061070f565b335b6001600160a01b031681526020018b60800135881161072e5730610730565b335b6001600160a01b031681526020018b60800135881161074f5733610751565b305b6001600160a01b03168152602001600081526020018960c0015181526020018960e0015181526020018a8152506040518263ffffffff1660e01b815260040161079a919061385c565b600060405180830381600087803b1580156107b457600080fd5b505af11580156107c8573d6000803e3d6000fd5b505050506040513d6000823e601f3d908101601f191682016040526107f091908101906138fe565b9950505050608088013584111561087957846001600160a01b031663b2ceca7789600001358a602001353360028d608001356040518663ffffffff1660e01b8152600401610842959493929190613957565b600060405180830381600087803b15801561085c57600080fd5b505af1158015610870573d6000803e3d6000fd5b50505050610975565b6040880135156108f757846001600160a01b031663b2ceca7789600001358a602001353360008d604001356040518663ffffffff1660e01b81526004016108c4959493929190613957565b600060405180830381600087803b1580156108de57600080fd5b505af11580156108f2573d6000803e3d6000fd5b505050505b60608801351561097557846001600160a01b031663b2ceca7789600001358a602001353360018d606001356040518663ffffffff1660e01b8152600401610942959493929190613957565b600060405180830381600087803b15801561095c57600080fd5b505af1158015610970573d6000803e3d6000fd5b505050505b6040805160208101859052908101839052606081018290526080016040516020818303038152906040529650505050505050919050565b604080516101208101825260008082526020820181905291810182905260608181018390526080820183905260a0820183905260c0820183905260e082018390526101008201929092528260a00151806020019051810190610a0e91906139a2565b81516020830151919450919250610a46917f000000000000000000000000000000000000000000000000000000000000000091611b87565b60c0810151151580610a5b575060e081015115155b80610a6a575061010081015115155b15610bfd577f00000000000000000000000000000000000000000000000000000000000000006001600160a01b0316634fd991ea60405180610160016040528084600001516001600160a01b0316815260200184602001516001600160a01b0316815260200186600001518152602001866020015181526020018460c00151600014610afa578460400151610afc565b305b6001600160a01b031681526020018460e00151600014610b20578460600151610b22565b305b6001600160a01b03168152602001846101000151600014610b47578460800151610b49565b305b6001600160a01b031681526020018460c0015181526020018460e0015181526020018461010001518152602001604051806020016040528060008152508152506040518263ffffffff1660e01b8152600401610ba59190613a6f565b600060405180830381600087803b158015610bbf57600080fd5b505af1158015610bd3573d6000803e3d6000fd5b505050506040513d6000823e601f3d908101601f19168201604052610bfb9190810190613779565b505b610c9b604051806101800160405280336001600160a01b0316815260200183600001516001600160a01b0316815260200183602001516001600160a01b03168152602001856000015181526020018560200151815260200185604001518152602001856060015181526020018360a0015181526020018360c0015181526020018360e001518152602001836101000151815260200184815250611c3d565b9392505050565b604080516101208101825260008082526020820181905291810182905260608181018390526080820183905260a0820183905260c0820183905260e0820183905261010082018390528291610cfa60a0860186613582565b810190610d079190613b59565b8093508192505050610d637f00000000000000000000000000000000000000000000000000000000000000007f000000000000000000000000000000000000000000000000000000000000000083600001518460200151611a01565b508060e0015193508061010001519250846040013585606001351115610e02576000610db88260c00151610d975785610d99565b845b610db2886040013589600001358660c001516001611d2e565b90611d6e565b90506000610dd787604001358389600001358660c00151156001611d88565b90508260c00151610de85781610dea565b805b95508260c00151610dfb5780610dfd565b815b945050505b60405180610100016040528082600001516001600160a01b0316815260200182602001516001600160a01b0316815260200182604001516001600160a01b0316815260200182606001516001600160a01b0316815260200182608001516001600160a01b031681526020018260a001516001600160a01b031681526020018260e00151815260200182610100015181525082604051602001610ea5929190613c28565b6040516020818303038152906040529150509193909250565b600080600080428561020001351015610edf57610edf856102000135611e03565b6000610f377f0000000000000000000000000000000000000000000000000000000000000000610f1260208901896136a4565b610f2260408a0160208b016136a4565b610f3260a08b0160808c01613cdc565b611e1f565b9050600033610f4960208901896136a4565b610f5960408a0160208b016136a4565b610f6960a08b0160808c01613cdc565b604080516001600160a01b039586166020820152938516908401529216606082015262ffffff909116608082015260a0016040516020818303038152906040529050600181604051602001610fbf929190613cf9565b60408051601f1981840301815260c083019091523082529150600090819061102f9060208101610ff76101408d016101208e01613d14565b15158152600160208201526101608c01356040808301919091528c013560608201526080018590526001600160a01b03861690611e41565b9092509050336110476101408b016101208c01613d14565b604080516001600160a01b0390931660208401529015159082015260600160408051601f19818403018152610180830190915293506111c6908061108e60208d018d6136a4565b6001600160a01b031681526020018b60200160208101906110af91906136a4565b6001600160a01b031681526020018b6040013581526020018b6060013581526020018b60a00160208101906110e491906136a4565b6001600160a01b0316815260200161110260e08d0160c08e016136a4565b6001600160a01b031681526020016111216101008d0160e08e016136a4565b6001600160a01b031681526020016111416101208d016101008e016136a4565b6001600160a01b031681526020016111616101408d016101208e01613d14565b61116b5783611175565b6101608c01358590035b815260200161118c6101408d016101208e01613d14565b61119e576101608c01358590036111a0565b835b81526020016111b76101608d016101408e01613d14565b151581526020018590526120c1565b50929a50909850965094506111e99350506101a0880191505061018087016136a4565b6001600160a01b0316846001600160a01b0316101561124657836112156101a0870161018088016136a4565b60405163120498cd60e11b81526001600160a01b039283166004820152911660248201526044015b60405180910390fd5b846101e0013581101561127a576040516355f5ffcf60e11b8152600481018290526101e0860135602482015260440161123d565b846101a001358310156112ae57604051631de9229d60e01b8152600481018490526101a0860135602482015260440161123d565b846101c001358210156112e257604051633593b0fb60e21b8152600481018390526101c0860135602482015260440161123d565b60608501356112f760408701602088016136a4565b6001600160a01b031661130d60208801886136a4565b6001600160a01b03167fb28922c3b01e868b0b51a388aae3c66e9f2a424a4b74af58f4b30e2825a5a211604089013561134c60a08b0160808c01613cdc565b3361135d60c08d0160a08e016136a4565b61136f6101408e016101208f01613d14565b6040805195865262ffffff9490941660208601526001600160a01b03928316858501529082166060850152151560808401526101608c013560a08401528a1660c083015260e082018990526101008201889052610120820187905251908190036101400190a49193509193565b6060816001600160401b038111156113f6576113f6613121565b60405190808252806020026020018201604052801561142957816020015b60608152602001906001900390816114145790505b50905060005b82811015611562576000803086868581811061144d5761144d613d31565b905060200281019061145f9190613582565b60405161146d929190613d47565b600060405180830381855af49150503d80600081146114a8576040519150601f19603f3d011682016040523d82523d6000602084013e6114ad565b606091505b50915091508161152f576044815110156114fb57604051635d2f436f60e11b815260206004820152600e60248201526d125b9d985b1a590814995cdd5b1d60921b604482015260640161123d565b600481019050808060200190518101906115159190613d57565b604051635d2f436f60e11b815260040161123d919061310e565b8084848151811061154257611542613d31565b60200260200101819052505050808061155a90613db5565b91505061142f565b5092915050565b60606115947f00000000000000000000000000000000000000000000000000000000000000006122e6565b60006115fd7f00000000000000000000000000000000000000000000000000000000000000007f00000000000000000000000000000000000000000000000000000000000000006115e860208701876136a4565b6115f860408801602089016136a4565b612312565b9150506001600160a01b03811663c0e0c4c6604085013560608601353361162a60a0890160808a016136a4565b6040516001600160e01b031960e087901b168152600481019490945260248401929092526001600160a01b0390811660448401521660648201526084015b600060405180830381600087803b15801561168257600080fd5b505af1158015611696573d6000803e3d6000fd5b505060408051602081019091526000815295945050505050565b47156116c0576116c033476123b1565b565b60606116ed7f0000000000000000000000000000000000000000000000000000000000000000612456565b60006117357f000000000000000000000000000000000000000000000000000000000000000061172060208601866136a4565b61173060408701602088016136a4565b61247f565b90506080830135156117b4576040805163b2ceca7760e01b81526001600160a01b0383169163b2ceca77916117819187013590606088013590339060009060808b013590600401613957565b600060405180830381600087803b15801561179b57600080fd5b505af11580156117af573d6000803e3d6000fd5b505050505b60a083013515611831576040805163b2ceca7760e01b81526001600160a01b0383169163b2ceca77916117fe9187013590606088013590339060019060a08b013590600401613957565b600060405180830381600087803b15801561181857600080fd5b505af115801561182c573d6000803e3d6000fd5b505050505b60c08301351561187b576040805163b2ceca7760e01b81526001600160a01b0383169163b2ceca77916116689187013590606088013590339060029060c08b013590600401613957565b5050604080516020810190915260008152919050565b60006118df7f00000000000000000000000000000000000000000000000000000000000000007f00000000000000000000000000000000000000000000000000000000000000008888612504565b604051635688c58160e11b815260048101879052602481018690526001600160a01b038581166044830152919350908316915063ad118b0290606401600060405180830381600087803b15801561193557600080fd5b505af1158015611949573d6000803e3d6000fd5b50505050505050505050565b60008061196483850185613dd0565b9150915081156119ee57600080600080848060200190518101906119889190613e09565b93509350935093506119bc7f00000000000000000000000000000000000000000000000000000000000000008484846125b9565b6119e560008b136119cd57826119cf565b835b853360008e136119df578c6125f9565b8d6125f9565b505050506119f9565b6119f98686836126e3565b505050505050565b60405163d81e842360e01b81526001600160a01b03838116600483015282811660248301526000919086169063d81e84239060440160206040518083038186803b158015611a4e57600080fd5b505afa158015611a62573d6000803e3d6000fd5b505050506040513d601f19601f82011682018060405250810190611a869190613e68565b6040516330af0bbf60e21b81526001600160a01b03808316600483015291925060009186169063c2bc2efc9060240160206040518083038186803b158015611acd57600080fd5b505afa158015611ae1573d6000803e3d6000fd5b505050506040513d601f19601f82011682018060405250810190611b059190613e68565b90506001600160a01b0381163314611b305760405163863b47e760e01b815260040160405180910390fd5b50949350505050565b60006001600160801b038311611b6557611b568584600185612738565b611b609085613e85565b611b7c565b611b728484600085612738565b611b7c9086613e85565b90505b949350505050565b60405163d81e842360e01b81526001600160a01b03838116600483015282811660248301526000919085169063d81e84239060440160206040518083038186803b158015611bd457600080fd5b505afa158015611be8573d6000803e3d6000fd5b505050506040513d601f19601f82011682018060405250810190611c0c9190613e68565b90506001600160a01b0381163314611c375760405163a5fbb7d960e01b815260040160405180910390fd5b50505050565b6060600080836101600151806020019051810190611c5b9190613e9d565b9150915080611c6e578360c00151611c74565b8360a001515b15611cbd57611cbd82856000015183611c91578660c00151611c97565b8660a001515b84611ca6578760400151611cac565b87602001515b6001600160a01b031692919061275f565b80611ccc578360a00151611cd2565b8360c001515b15611d17578351611d179082611cec578560a00151611cf2565b8560c001515b83611d01578660200151611d07565b86604001515b6001600160a01b031691906127ca565b505060408051602081019091526000815292915050565b60006001600160801b038411611d565782611d5057611b608585600085612738565b84611b7c565b82611d615784611b7c565b611b7c8585600185612738565b6000818310611d7d5781611d7f565b825b90505b92915050565b60006001600160801b038411611dd05782611db857611db3611daa8688613ed7565b85600085612738565b611df9565b611dc6858560018515612738565b611db39087613ed7565b82611de357611dc6858560008515612738565b611df9611df08688613ed7565b85600185612738565b9695505050505050565b60405163070b57d960e41b81526004810182905260240161123d565b6000611e2d858585856127fa565b9050611b7f816001600160a01b031661288a565b6000806000846001600160a01b0316633850c7bd6040518163ffffffff1660e01b815260040160e06040518083038186803b158015611e7f57600080fd5b505afa158015611e93573d6000803e3d6000fd5b505050506040513d601f19601f82011682018060405250810190611eb79190613f00565b50505050505090506000846080015160001415611f0b578460200151611efb57611ef6600173fffd8963efd1fc6a506488495d951d5263988d26613f9f565b611f18565b611ef66401000276a36001613fc7565b611f1885608001516128b1565b90506401000276a36001600160a01b03821611611f4257611f3f6401000276a36001613fc7565b90505b73fffd8963efd1fc6a506488495d951d5263988d266001600160a01b03821610611f8857611f85600173fffd8963efd1fc6a506488495d951d5263988d26613f9f565b90505b8460200151611fab57806001600160a01b0316826001600160a01b031610611fc1565b806001600160a01b0316826001600160a01b0316115b156120b857600080876001600160a01b031663128acb08886000015189602001518a6040015161200657611ff88b60600151612901565b61200190613ff2565b612013565b6120138b60600151612901565b878c60a001516040518663ffffffff1660e01b815260040161203995949392919061400f565b6040805180830381600087803b15801561205257600080fd5b505af1158015612066573d6000803e3d6000fd5b505050506040513d601f19601f8201168201806040525081019061208a919061404a565b9150915086602001516120a657806120a183613ff2565b6120b0565b816120b082613ff2565b909650945050505b50509250929050565b6000806000806060600061211f7f00000000000000000000000000000000000000000000000000000000000000007f000000000000000000000000000000000000000000000000000000000000000089600001518a60200151612504565b91505060405180610120016040528088600001516001600160a01b0316815260200188602001516001600160a01b0316815260200188608001516001600160a01b031681526020018860a001516001600160a01b031681526020018860c001516001600160a01b031681526020018860e001516001600160a01b031681526020018861014001511515815260200188610100015181526020018861012001518152508761016001516040516020016121d892919061406e565b60408051601f1981840301815260c0830182528982015183526060808b01516020850152309284019290925293506001600160a01b0383169163847a10139181016003815260200161223b8b61010001518c61012001518d604001516000611b39565b8152602001858152506040518263ffffffff1660e01b815260040161226091906140ff565b600060405180830381600087803b15801561227a57600080fd5b505af115801561228e573d6000803e3d6000fd5b505050506040513d6000823e601f3d908101601f191682016040526122b69190810190614166565b8051949a5095506122d593860160209081019350860191506141d49050565b979991985096955091935090915050565b6001600160a01b038116331461230f5760405163dfc62ca560e01b815260040160405180910390fd5b50565b6000806123296001600160a01b038716858561247f565b6040516330af0bbf60e21b81526001600160a01b0380831660048301529193509086169063c2bc2efc9060240160206040518083038186803b15801561236e57600080fd5b505afa158015612382573d6000803e3d6000fd5b505050506040513d601f19601f820116820180604052508101906123a69190613e68565b905094509492505050565b604080516000808252602082019092526001600160a01b0384169083906040516123db9190614202565b60006040518083038185875af1925050503d8060008114612418576040519150601f19603f3d011682016040523d82523d6000602084013e61241d565b606091505b50509050806124515760405163296c17bb60e21b81526001600160a01b03841660048201526024810183905260440161123d565b505050565b6001600160a01b038116331461230f5760405163d2bc8fc960e01b815260040160405180910390fd5b60405163d81e842360e01b81526001600160a01b03838116600483015282811660248301526000919085169063d81e84239060440160206040518083038186803b1580156124cc57600080fd5b505afa1580156124e0573d6000803e3d6000fd5b505050506040513d601f19601f82011682018060405250810190611b7f9190613e68565b60008061251b6001600160a01b0387168585612917565b6040516330af0bbf60e21b81526001600160a01b0380831660048301529193509086169063c2bc2efc9060240160206040518083038186803b15801561256057600080fd5b505afa158015612574573d6000803e3d6000fd5b505050506040513d601f19601f820116820180604052508101906125989190613e68565b90506001600160a01b0381166125b0576125b0612938565b94509492505050565b60006125c7858585856127fa565b90506001600160a01b03811633146125f2576040516307c1698f60e01b815260040160405180910390fd5b5050505050565b7f00000000000000000000000000000000000000000000000000000000000000006001600160a01b0316846001600160a01b031614801561263a5750804710155b156126ce577f00000000000000000000000000000000000000000000000000000000000000006001600160a01b031663d0e30db0826040518263ffffffff1660e01b81526004016000604051808303818588803b15801561269a57600080fd5b505af11580156126ae573d6000803e3d6000fd5b506126c9935050506001600160a01b038616905083836127ca565b611c37565b611c376001600160a01b03851684848461275f565b6000806000838060200190518101906126fc919061421e565b92509250925061272e7f00000000000000000000000000000000000000000000000000000000000000008484846125b9565b6119f98686612951565b60008261274f57611b6085600160801b8685612974565b611b7c8585600160801b85612974565b6040516001600160a01b0380851660248301528316604482015260648101829052611c379085906323b872dd60e01b906084015b60408051601f198184030181529190526020810180516001600160e01b03166001600160e01b031990931692909217909152612a70565b6040516001600160a01b03831660248201526044810182905261245190849063a9059cbb60e01b90606401612793565b604051630b4c774160e11b81526001600160a01b038481166004830152838116602483015262ffffff8316604483015260009190861690631698ee829060640160206040518083038186803b15801561285257600080fd5b505afa158015612866573d6000803e3d6000fd5b505050506040513d601f19601f82011682018060405250810190611b7c9190613e68565b6001600160a01b03811661230f5760405163037064f160e01b815260040160405180910390fd5b60006001600160c01b0382116128d857611d826128d3604084901b6000612b42565b612bc0565b6000806128ee8468010000000000000000612bea565b91509150611b7f6128d383836000612c09565b6000600160ff1b821061291357600080fd5b5090565b600061292484848461247f565b90506001600160a01b038116610c9b57610c9b5b60405163d92e233d60e01b815260040160405180910390fd5b6040516377760aaf60e11b8152600481018390526024810182905260440161123d565b60008060006129838787612bea565b9150915080600014156129a45761299b828686612c97565b92505050611b7f565b8085116129d55760405163362ced0960e11b815260048101889052602481018790526044810186905260640161123d565b600085878909600087810388169788900497600260038a028118808b02820302808b02820302808b02820302808b02820302808b02820302808b02909103029181900381900460010186841190950394850292909503949094041792830293508490508015612a5357508480612a4d57612a4d61426b565b86880915155b15612a665782612a6281613db5565b9350505b5050949350505050565b6000612ac5826040518060400160405280602081526020017f5361666545524332303a206c6f772d6c6576656c2063616c6c206661696c6564815250856001600160a01b0316612cd29092919063ffffffff16565b8051909150156124515780806020019051810190612ae39190614281565b6124515760405162461bcd60e51b815260206004820152602a60248201527f5361666545524332303a204552433230206f7065726174696f6e20646964206e6044820152691bdd081cdd58d8d9595960b21b606482015260840161123d565b6000600019831415612b5c57506001600160801b03611d82565b82612b6957506000611d82565b50816001818101901c5b81811015612b9b57809150600181828681612b9057612b9061426b565b0401901c9050612b73565b50818015612bb1575082612baf828061429e565b105b15611d825780611b7f81613db5565b60006001600160a01b0382111561291357604051630ba006e160e41b815260040160405180910390fd5b6000806000198385098385029250828110838203039150509250929050565b600082612c2157612c1a8483612b42565b9050610c9b565b6000612c308585600019612ce1565b905060001991505b81811015612c5557809150612c4e858583612ce1565b9050612c38565b8215612c8f57600080612c688485612bea565b9150915080861180612c7957508187115b15612c8c5783612c8881613db5565b9450505b50505b509392505050565b6000612ca383856142bd565b9050818015612cba5750612cb783856142d1565b15155b15610c9b5780612cc981613db5565b95945050505050565b6060611b7f8484600085612d16565b600080612cf18585856000612e47565b90506000612d03826000866000612ecc565b9092509050611df9828260026000612e47565b606082471015612d775760405162461bcd60e51b815260206004820152602660248201527f416464726573733a20696e73756666696369656e742062616c616e636520666f6044820152651c8818d85b1b60d21b606482015260840161123d565b6001600160a01b0385163b612dce5760405162461bcd60e51b815260206004820152601d60248201527f416464726573733a2063616c6c20746f206e6f6e2d636f6e7472616374000000604482015260640161123d565b600080866001600160a01b03168587604051612dea9190614202565b60006040518083038185875af1925050503d8060008114612e27576040519150601f19603f3d011682016040523d82523d6000602084013e612e2c565b606091505b5091509150612e3c828286612f3d565b979650505050505050565b600080612e55868686612f76565b90925090508015612e8a57604051636aa917ab60e01b815260048101879052602481018690526044810185905260640161123d565b8215611b3057600080612e9d8487612bea565b9150915080871180612eae57508188115b15612ec15783612ebd81613db5565b9450505b505050949350505050565b8184018481108285018101908015612ef957811580612ef45750612ef1600183613ed7565b86115b612efd565b8186115b15612f33576040516347b1893f60e01b81526004810188905260248101879052604481018690526064810185905260840161123d565b5094509492505050565b60608315612f4c575081610c9b565b825115612f5c5782518084602001fd5b8160405162461bcd60e51b815260040161123d919061310e565b60008083612f9157612f8a85846000612c97565b915061301d565b6000612f9c84613025565b90506000612fa985613052565b90505b8515612ffd57600080612fbf8885612bea565b91509150612fcf86868484612ecc565b9096509450612fde8884612bea565b9092509050612ff082828b6000612ecc565b9099509750612fac915050565b613015848461300e8a896000612c97565b6000612ecc565b909450925050505b935093915050565b600081613045576040516301de42a960e41b815260040160405180910390fd5b5060008190030460010190565b600081613072576040516319dbad9f60e01b815260040160405180910390fd5b5060008190030690565b60006020828403121561308e57600080fd5b81356001600160401b038111156130a457600080fd5b820160e08185031215610c9b57600080fd5b60005b838110156130d15781810151838201526020016130b9565b83811115611c375750506000910152565b600081518084526130fa8160208601602086016130b6565b601f01601f19169290920160200192915050565b602081526000611d7f60208301846130e2565b634e487b7160e01b600052604160045260246000fd5b60405160c081016001600160401b038111828210171561315957613159613121565b60405290565b60405161010081016001600160401b038111828210171561315957613159613121565b60405161012081016001600160401b038111828210171561315957613159613121565b604051601f8201601f191681016001600160401b03811182821017156131cd576131cd613121565b604052919050565b60006001600160401b038211156131ee576131ee613121565b50601f01601f191660200190565b600082601f83011261320d57600080fd5b813561322061321b826131d5565b6131a5565b81815284602083860101111561323557600080fd5b816020850160208301376000918101602001919091529392505050565b60006020828403121561326457600080fd5b81356001600160401b038082111561327b57600080fd5b9083019060c0828603121561328f57600080fd5b613297613137565b823581526020830135602082015260408301356040820152606083013560608201526080830135608082015260a0830135828111156132d557600080fd5b6132e1878286016131fc565b60a08301525095945050505050565b600060c0828403121561330257600080fd5b50919050565b60006020828403121561331a57600080fd5b81356001600160401b0381111561333057600080fd5b611b7f848285016132f0565b838152826020820152606060408201526000611b7c60608301846130e2565b6000610220828403121561330257600080fd5b6000806020838503121561338157600080fd5b82356001600160401b038082111561339857600080fd5b818501915085601f8301126133ac57600080fd5b8135818111156133bb57600080fd5b8660208260051b85010111156133d057600080fd5b60209290920196919550909350505050565b6000602080830181845280855180835260408601915060408160051b870101925083870160005b8281101561343757603f198886030184526134258583516130e2565b94509285019290850190600101613409565b5092979650505050505050565b60006020828403121561345657600080fd5b81356001600160401b0381111561346c57600080fd5b82016101008185031215610c9b57600080fd5b6001600160a01b038116811461230f57600080fd5b803561349f8161347f565b919050565b600080600080600060a086880312156134bc57600080fd5b85356134c78161347f565b945060208601356134d78161347f565b9350604086013592506060860135915060808601356134f58161347f565b809150509295509295909350565b6000806000806060858703121561351957600080fd5b843593506020850135925060408501356001600160401b038082111561353e57600080fd5b818701915087601f83011261355257600080fd5b81358181111561356157600080fd5b88602082850101111561357357600080fd5b95989497505060200194505050565b6000808335601e1984360301811261359957600080fd5b8301803591506001600160401b038211156135b357600080fd5b6020019150368190038213156135c857600080fd5b9250929050565b6000808284036101208112156135e457600080fd5b610100808212156135f457600080fd5b6135fc61315f565b915084356136098161347f565b825261361760208601613494565b602083015261362860408601613494565b604083015261363960608601613494565b606083015261364a60808601613494565b608083015261365b60a08601613494565b60a083015260c0858101359083015260e080860135908301529092508301356001600160401b0381111561368e57600080fd5b61369a858286016131fc565b9150509250929050565b6000602082840312156136b657600080fd5b8135610c9b8161347f565b60208152600060018060a01b0380845116602084015280602085015116604084015260408401516060840152606084015160808401528060808501511660a08401528060a08501511660c08401525060c083015160e080840152611b7f6101008401826130e2565b600061373761321b846131d5565b905082815283838301111561374b57600080fd5b610c9b8360208301846130b6565b600082601f83011261376a57600080fd5b611d7f83835160208501613729565b60006020828403121561378b57600080fd5b81516001600160401b038111156137a157600080fd5b611b7f84828501613759565b82516001600160a01b03908116825260208085015182169083015260408085015182169083015260608085015182169083015260808085015191821690830152600090610140905060a085015160a084015260c085015160c084015260e085015160e084015261010080860151818501525080610120840152612cc9818401856130e2565b634e487b7160e01b600052602160045260246000fd5b6002811061385857613858613832565b9052565b6020815281516020820152602082015160408201526000604083015161388d60608401826001600160a01b03169052565b5060608301516001600160a01b03811660808401525060808301516001600160a01b03811660a08401525060a08301516138ca60c0840182613848565b5060c083015160e0838101919091528301516101008084019190915283015161012080840152611b7f6101408401826130e2565b6000806000806080858703121561391457600080fd5b84519350602085015192506040850151915060608501516001600160401b0381111561393f57600080fd5b61394b87828801613759565b91505092959194509250565b858152602081018590526001600160a01b038416604082015260a081016003841061398457613984613832565b6060820193909352608001529392505050565b805161349f8161347f565b6000808284036101408112156139b757600080fd5b610120808212156139c757600080fd5b6139cf613182565b91506139da85613997565b82526139e860208601613997565b60208301526139f960408601613997565b6040830152613a0a60608601613997565b6060830152613a1b60808601613997565b608083015260a0858101519083015260c0808601519083015260e0808601519083015261010080860151908301528401519092506001600160401b03811115613a6357600080fd5b61369a85828601613759565b60208152613a896020820183516001600160a01b03169052565b60006020830151613aa560408401826001600160a01b03169052565b5060408301516060830152606083015160808301526080830151613ad460a08401826001600160a01b03169052565b5060a08301516001600160a01b03811660c08401525060c08301516001600160a01b03811660e08401525060e083015161010083810191909152830151610120808401919091528301516101408084019190915283015161016080840152611b7f6101808401826130e2565b801515811461230f57600080fd5b803561349f81613b40565b600080828403610140811215613b6e57600080fd5b61012080821215613b7e57600080fd5b613b86613182565b9150613b9185613494565b8252613b9f60208601613494565b6020830152613bb060408601613494565b6040830152613bc160608601613494565b6060830152613bd260808601613494565b6080830152613be360a08601613494565b60a0830152613bf460c08601613b4e565b60c083015260e0858101359083015261010080860135908301529092508301356001600160401b0381111561368e57600080fd5b600061012060018060a01b03808651168452806020870151166020850152806040870151166040850152506060850151613c6d60608501826001600160a01b03169052565b506080850151613c8860808501826001600160a01b03169052565b5060a0850151613ca360a08501826001600160a01b03169052565b5060c085015160c084015260e085015160e084015280610100840152612cc9818401856130e2565b62ffffff8116811461230f57600080fd5b600060208284031215613cee57600080fd5b8135610c9b81613ccb565b8215158152604060208201526000611b7f60408301846130e2565b600060208284031215613d2657600080fd5b8135610c9b81613b40565b634e487b7160e01b600052603260045260246000fd5b8183823760009101908152919050565b600060208284031215613d6957600080fd5b81516001600160401b03811115613d7f57600080fd5b8201601f81018413613d9057600080fd5b611b7f84825160208401613729565b634e487b7160e01b600052601160045260246000fd5b6000600019821415613dc957613dc9613d9f565b5060010190565b60008060408385031215613de357600080fd5b8235613dee81613b40565b915060208301356001600160401b0381111561368e57600080fd5b60008060008060808587031215613e1f57600080fd5b8451613e2a8161347f565b6020860151909450613e3b8161347f565b6040860151909350613e4c8161347f565b6060860151909250613e5d81613ccb565b939692955090935050565b600060208284031215613e7a57600080fd5b8151610c9b8161347f565b60008219821115613e9857613e98613d9f565b500190565b60008060408385031215613eb057600080fd5b8251613ebb8161347f565b6020840151909250613ecc81613b40565b809150509250929050565b600082821015613ee957613ee9613d9f565b500390565b805161ffff8116811461349f57600080fd5b600080600080600080600060e0888a031215613f1b57600080fd5b8751613f268161347f565b8097505060208801518060020b8114613f3e57600080fd5b9550613f4c60408901613eee565b9450613f5a60608901613eee565b9350613f6860808901613eee565b925060a088015160ff81168114613f7e57600080fd5b60c0890151909250613f8f81613b40565b8091505092959891949750929550565b60006001600160a01b0383811690831681811015613fbf57613fbf613d9f565b039392505050565b60006001600160a01b03828116848216808303821115613fe957613fe9613d9f565b01949350505050565b6000600160ff1b82141561400857614008613d9f565b5060000390565b6001600160a01b0386811682528515156020830152604082018590528316606082015260a060808201819052600090612e3c908301846130e2565b6000806040838503121561405d57600080fd5b505080516020909101519092909150565b82516001600160a01b03908116825260208085015182169083015260408085015182169083015260608085015182169083015260808085015182169083015260a08085015191821690830152600090610140905060c08501516140d560c085018215159052565b5060e085015160e084015261010080860151818501525080610120840152612cc9818401856130e2565b60208152815160208201526020820151604082015260018060a01b036040830151166060820152600060608301516004811061413d5761413d613832565b80608084015250608083015160a083015260a083015160c080840152611b7f60e08401826130e2565b600080600080600060a0868803121561417e57600080fd5b85516141898161347f565b8095505060208601519350604086015192506060860151915060808601516001600160401b038111156141bb57600080fd5b6141c788828901613759565b9150509295509295909350565b6000806000606084860312156141e957600080fd5b8351925060208401519150604084015190509250925092565b600082516142148184602087016130b6565b9190910192915050565b60008060006060848603121561423357600080fd5b835161423e8161347f565b602085015190935061424f8161347f565b604085015190925061426081613ccb565b809150509250925092565b634e487b7160e01b600052601260045260246000fd5b60006020828403121561429357600080fd5b8151610c9b81613b40565b60008160001904831182151516156142b8576142b8613d9f565b500290565b6000826142cc576142cc61426b565b500490565b6000826142e0576142e061426b565b50069056fea264697066735822122043867a8c8ef6aae5cbc60bd401cd2335727db5e0529e6dfab56ab99e6ebb4e9264736f6c63430008080033",
  "linkReferences": {},
  "deployedLinkReferences": {}
}