{
  "_format": "hh-sol-artifact-1",
  "contractName": "TimeswapV2PeripheryUniswapV3QuoterCloseBorrowGivenPosition",
  "sourceName": "@timeswap-labs/v2-periphery-uniswapV3/contracts/lens/TimeswapV2PeripheryUniswapV3QuoterCloseBorrowGivenPosition.sol",
  "abi": [
    {
      "inputs": [
        {
          "internalType": "address",
          "name": "chosenOptionFactory",
          "type": "address"
        },
        {
          "internalType": "address",
          "name": "chosenPoolFactory",
          "type": "address"
        },
        {
          "internalType": "address",
          "name": "chosenTokens",
          "type": "address"
        },
        {
          "internalType": "address",
          "name": "chosenUniswapV3Factory",
          "type": "address"
        }
      ],
      "stateMutability": "nonpayable",
      "type": "constructor"
    },
    {
      "inputs": [
        {
          "internalType": "uint256",
          "name": "addendA0",
          "type": "uint256"
        },
        {
          "internalType": "uint256",
          "name": "addendA1",
          "type": "uint256"
        },
        {
          "internalType": "uint256",
          "name": "addendB0",
          "type": "uint256"
        },
        {
          "internalType": "uint256",
          "name": "addendB1",
          "type": "uint256"
        }
      ],
      "name": "AddOverflow",
      "type": "error"
    },
    {
      "inputs": [],
      "name": "CanOnlyBeCalledByOptionContract",
      "type": "error"
    },
    {
      "inputs": [],
      "name": "CanOnlyBeCalledByPoolContract",
      "type": "error"
    },
    {
      "inputs": [],
      "name": "CanOnlyBeCalledByUniswapV3Contract",
      "type": "error"
    },
    {
      "inputs": [
        {
          "internalType": "uint256",
          "name": "dividend0",
          "type": "uint256"
        },
        {
          "internalType": "uint256",
          "name": "dividend1",
          "type": "uint256"
        },
        {
          "internalType": "uint256",
          "name": "divisor",
          "type": "uint256"
        }
      ],
      "name": "DivOverflow",
      "type": "error"
    },
    {
      "inputs": [],
      "name": "DivideByZero",
      "type": "error"
    },
    {
      "inputs": [],
      "name": "ModuloByZero",
      "type": "error"
    },
    {
      "inputs": [
        {
          "internalType": "uint256",
          "name": "multiplicand",
          "type": "uint256"
        },
        {
          "internalType": "uint256",
          "name": "multiplier",
          "type": "uint256"
        },
        {
          "internalType": "uint256",
          "name": "divisor",
          "type": "uint256"
        }
      ],
      "name": "MulDivOverflow",
      "type": "error"
    },
    {
      "inputs": [
        {
          "internalType": "string",
          "name": "revertString",
          "type": "string"
        }
      ],
      "name": "MulticallFailed",
      "type": "error"
    },
    {
      "inputs": [
        {
          "internalType": "int256",
          "name": "amount0",
          "type": "int256"
        },
        {
          "internalType": "int256",
          "name": "amount1",
          "type": "int256"
        }
      ],
      "name": "PassCalculateInfo",
      "type": "error"
    },
    {
      "inputs": [
        {
          "internalType": "bytes",
          "name": "data",
          "type": "bytes"
        }
      ],
      "name": "PassOptionSwapCallbackInfo",
      "type": "error"
    },
    {
      "inputs": [
        {
          "internalType": "uint160",
          "name": "timeswapV2SqrtInterestRateAfter",
          "type": "uint160"
        },
        {
          "internalType": "uint256",
          "name": "token0Amount",
          "type": "uint256"
        },
        {
          "internalType": "uint256",
          "name": "token1Amount",
          "type": "uint256"
        },
        {
          "internalType": "bytes",
          "name": "data",
          "type": "bytes"
        }
      ],
      "name": "PassPoolDeleverageCallbackInfo",
      "type": "error"
    },
    {
      "inputs": [
        {
          "internalType": "uint160",
          "name": "timeswapV2SqrtInterestRateAfter",
          "type": "uint160"
        },
        {
          "internalType": "uint256",
          "name": "token0Amount",
          "type": "uint256"
        },
        {
          "internalType": "uint256",
          "name": "token1Amount",
          "type": "uint256"
        },
        {
          "internalType": "bytes",
          "name": "data",
          "type": "bytes"
        }
      ],
      "name": "PassTokenBurnCallbackInfo",
      "type": "error"
    },
    {
      "inputs": [
        {
          "internalType": "int256",
          "name": "amount0",
          "type": "int256"
        },
        {
          "internalType": "int256",
          "name": "amount1",
          "type": "int256"
        },
        {
          "internalType": "uint160",
          "name": "uniswapV3SqrtPriceAfter",
          "type": "uint160"
        }
      ],
      "name": "PassUniswapV3SwapCallbackInfo",
      "type": "error"
    },
    {
      "inputs": [],
      "name": "Uint160Overflow",
      "type": "error"
    },
    {
      "inputs": [],
      "name": "ZeroAddress",
      "type": "error"
    },
    {
      "inputs": [],
      "name": "ZeroPoolAddress",
      "type": "error"
    },
    {
      "inputs": [
        {
          "components": [
            {
              "internalType": "address",
              "name": "token0",
              "type": "address"
            },
            {
              "internalType": "address",
              "name": "token1",
              "type": "address"
            },
            {
              "internalType": "uint256",
              "name": "strike",
              "type": "uint256"
            },
            {
              "internalType": "uint256",
              "name": "maturity",
              "type": "uint256"
            },
            {
              "internalType": "uint24",
              "name": "uniswapV3Fee",
              "type": "uint24"
            },
            {
              "internalType": "address",
              "name": "to",
              "type": "address"
            },
            {
              "internalType": "bool",
              "name": "isToken0",
              "type": "bool"
            },
            {
              "internalType": "bool",
              "name": "isLong0",
              "type": "bool"
            },
            {
              "internalType": "uint256",
              "name": "positionAmount",
              "type": "uint256"
            }
          ],
          "internalType": "struct TimeswapV2PeripheryUniswapV3QuoterCloseBorrowGivenPositionParam",
          "name": "param",
          "type": "tuple"
        },
        {
          "internalType": "uint96",
          "name": "durationForward",
          "type": "uint96"
        }
      ],
      "name": "closeBorrowGivenPosition",
      "outputs": [
        {
          "internalType": "uint256",
          "name": "tokenAmount",
          "type": "uint256"
        },
        {
          "internalType": "uint160",
          "name": "timeswapV2SqrtInterestRateAfter",
          "type": "uint160"
        },
        {
          "internalType": "uint160",
          "name": "uniswapV3SqrtPriceAfter",
          "type": "uint160"
        }
      ],
      "stateMutability": "nonpayable",
      "type": "function"
    },
    {
      "inputs": [
        {
          "internalType": "bytes[]",
          "name": "data",
          "type": "bytes[]"
        }
      ],
      "name": "multicall",
      "outputs": [
        {
          "internalType": "bytes[]",
          "name": "results",
          "type": "bytes[]"
        }
      ],
      "stateMutability": "payable",
      "type": "function"
    },
    {
      "inputs": [
        {
          "internalType": "address",
          "name": "",
          "type": "address"
        },
        {
          "internalType": "address",
          "name": "",
          "type": "address"
        },
        {
          "internalType": "uint256[]",
          "name": "",
          "type": "uint256[]"
        },
        {
          "internalType": "uint256[]",
          "name": "",
          "type": "uint256[]"
        },
        {
          "internalType": "bytes",
          "name": "",
          "type": "bytes"
        }
      ],
      "name": "onERC1155BatchReceived",
      "outputs": [
        {
          "internalType": "bytes4",
          "name": "",
          "type": "bytes4"
        }
      ],
      "stateMutability": "pure",
      "type": "function"
    },
    {
      "inputs": [
        {
          "internalType": "address",
          "name": "operator",
          "type": "address"
        },
        {
          "internalType": "address",
          "name": "",
          "type": "address"
        },
        {
          "internalType": "uint256",
          "name": "",
          "type": "uint256"
        },
        {
          "internalType": "uint256",
          "name": "",
          "type": "uint256"
        },
        {
          "internalType": "bytes",
          "name": "",
          "type": "bytes"
        }
      ],
      "name": "onERC1155Received",
      "outputs": [
        {
          "internalType": "bytes4",
          "name": "",
          "type": "bytes4"
        }
      ],
      "stateMutability": "view",
      "type": "function"
    },
    {
      "inputs": [],
      "name": "optionFactory",
      "outputs": [
        {
          "internalType": "address",
          "name": "",
          "type": "address"
        }
      ],
      "stateMutability": "view",
      "type": "function"
    },
    {
      "inputs": [],
      "name": "poolFactory",
      "outputs": [
        {
          "internalType": "address",
          "name": "",
          "type": "address"
        }
      ],
      "stateMutability": "view",
      "type": "function"
    },
    {
      "inputs": [
        {
          "internalType": "bytes4",
          "name": "interfaceId",
          "type": "bytes4"
        }
      ],
      "name": "supportsInterface",
      "outputs": [
        {
          "internalType": "bool",
          "name": "",
          "type": "bool"
        }
      ],
      "stateMutability": "view",
      "type": "function"
    },
    {
      "inputs": [
        {
          "components": [
            {
              "internalType": "uint256",
              "name": "strike",
              "type": "uint256"
            },
            {
              "internalType": "uint256",
              "name": "maturity",
              "type": "uint256"
            },
            {
              "internalType": "bool",
              "name": "isLong0ToLong1",
              "type": "bool"
            },
            {
              "internalType": "uint256",
              "name": "token0AndLong0Amount",
              "type": "uint256"
            },
            {
              "internalType": "uint256",
              "name": "token1AndLong1Amount",
              "type": "uint256"
            },
            {
              "internalType": "bytes",
              "name": "data",
              "type": "bytes"
            }
          ],
          "internalType": "struct TimeswapV2OptionSwapCallbackParam",
          "name": "param",
          "type": "tuple"
        }
      ],
      "name": "timeswapV2OptionSwapCallback",
      "outputs": [
        {
          "internalType": "bytes",
          "name": "data",
          "type": "bytes"
        }
      ],
      "stateMutability": "nonpayable",
      "type": "function"
    },
    {
      "inputs": [
        {
          "components": [
            {
              "internalType": "uint256",
              "name": "strike",
              "type": "uint256"
            },
            {
              "internalType": "uint256",
              "name": "maturity",
              "type": "uint256"
            },
            {
              "internalType": "uint256",
              "name": "long0Amount",
              "type": "uint256"
            },
            {
              "internalType": "uint256",
              "name": "long1Amount",
              "type": "uint256"
            },
            {
              "internalType": "uint256",
              "name": "shortAmount",
              "type": "uint256"
            },
            {
              "internalType": "bytes",
              "name": "data",
              "type": "bytes"
            }
          ],
          "internalType": "struct TimeswapV2PoolDeleverageCallbackParam",
          "name": "param",
          "type": "tuple"
        }
      ],
      "name": "timeswapV2PoolDeleverageCallback",
      "outputs": [
        {
          "internalType": "bytes",
          "name": "data",
          "type": "bytes"
        }
      ],
      "stateMutability": "nonpayable",
      "type": "function"
    },
    {
      "inputs": [
        {
          "components": [
            {
              "internalType": "uint256",
              "name": "strike",
              "type": "uint256"
            },
            {
              "internalType": "uint256",
              "name": "maturity",
              "type": "uint256"
            },
            {
              "internalType": "uint256",
              "name": "longAmount",
              "type": "uint256"
            },
            {
              "internalType": "uint256",
              "name": "shortAmount",
              "type": "uint256"
            },
            {
              "internalType": "bytes",
              "name": "data",
              "type": "bytes"
            }
          ],
          "internalType": "struct TimeswapV2PoolDeleverageChoiceCallbackParam",
          "name": "param",
          "type": "tuple"
        }
      ],
      "name": "timeswapV2PoolDeleverageChoiceCallback",
      "outputs": [
        {
          "internalType": "uint256",
          "name": "long0Amount",
          "type": "uint256"
        },
        {
          "internalType": "uint256",
          "name": "long1Amount",
          "type": "uint256"
        },
        {
          "internalType": "bytes",
          "name": "data",
          "type": "bytes"
        }
      ],
      "stateMutability": "nonpayable",
      "type": "function"
    },
    {
      "inputs": [
        {
          "components": [
            {
              "internalType": "address",
              "name": "token0",
              "type": "address"
            },
            {
              "internalType": "address",
              "name": "token1",
              "type": "address"
            },
            {
              "internalType": "uint256",
              "name": "strike",
              "type": "uint256"
            },
            {
              "internalType": "uint256",
              "name": "maturity",
              "type": "uint256"
            },
            {
              "internalType": "uint256",
              "name": "long0Amount",
              "type": "uint256"
            },
            {
              "internalType": "uint256",
              "name": "long1Amount",
              "type": "uint256"
            },
            {
              "internalType": "uint256",
              "name": "shortAmount",
              "type": "uint256"
            },
            {
              "internalType": "bytes",
              "name": "data",
              "type": "bytes"
            }
          ],
          "internalType": "struct TimeswapV2TokenBurnCallbackParam",
          "name": "param",
          "type": "tuple"
        }
      ],
      "name": "timeswapV2TokenBurnCallback",
      "outputs": [
        {
          "internalType": "bytes",
          "name": "data",
          "type": "bytes"
        }
      ],
      "stateMutability": "nonpayable",
      "type": "function"
    },
    {
      "inputs": [],
      "name": "tokens",
      "outputs": [
        {
          "internalType": "address",
          "name": "",
          "type": "address"
        }
      ],
      "stateMutability": "view",
      "type": "function"
    },
    {
      "inputs": [],
      "name": "uniswapV3Factory",
      "outputs": [
        {
          "internalType": "address",
          "name": "",
          "type": "address"
        }
      ],
      "stateMutability": "view",
      "type": "function"
    },
    {
      "inputs": [
        {
          "internalType": "int256",
          "name": "amount0Delta",
          "type": "int256"
        },
        {
          "internalType": "int256",
          "name": "amount1Delta",
          "type": "int256"
        },
        {
          "internalType": "bytes",
          "name": "data",
          "type": "bytes"
        }
      ],
      "name": "uniswapV3SwapCallback",
      "outputs": [],
      "stateMutability": "view",
      "type": "function"
    }
  ],
  "bytecode": "0x6101006040523480156200001257600080fd5b5060405162003ec138038062003ec1833981016040819052620000359162000081565b6001600160601b0319606091821b811660805293811b841660a05291821b831660c052901b1660e052620000de565b80516001600160a01b03811681146200007c57600080fd5b919050565b600080600080608085870312156200009857600080fd5b620000a38562000064565b9350620000b36020860162000064565b9250620000c36040860162000064565b9150620000d36060860162000064565b905092959194509250565b60805160601c60a05160601c60c05160601c60e05160601c613d49620001786000396000818161021b015261123c0152600081816101290152818161058401528181610ab80152610ffb01526000818161029e0152818161056301528181610a9701528181610d8b0152610fda01526000818161017501528181610edd015281816116110152818161191d0152611ba70152613d496000f3fe6080604052600436106100dd5760003560e01c8063ac9650d81161007f578063dc4a484711610059578063dc4a4847146102f9578063f23a6e6114610319578063fa461e3314610339578063fb05b8fe1461035b57600080fd5b8063ac9650d81461026c578063b3461c871461028c578063bc197c81146102c057600080fd5b8063877093f6116100bb578063877093f61461019757806387a8993a146101dc5780639d63848a14610209578063aaac7a741461023d57600080fd5b806301ffc9a7146100e25780634219dc40146101175780635b54918214610163575b600080fd5b3480156100ee57600080fd5b506101026100fd366004612b69565b61037b565b60405190151581526020015b60405180910390f35b34801561012357600080fd5b5061014b7f000000000000000000000000000000000000000000000000000000000000000081565b6040516001600160a01b03909116815260200161010e565b34801561016f57600080fd5b5061014b7f000000000000000000000000000000000000000000000000000000000000000081565b3480156101a357600080fd5b506101b76101b2366004612baf565b6103b2565b604080519384526001600160a01b03928316602085015291169082015260600161010e565b3480156101e857600080fd5b506101fc6101f7366004612c05565b61052c565b60405161010e9190612c91565b34801561021557600080fd5b5061014b7f000000000000000000000000000000000000000000000000000000000000000081565b34801561024957600080fd5b5061025d610258366004612ca4565b610a60565b60405161010e93929190612cde565b61027f61027a366004612cfd565b610bbd565b60405161010e9190612d71565b34801561029857600080fd5b5061014b7f000000000000000000000000000000000000000000000000000000000000000081565b3480156102cc57600080fd5b506102e06102db366004612f2a565b610d4a565b6040516001600160e01b0319909116815260200161010e565b34801561030557600080fd5b506101fc610314366004612c05565b610d56565b34801561032557600080fd5b506102e0610334366004612fd7565b610e77565b34801561034557600080fd5b5061035961035436600461303f565b610e9f565b005b34801561036757600080fd5b506101fc6103763660046130be565b610fa6565b60006001600160e01b03198216630271189760e51b14806103ac57506301ffc9a760e01b6001600160e01b03198316145b92915050565b6000808080336103c860a088016080890161310a565b6103d860c0890160a08a01613127565b6103e860e08a0160c08b01613152565b604080516001600160a01b03958616602082015262ffffff9094169084015292166060820152901515608082015260a00160408051601f1981840301815261010083019091529150610502908061044260208a018a613127565b6001600160a01b031681526020018860200160208101906104639190613127565b6001600160a01b0316815260200188604001358152602001886060013581526020018860e00160208101906104989190613152565b15156104aa60e08b0160c08c01613152565b1515146104c6576104c160c08a0160a08b01613127565b6104c8565b305b6001600160a01b031681526020016104e76101008a0160e08b01613152565b151581526101008901356020820152604001839052866111f9565b815190965090935061051f9250830160209081019150830161316f565b9793965094509192505050565b606060008080808061054160a088018861319d565b81019061054e91906131ea565b9a5093985091965094509250905060006105aa7f00000000000000000000000000000000000000000000000000000000000000007f000000000000000000000000000000000000000000000000000000000000000088886113fe565b9050600080826001600160a01b031663622fb68f6040518061010001604052808d6000013581526020018d602001358152602001886105e957306105eb565b895b6001600160a01b03168152602001886106045789610606565b305b6001600160a01b03168152602001600181526020018861062757600061062d565b8d608001355b815260200188610641578d60800135610644565b60005b8152602001604051806020016040528060008152508152506040518263ffffffff1660e01b815260040161067891906132a3565b600060405180830381600087803b15801561069257600080fd5b505af11580156106a6573d6000803e3d6000fd5b505050506040513d6000823e601f3d908101601f191682016040526106ce919081019061336f565b505091509150846106e35789606001356106e9565b89604001355b1561077c576001600160a01b03831663b2ceca778b3560208d01353389610711576001610714565b60005b8a610723578f60600135610729565b8f604001355b6040518663ffffffff1660e01b81526004016107499594939291906133c8565b600060405180830381600087803b15801561076357600080fd5b505af1158015610777573d6000803e3d6000fd5b505050505b8461078b578960400135610791565b89606001355b1561094257878786876107a457836107a6565b845b878d6040516020016107bd96959493929190613408565b60408051601f19818403018152610100830182528c35835260208d810135908401526001600160a01b038981169284019290925233606084015287151560808401529a5084169063b084c2529060a081018861081a57600161081d565b60005b600181111561082e5761082e613279565b81526020018861084b5761084660608f01358661346c565b610859565b61085960408f01358761346c565b6108639089613484565b81526020018c8152506040518263ffffffff1660e01b8152600401610888919061349b565b600060405180830381600087803b1580156108a257600080fd5b505af19250505080156108d757506040513d6000823e601f3d908101601f191682016040526108d49190810190613521565b60015b61093a573d808015610905576040519150601f19603f3d011682016040523d82523d6000602084013e61090a565b606091505b5061091c81636fd90d8560e01b611536565b9950898060200190518101906109329190613570565b9950506109b8565b5050506109b8565b6109b5604051806101400160405280336001600160a01b031681526020018a6001600160a01b03168152602001896001600160a01b031681526020018c6000013581526020018c60200135815260200187151581526020018481526020018381526020018681526020018b8152506115a4565b98505b60405163a8f403b760e01b81528a35600482015260208b01356024820152600090339063a8f403b79060440160206040518083038186803b1580156109fc57600080fd5b505afa158015610a10573d6000803e3d6000fd5b505050506040513d601f19601f82011682018060405250810190610a3491906135a4565b90508083838c604051632a88a08b60e11b8152600401610a5794939291906135c1565b60405180910390fd5b60008060608180808080610a7760808a018a61319d565b810190610a8491906131ea565b9a50939850919650945092509050610ade7f00000000000000000000000000000000000000000000000000000000000000007f000000000000000000000000000000000000000000000000000000000000000087876113fe565b506000610af360608b01358b35851584611862565b610afd9083613484565b9050610b7c6040518060e00160405280886001600160a01b03168152602001876001600160a01b031681526020018c6000013581526020018c6020013581526020018515158152602001610b6f86610b56576000610b58565b845b87610b635785610b66565b60005b8f3560006118b2565b81526020018990526118f0565b604051929b509099509750610b9f90879087908790879087908d906020016135ee565b60405160208183030381529060405296505050505050509193909250565b6060816001600160401b03811115610bd757610bd7612de8565b604051908082528060200260200182016040528015610c0a57816020015b6060815260200190600190039081610bf55790505b50905060005b82811015610d435760008030868685818110610c2e57610c2e613631565b9050602002810190610c40919061319d565b604051610c4e929190613647565b600060405180830381855af49150503d8060008114610c89576040519150601f19603f3d011682016040523d82523d6000602084013e610c8e565b606091505b509150915081610d1057604481511015610cdc57604051635d2f436f60e11b815260206004820152600e60248201526d125b9d985b1a590814995cdd5b1d60921b6044820152606401610a57565b60048101905080806020019051810190610cf69190613657565b604051635d2f436f60e11b8152600401610a579190612c91565b80848481518110610d2357610d23613631565b602002602001018190525050508080610d3b9061369f565b915050610c10565b5092915050565b60005b95945050505050565b6060600080808080610d6b60a088018861319d565b810190610d7891906136ba565b9a50939850919650945092509050610db17f00000000000000000000000000000000000000000000000000000000000000008686611a5b565b610e5a604051806101400160405280336001600160a01b03168152602001876001600160a01b03168152602001866001600160a01b031681526020018960000135815260200189602001358152602001851515815260200185610e15576000610e17565b845b610e259060608c013561346c565b815260200185610e355784610e38565b60005b610e469060808c013561346c565b8152602001838152602001888152506115a4565b955085604051636fd90d8560e01b8152600401610a579190612c91565b60006001600160a01b0386163014610e9157506000610d4d565b5063f23a6e6160e01b610d4d565b600080610eae83850185613727565b915091508115610f9357600080600083806020019051810190610ed19190613776565b93509350935050610f047f0000000000000000000000000000000000000000000000000000000000000000848484611b11565b6000336001600160a01b0316633850c7bd6040518163ffffffff1660e01b815260040160e06040518083038186803b158015610f3f57600080fd5b505afa158015610f53573d6000803e3d6000fd5b505050506040513d601f19601f82011682018060405250810190610f7791906137e7565b5050505050509050610f8a8a8a83611b51565b50505050610f9e565b610f9e868683611b83565b505050505050565b60606000808080610fba60e087018761319d565b810190610fc79190613886565b985092965090945092509050600061103c7f00000000000000000000000000000000000000000000000000000000000000007f000000000000000000000000000000000000000000000000000000000000000061102760208b018b613127565b61103760408c0160208d01613127565b611bd8565b915061104d90506020880188613127565b61105d6040890160208a01613127565b8686868a604051602001611076969594939291906135ee565b60408051601f1981840301815260c0830182528982013583526060808b01356020850152309284019290925297506001600160a01b0383169163bfec5c8a918101600381526020016110e9886110cd5760006110cf565b875b896110da57886110dd565b60005b8d6040013560006118b2565b815260200189815250846040518363ffffffff1660e01b81526004016111109291906138e9565b600060405180830381600087803b15801561112a57600080fd5b505af192505050801561115f57506040513d6000823e601f3d908101601f1916820160405261115c919081019061336f565b60015b6111eb573d80801561118d576040519150601f19603f3d011682016040523d82523d6000602084013e611192565b606091505b506111a481632a88a08b60e11b611536565b96506000806000898060200190518101906111bf919061396b565b60405163568f677b60e01b8152909d509295509093509150610a57908490849084908e906004016135c1565b505050505050505050919050565b6000806060600085608001518660a001518760c00151878960e001516040516020016112299594939291906139b7565b60405160208183030381529060405291507f00000000000000000000000000000000000000000000000000000000000000006001600160a01b031663a38d7a1760405180610160016040528089600001516001600160a01b0316815260200189602001516001600160a01b031681526020018960400151815260200189606001518152602001306001600160a01b03168152602001306001600160a01b03168152602001306001600160a01b031681526020018960a001516112ec5760006112f2565b8960c001515b81526020018960a0015161130a578960c0015161130d565b60005b815260200160008152602001858152506040518263ffffffff1660e01b815260040161133991906139f5565b600060405180830381600087803b15801561135357600080fd5b505af192505050801561138857506040513d6000823e601f3d908101601f191682016040526113859190810190613570565b60015b6113f3573d8080156113b6576040519150601f19603f3d011682016040523d82523d6000602084013e6113bb565b606091505b506113cd8163568f677b60e01b611536565b9250828060200190518101906113e3919061396b565b9197509550935091506113f59050565b505b92959194509250565b60405163d81e842360e01b81526001600160a01b03838116600483015282811660248301526000919086169063d81e84239060440160206040518083038186803b15801561144b57600080fd5b505afa15801561145f573d6000803e3d6000fd5b505050506040513d601f19601f8201168201806040525081019061148391906135a4565b6040516330af0bbf60e21b81526001600160a01b03808316600483015291925060009186169063c2bc2efc9060240160206040518083038186803b1580156114ca57600080fd5b505afa1580156114de573d6000803e3d6000fd5b505050506040513d601f19601f8201168201806040525081019061150291906135a4565b90506001600160a01b038116331461152d5760405163863b47e760e01b815260040160405180910390fd5b50949350505050565b81516060906020611548600483613484565b6115529190613adc565b15801561157a57506001600160e01b0319831661156e85613af0565b6001600160e01b031916145b1561159c5761159484600461158f8185613484565b611c8d565b9150506103ac565b835184602001fd5b60606000806000808561012001518060200190518101906115c59190613b27565b93509350935093506000816115de578660e001516115e4565b8660c001515b90508660a001511515821515141561160a57808761010001516116079190613484565b90505b60006116407f000000000000000000000000000000000000000000000000000000000000000089602001518a6040015188611d9c565b9050600083611653578860c00151611659565b8860e001515b156117ac578860a001511515841515146116735786611675565b305b60208a8101516040808d015181516001600160a01b03958616948101949094529184169083015291909116606082015262ffffff8716608082015260a00160405160208183030381529060405297506001886040516020016116d8929190613b7b565b60405160208183030381529060405297506000846116fa578960c00151611700565b8960e001515b90508960a0015115158515151461172557808a61010001516117229190613484565b90505b60006117896040518060c001604052808d60a0015115158915151461174a578961174d565b8d515b6001600160a01b03908116825289151560208301526000604083015260608083018790528f0151608083015260a09091018d9052861690611e2c565b6001600160a01b031694509091506117a39050818661346c565b94505050611831565b816001600160a01b0316633850c7bd6040518163ffffffff1660e01b815260040160e06040518083038186803b1580156117e557600080fd5b505afa1580156117f9573d6000803e3d6000fd5b505050506040513d601f19601f8201168201806040525081019061181d91906137e7565b50506001600160a01b039094169450505050505b6040805160208101839052908101849052606001604051602081830303815290604052975050505050505050919050565b60006001600160801b03841161188f578261188957611884858560008561216b565b6118a7565b846118a7565b8261189a57846118a7565b6118a7858560018561216b565b90505b949350505050565b60006001600160801b0383116118d9576118cf858460018561216b565b611884908561346c565b6118e6848460008561216b565b6118a7908661346c565b60008060606000808560c001518060200190518101906119109190613b27565b935050925050600061194c7f00000000000000000000000000000000000000000000000000000000000000008860000151896020015186612192565b87516020808a0151604080516001600160a01b039485169381019390935292169181019190915262ffffff8516606082015290915060009060800160405160208183030381529060405294506000856040516020016119ac929190613b7b565b60408051601f1981840301815260a080840183528615158452600060208501528b01518b830151919850611a0c93928301916119eb9190886001611862565b81526040808c01516020830152018790526001600160a01b038416906121b4565b9050809150506000611a2b8960a00151838b6040015187156001612467565b905083611a385781611a3a565b805b975083611a475780611a49565b815b60c09099015197999650505050505050565b60405163d81e842360e01b81526001600160a01b03838116600483015282811660248301526000919085169063d81e84239060440160206040518083038186803b158015611aa857600080fd5b505afa158015611abc573d6000803e3d6000fd5b505050506040513d601f19601f82011682018060405250810190611ae091906135a4565b90506001600160a01b0381163314611b0b5760405163a5fbb7d960e01b815260040160405180910390fd5b50505050565b6000611b1f85858585611d9c565b90506001600160a01b0381163314611b4a576040516307c1698f60e01b815260040160405180910390fd5b5050505050565b604051633ab8e87b60e21b815260048101849052602481018390526001600160a01b0382166044820152606401610a57565b600080600083806020019051810190611b9c9190613b96565b925092509250611bce7f0000000000000000000000000000000000000000000000000000000000000000848484611b11565b610f9e86866124e2565b600080611bef6001600160a01b0387168585612505565b6040516330af0bbf60e21b81526001600160a01b0380831660048301529193509086169063c2bc2efc9060240160206040518083038186803b158015611c3457600080fd5b505afa158015611c48573d6000803e3d6000fd5b505050506040513d601f19601f82011682018060405250810190611c6c91906135a4565b90506001600160a01b038116611c8457611c84612526565b94509492505050565b606081611c9b81601f61346c565b1015611cda5760405162461bcd60e51b815260206004820152600e60248201526d736c6963655f6f766572666c6f7760901b6044820152606401610a57565b611ce4828461346c565b84511015611d285760405162461bcd60e51b8152602060048201526011602482015270736c6963655f6f75744f66426f756e647360781b6044820152606401610a57565b606082158015611d475760405191506000825260208201604052611d91565b6040519150601f8416801560200281840101858101878315602002848b0101015b81831015611d80578051835260209283019201611d68565b5050858452601f01601f1916604052505b5090505b9392505050565b604051630b4c774160e11b81526001600160a01b038481166004830152838116602483015262ffffff8316604483015260009190861690631698ee829060640160206040518083038186803b158015611df457600080fd5b505afa158015611e08573d6000803e3d6000fd5b505050506040513d601f19601f820116820180604052508101906118a791906135a4565b6000806000846001600160a01b0316633850c7bd6040518163ffffffff1660e01b815260040160e06040518083038186803b158015611e6a57600080fd5b505afa158015611e7e573d6000803e3d6000fd5b505050506040513d601f19601f82011682018060405250810190611ea291906137e7565b505050608088015193945060009315159250611ef8915050578460200151611ee857611ee3600173fffd8963efd1fc6a506488495d951d5263988d26613be3565b611f05565b611ee36401000276a36001613c0b565b611f05856080015161253f565b90506401000276a36001600160a01b03821611611f2f57611f2c6401000276a36001613c0b565b90505b73fffd8963efd1fc6a506488495d951d5263988d266001600160a01b03821610611f7557611f72600173fffd8963efd1fc6a506488495d951d5263988d26613be3565b90505b8460200151611f9857806001600160a01b0316826001600160a01b031610611fae565b806001600160a01b0316826001600160a01b0316115b156120e857600080876001600160a01b031663128acb083089602001518a60400151611fef57611fe18b6060015161258f565b611fea90613c36565b611ffc565b611ffc8b6060015161258f565b878c60a001516040518663ffffffff1660e01b8152600401612022959493929190613c53565b6040805180830381600087803b15801561203b57600080fd5b505af192505050801561206b575060408051601f3d908101601f1916820190925261206891810190613c8e565b60015b6120b6573d808015612099576040519150601f19603f3d011682016040523d82523d6000602084013e61209e565b606091505b506120a8816125a5565b965090935091506120b99050565b50505b86602001516120d157806120cc83613c36565b6120db565b816120db82613c36565b9096509450612163915050565b856001600160a01b0316633850c7bd6040518163ffffffff1660e01b815260040160e06040518083038186803b15801561212157600080fd5b505afa158015612135573d6000803e3d6000fd5b505050506040513d601f19601f8201168201806040525081019061215991906137e7565b5094965050505050505b509250925092565b6000826121825761188485600160801b86856125da565b6118a78585600160801b856125da565b60006121a085858585611d9c565b90506118aa816001600160a01b03166126d6565b6000806000846001600160a01b0316633850c7bd6040518163ffffffff1660e01b815260040160e06040518083038186803b1580156121f257600080fd5b505afa158015612206573d6000803e3d6000fd5b505050506040513d601f19601f8201168201806040525081019061222a91906137e7565b5050505050509050600084606001516000141561227b57845161226b57612266600173fffd8963efd1fc6a506488495d951d5263988d26613be3565b612288565b6122666401000276a36001613c0b565b612288856060015161253f565b90506401000276a36001600160a01b038216116122b2576122af6401000276a36001613c0b565b90505b73fffd8963efd1fc6a506488495d951d5263988d266001600160a01b038216106122f8576122f5600173fffd8963efd1fc6a506488495d951d5263988d26613be3565b90505b845161231857816001600160a01b0316816001600160a01b03161161232e565b816001600160a01b0316816001600160a01b0316105b1561245e57600080876001600160a01b031663128acb083089600001518a6020015161236f576123618b6040015161258f565b61236a90613c36565b61237c565b61237c8b6040015161258f565b878c608001516040518663ffffffff1660e01b81526004016123a2959493929190613c53565b6040805180830381600087803b1580156123bb57600080fd5b505af19250505080156123eb575060408051601f3d908101601f191682019092526123e891810190613c8e565b60015b612434573d808015612419576040519150601f19603f3d011682016040523d82523d6000602084013e61241e565b606091505b5061242881612700565b90935091506124379050565b50505b865161244c578061244783613c36565b612456565b8161245682613c36565b909650945050505b50509250929050565b60006001600160801b0384116124af5782612497576124926124898688613484565b8560008561216b565b6124d8565b6124a585856001851561216b565b6124929087613484565b826124c2576124a585856000851561216b565b6124d86124cf8688613484565b8560018561216b565b9695505050505050565b6040516377760aaf60e11b81526004810183905260248101829052604401610a57565b6000612512848484612730565b90506001600160a01b038116611d9557611d955b60405163d92e233d60e01b815260040160405180910390fd5b60006001600160c01b038211612566576103ac612561604084901b60006127b5565b612833565b60008061257c846801000000000000000061285d565b915091506118aa6125618383600061287c565b6000600160ff1b82106125a157600080fd5b5090565b600080806125ba84633ab8e87b60e21b611536565b8060200190518101906125cd9190613cb2565b9250925092509193909250565b60008060006125e9878761285d565b91509150806000141561260a5761260182868661290a565b925050506118aa565b80851161263b5760405163362ced0960e11b8152600481018890526024810187905260448101869052606401610a57565b600085878909600087810388169788900497600260038a028118808b02820302808b02820302808b02820302808b02820302808b02820302808b029091030291819003819004600101868411909503948502929095039490940417928302935084905080156126b9575084806126b3576126b3613ac6565b86880915155b156126cc57826126c88161369f565b9350505b5050949350505050565b6001600160a01b0381166126fd5760405163037064f160e01b815260040160405180910390fd5b50565b600080612714836377760aaf60e11b611536565b8060200190518101906127279190613c8e565b91509150915091565b60405163d81e842360e01b81526001600160a01b03838116600483015282811660248301526000919085169063d81e84239060440160206040518083038186803b15801561277d57600080fd5b505afa158015612791573d6000803e3d6000fd5b505050506040513d601f19601f820116820180604052508101906118aa91906135a4565b60006000198314156127cf57506001600160801b036103ac565b826127dc575060006103ac565b50816001818101901c5b8181101561280e5780915060018182868161280357612803613ac6565b0401901c90506127e6565b508180156128245750826128228280613ce0565b105b156103ac57806118aa8161369f565b60006001600160a01b038211156125a157604051630ba006e160e41b815260040160405180910390fd5b6000806000198385098385029250828110838203039150509250929050565b6000826128945761288d84836127b5565b9050611d95565b60006128a3858560001961293c565b905060001991505b818110156128c8578091506128c185858361293c565b90506128ab565b8215612902576000806128db848561285d565b91509150808611806128ec57508187115b156128ff57836128fb8161369f565b9450505b50505b509392505050565b60006129168385613cff565b905081801561292d575061292a8385613adc565b15155b15611d955780610d4d8161369f565b60008061294c858585600061296d565b9050600061295e8260008660006129f2565b90925090506124d88282600260005b60008061297b868686612a63565b909250905080156129b057604051636aa917ab60e01b8152600481018790526024810186905260448101859052606401610a57565b821561152d576000806129c3848761285d565b91509150808711806129d457508188115b156129e757836129e38161369f565b9450505b505050949350505050565b8184018481108285018101908015612a1f57811580612a1a5750612a17600183613484565b86115b612a23565b8186115b15612a59576040516347b1893f60e01b815260048101889052602481018790526044810186905260648101859052608401610a57565b5094509492505050565b60008083612a7e57612a778584600061290a565b9150612b0a565b6000612a8984612b12565b90506000612a9685612b3f565b90505b8515612aea57600080612aac888561285d565b91509150612abc868684846129f2565b9096509450612acb888461285d565b9092509050612add82828b60006129f2565b9099509750612a99915050565b612b028484612afb8a89600061290a565b60006129f2565b909450925050505b935093915050565b600081612b32576040516301de42a960e41b815260040160405180910390fd5b5060008190030460010190565b600081612b5f576040516319dbad9f60e01b815260040160405180910390fd5b5060008190030690565b600060208284031215612b7b57600080fd5b81356001600160e01b031981168114611d9557600080fd5b80356001600160601b0381168114612baa57600080fd5b919050565b600080828403610140811215612bc457600080fd5b61012080821215612bd457600080fd5b849350612be2818601612b93565b925050509250929050565b600060c08284031215612bff57600080fd5b50919050565b600060208284031215612c1757600080fd5b81356001600160401b03811115612c2d57600080fd5b6118aa84828501612bed565b60005b83811015612c54578181015183820152602001612c3c565b83811115611b0b5750506000910152565b60008151808452612c7d816020860160208601612c39565b601f01601f19169290920160200192915050565b602081526000611d956020830184612c65565b600060208284031215612cb657600080fd5b81356001600160401b03811115612ccc57600080fd5b820160a08185031215611d9557600080fd5b8381528260208201526060604082015260006118a76060830184612c65565b60008060208385031215612d1057600080fd5b82356001600160401b0380821115612d2757600080fd5b818501915085601f830112612d3b57600080fd5b813581811115612d4a57600080fd5b8660208260051b8501011115612d5f57600080fd5b60209290920196919550909350505050565b6000602080830181845280855180835260408601915060408160051b870101925083870160005b82811015612dc657603f19888603018452612db4858351612c65565b94509285019290850190600101612d98565b5092979650505050505050565b6001600160a01b03811681146126fd57600080fd5b634e487b7160e01b600052604160045260246000fd5b604051601f8201601f191681016001600160401b0381118282101715612e2657612e26612de8565b604052919050565b600082601f830112612e3f57600080fd5b813560206001600160401b03821115612e5a57612e5a612de8565b8160051b612e69828201612dfe565b9283528481018201928281019087851115612e8357600080fd5b83870192505b84831015612ea257823582529183019190830190612e89565b979650505050505050565b60006001600160401b03821115612ec657612ec6612de8565b50601f01601f191660200190565b600082601f830112612ee557600080fd5b8135612ef8612ef382612ead565b612dfe565b818152846020838601011115612f0d57600080fd5b816020850160208301376000918101602001919091529392505050565b600080600080600060a08688031215612f4257600080fd5b8535612f4d81612dd3565b94506020860135612f5d81612dd3565b935060408601356001600160401b0380821115612f7957600080fd5b612f8589838a01612e2e565b94506060880135915080821115612f9b57600080fd5b612fa789838a01612e2e565b93506080880135915080821115612fbd57600080fd5b50612fca88828901612ed4565b9150509295509295909350565b600080600080600060a08688031215612fef57600080fd5b8535612ffa81612dd3565b9450602086013561300a81612dd3565b9350604086013592506060860135915060808601356001600160401b0381111561303357600080fd5b612fca88828901612ed4565b6000806000806060858703121561305557600080fd5b843593506020850135925060408501356001600160401b038082111561307a57600080fd5b818701915087601f83011261308e57600080fd5b81358181111561309d57600080fd5b8860208285010111156130af57600080fd5b95989497505060200194505050565b6000602082840312156130d057600080fd5b81356001600160401b038111156130e657600080fd5b82016101008185031215611d9557600080fd5b62ffffff811681146126fd57600080fd5b60006020828403121561311c57600080fd5b8135611d95816130f9565b60006020828403121561313957600080fd5b8135611d9581612dd3565b80151581146126fd57600080fd5b60006020828403121561316457600080fd5b8135611d9581613144565b6000806040838503121561318257600080fd5b825161318d81612dd3565b6020939093015192949293505050565b6000808335601e198436030181126131b457600080fd5b8301803591506001600160401b038211156131ce57600080fd5b6020019150368190038213156131e357600080fd5b9250929050565b60008060008060008060c0878903121561320357600080fd5b863561320e81612dd3565b9550602087013561321e81612dd3565b9450604087013561322e81612dd3565b9350606087013561323e81613144565b92506080870135915060a08701356001600160401b0381111561326057600080fd5b61326c89828a01612ed4565b9150509295509295509295565b634e487b7160e01b600052602160045260246000fd5b6002811061329f5761329f613279565b9052565b6020815281516020820152602082015160408201526000604083015160018060a01b038082166060850152806060860151166080850152505060808301516132ee60a084018261328f565b5060a083015160c083015260c083015160e083015260e08301516101008081850152506118aa610120840182612c65565b600061332d612ef384612ead565b905082815283838301111561334157600080fd5b611d95836020830184612c39565b600082601f83011261336057600080fd5b611d958383516020850161331f565b6000806000806080858703121561338557600080fd5b84519350602085015192506040850151915060608501516001600160401b038111156133b057600080fd5b6133bc8782880161334f565b91505092959194509250565b858152602081018590526001600160a01b038416604082015260a08101600384106133f5576133f5613279565b6060820193909352608001529392505050565b6001600160a01b038781168252861660208201528415156040820152606081018490526080810183905260c060a0820181905260009061344a90830184612c65565b98975050505050505050565b634e487b7160e01b600052601160045260246000fd5b6000821982111561347f5761347f613456565b500190565b60008282101561349657613496613456565b500390565b6020815281516020820152602082015160408201526000604083015160018060a01b038082166060850152806060860151166080850152505060808301516134e760a084018215159052565b5060a08301516134fa60c084018261328f565b5060c083015160e083015260e08301516101008081850152506118aa610120840182612c65565b60008060006060848603121561353657600080fd5b835192506020840151915060408401516001600160401b0381111561355a57600080fd5b6135668682870161334f565b9150509250925092565b60006020828403121561358257600080fd5b81516001600160401b0381111561359857600080fd5b6118aa8482850161334f565b6000602082840312156135b657600080fd5b8151611d9581612dd3565b60018060a01b03851681528360208201528260408201526080606082015260006124d86080830184612c65565b6001600160a01b03878116825286811660208301528516604082015283151560608201526080810183905260c060a0820181905260009061344a90830184612c65565b634e487b7160e01b600052603260045260246000fd5b8183823760009101908152919050565b60006020828403121561366957600080fd5b81516001600160401b0381111561367f57600080fd5b8201601f8101841361369057600080fd5b6118aa8482516020840161331f565b60006000198214156136b3576136b3613456565b5060010190565b60008060008060008060c087890312156136d357600080fd5b86356136de81612dd3565b955060208701356136ee81612dd3565b945060408701356136fe81613144565b9350606087013592506080870135915060a08701356001600160401b0381111561326057600080fd5b6000806040838503121561373a57600080fd5b823561374581613144565b915060208301356001600160401b0381111561376057600080fd5b61376c85828601612ed4565b9150509250929050565b6000806000806080858703121561378c57600080fd5b845161379781612dd3565b60208601519094506137a881612dd3565b60408601519093506137b981612dd3565b60608601519092506137ca816130f9565b939692955090935050565b805161ffff81168114612baa57600080fd5b600080600080600080600060e0888a03121561380257600080fd5b875161380d81612dd3565b8097505060208801518060020b811461382557600080fd5b9550613833604089016137d5565b9450613841606089016137d5565b935061384f608089016137d5565b925060a088015160ff8116811461386557600080fd5b60c089015190925061387681613144565b8091505092959891949750929550565b600080600080600060a0868803121561389e57600080fd5b85356138a981612dd3565b945060208601356138b981613144565b9350604086013592506138ce60608701612b93565b915060808601356001600160401b0381111561303357600080fd5b60408152825160408201526020830151606082015260018060a01b036040840151166080820152600060608401516004811061392757613927613279565b8060a084015250608084015160c083015260a084015160c060e0840152613952610100840182612c65565b9150506001600160601b03831660208301529392505050565b6000806000806080858703121561398157600080fd5b845161398c81612dd3565b80945050602085015192506040850151915060608501516001600160401b038111156133b057600080fd5b60018060a01b038616815284151560208201528360408201526001600160601b038316606082015260a060808201526000612ea260a0830184612c65565b60208152613a0f6020820183516001600160a01b03169052565b60006020830151613a2b60408401826001600160a01b03169052565b5060408301516060830152606083015160808301526080830151613a5a60a08401826001600160a01b03169052565b5060a08301516001600160a01b03811660c08401525060c08301516001600160a01b03811660e08401525060e0830151610100838101919091528301516101208084019190915283015161014080840191909152830151610160808401526118aa610180840182612c65565b634e487b7160e01b600052601260045260246000fd5b600082613aeb57613aeb613ac6565b500690565b805160208201516001600160e01b03198082169291906004831015613b1f5780818460040360031b1b83161693505b505050919050565b60008060008060808587031215613b3d57600080fd5b8451613b4881612dd3565b6020860151909450613b59816130f9565b6040860151909350613b6a81612dd3565b60608601519092506137ca81613144565b82151581526040602082015260006118aa6040830184612c65565b600080600060608486031215613bab57600080fd5b8351613bb681612dd3565b6020850151909350613bc781612dd3565b6040850151909250613bd8816130f9565b809150509250925092565b60006001600160a01b0383811690831681811015613c0357613c03613456565b039392505050565b60006001600160a01b03828116848216808303821115613c2d57613c2d613456565b01949350505050565b6000600160ff1b821415613c4c57613c4c613456565b5060000390565b6001600160a01b0386811682528515156020830152604082018590528316606082015260a060808201819052600090612ea290830184612c65565b60008060408385031215613ca157600080fd5b505080516020909101519092909150565b600080600060608486031215613cc757600080fd5b83519250602084015191506040840151613bd881612dd3565b6000816000190483118215151615613cfa57613cfa613456565b500290565b600082613d0e57613d0e613ac6565b50049056fea2646970667358221220640066c929dcbb8c932c54b540ee76c7337cf113a70aaedc69333debe6af346f64736f6c63430008080033",
  "linkReferences": {},
  "deployedLinkReferences": {}
}