{
  "_format": "hh-sol-artifact-1",
  "contractName": "TimeswapV2PeripheryUniswapV3QuoterLendGivenPrincipal",
  "sourceName": "@timeswap-labs/v2-periphery-uniswapV3/contracts/lens/TimeswapV2PeripheryUniswapV3QuoterLendGivenPrincipal.sol",
  "abi": [
    {
      "inputs": [
        {
          "internalType": "address",
          "name": "chosenOptionFactory",
          "type": "address"
        },
        {
          "internalType": "address",
          "name": "chosenPoolFactory",
          "type": "address"
        },
        {
          "internalType": "address",
          "name": "chosenTokens",
          "type": "address"
        },
        {
          "internalType": "address",
          "name": "chosenUniswapV3Factory",
          "type": "address"
        }
      ],
      "stateMutability": "nonpayable",
      "type": "constructor"
    },
    {
      "inputs": [
        {
          "internalType": "uint256",
          "name": "addendA0",
          "type": "uint256"
        },
        {
          "internalType": "uint256",
          "name": "addendA1",
          "type": "uint256"
        },
        {
          "internalType": "uint256",
          "name": "addendB0",
          "type": "uint256"
        },
        {
          "internalType": "uint256",
          "name": "addendB1",
          "type": "uint256"
        }
      ],
      "name": "AddOverflow",
      "type": "error"
    },
    {
      "inputs": [],
      "name": "CanOnlyBeCalledByOptionContract",
      "type": "error"
    },
    {
      "inputs": [],
      "name": "CanOnlyBeCalledByPoolContract",
      "type": "error"
    },
    {
      "inputs": [],
      "name": "CanOnlyBeCalledByTokensContract",
      "type": "error"
    },
    {
      "inputs": [],
      "name": "CanOnlyBeCalledByUniswapV3Contract",
      "type": "error"
    },
    {
      "inputs": [
        {
          "internalType": "uint256",
          "name": "dividend0",
          "type": "uint256"
        },
        {
          "internalType": "uint256",
          "name": "dividend1",
          "type": "uint256"
        },
        {
          "internalType": "uint256",
          "name": "divisor",
          "type": "uint256"
        }
      ],
      "name": "DivOverflow",
      "type": "error"
    },
    {
      "inputs": [],
      "name": "DivideByZero",
      "type": "error"
    },
    {
      "inputs": [],
      "name": "ModuloByZero",
      "type": "error"
    },
    {
      "inputs": [
        {
          "internalType": "uint256",
          "name": "multiplicand",
          "type": "uint256"
        },
        {
          "internalType": "uint256",
          "name": "multiplier",
          "type": "uint256"
        },
        {
          "internalType": "uint256",
          "name": "divisor",
          "type": "uint256"
        }
      ],
      "name": "MulDivOverflow",
      "type": "error"
    },
    {
      "inputs": [
        {
          "internalType": "string",
          "name": "revertString",
          "type": "string"
        }
      ],
      "name": "MulticallFailed",
      "type": "error"
    },
    {
      "inputs": [
        {
          "internalType": "int256",
          "name": "amount0",
          "type": "int256"
        },
        {
          "internalType": "int256",
          "name": "amount1",
          "type": "int256"
        }
      ],
      "name": "PassCalculateInfo",
      "type": "error"
    },
    {
      "inputs": [
        {
          "internalType": "bytes",
          "name": "data",
          "type": "bytes"
        }
      ],
      "name": "PassOptionMintCallbackInfo",
      "type": "error"
    },
    {
      "inputs": [
        {
          "internalType": "uint160",
          "name": "timeswapV2SqrtInterestRateAfter",
          "type": "uint160"
        },
        {
          "internalType": "bytes",
          "name": "data",
          "type": "bytes"
        }
      ],
      "name": "PassPoolDeleverageCallbackInfo",
      "type": "error"
    },
    {
      "inputs": [
        {
          "internalType": "int256",
          "name": "amount0",
          "type": "int256"
        },
        {
          "internalType": "int256",
          "name": "amount1",
          "type": "int256"
        },
        {
          "internalType": "uint160",
          "name": "uniswapV3SqrtPriceAfter",
          "type": "uint160"
        }
      ],
      "name": "PassUniswapV3SwapCallbackInfo",
      "type": "error"
    },
    {
      "inputs": [],
      "name": "Uint160Overflow",
      "type": "error"
    },
    {
      "inputs": [],
      "name": "ZeroAddress",
      "type": "error"
    },
    {
      "inputs": [],
      "name": "ZeroPoolAddress",
      "type": "error"
    },
    {
      "inputs": [
        {
          "components": [
            {
              "internalType": "address",
              "name": "token0",
              "type": "address"
            },
            {
              "internalType": "address",
              "name": "token1",
              "type": "address"
            },
            {
              "internalType": "uint256",
              "name": "strike",
              "type": "uint256"
            },
            {
              "internalType": "uint256",
              "name": "maturity",
              "type": "uint256"
            },
            {
              "internalType": "uint24",
              "name": "uniswapV3Fee",
              "type": "uint24"
            },
            {
              "internalType": "address",
              "name": "to",
              "type": "address"
            },
            {
              "internalType": "bool",
              "name": "isToken0",
              "type": "bool"
            },
            {
              "internalType": "uint256",
              "name": "tokenAmount",
              "type": "uint256"
            }
          ],
          "internalType": "struct TimeswapV2PeripheryUniswapV3QuoterLendGivenPrincipalParam",
          "name": "param",
          "type": "tuple"
        },
        {
          "internalType": "uint96",
          "name": "durationForward",
          "type": "uint96"
        }
      ],
      "name": "lendGivenPrincipal",
      "outputs": [
        {
          "internalType": "uint256",
          "name": "positionAmount",
          "type": "uint256"
        },
        {
          "internalType": "uint160",
          "name": "timeswapV2SqrtInterestRateAfter",
          "type": "uint160"
        },
        {
          "internalType": "uint160",
          "name": "uniswapV3SqrtPriceAfter",
          "type": "uint160"
        }
      ],
      "stateMutability": "nonpayable",
      "type": "function"
    },
    {
      "inputs": [
        {
          "internalType": "bytes[]",
          "name": "data",
          "type": "bytes[]"
        }
      ],
      "name": "multicall",
      "outputs": [
        {
          "internalType": "bytes[]",
          "name": "results",
          "type": "bytes[]"
        }
      ],
      "stateMutability": "payable",
      "type": "function"
    },
    {
      "inputs": [],
      "name": "optionFactory",
      "outputs": [
        {
          "internalType": "address",
          "name": "",
          "type": "address"
        }
      ],
      "stateMutability": "view",
      "type": "function"
    },
    {
      "inputs": [],
      "name": "poolFactory",
      "outputs": [
        {
          "internalType": "address",
          "name": "",
          "type": "address"
        }
      ],
      "stateMutability": "view",
      "type": "function"
    },
    {
      "inputs": [
        {
          "components": [
            {
              "internalType": "uint256",
              "name": "strike",
              "type": "uint256"
            },
            {
              "internalType": "uint256",
              "name": "maturity",
              "type": "uint256"
            },
            {
              "internalType": "uint256",
              "name": "token0AndLong0Amount",
              "type": "uint256"
            },
            {
              "internalType": "uint256",
              "name": "token1AndLong1Amount",
              "type": "uint256"
            },
            {
              "internalType": "uint256",
              "name": "shortAmount",
              "type": "uint256"
            },
            {
              "internalType": "bytes",
              "name": "data",
              "type": "bytes"
            }
          ],
          "internalType": "struct TimeswapV2OptionMintCallbackParam",
          "name": "param",
          "type": "tuple"
        }
      ],
      "name": "timeswapV2OptionMintCallback",
      "outputs": [
        {
          "internalType": "bytes",
          "name": "data",
          "type": "bytes"
        }
      ],
      "stateMutability": "nonpayable",
      "type": "function"
    },
    {
      "inputs": [
        {
          "components": [
            {
              "internalType": "uint256",
              "name": "strike",
              "type": "uint256"
            },
            {
              "internalType": "uint256",
              "name": "maturity",
              "type": "uint256"
            },
            {
              "internalType": "uint256",
              "name": "long0Amount",
              "type": "uint256"
            },
            {
              "internalType": "uint256",
              "name": "long1Amount",
              "type": "uint256"
            },
            {
              "internalType": "uint256",
              "name": "shortAmount",
              "type": "uint256"
            },
            {
              "internalType": "bytes",
              "name": "data",
              "type": "bytes"
            }
          ],
          "internalType": "struct TimeswapV2PoolDeleverageCallbackParam",
          "name": "param",
          "type": "tuple"
        }
      ],
      "name": "timeswapV2PoolDeleverageCallback",
      "outputs": [
        {
          "internalType": "bytes",
          "name": "data",
          "type": "bytes"
        }
      ],
      "stateMutability": "nonpayable",
      "type": "function"
    },
    {
      "inputs": [
        {
          "components": [
            {
              "internalType": "uint256",
              "name": "strike",
              "type": "uint256"
            },
            {
              "internalType": "uint256",
              "name": "maturity",
              "type": "uint256"
            },
            {
              "internalType": "uint256",
              "name": "longAmount",
              "type": "uint256"
            },
            {
              "internalType": "uint256",
              "name": "shortAmount",
              "type": "uint256"
            },
            {
              "internalType": "bytes",
              "name": "data",
              "type": "bytes"
            }
          ],
          "internalType": "struct TimeswapV2PoolDeleverageChoiceCallbackParam",
          "name": "param",
          "type": "tuple"
        }
      ],
      "name": "timeswapV2PoolDeleverageChoiceCallback",
      "outputs": [
        {
          "internalType": "uint256",
          "name": "long0Amount",
          "type": "uint256"
        },
        {
          "internalType": "uint256",
          "name": "long1Amount",
          "type": "uint256"
        },
        {
          "internalType": "bytes",
          "name": "data",
          "type": "bytes"
        }
      ],
      "stateMutability": "view",
      "type": "function"
    },
    {
      "inputs": [
        {
          "components": [
            {
              "internalType": "address",
              "name": "token0",
              "type": "address"
            },
            {
              "internalType": "address",
              "name": "token1",
              "type": "address"
            },
            {
              "internalType": "uint256",
              "name": "strike",
              "type": "uint256"
            },
            {
              "internalType": "uint256",
              "name": "maturity",
              "type": "uint256"
            },
            {
              "internalType": "uint256",
              "name": "long0Amount",
              "type": "uint256"
            },
            {
              "internalType": "uint256",
              "name": "long1Amount",
              "type": "uint256"
            },
            {
              "internalType": "uint256",
              "name": "shortAmount",
              "type": "uint256"
            },
            {
              "internalType": "bytes",
              "name": "data",
              "type": "bytes"
            }
          ],
          "internalType": "struct TimeswapV2TokenMintCallbackParam",
          "name": "param",
          "type": "tuple"
        }
      ],
      "name": "timeswapV2TokenMintCallback",
      "outputs": [
        {
          "internalType": "bytes",
          "name": "data",
          "type": "bytes"
        }
      ],
      "stateMutability": "nonpayable",
      "type": "function"
    },
    {
      "inputs": [],
      "name": "tokens",
      "outputs": [
        {
          "internalType": "address",
          "name": "",
          "type": "address"
        }
      ],
      "stateMutability": "view",
      "type": "function"
    },
    {
      "inputs": [],
      "name": "uniswapV3Factory",
      "outputs": [
        {
          "internalType": "address",
          "name": "",
          "type": "address"
        }
      ],
      "stateMutability": "view",
      "type": "function"
    },
    {
      "inputs": [
        {
          "internalType": "int256",
          "name": "amount0Delta",
          "type": "int256"
        },
        {
          "internalType": "int256",
          "name": "amount1Delta",
          "type": "int256"
        },
        {
          "internalType": "bytes",
          "name": "data",
          "type": "bytes"
        }
      ],
      "name": "uniswapV3SwapCallback",
      "outputs": [],
      "stateMutability": "view",
      "type": "function"
    }
  ],
  "bytecode": "0x6101006040523480156200001257600080fd5b506040516200318a3803806200318a833981016040819052620000359162000081565b6001600160601b0319606091821b811660805293811b841660a05291821b831660c052901b1660e052620000de565b80516001600160a01b03811681146200007c57600080fd5b919050565b600080600080608085870312156200009857600080fd5b620000a38562000064565b9350620000b36020860162000064565b9250620000c36040860162000064565b9150620000d36060860162000064565b905092959194509250565b60805160601c60a05160601c60c05160601c60e05160601c61300c6200017e600039600081816101850152818161031b0152610c3c01526000818160b30152818161055c015281816107ce0152611432015260008181610208015281816102e20152818161053b015281816107ad01528181610c670152611411015260008181610131015281816109be01528181610d710152611742015261300c6000f3fe60806040526004361061009c5760003560e01c8063aaac7a7411610064578063aaac7a74146101a7578063ac9650d8146101d6578063b3461c87146101f6578063bb23414c1461022a578063e13c022c1461026f578063fa461e331461028f57600080fd5b80634219dc40146100a15780634a358d65146100f25780635b5491821461011f57806387a8993a146101535780639d63848a14610173575b600080fd5b3480156100ad57600080fd5b506100d57f000000000000000000000000000000000000000000000000000000000000000081565b6040516001600160a01b0390911681526020015b60405180910390f35b3480156100fe57600080fd5b5061011261010d366004612102565b6102b1565b6040516100e991906121f8565b34801561012b57600080fd5b506100d57f000000000000000000000000000000000000000000000000000000000000000081565b34801561015f57600080fd5b5061011261016e36600461220b565b61050b565b34801561017f57600080fd5b506100d57f000000000000000000000000000000000000000000000000000000000000000081565b3480156101b357600080fd5b506101c76101c2366004612245565b610778565b6040516100e99392919061227f565b6101e96101e436600461229e565b610827565b6040516100e99190612312565b34801561020257600080fd5b506100d57f000000000000000000000000000000000000000000000000000000000000000081565b34801561023657600080fd5b5061024a61024536600461238d565b6109b4565b604080519384526001600160a01b0392831660208501529116908201526060016100e9565b34801561027b57600080fd5b5061011261028a3660046123d8565b610c35565b34801561029b57600080fd5b506102af6102aa36600461240c565b610d33565b005b60606000806000808560a001518060200190518101906102d191906124f0565b9850929650909450925090506103087f00000000000000000000000000000000000000000000000000000000000000008585610e3a565b60808601516103179082612587565b90507f00000000000000000000000000000000000000000000000000000000000000006001600160a01b0316634fd991ea604051806101600160405280876001600160a01b03168152602001866001600160a01b031681526020018960000151815260200189602001518152602001306001600160a01b03168152602001306001600160a01b03168152602001856001600160a01b031681526020016000815260200160008152602001848152602001604051806020016040528060008152508152506040518263ffffffff1660e01b81526004016103f6919061259f565b600060405180830381600087803b15801561041057600080fd5b505af1158015610424573d6000803e3d6000fd5b505050506040513d6000823e601f3d908101601f1916820160405261044c9190810190612670565b506104c1604051806101200160405280336001600160a01b03168152602001866001600160a01b03168152602001856001600160a01b03168152602001886000015181526020018860200151815260200188604001518152602001886060015181526020018381526020018781525050606090565b945080856040516020016104d69291906126a4565b604051602081830303815290604052945084604051632e1c70f360e11b815260040161050291906121f8565b60405180910390fd5b60606000808061051e60a08601866126bd565b81019061052b919061270a565b96509194509250905060006105827f00000000000000000000000000000000000000000000000000000000000000007f00000000000000000000000000000000000000000000000000000000000000008686610ef0565b90508383838860800135886040516020016105a195949392919061277e565b60408051808303601f1901815261012083018252883583526020808a01359084015233838301819052606080850191909152306080850152600060a08501528983013560c085015289013560e0840152610100830181905290516380e0667960e01b81529096506001600160a01b038316916380e066799161062691906004016127ee565b600060405180830381600087803b15801561064057600080fd5b505af192505050801561067557506040513d6000823e601f3d908101601f191682016040526106729190810190612890565b60015b6106d8573d8080156106a3576040519150601f19603f3d011682016040523d82523d6000602084013e6106a8565b606091505b506106ba81632e1c70f360e11b611028565b9550858060200190518101906106d09190612670565b9550506106dd565b505050505b60405163a8f403b760e01b81528635600482015260208701356024820152600090339063a8f403b79060440160206040518083038186803b15801561072157600080fd5b505afa158015610735573d6000803e3d6000fd5b505050506040513d601f19601f8201168201806040525081019061075991906128dd565b9050808660405163b602147560e01b81526004016105029291906128fa565b600080606081808061078d60808801886126bd565b81019061079a919061291e565b919a5098509650919450925090506107f47f00000000000000000000000000000000000000000000000000000000000000007f00000000000000000000000000000000000000000000000000000000000000008585610ef0565b508282828660405160200161080c94939291906129a4565b60405160208183030381529060405293505050509193909250565b6060816001600160401b0381111561084157610841612017565b60405190808252806020026020018201604052801561087457816020015b606081526020019060019003908161085f5790505b50905060005b828110156109ad5760008030868685818110610898576108986129d8565b90506020028101906108aa91906126bd565b6040516108b89291906129ee565b600060405180830381855af49150503d80600081146108f3576040519150601f19603f3d011682016040523d82523d6000602084013e6108f8565b606091505b50915091508161097a5760448151101561094657604051635d2f436f60e11b815260206004820152600e60248201526d125b9d985b1a590814995cdd5b1d60921b6044820152606401610502565b6004810190508080602001905181019061096091906129fe565b604051635d2f436f60e11b815260040161050291906121f8565b8084848151811061098d5761098d6129d8565b6020026020010181905250505080806109a590612a46565b91505061087a565b5092915050565b6000808080610a0f7f00000000000000000000000000000000000000000000000000000000000000006109ea6020890189612a61565b6109fa60408a0160208b01612a61565b610a0a60a08b0160808c01612a8f565b61109c565b9050600033610a216020890189612a61565b610a3160408a0160208b01612a61565b610a4160a08b0160808c01612a8f565b604080516001600160a01b039586166020820152938516908401529216606082015262ffffff909116608082015260a0016040516020818303038152906040529050600181604051602001610a97929190612aac565b60408051601f1981840301815260c080840190925230835292506000918291610b0791906020820190610ad09060e08e01908e01612ad5565b151581526001602082015260e08c01356040808301919091528c013560608201526080018590526001600160a01b038616906110c6565b9650909250905033610b1f60e08b0160c08c01612ad5565b604080516001600160a01b0390931660208401529015159082015260600160408051601f1981840301815261010083019091529350610c239080610b6660208d018d612a61565b6001600160a01b031681526020018b6020016020810190610b879190612a61565b6001600160a01b031681526020018b6040013581526020018b6060013581526020018b60a0016020810190610bbc9190612a61565b6001600160a01b03168152602001610bda60e08d0160c08e01612ad5565b610be45783610bed565b60e08c01358590035b8152602001610c0260e08d0160c08e01612ad5565b610c135760e08c0135859003610c15565b835b815260200185905289611405565b919b919a509598509650505050505050565b6060610c607f00000000000000000000000000000000000000000000000000000000000000006115fb565b6000610ca87f0000000000000000000000000000000000000000000000000000000000000000610c936020860186612a61565b610ca36040870160208801612a61565b611627565b9050806001600160a01b031663b2ceca77846040013585606001353360028860c001356040518663ffffffff1660e01b8152600401610ceb959493929190612af2565b600060405180830381600087803b158015610d0557600080fd5b505af1158015610d19573d6000803e3d6000fd5b505060408051602081019091526000815295945050505050565b600080610d4283850185612b32565b915091508115610e2757600080600083806020019051810190610d659190612b81565b93509350935050610d987f00000000000000000000000000000000000000000000000000000000000000008484846116ac565b6000336001600160a01b0316633850c7bd6040518163ffffffff1660e01b815260040160e06040518083038186803b158015610dd357600080fd5b505afa158015610de7573d6000803e3d6000fd5b505050506040513d601f19601f82011682018060405250810190610e0b9190612bf7565b5050505050509050610e1e8a8a836116ec565b50505050610e32565b610e3286868361171e565b505050505050565b60405163d81e842360e01b81526001600160a01b03838116600483015282811660248301526000919085169063d81e84239060440160206040518083038186803b158015610e8757600080fd5b505afa158015610e9b573d6000803e3d6000fd5b505050506040513d601f19601f82011682018060405250810190610ebf91906128dd565b90506001600160a01b0381163314610eea5760405163a5fbb7d960e01b815260040160405180910390fd5b50505050565b60405163d81e842360e01b81526001600160a01b03838116600483015282811660248301526000919086169063d81e84239060440160206040518083038186803b158015610f3d57600080fd5b505afa158015610f51573d6000803e3d6000fd5b505050506040513d601f19601f82011682018060405250810190610f7591906128dd565b6040516330af0bbf60e21b81526001600160a01b03808316600483015291925060009186169063c2bc2efc9060240160206040518083038186803b158015610fbc57600080fd5b505afa158015610fd0573d6000803e3d6000fd5b505050506040513d601f19601f82011682018060405250810190610ff491906128dd565b90506001600160a01b038116331461101f5760405163863b47e760e01b815260040160405180910390fd5b50949350505050565b8151606090602061103a600483612c96565b6110449190612cc3565b15801561106c57506001600160e01b0319831661106085612cd7565b6001600160e01b031916145b1561108e576110868460046110818185612c96565b611773565b915050611096565b835184602001fd5b92915050565b60006110aa85858585611882565b90506110be816001600160a01b031661191b565b949350505050565b6000806000846001600160a01b0316633850c7bd6040518163ffffffff1660e01b815260040160e06040518083038186803b15801561110457600080fd5b505afa158015611118573d6000803e3d6000fd5b505050506040513d601f19601f8201168201806040525081019061113c9190612bf7565b5050506080880151939450600093151592506111929150505784602001516111825761117d600173fffd8963efd1fc6a506488495d951d5263988d26612d0e565b61119f565b61117d6401000276a36001612d36565b61119f8560800151611942565b90506401000276a36001600160a01b038216116111c9576111c66401000276a36001612d36565b90505b73fffd8963efd1fc6a506488495d951d5263988d266001600160a01b0382161061120f5761120c600173fffd8963efd1fc6a506488495d951d5263988d26612d0e565b90505b846020015161123257806001600160a01b0316826001600160a01b031610611248565b806001600160a01b0316826001600160a01b0316115b1561138257600080876001600160a01b031663128acb083089602001518a604001516112895761127b8b60600151611992565b61128490612d61565b611296565b6112968b60600151611992565b878c60a001516040518663ffffffff1660e01b81526004016112bc959493929190612d7e565b6040805180830381600087803b1580156112d557600080fd5b505af1925050508015611305575060408051601f3d908101601f1916820190925261130291810190612db9565b60015b611350573d808015611333576040519150601f19603f3d011682016040523d82523d6000602084013e611338565b606091505b50611342816119a8565b965090935091506113539050565b50505b866020015161136b578061136683612d61565b611375565b8161137582612d61565b90965094506113fd915050565b856001600160a01b0316633850c7bd6040518163ffffffff1660e01b815260040160e06040518083038186803b1580156113bb57600080fd5b505afa1580156113cf573d6000803e3d6000fd5b505050506040513d601f19601f820116820180604052508101906113f39190612bf7565b5094965050505050505b509250925092565b600060606000806114607f00000000000000000000000000000000000000000000000000000000000000007f0000000000000000000000000000000000000000000000000000000000000000886000015189602001516119dd565b9150508560000151866020015187608001518860a001518960c001518a60e0015160405160200161149696959493929190612ddd565b60408051601f1981840301815260c0830182528882015183526060808a01516020850152309284019290925294506001600160a01b0383169163bfec5c8a918101600181526020016114f78a60a001518b60c001518c604001516000611a92565b815260200186815250876040518363ffffffff1660e01b815260040161151e929190612e2b565b600060405180830381600087803b15801561153857600080fd5b505af192505050801561156d57506040513d6000823e601f3d908101601f1916820160405261156a9190810190612890565b60015b6115d3573d80801561159b576040519150601f19603f3d011682016040523d82523d6000602084013e6115a0565b606091505b506115b28163b602147560e01b611028565b9350838060200190518101906115c89190612eb2565b945092506115d89050565b505050505b828060200190518101906115ec9190612ef8565b90979096509194509092505050565b6001600160a01b03811633146116245760405163d2bc8fc960e01b815260040160405180910390fd5b50565b60405163d81e842360e01b81526001600160a01b03838116600483015282811660248301526000919085169063d81e84239060440160206040518083038186803b15801561167457600080fd5b505afa158015611688573d6000803e3d6000fd5b505050506040513d601f19601f820116820180604052508101906110be91906128dd565b60006116ba85858585611882565b90506001600160a01b03811633146116e5576040516307c1698f60e01b815260040160405180910390fd5b5050505050565b604051633ab8e87b60e21b815260048101849052602481018390526001600160a01b0382166044820152606401610502565b6000806000838060200190518101906117379190612f28565b9250925092506117697f00000000000000000000000000000000000000000000000000000000000000008484846116ac565b610e328686611ad5565b60608161178181601f612587565b10156117c05760405162461bcd60e51b815260206004820152600e60248201526d736c6963655f6f766572666c6f7760901b6044820152606401610502565b6117ca8284612587565b8451101561180e5760405162461bcd60e51b8152602060048201526011602482015270736c6963655f6f75744f66426f756e647360781b6044820152606401610502565b60608215801561182d5760405191506000825260208201604052611877565b6040519150601f8416801560200281840101858101878315602002848b0101015b8183101561186657805183526020928301920161184e565b5050858452601f01601f1916604052505b5090505b9392505050565b604051630b4c774160e11b81526001600160a01b038481166004830152838116602483015262ffffff8316604483015260009190861690631698ee829060640160206040518083038186803b1580156118da57600080fd5b505afa1580156118ee573d6000803e3d6000fd5b505050506040513d601f19601f8201168201806040525081019061191291906128dd565b95945050505050565b6001600160a01b0381166116245760405163037064f160e01b815260040160405180910390fd5b60006001600160c01b03821161196957611096611964604084901b6000611af8565b611b76565b60008061197f8468010000000000000000611ba0565b915091506110be61196483836000611bbf565b6000600160ff1b82106119a457600080fd5b5090565b600080806119bd84633ab8e87b60e21b611028565b8060200190518101906119d09190612f75565b9250925092509193909250565b6000806119f46001600160a01b0387168585611c4d565b6040516330af0bbf60e21b81526001600160a01b0380831660048301529193509086169063c2bc2efc9060240160206040518083038186803b158015611a3957600080fd5b505afa158015611a4d573d6000803e3d6000fd5b505050506040513d601f19601f82011682018060405250810190611a7191906128dd565b90506001600160a01b038116611a8957611a89611c6e565b94509492505050565b60006001600160801b038311611abe57611aaf8584600185611c87565b611ab99085612587565b611912565b611acb8484600085611c87565b6119129086612587565b6040516377760aaf60e11b81526004810183905260248101829052604401610502565b6000600019831415611b1257506001600160801b03611096565b82611b1f57506000611096565b50816001818101901c5b81811015611b5157809150600181828681611b4657611b46612cad565b0401901c9050611b29565b50818015611b67575082611b658280612fa3565b105b1561109657806110be81612a46565b60006001600160a01b038211156119a457604051630ba006e160e41b815260040160405180910390fd5b6000806000198385098385029250828110838203039150509250929050565b600082611bd757611bd08483611af8565b905061187b565b6000611be68585600019611cae565b905060001991505b81811015611c0b57809150611c04858583611cae565b9050611bee565b8215611c4557600080611c1e8485611ba0565b9150915080861180611c2f57508187115b15611c425783611c3e81612a46565b9450505b50505b509392505050565b6000611c5a848484611627565b90506001600160a01b03811661187b5761187b5b60405163d92e233d60e01b815260040160405180910390fd5b600082611c9e57611ab985600160801b8685611ced565b6119128585600160801b85611ced565b600080611cbe8585856000611de9565b90506000611cd0826000866000611e6e565b9092509050611ce3828260026000611de9565b9695505050505050565b6000806000611cfc8787611ba0565b915091508060001415611d1d57611d14828686611edf565b925050506110be565b808511611d4e5760405163362ced0960e11b8152600481018890526024810187905260448101869052606401610502565b600085878909600087810388169788900497600260038a028118808b02820302808b02820302808b02820302808b02820302808b02820302808b02909103029181900381900460010186841190950394850292909503949094041792830293508490508015611dcc57508480611dc657611dc6612cad565b86880915155b15611ddf5782611ddb81612a46565b9350505b5050949350505050565b600080611df7868686611f11565b90925090508015611e2c57604051636aa917ab60e01b8152600481018790526024810186905260448101859052606401610502565b821561101f57600080611e3f8487611ba0565b9150915080871180611e5057508188115b15611e635783611e5f81612a46565b9450505b505050949350505050565b8184018481108285018101908015611e9b57811580611e965750611e93600183612c96565b86115b611e9f565b8186115b15611ed5576040516347b1893f60e01b815260048101889052602481018790526044810186905260648101859052608401610502565b5094509492505050565b6000611eeb8385612fc2565b9050818015611f025750611eff8385612cc3565b15155b1561187b578061191281612a46565b60008083611f2c57611f2585846000611edf565b9150611fb8565b6000611f3784611fc0565b90506000611f4485611fed565b90505b8515611f9857600080611f5a8885611ba0565b91509150611f6a86868484611e6e565b9096509450611f798884611ba0565b9092509050611f8b82828b6000611e6e565b9099509750611f47915050565b611fb08484611fa98a896000611edf565b6000611e6e565b909450925050505b935093915050565b600081611fe0576040516301de42a960e41b815260040160405180910390fd5b5060008190030460010190565b60008161200d576040516319dbad9f60e01b815260040160405180910390fd5b5060008190030690565b634e487b7160e01b600052604160045260246000fd5b60405160c081016001600160401b038111828210171561204f5761204f612017565b60405290565b604051601f8201601f191681016001600160401b038111828210171561207d5761207d612017565b604052919050565b60006001600160401b0382111561209e5761209e612017565b50601f01601f191660200190565b600082601f8301126120bd57600080fd5b81356120d06120cb82612085565b612055565b8181528460208386010111156120e557600080fd5b816020850160208301376000918101602001919091529392505050565b60006020828403121561211457600080fd5b81356001600160401b038082111561212b57600080fd5b9083019060c0828603121561213f57600080fd5b61214761202d565b823581526020830135602082015260408301356040820152606083013560608201526080830135608082015260a08301358281111561218557600080fd5b612191878286016120ac565b60a08301525095945050505050565b60005b838110156121bb5781810151838201526020016121a3565b83811115610eea5750506000910152565b600081518084526121e48160208601602086016121a0565b601f01601f19169290920160200192915050565b60208152600061187b60208301846121cc565b60006020828403121561221d57600080fd5b81356001600160401b0381111561223357600080fd5b820160c0818503121561187b57600080fd5b60006020828403121561225757600080fd5b81356001600160401b0381111561226d57600080fd5b820160a0818503121561187b57600080fd5b83815282602082015260606040820152600061191260608301846121cc565b600080602083850312156122b157600080fd5b82356001600160401b03808211156122c857600080fd5b818501915085601f8301126122dc57600080fd5b8135818111156122eb57600080fd5b8660208260051b850101111561230057600080fd5b60209290920196919550909350505050565b6000602080830181845280855180835260408601915060408160051b870101925083870160005b8281101561236757603f198886030184526123558583516121cc565b94509285019290850190600101612339565b5092979650505050505050565b6000610100828403121561238757600080fd5b50919050565b60008061012083850312156123a157600080fd5b6123ab8484612374565b91506101008301356bffffffffffffffffffffffff811681146123cd57600080fd5b809150509250929050565b6000602082840312156123ea57600080fd5b81356001600160401b0381111561240057600080fd5b6110be84828501612374565b6000806000806060858703121561242257600080fd5b843593506020850135925060408501356001600160401b038082111561244757600080fd5b818701915087601f83011261245b57600080fd5b81358181111561246a57600080fd5b88602082850101111561247c57600080fd5b95989497505060200194505050565b6001600160a01b038116811461162457600080fd5b60006124ae6120cb84612085565b90508281528383830111156124c257600080fd5b61187b8360208301846121a0565b600082601f8301126124e157600080fd5b61187b838351602085016124a0565b600080600080600060a0868803121561250857600080fd5b85516125138161248b565b60208701519095506125248161248b565b60408701519094506125358161248b565b6060870151608088015191945092506001600160401b0381111561255857600080fd5b612564888289016124d0565b9150509295509295909350565b634e487b7160e01b600052601160045260246000fd5b6000821982111561259a5761259a612571565b500190565b602081526125b96020820183516001600160a01b03169052565b600060208301516125d560408401826001600160a01b03169052565b506040830151606083015260608301516080830152608083015161260460a08401826001600160a01b03169052565b5060a08301516001600160a01b03811660c08401525060c08301516001600160a01b03811660e08401525060e0830151610100838101919091528301516101208084019190915283015161014080840191909152830151610160808401526110be6101808401826121cc565b60006020828403121561268257600080fd5b81516001600160401b0381111561269857600080fd5b6110be848285016124d0565b8281526040602082015260006110be60408301846121cc565b6000808335601e198436030181126126d457600080fd5b8301803591506001600160401b038211156126ee57600080fd5b60200191503681900382131561270357600080fd5b9250929050565b6000806000806080858703121561272057600080fd5b843561272b8161248b565b9350602085013561273b8161248b565b9250604085013561274b8161248b565b915060608501356001600160401b0381111561276657600080fd5b612772878288016120ac565b91505092959194509250565b6001600160a01b0386811682528581166020830152841660408201526060810183905260a0608082018190526000906127b9908301846121cc565b979650505050505050565b634e487b7160e01b600052602160045260246000fd5b600281106127ea576127ea6127c4565b9052565b6020815281516020820152602082015160408201526000604083015161281f60608401826001600160a01b03169052565b5060608301516001600160a01b03811660808401525060808301516001600160a01b03811660a08401525060a083015161285c60c08401826127da565b5060c083015160e08381019190915283015161010080840191909152830151610120808401526110be6101408401826121cc565b600080600080608085870312156128a657600080fd5b84519350602085015192506040850151915060608501516001600160401b038111156128d157600080fd5b612772878288016124d0565b6000602082840312156128ef57600080fd5b815161187b8161248b565b6001600160a01b03831681526040602082018190526000906110be908301846121cc565b60008060008060008060c0878903121561293757600080fd5b86356129428161248b565b955060208701356129528161248b565b945060408701356129628161248b565b9350606087013592506080870135915060a08701356001600160401b0381111561298b57600080fd5b61299789828a016120ac565b9150509295509295509295565b6001600160a01b038581168252848116602083015283166040820152608060608201819052600090611ce3908301846121cc565b634e487b7160e01b600052603260045260246000fd5b8183823760009101908152919050565b600060208284031215612a1057600080fd5b81516001600160401b03811115612a2657600080fd5b8201601f81018413612a3757600080fd5b6110be848251602084016124a0565b6000600019821415612a5a57612a5a612571565b5060010190565b600060208284031215612a7357600080fd5b813561187b8161248b565b62ffffff8116811461162457600080fd5b600060208284031215612aa157600080fd5b813561187b81612a7e565b82151581526040602082015260006110be60408301846121cc565b801515811461162457600080fd5b600060208284031215612ae757600080fd5b813561187b81612ac7565b858152602081018590526001600160a01b038416604082015260a0810160038410612b1f57612b1f6127c4565b6060820193909352608001529392505050565b60008060408385031215612b4557600080fd5b8235612b5081612ac7565b915060208301356001600160401b03811115612b6b57600080fd5b612b77858286016120ac565b9150509250929050565b60008060008060808587031215612b9757600080fd5b8451612ba28161248b565b6020860151909450612bb38161248b565b6040860151909350612bc48161248b565b6060860151909250612bd581612a7e565b939692955090935050565b805161ffff81168114612bf257600080fd5b919050565b600080600080600080600060e0888a031215612c1257600080fd5b8751612c1d8161248b565b8097505060208801518060020b8114612c3557600080fd5b9550612c4360408901612be0565b9450612c5160608901612be0565b9350612c5f60808901612be0565b925060a088015160ff81168114612c7557600080fd5b60c0890151909250612c8681612ac7565b8091505092959891949750929550565b600082821015612ca857612ca8612571565b500390565b634e487b7160e01b600052601260045260246000fd5b600082612cd257612cd2612cad565b500690565b805160208201516001600160e01b03198082169291906004831015612d065780818460040360031b1b83161693505b505050919050565b60006001600160a01b0383811690831681811015612d2e57612d2e612571565b039392505050565b60006001600160a01b03828116848216808303821115612d5857612d58612571565b01949350505050565b6000600160ff1b821415612d7757612d77612571565b5060000390565b6001600160a01b0386811682528515156020830152604082018590528316606082015260a0608082018190526000906127b9908301846121cc565b60008060408385031215612dcc57600080fd5b505080516020909101519092909150565b6001600160a01b038781168252868116602083015285166040820152606081018490526080810183905260c060a08201819052600090612e1f908301846121cc565b98975050505050505050565b60408152825160408201526020830151606082015260018060a01b0360408401511660808201526000606084015160048110612e6957612e696127c4565b8060a084015250608084015160c083015260a084015160c060e0840152612e946101008401826121cc565b9150506bffffffffffffffffffffffff831660208301529392505050565b60008060408385031215612ec557600080fd5b8251612ed08161248b565b60208401519092506001600160401b03811115612eec57600080fd5b612b77858286016124d0565b60008060408385031215612f0b57600080fd5b8251915060208301516001600160401b03811115612eec57600080fd5b600080600060608486031215612f3d57600080fd5b8351612f488161248b565b6020850151909350612f598161248b565b6040850151909250612f6a81612a7e565b809150509250925092565b600080600060608486031215612f8a57600080fd5b83519250602084015191506040840151612f6a8161248b565b6000816000190483118215151615612fbd57612fbd612571565b500290565b600082612fd157612fd1612cad565b50049056fea26469706673582212200b4360dcafcd53b29959f9bc7265368dfd80c50ffe3bccba2131e3b7b78817ca64736f6c63430008080033",
  "linkReferences": {},
  "deployedLinkReferences": {}
}