{
  "_format": "hh-sol-artifact-1",
  "contractName": "TimeswapV2PeripheryNoDexBorrowGivenPrincipal",
  "sourceName": "@timeswap-labs/v2-periphery-nodex/src/TimeswapV2PeripheryNoDexBorrowGivenPrincipal.sol",
  "abi": [
    {
      "inputs": [
        {
          "internalType": "address",
          "name": "chosenOptionFactory",
          "type": "address"
        },
        {
          "internalType": "address",
          "name": "chosenPoolFactory",
          "type": "address"
        },
        {
          "internalType": "address",
          "name": "chosenTokens",
          "type": "address"
        },
        {
          "internalType": "address",
          "name": "chosenNative",
          "type": "address"
        }
      ],
      "stateMutability": "nonpayable",
      "type": "constructor"
    },
    {
      "inputs": [
        {
          "internalType": "address",
          "name": "from",
          "type": "address"
        }
      ],
      "name": "CallerNotWrappedNative",
      "type": "error"
    },
    {
      "inputs": [],
      "name": "CanOnlyBeCalledByOptionContract",
      "type": "error"
    },
    {
      "inputs": [],
      "name": "CanOnlyBeCalledByPoolContract",
      "type": "error"
    },
    {
      "inputs": [],
      "name": "CanOnlyBeCalledByTokensContract",
      "type": "error"
    },
    {
      "inputs": [
        {
          "internalType": "uint256",
          "name": "deadline",
          "type": "uint256"
        }
      ],
      "name": "DeadlineReached",
      "type": "error"
    },
    {
      "inputs": [
        {
          "internalType": "uint256",
          "name": "value",
          "type": "uint256"
        }
      ],
      "name": "InsufficientWrappedNative",
      "type": "error"
    },
    {
      "inputs": [
        {
          "internalType": "uint256",
          "name": "positionAmount",
          "type": "uint256"
        },
        {
          "internalType": "uint256",
          "name": "maxPositionAmount",
          "type": "uint256"
        }
      ],
      "name": "MaxPositionReached",
      "type": "error"
    },
    {
      "inputs": [
        {
          "internalType": "uint256",
          "name": "multiplicand",
          "type": "uint256"
        },
        {
          "internalType": "uint256",
          "name": "multiplier",
          "type": "uint256"
        },
        {
          "internalType": "uint256",
          "name": "divisor",
          "type": "uint256"
        }
      ],
      "name": "MulDivOverflow",
      "type": "error"
    },
    {
      "inputs": [
        {
          "internalType": "string",
          "name": "revertString",
          "type": "string"
        }
      ],
      "name": "MulticallFailed",
      "type": "error"
    },
    {
      "inputs": [
        {
          "internalType": "address",
          "name": "to",
          "type": "address"
        },
        {
          "internalType": "uint256",
          "name": "value",
          "type": "uint256"
        }
      ],
      "name": "NativeTransferFailed",
      "type": "error"
    },
    {
      "inputs": [
        {
          "internalType": "uint256",
          "name": "minuend",
          "type": "uint256"
        },
        {
          "internalType": "uint256",
          "name": "subtrahend",
          "type": "uint256"
        }
      ],
      "name": "NotEnoughReceived",
      "type": "error"
    },
    {
      "inputs": [],
      "name": "ZeroAddress",
      "type": "error"
    },
    {
      "anonymous": false,
      "inputs": [
        {
          "indexed": true,
          "internalType": "address",
          "name": "token0",
          "type": "address"
        },
        {
          "indexed": true,
          "internalType": "address",
          "name": "token1",
          "type": "address"
        },
        {
          "indexed": false,
          "internalType": "uint256",
          "name": "strike",
          "type": "uint256"
        },
        {
          "indexed": true,
          "internalType": "uint256",
          "name": "maturity",
          "type": "uint256"
        },
        {
          "indexed": false,
          "internalType": "address",
          "name": "from",
          "type": "address"
        },
        {
          "indexed": false,
          "internalType": "address",
          "name": "tokenTo",
          "type": "address"
        },
        {
          "indexed": false,
          "internalType": "address",
          "name": "longTo",
          "type": "address"
        },
        {
          "indexed": false,
          "internalType": "bool",
          "name": "isToken0",
          "type": "bool"
        },
        {
          "indexed": false,
          "internalType": "bool",
          "name": "isLong0",
          "type": "bool"
        },
        {
          "indexed": false,
          "internalType": "uint256",
          "name": "tokenAmount",
          "type": "uint256"
        },
        {
          "indexed": false,
          "internalType": "uint256",
          "name": "positionAmount",
          "type": "uint256"
        }
      ],
      "name": "BorrowGivenPrincipal",
      "type": "event"
    },
    {
      "inputs": [
        {
          "components": [
            {
              "internalType": "address",
              "name": "token0",
              "type": "address"
            },
            {
              "internalType": "address",
              "name": "token1",
              "type": "address"
            },
            {
              "internalType": "uint256",
              "name": "strike",
              "type": "uint256"
            },
            {
              "internalType": "uint256",
              "name": "maturity",
              "type": "uint256"
            },
            {
              "internalType": "address",
              "name": "tokenTo",
              "type": "address"
            },
            {
              "internalType": "address",
              "name": "longTo",
              "type": "address"
            },
            {
              "internalType": "bool",
              "name": "isToken0",
              "type": "bool"
            },
            {
              "internalType": "bool",
              "name": "isLong0",
              "type": "bool"
            },
            {
              "internalType": "uint256",
              "name": "tokenAmount",
              "type": "uint256"
            },
            {
              "internalType": "uint256",
              "name": "maxPositionAmount",
              "type": "uint256"
            },
            {
              "internalType": "uint256",
              "name": "deadline",
              "type": "uint256"
            }
          ],
          "internalType": "struct TimeswapV2PeripheryNoDexBorrowGivenPrincipalParam",
          "name": "param",
          "type": "tuple"
        }
      ],
      "name": "borrowGivenPrincipal",
      "outputs": [
        {
          "internalType": "uint256",
          "name": "positionAmount",
          "type": "uint256"
        }
      ],
      "stateMutability": "nonpayable",
      "type": "function"
    },
    {
      "inputs": [
        {
          "internalType": "bytes[]",
          "name": "data",
          "type": "bytes[]"
        }
      ],
      "name": "multicall",
      "outputs": [
        {
          "internalType": "bytes[]",
          "name": "results",
          "type": "bytes[]"
        }
      ],
      "stateMutability": "payable",
      "type": "function"
    },
    {
      "inputs": [],
      "name": "optionFactory",
      "outputs": [
        {
          "internalType": "address",
          "name": "",
          "type": "address"
        }
      ],
      "stateMutability": "view",
      "type": "function"
    },
    {
      "inputs": [],
      "name": "poolFactory",
      "outputs": [
        {
          "internalType": "address",
          "name": "",
          "type": "address"
        }
      ],
      "stateMutability": "view",
      "type": "function"
    },
    {
      "inputs": [],
      "name": "refundNatives",
      "outputs": [],
      "stateMutability": "payable",
      "type": "function"
    },
    {
      "inputs": [
        {
          "components": [
            {
              "internalType": "uint256",
              "name": "strike",
              "type": "uint256"
            },
            {
              "internalType": "uint256",
              "name": "maturity",
              "type": "uint256"
            },
            {
              "internalType": "uint256",
              "name": "token0AndLong0Amount",
              "type": "uint256"
            },
            {
              "internalType": "uint256",
              "name": "token1AndLong1Amount",
              "type": "uint256"
            },
            {
              "internalType": "uint256",
              "name": "shortAmount",
              "type": "uint256"
            },
            {
              "internalType": "bytes",
              "name": "data",
              "type": "bytes"
            }
          ],
          "internalType": "struct TimeswapV2OptionMintCallbackParam",
          "name": "param",
          "type": "tuple"
        }
      ],
      "name": "timeswapV2OptionMintCallback",
      "outputs": [
        {
          "internalType": "bytes",
          "name": "data",
          "type": "bytes"
        }
      ],
      "stateMutability": "nonpayable",
      "type": "function"
    },
    {
      "inputs": [
        {
          "components": [
            {
              "internalType": "uint256",
              "name": "strike",
              "type": "uint256"
            },
            {
              "internalType": "uint256",
              "name": "maturity",
              "type": "uint256"
            },
            {
              "internalType": "bool",
              "name": "isLong0ToLong1",
              "type": "bool"
            },
            {
              "internalType": "uint256",
              "name": "token0AndLong0Amount",
              "type": "uint256"
            },
            {
              "internalType": "uint256",
              "name": "token1AndLong1Amount",
              "type": "uint256"
            },
            {
              "internalType": "bytes",
              "name": "data",
              "type": "bytes"
            }
          ],
          "internalType": "struct TimeswapV2OptionSwapCallbackParam",
          "name": "param",
          "type": "tuple"
        }
      ],
      "name": "timeswapV2OptionSwapCallback",
      "outputs": [
        {
          "internalType": "bytes",
          "name": "data",
          "type": "bytes"
        }
      ],
      "stateMutability": "nonpayable",
      "type": "function"
    },
    {
      "inputs": [
        {
          "components": [
            {
              "internalType": "uint256",
              "name": "strike",
              "type": "uint256"
            },
            {
              "internalType": "uint256",
              "name": "maturity",
              "type": "uint256"
            },
            {
              "internalType": "uint256",
              "name": "long0Amount",
              "type": "uint256"
            },
            {
              "internalType": "uint256",
              "name": "long1Amount",
              "type": "uint256"
            },
            {
              "internalType": "uint256",
              "name": "shortAmount",
              "type": "uint256"
            },
            {
              "internalType": "bytes",
              "name": "data",
              "type": "bytes"
            }
          ],
          "internalType": "struct TimeswapV2PoolLeverageCallbackParam",
          "name": "param",
          "type": "tuple"
        }
      ],
      "name": "timeswapV2PoolLeverageCallback",
      "outputs": [
        {
          "internalType": "bytes",
          "name": "data",
          "type": "bytes"
        }
      ],
      "stateMutability": "nonpayable",
      "type": "function"
    },
    {
      "inputs": [
        {
          "components": [
            {
              "internalType": "uint256",
              "name": "strike",
              "type": "uint256"
            },
            {
              "internalType": "uint256",
              "name": "maturity",
              "type": "uint256"
            },
            {
              "internalType": "uint256",
              "name": "long0Balance",
              "type": "uint256"
            },
            {
              "internalType": "uint256",
              "name": "long1Balance",
              "type": "uint256"
            },
            {
              "internalType": "uint256",
              "name": "longAmount",
              "type": "uint256"
            },
            {
              "internalType": "uint256",
              "name": "shortAmount",
              "type": "uint256"
            },
            {
              "internalType": "bytes",
              "name": "data",
              "type": "bytes"
            }
          ],
          "internalType": "struct TimeswapV2PoolLeverageChoiceCallbackParam",
          "name": "param",
          "type": "tuple"
        }
      ],
      "name": "timeswapV2PoolLeverageChoiceCallback",
      "outputs": [
        {
          "internalType": "uint256",
          "name": "long0Amount",
          "type": "uint256"
        },
        {
          "internalType": "uint256",
          "name": "long1Amount",
          "type": "uint256"
        },
        {
          "internalType": "bytes",
          "name": "data",
          "type": "bytes"
        }
      ],
      "stateMutability": "view",
      "type": "function"
    },
    {
      "inputs": [
        {
          "components": [
            {
              "internalType": "address",
              "name": "token0",
              "type": "address"
            },
            {
              "internalType": "address",
              "name": "token1",
              "type": "address"
            },
            {
              "internalType": "uint256",
              "name": "strike",
              "type": "uint256"
            },
            {
              "internalType": "uint256",
              "name": "maturity",
              "type": "uint256"
            },
            {
              "internalType": "uint256",
              "name": "long0Amount",
              "type": "uint256"
            },
            {
              "internalType": "uint256",
              "name": "long1Amount",
              "type": "uint256"
            },
            {
              "internalType": "uint256",
              "name": "shortAmount",
              "type": "uint256"
            },
            {
              "internalType": "bytes",
              "name": "data",
              "type": "bytes"
            }
          ],
          "internalType": "struct TimeswapV2TokenMintCallbackParam",
          "name": "param",
          "type": "tuple"
        }
      ],
      "name": "timeswapV2TokenMintCallback",
      "outputs": [
        {
          "internalType": "bytes",
          "name": "data",
          "type": "bytes"
        }
      ],
      "stateMutability": "nonpayable",
      "type": "function"
    },
    {
      "inputs": [],
      "name": "tokens",
      "outputs": [
        {
          "internalType": "address",
          "name": "",
          "type": "address"
        }
      ],
      "stateMutability": "view",
      "type": "function"
    },
    {
      "inputs": [
        {
          "internalType": "uint256",
          "name": "amountMinimum",
          "type": "uint256"
        },
        {
          "internalType": "address",
          "name": "recipient",
          "type": "address"
        }
      ],
      "name": "unwrapWrappedNatives",
      "outputs": [],
      "stateMutability": "payable",
      "type": "function"
    },
    {
      "inputs": [],
      "name": "wrappedNativeToken",
      "outputs": [
        {
          "internalType": "address",
          "name": "",
          "type": "address"
        }
      ],
      "stateMutability": "view",
      "type": "function"
    },
    {
      "stateMutability": "payable",
      "type": "receive"
    }
  ],
  "bytecode": "0x6101006040523480156200001257600080fd5b506040516200324a3803806200324a833981016040819052620000359162000082565b6001600160601b0319606094851b811660805292841b831660a05290831b821660c05290911b1660e052620000df565b80516001600160a01b03811681146200007d57600080fd5b919050565b600080600080608085870312156200009957600080fd5b620000a48562000065565b9350620000b46020860162000065565b9250620000c46040860162000065565b9150620000d46060860162000065565b905092959194509250565b60805160601c60a05160601c60c05160601c60e05160601c6130a1620001a96000396000818160d6015281816101340152818161103d0152818161110101528181611cdc0152611d220152600081816102630152818161095a0152818161120101526114be0152600081816101b30152818161037901528181610c1f01528181610cd601526117060152600081816102b701528181610358015281816107b201528181610bfe01528181610cb5015281816111a9015281816114e901526116e501526130a16000f3fe6080604052600436106100c65760003560e01c80639d63848a1161007f578063b7f68a0e11610059578063b7f68a0e146102d9578063dc4a4847146102ec578063dfef25d81461030c578063e13c022c1461031457600080fd5b80639d63848a14610251578063ac9650d814610285578063b3461c87146102a557600080fd5b806317fcb39b146101225780632a5d4d26146101735780634219dc40146101a15780634a358d65146101d5578063797481d0146102025780638662fa6a1461023157600080fd5b3661011d57336001600160a01b037f0000000000000000000000000000000000000000000000000000000000000000161461011b5760405163631b2c4f60e11b81523360048201526024015b60405180910390fd5b005b600080fd5b34801561012e57600080fd5b506101567f000000000000000000000000000000000000000000000000000000000000000081565b6040516001600160a01b0390911681526020015b60405180910390f35b34801561017f57600080fd5b5061019361018e3660046121b9565b610334565b60405190815260200161016a565b3480156101ad57600080fd5b506101567f000000000000000000000000000000000000000000000000000000000000000081565b3480156101e157600080fd5b506101f56101f03660046122d9565b61074d565b60405161016a91906123cf565b34801561020e57600080fd5b5061022261021d3660046123e2565b610bc2565b60405161016a9392919061241c565b34801561023d57600080fd5b506101f561024c36600461244d565b610c7e565b34801561025d57600080fd5b506101567f000000000000000000000000000000000000000000000000000000000000000081565b610298610293366004612481565b610e98565b60405161016a91906124f5565b3480156102b157600080fd5b506101567f000000000000000000000000000000000000000000000000000000000000000081565b61011b6102e736600461256c565b611025565b3480156102f857600080fd5b506101f561030736600461244d565b611174565b61011b6114a5565b34801561032057600080fd5b506101f561032f36600461259c565b6114b7565b6000428261014001351015610351576103518261014001356115da565b60006103ba7f00000000000000000000000000000000000000000000000000000000000000007f00000000000000000000000000000000000000000000000000000000000000006103a560208701876125d7565b6103b560408801602089016125d7565b6115f6565b60408051633a9d71e760e01b8152908601356004820152606086013560248201529092506000915081906001600160a01b03841690633a9d71e790604401604080518083038186803b15801561040f57600080fd5b505afa158015610423573d6000803e3d6000fd5b505050506040513d601f19601f8201168201806040525081019061044791906125f4565b909250905061045c60e0860160c08701612626565b1561047557610470828661010001356116ab565b610484565b610484818661010001356116ab565b60003361049760a08801608089016125d7565b6104a760e0890160c08a01612626565b604080516001600160a01b03948516602082015293909216918301919091521515606082015260800160408051601f198184030181526101408301909152915061061990806104f960208a018a6125d7565b6001600160a01b0316815260200188602001602081019061051a91906125d7565b6001600160a01b0316815260200188604001358152602001886060013581526020018860e001602081019061054f9190612626565b151561056160e08b0160c08c01612626565b15151461057d5761057860a08a0160808b016125d7565b61057f565b305b6001600160a01b0316815260200161059d60c08a0160a08b016125d7565b6001600160a01b031681526020016105bc6101008a0160e08b01612626565b151581526020016105d360e08a0160c08b01612626565b6105de5760006105e5565b8861010001355b81526020016105fa60e08a0160c08b01612626565b6106095788610100013561060c565b60005b81526020018390526116da565b50945061012086013585111561065057604051633d14758360e11b8152600481018690526101208701356024820152604401610112565b606086013561066560408801602089016125d7565b6001600160a01b031661067b60208901896125d7565b6001600160a01b03167f8c398d3e3a8892ac1f3ea0e98f566d9033d1908c17838f93964e55993cd6410660408a0135336106bb60a08d0160808e016125d7565b6106cb60c08e0160a08f016125d7565b8d60c00160208101906106de9190612626565b8e60e00160208101906106f19190612626565b604080519687526001600160a01b03958616602088015293851693860193909352921660608401529015156080830152151560a0820152610100808c013560c083015260e082018b90520160405180910390a450505050919050565b6040805160e08101825260008082526020820181905291810182905260608181018390526080820183905260a0820183905260c08201929092528260a0015180602001905181019061079f91906126a3565b815160208301519194509192506107d7917f000000000000000000000000000000000000000000000000000000000000000091611883565b80608001516107ea5782606001516107f0565b82604001515b8160c0018181516108019190612783565b90525060a08101511561095857805160208201516060830151608084015161082d578560600151610833565b85604001515b8460c001518660405160200161084e9695949392919061279b565b60408051601f19818403018152610100830182528551835260208681015190840152838201516001600160a01b03169183019190915230606083015260808084018051159184019190915251909350339163b084c2529160a08201906108b55760006108b8565b60015b60018111156108c9576108c96127e9565b81526020018460a001518152602001858152506040518263ffffffff1660e01b81526004016108f89190612813565b600060405180830381600087803b15801561091257600080fd5b505af1158015610926573d6000803e3d6000fd5b505050506040513d6000823e601f3d908101601f1916820160405261094e9190810190612899565b9350610bbc915050565b7f00000000000000000000000000000000000000000000000000000000000000006001600160a01b0316634fd991ea60405180610160016040528084600001516001600160a01b0316815260200184602001516001600160a01b03168152602001866000015181526020018660200151815260200184608001516109dc57306109e2565b84606001515b6001600160a01b031681526020018460800151610a03578460600151610a05565b305b6001600160a01b03168152602001306001600160a01b031681526020018460800151610a32576000610a38565b8460c001515b81526020018460800151610a50578460c00151610a53565b60005b815260200160008152602001604051806020016040528060008152508152506040518263ffffffff1660e01b8152600401610a8e91906128e8565b600060405180830381600087803b158015610aa857600080fd5b505af1158015610abc573d6000803e3d6000fd5b505050506040513d6000823e601f3d908101601f19168201604052610ae491908101906129b9565b50610b91604051806101400160405280336001600160a01b0316815260200183600001516001600160a01b0316815260200183602001516001600160a01b0316815260200185600001518152602001856020015181526020018360800151151581526020018360800151610b59576000610b5f565b85604001515b81526020018360800151610b77578560600151610b7a565b60005b815260c08401516020820152604001849052611939565b91508060c0015182604051602001610baa9291906129ed565b60405160208183030381529060405291505b50919050565b60008060608180808080610bd960c08a018a612a06565b810190610be69190612a53565b919e509c509a50939850919650945092509050610c457f00000000000000000000000000000000000000000000000000000000000000007f000000000000000000000000000000000000000000000000000000000000000087876119af565b5084848484848a604051602001610c6196959493929190612b00565b604051602081830303815290604052955050505050509193909250565b6060600080808080610c9360a0880188612a06565b810190610ca09190612b44565b9a509398509196509450925090506000610cfc7f00000000000000000000000000000000000000000000000000000000000000007f000000000000000000000000000000000000000000000000000000000000000088886119af565b90506040518060e00160405280876001600160a01b03168152602001866001600160a01b03168152602001856001600160a01b03168152602001846001600160a01b03168152602001831515815260200183610d5c578960400135610d62565b89606001355b815260200183610d76578960600135610d7c565b89604001355b9052604051610d9091908990602001612bdc565b60408051601f19818403018152610120830182528a35835260208b8101359084015230918301829052606083019190915233608083015297506001600160a01b038216906380e066799060a081016001815260200185610df1576000610df7565b8b608001355b815260200185610e0b578b60800135610e0e565b60005b81526020018a8152506040518263ffffffff1660e01b8152600401610e339190612c45565b600060405180830381600087803b158015610e4d57600080fd5b505af1158015610e61573d6000803e3d6000fd5b505050506040513d6000823e601f3d908101601f19168201604052610e899190810190612ce7565b9b9a5050505050505050505050565b6060816001600160401b03811115610eb257610eb26121cc565b604051908082528060200260200182016040528015610ee557816020015b6060815260200190600190039081610ed05790505b50905060005b8281101561101e5760008030868685818110610f0957610f09612d40565b9050602002810190610f1b9190612a06565b604051610f29929190612d56565b600060405180830381855af49150503d8060008114610f64576040519150601f19603f3d011682016040523d82523d6000602084013e610f69565b606091505b509150915081610feb57604481511015610fb757604051635d2f436f60e11b815260206004820152600e60248201526d125b9d985b1a590814995cdd5b1d60921b6044820152606401610112565b60048101905080806020019051810190610fd19190612d66565b604051635d2f436f60e11b815260040161011291906123cf565b80848481518110610ffe57610ffe612d40565b60200260200101819052505050808061101690612dae565b915050610eeb565b5092915050565b6040516370a0823160e01b81523060048201526000907f00000000000000000000000000000000000000000000000000000000000000006001600160a01b0316906370a082319060240160206040518083038186803b15801561108757600080fd5b505afa15801561109b573d6000803e3d6000fd5b505050506040513d601f19601f820116820180604052508101906110bf9190612dc9565b9050828110156110e557604051636b8c4dab60e01b815260048101829052602401610112565b801561116f57604051632e1a7d4d60e01b8152600481018290527f00000000000000000000000000000000000000000000000000000000000000006001600160a01b031690632e1a7d4d90602401600060405180830381600087803b15801561114d57600080fd5b505af1158015611161573d6000803e3d6000fd5b5050505061116f8282611ae7565b505050565b606060008080808061118960a0880188612a06565b8101906111969190612de2565b9a509398509196509450925090506111cf7f00000000000000000000000000000000000000000000000000000000000000008686611883565b6111df6060880160408901612626565b6111ed5786606001356111f3565b86608001355b6111fd9082612783565b90507f00000000000000000000000000000000000000000000000000000000000000006001600160a01b0316634fd991ea604051806101600160405280886001600160a01b03168152602001876001600160a01b031681526020018a6000013581526020018a6020013581526020018a604001602081019061127f9190612626565b611289578661128b565b305b6001600160a01b031681526020016112a960608c0160408d01612626565b6112b357306112b5565b865b6001600160a01b031681523060208201526040908101906112dc9060608d01908d01612626565b6112e657846112e9565b60005b81526020016112fe60608c0160408d01612626565b61130957600061130b565b845b815260200160008152602001604051806020016040528060008152508152506040518263ffffffff1660e01b815260040161134691906128e8565b600060405180830381600087803b15801561136057600080fd5b505af1158015611374573d6000803e3d6000fd5b505050506040513d6000823e601f3d908101601f1916820160405261139c91908101906129b9565b50611475604051806101400160405280336001600160a01b03168152602001876001600160a01b03168152602001866001600160a01b0316815260200189600001358152602001896020013581526020018960400160208101906114009190612626565b15815260200161141660608b0160408c01612626565b6114205784611423565b60005b6114319060608c0135612783565b815260200161144660608b0160408c01612626565b611451576000611453565b845b6114619060808c0135612783565b815260200183815260200188815250611939565b9550808660405160200161148a9291906129ed565b60405160208183030381529060405295505050505050919050565b47156114b5576114b53347611ae7565b565b60606114e27f0000000000000000000000000000000000000000000000000000000000000000611b87565b600061152a7f000000000000000000000000000000000000000000000000000000000000000061151560208601866125d7565b61152560408701602088016125d7565b611bb3565b90506001600160a01b03811663b2ceca7760408501356060860135336080880135611556576001611559565b60005b608089013561156c578860a00135611572565b88608001355b6040518663ffffffff1660e01b8152600401611592959493929190612e4f565b600060405180830381600087803b1580156115ac57600080fd5b505af11580156115c0573d6000803e3d6000fd5b505060408051602081019091526000815295945050505050565b60405163070b57d960e41b815260048101829052602401610112565b60008061160d6001600160a01b0387168585611c40565b6040516330af0bbf60e21b81526001600160a01b0380831660048301529193509086169063c2bc2efc9060240160206040518083038186803b15801561165257600080fd5b505afa158015611666573d6000803e3d6000fd5b505050506040513d601f19601f8201168201806040525081019061168a9190612e8f565b90506001600160a01b0381166116a2576116a2611c6c565b94509492505050565b808210156116d657604051631c22ff0160e21b81526004810183905260248101829052604401610112565b5050565b6000606060006117347f00000000000000000000000000000000000000000000000000000000000000007f0000000000000000000000000000000000000000000000000000000000000000866000015187602001516115f6565b9150508360000151846020015185608001518660a001518760c001518860e001518961010001518a6101200151604051602001611778989796959493929190612eac565b60408051601f1981840301815260e08301825286820151835260608088015160208501523092840183905283019190915292506001600160a01b0382169063e0260d119060808101600181526020016117e18860e001518961010001518a604001516001611c85565b8152602001858152506040518263ffffffff1660e01b81526004016118069190612eff565b600060405180830381600087803b15801561182057600080fd5b505af1158015611834573d6000803e3d6000fd5b505050506040513d6000823e601f3d908101601f1916820160405261185c9190810190612ce7565b8051909550611878935085016020908101925085019050612f77565b909590945092505050565b60405163d81e842360e01b81526001600160a01b03838116600483015282811660248301526000919085169063d81e84239060440160206040518083038186803b1580156118d057600080fd5b505afa1580156118e4573d6000803e3d6000fd5b505050506040513d601f19601f820116820180604052508101906119089190612e8f565b90506001600160a01b03811633146119335760405163a5fbb7d960e01b815260040160405180910390fd5b50505050565b606060008261012001518060200190518101906119569190612fa7565b505090506119998360a00151611970578360400151611976565b83602001515b8285600001518660a0015161198f578660e00151611cda565b8660c00151611cda565b5050604080516020810190915260008152919050565b60405163d81e842360e01b81526001600160a01b03838116600483015282811660248301526000919086169063d81e84239060440160206040518083038186803b1580156119fc57600080fd5b505afa158015611a10573d6000803e3d6000fd5b505050506040513d601f19601f82011682018060405250810190611a349190612e8f565b6040516330af0bbf60e21b81526001600160a01b03808316600483015291925060009186169063c2bc2efc9060240160206040518083038186803b158015611a7b57600080fd5b505afa158015611a8f573d6000803e3d6000fd5b505050506040513d601f19601f82011682018060405250810190611ab39190612e8f565b90506001600160a01b0381163314611ade5760405163863b47e760e01b815260040160405180910390fd5b50949350505050565b604080516000808252602082019092526001600160a01b038416908390604051611b119190612ff4565b60006040518083038185875af1925050503d8060008114611b4e576040519150601f19603f3d011682016040523d82523d6000602084013e611b53565b606091505b505090508061116f5760405163296c17bb60e21b81526001600160a01b038416600482015260248101839052604401610112565b6001600160a01b0381163314611bb05760405163d2bc8fc960e01b815260040160405180910390fd5b50565b60405163d81e842360e01b81526001600160a01b03838116600483015282811660248301526000919085169063d81e84239060440160206040518083038186803b158015611c0057600080fd5b505afa158015611c14573d6000803e3d6000fd5b505050506040513d601f19601f82011682018060405250810190611c389190612e8f565b949350505050565b6000611c4d848484611bb3565b90506001600160a01b038116611c6557611c65611c6c565b9392505050565b60405163d92e233d60e01b815260040160405180910390fd5b60006fffffffffffffffffffffffffffffffff8311611cba57611cab8584600185611dc4565b611cb59085612783565b611cd1565b611cc78484600085611dc4565b611cd19086612783565b95945050505050565b7f00000000000000000000000000000000000000000000000000000000000000006001600160a01b0316846001600160a01b0316148015611d1b5750804710155b15611daf577f00000000000000000000000000000000000000000000000000000000000000006001600160a01b031663d0e30db0826040518263ffffffff1660e01b81526004016000604051808303818588803b158015611d7b57600080fd5b505af1158015611d8f573d6000803e3d6000fd5b50611daa935050506001600160a01b03861690508383611deb565b611933565b6119336001600160a01b038516848484611e4e565b600082611ddb57611cb585600160801b8685611e86565b611cd18585600160801b85611e86565b6040516001600160a01b03831660248201526044810182905261116f90849063a9059cbb60e01b906064015b60408051601f198184030181529190526020810180516001600160e01b03166001600160e01b031990931692909217909152611f82565b6040516001600160a01b03808516602483015283166044820152606481018290526119339085906323b872dd60e01b90608401611e17565b6000806000611e958787612054565b915091508060001415611eb657611ead828686612073565b92505050611c38565b808511611ee75760405163362ced0960e11b8152600481018890526024810187905260448101869052606401610112565b600085878909600087810388169788900497600260038a028118808b02820302808b02820302808b02820302808b02820302808b02820302808b02909103029181900381900460010186841190950394850292909503949094041792830293508490508015611f6557508480611f5f57611f5f613010565b86880915155b15611f785782611f7481612dae565b9350505b5050949350505050565b6000611fd7826040518060400160405280602081526020017f5361666545524332303a206c6f772d6c6576656c2063616c6c206661696c6564815250856001600160a01b03166120a59092919063ffffffff16565b80519091501561116f5780806020019051810190611ff59190613026565b61116f5760405162461bcd60e51b815260206004820152602a60248201527f5361666545524332303a204552433230206f7065726174696f6e20646964206e6044820152691bdd081cdd58d8d9595960b21b6064820152608401610112565b6000806000198385098385029250828110838203039150509250929050565b600061207f8385613043565b905081801561209657506120938385613057565b15155b15611c655780611cd181612dae565b6060611c388484600085856001600160a01b0385163b6121075760405162461bcd60e51b815260206004820152601d60248201527f416464726573733a2063616c6c20746f206e6f6e2d636f6e74726163740000006044820152606401610112565b600080866001600160a01b031685876040516121239190612ff4565b60006040518083038185875af1925050503d8060008114612160576040519150601f19603f3d011682016040523d82523d6000602084013e612165565b606091505b5091509150612175828286612180565b979650505050505050565b6060831561218f575081611c65565b82511561219f5782518084602001fd5b8160405162461bcd60e51b815260040161011291906123cf565b60006101608284031215610bbc57600080fd5b634e487b7160e01b600052604160045260246000fd5b60405160c081016001600160401b0381118282101715612204576122046121cc565b60405290565b60405160e081016001600160401b0381118282101715612204576122046121cc565b604051601f8201601f191681016001600160401b0381118282101715612254576122546121cc565b604052919050565b60006001600160401b03821115612275576122756121cc565b50601f01601f191660200190565b600082601f83011261229457600080fd5b81356122a76122a28261225c565b61222c565b8181528460208386010111156122bc57600080fd5b816020850160208301376000918101602001919091529392505050565b6000602082840312156122eb57600080fd5b81356001600160401b038082111561230257600080fd5b9083019060c0828603121561231657600080fd5b61231e6121e2565b823581526020830135602082015260408301356040820152606083013560608201526080830135608082015260a08301358281111561235c57600080fd5b61236887828601612283565b60a08301525095945050505050565b60005b8381101561239257818101518382015260200161237a565b838111156119335750506000910152565b600081518084526123bb816020860160208601612377565b601f01601f19169290920160200192915050565b602081526000611c6560208301846123a3565b6000602082840312156123f457600080fd5b81356001600160401b0381111561240a57600080fd5b820160e08185031215611c6557600080fd5b838152826020820152606060408201526000611cd160608301846123a3565b600060c08284031215610bbc57600080fd5b60006020828403121561245f57600080fd5b81356001600160401b0381111561247557600080fd5b611c388482850161243b565b6000806020838503121561249457600080fd5b82356001600160401b03808211156124ab57600080fd5b818501915085601f8301126124bf57600080fd5b8135818111156124ce57600080fd5b8660208260051b85010111156124e357600080fd5b60209290920196919550909350505050565b6000602080830181845280855180835260408601915060408160051b870101925083870160005b8281101561254a57603f198886030184526125388583516123a3565b9450928501929085019060010161251c565b5092979650505050505050565b6001600160a01b0381168114611bb057600080fd5b6000806040838503121561257f57600080fd5b82359150602083013561259181612557565b809150509250929050565b6000602082840312156125ae57600080fd5b81356001600160401b038111156125c457600080fd5b82016101008185031215611c6557600080fd5b6000602082840312156125e957600080fd5b8135611c6581612557565b6000806040838503121561260757600080fd5b505080516020909101519092909150565b8015158114611bb057600080fd5b60006020828403121561263857600080fd5b8135611c6581612618565b805161264e81612618565b919050565b60006126616122a28461225c565b905082815283838301111561267557600080fd5b611c65836020830184612377565b600082601f83011261269457600080fd5b611c6583835160208501612653565b6000808284036101008112156126b857600080fd5b60e08112156126c657600080fd5b506126cf61220a565b83516126da81612557565b815260208401516126ea81612557565b602082015260408401516126fd81612557565b6040820152606084015161271081612557565b606082015261272160808501612643565b608082015260a084015160a082015260c084015160c08201528092505060e08301516001600160401b0381111561275757600080fd5b61276385828601612683565b9150509250929050565b634e487b7160e01b600052601160045260246000fd5b600082198211156127965761279661276d565b500190565b6001600160a01b038781168252868116602083015285166040820152606081018490526080810183905260c060a082018190526000906127dd908301846123a3565b98975050505050505050565b634e487b7160e01b600052602160045260246000fd5b6002811061280f5761280f6127e9565b9052565b6020815281516020820152602082015160408201526000604083015160018060a01b0380821660608501528060608601511660808501525050608083015161285f60a084018215159052565b5060a083015161287260c08401826127ff565b5060c083015160e083015260e0830151610100808185015250611c386101208401826123a3565b6000806000606084860312156128ae57600080fd5b835192506020840151915060408401516001600160401b038111156128d257600080fd5b6128de86828701612683565b9150509250925092565b602081526129026020820183516001600160a01b03169052565b6000602083015161291e60408401826001600160a01b03169052565b506040830151606083015260608301516080830152608083015161294d60a08401826001600160a01b03169052565b5060a08301516001600160a01b03811660c08401525060c08301516001600160a01b03811660e08401525060e083015161010083810191909152830151610120808401919091528301516101408084019190915283015161016080840152611c386101808401826123a3565b6000602082840312156129cb57600080fd5b81516001600160401b038111156129e157600080fd5b611c3884828501612683565b828152604060208201526000611c3860408301846123a3565b6000808335601e19843603018112612a1d57600080fd5b8301803591506001600160401b03821115612a3757600080fd5b602001915036819003821315612a4c57600080fd5b9250929050565b600080600080600080600080610100898b031215612a7057600080fd5b8835612a7b81612557565b97506020890135612a8b81612557565b96506040890135612a9b81612557565b95506060890135612aab81612557565b94506080890135612abb81612618565b935060a0890135925060c0890135915060e08901356001600160401b03811115612ae457600080fd5b612af08b828c01612283565b9150509295985092959890939650565b6001600160a01b0387811682528681166020830152858116604083015284166060820152821515608082015260c060a082018190526000906127dd908301846123a3565b60008060008060008060c08789031215612b5d57600080fd5b8635612b6881612557565b95506020870135612b7881612557565b94506040870135612b8881612557565b93506060870135612b9881612557565b92506080870135612ba881612618565b915060a08701356001600160401b03811115612bc357600080fd5b612bcf89828a01612283565b9150509295509295509295565b600061010060018060a01b038086511684528060208701511660208501528060408701511660408501528060608701511660608501525060808501511515608084015260a085015160a084015260c085015160c08401528060e0840152611cd1818401856123a3565b60208152815160208201526020820151604082015260006040830151612c7660608401826001600160a01b03169052565b5060608301516001600160a01b03811660808401525060808301516001600160a01b03811660a08401525060a0830151612cb360c08401826127ff565b5060c083015160e0838101919091528301516101008084019190915283015161012080840152611c386101408401826123a3565b60008060008060808587031215612cfd57600080fd5b84519350602085015192506040850151915060608501516001600160401b03811115612d2857600080fd5b612d3487828801612683565b91505092959194509250565b634e487b7160e01b600052603260045260246000fd5b8183823760009101908152919050565b600060208284031215612d7857600080fd5b81516001600160401b03811115612d8e57600080fd5b8201601f81018413612d9f57600080fd5b611c3884825160208401612653565b6000600019821415612dc257612dc261276d565b5060010190565b600060208284031215612ddb57600080fd5b5051919050565b60008060008060008060c08789031215612dfb57600080fd5b8635612e0681612557565b95506020870135612e1681612557565b94506040870135612e2681612557565b9350606087013592506080870135915060a08701356001600160401b03811115612bc357600080fd5b858152602081018590526001600160a01b038416604082015260a0810160038410612e7c57612e7c6127e9565b6060820193909352608001529392505050565b600060208284031215612ea157600080fd5b8151611c6581612557565b6001600160a01b0389811682528881166020830152878116604083015286166060820152841515608082015260a0810184905260c0810183905261010060e08201819052600090610e89838201856123a3565b6020815281516020820152602082015160408201526000604083015160018060a01b0380821660608501528060608601511660808501525050608083015160048110612f4d57612f4d6127e9565b8060a08401525060a083015160c083015260c083015160e080840152611c386101008401826123a3565b60008060408385031215612f8a57600080fd5b8251915060208301516001600160401b0381111561275757600080fd5b600080600060608486031215612fbc57600080fd5b8351612fc781612557565b6020850151909350612fd881612557565b6040850151909250612fe981612618565b809150509250925092565b60008251613006818460208701612377565b9190910192915050565b634e487b7160e01b600052601260045260246000fd5b60006020828403121561303857600080fd5b8151611c6581612618565b60008261305257613052613010565b500490565b60008261306657613066613010565b50069056fea2646970667358221220d1fa00f1cc926d80f230ee9d76d78b31dc24c8ed6a87afdfd387df4c30ac416a64736f6c63430008080033",
  "linkReferences": {},
  "deployedLinkReferences": {}
}