{
  "_format": "hh-sol-artifact-1",
  "contractName": "TimeswapV2PeripheryNoDexQuoterCloseBorrowGivenPosition",
  "sourceName": "@timeswap-labs/v2-periphery-nodex/src/lens/TimeswapV2PeripheryNoDexQuoterCloseBorrowGivenPosition.sol",
  "abi": [
    {
      "inputs": [
        {
          "internalType": "address",
          "name": "chosenOptionFactory",
          "type": "address"
        },
        {
          "internalType": "address",
          "name": "chosenPoolFactory",
          "type": "address"
        },
        {
          "internalType": "address",
          "name": "chosenTokens",
          "type": "address"
        }
      ],
      "stateMutability": "nonpayable",
      "type": "constructor"
    },
    {
      "inputs": [],
      "name": "CanOnlyBeCalledByOptionContract",
      "type": "error"
    },
    {
      "inputs": [],
      "name": "CanOnlyBeCalledByPoolContract",
      "type": "error"
    },
    {
      "inputs": [
        {
          "internalType": "uint256",
          "name": "multiplicand",
          "type": "uint256"
        },
        {
          "internalType": "uint256",
          "name": "multiplier",
          "type": "uint256"
        },
        {
          "internalType": "uint256",
          "name": "divisor",
          "type": "uint256"
        }
      ],
      "name": "MulDivOverflow",
      "type": "error"
    },
    {
      "inputs": [
        {
          "internalType": "string",
          "name": "revertString",
          "type": "string"
        }
      ],
      "name": "MulticallFailed",
      "type": "error"
    },
    {
      "inputs": [
        {
          "internalType": "bytes",
          "name": "data",
          "type": "bytes"
        }
      ],
      "name": "PassOptionSwapCallbackInfo",
      "type": "error"
    },
    {
      "inputs": [
        {
          "internalType": "uint160",
          "name": "timeswapV2SqrtInterestRateAfter",
          "type": "uint160"
        },
        {
          "internalType": "uint256",
          "name": "token0Amount",
          "type": "uint256"
        },
        {
          "internalType": "uint256",
          "name": "token1Amount",
          "type": "uint256"
        },
        {
          "internalType": "bytes",
          "name": "data",
          "type": "bytes"
        }
      ],
      "name": "PassPoolDeleverageCallbackInfo",
      "type": "error"
    },
    {
      "inputs": [
        {
          "internalType": "uint160",
          "name": "timeswapV2SqrtInterestRateAfter",
          "type": "uint160"
        },
        {
          "internalType": "uint256",
          "name": "token0Amount",
          "type": "uint256"
        },
        {
          "internalType": "uint256",
          "name": "token1Amount",
          "type": "uint256"
        },
        {
          "internalType": "bytes",
          "name": "data",
          "type": "bytes"
        }
      ],
      "name": "PassTokenBurnCallbackInfo",
      "type": "error"
    },
    {
      "inputs": [],
      "name": "ZeroAddress",
      "type": "error"
    },
    {
      "inputs": [
        {
          "components": [
            {
              "internalType": "address",
              "name": "token0",
              "type": "address"
            },
            {
              "internalType": "address",
              "name": "token1",
              "type": "address"
            },
            {
              "internalType": "uint256",
              "name": "strike",
              "type": "uint256"
            },
            {
              "internalType": "uint256",
              "name": "maturity",
              "type": "uint256"
            },
            {
              "internalType": "address",
              "name": "to",
              "type": "address"
            },
            {
              "internalType": "bool",
              "name": "isToken0",
              "type": "bool"
            },
            {
              "internalType": "bool",
              "name": "isLong0",
              "type": "bool"
            },
            {
              "internalType": "uint256",
              "name": "positionAmount",
              "type": "uint256"
            }
          ],
          "internalType": "struct TimeswapV2PeripheryNoDexQuoterCloseBorrowGivenPositionParam",
          "name": "param",
          "type": "tuple"
        },
        {
          "internalType": "uint96",
          "name": "durationForward",
          "type": "uint96"
        }
      ],
      "name": "closeBorrowGivenPosition",
      "outputs": [
        {
          "internalType": "uint256",
          "name": "tokenAmount",
          "type": "uint256"
        },
        {
          "internalType": "uint160",
          "name": "timeswapV2SqrtInterestRateAfter",
          "type": "uint160"
        }
      ],
      "stateMutability": "nonpayable",
      "type": "function"
    },
    {
      "inputs": [
        {
          "internalType": "bytes[]",
          "name": "data",
          "type": "bytes[]"
        }
      ],
      "name": "multicall",
      "outputs": [
        {
          "internalType": "bytes[]",
          "name": "results",
          "type": "bytes[]"
        }
      ],
      "stateMutability": "payable",
      "type": "function"
    },
    {
      "inputs": [
        {
          "internalType": "address",
          "name": "",
          "type": "address"
        },
        {
          "internalType": "address",
          "name": "",
          "type": "address"
        },
        {
          "internalType": "uint256[]",
          "name": "",
          "type": "uint256[]"
        },
        {
          "internalType": "uint256[]",
          "name": "",
          "type": "uint256[]"
        },
        {
          "internalType": "bytes",
          "name": "",
          "type": "bytes"
        }
      ],
      "name": "onERC1155BatchReceived",
      "outputs": [
        {
          "internalType": "bytes4",
          "name": "",
          "type": "bytes4"
        }
      ],
      "stateMutability": "pure",
      "type": "function"
    },
    {
      "inputs": [
        {
          "internalType": "address",
          "name": "operator",
          "type": "address"
        },
        {
          "internalType": "address",
          "name": "",
          "type": "address"
        },
        {
          "internalType": "uint256",
          "name": "",
          "type": "uint256"
        },
        {
          "internalType": "uint256",
          "name": "",
          "type": "uint256"
        },
        {
          "internalType": "bytes",
          "name": "",
          "type": "bytes"
        }
      ],
      "name": "onERC1155Received",
      "outputs": [
        {
          "internalType": "bytes4",
          "name": "",
          "type": "bytes4"
        }
      ],
      "stateMutability": "view",
      "type": "function"
    },
    {
      "inputs": [],
      "name": "optionFactory",
      "outputs": [
        {
          "internalType": "address",
          "name": "",
          "type": "address"
        }
      ],
      "stateMutability": "view",
      "type": "function"
    },
    {
      "inputs": [],
      "name": "poolFactory",
      "outputs": [
        {
          "internalType": "address",
          "name": "",
          "type": "address"
        }
      ],
      "stateMutability": "view",
      "type": "function"
    },
    {
      "inputs": [
        {
          "internalType": "bytes4",
          "name": "interfaceId",
          "type": "bytes4"
        }
      ],
      "name": "supportsInterface",
      "outputs": [
        {
          "internalType": "bool",
          "name": "",
          "type": "bool"
        }
      ],
      "stateMutability": "view",
      "type": "function"
    },
    {
      "inputs": [
        {
          "components": [
            {
              "internalType": "uint256",
              "name": "strike",
              "type": "uint256"
            },
            {
              "internalType": "uint256",
              "name": "maturity",
              "type": "uint256"
            },
            {
              "internalType": "bool",
              "name": "isLong0ToLong1",
              "type": "bool"
            },
            {
              "internalType": "uint256",
              "name": "token0AndLong0Amount",
              "type": "uint256"
            },
            {
              "internalType": "uint256",
              "name": "token1AndLong1Amount",
              "type": "uint256"
            },
            {
              "internalType": "bytes",
              "name": "data",
              "type": "bytes"
            }
          ],
          "internalType": "struct TimeswapV2OptionSwapCallbackParam",
          "name": "param",
          "type": "tuple"
        }
      ],
      "name": "timeswapV2OptionSwapCallback",
      "outputs": [
        {
          "internalType": "bytes",
          "name": "data",
          "type": "bytes"
        }
      ],
      "stateMutability": "nonpayable",
      "type": "function"
    },
    {
      "inputs": [
        {
          "components": [
            {
              "internalType": "uint256",
              "name": "strike",
              "type": "uint256"
            },
            {
              "internalType": "uint256",
              "name": "maturity",
              "type": "uint256"
            },
            {
              "internalType": "uint256",
              "name": "long0Amount",
              "type": "uint256"
            },
            {
              "internalType": "uint256",
              "name": "long1Amount",
              "type": "uint256"
            },
            {
              "internalType": "uint256",
              "name": "shortAmount",
              "type": "uint256"
            },
            {
              "internalType": "bytes",
              "name": "data",
              "type": "bytes"
            }
          ],
          "internalType": "struct TimeswapV2PoolDeleverageCallbackParam",
          "name": "param",
          "type": "tuple"
        }
      ],
      "name": "timeswapV2PoolDeleverageCallback",
      "outputs": [
        {
          "internalType": "bytes",
          "name": "data",
          "type": "bytes"
        }
      ],
      "stateMutability": "nonpayable",
      "type": "function"
    },
    {
      "inputs": [
        {
          "components": [
            {
              "internalType": "uint256",
              "name": "strike",
              "type": "uint256"
            },
            {
              "internalType": "uint256",
              "name": "maturity",
              "type": "uint256"
            },
            {
              "internalType": "uint256",
              "name": "longAmount",
              "type": "uint256"
            },
            {
              "internalType": "uint256",
              "name": "shortAmount",
              "type": "uint256"
            },
            {
              "internalType": "bytes",
              "name": "data",
              "type": "bytes"
            }
          ],
          "internalType": "struct TimeswapV2PoolDeleverageChoiceCallbackParam",
          "name": "param",
          "type": "tuple"
        }
      ],
      "name": "timeswapV2PoolDeleverageChoiceCallback",
      "outputs": [
        {
          "internalType": "uint256",
          "name": "long0Amount",
          "type": "uint256"
        },
        {
          "internalType": "uint256",
          "name": "long1Amount",
          "type": "uint256"
        },
        {
          "internalType": "bytes",
          "name": "data",
          "type": "bytes"
        }
      ],
      "stateMutability": "nonpayable",
      "type": "function"
    },
    {
      "inputs": [
        {
          "components": [
            {
              "internalType": "address",
              "name": "token0",
              "type": "address"
            },
            {
              "internalType": "address",
              "name": "token1",
              "type": "address"
            },
            {
              "internalType": "uint256",
              "name": "strike",
              "type": "uint256"
            },
            {
              "internalType": "uint256",
              "name": "maturity",
              "type": "uint256"
            },
            {
              "internalType": "uint256",
              "name": "long0Amount",
              "type": "uint256"
            },
            {
              "internalType": "uint256",
              "name": "long1Amount",
              "type": "uint256"
            },
            {
              "internalType": "uint256",
              "name": "shortAmount",
              "type": "uint256"
            },
            {
              "internalType": "bytes",
              "name": "data",
              "type": "bytes"
            }
          ],
          "internalType": "struct TimeswapV2TokenBurnCallbackParam",
          "name": "param",
          "type": "tuple"
        }
      ],
      "name": "timeswapV2TokenBurnCallback",
      "outputs": [
        {
          "internalType": "bytes",
          "name": "data",
          "type": "bytes"
        }
      ],
      "stateMutability": "nonpayable",
      "type": "function"
    },
    {
      "inputs": [],
      "name": "tokens",
      "outputs": [
        {
          "internalType": "address",
          "name": "",
          "type": "address"
        }
      ],
      "stateMutability": "view",
      "type": "function"
    }
  ],
  "bytecode": "0x60e06040523480156200001157600080fd5b506040516200296f3803806200296f833981016040819052620000349162000079565b6001600160601b0319606093841b811660805291831b821660a05290911b1660c052620000c3565b80516001600160a01b03811681146200007457600080fd5b919050565b6000806000606084860312156200008f57600080fd5b6200009a846200005c565b9250620000aa602085016200005c565b9150620000ba604085016200005c565b90509250925092565b60805160601c60a05160601c60c05160601c61283b62000134600039600081816101a90152611083015260008181610130015281816104d201528181610a060152610e4201526000818161022c015281816104b1015281816109e501528181610cd90152610e21015261283b6000f3fe6080604052600436106100a75760003560e01c8063ac9650d811610064578063ac9650d8146101fa578063b3461c871461021a578063bc197c811461024e578063dc4a484714610287578063f23a6e61146102a7578063fb05b8fe146102c757600080fd5b806301ffc9a7146100ac578063186398c6146100e15780634219dc401461011e57806387a8993a1461016a5780639d63848a14610197578063aaac7a74146101cb575b600080fd5b3480156100b857600080fd5b506100cc6100c73660046119f6565b6102e7565b60405190151581526020015b60405180910390f35b3480156100ed57600080fd5b506101016100fc366004611a55565b61031e565b604080519283526001600160a01b039091166020830152016100d8565b34801561012a57600080fd5b506101527f000000000000000000000000000000000000000000000000000000000000000081565b6040516001600160a01b0390911681526020016100d8565b34801561017657600080fd5b5061018a610185366004611a9d565b61047a565b6040516100d89190611b29565b3480156101a357600080fd5b506101527f000000000000000000000000000000000000000000000000000000000000000081565b3480156101d757600080fd5b506101eb6101e6366004611b3c565b6109ae565b6040516100d893929190611b76565b61020d610208366004611b95565b610b0b565b6040516100d89190611c09565b34801561022657600080fd5b506101527f000000000000000000000000000000000000000000000000000000000000000081565b34801561025a57600080fd5b5061026e610269366004611dc5565b610c98565b6040516001600160e01b031990911681526020016100d8565b34801561029357600080fd5b5061018a6102a2366004611a9d565b610ca4565b3480156102b357600080fd5b5061026e6102c2366004611e72565b610dc5565b3480156102d357600080fd5b5061018a6102e2366004611eda565b610ded565b60006001600160e01b03198216630271189760e51b148061031857506301ffc9a760e01b6001600160e01b03198316145b92915050565b600080803361033360a0870160808801611f0e565b61034360c0880160a08901611f39565b604080516001600160a01b03948516602082015293909216918301919091521515606082015260800160408051601f198184030181526101008301909152915061045390806103956020890189611f0e565b6001600160a01b031681526020018760200160208101906103b69190611f0e565b6001600160a01b0316815260200187604001358152602001876060013581526020018760c00160208101906103eb9190611f39565b15156103fd60c08a0160a08b01611f39565b1515146104195761041460a0890160808a01611f0e565b61041b565b305b6001600160a01b0316815260200161043960e0890160c08a01611f39565b1515815260e0880135602082015260400183905285611040565b815190955090935061047092508301602090810191508301611f56565b9250509250929050565b606060008080808061048f60a0880188611f6f565b81019061049c9190611fbc565b9a5093985091965094509250905060006104f87f00000000000000000000000000000000000000000000000000000000000000007f00000000000000000000000000000000000000000000000000000000000000008888611245565b9050600080826001600160a01b031663622fb68f6040518061010001604052808d6000013581526020018d602001358152602001886105375730610539565b895b6001600160a01b03168152602001886105525789610554565b305b6001600160a01b03168152602001600181526020018861057557600061057b565b8d608001355b81526020018861058f578d60800135610592565b60005b8152602001604051806020016040528060008152508152506040518263ffffffff1660e01b81526004016105c69190612075565b600060405180830381600087803b1580156105e057600080fd5b505af11580156105f4573d6000803e3d6000fd5b505050506040513d6000823e601f3d908101601f1916820160405261061c9190810190612141565b50509150915084610631578960600135610637565b89604001355b156106ca576001600160a01b03831663b2ceca778b3560208d0135338961065f576001610662565b60005b8a610671578f60600135610677565b8f604001355b6040518663ffffffff1660e01b815260040161069795949392919061219a565b600060405180830381600087803b1580156106b157600080fd5b505af11580156106c5573d6000803e3d6000fd5b505050505b846106d95789604001356106df565b89606001355b1561089057878786876106f257836106f4565b845b878d60405160200161070b969594939291906121da565b60408051601f19818403018152610100830182528c35835260208d810135908401526001600160a01b038981169284019290925233606084015287151560808401529a5084169063b084c2529060a081018861076857600161076b565b60005b600181111561077c5761077c61204b565b8152602001886107995761079460608f01358661223e565b6107a7565b6107a760408f01358761223e565b6107b19089612256565b81526020018c8152506040518263ffffffff1660e01b81526004016107d6919061226d565b600060405180830381600087803b1580156107f057600080fd5b505af192505050801561082557506040513d6000823e601f3d908101601f1916820160405261082291908101906122f3565b60015b610888573d808015610853576040519150601f19603f3d011682016040523d82523d6000602084013e610858565b606091505b5061086a81636fd90d8560e01b61137d565b9950898060200190518101906108809190612342565b995050610906565b505050610906565b610903604051806101400160405280336001600160a01b031681526020018a6001600160a01b03168152602001896001600160a01b031681526020018c6000013581526020018c60200135815260200187151581526020018481526020018381526020018681526020018b8152506113eb565b98505b60405163a8f403b760e01b81528a35600482015260208b01356024820152600090339063a8f403b79060440160206040518083038186803b15801561094a57600080fd5b505afa15801561095e573d6000803e3d6000fd5b505050506040513d601f19601f820116820180604052508101906109829190612376565b90508083838c604051632a88a08b60e11b81526004016109a59493929190612393565b60405180910390fd5b600080606081808080806109c560808a018a611f6f565b8101906109d29190611fbc565b9a50939850919650945092509050610a2c7f00000000000000000000000000000000000000000000000000000000000000007f00000000000000000000000000000000000000000000000000000000000000008787611245565b506000610a4160608b01358b35851584611451565b610a4b9083612256565b9050610aca6040518060e00160405280886001600160a01b03168152602001876001600160a01b031681526020018c6000013581526020018c6020013581526020018515158152602001610abd86610aa4576000610aa6565b845b87610ab15785610ab4565b60005b8f3560006114a1565b81526020018990526114df565b604051929b509099509750610aed90879087908790879087908d906020016123ca565b60405160208183030381529060405296505050505050509193909250565b6060816001600160401b03811115610b2557610b25611c83565b604051908082528060200260200182016040528015610b5857816020015b6060815260200190600190039081610b435790505b50905060005b82811015610c915760008030868685818110610b7c57610b7c61240d565b9050602002810190610b8e9190611f6f565b604051610b9c929190612423565b600060405180830381855af49150503d8060008114610bd7576040519150601f19603f3d011682016040523d82523d6000602084013e610bdc565b606091505b509150915081610c5e57604481511015610c2a57604051635d2f436f60e11b815260206004820152600e60248201526d125b9d985b1a590814995cdd5b1d60921b60448201526064016109a5565b60048101905080806020019051810190610c449190612433565b604051635d2f436f60e11b81526004016109a59190611b29565b80848481518110610c7157610c7161240d565b602002602001018190525050508080610c899061247b565b915050610b5e565b5092915050565b60005b95945050505050565b6060600080808080610cb960a0880188611f6f565b810190610cc69190612496565b9a50939850919650945092509050610cff7f00000000000000000000000000000000000000000000000000000000000000008686611549565b610da8604051806101400160405280336001600160a01b03168152602001876001600160a01b03168152602001866001600160a01b031681526020018960000135815260200189602001358152602001851515815260200185610d63576000610d65565b845b610d739060608c013561223e565b815260200185610d835784610d86565b60005b610d949060808c013561223e565b8152602001838152602001888152506113eb565b955085604051636fd90d8560e01b81526004016109a59190611b29565b60006001600160a01b0386163014610ddf57506000610c9b565b5063f23a6e6160e01b610c9b565b60606000808080610e0160e0870187611f6f565b810190610e0e9190612503565b9850929650909450925090506000610e837f00000000000000000000000000000000000000000000000000000000000000007f0000000000000000000000000000000000000000000000000000000000000000610e6e60208b018b611f0e565b610e7e60408c0160208d01611f0e565b6115ff565b9150610e9490506020880188611f0e565b610ea46040890160208a01611f0e565b8686868a604051602001610ebd969594939291906123ca565b60408051601f1981840301815260c0830182528982013583526060808b01356020850152309284019290925297506001600160a01b0383169163bfec5c8a91810160038152602001610f3088610f14576000610f16565b875b89610f215788610f24565b60005b8d6040013560006114a1565b815260200189815250846040518363ffffffff1660e01b8152600401610f57929190612566565b600060405180830381600087803b158015610f7157600080fd5b505af1925050508015610fa657506040513d6000823e601f3d908101601f19168201604052610fa39190810190612141565b60015b611032573d808015610fd4576040519150601f19603f3d011682016040523d82523d6000602084013e610fd9565b606091505b50610feb81632a88a08b60e11b61137d565b965060008060008980602001905181019061100691906125e8565b60405163568f677b60e01b8152909d5092955090935091506109a5908490849084908e90600401612393565b505050505050505050919050565b6000806060600085608001518660a001518760c00151878960e00151604051602001611070959493929190612634565b60405160208183030381529060405291507f00000000000000000000000000000000000000000000000000000000000000006001600160a01b031663a38d7a1760405180610160016040528089600001516001600160a01b0316815260200189602001516001600160a01b031681526020018960400151815260200189606001518152602001306001600160a01b03168152602001306001600160a01b03168152602001306001600160a01b031681526020018960a00151611133576000611139565b8960c001515b81526020018960a00151611151578960c00151611154565b60005b815260200160008152602001858152506040518263ffffffff1660e01b81526004016111809190612672565b600060405180830381600087803b15801561119a57600080fd5b505af19250505080156111cf57506040513d6000823e601f3d908101601f191682016040526111cc9190810190612342565b60015b61123a573d8080156111fd576040519150601f19603f3d011682016040523d82523d6000602084013e611202565b606091505b506112148163568f677b60e01b61137d565b92508280602001905181019061122a91906125e8565b91975095509350915061123c9050565b505b92959194509250565b60405163d81e842360e01b81526001600160a01b03838116600483015282811660248301526000919086169063d81e84239060440160206040518083038186803b15801561129257600080fd5b505afa1580156112a6573d6000803e3d6000fd5b505050506040513d601f19601f820116820180604052508101906112ca9190612376565b6040516330af0bbf60e21b81526001600160a01b03808316600483015291925060009186169063c2bc2efc9060240160206040518083038186803b15801561131157600080fd5b505afa158015611325573d6000803e3d6000fd5b505050506040513d601f19601f820116820180604052508101906113499190612376565b90506001600160a01b03811633146113745760405163863b47e760e01b815260040160405180910390fd5b50949350505050565b8151606090602061138f600483612256565b6113999190612759565b1580156113c157506001600160e01b031983166113b58561276d565b6001600160e01b031916145b156113e3576113db8460046113d68185612256565b6116b4565b915050610318565b835184602001fd5b6060600080600084610120015180602001905181019061140b91906127a4565b92509250925080611420578460e00151611426565b8460c001515b60405160200161143891815260200190565b6040516020818303038152906040529350505050919050565b60006001600160801b03841161147e57826114785761147385856000856117c3565b611496565b84611496565b826114895784611496565b61149685856001856117c3565b90505b949350505050565b60006001600160801b0383116114c8576114be85846001856117c3565b611473908561223e565b6114d584846000856117c3565b611496908661223e565b600080606060008460c001518060200190518101906114fe91906127a4565b92505050600061151a8660a00151876040015184156001611451565b90508161152857600061152a565b805b945081611537578061153a565b60005b60c09096015194969350505050565b60405163d81e842360e01b81526001600160a01b03838116600483015282811660248301526000919085169063d81e84239060440160206040518083038186803b15801561159657600080fd5b505afa1580156115aa573d6000803e3d6000fd5b505050506040513d601f19601f820116820180604052508101906115ce9190612376565b90506001600160a01b03811633146115f95760405163a5fbb7d960e01b815260040160405180910390fd5b50505050565b6000806116166001600160a01b03871685856117ea565b6040516330af0bbf60e21b81526001600160a01b0380831660048301529193509086169063c2bc2efc9060240160206040518083038186803b15801561165b57600080fd5b505afa15801561166f573d6000803e3d6000fd5b505050506040513d601f19601f820116820180604052508101906116939190612376565b90506001600160a01b0381166116ab576116ab61180b565b94509492505050565b6060816116c281601f61223e565b10156117015760405162461bcd60e51b815260206004820152600e60248201526d736c6963655f6f766572666c6f7760901b60448201526064016109a5565b61170b828461223e565b8451101561174f5760405162461bcd60e51b8152602060048201526011602482015270736c6963655f6f75744f66426f756e647360781b60448201526064016109a5565b60608215801561176e57604051915060008252602082016040526117b8565b6040519150601f8416801560200281840101858101878315602002848b0101015b818310156117a757805183526020928301920161178f565b5050858452601f01601f1916604052505b5090505b9392505050565b6000826117da5761147385600160801b8685611824565b6114968585600160801b85611824565b60006117f7848484611920565b90506001600160a01b0381166117bc576117bc5b60405163d92e233d60e01b815260040160405180910390fd5b600080600061183387876119a5565b9150915080600014156118545761184b8286866119c4565b92505050611499565b8085116118855760405163362ced0960e11b81526004810188905260248101879052604481018690526064016109a5565b600085878909600087810388169788900497600260038a028118808b02820302808b02820302808b02820302808b02820302808b02820302808b02909103029181900381900460010186841190950394850292909503949094041792830293508490508015611903575084806118fd576118fd612743565b86880915155b1561191657826119128161247b565b9350505b5050949350505050565b60405163d81e842360e01b81526001600160a01b03838116600483015282811660248301526000919085169063d81e84239060440160206040518083038186803b15801561196d57600080fd5b505afa158015611981573d6000803e3d6000fd5b505050506040513d601f19601f820116820180604052508101906114999190612376565b6000806000198385098385029250828110838203039150509250929050565b60006119d083856127f1565b90508180156119e757506119e48385612759565b15155b156117bc5780610c9b8161247b565b600060208284031215611a0857600080fd5b81356001600160e01b0319811681146117bc57600080fd5b60006101008284031215611a3357600080fd5b50919050565b80356001600160601b0381168114611a5057600080fd5b919050565b6000806101208385031215611a6957600080fd5b611a738484611a20565b9150611a826101008401611a39565b90509250929050565b600060c08284031215611a3357600080fd5b600060208284031215611aaf57600080fd5b81356001600160401b03811115611ac557600080fd5b61149984828501611a8b565b60005b83811015611aec578181015183820152602001611ad4565b838111156115f95750506000910152565b60008151808452611b15816020860160208601611ad1565b601f01601f19169290920160200192915050565b6020815260006117bc6020830184611afd565b600060208284031215611b4e57600080fd5b81356001600160401b03811115611b6457600080fd5b820160a081850312156117bc57600080fd5b8381528260208201526060604082015260006114966060830184611afd565b60008060208385031215611ba857600080fd5b82356001600160401b0380821115611bbf57600080fd5b818501915085601f830112611bd357600080fd5b813581811115611be257600080fd5b8660208260051b8501011115611bf757600080fd5b60209290920196919550909350505050565b6000602080830181845280855180835260408601915060408160051b870101925083870160005b82811015611c5e57603f19888603018452611c4c858351611afd565b94509285019290850190600101611c30565b5092979650505050505050565b6001600160a01b0381168114611c8057600080fd5b50565b634e487b7160e01b600052604160045260246000fd5b604051601f8201601f191681016001600160401b0381118282101715611cc157611cc1611c83565b604052919050565b600082601f830112611cda57600080fd5b813560206001600160401b03821115611cf557611cf5611c83565b8160051b611d04828201611c99565b9283528481018201928281019087851115611d1e57600080fd5b83870192505b84831015611d3d57823582529183019190830190611d24565b979650505050505050565b60006001600160401b03821115611d6157611d61611c83565b50601f01601f191660200190565b600082601f830112611d8057600080fd5b8135611d93611d8e82611d48565b611c99565b818152846020838601011115611da857600080fd5b816020850160208301376000918101602001919091529392505050565b600080600080600060a08688031215611ddd57600080fd5b8535611de881611c6b565b94506020860135611df881611c6b565b935060408601356001600160401b0380821115611e1457600080fd5b611e2089838a01611cc9565b94506060880135915080821115611e3657600080fd5b611e4289838a01611cc9565b93506080880135915080821115611e5857600080fd5b50611e6588828901611d6f565b9150509295509295909350565b600080600080600060a08688031215611e8a57600080fd5b8535611e9581611c6b565b94506020860135611ea581611c6b565b9350604086013592506060860135915060808601356001600160401b03811115611ece57600080fd5b611e6588828901611d6f565b600060208284031215611eec57600080fd5b81356001600160401b03811115611f0257600080fd5b61149984828501611a20565b600060208284031215611f2057600080fd5b81356117bc81611c6b565b8015158114611c8057600080fd5b600060208284031215611f4b57600080fd5b81356117bc81611f2b565b600060208284031215611f6857600080fd5b5051919050565b6000808335601e19843603018112611f8657600080fd5b8301803591506001600160401b03821115611fa057600080fd5b602001915036819003821315611fb557600080fd5b9250929050565b60008060008060008060c08789031215611fd557600080fd5b8635611fe081611c6b565b95506020870135611ff081611c6b565b9450604087013561200081611c6b565b9350606087013561201081611f2b565b92506080870135915060a08701356001600160401b0381111561203257600080fd5b61203e89828a01611d6f565b9150509295509295509295565b634e487b7160e01b600052602160045260246000fd5b600281106120715761207161204b565b9052565b6020815281516020820152602082015160408201526000604083015160018060a01b038082166060850152806060860151166080850152505060808301516120c060a0840182612061565b5060a083015160c083015260c083015160e083015260e0830151610100808185015250611499610120840182611afd565b60006120ff611d8e84611d48565b905082815283838301111561211357600080fd5b6117bc836020830184611ad1565b600082601f83011261213257600080fd5b6117bc838351602085016120f1565b6000806000806080858703121561215757600080fd5b84519350602085015192506040850151915060608501516001600160401b0381111561218257600080fd5b61218e87828801612121565b91505092959194509250565b858152602081018590526001600160a01b038416604082015260a08101600384106121c7576121c761204b565b6060820193909352608001529392505050565b6001600160a01b038781168252861660208201528415156040820152606081018490526080810183905260c060a0820181905260009061221c90830184611afd565b98975050505050505050565b634e487b7160e01b600052601160045260246000fd5b6000821982111561225157612251612228565b500190565b60008282101561226857612268612228565b500390565b6020815281516020820152602082015160408201526000604083015160018060a01b038082166060850152806060860151166080850152505060808301516122b960a084018215159052565b5060a08301516122cc60c0840182612061565b5060c083015160e083015260e0830151610100808185015250611499610120840182611afd565b60008060006060848603121561230857600080fd5b835192506020840151915060408401516001600160401b0381111561232c57600080fd5b61233886828701612121565b9150509250925092565b60006020828403121561235457600080fd5b81516001600160401b0381111561236a57600080fd5b61149984828501612121565b60006020828403121561238857600080fd5b81516117bc81611c6b565b60018060a01b03851681528360208201528260408201526080606082015260006123c06080830184611afd565b9695505050505050565b6001600160a01b03878116825286811660208301528516604082015283151560608201526080810183905260c060a0820181905260009061221c90830184611afd565b634e487b7160e01b600052603260045260246000fd5b8183823760009101908152919050565b60006020828403121561244557600080fd5b81516001600160401b0381111561245b57600080fd5b8201601f8101841361246c57600080fd5b611499848251602084016120f1565b600060001982141561248f5761248f612228565b5060010190565b60008060008060008060c087890312156124af57600080fd5b86356124ba81611c6b565b955060208701356124ca81611c6b565b945060408701356124da81611f2b565b9350606087013592506080870135915060a08701356001600160401b0381111561203257600080fd5b600080600080600060a0868803121561251b57600080fd5b853561252681611c6b565b9450602086013561253681611f2b565b93506040860135925061254b60608701611a39565b915060808601356001600160401b03811115611ece57600080fd5b60408152825160408201526020830151606082015260018060a01b03604084015116608082015260006060840151600481106125a4576125a461204b565b8060a084015250608084015160c083015260a084015160c060e08401526125cf610100840182611afd565b9150506001600160601b03831660208301529392505050565b600080600080608085870312156125fe57600080fd5b845161260981611c6b565b80945050602085015192506040850151915060608501516001600160401b0381111561218257600080fd5b60018060a01b038616815284151560208201528360408201526001600160601b038316606082015260a060808201526000611d3d60a0830184611afd565b6020815261268c6020820183516001600160a01b03169052565b600060208301516126a860408401826001600160a01b03169052565b50604083015160608301526060830151608083015260808301516126d760a08401826001600160a01b03169052565b5060a08301516001600160a01b03811660c08401525060c08301516001600160a01b03811660e08401525060e083015161010083810191909152830151610120808401919091528301516101408084019190915283015161016080840152611499610180840182611afd565b634e487b7160e01b600052601260045260246000fd5b60008261276857612768612743565b500690565b805160208201516001600160e01b0319808216929190600483101561279c5780818460040360031b1b83161693505b505050919050565b6000806000606084860312156127b957600080fd5b83516127c481611c6b565b60208501519093506127d581611c6b565b60408501519092506127e681611f2b565b809150509250925092565b60008261280057612800612743565b50049056fea264697066735822122018268629a12c36856aa4cef0f63c300cd56eb04448e1a4ea38893e1bc8671cd064736f6c63430008080033",
  "linkReferences": {},
  "deployedLinkReferences": {}
}