{
  "_format": "hh-sol-artifact-1",
  "contractName": "TimeswapV2PeripheryUniswapV3CollectTransactionFees",
  "sourceName": "@timeswap-labs/v2-periphery-uniswapV3/contracts/TimeswapV2PeripheryUniswapV3CollectTransactionFees.sol",
  "abi": [
    {
      "inputs": [
        {
          "internalType": "address",
          "name": "chosenOptionFactory",
          "type": "address"
        },
        {
          "internalType": "address",
          "name": "chosenPoolFactory",
          "type": "address"
        },
        {
          "internalType": "address",
          "name": "chosenTokens",
          "type": "address"
        },
        {
          "internalType": "address",
          "name": "chosenLiquidityTokens",
          "type": "address"
        },
        {
          "internalType": "address",
          "name": "chosenUniswapV3Factory",
          "type": "address"
        },
        {
          "internalType": "address",
          "name": "chosenNative",
          "type": "address"
        }
      ],
      "stateMutability": "nonpayable",
      "type": "constructor"
    },
    {
      "inputs": [
        {
          "internalType": "uint256",
          "name": "addendA0",
          "type": "uint256"
        },
        {
          "internalType": "uint256",
          "name": "addendA1",
          "type": "uint256"
        },
        {
          "internalType": "uint256",
          "name": "addendB0",
          "type": "uint256"
        },
        {
          "internalType": "uint256",
          "name": "addendB1",
          "type": "uint256"
        }
      ],
      "name": "AddOverflow",
      "type": "error"
    },
    {
      "inputs": [
        {
          "internalType": "uint256",
          "name": "maturity",
          "type": "uint256"
        },
        {
          "internalType": "uint96",
          "name": "blockTimestamp",
          "type": "uint96"
        }
      ],
      "name": "AlreadyMatured",
      "type": "error"
    },
    {
      "inputs": [
        {
          "internalType": "address",
          "name": "from",
          "type": "address"
        }
      ],
      "name": "CallerNotWrappedNative",
      "type": "error"
    },
    {
      "inputs": [],
      "name": "CanOnlyBeCalledByTokensContract",
      "type": "error"
    },
    {
      "inputs": [],
      "name": "CanOnlyBeCalledByUniswapV3Contract",
      "type": "error"
    },
    {
      "inputs": [
        {
          "internalType": "uint256",
          "name": "deadline",
          "type": "uint256"
        }
      ],
      "name": "DeadlineReached",
      "type": "error"
    },
    {
      "inputs": [
        {
          "internalType": "uint256",
          "name": "dividend0",
          "type": "uint256"
        },
        {
          "internalType": "uint256",
          "name": "dividend1",
          "type": "uint256"
        },
        {
          "internalType": "uint256",
          "name": "divisor",
          "type": "uint256"
        }
      ],
      "name": "DivOverflow",
      "type": "error"
    },
    {
      "inputs": [],
      "name": "DivideByZero",
      "type": "error"
    },
    {
      "inputs": [
        {
          "internalType": "uint256",
          "name": "value",
          "type": "uint256"
        }
      ],
      "name": "InsufficientWrappedNative",
      "type": "error"
    },
    {
      "inputs": [
        {
          "internalType": "uint256",
          "name": "tokenAmount",
          "type": "uint256"
        },
        {
          "internalType": "uint256",
          "name": "minTokenAmount",
          "type": "uint256"
        }
      ],
      "name": "MinTokenReached",
      "type": "error"
    },
    {
      "inputs": [],
      "name": "ModuloByZero",
      "type": "error"
    },
    {
      "inputs": [
        {
          "internalType": "uint256",
          "name": "multiplicand",
          "type": "uint256"
        },
        {
          "internalType": "uint256",
          "name": "multiplier",
          "type": "uint256"
        },
        {
          "internalType": "uint256",
          "name": "divisor",
          "type": "uint256"
        }
      ],
      "name": "MulDivOverflow",
      "type": "error"
    },
    {
      "inputs": [
        {
          "internalType": "string",
          "name": "revertString",
          "type": "string"
        }
      ],
      "name": "MulticallFailed",
      "type": "error"
    },
    {
      "inputs": [
        {
          "internalType": "address",
          "name": "to",
          "type": "address"
        },
        {
          "internalType": "uint256",
          "name": "value",
          "type": "uint256"
        }
      ],
      "name": "NativeTransferFailed",
      "type": "error"
    },
    {
      "inputs": [
        {
          "internalType": "uint256",
          "name": "minuend",
          "type": "uint256"
        },
        {
          "internalType": "uint256",
          "name": "subtrahend",
          "type": "uint256"
        }
      ],
      "name": "NotEnoughReceived",
      "type": "error"
    },
    {
      "inputs": [
        {
          "internalType": "int256",
          "name": "amount0",
          "type": "int256"
        },
        {
          "internalType": "int256",
          "name": "amount1",
          "type": "int256"
        }
      ],
      "name": "PassCalculateInfo",
      "type": "error"
    },
    {
      "inputs": [],
      "name": "Uint160Overflow",
      "type": "error"
    },
    {
      "inputs": [],
      "name": "ZeroAddress",
      "type": "error"
    },
    {
      "inputs": [],
      "name": "ZeroPoolAddress",
      "type": "error"
    },
    {
      "anonymous": false,
      "inputs": [
        {
          "indexed": true,
          "internalType": "address",
          "name": "token0",
          "type": "address"
        },
        {
          "indexed": true,
          "internalType": "address",
          "name": "token1",
          "type": "address"
        },
        {
          "indexed": false,
          "internalType": "uint256",
          "name": "strike",
          "type": "uint256"
        },
        {
          "indexed": true,
          "internalType": "uint256",
          "name": "maturity",
          "type": "uint256"
        },
        {
          "indexed": false,
          "internalType": "uint24",
          "name": "uniswapV3Fee",
          "type": "uint24"
        },
        {
          "indexed": false,
          "internalType": "address",
          "name": "from",
          "type": "address"
        },
        {
          "indexed": false,
          "internalType": "address",
          "name": "to",
          "type": "address"
        },
        {
          "indexed": false,
          "internalType": "bool",
          "name": "isToken0",
          "type": "bool"
        },
        {
          "indexed": false,
          "internalType": "uint256",
          "name": "tokenAmount",
          "type": "uint256"
        },
        {
          "indexed": false,
          "internalType": "uint256",
          "name": "excessLong0Amount",
          "type": "uint256"
        },
        {
          "indexed": false,
          "internalType": "uint256",
          "name": "excessLong1Amount",
          "type": "uint256"
        },
        {
          "indexed": false,
          "internalType": "uint256",
          "name": "excessShortAmount",
          "type": "uint256"
        }
      ],
      "name": "CollectTransactionFees",
      "type": "event"
    },
    {
      "inputs": [
        {
          "components": [
            {
              "internalType": "address",
              "name": "token0",
              "type": "address"
            },
            {
              "internalType": "address",
              "name": "token1",
              "type": "address"
            },
            {
              "internalType": "uint256",
              "name": "strike",
              "type": "uint256"
            },
            {
              "internalType": "uint256",
              "name": "maturity",
              "type": "uint256"
            },
            {
              "internalType": "uint24",
              "name": "uniswapV3Fee",
              "type": "uint24"
            },
            {
              "internalType": "address",
              "name": "tokenTo",
              "type": "address"
            },
            {
              "internalType": "address",
              "name": "excessLong0To",
              "type": "address"
            },
            {
              "internalType": "address",
              "name": "excessLong1To",
              "type": "address"
            },
            {
              "internalType": "address",
              "name": "excessShortTo",
              "type": "address"
            },
            {
              "internalType": "bool",
              "name": "isToken0",
              "type": "bool"
            },
            {
              "internalType": "uint256",
              "name": "long0Requested",
              "type": "uint256"
            },
            {
              "internalType": "uint256",
              "name": "long1Requested",
              "type": "uint256"
            },
            {
              "internalType": "uint256",
              "name": "shortRequested",
              "type": "uint256"
            },
            {
              "internalType": "uint256",
              "name": "minTokenAmount",
              "type": "uint256"
            },
            {
              "internalType": "uint256",
              "name": "minExcessLong0Amount",
              "type": "uint256"
            },
            {
              "internalType": "uint256",
              "name": "minExcessLong1Amount",
              "type": "uint256"
            },
            {
              "internalType": "uint256",
              "name": "minExcessShortAmount",
              "type": "uint256"
            },
            {
              "internalType": "uint256",
              "name": "deadline",
              "type": "uint256"
            }
          ],
          "internalType": "struct TimeswapV2PeripheryUniswapV3CollectTransactionFeesParam",
          "name": "param",
          "type": "tuple"
        }
      ],
      "name": "collectTransactionFees",
      "outputs": [
        {
          "internalType": "uint256",
          "name": "tokenAmount",
          "type": "uint256"
        },
        {
          "internalType": "uint256",
          "name": "excessLong0Amount",
          "type": "uint256"
        },
        {
          "internalType": "uint256",
          "name": "excessLong1Amount",
          "type": "uint256"
        },
        {
          "internalType": "uint256",
          "name": "excessShortAmount",
          "type": "uint256"
        }
      ],
      "stateMutability": "nonpayable",
      "type": "function"
    },
    {
      "inputs": [],
      "name": "liquidityTokens",
      "outputs": [
        {
          "internalType": "address",
          "name": "",
          "type": "address"
        }
      ],
      "stateMutability": "view",
      "type": "function"
    },
    {
      "inputs": [
        {
          "internalType": "bytes[]",
          "name": "data",
          "type": "bytes[]"
        }
      ],
      "name": "multicall",
      "outputs": [
        {
          "internalType": "bytes[]",
          "name": "results",
          "type": "bytes[]"
        }
      ],
      "stateMutability": "payable",
      "type": "function"
    },
    {
      "inputs": [],
      "name": "optionFactory",
      "outputs": [
        {
          "internalType": "address",
          "name": "",
          "type": "address"
        }
      ],
      "stateMutability": "view",
      "type": "function"
    },
    {
      "inputs": [],
      "name": "poolFactory",
      "outputs": [
        {
          "internalType": "address",
          "name": "",
          "type": "address"
        }
      ],
      "stateMutability": "view",
      "type": "function"
    },
    {
      "inputs": [
        {
          "components": [
            {
              "internalType": "address",
              "name": "token0",
              "type": "address"
            },
            {
              "internalType": "address",
              "name": "token1",
              "type": "address"
            },
            {
              "internalType": "uint256",
              "name": "strike",
              "type": "uint256"
            },
            {
              "internalType": "uint256",
              "name": "maturity",
              "type": "uint256"
            },
            {
              "internalType": "uint256",
              "name": "long0Amount",
              "type": "uint256"
            },
            {
              "internalType": "uint256",
              "name": "long1Amount",
              "type": "uint256"
            },
            {
              "internalType": "uint256",
              "name": "shortAmount",
              "type": "uint256"
            },
            {
              "internalType": "bytes",
              "name": "data",
              "type": "bytes"
            }
          ],
          "internalType": "struct TimeswapV2TokenMintCallbackParam",
          "name": "param",
          "type": "tuple"
        }
      ],
      "name": "timeswapV2TokenMintCallback",
      "outputs": [
        {
          "internalType": "bytes",
          "name": "data",
          "type": "bytes"
        }
      ],
      "stateMutability": "nonpayable",
      "type": "function"
    },
    {
      "inputs": [],
      "name": "tokens",
      "outputs": [
        {
          "internalType": "address",
          "name": "",
          "type": "address"
        }
      ],
      "stateMutability": "view",
      "type": "function"
    },
    {
      "inputs": [],
      "name": "uniswapV3Factory",
      "outputs": [
        {
          "internalType": "address",
          "name": "",
          "type": "address"
        }
      ],
      "stateMutability": "view",
      "type": "function"
    },
    {
      "inputs": [
        {
          "internalType": "int256",
          "name": "amount0Delta",
          "type": "int256"
        },
        {
          "internalType": "int256",
          "name": "amount1Delta",
          "type": "int256"
        },
        {
          "internalType": "bytes",
          "name": "data",
          "type": "bytes"
        }
      ],
      "name": "uniswapV3SwapCallback",
      "outputs": [],
      "stateMutability": "nonpayable",
      "type": "function"
    },
    {
      "inputs": [
        {
          "internalType": "uint256",
          "name": "amountMinimum",
          "type": "uint256"
        },
        {
          "internalType": "address",
          "name": "recipient",
          "type": "address"
        }
      ],
      "name": "unwrapWrappedNatives",
      "outputs": [],
      "stateMutability": "payable",
      "type": "function"
    },
    {
      "inputs": [],
      "name": "wrappedNativeToken",
      "outputs": [
        {
          "internalType": "address",
          "name": "",
          "type": "address"
        }
      ],
      "stateMutability": "view",
      "type": "function"
    },
    {
      "stateMutability": "payable",
      "type": "receive"
    }
  ],
  "bytecode": "0x6101406040523480156200001257600080fd5b5060405162003d5438038062003d54833981016040819052620000359162000091565b6001600160601b0319606092831b811660805295821b861660a05293811b851660c05291821b841660e052811b8316610100521b166101205262000112565b80516001600160a01b03811681146200008c57600080fd5b919050565b60008060008060008060c08789031215620000ab57600080fd5b620000b68762000074565b9550620000c66020880162000074565b9450620000d66040880162000074565b9350620000e66060880162000074565b9250620000f66080880162000074565b91506200010660a0880162000074565b90509295509295509295565b60805160601c60a05160601c60c05160601c60e05160601c6101005160601c6101205160601c613b71620001e36000396000818160b00152818161010e015281816104b7015261057b015260008181610193015281816108ea01528181610a0c015261117b0152600081816101fb015281816105f501528181611516015261181601526000818161015f015261114701526000818161024f0152818161062001526111260152600081816101c70152818161082d015281816110940152818161199001526121b10152613b716000f3fe6080604052600436106100a05760003560e01c8063ac9650d811610064578063ac9650d81461021d578063b3461c871461023d578063b7f68a0e14610271578063e13c022c14610284578063fa461e33146102b1578063fca02445146102d157600080fd5b806317fcb39b146100fc5780634219dc401461014d5780634b8ce602146101815780635b549182146101b55780639d63848a146101e957600080fd5b366100f757336001600160a01b037f000000000000000000000000000000000000000000000000000000000000000016146100f55760405163631b2c4f60e11b81523360048201526024015b60405180910390fd5b005b600080fd5b34801561010857600080fd5b506101307f000000000000000000000000000000000000000000000000000000000000000081565b6040516001600160a01b0390911681526020015b60405180910390f35b34801561015957600080fd5b506101307f000000000000000000000000000000000000000000000000000000000000000081565b34801561018d57600080fd5b506101307f000000000000000000000000000000000000000000000000000000000000000081565b3480156101c157600080fd5b506101307f000000000000000000000000000000000000000000000000000000000000000081565b3480156101f557600080fd5b506101307f000000000000000000000000000000000000000000000000000000000000000081565b61023061022b366004612edd565b610311565b6040516101449190612fae565b34801561024957600080fd5b506101307f000000000000000000000000000000000000000000000000000000000000000081565b6100f561027f366004613025565b61049f565b34801561029057600080fd5b506102a461029f366004613055565b6105ee565b6040516101449190613091565b3480156102bd57600080fd5b506100f56102cc3660046130a4565b6107f0565b3480156102dd57600080fd5b506102f16102ec366004613124565b6108a3565b604080519485526020850193909352918301526060820152608001610144565b60608167ffffffffffffffff81111561032c5761032c61313d565b60405190808252806020026020018201604052801561035f57816020015b606081526020019060019003908161034a5790505b50905060005b82811015610498576000803086868581811061038357610383613153565b90506020028101906103959190613169565b6040516103a39291906131b7565b600060405180830381855af49150503d80600081146103de576040519150601f19603f3d011682016040523d82523d6000602084013e6103e3565b606091505b5091509150816104655760448151101561043157604051635d2f436f60e11b815260206004820152600e60248201526d125b9d985b1a590814995cdd5b1d60921b60448201526064016100ec565b6004810190508080602001905181019061044b9190613255565b604051635d2f436f60e11b81526004016100ec9190613091565b8084848151811061047857610478613153565b602002602001018190525050508080610490906132b4565b915050610365565b5092915050565b6040516370a0823160e01b81523060048201526000907f00000000000000000000000000000000000000000000000000000000000000006001600160a01b0316906370a082319060240160206040518083038186803b15801561050157600080fd5b505afa158015610515573d6000803e3d6000fd5b505050506040513d601f19601f8201168201806040525081019061053991906132cf565b90508281101561055f57604051636b8c4dab60e01b8152600481018290526024016100ec565b80156105e957604051632e1a7d4d60e01b8152600481018290527f00000000000000000000000000000000000000000000000000000000000000006001600160a01b031690632e1a7d4d90602401600060405180830381600087803b1580156105c757600080fd5b505af11580156105db573d6000803e3d6000fd5b505050506105e98282610e85565b505050565b60606106197f0000000000000000000000000000000000000000000000000000000000000000610f25565b60006106617f000000000000000000000000000000000000000000000000000000000000000061064c60208601866132e8565b61065c60408701602088016132e8565b610f51565b90506080830135156106e0576040805163b2ceca7760e01b81526001600160a01b0383169163b2ceca77916106ad9187013590606088013590339060009060808b01359060040161331b565b600060405180830381600087803b1580156106c757600080fd5b505af11580156106db573d6000803e3d6000fd5b505050505b60a08301351561075d576040805163b2ceca7760e01b81526001600160a01b0383169163b2ceca779161072a9187013590606088013590339060019060a08b01359060040161331b565b600060405180830381600087803b15801561074457600080fd5b505af1158015610758573d6000803e3d6000fd5b505050505b60c0830135156107da576040805163b2ceca7760e01b81526001600160a01b0383169163b2ceca77916107a79187013590606088013590339060029060c08b01359060040161331b565b600060405180830381600087803b1580156107c157600080fd5b505af11580156107d5573d6000803e3d6000fd5b505050505b5050604080516020810190915260008152919050565b6000806107ff83850185613369565b915091508115610890576000806000838060200190518101906108229190613408565b9250925092506108547f0000000000000000000000000000000000000000000000000000000000000000848484610fde565b6108883360008b136108665789610868565b8a5b60008c136108765784610878565b855b6001600160a01b0316919061101e565b50505061089b565b61089b868683611070565b505050505050565b6000806000804285610220013510156108c4576108c48561022001356110c5565b6108e860405180606001604052806000815260200160008152602001600081525090565b7f00000000000000000000000000000000000000000000000000000000000000006001600160a01b0316637facccee3360405180608001604052808a600001602081019061093691906132e8565b6001600160a01b031681526020018a602001602081019061095791906132e8565b6001600160a01b031681526020018a6040013581526020018a606001358152506040518363ffffffff1660e01b8152600401610994929190613455565b60606040518083038186803b1580156109ac57600080fd5b505afa1580156109c0573d6000803e3d6000fd5b505050506040513d601f19601f820116820180604052508101906109e4919061349e565b6040808501919091526020808501929092529183528151608081019092526001600160a01b037f000000000000000000000000000000000000000000000000000000000000000016916380f126e391339130918190610a45908d018d6132e8565b6001600160a01b031681526020018b6020016020810190610a6691906132e8565b6001600160a01b031681526040808d0135602083015260608d01359101528551610a96906101408d0135906110e1565b6020870151610aab906101608e0135906110e1565b6040880151610ac0906101808f0135906110e1565b6040518763ffffffff1660e01b8152600401610ae1969594939291906134cc565b600060405180830381600087803b158015610afb57600080fd5b505af1158015610b0f573d6000803e3d6000fd5b5060009250610b2791505060a088016080890161353c565b610b3961014089016101208a01613559565b6040805162ffffff90931660208401529015159082015260600160408051601f198184030181526101a0830190915291506000908190610cc19080610b8160208d018d6132e8565b6001600160a01b031681526020018b6020016020810190610ba291906132e8565b6001600160a01b031681526020018b6040013581526020018b6060013581526020018b610120016020810190610bd89190613559565b610be25730610bf2565b610bf260c08d0160a08e016132e8565b6001600160a01b03168152602001610c126101408d016101208e01613559565b610c2b57610c2660c08d0160a08e016132e8565b610c2d565b305b6001600160a01b03168152602001610c4b60e08d0160c08e016132e8565b6001600160a01b03168152602001610c6a6101008d0160e08e016132e8565b6001600160a01b03168152602001610c8a6101208d016101008e016132e8565b6001600160a01b031681526101408c013560208201526101608c013560408201526101808c013560608201526080018590526110fb565b929b50909950975094509092509050610d5e610ce060208b018b6132e8565b610cf060408c0160208d016132e8565b60408c0135610d0560a08e0160808f0161353c565b8d60a0016020810190610d1891906132e8565b8e610120016020810190610d2c9190613559565b88888f158015610d3a57508e155b610d57578b806020019051810190610d529190613576565b611966565b6000611966565b975050505050846101a00135841015610d98576040516312bc00e560e11b8152600481018590526101a086013560248201526044016100ec565b6060850135610dad60408701602088016132e8565b6001600160a01b0316610dc360208801886132e8565b6001600160a01b03167fb924525bd1a8b6b787aa3e24d0a65fcc33d15360a1a0fdef2bffe91b893b4ff46040890135610e0260a08b0160808c0161353c565b33610e1360c08d0160a08e016132e8565b610e256101408e016101208f01613559565b6040805195865262ffffff9490941660208601526001600160a01b0392831685850152911660608401521515608083015260a082018a905260c0820189905260e08201889052610100820187905251908190036101200190a49193509193565b604080516000808252602082019092526001600160a01b038416908390604051610eaf9190613593565b60006040518083038185875af1925050503d8060008114610eec576040519150601f19603f3d011682016040523d82523d6000602084013e610ef1565b606091505b50509050806105e95760405163296c17bb60e21b81526001600160a01b0384166004820152602481018390526044016100ec565b6001600160a01b0381163314610f4e5760405163d2bc8fc960e01b815260040160405180910390fd5b50565b60405163d81e842360e01b81526001600160a01b03838116600483015282811660248301526000919085169063d81e84239060440160206040518083038186803b158015610f9e57600080fd5b505afa158015610fb2573d6000803e3d6000fd5b505050506040513d601f19601f82011682018060405250810190610fd691906135af565b949350505050565b6000610fec85858585611a8a565b90506001600160a01b0381163314611017576040516307c1698f60e01b815260040160405180910390fd5b5050505050565b604080516001600160a01b038416602482015260448082018490528251808303909101815260649091019091526020810180516001600160e01b031663a9059cbb60e01b1790526105e9908490611b16565b6000806000838060200190518101906110899190613408565b9250925092506110bb7f0000000000000000000000000000000000000000000000000000000000000000848484610fde565b61089b8686611be8565b60405163070b57d960e41b8152600481018290526024016100ec565b60008183106110f057816110f2565b825b90505b92915050565b600080600080600060604287606001511161111e5761111e876060015142611c0b565b6000806111757f00000000000000000000000000000000000000000000000000000000000000007f00000000000000000000000000000000000000000000000000000000000000008b600001518c60200151611c3b565b915091507f00000000000000000000000000000000000000000000000000000000000000006001600160a01b0316636ad0cef86040518061012001604052808c600001516001600160a01b031681526020018c602001516001600160a01b031681526020018c6040015181526020018c606001518152602001306001600160a01b031681526020018c610120015181526020018c610140015181526020018c61016001518152602001604051806020016040528060008152508152506040518263ffffffff1660e01b815260040161124d91906135cc565b600060405180830381600087803b15801561126757600080fd5b505af115801561127b573d6000803e3d6000fd5b505050506040513d6000823e601f3d908101601f191682016040526112a39190810190613691565b505060408051610100810182528c82015181526060808e015160208301523082840181905290820181905260808201526101208d015160a08201526101408d015160c08201526101608d015160e082015290516303182c1760e11b8152600093506001600160a01b0385169250630630582e91611386916004016000610100820190508251825260208301516020830152604083015160018060a01b038082166040850152806060860151166060850152806080860151166080850152505060a083015160a083015260c083015160c083015260e083015160e083015292915050565b606060405180830381600087803b1580156113a057600080fd5b505af11580156113b4573d6000803e3d6000fd5b505050506040513d601f19601f820116820180604052508101906113d8919061349e565b809350819a50829b5050505060006113f78a8a8d604001516001611cf0565b905080821061166357801561150957836001600160a01b031663622fb68f6040518061010001604052808e6040015181526020018e6060015181526020018e608001516001600160a01b031681526020018e60a001516001600160a01b031681526020016000600181111561146e5761146e613305565b81526020018d81526020018c8152602001604051806020016040528060008152508152506040518263ffffffff1660e01b81526004016114ae91906136ff565b600060405180830381600087803b1580156114c857600080fd5b505af11580156114dc573d6000803e3d6000fd5b505050506040513d6000823e601f3d908101601f191682016040526115049190810190613691565b505050505b80820395508515611656577f00000000000000000000000000000000000000000000000000000000000000006001600160a01b0316634fd991ea6040518061016001604052808e600001516001600160a01b031681526020018e602001516001600160a01b031681526020018e6040015181526020018e606001518152602001306001600160a01b03168152602001306001600160a01b031681526020018e61010001516001600160a01b031681526020016000815260200160008152602001898152602001604051806020016040528060008152508152506040518263ffffffff1660e01b81526004016115fe919061377b565b600060405180830381600087803b15801561161857600080fd5b505af115801561162c573d6000803e3d6000fd5b505050506040513d6000823e601f3d908101601f19168201604052611654919081019061384c565b505b8a61018001519450611959565b8997508896506116d26040518061010001604052808d600001516001600160a01b031681526020018d602001516001600160a01b031681526020018d6040015181526020018d6060015181526020018c81526020018b81526020018481526020018d6101800151815250611d33565b919b509950945060008a158015906116e957508915155b156117f257846001600160a01b031663622fb68f6040518061010001604052808f6040015181526020018f6060015181526020018f608001516001600160a01b031681526020018f60a001516001600160a01b031681526020016000600181111561175657611756613305565b81526020018e81526020018d8152602001604051806020016040528060008152508152506040518263ffffffff1660e01b815260040161179691906136ff565b600060405180830381600087803b1580156117b057600080fd5b505af11580156117c4573d6000803e3d6000fd5b505050506040513d6000823e601f3d908101601f191682016040526117ec9190810190613691565b50925050505b6117fc8184611dfd565b6118068b8a613881565b98506118128a89613881565b97507f00000000000000000000000000000000000000000000000000000000000000006001600160a01b0316634fd991ea6040518061016001604052808f600001516001600160a01b031681526020018f602001516001600160a01b031681526020018f6040015181526020018f6060015181526020018f60c001516001600160a01b031681526020018f60e001516001600160a01b03168152602001306001600160a01b031681526020018c81526020018b815260200160008152602001604051806020016040528060008152508152506040518263ffffffff1660e01b8152600401611900919061377b565b600060405180830381600087803b15801561191a57600080fd5b505af115801561192e573d6000803e3d6000fd5b505050506040513d6000823e601f3d908101601f19168201604052611956919081019061384c565b50505b5050505091939550919395565b6000846119735782611975565b835b9050846119825783611984565b825b15611a7d5760006119b77f00000000000000000000000000000000000000000000000000000000000000008c8c8b611e2c565b905060008b8b8a6040516020016119d093929190613898565b60405160208183030381529060405290506001816040516020016119f59291906138c0565b60408051601f1981840301815260c0830182526001600160a01b038b168352891560208401526001918301919091529150600090611a6990606081018a611a3c5789611a3e565b885b815260200187611a4e578d611a51565b60005b81526020018490526001600160a01b03851690611e4e565b9150611a77905081856138db565b93505050505b9998505050505050505050565b604051630b4c774160e11b81526000906001600160a01b03861690631698ee8290611abd90879087908790600401613898565b60206040518083038186803b158015611ad557600080fd5b505afa158015611ae9573d6000803e3d6000fd5b505050506040513d601f19601f82011682018060405250810190611b0d91906135af565b95945050505050565b6000611b6b826040518060400160405280602081526020017f5361666545524332303a206c6f772d6c6576656c2063616c6c206661696c6564815250856001600160a01b03166120ce9092919063ffffffff16565b8051909150156105e95780806020019051810190611b899190613576565b6105e95760405162461bcd60e51b815260206004820152602a60248201527f5361666545524332303a204552433230206f7065726174696f6e20646964206e6044820152691bdd081cdd58d8d9595960b21b60648201526084016100ec565b6040516377760aaf60e11b815260048101839052602481018290526044016100ec565b60405163647284e960e11b8152600481018390526bffffffffffffffffffffffff821660248201526044016100ec565b600080611c526001600160a01b03871685856120e4565b6040516330af0bbf60e21b81526001600160a01b0380831660048301529193509086169063c2bc2efc9060240160206040518083038186803b158015611c9757600080fd5b505afa158015611cab573d6000803e3d6000fd5b505050506040513d601f19601f82011682018060405250810190611ccf91906135af565b90506001600160a01b038116611ce757611ce7612105565b94509492505050565b60006001600160801b038311611d1c57611d0d858460018561211e565b611d1790856138db565b611b0d565b611d29848460008561211e565b611b0d90866138db565b60008060606000808560e00151806020019051810190611d5391906138f3565b915091506000611dcc60405180610100016040528089600001516001600160a01b0316815260200189602001516001600160a01b03168152602001896040015181526020018562ffffff1681526020018415158152602001896080015181526020018960a0015181526020018960c00151815250612145565b6040805184151560208201529299509097509192500160405160208183030381529060405293505050509193909250565b80821015611e2857604051631c22ff0160e21b815260048101839052602481018290526044016100ec565b5050565b6000611e3a85858585611a8a565b9050610fd6816001600160a01b0316612339565b6000806000846001600160a01b0316633850c7bd6040518163ffffffff1660e01b815260040160e06040518083038186803b158015611e8c57600080fd5b505afa158015611ea0573d6000803e3d6000fd5b505050506040513d601f19601f82011682018060405250810190611ec49190613939565b50505050505090506000846080015160001415611f18578460200151611f0857611f03600173fffd8963efd1fc6a506488495d951d5263988d266139d8565b611f25565b611f036401000276a36001613a00565b611f258560800151612360565b90506401000276a36001600160a01b03821611611f4f57611f4c6401000276a36001613a00565b90505b73fffd8963efd1fc6a506488495d951d5263988d266001600160a01b03821610611f9557611f92600173fffd8963efd1fc6a506488495d951d5263988d266139d8565b90505b8460200151611fb857806001600160a01b0316826001600160a01b031610611fce565b806001600160a01b0316826001600160a01b0316115b156120c557600080876001600160a01b031663128acb08886000015189602001518a60400151612013576120058b606001516123b0565b61200e90613a2b565b612020565b6120208b606001516123b0565b878c60a001516040518663ffffffff1660e01b8152600401612046959493929190613a48565b6040805180830381600087803b15801561205f57600080fd5b505af1158015612073573d6000803e3d6000fd5b505050506040513d601f19601f820116820180604052508101906120979190613a83565b9150915086602001516120b357806120ae83613a2b565b6120bd565b816120bd82613a2b565b909650945050505b50509250929050565b6060610fd684846000856123c6565b9392505050565b60006120f1848484610f51565b90506001600160a01b0381166120dd576120dd5b60405163d92e233d60e01b815260040160405180910390fd5b60008261213557611d1785600160801b86856124f7565b611b0d8585600160801b856124f7565b6000806000806121878560800151612161578560c00151612167565b8560a001515b6121818760e00151886040015189608001511560006125f3565b906110e1565b9050600080866080015161219f578660a001516121a5565b8660c001515b156123075760006121e47f000000000000000000000000000000000000000000000000000000000000000089600001518a602001518b60600151611e2c565b9050600061221d89608001516121fe578960a00151612204565b8960c001515b6121818b60e001518c604001518d6080015160006125f3565b89516020808c015160608d015160405194955060009461223e949301613898565b60405160208183030381529060405290506000816040516020016122639291906138c0565b60408051601f1981840301815260a0830182526080808e015115845260016020850152838301869052918d0151606084015290820181905291506122b1906001600160a01b03851690612633565b508095505050506122d38860e00151848a604001518b608001511560006128c6565b91508382111561230157600196508391506122fe8860e00151838a604001518b6080015160006128c6565b92505b5061230a565b50815b8660800151612319578161231b565b805b9450866080015161232c578061232e565b815b959794965050505050565b6001600160a01b038116610f4e5760405163037064f160e01b815260040160405180910390fd5b60006001600160c01b038211612387576110f5612382604084901b6000612941565b6129bf565b60008061239d84680100000000000000006129e9565b91509150610fd661238283836000612a08565b6000600160ff1b82106123c257600080fd5b5090565b6060824710156124275760405162461bcd60e51b815260206004820152602660248201527f416464726573733a20696e73756666696369656e742062616c616e636520666f6044820152651c8818d85b1b60d21b60648201526084016100ec565b6001600160a01b0385163b61247e5760405162461bcd60e51b815260206004820152601d60248201527f416464726573733a2063616c6c20746f206e6f6e2d636f6e747261637400000060448201526064016100ec565b600080866001600160a01b0316858760405161249a9190613593565b60006040518083038185875af1925050503d80600081146124d7576040519150601f19603f3d011682016040523d82523d6000602084013e6124dc565b606091505b50915091506124ec828286612a96565b979650505050505050565b600080600061250687876129e9565b9150915080600014156125275761251e828686612acf565b92505050610fd6565b8085116125585760405163362ced0960e11b81526004810188905260248101879052604481018690526064016100ec565b600085878909600087810388169788900497600260038a028118808b02820302808b02820302808b02820302808b02820302808b02820302808b029091030291819003819004600101868411909503948502929095039490940417928302935084905080156125d6575084806125d0576125d0613aa7565b86880915155b156125e957826125e5816132b4565b9350505b5050949350505050565b60006001600160801b03841161261b578261261557611d17858560008561211e565b84611b0d565b826126265784611b0d565b611b0d858560018561211e565b6000806000846001600160a01b0316633850c7bd6040518163ffffffff1660e01b815260040160e06040518083038186803b15801561267157600080fd5b505afa158015612685573d6000803e3d6000fd5b505050506040513d601f19601f820116820180604052508101906126a99190613939565b505050505050905060008460600151600014156126fa5784516126ea576126e5600173fffd8963efd1fc6a506488495d951d5263988d266139d8565b612707565b6126e56401000276a36001613a00565b6127078560600151612360565b90506401000276a36001600160a01b038216116127315761272e6401000276a36001613a00565b90505b73fffd8963efd1fc6a506488495d951d5263988d266001600160a01b0382161061277757612774600173fffd8963efd1fc6a506488495d951d5263988d266139d8565b90505b845161279757816001600160a01b0316816001600160a01b0316116127ad565b816001600160a01b0316816001600160a01b0316105b156120c557600080876001600160a01b031663128acb083089600001518a602001516127ee576127e08b604001516123b0565b6127e990613a2b565b6127fb565b6127fb8b604001516123b0565b878c608001516040518663ffffffff1660e01b8152600401612821959493929190613a48565b6040805180830381600087803b15801561283a57600080fd5b505af192505050801561286a575060408051601f3d908101601f1916820190925261286791810190613a83565b60015b6128b3573d808015612898576040519150601f19603f3d011682016040523d82523d6000602084013e61289d565b606091505b506128a781612b01565b90935091506128b69050565b50505b86516120b357806120ae83613a2b565b60006001600160801b03841161290e57826128f6576128f16128e88688613881565b8560008561211e565b612937565b61290485856001851561211e565b6128f19087613881565b826129215761290485856000851561211e565b61293761292e8688613881565b8560018561211e565b9695505050505050565b600060001983141561295b57506001600160801b036110f5565b82612968575060006110f5565b50816001818101901c5b8181101561299a5780915060018182868161298f5761298f613aa7565b0401901c9050612972565b508180156129b05750826129ae8280613abd565b105b156110f55780610fd6816132b4565b60006001600160a01b038211156123c257604051630ba006e160e41b815260040160405180910390fd5b6000806000198385098385029250828110838203039150509250929050565b600082612a2057612a198483612941565b90506120dd565b6000612a2f8585600019612b31565b905060001991505b81811015612a5457809150612a4d858583612b31565b9050612a37565b8215612a8e57600080612a6784856129e9565b9150915080861180612a7857508187115b15612a8b5783612a87816132b4565b9450505b50505b509392505050565b60608315612aa55750816120dd565b825115612ab55782518084602001fd5b8160405162461bcd60e51b81526004016100ec9190613091565b6000612adb8385613adc565b9050818015612af25750612aef8385613af0565b15155b156120dd5780611b0d816132b4565b600080612b15836377760aaf60e11b612b66565b806020019051810190612b289190613a83565b91509150915091565b600080612b418585856000612bd4565b90506000612b53826000866000612c5a565b9092509050612937828260026000612bd4565b81516060906020612b78600483613881565b612b829190613af0565b158015612baa57506001600160e01b03198316612b9e85613b04565b6001600160e01b031916145b15612bcc57612bc4846004612bbf8185613881565b612ccb565b9150506110f5565b835184602001fd5b600080612be2868686612dd7565b90925090508015612c1757604051636aa917ab60e01b81526004810187905260248101869052604481018590526064016100ec565b8215612c5157600080612c2a84876129e9565b9150915080871180612c3b57508188115b15612c4e5783612c4a816132b4565b9450505b50505b50949350505050565b8184018481108285018101908015612c8757811580612c825750612c7f600183613881565b86115b612c8b565b8186115b15612cc1576040516347b1893f60e01b8152600481018890526024810187905260448101869052606481018590526084016100ec565b5094509492505050565b606081612cd981601f6138db565b1015612d185760405162461bcd60e51b815260206004820152600e60248201526d736c6963655f6f766572666c6f7760901b60448201526064016100ec565b612d2282846138db565b84511015612d665760405162461bcd60e51b8152602060048201526011602482015270736c6963655f6f75744f66426f756e647360781b60448201526064016100ec565b606082158015612d855760405191506000825260208201604052612c51565b6040519150601f8416801560200281840101858101878315602002848b0101015b81831015612dbe578051835260209283019201612da6565b5050858452601f01601f19166040525050949350505050565b60008083612df257612deb85846000612acf565b9150612e7e565b6000612dfd84612e86565b90506000612e0a85612eb3565b90505b8515612e5e57600080612e2088856129e9565b91509150612e3086868484612c5a565b9096509450612e3f88846129e9565b9092509050612e5182828b6000612c5a565b9099509750612e0d915050565b612e768484612e6f8a896000612acf565b6000612c5a565b909450925050505b935093915050565b600081612ea6576040516301de42a960e41b815260040160405180910390fd5b5060008190030460010190565b600081612ed3576040516319dbad9f60e01b815260040160405180910390fd5b5060008190030690565b60008060208385031215612ef057600080fd5b823567ffffffffffffffff80821115612f0857600080fd5b818501915085601f830112612f1c57600080fd5b813581811115612f2b57600080fd5b8660208260051b8501011115612f4057600080fd5b60209290920196919550909350505050565b60005b83811015612f6d578181015183820152602001612f55565b83811115612f7c576000848401525b50505050565b60008151808452612f9a816020860160208601612f52565b601f01601f19169290920160200192915050565b6000602080830181845280855180835260408601915060408160051b870101925083870160005b8281101561300357603f19888603018452612ff1858351612f82565b94509285019290850190600101612fd5565b5092979650505050505050565b6001600160a01b0381168114610f4e57600080fd5b6000806040838503121561303857600080fd5b82359150602083013561304a81613010565b809150509250929050565b60006020828403121561306757600080fd5b813567ffffffffffffffff81111561307e57600080fd5b820161010081850312156120dd57600080fd5b6020815260006110f26020830184612f82565b600080600080606085870312156130ba57600080fd5b8435935060208501359250604085013567ffffffffffffffff808211156130e057600080fd5b818701915087601f8301126130f457600080fd5b81358181111561310357600080fd5b88602082850101111561311557600080fd5b95989497505060200194505050565b6000610240828403121561313757600080fd5b50919050565b634e487b7160e01b600052604160045260246000fd5b634e487b7160e01b600052603260045260246000fd5b6000808335601e1984360301811261318057600080fd5b83018035915067ffffffffffffffff82111561319b57600080fd5b6020019150368190038213156131b057600080fd5b9250929050565b8183823760009101908152919050565b604051601f8201601f1916810167ffffffffffffffff811182821017156131f0576131f061313d565b604052919050565b600067ffffffffffffffff8211156132125761321261313d565b50601f01601f191660200190565b600061323361322e846131f8565b6131c7565b905082815283838301111561324757600080fd5b6120dd836020830184612f52565b60006020828403121561326757600080fd5b815167ffffffffffffffff81111561327e57600080fd5b8201601f8101841361328f57600080fd5b610fd684825160208401613220565b634e487b7160e01b600052601160045260246000fd5b60006000198214156132c8576132c861329e565b5060010190565b6000602082840312156132e157600080fd5b5051919050565b6000602082840312156132fa57600080fd5b81356120dd81613010565b634e487b7160e01b600052602160045260246000fd5b858152602081018590526001600160a01b038416604082015260a081016003841061334857613348613305565b6060820193909352608001529392505050565b8015158114610f4e57600080fd5b6000806040838503121561337c57600080fd5b82356133878161335b565b9150602083013567ffffffffffffffff8111156133a357600080fd5b8301601f810185136133b457600080fd5b80356133c261322e826131f8565b8181528660208385010111156133d757600080fd5b816020840160208301376000602083830101528093505050509250929050565b62ffffff81168114610f4e57600080fd5b60008060006060848603121561341d57600080fd5b835161342881613010565b602085015190935061343981613010565b604085015190925061344a816133f7565b809150509250925092565b6001600160a01b038316815260a081016120dd602083018480516001600160a01b0390811683526020808301519091169083015260408082015190830152606090810151910152565b6000806000606084860312156134b357600080fd5b8351925060208401519150604084015190509250925092565b6001600160a01b03878116825286166020820152610120810161351e604083018780516001600160a01b0390811683526020808301519091169083015260408082015190830152606090810151910152565b8460c08301528360e083015282610100830152979650505050505050565b60006020828403121561354e57600080fd5b81356120dd816133f7565b60006020828403121561356b57600080fd5b81356120dd8161335b565b60006020828403121561358857600080fd5b81516120dd8161335b565b600082516135a5818460208701612f52565b9190910192915050565b6000602082840312156135c157600080fd5b81516120dd81613010565b602081526135e66020820183516001600160a01b03169052565b6000602083015161360260408401826001600160a01b03169052565b506040830151606083015260608301516080830152608083015161363160a08401826001600160a01b03169052565b5060a083015160c083015260c083015160e083015260e0830151610100818185015280850151915050610120808185015250610fd6610140840182612f82565b600082601f83011261368257600080fd5b6110f283835160208501613220565b600080600080608085870312156136a757600080fd5b845193506020850151925060408501519150606085015167ffffffffffffffff8111156136d357600080fd5b6136df87828801613671565b91505092959194509250565b600281106136fb576136fb613305565b9052565b6020815281516020820152602082015160408201526000604083015160018060a01b0380821660608501528060608601511660808501525050608083015161374a60a08401826136eb565b5060a083015160c083015260c083015160e083015260e0830151610100808185015250610fd6610120840182612f82565b602081526137956020820183516001600160a01b03169052565b600060208301516137b160408401826001600160a01b03169052565b50604083015160608301526060830151608083015260808301516137e060a08401826001600160a01b03169052565b5060a08301516001600160a01b03811660c08401525060c08301516001600160a01b03811660e08401525060e083015161010083810191909152830151610120808401919091528301516101408084019190915283015161016080840152610fd6610180840182612f82565b60006020828403121561385e57600080fd5b815167ffffffffffffffff81111561387557600080fd5b610fd684828501613671565b6000828210156138935761389361329e565b500390565b6001600160a01b03938416815291909216602082015262ffffff909116604082015260600190565b8215158152604060208201526000610fd66040830184612f82565b600082198211156138ee576138ee61329e565b500190565b6000806040838503121561390657600080fd5b8251613911816133f7565b602084015190925061304a8161335b565b805161ffff8116811461393457600080fd5b919050565b600080600080600080600060e0888a03121561395457600080fd5b875161395f81613010565b8097505060208801518060020b811461397757600080fd5b955061398560408901613922565b945061399360608901613922565b93506139a160808901613922565b925060a088015160ff811681146139b757600080fd5b60c08901519092506139c88161335b565b8091505092959891949750929550565b60006001600160a01b03838116908316818110156139f8576139f861329e565b039392505050565b60006001600160a01b03828116848216808303821115613a2257613a2261329e565b01949350505050565b6000600160ff1b821415613a4157613a4161329e565b5060000390565b6001600160a01b0386811682528515156020830152604082018590528316606082015260a0608082018190526000906124ec90830184612f82565b60008060408385031215613a9657600080fd5b505080516020909101519092909150565b634e487b7160e01b600052601260045260246000fd5b6000816000190483118215151615613ad757613ad761329e565b500290565b600082613aeb57613aeb613aa7565b500490565b600082613aff57613aff613aa7565b500690565b805160208201516001600160e01b03198082169291906004831015613b335780818460040360031b1b83161693505b50505091905056fea26469706673582212209ef0585f858830845dba26883aff6fd5b00b51640ade77f70d3bab0075424f0964736f6c63430008080033",
  "linkReferences": {},
  "deployedLinkReferences": {}
}