{
  "_format": "hh-sol-artifact-1",
  "contractName": "TimeswapV2PeripheryNoDexQuoterWithdraw",
  "sourceName": "@timeswap-labs/v2-periphery-nodex/src/lens/TimeswapV2PeripheryNoDexQuoterWithdraw.sol",
  "abi": [
    {
      "inputs": [
        {
          "internalType": "address",
          "name": "chosenOptionFactory",
          "type": "address"
        },
        {
          "internalType": "address",
          "name": "chosenTokens",
          "type": "address"
        }
      ],
      "stateMutability": "nonpayable",
      "type": "constructor"
    },
    {
      "inputs": [
        {
          "internalType": "uint256",
          "name": "tokenAmount",
          "type": "uint256"
        },
        {
          "internalType": "uint256",
          "name": "minTokenAmount",
          "type": "uint256"
        }
      ],
      "name": "MinTokenReached",
      "type": "error"
    },
    {
      "inputs": [
        {
          "internalType": "string",
          "name": "revertString",
          "type": "string"
        }
      ],
      "name": "MulticallFailed",
      "type": "error"
    },
    {
      "inputs": [
        {
          "internalType": "uint256",
          "name": "token0Amount",
          "type": "uint256"
        },
        {
          "internalType": "uint256",
          "name": "token1Amount",
          "type": "uint256"
        }
      ],
      "name": "PassTokenBurnCallbackInfo",
      "type": "error"
    },
    {
      "inputs": [],
      "name": "ZeroAddress",
      "type": "error"
    },
    {
      "inputs": [
        {
          "internalType": "bytes[]",
          "name": "data",
          "type": "bytes[]"
        }
      ],
      "name": "multicall",
      "outputs": [
        {
          "internalType": "bytes[]",
          "name": "results",
          "type": "bytes[]"
        }
      ],
      "stateMutability": "payable",
      "type": "function"
    },
    {
      "inputs": [
        {
          "internalType": "address",
          "name": "",
          "type": "address"
        },
        {
          "internalType": "address",
          "name": "",
          "type": "address"
        },
        {
          "internalType": "uint256[]",
          "name": "",
          "type": "uint256[]"
        },
        {
          "internalType": "uint256[]",
          "name": "",
          "type": "uint256[]"
        },
        {
          "internalType": "bytes",
          "name": "",
          "type": "bytes"
        }
      ],
      "name": "onERC1155BatchReceived",
      "outputs": [
        {
          "internalType": "bytes4",
          "name": "",
          "type": "bytes4"
        }
      ],
      "stateMutability": "pure",
      "type": "function"
    },
    {
      "inputs": [
        {
          "internalType": "address",
          "name": "operator",
          "type": "address"
        },
        {
          "internalType": "address",
          "name": "",
          "type": "address"
        },
        {
          "internalType": "uint256",
          "name": "",
          "type": "uint256"
        },
        {
          "internalType": "uint256",
          "name": "",
          "type": "uint256"
        },
        {
          "internalType": "bytes",
          "name": "",
          "type": "bytes"
        }
      ],
      "name": "onERC1155Received",
      "outputs": [
        {
          "internalType": "bytes4",
          "name": "",
          "type": "bytes4"
        }
      ],
      "stateMutability": "view",
      "type": "function"
    },
    {
      "inputs": [],
      "name": "optionFactory",
      "outputs": [
        {
          "internalType": "address",
          "name": "",
          "type": "address"
        }
      ],
      "stateMutability": "view",
      "type": "function"
    },
    {
      "inputs": [
        {
          "internalType": "bytes4",
          "name": "interfaceId",
          "type": "bytes4"
        }
      ],
      "name": "supportsInterface",
      "outputs": [
        {
          "internalType": "bool",
          "name": "",
          "type": "bool"
        }
      ],
      "stateMutability": "view",
      "type": "function"
    },
    {
      "inputs": [
        {
          "components": [
            {
              "internalType": "address",
              "name": "token0",
              "type": "address"
            },
            {
              "internalType": "address",
              "name": "token1",
              "type": "address"
            },
            {
              "internalType": "uint256",
              "name": "strike",
              "type": "uint256"
            },
            {
              "internalType": "uint256",
              "name": "maturity",
              "type": "uint256"
            },
            {
              "internalType": "uint256",
              "name": "long0Amount",
              "type": "uint256"
            },
            {
              "internalType": "uint256",
              "name": "long1Amount",
              "type": "uint256"
            },
            {
              "internalType": "uint256",
              "name": "shortAmount",
              "type": "uint256"
            },
            {
              "internalType": "bytes",
              "name": "data",
              "type": "bytes"
            }
          ],
          "internalType": "struct TimeswapV2TokenBurnCallbackParam",
          "name": "param",
          "type": "tuple"
        }
      ],
      "name": "timeswapV2TokenBurnCallback",
      "outputs": [
        {
          "internalType": "bytes",
          "name": "data",
          "type": "bytes"
        }
      ],
      "stateMutability": "nonpayable",
      "type": "function"
    },
    {
      "inputs": [],
      "name": "tokens",
      "outputs": [
        {
          "internalType": "address",
          "name": "",
          "type": "address"
        }
      ],
      "stateMutability": "view",
      "type": "function"
    },
    {
      "inputs": [
        {
          "components": [
            {
              "internalType": "address",
              "name": "token0",
              "type": "address"
            },
            {
              "internalType": "address",
              "name": "token1",
              "type": "address"
            },
            {
              "internalType": "uint256",
              "name": "strike",
              "type": "uint256"
            },
            {
              "internalType": "uint256",
              "name": "maturity",
              "type": "uint256"
            },
            {
              "internalType": "address",
              "name": "to",
              "type": "address"
            },
            {
              "internalType": "bool",
              "name": "isToken0",
              "type": "bool"
            },
            {
              "internalType": "uint256",
              "name": "positionAmount",
              "type": "uint256"
            }
          ],
          "internalType": "struct TimeswapV2PeripheryNoDexQuoterWithdrawParam",
          "name": "param",
          "type": "tuple"
        }
      ],
      "name": "withdraw",
      "outputs": [
        {
          "internalType": "uint256",
          "name": "token0Amount",
          "type": "uint256"
        },
        {
          "internalType": "uint256",
          "name": "token1Amount",
          "type": "uint256"
        }
      ],
      "stateMutability": "nonpayable",
      "type": "function"
    }
  ],
  "bytecode": "0x60c060405234801561001057600080fd5b5060405161141238038061141283398101604081905261002f91610069565b6001600160601b0319606092831b8116608052911b1660a05261009c565b80516001600160a01b038116811461006457600080fd5b919050565b6000806040838503121561007c57600080fd5b6100858361004d565b91506100936020840161004d565b90509250929050565b60805160601c60a05160601c61133e6100d46000396000818160c7015261075a015260008181610133015261043c015261133e6000f3fe60806040526004361061007b5760003560e01c8063bc197c811161004e578063bc197c8114610155578063f23a6e611461018e578063fb05b8fe146101ae578063fd09adef146101db57600080fd5b806301ffc9a7146100805780639d63848a146100b5578063ac9650d814610101578063b3461c8714610121575b600080fd5b34801561008c57600080fd5b506100a061009b366004610a6f565b610210565b60405190151581526020015b60405180910390f35b3480156100c157600080fd5b506100e97f000000000000000000000000000000000000000000000000000000000000000081565b6040516001600160a01b0390911681526020016100ac565b61011461010f366004610a99565b610247565b6040516100ac9190610b6a565b34801561012d57600080fd5b506100e97f000000000000000000000000000000000000000000000000000000000000000081565b34801561016157600080fd5b50610175610170366004610d29565b6103da565b6040516001600160e01b031990911681526020016100ac565b34801561019a57600080fd5b506101756101a9366004610dd7565b6103e6565b3480156101ba57600080fd5b506101ce6101c9366004610e40565b61040e565b6040516100ac9190610e7c565b3480156101e757600080fd5b506101fb6101f6366004610e8f565b6105ab565b604080519283526020830191909152016100ac565b60006001600160e01b03198216630271189760e51b148061024157506301ffc9a760e01b6001600160e01b03198316145b92915050565b60608167ffffffffffffffff81111561026257610262610be4565b60405190808252806020026020018201604052801561029557816020015b60608152602001906001900390816102805790505b50905060005b828110156103d357600080308686858181106102b9576102b9610ea7565b90506020028101906102cb9190610ebd565b6040516102d9929190610f0b565b600060405180830381855af49150503d8060008114610314576040519150601f19603f3d011682016040523d82523d6000602084013e610319565b606091505b5091509150816103a05760448151101561036c57604051635d2f436f60e11b815260206004820152600e60248201526d125b9d985b1a590814995cdd5b1d60921b60448201526064015b60405180910390fd5b600481019050808060200190518101906103869190610f4b565b604051635d2f436f60e11b81526004016103639190610e7c565b808484815181106103b3576103b3610ea7565b6020026020010181905250505080806103cb90610faa565b91505061029b565b5092915050565b60005b95945050505050565b60006001600160a01b0386163014610400575060006103dd565b5063f23a6e6160e01b6103dd565b60606000808061042160e0860186610ebd565b81019061042e9190610fc5565b91945092509050600061047d7f00000000000000000000000000000000000000000000000000000000000000006104686020890189611006565b61047860408a0160208b01611006565b610668565b9050600080826001600160a01b0316637087c1f66040518060e001604052808b6040013581526020018b606001358152602001896001600160a01b03168152602001886001600160a01b03168152602001600060028111156104e1576104e1611023565b8152602001878152602001604051806020016040528060008152508152506040518263ffffffff1660e01b815260040161051b9190611039565b600060405180830381600087803b15801561053557600080fd5b505af1158015610549573d6000803e3d6000fd5b505050506040513d6000823e601f3d908101601f1916820160405261057191908101906110df565b5050604080516020810182526000815290516304d948b760e51b815260048101849052602481018390529099509193509150604401610363565b60008061065e6040518060e001604052808560000160208101906105cf9190611006565b6001600160a01b031681526020018560200160208101906105f09190611006565b6001600160a01b0316815260200185604001358152602001856060013581526020018560800160208101906106259190611006565b6001600160a01b0316815260200161064360a0870160808801611006565b6001600160a01b031681526020018560c00135815250610694565b9094909350915050565b600061067584848461084e565b90506001600160a01b03811661068d5761068d6108db565b9392505050565b60808082015160a083015160c0840151604080516001600160a01b03948516602082015293909216918301919091526060820152600091829182910160408051808303601f190181526101608301825286516001600160a01b039081168452602080890151821690850152878301518484015260608089015190850152306080850181905260a0850181905260c080860191909152600060e086018190526101008601528801516101208501526101408401829052915163a38d7a1760e01b81529093507f00000000000000000000000000000000000000000000000000000000000000009091169163a38d7a17916107909190600401611139565b600060405180830381600087803b1580156107aa57600080fd5b505af19250505080156107df57506040513d6000823e601f3d908101601f191682016040526107dc919081019061120a565b60015b610846573d80801561080d576040519150601f19603f3d011682016040523d82523d6000602084013e610812565b606091505b50610824816304d948b760e51b6108f4565b91508180602001905181019061083a919061123f565b90945092506108489050565b505b50915091565b60405163d81e842360e01b81526001600160a01b03838116600483015282811660248301526000919085169063d81e84239060440160206040518083038186803b15801561089b57600080fd5b505afa1580156108af573d6000803e3d6000fd5b505050506040513d601f19601f820116820180604052508101906108d39190611263565b949350505050565b60405163d92e233d60e01b815260040160405180910390fd5b81516060906020610906600483611280565b6109109190611297565b15801561093857506001600160e01b0319831661092c856112b9565b6001600160e01b031916145b1561095a5761095284600461094d8185611280565b610962565b915050610241565b835184602001fd5b60608161097081601f6112f0565b10156109af5760405162461bcd60e51b815260206004820152600e60248201526d736c6963655f6f766572666c6f7760901b6044820152606401610363565b6109b982846112f0565b845110156109fd5760405162461bcd60e51b8152602060048201526011602482015270736c6963655f6f75744f66426f756e647360781b6044820152606401610363565b606082158015610a1c5760405191506000825260208201604052610a66565b6040519150601f8416801560200281840101858101878315602002848b0101015b81831015610a55578051835260209283019201610a3d565b5050858452601f01601f1916604052505b50949350505050565b600060208284031215610a8157600080fd5b81356001600160e01b03198116811461068d57600080fd5b60008060208385031215610aac57600080fd5b823567ffffffffffffffff80821115610ac457600080fd5b818501915085601f830112610ad857600080fd5b813581811115610ae757600080fd5b8660208260051b8501011115610afc57600080fd5b60209290920196919550909350505050565b60005b83811015610b29578181015183820152602001610b11565b83811115610b38576000848401525b50505050565b60008151808452610b56816020860160208601610b0e565b601f01601f19169290920160200192915050565b6000602080830181845280855180835260408601915060408160051b870101925083870160005b82811015610bbf57603f19888603018452610bad858351610b3e565b94509285019290850190600101610b91565b5092979650505050505050565b6001600160a01b0381168114610be157600080fd5b50565b634e487b7160e01b600052604160045260246000fd5b604051601f8201601f1916810167ffffffffffffffff81118282101715610c2357610c23610be4565b604052919050565b600082601f830112610c3c57600080fd5b8135602067ffffffffffffffff821115610c5857610c58610be4565b8160051b610c67828201610bfa565b9283528481018201928281019087851115610c8157600080fd5b83870192505b84831015610ca057823582529183019190830190610c87565b979650505050505050565b600067ffffffffffffffff821115610cc557610cc5610be4565b50601f01601f191660200190565b600082601f830112610ce457600080fd5b8135610cf7610cf282610cab565b610bfa565b818152846020838601011115610d0c57600080fd5b816020850160208301376000918101602001919091529392505050565b600080600080600060a08688031215610d4157600080fd5b8535610d4c81610bcc565b94506020860135610d5c81610bcc565b9350604086013567ffffffffffffffff80821115610d7957600080fd5b610d8589838a01610c2b565b94506060880135915080821115610d9b57600080fd5b610da789838a01610c2b565b93506080880135915080821115610dbd57600080fd5b50610dca88828901610cd3565b9150509295509295909350565b600080600080600060a08688031215610def57600080fd5b8535610dfa81610bcc565b94506020860135610e0a81610bcc565b93506040860135925060608601359150608086013567ffffffffffffffff811115610e3457600080fd5b610dca88828901610cd3565b600060208284031215610e5257600080fd5b813567ffffffffffffffff811115610e6957600080fd5b8201610100818503121561068d57600080fd5b60208152600061068d6020830184610b3e565b600060e08284031215610ea157600080fd5b50919050565b634e487b7160e01b600052603260045260246000fd5b6000808335601e19843603018112610ed457600080fd5b83018035915067ffffffffffffffff821115610eef57600080fd5b602001915036819003821315610f0457600080fd5b9250929050565b8183823760009101908152919050565b6000610f29610cf284610cab565b9050828152838383011115610f3d57600080fd5b61068d836020830184610b0e565b600060208284031215610f5d57600080fd5b815167ffffffffffffffff811115610f7457600080fd5b8201601f81018413610f8557600080fd5b6108d384825160208401610f1b565b634e487b7160e01b600052601160045260246000fd5b6000600019821415610fbe57610fbe610f94565b5060010190565b600080600060608486031215610fda57600080fd5b8335610fe581610bcc565b92506020840135610ff581610bcc565b929592945050506040919091013590565b60006020828403121561101857600080fd5b813561068d81610bcc565b634e487b7160e01b600052602160045260246000fd5b6020815281516020820152602082015160408201526000604083015160018060a01b038082166060850152806060860151166080850152505060808301516003811061109557634e487b7160e01b600052602160045260246000fd5b8060a08401525060a083015160c083015260c083015160e0808401526108d3610100840182610b3e565b600082601f8301126110d057600080fd5b61068d83835160208501610f1b565b600080600080608085870312156110f557600080fd5b845193506020850151925060408501519150606085015167ffffffffffffffff81111561112157600080fd5b61112d878288016110bf565b91505092959194509250565b602081526111536020820183516001600160a01b03169052565b6000602083015161116f60408401826001600160a01b03169052565b506040830151606083015260608301516080830152608083015161119e60a08401826001600160a01b03169052565b5060a08301516001600160a01b03811660c08401525060c08301516001600160a01b03811660e08401525060e0830151610100838101919091528301516101208084019190915283015161014080840191909152830151610160808401526108d3610180840182610b3e565b60006020828403121561121c57600080fd5b815167ffffffffffffffff81111561123357600080fd5b6108d3848285016110bf565b6000806040838503121561125257600080fd5b505080516020909101519092909150565b60006020828403121561127557600080fd5b815161068d81610bcc565b60008282101561129257611292610f94565b500390565b6000826112b457634e487b7160e01b600052601260045260246000fd5b500690565b805160208201516001600160e01b031980821692919060048310156112e85780818460040360031b1b83161693505b505050919050565b6000821982111561130357611303610f94565b50019056fea26469706673582212200a2d3c005d488124b40ab8ec2eca208ec10d749ad309eb3077d6e68653ad602f64736f6c63430008080033",
  "linkReferences": {},
  "deployedLinkReferences": {}
}