{
  "_format": "hh-sol-artifact-1",
  "contractName": "TimeswapV2Option",
  "sourceName": "@timeswap-labs/v2-option/contracts/TimeswapV2Option.sol",
  "abi": [
    {
      "inputs": [],
      "stateMutability": "nonpayable",
      "type": "constructor"
    },
    {
      "inputs": [
        {
          "internalType": "uint256",
          "name": "maturity",
          "type": "uint256"
        },
        {
          "internalType": "uint96",
          "name": "blockTimestamp",
          "type": "uint96"
        }
      ],
      "name": "AlreadyMatured",
      "type": "error"
    },
    {
      "inputs": [],
      "name": "CannotBeDelegateCalled",
      "type": "error"
    },
    {
      "inputs": [
        {
          "internalType": "uint256",
          "name": "strike",
          "type": "uint256"
        },
        {
          "internalType": "uint256",
          "name": "maturity",
          "type": "uint256"
        }
      ],
      "name": "InactiveOption",
      "type": "error"
    },
    {
      "inputs": [
        {
          "internalType": "uint256",
          "name": "maturity",
          "type": "uint256"
        }
      ],
      "name": "IncorrectMaturity",
      "type": "error"
    },
    {
      "inputs": [],
      "name": "InvalidPosition",
      "type": "error"
    },
    {
      "inputs": [],
      "name": "InvalidTransaction",
      "type": "error"
    },
    {
      "inputs": [
        {
          "internalType": "uint256",
          "name": "multiplicand",
          "type": "uint256"
        },
        {
          "internalType": "uint256",
          "name": "multiplier",
          "type": "uint256"
        },
        {
          "internalType": "uint256",
          "name": "divisor",
          "type": "uint256"
        }
      ],
      "name": "MulDivOverflow",
      "type": "error"
    },
    {
      "inputs": [
        {
          "internalType": "uint256",
          "name": "minuend",
          "type": "uint256"
        },
        {
          "internalType": "uint256",
          "name": "subtrahend",
          "type": "uint256"
        }
      ],
      "name": "NotEnoughReceived",
      "type": "error"
    },
    {
      "inputs": [],
      "name": "ProccessOverload",
      "type": "error"
    },
    {
      "inputs": [
        {
          "internalType": "uint256",
          "name": "maturity",
          "type": "uint256"
        },
        {
          "internalType": "uint96",
          "name": "blockTimestamp",
          "type": "uint96"
        }
      ],
      "name": "StillActive",
      "type": "error"
    },
    {
      "inputs": [],
      "name": "ZeroAddress",
      "type": "error"
    },
    {
      "inputs": [],
      "name": "ZeroInput",
      "type": "error"
    },
    {
      "anonymous": false,
      "inputs": [
        {
          "indexed": true,
          "internalType": "uint256",
          "name": "strike",
          "type": "uint256"
        },
        {
          "indexed": true,
          "internalType": "uint256",
          "name": "maturity",
          "type": "uint256"
        },
        {
          "indexed": true,
          "internalType": "address",
          "name": "caller",
          "type": "address"
        },
        {
          "indexed": false,
          "internalType": "address",
          "name": "token0To",
          "type": "address"
        },
        {
          "indexed": false,
          "internalType": "address",
          "name": "token1To",
          "type": "address"
        },
        {
          "indexed": false,
          "internalType": "uint256",
          "name": "token0AndLong0Amount",
          "type": "uint256"
        },
        {
          "indexed": false,
          "internalType": "uint256",
          "name": "token1AndLong1Amount",
          "type": "uint256"
        },
        {
          "indexed": false,
          "internalType": "uint256",
          "name": "shortAmount",
          "type": "uint256"
        }
      ],
      "name": "Burn",
      "type": "event"
    },
    {
      "anonymous": false,
      "inputs": [
        {
          "indexed": true,
          "internalType": "uint256",
          "name": "strike",
          "type": "uint256"
        },
        {
          "indexed": true,
          "internalType": "uint256",
          "name": "maturity",
          "type": "uint256"
        },
        {
          "indexed": true,
          "internalType": "address",
          "name": "caller",
          "type": "address"
        },
        {
          "indexed": false,
          "internalType": "address",
          "name": "token0To",
          "type": "address"
        },
        {
          "indexed": false,
          "internalType": "address",
          "name": "token1To",
          "type": "address"
        },
        {
          "indexed": false,
          "internalType": "uint256",
          "name": "long0AndToken0Amount",
          "type": "uint256"
        },
        {
          "indexed": false,
          "internalType": "uint256",
          "name": "long1Amount",
          "type": "uint256"
        },
        {
          "indexed": false,
          "internalType": "uint256",
          "name": "token1Amount",
          "type": "uint256"
        }
      ],
      "name": "Collect",
      "type": "event"
    },
    {
      "anonymous": false,
      "inputs": [
        {
          "indexed": true,
          "internalType": "uint256",
          "name": "strike",
          "type": "uint256"
        },
        {
          "indexed": true,
          "internalType": "uint256",
          "name": "maturity",
          "type": "uint256"
        },
        {
          "indexed": true,
          "internalType": "address",
          "name": "caller",
          "type": "address"
        },
        {
          "indexed": false,
          "internalType": "address",
          "name": "long0To",
          "type": "address"
        },
        {
          "indexed": false,
          "internalType": "address",
          "name": "long1To",
          "type": "address"
        },
        {
          "indexed": false,
          "internalType": "address",
          "name": "shortTo",
          "type": "address"
        },
        {
          "indexed": false,
          "internalType": "uint256",
          "name": "token0AndLong0Amount",
          "type": "uint256"
        },
        {
          "indexed": false,
          "internalType": "uint256",
          "name": "token1AndLong1Amount",
          "type": "uint256"
        },
        {
          "indexed": false,
          "internalType": "uint256",
          "name": "shortAmount",
          "type": "uint256"
        }
      ],
      "name": "Mint",
      "type": "event"
    },
    {
      "anonymous": false,
      "inputs": [
        {
          "indexed": true,
          "internalType": "uint256",
          "name": "strike",
          "type": "uint256"
        },
        {
          "indexed": true,
          "internalType": "uint256",
          "name": "maturity",
          "type": "uint256"
        },
        {
          "indexed": true,
          "internalType": "address",
          "name": "caller",
          "type": "address"
        },
        {
          "indexed": false,
          "internalType": "address",
          "name": "tokenTo",
          "type": "address"
        },
        {
          "indexed": false,
          "internalType": "address",
          "name": "longTo",
          "type": "address"
        },
        {
          "indexed": false,
          "internalType": "bool",
          "name": "isLong0toLong1",
          "type": "bool"
        },
        {
          "indexed": false,
          "internalType": "uint256",
          "name": "token0AndLong0Amount",
          "type": "uint256"
        },
        {
          "indexed": false,
          "internalType": "uint256",
          "name": "token1AndLong1Amount",
          "type": "uint256"
        }
      ],
      "name": "Swap",
      "type": "event"
    },
    {
      "anonymous": false,
      "inputs": [
        {
          "indexed": true,
          "internalType": "uint256",
          "name": "strike",
          "type": "uint256"
        },
        {
          "indexed": true,
          "internalType": "uint256",
          "name": "maturity",
          "type": "uint256"
        },
        {
          "indexed": false,
          "internalType": "address",
          "name": "from",
          "type": "address"
        },
        {
          "indexed": false,
          "internalType": "address",
          "name": "to",
          "type": "address"
        },
        {
          "indexed": false,
          "internalType": "enum TimeswapV2OptionPosition",
          "name": "position",
          "type": "uint8"
        },
        {
          "indexed": false,
          "internalType": "uint256",
          "name": "amount",
          "type": "uint256"
        }
      ],
      "name": "TransferPosition",
      "type": "event"
    },
    {
      "inputs": [
        {
          "components": [
            {
              "internalType": "uint256",
              "name": "strike",
              "type": "uint256"
            },
            {
              "internalType": "uint256",
              "name": "maturity",
              "type": "uint256"
            },
            {
              "internalType": "address",
              "name": "token0To",
              "type": "address"
            },
            {
              "internalType": "address",
              "name": "token1To",
              "type": "address"
            },
            {
              "internalType": "enum TimeswapV2OptionBurn",
              "name": "transaction",
              "type": "uint8"
            },
            {
              "internalType": "uint256",
              "name": "amount0",
              "type": "uint256"
            },
            {
              "internalType": "uint256",
              "name": "amount1",
              "type": "uint256"
            },
            {
              "internalType": "bytes",
              "name": "data",
              "type": "bytes"
            }
          ],
          "internalType": "struct TimeswapV2OptionBurnParam",
          "name": "param",
          "type": "tuple"
        }
      ],
      "name": "burn",
      "outputs": [
        {
          "internalType": "uint256",
          "name": "token0AndLong0Amount",
          "type": "uint256"
        },
        {
          "internalType": "uint256",
          "name": "token1AndLong1Amount",
          "type": "uint256"
        },
        {
          "internalType": "uint256",
          "name": "shortAmount",
          "type": "uint256"
        },
        {
          "internalType": "bytes",
          "name": "data",
          "type": "bytes"
        }
      ],
      "stateMutability": "nonpayable",
      "type": "function"
    },
    {
      "inputs": [
        {
          "components": [
            {
              "internalType": "uint256",
              "name": "strike",
              "type": "uint256"
            },
            {
              "internalType": "uint256",
              "name": "maturity",
              "type": "uint256"
            },
            {
              "internalType": "address",
              "name": "token0To",
              "type": "address"
            },
            {
              "internalType": "address",
              "name": "token1To",
              "type": "address"
            },
            {
              "internalType": "enum TimeswapV2OptionCollect",
              "name": "transaction",
              "type": "uint8"
            },
            {
              "internalType": "uint256",
              "name": "amount",
              "type": "uint256"
            },
            {
              "internalType": "bytes",
              "name": "data",
              "type": "bytes"
            }
          ],
          "internalType": "struct TimeswapV2OptionCollectParam",
          "name": "param",
          "type": "tuple"
        }
      ],
      "name": "collect",
      "outputs": [
        {
          "internalType": "uint256",
          "name": "token0Amount",
          "type": "uint256"
        },
        {
          "internalType": "uint256",
          "name": "token1Amount",
          "type": "uint256"
        },
        {
          "internalType": "uint256",
          "name": "shortAmount",
          "type": "uint256"
        },
        {
          "internalType": "bytes",
          "name": "data",
          "type": "bytes"
        }
      ],
      "stateMutability": "nonpayable",
      "type": "function"
    },
    {
      "inputs": [
        {
          "internalType": "uint256",
          "name": "id",
          "type": "uint256"
        }
      ],
      "name": "getByIndex",
      "outputs": [
        {
          "components": [
            {
              "internalType": "uint256",
              "name": "strike",
              "type": "uint256"
            },
            {
              "internalType": "uint256",
              "name": "maturity",
              "type": "uint256"
            }
          ],
          "internalType": "struct StrikeAndMaturity",
          "name": "",
          "type": "tuple"
        }
      ],
      "stateMutability": "view",
      "type": "function"
    },
    {
      "inputs": [
        {
          "components": [
            {
              "internalType": "uint256",
              "name": "strike",
              "type": "uint256"
            },
            {
              "internalType": "uint256",
              "name": "maturity",
              "type": "uint256"
            },
            {
              "internalType": "address",
              "name": "long0To",
              "type": "address"
            },
            {
              "internalType": "address",
              "name": "long1To",
              "type": "address"
            },
            {
              "internalType": "address",
              "name": "shortTo",
              "type": "address"
            },
            {
              "internalType": "enum TimeswapV2OptionMint",
              "name": "transaction",
              "type": "uint8"
            },
            {
              "internalType": "uint256",
              "name": "amount0",
              "type": "uint256"
            },
            {
              "internalType": "uint256",
              "name": "amount1",
              "type": "uint256"
            },
            {
              "internalType": "bytes",
              "name": "data",
              "type": "bytes"
            }
          ],
          "internalType": "struct TimeswapV2OptionMintParam",
          "name": "param",
          "type": "tuple"
        }
      ],
      "name": "mint",
      "outputs": [
        {
          "internalType": "uint256",
          "name": "token0AndLong0Amount",
          "type": "uint256"
        },
        {
          "internalType": "uint256",
          "name": "token1AndLong1Amount",
          "type": "uint256"
        },
        {
          "internalType": "uint256",
          "name": "shortAmount",
          "type": "uint256"
        },
        {
          "internalType": "bytes",
          "name": "data",
          "type": "bytes"
        }
      ],
      "stateMutability": "nonpayable",
      "type": "function"
    },
    {
      "inputs": [],
      "name": "numberOfOptions",
      "outputs": [
        {
          "internalType": "uint256",
          "name": "",
          "type": "uint256"
        }
      ],
      "stateMutability": "view",
      "type": "function"
    },
    {
      "inputs": [],
      "name": "optionFactory",
      "outputs": [
        {
          "internalType": "address",
          "name": "",
          "type": "address"
        }
      ],
      "stateMutability": "view",
      "type": "function"
    },
    {
      "inputs": [
        {
          "internalType": "uint256",
          "name": "strike",
          "type": "uint256"
        },
        {
          "internalType": "uint256",
          "name": "maturity",
          "type": "uint256"
        },
        {
          "internalType": "address",
          "name": "owner",
          "type": "address"
        },
        {
          "internalType": "enum TimeswapV2OptionPosition",
          "name": "position",
          "type": "uint8"
        }
      ],
      "name": "positionOf",
      "outputs": [
        {
          "internalType": "uint256",
          "name": "",
          "type": "uint256"
        }
      ],
      "stateMutability": "view",
      "type": "function"
    },
    {
      "inputs": [
        {
          "components": [
            {
              "internalType": "uint256",
              "name": "strike",
              "type": "uint256"
            },
            {
              "internalType": "uint256",
              "name": "maturity",
              "type": "uint256"
            },
            {
              "internalType": "address",
              "name": "tokenTo",
              "type": "address"
            },
            {
              "internalType": "address",
              "name": "longTo",
              "type": "address"
            },
            {
              "internalType": "bool",
              "name": "isLong0ToLong1",
              "type": "bool"
            },
            {
              "internalType": "enum TimeswapV2OptionSwap",
              "name": "transaction",
              "type": "uint8"
            },
            {
              "internalType": "uint256",
              "name": "amount",
              "type": "uint256"
            },
            {
              "internalType": "bytes",
              "name": "data",
              "type": "bytes"
            }
          ],
          "internalType": "struct TimeswapV2OptionSwapParam",
          "name": "param",
          "type": "tuple"
        }
      ],
      "name": "swap",
      "outputs": [
        {
          "internalType": "uint256",
          "name": "token0AndLong0Amount",
          "type": "uint256"
        },
        {
          "internalType": "uint256",
          "name": "token1AndLong1Amount",
          "type": "uint256"
        },
        {
          "internalType": "bytes",
          "name": "data",
          "type": "bytes"
        }
      ],
      "stateMutability": "nonpayable",
      "type": "function"
    },
    {
      "inputs": [],
      "name": "token0",
      "outputs": [
        {
          "internalType": "address",
          "name": "",
          "type": "address"
        }
      ],
      "stateMutability": "view",
      "type": "function"
    },
    {
      "inputs": [],
      "name": "token1",
      "outputs": [
        {
          "internalType": "address",
          "name": "",
          "type": "address"
        }
      ],
      "stateMutability": "view",
      "type": "function"
    },
    {
      "inputs": [
        {
          "internalType": "uint256",
          "name": "strike",
          "type": "uint256"
        },
        {
          "internalType": "uint256",
          "name": "maturity",
          "type": "uint256"
        },
        {
          "internalType": "enum TimeswapV2OptionPosition",
          "name": "position",
          "type": "uint8"
        }
      ],
      "name": "totalPosition",
      "outputs": [
        {
          "internalType": "uint256",
          "name": "",
          "type": "uint256"
        }
      ],
      "stateMutability": "view",
      "type": "function"
    },
    {
      "inputs": [
        {
          "internalType": "uint256",
          "name": "strike",
          "type": "uint256"
        },
        {
          "internalType": "uint256",
          "name": "maturity",
          "type": "uint256"
        },
        {
          "internalType": "address",
          "name": "to",
          "type": "address"
        },
        {
          "internalType": "enum TimeswapV2OptionPosition",
          "name": "position",
          "type": "uint8"
        },
        {
          "internalType": "uint256",
          "name": "amount",
          "type": "uint256"
        }
      ],
      "name": "transferPosition",
      "outputs": [],
      "stateMutability": "nonpayable",
      "type": "function"
    }
  ],
  "bytecode": "0x6101006040523480156200001257600080fd5b5030606090811b6080526040805163ad4d4e2960e01b81529051339263ad4d4e299260048082019391829003018186803b1580156200005057600080fd5b505afa15801562000065573d6000803e3d6000fd5b505050506040513d601f19601f820116820180604052508101906200008b9190620000d1565b6001600160601b0319606091821b811660e05291811b821660c0529190911b1660a0526200011b565b80516001600160a01b0381168114620000cc57600080fd5b919050565b600080600060608486031215620000e757600080fd5b620000f284620000b4565b92506200010260208501620000b4565b91506200011260408501620000b4565b90509250925092565b60805160601c60a05160601c60c05160601c60e05160601c613397620001c26000396000818161020f015281816103a8015281816109d301528181610cd60152818161110d015281816111b50152818161134801526114e101526000818160be0152818161035e0152818161092801528181610c2b01528181610fa9015281816110510152818161136e01526114bb015260006101d5015260006117d101526133976000f3fe608060405234801561001057600080fd5b50600436106100b45760003560e01c8063af2f91ea11610071578063af2f91ea14610186578063b084c25214610199578063b2ceca77146101bb578063b3461c87146101d0578063b7fb542d146101f7578063d21220a71461020a57600080fd5b80630dfe1681146100b95780632d883a73146100fd578063622fb68f1461012b5780637087c1f61461014e57806380e066791461016157806387ed3ecf14610174575b600080fd5b6100e07f000000000000000000000000000000000000000000000000000000000000000081565b6040516001600160a01b0390911681526020015b60405180910390f35b61011061010b36600461299a565b610231565b604080518251815260209283015192810192909252016100f4565b61013e6101393660046129cc565b61028c565b6040516100f49493929190612a58565b61013e61015c366004612a87565b6105df565b61013e61016f366004612ac1565b61082f565b6003545b6040519081526020016100f4565b610178610194366004612b30565b610e43565b6101ac6101a73660046129cc565b610e70565b6040516100f493929190612b78565b6101ce6101c9366004612b97565b6116da565b005b6100e07f000000000000000000000000000000000000000000000000000000000000000081565b610178610205366004612be7565b61179a565b6100e07f000000000000000000000000000000000000000000000000000000000000000081565b60408051808201909152600080825260208201526003828154811061025857610258612c20565b9060005260206000209060020201604051806040016040529081600082015481526020016001820154815250509050919050565b6000806000606061029b6117c6565b8435600090815260026020908152604080832082890135845290915290205460ff166102d0576102d085356020870135611811565b6102e26102dc86612d7f565b42611839565b8435600081815260208181526040808320828a013584529091529020906103259061031360a0890160808a01612e20565b83919060a08a013560c08b01356118f0565b9196509450925061033b600186866000806119ae565b8415610385576103856103546060880160408901612e3d565b6001600160a01b037f0000000000000000000000000000000000000000000000000000000000000000169087611a80565b83156103cf576103cf61039e6080880160608901612e3d565b6001600160a01b037f0000000000000000000000000000000000000000000000000000000000000000169086611a80565b6103dc60e0870187612e58565b1590506104e357336001600160a01b0316638c5f08516040518060c001604052808960000135815260200189602001358152602001888152602001878152602001868152602001898060e001906104339190612e58565b8080601f01602080910402602001604051908101604052809392919081815260200183838082843760009201919091525050509152506040516001600160e01b031960e084901b16815261048a9190600401612eec565b600060405180830381600087803b1580156104a457600080fd5b505af11580156104b8573d6000803e3d6000fd5b505050506040513d6000823e601f3d908101601f191682016040526104e09190810190612eff565b91505b33600090815260028201602052604081208054879290610504908490612f82565b90915550503360009081526003820160205260408120805486929061052a908490612f82565b909155505033600090815260048201602052604081208054859290610550908490612f82565b90915550339050602087013587357f5e34e67b3e203229e29d54244b2c750f9038bc8d484cbcb7693ab665c35c962c61058f60608b0160408c01612e3d565b61059f60808c0160608d01612e3d565b604080516001600160a01b03938416815292909116602083015281018a9052606081018990526080810188905260a00160405180910390a4509193509193565b600080600060606105ee6117c6565b8435600090815260026020908152604080832082890135845290915290205460ff166106235761062385356020870135611811565b61063561062f86612f99565b42611ad7565b8435600081815260208181526040808320828a013584529091529020906106739061066660a0890160808a0161302f565b83919060a08a0135611b79565b91965094509250610689600186866000806119ae565b84156106a2576106a26103546060880160408901612e3d565b83156106bb576106bb61039e6080880160608901612e3d565b6106c860c0870187612e58565b1590506107cf57336001600160a01b031663dc6fddcf6040518060c001604052808960000135815260200189602001358152602001888152602001878152602001868152602001898060c0019061071f9190612e58565b8080601f01602080910402602001604051908101604052809392919081815260200183838082843760009201919091525050509152506040516001600160e01b031960e084901b1681526107769190600401612eec565b600060405180830381600087803b15801561079057600080fd5b505af11580156107a4573d6000803e3d6000fd5b505050506040513d6000823e601f3d908101601f191682016040526107cc9190810190612eff565b91505b336000908152600482016020526040812080548592906107f0908490612f82565b90915550339050602087013587357fa9321c5c860b13f184d4b6bc6793bede025ef1a51e4c3527d0733f225df69db661058f60608b0160408c01612e3d565b6000806000606061083e6117c6565b61085061084a8661304c565b42611cab565b61085f85356020870135611d75565b8435600081815260208181526040808320828a0135845290915290819020916108d7916108929060608a01908a01612e3d565b6108a260808a0160608b01612e3d565b6108b260a08b0160808c01612e3d565b6108c260c08c0160a08d01612e20565b86949392919060c08d013560e08e0135611e2d565b919650945092506108ec6001868682806119ae565b60408051608081018252873581526020808901359082015281516370a0823160e01b815230600482015260009282019088906001600160a01b037f000000000000000000000000000000000000000000000000000000000000000016906370a082319060240160206040518083038186803b15801561096a57600080fd5b505afa15801561097e573d6000803e3d6000fd5b505050506040513d601f19601f820116820180604052508101906109a29190613102565b6109ac919061311b565b81526040516370a0823160e01b815230600482015260209091019087906001600160a01b037f000000000000000000000000000000000000000000000000000000000000000016906370a082319060240160206040518083038186803b158015610a1557600080fd5b505afa158015610a29573d6000803e3d6000fd5b505050506040513d601f19601f82011682018060405250810190610a4d9190613102565b610a57919061311b565b9052600180548082018255600091909152815160049091027fb10e2d527612073b26eecdfd717e6a320cf44b4afac2b0732d9fcbe2b7fa0cf681019182556020838101517fb10e2d527612073b26eecdfd717e6a320cf44b4afac2b0732d9fcbe2b7fa0cf78301556040808501517fb10e2d527612073b26eecdfd717e6a320cf44b4afac2b0732d9fcbe2b7fa0cf88401556060948501517fb10e2d527612073b26eecdfd717e6a320cf44b4afac2b0732d9fcbe2b7fa0cf990930192909255815160c0810183528b3581528b820135918101919091529081018990529182018790526080820186905291503390634a358d659060a08101610b5d6101008c018c612e58565b8080601f01602080910402602001604051908101604052809392919081815260200183838082843760009201919091525050509152506040516001600160e01b031960e084901b168152610bb49190600401612eec565b600060405180830381600087803b158015610bce57600080fd5b505af1158015610be2573d6000803e3d6000fd5b505050506040513d6000823e601f3d908101601f19168201604052610c0a9190810190612eff565b92508515610cb7576040516370a0823160e01b8152306004820152610cb7907f00000000000000000000000000000000000000000000000000000000000000006001600160a01b0316906370a082319060240160206040518083038186803b158015610c7557600080fd5b505afa158015610c89573d6000803e3d6000fd5b505050506040513d601f19601f82011682018060405250810190610cad9190613102565b8260020154611f9a565b8415610d62576040516370a0823160e01b8152306004820152610d62907f00000000000000000000000000000000000000000000000000000000000000006001600160a01b0316906370a082319060240160206040518083038186803b158015610d2057600080fd5b505afa158015610d34573d6000803e3d6000fd5b505050506040513d601f19601f82011682018060405250810190610d589190613102565b8260030154611f9a565b6001805480610d7357610d73613133565b600082815260208082206004600019909401938402018281556001810183905560028101839055600301919091559155339088013588357f0991839fbc46f2e3816b51c806bee50f76ee23053c1b131a9fbf07fc2d6df8aa610ddb60608c0160408d01612e3d565b610deb60808d0160608e01612e3d565b610dfb60a08e0160808f01612e3d565b604080516001600160a01b0394851681529284166020840152921681830152606081018c9052608081018b905260a081018a905290519081900360c00190a450509193509193565b6000848152602081815260408083208684529091528120610e65908484611fc5565b90505b949350505050565b6000806060610e7d6117c6565b8335600090815260026020908152604080832082880135845290915290205460ff16610eb257610eb284356020860135611811565b610ec4610ebe85613162565b42612077565b8335600081815260208181526040808320828901358452909152902090610f2490610ef56080880160608901612e3d565b610f0560a0890160808a016131f2565b610f1560c08a0160a08b01612e20565b859392919060c08b013561211a565b9094509250610f5a8484610f3e60a0890160808a016131f2565b15610f4f60a08a0160808b016131f2565b6001939291906119ae565b600060405180608001604052808760000135815260200187602001358152602001876080016020810190610f8e91906131f2565b61103a576040516370a0823160e01b815230600482015287907f00000000000000000000000000000000000000000000000000000000000000006001600160a01b0316906370a082319060240160206040518083038186803b158015610ff357600080fd5b505afa158015611007573d6000803e3d6000fd5b505050506040513d601f19601f8201168201806040525081019061102b9190613102565b611035919061311b565b6110dd565b6040516370a0823160e01b815230600482015287907f00000000000000000000000000000000000000000000000000000000000000006001600160a01b0316906370a082319060240160206040518083038186803b15801561109b57600080fd5b505afa1580156110af573d6000803e3d6000fd5b505050506040513d601f19601f820116820180604052508101906110d39190613102565b6110dd9190612f82565b81526020016110f260a0890160808a016131f2565b61119e576040516370a0823160e01b815230600482015286907f00000000000000000000000000000000000000000000000000000000000000006001600160a01b0316906370a082319060240160206040518083038186803b15801561115757600080fd5b505afa15801561116b573d6000803e3d6000fd5b505050506040513d601f19601f8201168201806040525081019061118f9190613102565b6111999190612f82565b611241565b6040516370a0823160e01b815230600482015286907f00000000000000000000000000000000000000000000000000000000000000006001600160a01b0316906370a082319060240160206040518083038186803b1580156111ff57600080fd5b505afa158015611213573d6000803e3d6000fd5b505050506040513d601f19601f820116820180604052508101906112379190613102565b611241919061311b565b9052600180548082018255600091909152815160049091027fb10e2d527612073b26eecdfd717e6a320cf44b4afac2b0732d9fcbe2b7fa0cf6810191825560208301517fb10e2d527612073b26eecdfd717e6a320cf44b4afac2b0732d9fcbe2b7fa0cf78201556040808401517fb10e2d527612073b26eecdfd717e6a320cf44b4afac2b0732d9fcbe2b7fa0cf88301556060938401517fb10e2d527612073b26eecdfd717e6a320cf44b4afac2b0732d9fcbe2b7fa0cf99092019190915590925061139e9161131691908901908901612e3d565b61132660a0890160808a016131f2565b6113305785611332565b865b61134260a08a0160808b016131f2565b61136c577f000000000000000000000000000000000000000000000000000000000000000061138e565b7f00000000000000000000000000000000000000000000000000000000000000005b6001600160a01b03169190611a80565b6040805160c0810182528735815260208089013590820152339163dc4a4847919081016113d160a08b0160808c016131f2565b1515815260208101899052604081018890526060016113f360e08b018b612e58565b8080601f01602080910402602001604051908101604052809392919081815260200183838082843760009201919091525050509152506040516001600160e01b031960e084901b16815261144a919060040161320f565b600060405180830381600087803b15801561146457600080fd5b505af1158015611478573d6000803e3d6000fd5b505050506040513d6000823e601f3d908101601f191682016040526114a09190810190612eff565b92506115986114b560a08801608089016131f2565b6114df577f0000000000000000000000000000000000000000000000000000000000000000611501565b7f00000000000000000000000000000000000000000000000000000000000000005b6040516370a0823160e01b81523060048201526001600160a01b0391909116906370a082319060240160206040518083038186803b15801561154257600080fd5b505afa158015611556573d6000803e3d6000fd5b505050506040513d601f19601f8201168201806040525081019061157a9190613102565b61158a60a0890160808a016131f2565b610d58578260020154611f9a565b6115a860a08701608088016131f2565b156115d957336000908152600283016020526040812080548792906115ce908490612f82565b909155506116009050565b336000908152600383016020526040812080548692906115fa908490612f82565b90915550505b600180548061161157611611613133565b600082815260208082206004600019909401938402018281556001810183905560028101839055600301919091559155339087013587357e92a054e9363f3efd42f73f1da82239b3dc6edafea865e59f1cffa4dd7dc22661167860608b0160408c01612e3d565b61168860808c0160608d01612e3d565b61169860a08d0160808e016131f2565b604080516001600160a01b039485168152939092166020840152151590820152606081018a90526080810189905260a00160405180910390a450509193909250565b600085815260026020908152604080832087845290915290205460ff16611705576117058585611811565b6001600160a01b03831661171b5761171b612256565b806117285761172861226f565b61173182612288565b6000858152602081815260408083208784529091529020611754908484846122bd565b83857f70faa8e36be9e16810b2a40b964c4b9ae20a221c53bc3fd03fc843110d336dbb3386868660405161178b9493929190613274565b60405180910390a35050505050565b60008381526020818152604080832085845290915281206117bc908584612412565b90505b9392505050565b306001600160a01b037f0000000000000000000000000000000000000000000000000000000000000000161461180f57604051634118e0bb60e11b815260040160405180910390fd5b565b60405163e407078d60e01b815260048101839052602481018290526044015b60405180910390fd5b81516118475761184761226f565b60208201516001600160601b031015611867576118678260200151612489565b806001600160601b03168260200151101561188a5761188a8260200151826124a5565b60408201516001600160a01b03166118a4576118a4612256565b60608201516001600160a01b03166118be576118be612256565b6118cb82608001516124d0565b60a08201511580156118df575060c0820151155b156118ec576118ec61226f565b5050565b60008080808660018111156119075761190761325e565b1415611927576119208593508385935083896001612502565b905061196d565b600186600181111561193b5761193b61325e565b141561196d5761194b848661311b565b905061195a8588600080612545565b925061196a848860016000612545565b91505b828860000160008282546119819190612f82565b925050819055508188600101600082825461199c9190612f82565b92505081905550955095509592505050565b8454601010156119d15760405163a6a2b99f60e01b815260040160405180910390fd5b60005b8554811015611a785760008682815481106119f1576119f1612c20565b9060005260206000209060040201905085600014611a395783611a2357858160020154611a1e9190612f82565b611a33565b858160020154611a33919061311b565b60028201555b8415611a6f5782611a5957848160030154611a549190612f82565b611a69565b848160030154611a69919061311b565b60038201555b506001016119d4565b505050505050565b604080516001600160a01b038416602482015260448082018490528251808303909101815260649091019091526020810180516001600160e01b031663a9059cbb60e01b179052611ad2908490612585565b505050565b8151611ae557611ae561226f565b60208201516001600160601b031015611b0557611b058260200151612489565b806001600160601b0316826020015110611b2757611b27826020015182612657565b60408201516001600160a01b0316611b4157611b41612256565b60608201516001600160a01b0316611b5b57611b5b612256565b611b688260800151612682565b60a08201516118ec576118ec61226f565b600080600080611b9488600001548960010154896001612502565b90506000866002811115611baa57611baa61325e565b1415611be0578754859250611bc3908390836000612696565b6001890154909450611bd9908390836000612696565b9250611c6a565b6001866002811115611bf457611bf461325e565b1415611c24578754859450611c0e90859083906001612696565b6001890154909250611bd9908390836000612696565b6002866002811115611c3857611c3861325e565b1415611c6a57600180890154869450611c549185918491612696565b8854909250611c67908390836000612696565b93505b83886000016000828254611c7e9190612f82565b9250508190555082886001016000828254611c999190612f82565b92505081905550509450945094915050565b8151611cb957611cb961226f565b60208201516001600160601b031015611cd957611cd98260200151612489565b806001600160601b031682602001511015611cfc57611cfc8260200151826124a5565b60808201516001600160a01b0316611d1657611d16612256565b60408201516001600160a01b0316611d3057611d30612256565b60608201516001600160a01b0316611d4a57611d4a612256565b611d578260a001516124d0565b60c08201511580156118df575060e08201516118ec576118ec61226f565b600082815260026020908152604080832084845290915290205460ff166118ec5760008281526002602081815260408084208585528252808420805460ff191660019081179091558151808301909252958152908101938452600380549586018155909252905192027fc2575a0e9e593c00f959f8c92f12db2869c3395a3b0502d05e2516446f71f85b810192909255517fc2575a0e9e593c00f959f8c92f12db2869c3395a3b0502d05e2516446f71f85c90910155565b6000808080866001811115611e4457611e4461325e565b1415611e6457611e5d85935083859350838c6000612502565b9050611eaa565b6001866001811115611e7857611e7861325e565b1415611eaa57611e88848661311b565b9050611e98858b60006001612545565b9250611ea7848b600180612545565b91505b8215611ef957828b6000016000828254611ec4919061311b565b90915550506001600160a01b038916600090815260028c01602052604081208054859290611ef390849061311b565b90915550505b8115611f4857818b6001016000828254611f13919061311b565b90915550506001600160a01b038816600090815260038c01602052604081208054849290611f4290849061311b565b90915550505b6001600160a01b038716600090815260048c01602052604081208054839290611f7290849061311b565b90915550508a546001808d0154611f8b92918d90612502565b50985098509895505050505050565b808210156118ec57604051631c22ff0160e21b81526004810183905260248101829052604401611830565b600080826002811115611fda57611fda61325e565b141561200157506001600160a01b03821660009081526002840160205260409020546117bf565b60018260028111156120155761201561325e565b141561203c57506001600160a01b03821660009081526003840160205260409020546117bf565b60028260028111156120505761205061325e565b14156117bf5750506001600160a01b03166000908152600491909101602052604090205490565b81516120855761208561226f565b60208201516001600160601b0310156120a5576120a58260200151612489565b806001600160601b0316826020015110156120c8576120c88260200151826124a5565b60408201516001600160a01b03166120e2576120e2612256565b60608201516001600160a01b03166120fc576120fc612256565b6121098260a001516124d0565b60c08201516118ec576118ec61226f565b600080808460018111156121305761213061325e565b141561214d5782915061214682886001886126a4565b905061217a565b60018460018111156121615761216161325e565b141561217a5750816121778188600088156126a4565b91505b84156121e957818860000160008282546121949190612f82565b92505081905550808860010160008282546121af919061311b565b90915550506001600160a01b0386166000908152600389016020526040812080548392906121de90849061311b565b9091555061224b9050565b808860010160008282546121fd9190612f82565b909155505087548290899060009061221690849061311b565b90915550506001600160a01b03861660009081526002890160205260408120805484929061224590849061311b565b90915550505b965096945050505050565b60405163d92e233d60e01b815260040160405180910390fd5b60405163af458c0760e01b815260040160405180910390fd5b600381600281111561229c5761229c61325e565b106122ba5760405163673f032f60e11b815260040160405180910390fd5b50565b60008260028111156122d1576122d161325e565b141561233257336000908152600285016020526040812080548392906122f8908490612f82565b90915550506001600160a01b03831660009081526002850160205260408120805483929061232790849061311b565b9091555061240c9050565b60018260028111156123465761234661325e565b141561239c576001600160a01b03831660009081526003850160205260408120805483929061237690849061311b565b909155505033600090815260038501602052604081208054839290612327908490612f82565b60028260028111156123b0576123b061325e565b141561240c57336000908152600485016020526040812080548392906123d7908490612f82565b90915550506001600160a01b03831660009081526004850160205260408120805483929061240690849061311b565b90915550505b50505050565b6000808260028111156124275761242761325e565b1415612435575082546117bf565b60018260028111156124495761244961325e565b141561245a575060018301546117bf565b600282600281111561246e5761246e61325e565b14156117bf576117bc84600001548560010154856001612502565b6040516335f135d360e01b815260048101829052602401611830565b60405163647284e960e11b8152600481018390526001600160601b0382166024820152604401611830565b60028160018111156124e4576124e461325e565b106122ba5760405163280503e760e11b815260040160405180910390fd5b60006001600160801b03831161252e5761251f85846001856126a4565b612529908561311b565b610e65565b61253b84846000856126a4565b610e65908661311b565b60006001600160801b03841161256d57826125675761252985856000856126a4565b84610e65565b826125785784610e65565b610e6585856001856126a4565b60006125da826040518060400160405280602081526020017f5361666545524332303a206c6f772d6c6576656c2063616c6c206661696c6564815250856001600160a01b03166126cb9092919063ffffffff16565b805190915015611ad257808060200190518101906125f891906132bc565b611ad25760405162461bcd60e51b815260206004820152602a60248201527f5361666545524332303a204552433230206f7065726174696f6e20646964206e6044820152691bdd081cdd58d8d9595960b21b6064820152608401611830565b60405163b9e0f8d560e01b8152600481018390526001600160601b0382166024820152604401611830565b60038160028111156124e4576124e461325e565b6000610e65858585856126da565b6000826126bb5761252985600160801b86856126da565b610e658585600160801b856126da565b60606117bc84846000856127d6565b60008060006126e98787612907565b91509150806000141561270a57612701828686612926565b92505050610e68565b80851161273b5760405163362ced0960e11b8152600481018890526024810187905260448101869052606401611830565b600085878909600087810388169788900497600260038a028118808b02820302808b02820302808b02820302808b02820302808b02820302808b029091030291819003819004600101868411909503948502929095039490940417928302935084905080156127b9575084806127b3576127b36132d9565b86880915155b156127cc57826127c8816132ef565b9350505b5050949350505050565b6060824710156128375760405162461bcd60e51b815260206004820152602660248201527f416464726573733a20696e73756666696369656e742062616c616e636520666f6044820152651c8818d85b1b60d21b6064820152608401611830565b6001600160a01b0385163b61288e5760405162461bcd60e51b815260206004820152601d60248201527f416464726573733a2063616c6c20746f206e6f6e2d636f6e74726163740000006044820152606401611830565b600080866001600160a01b031685876040516128aa919061330a565b60006040518083038185875af1925050503d80600081146128e7576040519150601f19603f3d011682016040523d82523d6000602084013e6128ec565b606091505b50915091506128fc828286612961565b979650505050505050565b6000806000198385098385029250828110838203039150509250929050565b60006129328385613326565b90508180156129495750612946838561333a565b15155b156117bf5780612958816132ef565b95945050505050565b606083156129705750816117bf565b8251156129805782518084602001fd5b8160405162461bcd60e51b8152600401611830919061334e565b6000602082840312156129ac57600080fd5b5035919050565b600061010082840312156129c657600080fd5b50919050565b6000602082840312156129de57600080fd5b81356001600160401b038111156129f457600080fd5b610e68848285016129b3565b60005b83811015612a1b578181015183820152602001612a03565b8381111561240c5750506000910152565b60008151808452612a44816020860160208601612a00565b601f01601f19169290920160200192915050565b848152836020820152826040820152608060608201526000612a7d6080830184612a2c565b9695505050505050565b600060208284031215612a9957600080fd5b81356001600160401b03811115612aaf57600080fd5b820160e081850312156117bf57600080fd5b600060208284031215612ad357600080fd5b81356001600160401b03811115612ae957600080fd5b820161012081850312156117bf57600080fd5b80356001600160a01b0381168114612b1357600080fd5b919050565b600381106122ba57600080fd5b8035612b1381612b18565b60008060008060808587031215612b4657600080fd5b8435935060208501359250612b5d60408601612afc565b91506060850135612b6d81612b18565b939692955090935050565b838152826020820152606060408201526000610e656060830184612a2c565b600080600080600060a08688031215612baf57600080fd5b8535945060208601359350612bc660408701612afc565b92506060860135612bd681612b18565b949793965091946080013592915050565b600080600060608486031215612bfc57600080fd5b83359250602084013591506040840135612c1581612b18565b809150509250925092565b634e487b7160e01b600052603260045260246000fd5b634e487b7160e01b600052604160045260246000fd5b60405161010081016001600160401b0381118282101715612c6f57612c6f612c36565b60405290565b60405160e081016001600160401b0381118282101715612c6f57612c6f612c36565b60405161012081016001600160401b0381118282101715612c6f57612c6f612c36565b604051601f8201601f191681016001600160401b0381118282101715612ce257612ce2612c36565b604052919050565b600281106122ba57600080fd5b8035612b1381612cea565b60006001600160401b03821115612d1b57612d1b612c36565b50601f01601f191660200190565b600082601f830112612d3a57600080fd5b8135612d4d612d4882612d02565b612cba565b818152846020838601011115612d6257600080fd5b816020850160208301376000918101602001919091529392505050565b60006101008236031215612d9257600080fd5b612d9a612c4c565b8235815260208301356020820152612db460408401612afc565b6040820152612dc560608401612afc565b6060820152612dd660808401612cf7565b608082015260a083013560a082015260c083013560c082015260e08301356001600160401b03811115612e0857600080fd5b612e1436828601612d29565b60e08301525092915050565b600060208284031215612e3257600080fd5b81356117bf81612cea565b600060208284031215612e4f57600080fd5b6117bf82612afc565b6000808335601e19843603018112612e6f57600080fd5b8301803591506001600160401b03821115612e8957600080fd5b602001915036819003821315612e9e57600080fd5b9250929050565b8051825260208101516020830152604081015160408301526060810151606083015260808101516080830152600060a082015160c060a0850152610e6860c0850182612a2c565b6020815260006117bf6020830184612ea5565b600060208284031215612f1157600080fd5b81516001600160401b03811115612f2757600080fd5b8201601f81018413612f3857600080fd5b8051612f46612d4882612d02565b818152856020838501011115612f5b57600080fd5b612958826020830160208601612a00565b634e487b7160e01b600052601160045260246000fd5b600082821015612f9457612f94612f6c565b500390565b600060e08236031215612fab57600080fd5b612fb3612c75565b8235815260208301356020820152612fcd60408401612afc565b6040820152612fde60608401612afc565b6060820152612fef60808401612b25565b608082015260a083013560a082015260c08301356001600160401b0381111561301757600080fd5b61302336828601612d29565b60c08301525092915050565b60006020828403121561304157600080fd5b81356117bf81612b18565b6000610120823603121561305f57600080fd5b613067612c97565b823581526020830135602082015261308160408401612afc565b604082015261309260608401612afc565b60608201526130a360808401612afc565b60808201526130b460a08401612cf7565b60a082015260c083013560c082015260e083013560e0820152610100808401356001600160401b038111156130e857600080fd5b6130f436828701612d29565b918301919091525092915050565b60006020828403121561311457600080fd5b5051919050565b6000821982111561312e5761312e612f6c565b500190565b634e487b7160e01b600052603160045260246000fd5b80151581146122ba57600080fd5b8035612b1381613149565b6000610100823603121561317557600080fd5b61317d612c4c565b823581526020830135602082015261319760408401612afc565b60408201526131a860608401612afc565b60608201526131b960808401613157565b60808201526131ca60a08401612cf7565b60a082015260c083013560c082015260e08301356001600160401b03811115612e0857600080fd5b60006020828403121561320457600080fd5b81356117bf81613149565b60208152815160208201526020820151604082015260408201511515606082015260608201516080820152608082015160a0820152600060a083015160c080840152610e6860e0840182612a2c565b634e487b7160e01b600052602160045260246000fd5b6001600160a01b0385811682528416602082015260808101600384106132aa57634e487b7160e01b600052602160045260246000fd5b60408201939093526060015292915050565b6000602082840312156132ce57600080fd5b81516117bf81613149565b634e487b7160e01b600052601260045260246000fd5b600060001982141561330357613303612f6c565b5060010190565b6000825161331c818460208701612a00565b9190910192915050565b600082613335576133356132d9565b500490565b600082613349576133496132d9565b500690565b6020815260006117bf6020830184612a2c56fea26469706673582212202efa032f576d4bf0ea718d0fa40c90c266b9146dfa94b0456dfa3b42ba1256e264736f6c63430008080033",
  "linkReferences": {},
  "deployedLinkReferences": {}
}