{
  "_format": "hh-sol-artifact-1",
  "contractName": "TimeswapV2PeripheryUniswapV3QuoterCollectTransactionFees",
  "sourceName": "@timeswap-labs/v2-periphery-uniswapV3/contracts/lens/TimeswapV2PeripheryUniswapV3QuoterCollectTransactionFees.sol",
  "abi": [
    {
      "inputs": [
        {
          "internalType": "address",
          "name": "chosenOptionFactory",
          "type": "address"
        },
        {
          "internalType": "address",
          "name": "chosenPoolFactory",
          "type": "address"
        },
        {
          "internalType": "address",
          "name": "chosenTokens",
          "type": "address"
        },
        {
          "internalType": "address",
          "name": "chosenLiquidityTokens",
          "type": "address"
        },
        {
          "internalType": "address",
          "name": "chosenUniswapV3Factory",
          "type": "address"
        }
      ],
      "stateMutability": "nonpayable",
      "type": "constructor"
    },
    {
      "inputs": [
        {
          "internalType": "uint256",
          "name": "addendA0",
          "type": "uint256"
        },
        {
          "internalType": "uint256",
          "name": "addendA1",
          "type": "uint256"
        },
        {
          "internalType": "uint256",
          "name": "addendB0",
          "type": "uint256"
        },
        {
          "internalType": "uint256",
          "name": "addendB1",
          "type": "uint256"
        }
      ],
      "name": "AddOverflow",
      "type": "error"
    },
    {
      "inputs": [],
      "name": "CanOnlyBeCalledByOptionContract",
      "type": "error"
    },
    {
      "inputs": [],
      "name": "CanOnlyBeCalledByUniswapV3Contract",
      "type": "error"
    },
    {
      "inputs": [
        {
          "internalType": "uint256",
          "name": "dividend0",
          "type": "uint256"
        },
        {
          "internalType": "uint256",
          "name": "dividend1",
          "type": "uint256"
        },
        {
          "internalType": "uint256",
          "name": "divisor",
          "type": "uint256"
        }
      ],
      "name": "DivOverflow",
      "type": "error"
    },
    {
      "inputs": [],
      "name": "DivideByZero",
      "type": "error"
    },
    {
      "inputs": [],
      "name": "ModuloByZero",
      "type": "error"
    },
    {
      "inputs": [
        {
          "internalType": "uint256",
          "name": "multiplicand",
          "type": "uint256"
        },
        {
          "internalType": "uint256",
          "name": "multiplier",
          "type": "uint256"
        },
        {
          "internalType": "uint256",
          "name": "divisor",
          "type": "uint256"
        }
      ],
      "name": "MulDivOverflow",
      "type": "error"
    },
    {
      "inputs": [
        {
          "internalType": "string",
          "name": "revertString",
          "type": "string"
        }
      ],
      "name": "MulticallFailed",
      "type": "error"
    },
    {
      "inputs": [
        {
          "internalType": "uint256",
          "name": "minuend",
          "type": "uint256"
        },
        {
          "internalType": "uint256",
          "name": "subtrahend",
          "type": "uint256"
        }
      ],
      "name": "NotEnoughReceived",
      "type": "error"
    },
    {
      "inputs": [
        {
          "internalType": "int256",
          "name": "amount0",
          "type": "int256"
        },
        {
          "internalType": "int256",
          "name": "amount1",
          "type": "int256"
        }
      ],
      "name": "PassCalculateInfo",
      "type": "error"
    },
    {
      "inputs": [
        {
          "internalType": "uint256",
          "name": "shortAmountBurnt",
          "type": "uint256"
        },
        {
          "internalType": "bytes",
          "name": "data",
          "type": "bytes"
        }
      ],
      "name": "PassOptionBurnCallbackInfo",
      "type": "error"
    },
    {
      "inputs": [],
      "name": "Uint160Overflow",
      "type": "error"
    },
    {
      "inputs": [],
      "name": "ZeroAddress",
      "type": "error"
    },
    {
      "inputs": [],
      "name": "ZeroPoolAddress",
      "type": "error"
    },
    {
      "inputs": [
        {
          "components": [
            {
              "internalType": "address",
              "name": "token0",
              "type": "address"
            },
            {
              "internalType": "address",
              "name": "token1",
              "type": "address"
            },
            {
              "internalType": "uint256",
              "name": "strike",
              "type": "uint256"
            },
            {
              "internalType": "uint256",
              "name": "maturity",
              "type": "uint256"
            },
            {
              "internalType": "uint24",
              "name": "uniswapV3Fee",
              "type": "uint24"
            },
            {
              "internalType": "address",
              "name": "tokenTo",
              "type": "address"
            },
            {
              "internalType": "address",
              "name": "excessLong0To",
              "type": "address"
            },
            {
              "internalType": "address",
              "name": "excessLong1To",
              "type": "address"
            },
            {
              "internalType": "address",
              "name": "excessShortTo",
              "type": "address"
            },
            {
              "internalType": "bool",
              "name": "isToken0",
              "type": "bool"
            },
            {
              "internalType": "uint256",
              "name": "long0Requested",
              "type": "uint256"
            },
            {
              "internalType": "uint256",
              "name": "long1Requested",
              "type": "uint256"
            },
            {
              "internalType": "uint256",
              "name": "shortRequested",
              "type": "uint256"
            }
          ],
          "internalType": "struct TimeswapV2PeripheryUniswapV3QuoterCollectTransactionFeesParam",
          "name": "param",
          "type": "tuple"
        }
      ],
      "name": "collectTransactionFees",
      "outputs": [
        {
          "internalType": "uint256",
          "name": "tokenAmount",
          "type": "uint256"
        },
        {
          "internalType": "uint256",
          "name": "excessLong0Amount",
          "type": "uint256"
        },
        {
          "internalType": "uint256",
          "name": "excessLong1Amount",
          "type": "uint256"
        },
        {
          "internalType": "uint256",
          "name": "excessShortAmount",
          "type": "uint256"
        },
        {
          "internalType": "uint160",
          "name": "uniswapV3SqrtPriceAfter",
          "type": "uint160"
        }
      ],
      "stateMutability": "nonpayable",
      "type": "function"
    },
    {
      "inputs": [],
      "name": "liquidityTokens",
      "outputs": [
        {
          "internalType": "address",
          "name": "",
          "type": "address"
        }
      ],
      "stateMutability": "view",
      "type": "function"
    },
    {
      "inputs": [
        {
          "internalType": "bytes[]",
          "name": "data",
          "type": "bytes[]"
        }
      ],
      "name": "multicall",
      "outputs": [
        {
          "internalType": "bytes[]",
          "name": "results",
          "type": "bytes[]"
        }
      ],
      "stateMutability": "payable",
      "type": "function"
    },
    {
      "inputs": [],
      "name": "optionFactory",
      "outputs": [
        {
          "internalType": "address",
          "name": "",
          "type": "address"
        }
      ],
      "stateMutability": "view",
      "type": "function"
    },
    {
      "inputs": [],
      "name": "poolFactory",
      "outputs": [
        {
          "internalType": "address",
          "name": "",
          "type": "address"
        }
      ],
      "stateMutability": "view",
      "type": "function"
    },
    {
      "inputs": [
        {
          "components": [
            {
              "internalType": "uint256",
              "name": "strike",
              "type": "uint256"
            },
            {
              "internalType": "uint256",
              "name": "maturity",
              "type": "uint256"
            },
            {
              "internalType": "uint256",
              "name": "token0AndLong0Amount",
              "type": "uint256"
            },
            {
              "internalType": "uint256",
              "name": "token1AndLong1Amount",
              "type": "uint256"
            },
            {
              "internalType": "uint256",
              "name": "shortAmount",
              "type": "uint256"
            },
            {
              "internalType": "bytes",
              "name": "data",
              "type": "bytes"
            }
          ],
          "internalType": "struct TimeswapV2OptionBurnCallbackParam",
          "name": "param",
          "type": "tuple"
        }
      ],
      "name": "timeswapV2OptionBurnCallback",
      "outputs": [
        {
          "internalType": "bytes",
          "name": "data",
          "type": "bytes"
        }
      ],
      "stateMutability": "view",
      "type": "function"
    },
    {
      "inputs": [],
      "name": "tokens",
      "outputs": [
        {
          "internalType": "address",
          "name": "",
          "type": "address"
        }
      ],
      "stateMutability": "view",
      "type": "function"
    },
    {
      "inputs": [],
      "name": "uniswapV3Factory",
      "outputs": [
        {
          "internalType": "address",
          "name": "",
          "type": "address"
        }
      ],
      "stateMutability": "view",
      "type": "function"
    },
    {
      "inputs": [
        {
          "internalType": "int256",
          "name": "amount0Delta",
          "type": "int256"
        },
        {
          "internalType": "int256",
          "name": "amount1Delta",
          "type": "int256"
        },
        {
          "internalType": "bytes",
          "name": "data",
          "type": "bytes"
        }
      ],
      "name": "uniswapV3SwapCallback",
      "outputs": [],
      "stateMutability": "nonpayable",
      "type": "function"
    }
  ],
  "bytecode": "0x6101206040523480156200001257600080fd5b50604051620031aa380380620031aa83398101604081905262000035916200008a565b6001600160601b0319606091821b811660805294811b851660a05292831b841660c05290821b831660e052901b1661010052620000fa565b80516001600160a01b03811681146200008557600080fd5b919050565b600080600080600060a08688031215620000a357600080fd5b620000ae866200006d565b9450620000be602087016200006d565b9350620000ce604087016200006d565b9250620000de606087016200006d565b9150620000ee608087016200006d565b90509295509295909350565b60805160601c60a05160601c60c05160601c60e05160601c6101005160601c61301f6200018b6000396000818160ee015261085f015260006101d4015260008181609d01526107b9015260008181610228015281816104f6015281816107980152610a7e0152600081816101220152818161071101528181610c5301528181610f5201526117b8015261301f6000f3fe6080604052600436106100865760003560e01c80638c5f0851116100595780638c5f0851146101955780639d63848a146101c2578063ac9650d8146101f6578063b3461c8714610216578063fa461e331461024a57600080fd5b80634219dc401461008b5780634b8ce602146100dc5780635b54918214610110578063682c13f514610144575b600080fd5b34801561009757600080fd5b506100bf7f000000000000000000000000000000000000000000000000000000000000000081565b6040516001600160a01b0390911681526020015b60405180910390f35b3480156100e857600080fd5b506100bf7f000000000000000000000000000000000000000000000000000000000000000081565b34801561011c57600080fd5b506100bf7f000000000000000000000000000000000000000000000000000000000000000081565b34801561015057600080fd5b5061016461015f36600461256b565b61026c565b6040805195865260208601949094529284019190915260608301526001600160a01b0316608082015260a0016100d3565b3480156101a157600080fd5b506101b56101b0366004612584565b6104cb565b6040516100d39190612617565b3480156101ce57600080fd5b506100bf7f000000000000000000000000000000000000000000000000000000000000000081565b61020961020436600461262a565b610546565b6040516100d3919061269f565b34801561022257600080fd5b506100bf7f000000000000000000000000000000000000000000000000000000000000000081565b34801561025657600080fd5b5061026a610265366004612701565b6106d4565b005b6000808080808061028360a0880160808901612792565b61029561014089016101208a016127bd565b6040805162ffffff90931660208401529015159082015260600160408051601f198184030181526101a083019091529150600090819061041d90806102dd60208d018d6127ef565b6001600160a01b031681526020018b60200160208101906102fe91906127ef565b6001600160a01b031681526020018b6040013581526020018b6060013581526020018b61012001602081019061033491906127bd565b61033e573061034e565b61034e60c08d0160a08e016127ef565b6001600160a01b0316815260200161036e6101408d016101208e016127bd565b6103875761038260c08d0160a08e016127ef565b610389565b305b6001600160a01b031681526020016103a760e08d0160c08e016127ef565b6001600160a01b031681526020016103c66101008d0160e08e016127ef565b6001600160a01b031681526020016103e66101208d016101008e016127ef565b6001600160a01b031681526101408c013560208201526101608c013560408201526101808c01356060820152608001859052610787565b929b509099509750945090925090506104ba61043c60208b018b6127ef565b61044c60408c0160208d016127ef565b60408c013561046160a08e0160808f01612792565b8d60a001602081019061047491906127ef565b8e61012001602081019061048891906127bd565b88888f15801561049657508e155b6104b3578b8060200190518101906104ae919061280c565b610c3a565b6000610c3a565b909a97995095975093959350505050565b60606000806104dd60a0850185612829565b8101906104ea919061293c565b9450909250905061051c7f00000000000000000000000000000000000000000000000000000000000000008383610de1565b8360800135836040516309d7e9ab60e01b815260040161053d92919061299e565b60405180910390fd5b60608167ffffffffffffffff81111561056157610561612877565b60405190808252806020026020018201604052801561059457816020015b606081526020019060019003908161057f5790505b50905060005b828110156106cd57600080308686858181106105b8576105b86129b7565b90506020028101906105ca9190612829565b6040516105d89291906129cd565b600060405180830381855af49150503d8060008114610613576040519150601f19603f3d011682016040523d82523d6000602084013e610618565b606091505b50915091508161069a5760448151101561066657604051635d2f436f60e11b815260206004820152600e60248201526d125b9d985b1a590814995cdd5b1d60921b604482015260640161053d565b600481019050808060200190518101906106809190612a0d565b604051635d2f436f60e11b815260040161053d9190612617565b808484815181106106ad576106ad6129b7565b6020026020010181905250505080806106c590612a6c565b91505061059a565b5092915050565b6000806106e383850185612a87565b915091508115610774576000806000838060200190518101906107069190612ad7565b9250925092506107387f0000000000000000000000000000000000000000000000000000000000000000848484610e97565b61076c3360008b1361074a578961074c565b8a5b60008c1361075a578461075c565b855b6001600160a01b03169190610ed7565b50505061077f565b61077f868683610f2e565b505050505050565b6000806000806000606060006107e77f00000000000000000000000000000000000000000000000000000000000000007f00000000000000000000000000000000000000000000000000000000000000008a600001518b60200151610f83565b6040808b015160608c015191516305f6acbd60e31b81529294506001600160a01b0385169350632fb565e8926108299290600401918252602082015260400190565b600060405180830381600087803b15801561084357600080fd5b505af1158015610857573d6000803e3d6000fd5b5050505060007f00000000000000000000000000000000000000000000000000000000000000006001600160a01b0316637facccee3360405180608001604052808d600001516001600160a01b031681526020018d602001516001600160a01b031681526020018d6040015181526020018d606001518152506040518363ffffffff1660e01b815260040161092a9291906001600160a01b039283168152815183166020808301919091528201519092166040808401919091528101516060808401919091520151608082015260a00190565b60606040518083038186803b15801561094257600080fd5b505afa158015610956573d6000803e3d6000fd5b505050506040513d601f19601f8201168201806040525081019061097a9190612b24565b6101208c0151929a509098509150610993908990611038565b97506109ad8961014001518861103890919063ffffffff16565b96506109c78961016001518261103890919063ffffffff16565b905060006109dc89898c604001516001611052565b90508082106109f75780820394508961018001519350610c2e565b889650879550610a666040518061010001604052808c600001516001600160a01b031681526020018c602001516001600160a01b031681526020018c6040015181526020018c6060015181526020018b81526020018a81526020018481526020018c61018001518152506110a0565b8c5160208e0151939c50919a509550600091610aa3917f00000000000000000000000000000000000000000000000000000000000000009161116a565b90506000816001600160a01b031663622fb68f6040518061010001604052808f6040015181526020018f6060015181526020018f608001516001600160a01b031681526020018f60a001516001600160a01b0316815260200160006001811115610b0f57610b0f612b52565b81526020018e81526020018d8152602001604051806020016040528060008152508152506040518263ffffffff1660e01b8152600401610b4f9190612b8a565b600060405180830381600087803b158015610b6957600080fd5b505af1925050508015610b9e57506040513d6000823e601f3d908101601f19168201604052610b9b9190810190612c26565b60015b610c04573d808015610bcc576040519150601f19603f3d011682016040523d82523d6000602084013e610bd1565b606091505b50610be3816309d7e9ab60e01b611196565b965086806020019051810190610bf99190612c80565b97509150610c099050565b505050505b610c138185611204565b610c1d8b8a612cbd565b9850610c298a89612cbd565b975050505b50505091939550919395565b60008085610c485783610c4a565b845b91506000610c7a7f00000000000000000000000000000000000000000000000000000000000000008d8d8c611233565b905086610c875785610c89565b845b15610d575760008c8c8b604051602001610ca593929190612cd4565b6040516020818303038152906040529050600181604051602001610cca929190612cfc565b60408051601f1981840301815260c0830182526001600160a01b038c1683528a1560208401526001918301919091529150600090610d3e90606081018b610d11578a610d13565b895b815260200188610d23578e610d26565b60005b81526020018490526001600160a01b03851690611255565b95509150610d4e90508186612d17565b94505050610dd2565b806001600160a01b0316633850c7bd6040518163ffffffff1660e01b815260040160e06040518083038186803b158015610d9057600080fd5b505afa158015610da4573d6000803e3d6000fd5b505050506040513d601f19601f82011682018060405250810190610dc89190612d46565b5094965050505050505b50995099975050505050505050565b60405163d81e842360e01b81526001600160a01b03838116600483015282811660248301526000919085169063d81e84239060440160206040518083038186803b158015610e2e57600080fd5b505afa158015610e42573d6000803e3d6000fd5b505050506040513d601f19601f82011682018060405250810190610e669190612de5565b90506001600160a01b0381163314610e915760405163a5fbb7d960e01b815260040160405180910390fd5b50505050565b6000610ea585858585611594565b90506001600160a01b0381163314610ed0576040516307c1698f60e01b815260040160405180910390fd5b5050505050565b604080516001600160a01b038416602482015260448082018490528251808303909101815260649091019091526020810180516001600160e01b031663a9059cbb60e01b179052610f29908490611617565b505050565b600080600083806020019051810190610f479190612ad7565b925092509250610f797f0000000000000000000000000000000000000000000000000000000000000000848484610e97565b61077f86866116e9565b600080610f9a6001600160a01b038716858561116a565b6040516330af0bbf60e21b81526001600160a01b0380831660048301529193509086169063c2bc2efc9060240160206040518083038186803b158015610fdf57600080fd5b505afa158015610ff3573d6000803e3d6000fd5b505050506040513d601f19601f820116820180604052508101906110179190612de5565b90506001600160a01b03811661102f5761102f61170c565b94509492505050565b60008183106110475781611049565b825b90505b92915050565b60006001600160801b03831161107e5761106f8584600185611725565b6110799085612d17565b611095565b61108b8484600085611725565b6110959086612d17565b90505b949350505050565b60008060606000808560e001518060200190518101906110c09190612e02565b91509150600061113960405180610100016040528089600001516001600160a01b0316815260200189602001516001600160a01b03168152602001896040015181526020018562ffffff1681526020018415158152602001896080015181526020018960a0015181526020018960c0015181525061174c565b6040805184151560208201529299509097509192500160405160208183030381529060405293505050509193909250565b6000611177848484611940565b90506001600160a01b03811661118f5761118f61170c565b9392505050565b815160609060206111a8600483612cbd565b6111b29190612e52565b1580156111da57506001600160e01b031983166111ce85612e66565b6001600160e01b031916145b156111fc576111f48460046111ef8185612cbd565b6119c5565b91505061104c565b835184602001fd5b8082101561122f57604051631c22ff0160e21b8152600481018390526024810182905260440161053d565b5050565b600061124185858585611594565b9050611098816001600160a01b0316611ad2565b6000806000846001600160a01b0316633850c7bd6040518163ffffffff1660e01b815260040160e06040518083038186803b15801561129357600080fd5b505afa1580156112a7573d6000803e3d6000fd5b505050506040513d601f19601f820116820180604052508101906112cb9190612d46565b5050506080880151939450600093151592506113219150505784602001516113115761130c600173fffd8963efd1fc6a506488495d951d5263988d26612e9d565b61132e565b61130c6401000276a36001612ec5565b61132e8560800151611afc565b90506401000276a36001600160a01b03821611611358576113556401000276a36001612ec5565b90505b73fffd8963efd1fc6a506488495d951d5263988d266001600160a01b0382161061139e5761139b600173fffd8963efd1fc6a506488495d951d5263988d26612e9d565b90505b84602001516113c157806001600160a01b0316826001600160a01b0316106113d7565b806001600160a01b0316826001600160a01b0316115b1561151157600080876001600160a01b031663128acb083089602001518a604001516114185761140a8b60600151611b4c565b61141390612ef0565b611425565b6114258b60600151611b4c565b878c60a001516040518663ffffffff1660e01b815260040161144b959493929190612f0d565b6040805180830381600087803b15801561146457600080fd5b505af1925050508015611494575060408051601f3d908101601f1916820190925261149191810190612f48565b60015b6114df573d8080156114c2576040519150601f19603f3d011682016040523d82523d6000602084013e6114c7565b606091505b506114d181611b62565b965090935091506114e29050565b50505b86602001516114fa57806114f583612ef0565b611504565b8161150482612ef0565b909650945061158c915050565b856001600160a01b0316633850c7bd6040518163ffffffff1660e01b815260040160e06040518083038186803b15801561154a57600080fd5b505afa15801561155e573d6000803e3d6000fd5b505050506040513d601f19601f820116820180604052508101906115829190612d46565b5094965050505050505b509250925092565b604051630b4c774160e11b81526000906001600160a01b03861690631698ee82906115c790879087908790600401612cd4565b60206040518083038186803b1580156115df57600080fd5b505afa1580156115f3573d6000803e3d6000fd5b505050506040513d601f19601f820116820180604052508101906110959190612de5565b600061166c826040518060400160405280602081526020017f5361666545524332303a206c6f772d6c6576656c2063616c6c206661696c6564815250856001600160a01b0316611b979092919063ffffffff16565b805190915015610f29578080602001905181019061168a919061280c565b610f295760405162461bcd60e51b815260206004820152602a60248201527f5361666545524332303a204552433230206f7065726174696f6e20646964206e6044820152691bdd081cdd58d8d9595960b21b606482015260840161053d565b6040516377760aaf60e11b8152600481018390526024810182905260440161053d565b60405163d92e233d60e01b815260040160405180910390fd5b60008261173c5761107985600160801b8685611ba6565b6110958585600160801b85611ba6565b60008060008061178e8560800151611768578560c0015161176e565b8560a001515b6117888760e0015188604001518960800151156000611ca2565b90611038565b905060008086608001516117a6578660a001516117ac565b8660c001515b1561190e5760006117eb7f000000000000000000000000000000000000000000000000000000000000000089600001518a602001518b60600151611233565b905060006118248960800151611805578960a0015161180b565b8960c001515b6117888b60e001518c604001518d608001516000611ca2565b89516020808c015160608d0151604051949550600094611845949301612cd4565b604051602081830303815290604052905060008160405160200161186a929190612cfc565b60408051601f1981840301815260a0830182526080808e015115845260016020850152838301869052918d0151606084015290820181905291506118b8906001600160a01b03851690611ce2565b508095505050506118da8860e00151848a604001518b60800151156000611f95565b91508382111561190857600196508391506119058860e00151838a604001518b608001516000611f95565b92505b50611911565b50815b86608001516119205781611922565b805b945086608001516119335780611935565b815b959794965050505050565b60405163d81e842360e01b81526001600160a01b03838116600483015282811660248301526000919085169063d81e84239060440160206040518083038186803b15801561198d57600080fd5b505afa1580156119a1573d6000803e3d6000fd5b505050506040513d601f19601f820116820180604052508101906110989190612de5565b6060816119d381601f612d17565b1015611a125760405162461bcd60e51b815260206004820152600e60248201526d736c6963655f6f766572666c6f7760901b604482015260640161053d565b611a1c8284612d17565b84511015611a605760405162461bcd60e51b8152602060048201526011602482015270736c6963655f6f75744f66426f756e647360781b604482015260640161053d565b606082158015611a7f5760405191506000825260208201604052611ac9565b6040519150601f8416801560200281840101858101878315602002848b0101015b81831015611ab8578051835260209283019201611aa0565b5050858452601f01601f1916604052505b50949350505050565b6001600160a01b038116611af95760405163037064f160e01b815260040160405180910390fd5b50565b60006001600160c01b038211611b235761104c611b1e604084901b6000612010565b61208e565b600080611b3984680100000000000000006120b8565b91509150611098611b1e838360006120d7565b6000600160ff1b8210611b5e57600080fd5b5090565b60008080611b7784633ab8e87b60e21b611196565b806020019051810190611b8a9190612f6c565b9250925092509193909250565b60606110988484600085612165565b6000806000611bb587876120b8565b915091508060001415611bd657611bcd828686612296565b92505050611098565b808511611c075760405163362ced0960e11b815260048101889052602481018790526044810186905260640161053d565b600085878909600087810388169788900497600260038a028118808b02820302808b02820302808b02820302808b02820302808b02820302808b02909103029181900381900460010186841190950394850292909503949094041792830293508490508015611c8557508480611c7f57611c7f612e3c565b86880915155b15611c985782611c9481612a6c565b9350505b5050949350505050565b60006001600160801b038411611cca5782611cc4576110798585600085611725565b84611095565b82611cd55784611095565b6110958585600185611725565b6000806000846001600160a01b0316633850c7bd6040518163ffffffff1660e01b815260040160e06040518083038186803b158015611d2057600080fd5b505afa158015611d34573d6000803e3d6000fd5b505050506040513d601f19601f82011682018060405250810190611d589190612d46565b50505050505090506000846060015160001415611da9578451611d9957611d94600173fffd8963efd1fc6a506488495d951d5263988d26612e9d565b611db6565b611d946401000276a36001612ec5565b611db68560600151611afc565b90506401000276a36001600160a01b03821611611de057611ddd6401000276a36001612ec5565b90505b73fffd8963efd1fc6a506488495d951d5263988d266001600160a01b03821610611e2657611e23600173fffd8963efd1fc6a506488495d951d5263988d26612e9d565b90505b8451611e4657816001600160a01b0316816001600160a01b031611611e5c565b816001600160a01b0316816001600160a01b0316105b15611f8c57600080876001600160a01b031663128acb083089600001518a60200151611e9d57611e8f8b60400151611b4c565b611e9890612ef0565b611eaa565b611eaa8b60400151611b4c565b878c608001516040518663ffffffff1660e01b8152600401611ed0959493929190612f0d565b6040805180830381600087803b158015611ee957600080fd5b505af1925050508015611f19575060408051601f3d908101601f19168201909252611f1691810190612f48565b60015b611f62573d808015611f47576040519150601f19603f3d011682016040523d82523d6000602084013e611f4c565b606091505b50611f56816122d1565b9093509150611f659050565b50505b8651611f7a5780611f7583612ef0565b611f84565b81611f8482612ef0565b909650945050505b50509250929050565b60006001600160801b038411611fdd5782611fc557611fc0611fb78688612cbd565b85600085611725565b612006565b611fd3858560018515611725565b611fc09087612cbd565b82611ff057611fd3858560008515611725565b612006611ffd8688612cbd565b85600185611725565b9695505050505050565b600060001983141561202a57506001600160801b0361104c565b826120375750600061104c565b50816001818101901c5b818110156120695780915060018182868161205e5761205e612e3c565b0401901c9050612041565b5081801561207f57508261207d8280612f9a565b105b1561104c578061109881612a6c565b60006001600160a01b03821115611b5e57604051630ba006e160e41b815260040160405180910390fd5b6000806000198385098385029250828110838203039150509250929050565b6000826120ef576120e88483612010565b905061118f565b60006120fe8585600019612301565b905060001991505b818110156121235780915061211c858583612301565b9050612106565b821561215d5760008061213684856120b8565b915091508086118061214757508187115b1561215a578361215681612a6c565b9450505b50505b509392505050565b6060824710156121c65760405162461bcd60e51b815260206004820152602660248201527f416464726573733a20696e73756666696369656e742062616c616e636520666f6044820152651c8818d85b1b60d21b606482015260840161053d565b6001600160a01b0385163b61221d5760405162461bcd60e51b815260206004820152601d60248201527f416464726573733a2063616c6c20746f206e6f6e2d636f6e7472616374000000604482015260640161053d565b600080866001600160a01b031685876040516122399190612fb9565b60006040518083038185875af1925050503d8060008114612276576040519150601f19603f3d011682016040523d82523d6000602084013e61227b565b606091505b509150915061228b828286612336565b979650505050505050565b60006122a28385612fd5565b90508180156122b957506122b68385612e52565b15155b1561118f57806122c881612a6c565b95945050505050565b6000806122e5836377760aaf60e11b611196565b8060200190518101906122f89190612f48565b91509150915091565b600080612311858585600061236f565b905060006123238260008660006123f4565b909250905061200682826002600061236f565b6060831561234557508161118f565b8251156123555782518084602001fd5b8160405162461bcd60e51b815260040161053d9190612617565b60008061237d868686612465565b909250905080156123b257604051636aa917ab60e01b815260048101879052602481018690526044810185905260640161053d565b8215611ac9576000806123c584876120b8565b91509150808711806123d657508188115b156123e957836123e581612a6c565b9450505b505050949350505050565b81840184811082850181019080156124215781158061241c5750612419600183612cbd565b86115b612425565b8186115b1561245b576040516347b1893f60e01b81526004810188905260248101879052604481018690526064810185905260840161053d565b5094509492505050565b600080836124805761247985846000612296565b915061250c565b600061248b84612514565b9050600061249885612541565b90505b85156124ec576000806124ae88856120b8565b915091506124be868684846123f4565b90965094506124cd88846120b8565b90925090506124df82828b60006123f4565b909950975061249b915050565b61250484846124fd8a896000612296565b60006123f4565b909450925050505b935093915050565b600081612534576040516301de42a960e41b815260040160405180910390fd5b5060008190030460010190565b600081612561576040516319dbad9f60e01b815260040160405180910390fd5b5060008190030690565b60006101a0828403121561257e57600080fd5b50919050565b60006020828403121561259657600080fd5b813567ffffffffffffffff8111156125ad57600080fd5b820160c0818503121561118f57600080fd5b60005b838110156125da5781810151838201526020016125c2565b83811115610e915750506000910152565b600081518084526126038160208601602086016125bf565b601f01601f19169290920160200192915050565b60208152600061104960208301846125eb565b6000806020838503121561263d57600080fd5b823567ffffffffffffffff8082111561265557600080fd5b818501915085601f83011261266957600080fd5b81358181111561267857600080fd5b8660208260051b850101111561268d57600080fd5b60209290920196919550909350505050565b6000602080830181845280855180835260408601915060408160051b870101925083870160005b828110156126f457603f198886030184526126e28583516125eb565b945092850192908501906001016126c6565b5092979650505050505050565b6000806000806060858703121561271757600080fd5b8435935060208501359250604085013567ffffffffffffffff8082111561273d57600080fd5b818701915087601f83011261275157600080fd5b81358181111561276057600080fd5b88602082850101111561277257600080fd5b95989497505060200194505050565b62ffffff81168114611af957600080fd5b6000602082840312156127a457600080fd5b813561118f81612781565b8015158114611af957600080fd5b6000602082840312156127cf57600080fd5b813561118f816127af565b6001600160a01b0381168114611af957600080fd5b60006020828403121561280157600080fd5b813561118f816127da565b60006020828403121561281e57600080fd5b815161118f816127af565b6000808335601e1984360301811261284057600080fd5b83018035915067ffffffffffffffff82111561285b57600080fd5b60200191503681900382131561287057600080fd5b9250929050565b634e487b7160e01b600052604160045260246000fd5b604051601f8201601f1916810167ffffffffffffffff811182821017156128b6576128b6612877565b604052919050565b600067ffffffffffffffff8211156128d8576128d8612877565b50601f01601f191660200190565b600082601f8301126128f757600080fd5b813561290a612905826128be565b61288d565b81815284602083860101111561291f57600080fd5b816020850160208301376000918101602001919091529392505050565b60008060006060848603121561295157600080fd5b833561295c816127da565b9250602084013561296c816127da565b9150604084013567ffffffffffffffff81111561298857600080fd5b612994868287016128e6565b9150509250925092565b82815260406020820152600061109860408301846125eb565b634e487b7160e01b600052603260045260246000fd5b8183823760009101908152919050565b60006129eb612905846128be565b90508281528383830111156129ff57600080fd5b61118f8360208301846125bf565b600060208284031215612a1f57600080fd5b815167ffffffffffffffff811115612a3657600080fd5b8201601f81018413612a4757600080fd5b611098848251602084016129dd565b634e487b7160e01b600052601160045260246000fd5b6000600019821415612a8057612a80612a56565b5060010190565b60008060408385031215612a9a57600080fd5b8235612aa5816127af565b9150602083013567ffffffffffffffff811115612ac157600080fd5b612acd858286016128e6565b9150509250929050565b600080600060608486031215612aec57600080fd5b8351612af7816127da565b6020850151909350612b08816127da565b6040850151909250612b1981612781565b809150509250925092565b600080600060608486031215612b3957600080fd5b8351925060208401519150604084015190509250925092565b634e487b7160e01b600052602160045260246000fd5b60028110612b8657634e487b7160e01b600052602160045260246000fd5b9052565b6020815281516020820152602082015160408201526000604083015160018060a01b03808216606085015280606086015116608085015250506080830151612bd560a0840182612b68565b5060a083015160c083015260c083015160e083015260e08301516101008081850152506110986101208401826125eb565b600082601f830112612c1757600080fd5b611049838351602085016129dd565b60008060008060808587031215612c3c57600080fd5b845193506020850151925060408501519150606085015167ffffffffffffffff811115612c6857600080fd5b612c7487828801612c06565b91505092959194509250565b60008060408385031215612c9357600080fd5b82519150602083015167ffffffffffffffff811115612cb157600080fd5b612acd85828601612c06565b600082821015612ccf57612ccf612a56565b500390565b6001600160a01b03938416815291909216602082015262ffffff909116604082015260600190565b821515815260406020820152600061109860408301846125eb565b60008219821115612d2a57612d2a612a56565b500190565b805161ffff81168114612d4157600080fd5b919050565b600080600080600080600060e0888a031215612d6157600080fd5b8751612d6c816127da565b8097505060208801518060020b8114612d8457600080fd5b9550612d9260408901612d2f565b9450612da060608901612d2f565b9350612dae60808901612d2f565b925060a088015160ff81168114612dc457600080fd5b60c0890151909250612dd5816127af565b8091505092959891949750929550565b600060208284031215612df757600080fd5b815161118f816127da565b60008060408385031215612e1557600080fd5b8251612e2081612781565b6020840151909250612e31816127af565b809150509250929050565b634e487b7160e01b600052601260045260246000fd5b600082612e6157612e61612e3c565b500690565b805160208201516001600160e01b03198082169291906004831015612e955780818460040360031b1b83161693505b505050919050565b60006001600160a01b0383811690831681811015612ebd57612ebd612a56565b039392505050565b60006001600160a01b03828116848216808303821115612ee757612ee7612a56565b01949350505050565b6000600160ff1b821415612f0657612f06612a56565b5060000390565b6001600160a01b0386811682528515156020830152604082018590528316606082015260a06080820181905260009061228b908301846125eb565b60008060408385031215612f5b57600080fd5b505080516020909101519092909150565b600080600060608486031215612f8157600080fd5b83519250602084015191506040840151612b19816127da565b6000816000190483118215151615612fb457612fb4612a56565b500290565b60008251612fcb8184602087016125bf565b9190910192915050565b600082612fe457612fe4612e3c565b50049056fea2646970667358221220d85d2ba11cbcf3bfe704a3d14b90cca38f135761698ecfde7782f0adb85c2d7f64736f6c63430008080033",
  "linkReferences": {},
  "deployedLinkReferences": {}
}