{
  "_format": "hh-sol-artifact-1",
  "contractName": "TimeswapV2PeripheryUniswapV3Rebalance",
  "sourceName": "@timeswap-labs/v2-periphery-uniswapV3/contracts/TimeswapV2PeripheryUniswapV3Rebalance.sol",
  "abi": [
    {
      "inputs": [
        {
          "internalType": "address",
          "name": "chosenOptionFactory",
          "type": "address"
        },
        {
          "internalType": "address",
          "name": "chosenPoolFactory",
          "type": "address"
        },
        {
          "internalType": "address",
          "name": "chosenTokens",
          "type": "address"
        },
        {
          "internalType": "address",
          "name": "chosenUniswapV3Factory",
          "type": "address"
        },
        {
          "internalType": "address",
          "name": "chosenNative",
          "type": "address"
        }
      ],
      "stateMutability": "nonpayable",
      "type": "constructor"
    },
    {
      "inputs": [
        {
          "internalType": "uint256",
          "name": "addendA0",
          "type": "uint256"
        },
        {
          "internalType": "uint256",
          "name": "addendA1",
          "type": "uint256"
        },
        {
          "internalType": "uint256",
          "name": "addendB0",
          "type": "uint256"
        },
        {
          "internalType": "uint256",
          "name": "addendB1",
          "type": "uint256"
        }
      ],
      "name": "AddOverflow",
      "type": "error"
    },
    {
      "inputs": [
        {
          "internalType": "address",
          "name": "from",
          "type": "address"
        }
      ],
      "name": "CallerNotWrappedNative",
      "type": "error"
    },
    {
      "inputs": [],
      "name": "CanOnlyBeCalledByOptionContract",
      "type": "error"
    },
    {
      "inputs": [],
      "name": "CanOnlyBeCalledByPoolContract",
      "type": "error"
    },
    {
      "inputs": [],
      "name": "CanOnlyBeCalledByTokensContract",
      "type": "error"
    },
    {
      "inputs": [],
      "name": "CanOnlyBeCalledByUniswapV3Contract",
      "type": "error"
    },
    {
      "inputs": [
        {
          "internalType": "uint256",
          "name": "deadline",
          "type": "uint256"
        }
      ],
      "name": "DeadlineReached",
      "type": "error"
    },
    {
      "inputs": [
        {
          "internalType": "uint256",
          "name": "dividend0",
          "type": "uint256"
        },
        {
          "internalType": "uint256",
          "name": "dividend1",
          "type": "uint256"
        },
        {
          "internalType": "uint256",
          "name": "divisor",
          "type": "uint256"
        }
      ],
      "name": "DivOverflow",
      "type": "error"
    },
    {
      "inputs": [],
      "name": "DivideByZero",
      "type": "error"
    },
    {
      "inputs": [
        {
          "internalType": "uint256",
          "name": "value",
          "type": "uint256"
        }
      ],
      "name": "InsufficientWrappedNative",
      "type": "error"
    },
    {
      "inputs": [
        {
          "internalType": "uint256",
          "name": "excessShortAmount",
          "type": "uint256"
        },
        {
          "internalType": "uint256",
          "name": "minExcessShortAmount",
          "type": "uint256"
        }
      ],
      "name": "MinExcessShortReached",
      "type": "error"
    },
    {
      "inputs": [
        {
          "internalType": "uint256",
          "name": "tokenAmount",
          "type": "uint256"
        },
        {
          "internalType": "uint256",
          "name": "minTokenAmount",
          "type": "uint256"
        }
      ],
      "name": "MinTokenReached",
      "type": "error"
    },
    {
      "inputs": [],
      "name": "ModuloByZero",
      "type": "error"
    },
    {
      "inputs": [
        {
          "internalType": "uint256",
          "name": "multiplicand",
          "type": "uint256"
        },
        {
          "internalType": "uint256",
          "name": "multiplier",
          "type": "uint256"
        },
        {
          "internalType": "uint256",
          "name": "divisor",
          "type": "uint256"
        }
      ],
      "name": "MulDivOverflow",
      "type": "error"
    },
    {
      "inputs": [
        {
          "internalType": "string",
          "name": "revertString",
          "type": "string"
        }
      ],
      "name": "MulticallFailed",
      "type": "error"
    },
    {
      "inputs": [
        {
          "internalType": "address",
          "name": "to",
          "type": "address"
        },
        {
          "internalType": "uint256",
          "name": "value",
          "type": "uint256"
        }
      ],
      "name": "NativeTransferFailed",
      "type": "error"
    },
    {
      "inputs": [],
      "name": "NoRebalanceProfit",
      "type": "error"
    },
    {
      "inputs": [
        {
          "internalType": "int256",
          "name": "amount0",
          "type": "int256"
        },
        {
          "internalType": "int256",
          "name": "amount1",
          "type": "int256"
        }
      ],
      "name": "PassCalculateInfo",
      "type": "error"
    },
    {
      "inputs": [],
      "name": "Uint160Overflow",
      "type": "error"
    },
    {
      "inputs": [],
      "name": "ZeroAddress",
      "type": "error"
    },
    {
      "inputs": [],
      "name": "ZeroPoolAddress",
      "type": "error"
    },
    {
      "anonymous": false,
      "inputs": [
        {
          "indexed": true,
          "internalType": "address",
          "name": "token0",
          "type": "address"
        },
        {
          "indexed": true,
          "internalType": "address",
          "name": "token1",
          "type": "address"
        },
        {
          "indexed": false,
          "internalType": "uint256",
          "name": "strike",
          "type": "uint256"
        },
        {
          "indexed": true,
          "internalType": "uint256",
          "name": "maturity",
          "type": "uint256"
        },
        {
          "indexed": false,
          "internalType": "uint24",
          "name": "uniswapV3Fee",
          "type": "uint24"
        },
        {
          "indexed": false,
          "internalType": "address",
          "name": "from",
          "type": "address"
        },
        {
          "indexed": false,
          "internalType": "address",
          "name": "tokenTo",
          "type": "address"
        },
        {
          "indexed": false,
          "internalType": "address",
          "name": "excessShortTo",
          "type": "address"
        },
        {
          "indexed": false,
          "internalType": "bool",
          "name": "isToken0",
          "type": "bool"
        },
        {
          "indexed": false,
          "internalType": "uint256",
          "name": "tokenAmount",
          "type": "uint256"
        },
        {
          "indexed": false,
          "internalType": "uint256",
          "name": "excessShortAmount",
          "type": "uint256"
        }
      ],
      "name": "Rebalance",
      "type": "event"
    },
    {
      "inputs": [
        {
          "internalType": "bytes[]",
          "name": "data",
          "type": "bytes[]"
        }
      ],
      "name": "multicall",
      "outputs": [
        {
          "internalType": "bytes[]",
          "name": "results",
          "type": "bytes[]"
        }
      ],
      "stateMutability": "payable",
      "type": "function"
    },
    {
      "inputs": [],
      "name": "optionFactory",
      "outputs": [
        {
          "internalType": "address",
          "name": "",
          "type": "address"
        }
      ],
      "stateMutability": "view",
      "type": "function"
    },
    {
      "inputs": [],
      "name": "poolFactory",
      "outputs": [
        {
          "internalType": "address",
          "name": "",
          "type": "address"
        }
      ],
      "stateMutability": "view",
      "type": "function"
    },
    {
      "inputs": [
        {
          "components": [
            {
              "internalType": "address",
              "name": "token0",
              "type": "address"
            },
            {
              "internalType": "address",
              "name": "token1",
              "type": "address"
            },
            {
              "internalType": "uint256",
              "name": "strike",
              "type": "uint256"
            },
            {
              "internalType": "uint256",
              "name": "maturity",
              "type": "uint256"
            },
            {
              "internalType": "uint24",
              "name": "uniswapV3Fee",
              "type": "uint24"
            },
            {
              "internalType": "address",
              "name": "tokenTo",
              "type": "address"
            },
            {
              "internalType": "address",
              "name": "excessShortTo",
              "type": "address"
            },
            {
              "internalType": "bool",
              "name": "isToken0",
              "type": "bool"
            },
            {
              "internalType": "uint256",
              "name": "minTokenAmount",
              "type": "uint256"
            },
            {
              "internalType": "uint256",
              "name": "minExcessShortAmount",
              "type": "uint256"
            },
            {
              "internalType": "uint256",
              "name": "deadline",
              "type": "uint256"
            }
          ],
          "internalType": "struct TimeswapV2PeripheryUniswapV3RebalanceParam",
          "name": "param",
          "type": "tuple"
        }
      ],
      "name": "rebalance",
      "outputs": [
        {
          "internalType": "uint256",
          "name": "tokenAmount",
          "type": "uint256"
        },
        {
          "internalType": "uint256",
          "name": "excessShortAmount",
          "type": "uint256"
        }
      ],
      "stateMutability": "nonpayable",
      "type": "function"
    },
    {
      "inputs": [
        {
          "components": [
            {
              "internalType": "uint256",
              "name": "strike",
              "type": "uint256"
            },
            {
              "internalType": "uint256",
              "name": "maturity",
              "type": "uint256"
            },
            {
              "internalType": "uint256",
              "name": "token0AndLong0Amount",
              "type": "uint256"
            },
            {
              "internalType": "uint256",
              "name": "token1AndLong1Amount",
              "type": "uint256"
            },
            {
              "internalType": "uint256",
              "name": "shortAmount",
              "type": "uint256"
            },
            {
              "internalType": "bytes",
              "name": "data",
              "type": "bytes"
            }
          ],
          "internalType": "struct TimeswapV2OptionMintCallbackParam",
          "name": "param",
          "type": "tuple"
        }
      ],
      "name": "timeswapV2OptionMintCallback",
      "outputs": [
        {
          "internalType": "bytes",
          "name": "data",
          "type": "bytes"
        }
      ],
      "stateMutability": "nonpayable",
      "type": "function"
    },
    {
      "inputs": [
        {
          "components": [
            {
              "internalType": "uint256",
              "name": "strike",
              "type": "uint256"
            },
            {
              "internalType": "uint256",
              "name": "maturity",
              "type": "uint256"
            },
            {
              "internalType": "bool",
              "name": "isLong0ToLong1",
              "type": "bool"
            },
            {
              "internalType": "uint256",
              "name": "token0AndLong0Amount",
              "type": "uint256"
            },
            {
              "internalType": "uint256",
              "name": "token1AndLong1Amount",
              "type": "uint256"
            },
            {
              "internalType": "bytes",
              "name": "data",
              "type": "bytes"
            }
          ],
          "internalType": "struct TimeswapV2OptionSwapCallbackParam",
          "name": "param",
          "type": "tuple"
        }
      ],
      "name": "timeswapV2OptionSwapCallback",
      "outputs": [
        {
          "internalType": "bytes",
          "name": "data",
          "type": "bytes"
        }
      ],
      "stateMutability": "nonpayable",
      "type": "function"
    },
    {
      "inputs": [
        {
          "components": [
            {
              "internalType": "uint256",
              "name": "strike",
              "type": "uint256"
            },
            {
              "internalType": "uint256",
              "name": "maturity",
              "type": "uint256"
            },
            {
              "internalType": "bool",
              "name": "isLong0ToLong1",
              "type": "bool"
            },
            {
              "internalType": "uint256",
              "name": "long0Amount",
              "type": "uint256"
            },
            {
              "internalType": "uint256",
              "name": "long1Amount",
              "type": "uint256"
            },
            {
              "internalType": "bytes",
              "name": "data",
              "type": "bytes"
            }
          ],
          "internalType": "struct TimeswapV2PoolRebalanceCallbackParam",
          "name": "param",
          "type": "tuple"
        }
      ],
      "name": "timeswapV2PoolRebalanceCallback",
      "outputs": [
        {
          "internalType": "bytes",
          "name": "data",
          "type": "bytes"
        }
      ],
      "stateMutability": "nonpayable",
      "type": "function"
    },
    {
      "inputs": [
        {
          "components": [
            {
              "internalType": "address",
              "name": "token0",
              "type": "address"
            },
            {
              "internalType": "address",
              "name": "token1",
              "type": "address"
            },
            {
              "internalType": "uint256",
              "name": "strike",
              "type": "uint256"
            },
            {
              "internalType": "uint256",
              "name": "maturity",
              "type": "uint256"
            },
            {
              "internalType": "uint256",
              "name": "long0Amount",
              "type": "uint256"
            },
            {
              "internalType": "uint256",
              "name": "long1Amount",
              "type": "uint256"
            },
            {
              "internalType": "uint256",
              "name": "shortAmount",
              "type": "uint256"
            },
            {
              "internalType": "bytes",
              "name": "data",
              "type": "bytes"
            }
          ],
          "internalType": "struct TimeswapV2TokenMintCallbackParam",
          "name": "param",
          "type": "tuple"
        }
      ],
      "name": "timeswapV2TokenMintCallback",
      "outputs": [
        {
          "internalType": "bytes",
          "name": "data",
          "type": "bytes"
        }
      ],
      "stateMutability": "nonpayable",
      "type": "function"
    },
    {
      "inputs": [],
      "name": "tokens",
      "outputs": [
        {
          "internalType": "address",
          "name": "",
          "type": "address"
        }
      ],
      "stateMutability": "view",
      "type": "function"
    },
    {
      "inputs": [],
      "name": "uniswapV3Factory",
      "outputs": [
        {
          "internalType": "address",
          "name": "",
          "type": "address"
        }
      ],
      "stateMutability": "view",
      "type": "function"
    },
    {
      "inputs": [
        {
          "internalType": "int256",
          "name": "amount0Delta",
          "type": "int256"
        },
        {
          "internalType": "int256",
          "name": "amount1Delta",
          "type": "int256"
        },
        {
          "internalType": "bytes",
          "name": "data",
          "type": "bytes"
        }
      ],
      "name": "uniswapV3SwapCallback",
      "outputs": [],
      "stateMutability": "nonpayable",
      "type": "function"
    },
    {
      "inputs": [
        {
          "internalType": "uint256",
          "name": "amountMinimum",
          "type": "uint256"
        },
        {
          "internalType": "address",
          "name": "recipient",
          "type": "address"
        }
      ],
      "name": "unwrapWrappedNatives",
      "outputs": [],
      "stateMutability": "payable",
      "type": "function"
    },
    {
      "inputs": [],
      "name": "wrappedNativeToken",
      "outputs": [
        {
          "internalType": "address",
          "name": "",
          "type": "address"
        }
      ],
      "stateMutability": "view",
      "type": "function"
    },
    {
      "stateMutability": "payable",
      "type": "receive"
    }
  ],
  "bytecode": "0x6101206040523480156200001257600080fd5b5060405162003fb438038062003fb4833981016040819052620000359162000089565b6001600160601b0319606092831b811660805294821b851660a05292811b841660c05290811b831660e0521b1661010052620000f9565b80516001600160a01b03811681146200008457600080fd5b919050565b600080600080600060a08688031215620000a257600080fd5b620000ad866200006c565b9450620000bd602087016200006c565b9350620000cd604087016200006c565b9250620000dd606087016200006c565b9150620000ed608087016200006c565b90509295509295909350565b60805160601c60a05160601c60c05160601c60e05160601c6101005160601c613dea620001ca6000396000818160d60152818161016e01528181610c800152610d4401526000818161024f01528181610a4301526112320152600081816101ba0152818161037a0152818161043301528181610e0c01526118ac0152600081816102a3015281816104120152818161097f01528181610deb01528181610ffe015261188b01526000818161021b0152818161050d015281816113ea01528181611d230152611fe60152613dea6000f3fe6080604052600436106100c65760003560e01c8063ac9650d81161007f578063c84a174911610059578063c84a1749146102d8578063dc4a4847146102f8578063e13c022c14610318578063fa461e331461033857600080fd5b8063ac9650d814610271578063b3461c8714610291578063b7f68a0e146102c557600080fd5b80631513946b1461012257806317fcb39b1461015c5780634219dc40146101a85780634a358d65146101dc5780635b549182146102095780639d63848a1461023d57600080fd5b3661011d57336001600160a01b037f0000000000000000000000000000000000000000000000000000000000000000161461011b5760405163631b2c4f60e11b81523360048201526024015b60405180910390fd5b005b600080fd5b34801561012e57600080fd5b5061014261013d366004612cdd565b610358565b604080519283526020830191909152015b60405180910390f35b34801561016857600080fd5b506101907f000000000000000000000000000000000000000000000000000000000000000081565b6040516001600160a01b039091168152602001610153565b3480156101b457600080fd5b506101907f000000000000000000000000000000000000000000000000000000000000000081565b3480156101e857600080fd5b506101fc6101f7366004612de1565b610946565b6040516101539190612ed7565b34801561021557600080fd5b506101907f000000000000000000000000000000000000000000000000000000000000000081565b34801561024957600080fd5b506101907f000000000000000000000000000000000000000000000000000000000000000081565b61028461027f366004612eea565b610adb565b6040516101539190612f5e565b34801561029d57600080fd5b506101907f000000000000000000000000000000000000000000000000000000000000000081565b61011b6102d3366004612fd5565b610c68565b3480156102e457600080fd5b506101fc6102f3366004613017565b610db7565b34801561030457600080fd5b506101fc610313366004613017565b610fc9565b34801561032457600080fd5b506101fc61033336600461304b565b611200565b34801561034457600080fd5b5061011b610353366004613086565b6113ad565b60008042836101400135101561037657610376836101400135611460565b60007f00000000000000000000000000000000000000000000000000000000000000006001600160a01b0316639ed3edf06040518163ffffffff1660e01b815260040160206040518083038186803b1580156103d157600080fd5b505afa1580156103e5573d6000803e3d6000fd5b505050506040513d601f19601f820116820180604052508101906104099190613105565b905060006104747f00000000000000000000000000000000000000000000000000000000000000007f000000000000000000000000000000000000000000000000000000000000000061045f602089018961311e565b61046f60408a0160208b0161311e565b61147c565b60408051633a9d71e760e01b8152908801356004820152606088013560248201529092506000915081906001600160a01b03841690633a9d71e790604401604080518083038186803b1580156104c957600080fd5b505afa1580156104dd573d6000803e3d6000fd5b505050506040513d601f19601f82011682018060405250810190610501919061313b565b9092509050600061055e7f000000000000000000000000000000000000000000000000000000000000000061053960208b018b61311e565b61054960408c0160208d0161311e565b61055960a08d0160808e01613170565b611531565b9050600061056f60208a018a61311e565b61057f60408b0160208c0161311e565b61058f60a08c0160808d01613170565b6040516020016105a19392919061318d565b60405160208183030381529060405290506000816040516020016105c69291906131b5565b604051602081830303815290604052905060008060006106226040518060a001604052808981526020018881526020018e6040013581526020018b815260200186815250866001600160a01b031661155b90919063ffffffff16565b925092509250806000141561064a576040516319592c2960e11b815260040160405180910390fd5b61065a60a08d0160808e01613170565b61066a60c08e0160a08f0161311e565b8d60e001602081019061067d91906131de565b6040805162ffffff90941660208501526001600160a01b039092169183019190915215156060820152608081018a905260a00160405160208183030381529060405293506000839050829b508315158d60e00160208101906106df91906131de565b1515141561070e5760006106fa848f60400135876001611848565b90508083101561070c5784159150829c505b505b6107c16040518061014001604052808f6000016020810190610730919061311e565b6001600160a01b031681526020018f6020016020810190610751919061311e565b6001600160a01b031681526020018f6040013581526020018f606001358152602001306001600160a01b031681526020018f60c0016020810190610795919061311e565b6001600160a01b03168152861560208201528315156040820152606081018f905260800187905261187d565b8051919e5097506107dd92508701602090810191508701613105565b9b505050505050505050505082610100013582101561081d576040516312bc00e560e11b8152600481018390526101008401356024820152604401610112565b826101200135811015610851576040516355f5ffcf60e11b8152600481018290526101208401356024820152604401610112565b6060830135610866604085016020860161311e565b6001600160a01b031661087c602086018661311e565b6001600160a01b03167f85f588cfc06f046615237e16bb68897a7d8db1778ace34e8aa50707f5488091360408701356108bb60a0890160808a01613170565b336108cc60c08b0160a08c0161311e565b6108dc60e08c0160c08d0161311e565b6108ed6101008d0160e08e016131de565b6040805196875262ffffff90951660208701526001600160a01b03938416948601949094529082166060850152166080830152151560a082015260c0810187905260e081018690526101000160405180910390a4915091565b60606000806000806000808760a00151806020019051810190610969919061324b565b9c50949a509298509096509450925090506109a57f00000000000000000000000000000000000000000000000000000000000000008787611a39565b338383838a6040516020016109be9594939291906132ea565b60408051808303601f19018152610160830182526001600160a01b0389811684528881166020808601919091528c51858501528c0151606085015230608080860182905260a086019190915288821660c0860152600060e086018190526101008601528c0151610120850152610140840182905291516327ecc8f560e11b81529099507f000000000000000000000000000000000000000000000000000000000000000090911691634fd991ea91610a79919060040161331f565b600060405180830381600087803b158015610a9357600080fd5b505af1158015610aa7573d6000803e3d6000fd5b505050506040513d6000823e601f3d908101601f19168201604052610acf91908101906133f0565b98975050505050505050565b6060816001600160401b03811115610af557610af5612cf6565b604051908082528060200260200182016040528015610b2857816020015b6060815260200190600190039081610b135790505b50905060005b82811015610c615760008030868685818110610b4c57610b4c613424565b9050602002810190610b5e919061343a565b604051610b6c929190613487565b600060405180830381855af49150503d8060008114610ba7576040519150601f19603f3d011682016040523d82523d6000602084013e610bac565b606091505b509150915081610c2e57604481511015610bfa57604051635d2f436f60e11b815260206004820152600e60248201526d125b9d985b1a590814995cdd5b1d60921b6044820152606401610112565b60048101905080806020019051810190610c149190613497565b604051635d2f436f60e11b81526004016101129190612ed7565b80848481518110610c4157610c41613424565b602002602001018190525050508080610c59906134f5565b915050610b2e565b5092915050565b6040516370a0823160e01b81523060048201526000907f00000000000000000000000000000000000000000000000000000000000000006001600160a01b0316906370a082319060240160206040518083038186803b158015610cca57600080fd5b505afa158015610cde573d6000803e3d6000fd5b505050506040513d601f19601f82011682018060405250810190610d029190613105565b905082811015610d2857604051636b8c4dab60e01b815260048101829052602401610112565b8015610db257604051632e1a7d4d60e01b8152600481018290527f00000000000000000000000000000000000000000000000000000000000000006001600160a01b031690632e1a7d4d90602401600060405180830381600087803b158015610d9057600080fd5b505af1158015610da4573d6000803e3d6000fd5b50505050610db28282611aef565b505050565b60606000808080610dcb60a087018761343a565b810190610dd89190613510565b9850929650909450925090506000610e327f00000000000000000000000000000000000000000000000000000000000000007f00000000000000000000000000000000000000000000000000000000000000008787611b8f565b905033858584610e4860608c0160408d016131de565b610e56578a60800135610e5c565b8a606001355b8a604051602001610e7296959493929190613597565b6040516020818303038152906040529550806001600160a01b031663b084c2526040518061010001604052808a6000013581526020018a602001358152602001866001600160a01b03168152602001336001600160a01b031681526020018a6040016020810190610ee391906131de565b158152602001610ef960608c0160408d016131de565b610f04576000610f07565b60015b6001811115610f1857610f186135da565b8152602001610f2d60608c0160408d016131de565b610f3b578a60600135610f41565b8a608001355b8152602001898152506040518263ffffffff1660e01b8152600401610f66919061360d565b600060405180830381600087803b158015610f8057600080fd5b505af1158015610f94573d6000803e3d6000fd5b505050506040513d6000823e601f3d908101601f19168201604052610fbc9190810190613693565b9998505050505050505050565b6060600080808080610fde60a088018861343a565b810190610feb91906136e2565b9a509398509196509450925090506110247f00000000000000000000000000000000000000000000000000000000000000008585611a39565b60006110366060890160408a016131de565b61104457876060013561104a565b87608001355b6110549083613771565b905084848461106960608c0160408d016131de565b158561107b60608e0160408f016131de565b611089578c6080013561108f565b8c606001355b8c6040516020016110a69796959493929190613788565b60408051601f19818403018152610120830182528a35835260208b81013590840152985033916380e0667991818101906110e69060608e01908e016131de565b6110f057896110f2565b305b6001600160a01b0316815260200161111060608d0160408e016131de565b61111a573061111c565b895b6001600160a01b031681523060208201526040016000815260200161114760608d0160408e016131de565b6111515784611154565b60005b815260200161116960608d0160408e016131de565b611174576000611176565b845b81526020018a8152506040518263ffffffff1660e01b815260040161119b91906137d2565b600060405180830381600087803b1580156111b557600080fd5b505af11580156111c9573d6000803e3d6000fd5b505050506040513d6000823e601f3d908101601f191682016040526111f19190810190613874565b9b9a5050505050505050505050565b6060600080808061121460e087018761343a565b81019061122191906138cd565b9850929650909450925090506112567f0000000000000000000000000000000000000000000000000000000000000000611cc7565b6040805163b2ceca7760e01b81526001600160a01b0386169163b2ceca7791611296918a01359060608b013590339060029060c08e013590600401613929565b600060405180830381600087803b1580156112b057600080fd5b505af11580156112c4573d6000803e3d6000fd5b5050505061137a604051806101400160405280866001600160a01b031681526020018860000160208101906112f9919061311e565b6001600160a01b0316815260200188602001602081019061131a919061311e565b6001600160a01b03168152602001886040013581526020018860600135815260200185151581526020018561134f5783611351565b845b8152602001856113615784611363565b835b815260c08901356020820152604001879052611cf3565b94508560c0013585604051602001611393929190613969565b604051602081830303815290604052945050505050919050565b6000806113bc83850185613982565b91509150811561144d576000806000838060200190518101906113df91906139d1565b9250925092506114117f0000000000000000000000000000000000000000000000000000000000000000848484611f30565b6114453360008b136114235789611425565b8a5b60008c136114335784611435565b855b6001600160a01b03169190611f70565b505050611458565b611458868683611fc2565b505050505050565b60405163070b57d960e41b815260048101829052602401610112565b6000806114936001600160a01b0387168585612017565b6040516330af0bbf60e21b81526001600160a01b0380831660048301529193509086169063c2bc2efc9060240160206040518083038186803b1580156114d857600080fd5b505afa1580156114ec573d6000803e3d6000fd5b505050506040513d601f19601f820116820180604052508101906115109190613a1e565b90506001600160a01b03811661152857611528612043565b94509492505050565b600061153f8585858561205c565b9050611553816001600160a01b03166120df565b949350505050565b600080600080856001600160a01b0316633850c7bd6040518163ffffffff1660e01b815260040160e06040518083038186803b15801561159a57600080fd5b505afa1580156115ae573d6000803e3d6000fd5b505050506040513d601f19601f820116820180604052508101906115d29190613a4d565b505050505050905060008060006115ec8860400151612106565b88519091501561165f57600061163461162f836001600160a01b0316620100006116288d6060015160106001901b61215c90919063ffffffff16565b6001612161565b61225d565b9050846001600160a01b0316816001600160a01b0316101561165d578851600198509093509150825b505b6020880151156116cb5760006116a261162f836001600160a01b03166116978c6060015160106001901b61215c90919063ffffffff16565b620100006000612161565b9050846001600160a01b0316816001600160a01b031611156116c957809350886020015192505b505b50801561183e576000806401000276a36001600160a01b038516116116fd576116fa6401000276a36001613aec565b93505b73fffd8963efd1fc6a506488495d951d5263988d266001600160a01b0385161061174357611740600173fffd8963efd1fc6a506488495d951d5263988d26613b17565b93505b896001600160a01b031663128acb08308a61175d87612278565b888e608001516040518663ffffffff1660e01b8152600401611783959493929190613b3f565b6040805180830381600087803b15801561179c57600080fd5b505af19250505080156117cc575060408051601f3d908101601f191682019092526117c99181019061313b565b60015b611815573d8080156117fa576040519150601f19603f3d011682016040523d82523d6000602084013e6117ff565b606091505b506118098161228e565b90935091506118189050565b50505b8761182c578061182783613b7a565b611836565b8161183682613b7a565b909750955050505b5050509250925092565b6000826118645761185f85600160801b8685612161565b611874565b6118748585600160801b85612161565b95945050505050565b6000806000606060006118da7f00000000000000000000000000000000000000000000000000000000000000007f00000000000000000000000000000000000000000000000000000000000000008860000151896020015161147c565b9150508560000151866020015187608001518860a0015189610120015160405160200161190b959493929190613b97565b6040516020818303038152906040529150806001600160a01b0316633aee875c6040518060e001604052808960400151815260200189606001518152602001306001600160a01b031681526020018960c00151151581526020018960e00151611975576001611978565b60005b6001811115611989576119896135da565b81526020018961010001518152602001858152506040518263ffffffff1660e01b81526004016119b99190613bd3565b600060405180830381600087803b1580156119d357600080fd5b505af11580156119e7573d6000803e3d6000fd5b505050506040513d6000823e601f3d908101601f19168201604052611a0f9190810190613693565b80519297509095509250611a2c9083016020908101908401613c40565b9597949650949392505050565b60405163d81e842360e01b81526001600160a01b03838116600483015282811660248301526000919085169063d81e84239060440160206040518083038186803b158015611a8657600080fd5b505afa158015611a9a573d6000803e3d6000fd5b505050506040513d601f19601f82011682018060405250810190611abe9190613a1e565b90506001600160a01b0381163314611ae95760405163a5fbb7d960e01b815260040160405180910390fd5b50505050565b604080516000808252602082019092526001600160a01b038416908390604051611b199190613c7c565b60006040518083038185875af1925050503d8060008114611b56576040519150601f19603f3d011682016040523d82523d6000602084013e611b5b565b606091505b5050905080610db25760405163296c17bb60e21b81526001600160a01b038416600482015260248101839052604401610112565b60405163d81e842360e01b81526001600160a01b03838116600483015282811660248301526000919086169063d81e84239060440160206040518083038186803b158015611bdc57600080fd5b505afa158015611bf0573d6000803e3d6000fd5b505050506040513d601f19601f82011682018060405250810190611c149190613a1e565b6040516330af0bbf60e21b81526001600160a01b03808316600483015291925060009186169063c2bc2efc9060240160206040518083038186803b158015611c5b57600080fd5b505afa158015611c6f573d6000803e3d6000fd5b505050506040513d601f19601f82011682018060405250810190611c939190613a1e565b90506001600160a01b0381163314611cbe5760405163863b47e760e01b815260040160405180910390fd5b50949350505050565b6001600160a01b0381163314611cf05760405163d2bc8fc960e01b815260040160405180910390fd5b50565b6060600080600080856101200151806020019051810190611d149190613c98565b93509350935093506000611d527f0000000000000000000000000000000000000000000000000000000000000000886020015189604001518861205c565b90508660200151876040015186604051602001611d719392919061318d565b6040516020818303038152906040529550600186604051602001611d969291906131b5565b6040516020818303038152906040529550600080611e336040518060e001604052808b60a00151151588151514611dce578b51611dd0565b305b6001600160a01b0316815260a08c01805115602083015251151588151514604082015260600187611e05578b60c00151611e0b565b8b60e001515b81526060808d0151602083015260408201889052018a90526001600160a01b038516906122be565b915091508860a0015115158515151415611e86578851611e869086611e5c578a60e00151611e62565b8a60c001515b87611e71578b60400151611435565b8b602001516001600160a01b03169190611f70565b60008960a00151151586151514611ebc578286611ea7578a60e00151611ead565b8a60c001515b611eb79190613771565b611edb565b85611ecb578960e00151611ed1565b8960c001515b611edb9083613771565b9050611f06878288611ef1578c60400151611435565b8c602001516001600160a01b03169190611f70565b60408051602081018390520160405160208183030381529060405298505050505050505050919050565b6000611f3e8585858561205c565b90506001600160a01b0381163314611f69576040516307c1698f60e01b815260040160405180910390fd5b5050505050565b604080516001600160a01b038416602482015260448082018490528251808303909101815260649091019091526020810180516001600160e01b031663a9059cbb60e01b179052610db29084906124a5565b600080600083806020019051810190611fdb91906139d1565b92509250925061200d7f0000000000000000000000000000000000000000000000000000000000000000848484611f30565b6114588686612577565b600061202484848461259a565b90506001600160a01b03811661203c5761203c612043565b9392505050565b60405163d92e233d60e01b815260040160405180910390fd5b604051630b4c774160e11b81526000906001600160a01b03861690631698ee829061208f9087908790879060040161318d565b60206040518083038186803b1580156120a757600080fd5b505afa1580156120bb573d6000803e3d6000fd5b505050506040513d601f19601f820116820180604052508101906118749190613a1e565b6001600160a01b038116611cf05760405163037064f160e01b815260040160405180910390fd5b60006001600160c01b0382116121335761212d612128604084901b600061261f565b6126a6565b92915050565b60008061214984680100000000000000006126d0565b91509150611553612128838360006126ef565b900390565b600080600061217087876126d0565b9150915080600014156121915761218882868661277d565b92505050611553565b8085116121c25760405163362ced0960e11b8152600481018890526024810187905260448101869052606401610112565b600085878909600087810388169788900497600260038a028118808b02820302808b02820302808b02820302808b02820302808b02820302808b029091030291819003819004600101868411909503948502929095039490940417928302935084905080156122405750848061223a5761223a613ceb565b86880915155b15612253578261224f816134f5565b9350505b5050949350505050565b806001600160a01b038116811461227357600080fd5b919050565b6000600160ff1b821061228a57600080fd5b5090565b6000806122a2836377760aaf60e11b6127af565b8060200190518101906122b5919061313b565b91509150915091565b600080600061233d84602001516123045761162f6122df8660800151612106565b6001600160a01b03166116978760a0015160106001901b61215c90919063ffffffff16565b61162f6123148660800151612106565b6001600160a01b0316620100006116288860a0015160106001901b61215c90919063ffffffff16565b90506401000276a36001600160a01b03821611612367576123646401000276a36001613aec565b90505b73fffd8963efd1fc6a506488495d951d5263988d266001600160a01b038216106123ad576123aa600173fffd8963efd1fc6a506488495d951d5263988d26613b17565b90505b600080866001600160a01b031663128acb088760000151886020015189604001516123ed576123df8a60600151612278565b6123e890613b7a565b6123fa565b6123fa8a60600151612278565b878b60c001516040518663ffffffff1660e01b8152600401612420959493929190613b3f565b6040805180830381600087803b15801561243957600080fd5b505af115801561244d573d6000803e3d6000fd5b505050506040513d601f19601f82011682018060405250810190612471919061313b565b91509150856020015161248d578061248883613b7a565b612497565b8161249782613b7a565b909890975095505050505050565b60006124fa826040518060400160405280602081526020017f5361666545524332303a206c6f772d6c6576656c2063616c6c206661696c6564815250856001600160a01b031661281d9092919063ffffffff16565b805190915015610db257808060200190518101906125189190613d01565b610db25760405162461bcd60e51b815260206004820152602a60248201527f5361666545524332303a204552433230206f7065726174696f6e20646964206e6044820152691bdd081cdd58d8d9595960b21b6064820152608401610112565b6040516377760aaf60e11b81526004810183905260248101829052604401610112565b60405163d81e842360e01b81526001600160a01b03838116600483015282811660248301526000919085169063d81e84239060440160206040518083038186803b1580156125e757600080fd5b505afa1580156125fb573d6000803e3d6000fd5b505050506040513d601f19601f820116820180604052508101906115539190613a1e565b600060001983141561264257506fffffffffffffffffffffffffffffffff61212d565b8261264f5750600061212d565b50816001818101901c5b818110156126815780915060018182868161267657612676613ceb565b0401901c9050612659565b508180156126975750826126958280613d1e565b105b1561212d5780611553816134f5565b60006001600160a01b0382111561228a57604051630ba006e160e41b815260040160405180910390fd5b6000806000198385098385029250828110838203039150509250929050565b60008261270757612700848361261f565b905061203c565b6000612716858560001961282c565b905060001991505b8181101561273b5780915061273485858361282c565b905061271e565b82156127755760008061274e84856126d0565b915091508086118061275f57508187115b15612772578361276e816134f5565b9450505b50505b509392505050565b60006127898385613d3d565b90508180156127a0575061279d8385613d51565b15155b1561203c5780611874816134f5565b815160609060206127c1600483613771565b6127cb9190613d51565b1580156127f357506001600160e01b031983166127e785613d65565b6001600160e01b031916145b156128155761280d8460046128088185613771565b61286b565b91505061212d565b835184602001fd5b60606115538484600085612977565b60008061283c8585856000612aa8565b9050600061284e826000866000612b2d565b9092509050612861828260026000612aa8565b9695505050505050565b60608161287981601f613d9c565b10156128b85760405162461bcd60e51b815260206004820152600e60248201526d736c6963655f6f766572666c6f7760901b6044820152606401610112565b6128c28284613d9c565b845110156129065760405162461bcd60e51b8152602060048201526011602482015270736c6963655f6f75744f66426f756e647360781b6044820152606401610112565b6060821580156129255760405191506000825260208201604052611cbe565b6040519150601f8416801560200281840101858101878315602002848b0101015b8183101561295e578051835260209283019201612946565b5050858452601f01601f19166040525050949350505050565b6060824710156129d85760405162461bcd60e51b815260206004820152602660248201527f416464726573733a20696e73756666696369656e742062616c616e636520666f6044820152651c8818d85b1b60d21b6064820152608401610112565b6001600160a01b0385163b612a2f5760405162461bcd60e51b815260206004820152601d60248201527f416464726573733a2063616c6c20746f206e6f6e2d636f6e74726163740000006044820152606401610112565b600080866001600160a01b03168587604051612a4b9190613c7c565b60006040518083038185875af1925050503d8060008114612a88576040519150601f19603f3d011682016040523d82523d6000602084013e612a8d565b606091505b5091509150612a9d828286612b9e565b979650505050505050565b600080612ab6868686612bd7565b90925090508015612aeb57604051636aa917ab60e01b8152600481018790526024810186905260448101859052606401610112565b8215611cbe57600080612afe84876126d0565b9150915080871180612b0f57508188115b15612b225783612b1e816134f5565b9450505b505050949350505050565b8184018481108285018101908015612b5a57811580612b555750612b52600183613771565b86115b612b5e565b8186115b15612b94576040516347b1893f60e01b815260048101889052602481018790526044810186905260648101859052608401610112565b5094509492505050565b60608315612bad57508161203c565b825115612bbd5782518084602001fd5b8160405162461bcd60e51b81526004016101129190612ed7565b60008083612bf257612beb8584600061277d565b9150612c7e565b6000612bfd84612c86565b90506000612c0a85612cb3565b90505b8515612c5e57600080612c2088856126d0565b91509150612c3086868484612b2d565b9096509450612c3f88846126d0565b9092509050612c5182828b6000612b2d565b9099509750612c0d915050565b612c768484612c6f8a89600061277d565b6000612b2d565b909450925050505b935093915050565b600081612ca6576040516301de42a960e41b815260040160405180910390fd5b5060008190030460010190565b600081612cd3576040516319dbad9f60e01b815260040160405180910390fd5b5060008190030690565b60006101608284031215612cf057600080fd5b50919050565b634e487b7160e01b600052604160045260246000fd5b60405160c081016001600160401b0381118282101715612d2e57612d2e612cf6565b60405290565b604051601f8201601f191681016001600160401b0381118282101715612d5c57612d5c612cf6565b604052919050565b60006001600160401b03821115612d7d57612d7d612cf6565b50601f01601f191660200190565b600082601f830112612d9c57600080fd5b8135612daf612daa82612d64565b612d34565b818152846020838601011115612dc457600080fd5b816020850160208301376000918101602001919091529392505050565b600060208284031215612df357600080fd5b81356001600160401b0380821115612e0a57600080fd5b9083019060c08286031215612e1e57600080fd5b612e26612d0c565b823581526020830135602082015260408301356040820152606083013560608201526080830135608082015260a083013582811115612e6457600080fd5b612e7087828601612d8b565b60a08301525095945050505050565b60005b83811015612e9a578181015183820152602001612e82565b83811115611ae95750506000910152565b60008151808452612ec3816020860160208601612e7f565b601f01601f19169290920160200192915050565b60208152600061203c6020830184612eab565b60008060208385031215612efd57600080fd5b82356001600160401b0380821115612f1457600080fd5b818501915085601f830112612f2857600080fd5b813581811115612f3757600080fd5b8660208260051b8501011115612f4c57600080fd5b60209290920196919550909350505050565b6000602080830181845280855180835260408601915060408160051b870101925083870160005b82811015612fb357603f19888603018452612fa1858351612eab565b94509285019290850190600101612f85565b5092979650505050505050565b6001600160a01b0381168114611cf057600080fd5b60008060408385031215612fe857600080fd5b823591506020830135612ffa81612fc0565b809150509250929050565b600060c08284031215612cf057600080fd5b60006020828403121561302957600080fd5b81356001600160401b0381111561303f57600080fd5b61155384828501613005565b60006020828403121561305d57600080fd5b81356001600160401b0381111561307357600080fd5b8201610100818503121561203c57600080fd5b6000806000806060858703121561309c57600080fd5b843593506020850135925060408501356001600160401b03808211156130c157600080fd5b818701915087601f8301126130d557600080fd5b8135818111156130e457600080fd5b8860208285010111156130f657600080fd5b95989497505060200194505050565b60006020828403121561311757600080fd5b5051919050565b60006020828403121561313057600080fd5b813561203c81612fc0565b6000806040838503121561314e57600080fd5b505080516020909101519092909150565b62ffffff81168114611cf057600080fd5b60006020828403121561318257600080fd5b813561203c8161315f565b6001600160a01b03938416815291909216602082015262ffffff909116604082015260600190565b82151581526040602082015260006115536040830184612eab565b8015158114611cf057600080fd5b6000602082840312156131f057600080fd5b813561203c816131d0565b6000613209612daa84612d64565b905082815283838301111561321d57600080fd5b61203c836020830184612e7f565b600082601f83011261323c57600080fd5b61203c838351602085016131fb565b600080600080600080600060e0888a03121561326657600080fd5b875161327181612fc0565b602089015190975061328281612fc0565b604089015190965061329381612fc0565b60608901519095506132a4816131d0565b809450506080880151925060a0880151915060c08801516001600160401b038111156132cf57600080fd5b6132db8a828b0161322b565b91505092959891949750929550565b60018060a01b0386168152841515602082015283604082015282606082015260a060808201526000612a9d60a0830184612eab565b602081526133396020820183516001600160a01b03169052565b6000602083015161335560408401826001600160a01b03169052565b506040830151606083015260608301516080830152608083015161338460a08401826001600160a01b03169052565b5060a08301516001600160a01b03811660c08401525060c08301516001600160a01b03811660e08401525060e083015161010083810191909152830151610120808401919091528301516101408084019190915283015161016080840152611553610180840182612eab565b60006020828403121561340257600080fd5b81516001600160401b0381111561341857600080fd5b6115538482850161322b565b634e487b7160e01b600052603260045260246000fd5b6000808335601e1984360301811261345157600080fd5b8301803591506001600160401b0382111561346b57600080fd5b60200191503681900382131561348057600080fd5b9250929050565b8183823760009101908152919050565b6000602082840312156134a957600080fd5b81516001600160401b038111156134bf57600080fd5b8201601f810184136134d057600080fd5b611553848251602084016131fb565b634e487b7160e01b600052601160045260246000fd5b6000600019821415613509576135096134df565b5060010190565b600080600080600060a0868803121561352857600080fd5b853561353381612fc0565b9450602086013561354381612fc0565b9350604086013561355381612fc0565b9250606086013561356381612fc0565b915060808601356001600160401b0381111561357e57600080fd5b61358a88828901612d8b565b9150509295509295909350565b6001600160a01b03878116825286811660208301528581166040830152841660608201526080810183905260c060a08201819052600090610acf90830184612eab565b634e487b7160e01b600052602160045260246000fd5b60028110611cf057611cf06135da565b613609816135f0565b9052565b6020815281516020820152602082015160408201526000604083015160018060a01b0380821660608501528060608601511660808501525050608083015161365960a084018215159052565b5060a083015161366c60c0840182613600565b5060c083015160e083015260e0830151610100808185015250611553610120840182612eab565b6000806000606084860312156136a857600080fd5b835192506020840151915060408401516001600160401b038111156136cc57600080fd5b6136d88682870161322b565b9150509250925092565b60008060008060008060c087890312156136fb57600080fd5b863561370681612fc0565b9550602087013561371681612fc0565b9450604087013561372681612fc0565b9350606087013561373681612fc0565b92506080870135915060a08701356001600160401b0381111561375857600080fd5b61376489828a01612d8b565b9150509295509295509295565b600082821015613783576137836134df565b500390565b6001600160a01b03888116825287811660208301528616604082015284151560608201526080810184905260a0810183905260e060c08201819052600090610fbc90830184612eab565b6020815281516020820152602082015160408201526000604083015161380360608401826001600160a01b03169052565b5060608301516001600160a01b03811660808401525060808301516001600160a01b03811660a08401525060a083015161384060c0840182613600565b5060c083015160e0838101919091528301516101008084019190915283015161012080840152611553610140840182612eab565b6000806000806080858703121561388a57600080fd5b84519350602085015192506040850151915060608501516001600160401b038111156138b557600080fd5b6138c18782880161322b565b91505092959194509250565b600080600080600060a086880312156138e557600080fd5b85356138f081612fc0565b94506020860135613900816131d0565b9350604086013592506060860135915060808601356001600160401b0381111561357e57600080fd5b858152602081018590526001600160a01b038416604082015260a0810160038410613956576139566135da565b6060820193909352608001529392505050565b8281526040602082015260006115536040830184612eab565b6000806040838503121561399557600080fd5b82356139a0816131d0565b915060208301356001600160401b038111156139bb57600080fd5b6139c785828601612d8b565b9150509250929050565b6000806000606084860312156139e657600080fd5b83516139f181612fc0565b6020850151909350613a0281612fc0565b6040850151909250613a138161315f565b809150509250925092565b600060208284031215613a3057600080fd5b815161203c81612fc0565b805161ffff8116811461227357600080fd5b600080600080600080600060e0888a031215613a6857600080fd5b8751613a7381612fc0565b8097505060208801518060020b8114613a8b57600080fd5b9550613a9960408901613a3b565b9450613aa760608901613a3b565b9350613ab560808901613a3b565b925060a088015160ff81168114613acb57600080fd5b60c0890151909250613adc816131d0565b8091505092959891949750929550565b60006001600160a01b03828116848216808303821115613b0e57613b0e6134df565b01949350505050565b60006001600160a01b0383811690831681811015613b3757613b376134df565b039392505050565b6001600160a01b0386811682528515156020830152604082018590528316606082015260a060808201819052600090612a9d90830184612eab565b6000600160ff1b821415613b9057613b906134df565b5060000390565b6001600160a01b038681168252858116602083015284811660408301528316606082015260a060808201819052600090612a9d90830184612eab565b60208152815160208201526020820151604082015260018060a01b03604083015116606082015260608201511515608082015260006080830151613c16816135f0565b8060a08401525060a083015160c083015260c083015160e080840152611553610100840182612eab565b60008060408385031215613c5357600080fd5b8251915060208301516001600160401b03811115613c7057600080fd5b6139c78582860161322b565b60008251613c8e818460208701612e7f565b9190910192915050565b60008060008060808587031215613cae57600080fd5b8451613cb98161315f565b6020860151909450613cca81612fc0565b6040860151909350613cdb816131d0565b6060959095015193969295505050565b634e487b7160e01b600052601260045260246000fd5b600060208284031215613d1357600080fd5b815161203c816131d0565b6000816000190483118215151615613d3857613d386134df565b500290565b600082613d4c57613d4c613ceb565b500490565b600082613d6057613d60613ceb565b500690565b805160208201516001600160e01b03198082169291906004831015613d945780818460040360031b1b83161693505b505050919050565b60008219821115613daf57613daf6134df565b50019056fea264697066735822122074f57b43fb5800543cfe8279938ade5db922693639ce2442ccb9efa3368f9d8764736f6c63430008080033",
  "linkReferences": {},
  "deployedLinkReferences": {}
}