{
  "_format": "hh-sol-artifact-1",
  "contractName": "TimeswapV2Pool",
  "sourceName": "@timeswap-labs/v2-pool/contracts/TimeswapV2Pool.sol",
  "abi": [
    {
      "inputs": [],
      "stateMutability": "nonpayable",
      "type": "constructor"
    },
    {
      "inputs": [
        {
          "internalType": "uint256",
          "name": "maturity",
          "type": "uint256"
        },
        {
          "internalType": "uint96",
          "name": "blockTimestamp",
          "type": "uint96"
        }
      ],
      "name": "AlreadyMatured",
      "type": "error"
    },
    {
      "inputs": [],
      "name": "CannotBeDelegateCalled",
      "type": "error"
    },
    {
      "inputs": [],
      "name": "CannotBeZero",
      "type": "error"
    },
    {
      "inputs": [
        {
          "internalType": "uint256",
          "name": "maturity",
          "type": "uint256"
        }
      ],
      "name": "IncorrectMaturity",
      "type": "error"
    },
    {
      "inputs": [],
      "name": "InvalidTransaction",
      "type": "error"
    },
    {
      "inputs": [],
      "name": "NoReentrantCall",
      "type": "error"
    },
    {
      "inputs": [
        {
          "internalType": "uint256",
          "name": "minuend",
          "type": "uint256"
        },
        {
          "internalType": "uint256",
          "name": "subtrahend",
          "type": "uint256"
        }
      ],
      "name": "NotEnoughReceived",
      "type": "error"
    },
    {
      "inputs": [],
      "name": "NotInteracted",
      "type": "error"
    },
    {
      "inputs": [
        {
          "internalType": "address",
          "name": "caller",
          "type": "address"
        },
        {
          "internalType": "address",
          "name": "owner",
          "type": "address"
        }
      ],
      "name": "NotTheOwner",
      "type": "error"
    },
    {
      "inputs": [],
      "name": "Quote",
      "type": "error"
    },
    {
      "inputs": [],
      "name": "RequireLiquidity",
      "type": "error"
    },
    {
      "inputs": [],
      "name": "ZeroAddress",
      "type": "error"
    },
    {
      "inputs": [],
      "name": "ZeroInput",
      "type": "error"
    },
    {
      "anonymous": false,
      "inputs": [
        {
          "indexed": true,
          "internalType": "uint256",
          "name": "strike",
          "type": "uint256"
        },
        {
          "indexed": true,
          "internalType": "uint256",
          "name": "maturity",
          "type": "uint256"
        },
        {
          "indexed": true,
          "internalType": "address",
          "name": "caller",
          "type": "address"
        },
        {
          "indexed": false,
          "internalType": "address",
          "name": "to",
          "type": "address"
        },
        {
          "indexed": false,
          "internalType": "uint256",
          "name": "long0Fees",
          "type": "uint256"
        },
        {
          "indexed": false,
          "internalType": "uint256",
          "name": "long1Fees",
          "type": "uint256"
        },
        {
          "indexed": false,
          "internalType": "uint256",
          "name": "shortFees",
          "type": "uint256"
        }
      ],
      "name": "AddFees",
      "type": "event"
    },
    {
      "anonymous": false,
      "inputs": [
        {
          "indexed": true,
          "internalType": "uint256",
          "name": "strike",
          "type": "uint256"
        },
        {
          "indexed": true,
          "internalType": "uint256",
          "name": "maturity",
          "type": "uint256"
        },
        {
          "indexed": true,
          "internalType": "address",
          "name": "caller",
          "type": "address"
        },
        {
          "indexed": false,
          "internalType": "address",
          "name": "long0To",
          "type": "address"
        },
        {
          "indexed": false,
          "internalType": "address",
          "name": "long1To",
          "type": "address"
        },
        {
          "indexed": false,
          "internalType": "address",
          "name": "shortTo",
          "type": "address"
        },
        {
          "indexed": false,
          "internalType": "uint160",
          "name": "liquidityAmount",
          "type": "uint160"
        },
        {
          "indexed": false,
          "internalType": "uint256",
          "name": "long0Amount",
          "type": "uint256"
        },
        {
          "indexed": false,
          "internalType": "uint256",
          "name": "long1Amount",
          "type": "uint256"
        },
        {
          "indexed": false,
          "internalType": "uint256",
          "name": "shortAmount",
          "type": "uint256"
        }
      ],
      "name": "Burn",
      "type": "event"
    },
    {
      "anonymous": false,
      "inputs": [
        {
          "indexed": true,
          "internalType": "uint256",
          "name": "strike",
          "type": "uint256"
        },
        {
          "indexed": true,
          "internalType": "uint256",
          "name": "maturity",
          "type": "uint256"
        },
        {
          "indexed": true,
          "internalType": "address",
          "name": "caller",
          "type": "address"
        },
        {
          "indexed": false,
          "internalType": "address",
          "name": "long0To",
          "type": "address"
        },
        {
          "indexed": false,
          "internalType": "address",
          "name": "long1To",
          "type": "address"
        },
        {
          "indexed": false,
          "internalType": "address",
          "name": "shortTo",
          "type": "address"
        },
        {
          "indexed": false,
          "internalType": "uint256",
          "name": "long0Amount",
          "type": "uint256"
        },
        {
          "indexed": false,
          "internalType": "uint256",
          "name": "long1Amount",
          "type": "uint256"
        },
        {
          "indexed": false,
          "internalType": "uint256",
          "name": "shortAmount",
          "type": "uint256"
        }
      ],
      "name": "CollectProtocolFees",
      "type": "event"
    },
    {
      "anonymous": false,
      "inputs": [
        {
          "indexed": true,
          "internalType": "uint256",
          "name": "strike",
          "type": "uint256"
        },
        {
          "indexed": true,
          "internalType": "uint256",
          "name": "maturity",
          "type": "uint256"
        },
        {
          "indexed": true,
          "internalType": "address",
          "name": "caller",
          "type": "address"
        },
        {
          "indexed": false,
          "internalType": "address",
          "name": "long0To",
          "type": "address"
        },
        {
          "indexed": false,
          "internalType": "address",
          "name": "long1To",
          "type": "address"
        },
        {
          "indexed": false,
          "internalType": "address",
          "name": "shortTo",
          "type": "address"
        },
        {
          "indexed": false,
          "internalType": "uint256",
          "name": "long0Amount",
          "type": "uint256"
        },
        {
          "indexed": false,
          "internalType": "uint256",
          "name": "long1Amount",
          "type": "uint256"
        },
        {
          "indexed": false,
          "internalType": "uint256",
          "name": "shortAmount",
          "type": "uint256"
        }
      ],
      "name": "CollectTransactionFee",
      "type": "event"
    },
    {
      "anonymous": false,
      "inputs": [
        {
          "indexed": true,
          "internalType": "uint256",
          "name": "strike",
          "type": "uint256"
        },
        {
          "indexed": true,
          "internalType": "uint256",
          "name": "maturity",
          "type": "uint256"
        },
        {
          "indexed": true,
          "internalType": "address",
          "name": "caller",
          "type": "address"
        },
        {
          "indexed": false,
          "internalType": "address",
          "name": "to",
          "type": "address"
        },
        {
          "indexed": false,
          "internalType": "uint256",
          "name": "long0Amount",
          "type": "uint256"
        },
        {
          "indexed": false,
          "internalType": "uint256",
          "name": "long1Amount",
          "type": "uint256"
        },
        {
          "indexed": false,
          "internalType": "uint256",
          "name": "shortAmount",
          "type": "uint256"
        }
      ],
      "name": "Deleverage",
      "type": "event"
    },
    {
      "anonymous": false,
      "inputs": [
        {
          "indexed": true,
          "internalType": "uint256",
          "name": "strike",
          "type": "uint256"
        },
        {
          "indexed": true,
          "internalType": "uint256",
          "name": "maturity",
          "type": "uint256"
        },
        {
          "indexed": true,
          "internalType": "address",
          "name": "caller",
          "type": "address"
        },
        {
          "indexed": false,
          "internalType": "address",
          "name": "long0To",
          "type": "address"
        },
        {
          "indexed": false,
          "internalType": "address",
          "name": "long1To",
          "type": "address"
        },
        {
          "indexed": false,
          "internalType": "uint256",
          "name": "long0Amount",
          "type": "uint256"
        },
        {
          "indexed": false,
          "internalType": "uint256",
          "name": "long1Amount",
          "type": "uint256"
        },
        {
          "indexed": false,
          "internalType": "uint256",
          "name": "shortAmount",
          "type": "uint256"
        }
      ],
      "name": "Leverage",
      "type": "event"
    },
    {
      "anonymous": false,
      "inputs": [
        {
          "indexed": true,
          "internalType": "uint256",
          "name": "strike",
          "type": "uint256"
        },
        {
          "indexed": true,
          "internalType": "uint256",
          "name": "maturity",
          "type": "uint256"
        },
        {
          "indexed": true,
          "internalType": "address",
          "name": "caller",
          "type": "address"
        },
        {
          "indexed": false,
          "internalType": "address",
          "name": "to",
          "type": "address"
        },
        {
          "indexed": false,
          "internalType": "uint160",
          "name": "liquidityAmount",
          "type": "uint160"
        },
        {
          "indexed": false,
          "internalType": "uint256",
          "name": "long0Amount",
          "type": "uint256"
        },
        {
          "indexed": false,
          "internalType": "uint256",
          "name": "long1Amount",
          "type": "uint256"
        },
        {
          "indexed": false,
          "internalType": "uint256",
          "name": "shortAmount",
          "type": "uint256"
        }
      ],
      "name": "Mint",
      "type": "event"
    },
    {
      "anonymous": false,
      "inputs": [
        {
          "indexed": true,
          "internalType": "uint256",
          "name": "strike",
          "type": "uint256"
        },
        {
          "indexed": true,
          "internalType": "uint256",
          "name": "maturity",
          "type": "uint256"
        },
        {
          "indexed": true,
          "internalType": "address",
          "name": "caller",
          "type": "address"
        },
        {
          "indexed": false,
          "internalType": "address",
          "name": "to",
          "type": "address"
        },
        {
          "indexed": false,
          "internalType": "bool",
          "name": "isLong0ToLong1",
          "type": "bool"
        },
        {
          "indexed": false,
          "internalType": "uint256",
          "name": "long0Amount",
          "type": "uint256"
        },
        {
          "indexed": false,
          "internalType": "uint256",
          "name": "long1Amount",
          "type": "uint256"
        }
      ],
      "name": "Rebalance",
      "type": "event"
    },
    {
      "anonymous": false,
      "inputs": [
        {
          "indexed": true,
          "internalType": "uint256",
          "name": "strike",
          "type": "uint256"
        },
        {
          "indexed": true,
          "internalType": "uint256",
          "name": "maturity",
          "type": "uint256"
        },
        {
          "indexed": false,
          "internalType": "address",
          "name": "from",
          "type": "address"
        },
        {
          "indexed": false,
          "internalType": "address",
          "name": "to",
          "type": "address"
        },
        {
          "indexed": false,
          "internalType": "uint256",
          "name": "long0Fees",
          "type": "uint256"
        },
        {
          "indexed": false,
          "internalType": "uint256",
          "name": "long1Fees",
          "type": "uint256"
        },
        {
          "indexed": false,
          "internalType": "uint256",
          "name": "shortFees",
          "type": "uint256"
        }
      ],
      "name": "TransferFees",
      "type": "event"
    },
    {
      "anonymous": false,
      "inputs": [
        {
          "indexed": true,
          "internalType": "uint256",
          "name": "strike",
          "type": "uint256"
        },
        {
          "indexed": true,
          "internalType": "uint256",
          "name": "maturity",
          "type": "uint256"
        },
        {
          "indexed": false,
          "internalType": "address",
          "name": "from",
          "type": "address"
        },
        {
          "indexed": false,
          "internalType": "address",
          "name": "to",
          "type": "address"
        },
        {
          "indexed": false,
          "internalType": "uint160",
          "name": "liquidityAmount",
          "type": "uint160"
        }
      ],
      "name": "TransferLiquidity",
      "type": "event"
    },
    {
      "inputs": [
        {
          "components": [
            {
              "internalType": "uint256",
              "name": "strike",
              "type": "uint256"
            },
            {
              "internalType": "uint256",
              "name": "maturity",
              "type": "uint256"
            },
            {
              "internalType": "address",
              "name": "to",
              "type": "address"
            },
            {
              "internalType": "uint256",
              "name": "long0Fees",
              "type": "uint256"
            },
            {
              "internalType": "uint256",
              "name": "long1Fees",
              "type": "uint256"
            },
            {
              "internalType": "uint256",
              "name": "shortFees",
              "type": "uint256"
            },
            {
              "internalType": "bytes",
              "name": "data",
              "type": "bytes"
            }
          ],
          "internalType": "struct TimeswapV2PoolAddFeesParam",
          "name": "param",
          "type": "tuple"
        }
      ],
      "name": "addFees",
      "outputs": [
        {
          "internalType": "bytes",
          "name": "data",
          "type": "bytes"
        }
      ],
      "stateMutability": "nonpayable",
      "type": "function"
    },
    {
      "inputs": [
        {
          "components": [
            {
              "internalType": "uint256",
              "name": "strike",
              "type": "uint256"
            },
            {
              "internalType": "uint256",
              "name": "maturity",
              "type": "uint256"
            },
            {
              "internalType": "address",
              "name": "long0To",
              "type": "address"
            },
            {
              "internalType": "address",
              "name": "long1To",
              "type": "address"
            },
            {
              "internalType": "address",
              "name": "shortTo",
              "type": "address"
            },
            {
              "internalType": "enum TimeswapV2PoolBurn",
              "name": "transaction",
              "type": "uint8"
            },
            {
              "internalType": "uint256",
              "name": "delta",
              "type": "uint256"
            },
            {
              "internalType": "bytes",
              "name": "data",
              "type": "bytes"
            }
          ],
          "internalType": "struct TimeswapV2PoolBurnParam",
          "name": "param",
          "type": "tuple"
        },
        {
          "internalType": "uint96",
          "name": "durationForward",
          "type": "uint96"
        }
      ],
      "name": "burn",
      "outputs": [
        {
          "internalType": "uint160",
          "name": "liquidityAmount",
          "type": "uint160"
        },
        {
          "internalType": "uint256",
          "name": "long0Amount",
          "type": "uint256"
        },
        {
          "internalType": "uint256",
          "name": "long1Amount",
          "type": "uint256"
        },
        {
          "internalType": "uint256",
          "name": "shortAmount",
          "type": "uint256"
        },
        {
          "internalType": "bytes",
          "name": "data",
          "type": "bytes"
        }
      ],
      "stateMutability": "nonpayable",
      "type": "function"
    },
    {
      "inputs": [
        {
          "components": [
            {
              "internalType": "uint256",
              "name": "strike",
              "type": "uint256"
            },
            {
              "internalType": "uint256",
              "name": "maturity",
              "type": "uint256"
            },
            {
              "internalType": "address",
              "name": "long0To",
              "type": "address"
            },
            {
              "internalType": "address",
              "name": "long1To",
              "type": "address"
            },
            {
              "internalType": "address",
              "name": "shortTo",
              "type": "address"
            },
            {
              "internalType": "enum TimeswapV2PoolBurn",
              "name": "transaction",
              "type": "uint8"
            },
            {
              "internalType": "uint256",
              "name": "delta",
              "type": "uint256"
            },
            {
              "internalType": "bytes",
              "name": "data",
              "type": "bytes"
            }
          ],
          "internalType": "struct TimeswapV2PoolBurnParam",
          "name": "param",
          "type": "tuple"
        }
      ],
      "name": "burn",
      "outputs": [
        {
          "internalType": "uint160",
          "name": "liquidityAmount",
          "type": "uint160"
        },
        {
          "internalType": "uint256",
          "name": "long0Amount",
          "type": "uint256"
        },
        {
          "internalType": "uint256",
          "name": "long1Amount",
          "type": "uint256"
        },
        {
          "internalType": "uint256",
          "name": "shortAmount",
          "type": "uint256"
        },
        {
          "internalType": "bytes",
          "name": "data",
          "type": "bytes"
        }
      ],
      "stateMutability": "nonpayable",
      "type": "function"
    },
    {
      "inputs": [
        {
          "components": [
            {
              "internalType": "uint256",
              "name": "strike",
              "type": "uint256"
            },
            {
              "internalType": "uint256",
              "name": "maturity",
              "type": "uint256"
            },
            {
              "internalType": "address",
              "name": "long0To",
              "type": "address"
            },
            {
              "internalType": "address",
              "name": "long1To",
              "type": "address"
            },
            {
              "internalType": "address",
              "name": "shortTo",
              "type": "address"
            },
            {
              "internalType": "uint256",
              "name": "long0Requested",
              "type": "uint256"
            },
            {
              "internalType": "uint256",
              "name": "long1Requested",
              "type": "uint256"
            },
            {
              "internalType": "uint256",
              "name": "shortRequested",
              "type": "uint256"
            }
          ],
          "internalType": "struct TimeswapV2PoolCollectParam",
          "name": "param",
          "type": "tuple"
        }
      ],
      "name": "collectProtocolFees",
      "outputs": [
        {
          "internalType": "uint256",
          "name": "long0Amount",
          "type": "uint256"
        },
        {
          "internalType": "uint256",
          "name": "long1Amount",
          "type": "uint256"
        },
        {
          "internalType": "uint256",
          "name": "shortAmount",
          "type": "uint256"
        }
      ],
      "stateMutability": "nonpayable",
      "type": "function"
    },
    {
      "inputs": [
        {
          "components": [
            {
              "internalType": "uint256",
              "name": "strike",
              "type": "uint256"
            },
            {
              "internalType": "uint256",
              "name": "maturity",
              "type": "uint256"
            },
            {
              "internalType": "address",
              "name": "long0To",
              "type": "address"
            },
            {
              "internalType": "address",
              "name": "long1To",
              "type": "address"
            },
            {
              "internalType": "address",
              "name": "shortTo",
              "type": "address"
            },
            {
              "internalType": "uint256",
              "name": "long0Requested",
              "type": "uint256"
            },
            {
              "internalType": "uint256",
              "name": "long1Requested",
              "type": "uint256"
            },
            {
              "internalType": "uint256",
              "name": "shortRequested",
              "type": "uint256"
            }
          ],
          "internalType": "struct TimeswapV2PoolCollectParam",
          "name": "param",
          "type": "tuple"
        }
      ],
      "name": "collectTransactionFees",
      "outputs": [
        {
          "internalType": "uint256",
          "name": "long0Amount",
          "type": "uint256"
        },
        {
          "internalType": "uint256",
          "name": "long1Amount",
          "type": "uint256"
        },
        {
          "internalType": "uint256",
          "name": "shortAmount",
          "type": "uint256"
        }
      ],
      "stateMutability": "nonpayable",
      "type": "function"
    },
    {
      "inputs": [
        {
          "components": [
            {
              "internalType": "uint256",
              "name": "strike",
              "type": "uint256"
            },
            {
              "internalType": "uint256",
              "name": "maturity",
              "type": "uint256"
            },
            {
              "internalType": "address",
              "name": "to",
              "type": "address"
            },
            {
              "internalType": "enum TimeswapV2PoolDeleverage",
              "name": "transaction",
              "type": "uint8"
            },
            {
              "internalType": "uint256",
              "name": "delta",
              "type": "uint256"
            },
            {
              "internalType": "bytes",
              "name": "data",
              "type": "bytes"
            }
          ],
          "internalType": "struct TimeswapV2PoolDeleverageParam",
          "name": "param",
          "type": "tuple"
        }
      ],
      "name": "deleverage",
      "outputs": [
        {
          "internalType": "uint256",
          "name": "long0Amount",
          "type": "uint256"
        },
        {
          "internalType": "uint256",
          "name": "long1Amount",
          "type": "uint256"
        },
        {
          "internalType": "uint256",
          "name": "shortAmount",
          "type": "uint256"
        },
        {
          "internalType": "bytes",
          "name": "data",
          "type": "bytes"
        }
      ],
      "stateMutability": "nonpayable",
      "type": "function"
    },
    {
      "inputs": [
        {
          "components": [
            {
              "internalType": "uint256",
              "name": "strike",
              "type": "uint256"
            },
            {
              "internalType": "uint256",
              "name": "maturity",
              "type": "uint256"
            },
            {
              "internalType": "address",
              "name": "to",
              "type": "address"
            },
            {
              "internalType": "enum TimeswapV2PoolDeleverage",
              "name": "transaction",
              "type": "uint8"
            },
            {
              "internalType": "uint256",
              "name": "delta",
              "type": "uint256"
            },
            {
              "internalType": "bytes",
              "name": "data",
              "type": "bytes"
            }
          ],
          "internalType": "struct TimeswapV2PoolDeleverageParam",
          "name": "param",
          "type": "tuple"
        },
        {
          "internalType": "uint96",
          "name": "durationForward",
          "type": "uint96"
        }
      ],
      "name": "deleverage",
      "outputs": [
        {
          "internalType": "uint256",
          "name": "long0Amount",
          "type": "uint256"
        },
        {
          "internalType": "uint256",
          "name": "long1Amount",
          "type": "uint256"
        },
        {
          "internalType": "uint256",
          "name": "shortAmount",
          "type": "uint256"
        },
        {
          "internalType": "bytes",
          "name": "data",
          "type": "bytes"
        }
      ],
      "stateMutability": "nonpayable",
      "type": "function"
    },
    {
      "inputs": [
        {
          "internalType": "uint256",
          "name": "strike",
          "type": "uint256"
        },
        {
          "internalType": "uint256",
          "name": "maturity",
          "type": "uint256"
        }
      ],
      "name": "feeGrowth",
      "outputs": [
        {
          "internalType": "uint256",
          "name": "long0FeeGrowth",
          "type": "uint256"
        },
        {
          "internalType": "uint256",
          "name": "long1FeeGrowth",
          "type": "uint256"
        },
        {
          "internalType": "uint256",
          "name": "shortFeeGrowth",
          "type": "uint256"
        }
      ],
      "stateMutability": "view",
      "type": "function"
    },
    {
      "inputs": [
        {
          "internalType": "uint256",
          "name": "strike",
          "type": "uint256"
        },
        {
          "internalType": "uint256",
          "name": "maturity",
          "type": "uint256"
        },
        {
          "internalType": "address",
          "name": "owner",
          "type": "address"
        }
      ],
      "name": "feesEarnedOf",
      "outputs": [
        {
          "internalType": "uint256",
          "name": "long0Fees",
          "type": "uint256"
        },
        {
          "internalType": "uint256",
          "name": "long1Fees",
          "type": "uint256"
        },
        {
          "internalType": "uint256",
          "name": "shortFees",
          "type": "uint256"
        }
      ],
      "stateMutability": "view",
      "type": "function"
    },
    {
      "inputs": [
        {
          "internalType": "uint256",
          "name": "id",
          "type": "uint256"
        }
      ],
      "name": "getByIndex",
      "outputs": [
        {
          "components": [
            {
              "internalType": "uint256",
              "name": "strike",
              "type": "uint256"
            },
            {
              "internalType": "uint256",
              "name": "maturity",
              "type": "uint256"
            }
          ],
          "internalType": "struct StrikeAndMaturity",
          "name": "",
          "type": "tuple"
        }
      ],
      "stateMutability": "view",
      "type": "function"
    },
    {
      "inputs": [
        {
          "internalType": "uint256",
          "name": "strike",
          "type": "uint256"
        },
        {
          "internalType": "uint256",
          "name": "maturity",
          "type": "uint256"
        },
        {
          "internalType": "uint160",
          "name": "rate",
          "type": "uint160"
        }
      ],
      "name": "initialize",
      "outputs": [],
      "stateMutability": "nonpayable",
      "type": "function"
    },
    {
      "inputs": [
        {
          "components": [
            {
              "internalType": "uint256",
              "name": "strike",
              "type": "uint256"
            },
            {
              "internalType": "uint256",
              "name": "maturity",
              "type": "uint256"
            },
            {
              "internalType": "address",
              "name": "long0To",
              "type": "address"
            },
            {
              "internalType": "address",
              "name": "long1To",
              "type": "address"
            },
            {
              "internalType": "enum TimeswapV2PoolLeverage",
              "name": "transaction",
              "type": "uint8"
            },
            {
              "internalType": "uint256",
              "name": "delta",
              "type": "uint256"
            },
            {
              "internalType": "bytes",
              "name": "data",
              "type": "bytes"
            }
          ],
          "internalType": "struct TimeswapV2PoolLeverageParam",
          "name": "param",
          "type": "tuple"
        },
        {
          "internalType": "uint96",
          "name": "durationForward",
          "type": "uint96"
        }
      ],
      "name": "leverage",
      "outputs": [
        {
          "internalType": "uint256",
          "name": "long0Amount",
          "type": "uint256"
        },
        {
          "internalType": "uint256",
          "name": "long1Amount",
          "type": "uint256"
        },
        {
          "internalType": "uint256",
          "name": "shortAmount",
          "type": "uint256"
        },
        {
          "internalType": "bytes",
          "name": "data",
          "type": "bytes"
        }
      ],
      "stateMutability": "nonpayable",
      "type": "function"
    },
    {
      "inputs": [
        {
          "components": [
            {
              "internalType": "uint256",
              "name": "strike",
              "type": "uint256"
            },
            {
              "internalType": "uint256",
              "name": "maturity",
              "type": "uint256"
            },
            {
              "internalType": "address",
              "name": "long0To",
              "type": "address"
            },
            {
              "internalType": "address",
              "name": "long1To",
              "type": "address"
            },
            {
              "internalType": "enum TimeswapV2PoolLeverage",
              "name": "transaction",
              "type": "uint8"
            },
            {
              "internalType": "uint256",
              "name": "delta",
              "type": "uint256"
            },
            {
              "internalType": "bytes",
              "name": "data",
              "type": "bytes"
            }
          ],
          "internalType": "struct TimeswapV2PoolLeverageParam",
          "name": "param",
          "type": "tuple"
        }
      ],
      "name": "leverage",
      "outputs": [
        {
          "internalType": "uint256",
          "name": "long0Amount",
          "type": "uint256"
        },
        {
          "internalType": "uint256",
          "name": "long1Amount",
          "type": "uint256"
        },
        {
          "internalType": "uint256",
          "name": "shortAmount",
          "type": "uint256"
        },
        {
          "internalType": "bytes",
          "name": "data",
          "type": "bytes"
        }
      ],
      "stateMutability": "nonpayable",
      "type": "function"
    },
    {
      "inputs": [
        {
          "internalType": "uint256",
          "name": "strike",
          "type": "uint256"
        },
        {
          "internalType": "uint256",
          "name": "maturity",
          "type": "uint256"
        },
        {
          "internalType": "address",
          "name": "owner",
          "type": "address"
        }
      ],
      "name": "liquidityOf",
      "outputs": [
        {
          "internalType": "uint160",
          "name": "",
          "type": "uint160"
        }
      ],
      "stateMutability": "view",
      "type": "function"
    },
    {
      "inputs": [
        {
          "components": [
            {
              "internalType": "uint256",
              "name": "strike",
              "type": "uint256"
            },
            {
              "internalType": "uint256",
              "name": "maturity",
              "type": "uint256"
            },
            {
              "internalType": "address",
              "name": "to",
              "type": "address"
            },
            {
              "internalType": "enum TimeswapV2PoolMint",
              "name": "transaction",
              "type": "uint8"
            },
            {
              "internalType": "uint256",
              "name": "delta",
              "type": "uint256"
            },
            {
              "internalType": "bytes",
              "name": "data",
              "type": "bytes"
            }
          ],
          "internalType": "struct TimeswapV2PoolMintParam",
          "name": "param",
          "type": "tuple"
        },
        {
          "internalType": "uint96",
          "name": "durationForward",
          "type": "uint96"
        }
      ],
      "name": "mint",
      "outputs": [
        {
          "internalType": "uint160",
          "name": "liquidityAmount",
          "type": "uint160"
        },
        {
          "internalType": "uint256",
          "name": "long0Amount",
          "type": "uint256"
        },
        {
          "internalType": "uint256",
          "name": "long1Amount",
          "type": "uint256"
        },
        {
          "internalType": "uint256",
          "name": "shortAmount",
          "type": "uint256"
        },
        {
          "internalType": "bytes",
          "name": "data",
          "type": "bytes"
        }
      ],
      "stateMutability": "nonpayable",
      "type": "function"
    },
    {
      "inputs": [
        {
          "components": [
            {
              "internalType": "uint256",
              "name": "strike",
              "type": "uint256"
            },
            {
              "internalType": "uint256",
              "name": "maturity",
              "type": "uint256"
            },
            {
              "internalType": "address",
              "name": "to",
              "type": "address"
            },
            {
              "internalType": "enum TimeswapV2PoolMint",
              "name": "transaction",
              "type": "uint8"
            },
            {
              "internalType": "uint256",
              "name": "delta",
              "type": "uint256"
            },
            {
              "internalType": "bytes",
              "name": "data",
              "type": "bytes"
            }
          ],
          "internalType": "struct TimeswapV2PoolMintParam",
          "name": "param",
          "type": "tuple"
        }
      ],
      "name": "mint",
      "outputs": [
        {
          "internalType": "uint160",
          "name": "liquidityAmount",
          "type": "uint160"
        },
        {
          "internalType": "uint256",
          "name": "long0Amount",
          "type": "uint256"
        },
        {
          "internalType": "uint256",
          "name": "long1Amount",
          "type": "uint256"
        },
        {
          "internalType": "uint256",
          "name": "shortAmount",
          "type": "uint256"
        },
        {
          "internalType": "bytes",
          "name": "data",
          "type": "bytes"
        }
      ],
      "stateMutability": "nonpayable",
      "type": "function"
    },
    {
      "inputs": [],
      "name": "numberOfPools",
      "outputs": [
        {
          "internalType": "uint256",
          "name": "",
          "type": "uint256"
        }
      ],
      "stateMutability": "view",
      "type": "function"
    },
    {
      "inputs": [],
      "name": "optionPair",
      "outputs": [
        {
          "internalType": "address",
          "name": "",
          "type": "address"
        }
      ],
      "stateMutability": "view",
      "type": "function"
    },
    {
      "inputs": [],
      "name": "poolFactory",
      "outputs": [
        {
          "internalType": "address",
          "name": "",
          "type": "address"
        }
      ],
      "stateMutability": "view",
      "type": "function"
    },
    {
      "inputs": [],
      "name": "protocolFee",
      "outputs": [
        {
          "internalType": "uint256",
          "name": "",
          "type": "uint256"
        }
      ],
      "stateMutability": "view",
      "type": "function"
    },
    {
      "inputs": [
        {
          "internalType": "uint256",
          "name": "strike",
          "type": "uint256"
        },
        {
          "internalType": "uint256",
          "name": "maturity",
          "type": "uint256"
        }
      ],
      "name": "protocolFeesEarned",
      "outputs": [
        {
          "internalType": "uint256",
          "name": "long0ProtocolFees",
          "type": "uint256"
        },
        {
          "internalType": "uint256",
          "name": "long1ProtocolFees",
          "type": "uint256"
        },
        {
          "internalType": "uint256",
          "name": "shortProtocolFees",
          "type": "uint256"
        }
      ],
      "stateMutability": "view",
      "type": "function"
    },
    {
      "inputs": [
        {
          "components": [
            {
              "internalType": "uint256",
              "name": "strike",
              "type": "uint256"
            },
            {
              "internalType": "uint256",
              "name": "maturity",
              "type": "uint256"
            },
            {
              "internalType": "address",
              "name": "to",
              "type": "address"
            },
            {
              "internalType": "bool",
              "name": "isLong0ToLong1",
              "type": "bool"
            },
            {
              "internalType": "enum TimeswapV2PoolRebalance",
              "name": "transaction",
              "type": "uint8"
            },
            {
              "internalType": "uint256",
              "name": "delta",
              "type": "uint256"
            },
            {
              "internalType": "bytes",
              "name": "data",
              "type": "bytes"
            }
          ],
          "internalType": "struct TimeswapV2PoolRebalanceParam",
          "name": "param",
          "type": "tuple"
        }
      ],
      "name": "rebalance",
      "outputs": [
        {
          "internalType": "uint256",
          "name": "long0Amount",
          "type": "uint256"
        },
        {
          "internalType": "uint256",
          "name": "long1Amount",
          "type": "uint256"
        },
        {
          "internalType": "bytes",
          "name": "data",
          "type": "bytes"
        }
      ],
      "stateMutability": "nonpayable",
      "type": "function"
    },
    {
      "inputs": [
        {
          "internalType": "uint256",
          "name": "strike",
          "type": "uint256"
        },
        {
          "internalType": "uint256",
          "name": "maturity",
          "type": "uint256"
        }
      ],
      "name": "sqrtInterestRate",
      "outputs": [
        {
          "internalType": "uint160",
          "name": "",
          "type": "uint160"
        }
      ],
      "stateMutability": "view",
      "type": "function"
    },
    {
      "inputs": [
        {
          "internalType": "uint256",
          "name": "strike",
          "type": "uint256"
        },
        {
          "internalType": "uint256",
          "name": "maturity",
          "type": "uint256"
        }
      ],
      "name": "totalLiquidity",
      "outputs": [
        {
          "internalType": "uint160",
          "name": "",
          "type": "uint160"
        }
      ],
      "stateMutability": "view",
      "type": "function"
    },
    {
      "inputs": [
        {
          "internalType": "uint256",
          "name": "strike",
          "type": "uint256"
        },
        {
          "internalType": "uint256",
          "name": "maturity",
          "type": "uint256"
        }
      ],
      "name": "totalLongBalance",
      "outputs": [
        {
          "internalType": "uint256",
          "name": "long0Amount",
          "type": "uint256"
        },
        {
          "internalType": "uint256",
          "name": "long1Amount",
          "type": "uint256"
        }
      ],
      "stateMutability": "view",
      "type": "function"
    },
    {
      "inputs": [
        {
          "internalType": "uint256",
          "name": "strike",
          "type": "uint256"
        },
        {
          "internalType": "uint256",
          "name": "maturity",
          "type": "uint256"
        }
      ],
      "name": "totalLongBalanceAdjustFees",
      "outputs": [
        {
          "internalType": "uint256",
          "name": "long0Amount",
          "type": "uint256"
        },
        {
          "internalType": "uint256",
          "name": "long1Amount",
          "type": "uint256"
        }
      ],
      "stateMutability": "view",
      "type": "function"
    },
    {
      "inputs": [
        {
          "internalType": "uint256",
          "name": "strike",
          "type": "uint256"
        },
        {
          "internalType": "uint256",
          "name": "maturity",
          "type": "uint256"
        }
      ],
      "name": "totalPositions",
      "outputs": [
        {
          "internalType": "uint256",
          "name": "longAmount",
          "type": "uint256"
        },
        {
          "internalType": "uint256",
          "name": "shortAmount",
          "type": "uint256"
        }
      ],
      "stateMutability": "view",
      "type": "function"
    },
    {
      "inputs": [],
      "name": "transactionFee",
      "outputs": [
        {
          "internalType": "uint256",
          "name": "",
          "type": "uint256"
        }
      ],
      "stateMutability": "view",
      "type": "function"
    },
    {
      "inputs": [
        {
          "internalType": "uint256",
          "name": "strike",
          "type": "uint256"
        },
        {
          "internalType": "uint256",
          "name": "maturity",
          "type": "uint256"
        },
        {
          "internalType": "address",
          "name": "to",
          "type": "address"
        },
        {
          "internalType": "uint256",
          "name": "long0Fees",
          "type": "uint256"
        },
        {
          "internalType": "uint256",
          "name": "long1Fees",
          "type": "uint256"
        },
        {
          "internalType": "uint256",
          "name": "shortFees",
          "type": "uint256"
        }
      ],
      "name": "transferFees",
      "outputs": [],
      "stateMutability": "nonpayable",
      "type": "function"
    },
    {
      "inputs": [
        {
          "internalType": "uint256",
          "name": "strike",
          "type": "uint256"
        },
        {
          "internalType": "uint256",
          "name": "maturity",
          "type": "uint256"
        },
        {
          "internalType": "address",
          "name": "to",
          "type": "address"
        },
        {
          "internalType": "uint160",
          "name": "liquidityAmount",
          "type": "uint160"
        }
      ],
      "name": "transferLiquidity",
      "outputs": [],
      "stateMutability": "nonpayable",
      "type": "function"
    },
    {
      "inputs": [
        {
          "internalType": "uint256",
          "name": "strike",
          "type": "uint256"
        },
        {
          "internalType": "uint256",
          "name": "maturity",
          "type": "uint256"
        }
      ],
      "name": "update",
      "outputs": [],
      "stateMutability": "nonpayable",
      "type": "function"
    }
  ],
  "bytecode": "0x6101206040523480156200001257600080fd5b503060601b60809081526040805163ad4d4e2960e01b81529051339263ad4d4e299260048082019391829003018186803b1580156200005057600080fd5b505afa15801562000065573d6000803e3d6000fd5b505050506040513d601f19601f820116820180604052508101906200008b9190620000cf565b6101005260e0526001600160601b0319606091821b811660c05291901b1660a05262000117565b80516001600160a01b0381168114620000ca57600080fd5b919050565b60008060008060808587031215620000e657600080fd5b620000f185620000b2565b93506200010160208601620000b2565b6040860151606090960151949790965092505050565b60805160601c60a05160601c60c05160601c60e05161010051614da36200026f600039600081816104de01528181610a6601528181612e4d01526133c201526000818161045c0152818161090d01528181610a4401528181612e2c01526133a101526000818161022201528181610b0a01528181610bda01528181610db301528181611037015281816110fe015281816111c5015281816113930152818161144f0152818161150b0152818161201b015281816120a901528181612137015281816123e20152818161248b01528181612546015281816126e001528181612744015281816127a2015281816129ed01528181612a8f01528181612b2b01528181612f1401528181612fd30152818161307b015281816131f80152818161325a0152818161348401528181613531015281816135d3015261374b0152600081816102ee015261164401526000611eaa0152614da36000f3fe608060405234801561001057600080fd5b50600436106101e55760003560e01c806372f8f85c1161010f578063ad118b02116100a2578063c0e0c4c611610071578063c0e0c4c614610547578063d7e2c24a1461055a578063e0260d111461056d578063f78333a31461058057600080fd5b8063ad118b02146104c6578063b0e21e8a146104d9578063b15044ac14610500578063bfec5c8a1461053457600080fd5b80638fdc5c99116100de5780638fdc5c99146104445780639ed3edf0146104575780639eee6e511461047e578063a8f403b71461049157600080fd5b806372f8f85c146103c557806378fb9d38146103d85780637ffd3a70146103fb578063847a10131461043157600080fd5b80634e9ca003116101875780636419724511610156578063641972451461037a578063647284f51461038d5780636c867790146103a05780636f682a53146103b357600080fd5b80634e9ca003146103105780635a195730146103345780635e2659f314610354578063630b15f31461036757600080fd5b80632fb565e8116101c35780632fb565e81461028a5780633a9d71e71461029f5780633aee875c146102c75780634219dc40146102e957600080fd5b80630630582e146101ea57806311c959fd1461021d5780632d883a731461025c575b600080fd5b6101fd6101f8366004613c1f565b6105c1565b604080519384526020840192909252908201526060015b60405180910390f35b6102447f000000000000000000000000000000000000000000000000000000000000000081565b6040516001600160a01b039091168152602001610214565b61026f61026a366004613c43565b6107d8565b60408051825181526020928301519281019290925201610214565b61029d610298366004613c5c565b610833565b005b6102b26102ad366004613c5c565b6108dd565b60408051928352602083019190915201610214565b6102da6102d5366004613c90565b6109ad565b60405161021493929190613d28565b6102447f000000000000000000000000000000000000000000000000000000000000000081565b61032361031e366004613d7e565b610f03565b604051610214959493929190613dcb565b610347610342366004613c90565b610f2a565b6040516102149190613e09565b610323610362366004613e1c565b6115d7565b610323610375366004613e51565b6115eb565b6101fd610388366004613c1f565b611611565b6101fd61039b366004613c5c565b61180b565b6101fd6103ae366004613ea5565b6118e1565b6002545b604051908152602001610214565b6101fd6103d3366004613c5c565b6119c7565b6103eb6103e6366004613ede565b611a1d565b6040516102149493929190613f12565b6102b2610409366004613c5c565b6000918252600160209081526040808420928452919052902060028101546003909101549091565b61032361043f366004613ede565b611a3f565b6102b2610452366004613c5c565b611a53565b6103b77f000000000000000000000000000000000000000000000000000000000000000081565b6103eb61048c366004613f41565b611ace565b61024461049f366004613c5c565b6000918252600160208181526040808520938552929052912001546001600160a01b031690565b61029d6104d4366004613ea5565b611af1565b6103b77f000000000000000000000000000000000000000000000000000000000000000081565b61024461050e366004613c5c565b60009182526001602090815260408084209284529190529020546001600160a01b031690565b6103eb610542366004613d7e565b611be5565b61029d610555366004613f76565b611bf8565b61029d610568366004613fc0565b611d69565b6103eb61057b366004613c90565b611e8c565b61024461058e366004613ea5565b60009283526001602090815260408085209385529281528284206001600160a01b039283168552600a0190529120541690565b60008060006105ce611e9f565b6105e56105e0368690038601866140c6565b611eea565b6105f484356020860135611f8f565b83356000908152600160209081526040808320828801358085529252822073__$dcdc2a3bd13529a455a9fb4aeaeabd9596$__92631d0ea1f2929060a08901359060c08a01359060e08b01359061064a90611fe3565b6040516001600160e01b031960e089901b168152600481019690965260248601949094526044850192909252606484015260848301526001600160601b031660a482015260c40160606040518083038186803b1580156106a957600080fd5b505af41580156106bd573d6000803e3d6000fd5b505050506040513d601f19601f820116820180604052508101906106e1919061416f565b9194509250905061072a84356020860135610702606088016040890161419d565b6107126080890160608a0161419d565b61072260a08a0160808b0161419d565b888888611ffe565b610739843560208601356121b2565b33602085013585357f6e9600f64d8c6ff3a965afd7a2fe211b9621753221ca9f9899f80500b709ec826107726060890160408a0161419d565b61078260808a0160608b0161419d565b61079260a08b0160808c0161419d565b604080516001600160a01b0394851681529284166020840152921681830152606081018990526080810188905260a0810187905290519081900360c00190a49193909250565b6040805180820190915260008082526020820152600282815481106107ff576107ff6141ba565b9060005260206000209060020201604051806040016040529081600082015481526020016001820154815250509050919050565b6000828152600160209081526040808320848452909152812073__$dcdc2a3bd13529a455a9fb4aeaeabd9596$__9163b4a7602b9190849061087490611fe3565b6040516001600160e01b031960e086901b168152600481019390935260248301919091526001600160601b0316604482015260640160006040518083038186803b1580156108c157600080fd5b505af41580156108d5573d6000803e3d6000fd5b505050505050565b600082815260016020908152604080832084845290915280822090516313571e0d60e11b815260048101919091527f00000000000000000000000000000000000000000000000000000000000000006024820152819073__$dcdc2a3bd13529a455a9fb4aeaeabd9596$__906326ae3c1a906044015b604080518083038186803b15801561096a57600080fd5b505af415801561097e573d6000803e3d6000fd5b505050506040513d601f19601f820116820180604052508101906109a291906141d0565b909590945092505050565b60008060606109ba611e9f565b6109c9843560208601356121dc565b6109e46109d585614290565b6109df6000611fe3565b61220f565b6109f384356020860135611f8f565b833560009081526001602090815260408083208288013584529091529081902090516302b65c4f60e11b815273__$dcdc2a3bd13529a455a9fb4aeaeabd9596$__9163056cb89e91610a8e919088907f0000000000000000000000000000000000000000000000000000000000000000907f0000000000000000000000000000000000000000000000000000000000000000906004016143b1565b604080518083038186803b158015610aa557600080fd5b505af4158015610ab9573d6000803e3d6000fd5b505050506040513d601f19601f82011682018060405250810190610add91906141d0565b90935091506000610af46080860160608701614463565b610afe5782610b00565b835b6001600160a01b037f00000000000000000000000000000000000000000000000000000000000000001663af2f91ea8735602089013530610b4760808c0160608d01614463565b610b52576001610b55565b60005b6040518563ffffffff1660e01b8152600401610b749493929190614492565b60206040518083038186803b158015610b8c57600080fd5b505afa158015610ba0573d6000803e3d6000fd5b505050506040513d601f19601f82011682018060405250810190610bc491906144bc565b610bce91906144eb565b90506001600160a01b037f00000000000000000000000000000000000000000000000000000000000000001663b2ceca7786356020880135610c1660608a0160408b0161419d565b610c2660808b0160608c01614463565b610c31576000610c34565b60015b610c4460808c0160608d01614463565b610c4e5789610c50565b885b6040518663ffffffff1660e01b8152600401610c70959493929190614503565b600060405180830381600087803b158015610c8a57600080fd5b505af1158015610c9e573d6000803e3d6000fd5b50506040805160c081018252883581526020808a01359082015233935063c84a17499250908101610cd560808a0160608b01614463565b151581526020810188905260408101879052606001610cf760c08a018a61453d565b8080601f01602080910402602001604051908101604052809392919081815260200183838082843760009201919091525050509152506040516001600160e01b031960e084901b168152610d4e9190600401614583565b600060405180830381600087803b158015610d6857600080fd5b505af1158015610d7c573d6000803e3d6000fd5b505050506040513d6000823e601f3d908101601f19168201604052610da49190810190614617565b9150610e736001600160a01b037f00000000000000000000000000000000000000000000000000000000000000001663af2f91ea8735602089013530610df060808c0160608d01614463565b610dfb576001610dfe565b60005b6040518563ffffffff1660e01b8152600401610e1d9493929190614492565b60206040518083038186803b158015610e3557600080fd5b505afa158015610e49573d6000803e3d6000fd5b505050506040513d601f19601f82011682018060405250810190610e6d91906144bc565b82612296565b610e82853560208701356121b2565b33602086013586357fb5203bea7ad91c36603035fd1320703929688fbe9d58e3513a502f9359c96037610ebb60608a0160408b0161419d565b610ecb60808b0160608c01614463565b604080516001600160a01b039093168352901515602083015281018990526060810188905260800160405180910390a4509193909250565b6000806000806060610f17876001886122c6565b939b929a50909850965090945092505050565b6060610f34611e9f565b610f45610f408361464b565b61287d565b610f5482356020840135611f8f565b813560009081526001602090815260408083208286013580855292529182902073__$dcdc2a3bd13529a455a9fb4aeaeabd9596$__926370aa32d09290610fa1906060880190880161419d565b866060013587608001358860a00135610fba6000611fe3565b6040518863ffffffff1660e01b8152600401610fdc97969594939291906146bb565b60006040518083038186803b158015610ff457600080fd5b505af4158015611008573d6000803e3d6000fd5b50505050600082606001356000146110d557604051635797c8f560e11b81526060840135906001600160a01b037f0000000000000000000000000000000000000000000000000000000000000000169063af2f91ea90611078908735906020890135903090600090600401614492565b60206040518083038186803b15801561109057600080fd5b505afa1580156110a4573d6000803e3d6000fd5b505050506040513d601f19601f820116820180604052508101906110c891906144bc565b6110d291906144eb565b90505b600060808401351561119c57604051635797c8f560e11b81526080850135906001600160a01b037f0000000000000000000000000000000000000000000000000000000000000000169063af2f91ea9061113f9088359060208a0135903090600190600401614492565b60206040518083038186803b15801561115757600080fd5b505afa15801561116b573d6000803e3d6000fd5b505050506040513d601f19601f8201168201806040525081019061118f91906144bc565b61119991906144eb565b90505b600060a08501351561126357604051635797c8f560e11b815260a0860135906001600160a01b037f0000000000000000000000000000000000000000000000000000000000000000169063af2f91ea906112069089359060208b0135903090600290600401614492565b60206040518083038186803b15801561121e57600080fd5b505afa158015611232573d6000803e3d6000fd5b505050506040513d601f19601f8201168201806040525081019061125691906144bc565b61126091906144eb565b90505b336001600160a01b0316636d81b5296040518060c00160405280886000013581526020018860200135815260200188606001358152602001886080013581526020018860a001358152602001888060c001906112bf919061453d565b8080601f01602080910402602001604051908101604052809392919081815260200183838082843760009201919091525050509152506040516001600160e01b031960e084901b1681526113169190600401614744565b600060405180830381600087803b15801561133057600080fd5b505af1158015611344573d6000803e3d6000fd5b505050506040513d6000823e601f3d908101601f1916820160405261136c9190810190614617565b935060608501351561142a57604051635797c8f560e11b815261142a906001600160a01b037f0000000000000000000000000000000000000000000000000000000000000000169063af2f91ea906113d49089359060208b0135903090600090600401614492565b60206040518083038186803b1580156113ec57600080fd5b505afa158015611400573d6000803e3d6000fd5b505050506040513d601f19601f8201168201806040525081019061142491906144bc565b84612296565b6080850135156114e657604051635797c8f560e11b81526114e6906001600160a01b037f0000000000000000000000000000000000000000000000000000000000000000169063af2f91ea906114909089359060208b0135903090600190600401614492565b60206040518083038186803b1580156114a857600080fd5b505afa1580156114bc573d6000803e3d6000fd5b505050506040513d601f19601f820116820180604052508101906114e091906144bc565b83612296565b60a08501351561154c57604051635797c8f560e11b815261154c906001600160a01b037f0000000000000000000000000000000000000000000000000000000000000000169063af2f91ea90610e1d9089359060208b0135903090600290600401614492565b61155b853560208701356121b2565b33602086013586357f2a9584443ba63020cf15b081f1e3c5e628011d0d81b7498fc66a6d453d1243c061159460608a0160408b0161419d565b604080516001600160a01b0390921682526060808c013560208401526080808d01359284019290925260a08c0135908301520160405180910390a4505050919050565b6000806000806060610f17876001886128d4565b60008060008060606115ff866000806128d4565b939a9299509097509550909350915050565b600080600061161e611e9f565b6116306105e0368690038601866140c6565b61163f84356020860135611f8f565b6116e17f00000000000000000000000000000000000000000000000000000000000000006001600160a01b0316638da5cb5b6040518163ffffffff1660e01b815260040160206040518083038186803b15801561169b57600080fd5b505afa1580156116af573d6000803e3d6000fd5b505050506040513d601f19601f820116820180604052508101906116d39190614757565b6001600160a01b0316612d73565b8335600090815260016020908152604080832082880135845290915290819020905163e0b364cb60e01b8152600481019190915260a0850135602482015260c0850135604482015260e0850135606482015273__$dcdc2a3bd13529a455a9fb4aeaeabd9596$__9063e0b364cb9060840160606040518083038186803b15801561176a57600080fd5b505af415801561177e573d6000803e3d6000fd5b505050506040513d601f19601f820116820180604052508101906117a2919061416f565b919450925090506117c384356020860135610702606088016040890161419d565b6117d2843560208601356121b2565b33602085013585357f9f89f4362c689657241ac1ec1cc69db4d75234f93386d70e9519f271a4fdabb86107726060890160408a0161419d565b600082815260016020908152604080832084845290915281208190819073__$dcdc2a3bd13529a455a9fb4aeaeabd9596$__9063d4bc81ba908661184e85611fe3565b6040516001600160e01b031960e086901b168152600481019390935260248301919091526001600160601b031660448201526064015b60606040518083038186803b15801561189c57600080fd5b505af41580156118b0573d6000803e3d6000fd5b505050506040513d601f19601f820116820180604052508101906118d4919061416f565b9250925092509250925092565b600083815260016020908152604080832085845290915281208190819073__$dcdc2a3bd13529a455a9fb4aeaeabd9596$__90635d9976dd90878761192586611fe3565b6040516001600160e01b031960e087901b168152600481019490945260248401929092526001600160a01b031660448301526001600160601b0316606482015260840160606040518083038186803b15801561198057600080fd5b505af4158015611994573d6000803e3d6000fd5b505050506040513d601f19601f820116820180604052508101906119b8919061416f565b92509250925093509350939050565b60008281526001602090815260408083208484529091528082209051636e4f4d7d60e11b815260048101919091528190819073__$dcdc2a3bd13529a455a9fb4aeaeabd9596$__9063dc9e9afa90602401611884565b60008060006060611a3085600080612dad565b93509350935093509193509193565b60008060008060606115ff866000806122c6565b60008281526001602090815260408083208484529091528120819073__$dcdc2a3bd13529a455a9fb4aeaeabd9596$__90636512a69d9085611a9485611fe3565b6040516001600160e01b031960e086901b168152600481019390935260248301919091526001600160601b03166044820152606401610953565b60008060006060611ae18660018761331d565b9299919850965090945092505050565b611af9611e9f565b82611b0657611b0661380a565b611b106000611fe3565b6001600160601b0316821015611b3357611b3382611b2e6000611fe3565b613823565b6001600160a01b038116611b4957611b4961380a565b611b53838361384e565b600083815260016020908152604080832085845290915290819020905163c3218b1d60e01b815260048101919091526001600160a01b038216602482015273__$dcdc2a3bd13529a455a9fb4aeaeabd9596$__9063c3218b1d9060440160006040518083038186803b158015611bc857600080fd5b505af4158015611bdc573d6000803e3d6000fd5b50505050505050565b60008060006060611ae186600187612dad565b611c0284846121dc565b82611c0d6000611fe3565b6001600160601b03161115611c2a57611c2a83611b2e6000611fe3565b6001600160a01b038216611c4057611c4061390e565b6001600160a01b038116611c5657611c56613927565b6000848152600160209081526040808320868452909152812073__$dcdc2a3bd13529a455a9fb4aeaeabd9596$__91634a93649f9190869086908690611c9b90611fe3565b6040516001600160e01b031960e088901b168152600481019590955260248501939093526001600160a01b0391821660448501521660648301526001600160601b0316608482015260a40160006040518083038186803b158015611cfe57600080fd5b505af4158015611d12573d6000803e3d6000fd5b5050604080513381526001600160a01b03868116602083015285168183015290518693508792507f76b4de7b53928b4b4b5be34802c5db3b6ddf280ba50c509b55f939a91ea758f69181900360600190a350505050565b6001600160a01b038416611d7f57611d7f61390e565b82158015611d8b575081155b8015611d95575080155b15611da257611da2613927565b60016000878152602001908152602001600020600086815260200190815260200160002073__$dcdc2a3bd13529a455a9fb4aeaeabd9596$__636324415890918787878787611df16000611fe3565b6040518863ffffffff1660e01b8152600401611e1397969594939291906146bb565b60006040518083038186803b158015611e2b57600080fd5b505af4158015611e3f573d6000803e3d6000fd5b5050505084867f25795e87541bbaa7236ae061c5a2b7c0e337afcee15a3a2c3b32783d9aceff0c3387878787604051611e7c959493929190614774565b60405180910390a3505050505050565b60008060006060611a308560008061331d565b306001600160a01b037f00000000000000000000000000000000000000000000000000000000000000001614611ee857604051634118e0bb60e11b815260040160405180910390fd5b565b60408101516001600160a01b03161580611f0f575060608101516001600160a01b0316155b80611f25575060808101516001600160a01b0316155b15611f3257611f3261390e565b60208101516001600160601b031015611f5257611f528160200151613940565b60a0810151158015611f66575060c0810151155b8015611f74575060e0810151155b8015611f7f57508051155b15611f8c57611f8c613927565b50565b600082815260208181526040808320848452909152902054611fb9906001600160601b031661395c565b600091825260208281526040808420928452919052902080546001600160601b0319166002179055565b6000611ff86001600160601b038316426144eb565b92915050565b821561208c5760405163b2ceca7760e01b81526001600160a01b037f0000000000000000000000000000000000000000000000000000000000000000169063b2ceca7790612059908b908b908b906000908a90600401614503565b600060405180830381600087803b15801561207357600080fd5b505af1158015612087573d6000803e3d6000fd5b505050505b811561211a5760405163b2ceca7760e01b81526001600160a01b037f0000000000000000000000000000000000000000000000000000000000000000169063b2ceca77906120e7908b908b908a906001908990600401614503565b600060405180830381600087803b15801561210157600080fd5b505af1158015612115573d6000803e3d6000fd5b505050505b80156121a85760405163b2ceca7760e01b81526001600160a01b037f0000000000000000000000000000000000000000000000000000000000000000169063b2ceca7790612175908b908b9089906002908890600401614503565b600060405180830381600087803b15801561218f57600080fd5b505af11580156121a3573d6000803e3d6000fd5b505050505b5050505050505050565b600091825260208281526040808420928452919052902080546001600160601b0319166001179055565b60008281526001602090815260408083208484529091529020546001600160a01b031661220b5761220b6139ae565b5050565b60208201516001600160601b03101561222f5761222f8260200151613940565b806001600160601b03168260200151101561225257612252826020015182613823565b60408201516001600160a01b031661226c5761226c61390e565b61227982608001516139c7565b60a0820151158061228957508151155b1561220b5761220b613927565b8082101561220b57604051631c22ff0160e21b815260048101839052602481018290526044015b60405180910390fd5b60008060008060606122d6611e9f565b6122f06122e2896147bd565b6122eb88611fe3565b6139f9565b6122ff883560208a0135611f8f565b87356000908152600160209081526040808320828c01358452909152902073__$dcdc2a3bd13529a455a9fb4aeaeabd9596$__90636951fc8c908a6123438a611fe3565b6040518463ffffffff1660e01b815260040161236193929190614856565b60006040518083038186803b15801561237957600080fd5b505af415801561238d573d6000803e3d6000fd5b505050506040513d6000823e601f3d908101601f191682016040526123b591908101906148f4565b9398509196509450925090506000841561248057604051635797c8f560e11b815285906001600160a01b037f0000000000000000000000000000000000000000000000000000000000000000169063af2f91ea90612423908d359060208f0135903090600090600401614492565b60206040518083038186803b15801561243b57600080fd5b505afa15801561244f573d6000803e3d6000fd5b505050506040513d601f19601f8201168201806040525081019061247391906144bc565b61247d91906144eb565b90505b6000841561254157847f00000000000000000000000000000000000000000000000000000000000000006001600160a01b031663af2f91ea8c600001358d602001353060016040518563ffffffff1660e01b81526004016124e49493929190614492565b60206040518083038186803b1580156124fc57600080fd5b505afa158015612510573d6000803e3d6000fd5b505050506040513d601f19601f8201168201806040525081019061253491906144bc565b61253e91906144eb565b90505b6000847f00000000000000000000000000000000000000000000000000000000000000006001600160a01b031663af2f91ea8d600001358e602001353060026040518563ffffffff1660e01b815260040161259f9493929190614492565b60206040518083038186803b1580156125b757600080fd5b505afa1580156125cb573d6000803e3d6000fd5b505050506040513d601f19601f820116820180604052508101906125ef91906144bc565b6125f991906144eb565b6040805160e0810182528d3581526020808f0135908201528082018a905260608101899052608081018890526001600160a01b038b1660a082015260c08101879052905163321c8bed60e01b8152919250339163321c8bed9161265e916004016149bb565b600060405180830381600087803b15801561267857600080fd5b505af115801561268c573d6000803e3d6000fd5b505050506040513d6000823e601f3d908101601f191682016040526126b49190810190614617565b935089156126d55760405163335b3bef60e01b815260040160405180910390fd5b8615612739576127397f00000000000000000000000000000000000000000000000000000000000000006001600160a01b031663af2f91ea8d600001358e602001353060006040518563ffffffff1660e01b81526004016113d49493929190614492565b851561279d5761279d7f00000000000000000000000000000000000000000000000000000000000000006001600160a01b031663af2f91ea8d600001358e602001353060016040518563ffffffff1660e01b81526004016114909493929190614492565b6127fb7f00000000000000000000000000000000000000000000000000000000000000006001600160a01b031663af2f91ea8d600001358e602001353060026040518563ffffffff1660e01b8152600401610e1d9493929190614492565b61280a8b3560208d01356121b2565b336001600160a01b03168b602001358c600001357f86838b111645453d71257de3cf164de8e18622d66009889e94f13128f595ef648e6040016020810190612852919061419d565b8c8c8c8c604051612867959493929190614774565b60405180910390a4505050939792965093509350565b60408101516001600160a01b03166128975761289761390e565b60608101511580156128ab57506080810151155b80156128b9575060a0810151155b156128c6576128c6613927565b8051611f8c57611f8c613927565b60008060008060606128e4611e9f565b6128f3883560208a01356121dc565b61290d6128ff896149ce565b61290888611fe3565b613a7d565b61291c883560208a0135611f8f565b87356000908152600160209081526040808320828c01358452909152902073__$dcdc2a3bd13529a455a9fb4aeaeabd9596$__6312a71d0c828b61295f8b611fe3565b6040518463ffffffff1660e01b815260040161297d93929190614a7f565b60006040518083038186803b15801561299557600080fd5b505af41580156129a9573d6000803e3d6000fd5b505050506040513d6000823e601f3d908101601f191682016040526129d191908101906148f4565b9399509197509550935091508415612a7f576001600160a01b037f00000000000000000000000000000000000000000000000000000000000000001663b2ceca778a3560208c0135612a2960608e0160408f0161419d565b60008a6040518663ffffffff1660e01b8152600401612a4c959493929190614503565b600060405180830381600087803b158015612a6657600080fd5b505af1158015612a7a573d6000803e3d6000fd5b505050505b8315612b21576001600160a01b037f00000000000000000000000000000000000000000000000000000000000000001663b2ceca778a3560208c0135612acb60808e0160608f0161419d565b6001896040518663ffffffff1660e01b8152600401612aee959493929190614503565b600060405180830381600087803b158015612b0857600080fd5b505af1158015612b1c573d6000803e3d6000fd5b505050505b6001600160a01b037f00000000000000000000000000000000000000000000000000000000000000001663b2ceca778a3560208c0135612b6760a08e0160808f0161419d565b6002886040518663ffffffff1660e01b8152600401612b8a959493929190614503565b600060405180830381600087803b158015612ba457600080fd5b505af1158015612bb8573d6000803e3d6000fd5b50506040805160e0810182528c3581526020808e01359082015280820189905260608101889052608081018790526001600160a01b038a1660a082015260c081018690529051638bb7053d60e01b8152339350638bb7053d9250612c1f91906004016149bb565b600060405180830381600087803b158015612c3957600080fd5b505af1158015612c4d573d6000803e3d6000fd5b505050506040513d6000823e601f3d908101601f19168201604052612c759190810190614617565b91508715612c965760405163335b3bef60e01b815260040160405180910390fd5b336000908152600a820160205260409020612cb19087613b2f565b612cc0893560208b01356121b2565b3360208a01358a357fc36176a3330276b641a24dfd635dc6cfc1c9b9afcd0c5d677f73e06143fe0aff612cf960608e0160408f0161419d565b8d6060016020810190612d0c919061419d565b8e6080016020810190612d1f919061419d565b604080516001600160a01b039485168152928416602084015290831690820152908b166060820152608081018a905260a0810189905260c0810188905260e00160405180910390a450939792965093509350565b336001600160a01b03821614611f8c57604051631bf9565d60e21b81523360048201526001600160a01b03821660248201526044016122bd565b60008060006060612dbc611e9f565b612dcb873560208901356121dc565b612de0612dd7886147bd565b6122eb87611fe3565b612def87356020890135611f8f565b86356000908152600160209081526040808320828b01358452909152902073__$dcdc2a3bd13529a455a9fb4aeaeabd9596$__90630fc5313390897f00000000000000000000000000000000000000000000000000000000000000007f0000000000000000000000000000000000000000000000000000000000000000612e758b611fe3565b6040518663ffffffff1660e01b8152600401612e95959493929190614b51565b60006040518083038186803b158015612ead57600080fd5b505af4158015612ec1573d6000803e3d6000fd5b505050506040513d6000823e601f3d908101601f19168201604052612ee99190810190614bfb565b9296509094509250905060008415612fb257604051635797c8f560e11b815285906001600160a01b037f0000000000000000000000000000000000000000000000000000000000000000169063af2f91ea90612f55908c359060208e0135903090600090600401614492565b60206040518083038186803b158015612f6d57600080fd5b505afa158015612f81573d6000803e3d6000fd5b505050506040513d601f19601f82011682018060405250810190612fa591906144bc565b612faf91906144eb565b90505b6000841561307157604051635797c8f560e11b815285906001600160a01b037f0000000000000000000000000000000000000000000000000000000000000000169063af2f91ea90613014908d359060208f0135903090600190600401614492565b60206040518083038186803b15801561302c57600080fd5b505afa158015613040573d6000803e3d6000fd5b505050506040513d601f19601f8201168201806040525081019061306491906144bc565b61306e91906144eb565b90505b6001600160a01b037f00000000000000000000000000000000000000000000000000000000000000001663b2ceca778a3560208c01356130b760608e0160408f0161419d565b6002896040518663ffffffff1660e01b81526004016130da959493929190614503565b600060405180830381600087803b1580156130f457600080fd5b505af1158015613108573d6000803e3d6000fd5b50506040805160c0810182528c3581526020808e0135908201528082018a9052606081018990526080810188905260a0810187905290516343d44c9d60e11b81523393506387a8993a92506131609190600401614744565b600060405180830381600087803b15801561317a57600080fd5b505af115801561318e573d6000803e3d6000fd5b505050506040513d6000823e601f3d908101601f191682016040526131b69190810190614617565b925087156131d75760405163335b3bef60e01b815260040160405180910390fd5b851561323957604051635797c8f560e11b8152613239906001600160a01b037f0000000000000000000000000000000000000000000000000000000000000000169063af2f91ea90611490908d359060208f0135903090600090600401614492565b841561329b57604051635797c8f560e11b815261329b906001600160a01b037f0000000000000000000000000000000000000000000000000000000000000000169063af2f91ea90610e1d908d359060208f0135903090600190600401614492565b6132aa893560208b01356121b2565b3360208a01358a357f76ce53f2a5022311227d4d8c5c7b06eb0f9e0e238e30a85af33487e66bebfc9b6132e360608e0160408f0161419d565b604080516001600160a01b039092168252602082018c905281018a90526060810189905260800160405180910390a4505093509350935093565b6000806000606061332c611e9f565b61333b873560208901356121dc565b61335561334788614c54565b61335087611fe3565b613b74565b61336487356020890135611f8f565b86356000908152600160209081526040808320828b01358452909152902073__$dcdc2a3bd13529a455a9fb4aeaeabd9596$__9063e0f1a7bb90897f00000000000000000000000000000000000000000000000000000000000000007f00000000000000000000000000000000000000000000000000000000000000006133ea8b611fe3565b6040518663ffffffff1660e01b815260040161340a959493929190614caa565b60006040518083038186803b15801561342257600080fd5b505af4158015613436573d6000803e3d6000fd5b505050506040513d6000823e601f3d908101601f1916820160405261345e9190810190614bfb565b604051635797c8f560e11b81529397509195509350915060009083906001600160a01b037f0000000000000000000000000000000000000000000000000000000000000000169063af2f91ea906134c5908c359060208e0135903090600290600401614492565b60206040518083038186803b1580156134dd57600080fd5b505afa1580156134f1573d6000803e3d6000fd5b505050506040513d601f19601f8201168201806040525081019061351591906144bc565b61351f91906144eb565b905084156135c3576001600160a01b037f00000000000000000000000000000000000000000000000000000000000000001663b2ceca77893560208b013561356d60608d0160408e0161419d565b60008a6040518663ffffffff1660e01b8152600401613590959493929190614503565b600060405180830381600087803b1580156135aa57600080fd5b505af11580156135be573d6000803e3d6000fd5b505050505b8315613665576001600160a01b037f00000000000000000000000000000000000000000000000000000000000000001663b2ceca77893560208b013561360f60808d0160608e0161419d565b6001896040518663ffffffff1660e01b8152600401613632959493929190614503565b600060405180830381600087803b15801561364c57600080fd5b505af1158015613660573d6000803e3d6000fd5b505050505b6040805160c081018252893581526020808b013590820152808201879052606081018690526080810185905260a0810184905290516343317d3560e11b81523391638662fa6a916136b99190600401614744565b600060405180830381600087803b1580156136d357600080fd5b505af11580156136e7573d6000803e3d6000fd5b505050506040513d6000823e601f3d908101601f1916820160405261370f9190810190614617565b915086156137305760405163335b3bef60e01b815260040160405180910390fd5b604051635797c8f560e11b815261378c906001600160a01b037f0000000000000000000000000000000000000000000000000000000000000000169063af2f91ea90610e1d908c359060208e0135903090600290600401614492565b61379b883560208a01356121b2565b33602089013589357f4af09027ce1a32b4cf538f4feab5ae0d95f6498fcd7fbdcbacf5ab3e1ccc22066137d460608d0160408e0161419d565b6137e460808e0160608f0161419d565b8a8a8a6040516137f8959493929190614774565b60405180910390a45093509350935093565b604051631e1d0ab560e01b815260040160405180910390fd5b60405163647284e960e11b8152600481018390526001600160601b03821660248201526044016122bd565b6000828152602081815260408083208484529091529020546001600160601b031661220b57600082815260208181526040808320848452825280832080546001600160601b03191660019081179091558151808301909252948152908101928352600280549485018155918290525192027f405787fa12a823e0f2b7631cc41b3ba8828b3321ca811111fa75cd3aa3bb5ace810192909255517f405787fa12a823e0f2b7631cc41b3ba8828b3321ca811111fa75cd3aa3bb5acf90910155565b60405163d92e233d60e01b815260040160405180910390fd5b60405163af458c0760e01b815260040160405180910390fd5b6040516335f135d360e01b8152600481018290526024016122bd565b6001600160601b0381166139835760405163e2228b1560e01b815260040160405180910390fd5b6001600160601b03811660021415611f8c5760405163865a6de560e01b815260040160405180910390fd5b60405163277c720560e01b815260040160405180910390fd5b60028160018111156139db576139db614326565b10611f8c5760405163280503e760e11b815260040160405180910390fd5b60208201516001600160601b031015613a1957613a198260200151613940565b806001600160601b031682602001511015613a3c57613a3c826020015182613823565b60408201516001600160a01b0316613a5657613a5661390e565b613a638260600151613bf2565b608082015115806122895750815161220b5761220b613927565b60208201516001600160601b031015613a9d57613a9d8260200151613940565b806001600160601b031682602001511015613ac057613ac0826020015182613823565b60408201516001600160a01b03161580613ae5575060608201516001600160a01b0316155b80613afb575060808201516001600160a01b0316155b15613b0857613b0861390e565b613b158260a00151613bf2565b60c082015115806122895750815161220b5761220b613927565b815481908390600090613b4c9084906001600160a01b0316614d45565b92506101000a8154816001600160a01b0302191690836001600160a01b031602179055505050565b60208201516001600160601b031015613b9457613b948260200151613940565b806001600160601b031682602001511015613bb757613bb7826020015182613823565b60408201516001600160a01b03161580613bdc575060608201516001600160a01b0316155b15613be957613be961390e565b61227982608001515b60048160038111156139db576139db614326565b60006101008284031215613c1957600080fd5b50919050565b60006101008284031215613c3257600080fd5b613c3c8383613c06565b9392505050565b600060208284031215613c5557600080fd5b5035919050565b60008060408385031215613c6f57600080fd5b50508035926020909101359150565b600060e08284031215613c1957600080fd5b600060208284031215613ca257600080fd5b81356001600160401b03811115613cb857600080fd5b613cc484828501613c7e565b949350505050565b60005b83811015613ce7578181015183820152602001613ccf565b83811115613cf6576000848401525b50505050565b60008151808452613d14816020860160208601613ccc565b601f01601f19169290920160200192915050565b838152826020820152606060408201526000613d476060830184613cfc565b95945050505050565b600060c08284031215613c1957600080fd5b80356001600160601b0381168114613d7957600080fd5b919050565b60008060408385031215613d9157600080fd5b82356001600160401b03811115613da757600080fd5b613db385828601613d50565b925050613dc260208401613d62565b90509250929050565b60018060a01b038616815284602082015283604082015282606082015260a060808201526000613dfe60a0830184613cfc565b979650505050505050565b602081526000613c3c6020830184613cfc565b60008060408385031215613e2f57600080fd5b82356001600160401b03811115613e4557600080fd5b613db385828601613c06565b600060208284031215613e6357600080fd5b81356001600160401b03811115613e7957600080fd5b613cc484828501613c06565b6001600160a01b0381168114611f8c57600080fd5b8035613d7981613e85565b600080600060608486031215613eba57600080fd5b83359250602084013591506040840135613ed381613e85565b809150509250925092565b600060208284031215613ef057600080fd5b81356001600160401b03811115613f0657600080fd5b613cc484828501613d50565b848152836020820152826040820152608060608201526000613f376080830184613cfc565b9695505050505050565b60008060408385031215613f5457600080fd5b82356001600160401b03811115613f6a57600080fd5b613db385828601613c7e565b60008060008060808587031215613f8c57600080fd5b84359350602085013592506040850135613fa581613e85565b91506060850135613fb581613e85565b939692955090935050565b60008060008060008060c08789031215613fd957600080fd5b86359550602087013594506040870135613ff281613e85565b959894975094956060810135955060808101359460a0909101359350915050565b634e487b7160e01b600052604160045260246000fd5b60405160e081016001600160401b038111828210171561404b5761404b614013565b60405290565b60405160c081016001600160401b038111828210171561404b5761404b614013565b60405161010081016001600160401b038111828210171561404b5761404b614013565b604051601f8201601f191681016001600160401b03811182821017156140be576140be614013565b604052919050565b60006101008083850312156140da57600080fd5b604051908101906001600160401b03821181831017156140fc576140fc614013565b8160405283358152602084013560208201526040840135915061411e82613e85565b81604082015261413060608501613e9a565b606082015261414160808501613e9a565b608082015260a084013560a082015260c084013560c082015260e084013560e0820152809250505092915050565b60008060006060848603121561418457600080fd5b8351925060208401519150604084015190509250925092565b6000602082840312156141af57600080fd5b8135613c3c81613e85565b634e487b7160e01b600052603260045260246000fd5b600080604083850312156141e357600080fd5b505080516020909101519092909150565b80358015158114613d7957600080fd5b803560028110613d7957600080fd5b60006001600160401b0382111561422c5761422c614013565b50601f01601f191660200190565b600082601f83011261424b57600080fd5b813561425e61425982614213565b614096565b81815284602083860101111561427357600080fd5b816020850160208301376000918101602001919091529392505050565b600060e082360312156142a257600080fd5b6142aa614029565b82358152602083013560208201526142c460408401613e9a565b60408201526142d5606084016141f4565b60608201526142e660808401614204565b608082015260a083013560a082015260c08301356001600160401b0381111561430e57600080fd5b61431a3682860161423a565b60c08301525092915050565b634e487b7160e01b600052602160045260246000fd5b6000808335601e1984360301811261435357600080fd5b83016020810192503590506001600160401b0381111561437257600080fd5b80360383131561438157600080fd5b9250929050565b81835281816020850137506000828201602090810191909152601f909101601f19169091010190565b8481526080602082015283356080820152602084013560a0820152600060408501356143dc81613e85565b6001600160a01b031660c08301526143f6606086016141f4565b151560e083015261440960808601614204565b6002811061441957614419614326565b61010083015260a085013561012083015261443760c086018661433c565b60e061014085015261444e61016085018284614388565b60408501969096525050506060015292915050565b60006020828403121561447557600080fd5b613c3c826141f4565b6003811061448e5761448e614326565b9052565b848152602081018490526001600160a01b038316604082015260808101613d47606083018461447e565b6000602082840312156144ce57600080fd5b5051919050565b634e487b7160e01b600052601160045260246000fd5b600082198211156144fe576144fe6144d5565b500190565b858152602081018590526001600160a01b038416604082015260a0810161452d606083018561447e565b8260808301529695505050505050565b6000808335601e1984360301811261455457600080fd5b8301803591506001600160401b0382111561456e57600080fd5b60200191503681900382131561438157600080fd5b60208152815160208201526020820151604082015260408201511515606082015260608201516080820152608082015160a0820152600060a083015160c080840152613cc460e0840182613cfc565b600082601f8301126145e357600080fd5b81516145f161425982614213565b81815284602083860101111561460657600080fd5b613cc4826020830160208701613ccc565b60006020828403121561462957600080fd5b81516001600160401b0381111561463f57600080fd5b613cc4848285016145d2565b600060e0823603121561465d57600080fd5b614665614029565b823581526020830135602082015261467f60408401613e9a565b6040820152606083013560608201526080830135608082015260a083013560a082015260c08301356001600160401b0381111561430e57600080fd5b96875260208701959095526001600160a01b039390931660408601526060850191909152608084015260a08301526001600160601b031660c082015260e00190565b8051825260208101516020830152604081015160408301526060810151606083015260808101516080830152600060a082015160c060a0850152613cc460c0850182613cfc565b602081526000613c3c60208301846146fd565b60006020828403121561476957600080fd5b8151613c3c81613e85565b6001600160a01b03958616815293909416602084015260408301919091526060820152608081019190915260a00190565b60048110611f8c57600080fd5b8035613d79816147a5565b600060c082360312156147cf57600080fd5b6147d7614051565b823581526020830135602082015260408301356147f381613e85565b60408201526060830135614806816147a5565b60608201526080838101359082015260a08301356001600160401b0381111561482e57600080fd5b61483a3682860161423a565b60a08301525092915050565b60048110611f8c57611f8c614326565b8381526060602082015282356060820152602083013560808201526000604084013561488181613e85565b6001600160a01b031660a0830152606084013561489d816147a5565b6148a681614846565b60c0830152608084013560e08301526148c260a085018561433c565b60c06101008501526148d961012085018284614388565b925050506001600160601b0383166040830152949350505050565b600080600080600060a0868803121561490c57600080fd5b855161491781613e85565b8095505060208601519350604086015192506060860151915060808601516001600160401b0381111561494957600080fd5b614955888289016145d2565b9150509295509295909350565b805182526020810151602083015260408101516040830152606081015160608301526080810151608083015260018060a01b0360a08201511660a0830152600060c082015160e060c0850152613cc460e0850182613cfc565b602081526000613c3c6020830184614962565b600061010082360312156149e157600080fd5b6149e9614073565b8235815260208301356020820152614a0360408401613e9a565b6040820152614a1460608401613e9a565b6060820152614a2560808401613e9a565b6080820152614a3660a084016147b2565b60a082015260c083013560c082015260e08301356001600160401b03811115614a5e57600080fd5b614a6a3682860161423a565b60e08301525092915050565b61448e81614846565b83815260606020820152823560608201526020830135608082015260006040840135614aaa81613e85565b6001600160a01b031660a0830152614ac460608501613e9a565b6001600160a01b031660c0830152614ade60808501613e9a565b6001600160a01b031660e0830152614af860a085016147b2565b610100614b0781850183614a76565b60c0860135610120850152614b1f60e087018761433c565b925081610140860152614b3761016086018483614388565b9350505050613cc460408301846001600160601b03169052565b85815260a06020820152843560a0820152602085013560c082015260006040860135614b7c81613e85565b6001600160a01b031660e08301526060860135614b98816147a5565b614ba181614846565b6101008301526080860135610120830152614bbf60a087018761433c565b60c0610140850152614bd661016085018284614388565b92505050846040830152836060830152613f3760808301846001600160601b03169052565b60008060008060808587031215614c1157600080fd5b84519350602085015192506040850151915060608501516001600160401b03811115614c3c57600080fd5b614c48878288016145d2565b91505092959194509250565b600060e08236031215614c6657600080fd5b614c6e614029565b8235815260208301356020820152614c8860408401613e9a565b6040820152614c9960608401613e9a565b60608201526142e6608084016147b2565b85815260a06020820152843560a0820152602085013560c082015260006040860135614cd581613e85565b6001600160a01b0390811660e0840152606087013590614cf482613e85565b16610100830152614d07608087016147b2565b614d15610120840182614a76565b5060a0860135610140830152614d2e60c087018761433c565b60e0610160850152614bd661018085018284614388565b60006001600160a01b0383811690831681811015614d6557614d656144d5565b03939250505056fea26469706673582212203a4ca9243a669b9fef0655b853a2a0edcac15f77637e1ccbef8cf1cfdd9c351f64736f6c63430008080033",
  "linkReferences": {
    "@timeswap-labs/v2-pool/contracts/structs/Pool.sol": {
      "PoolLibrary": [
        {
          "length": 20,
          "start": 2179
        },
        {
          "length": 20,
          "start": 2749
        },
        {
          "length": 20,
          "start": 2980
        },
        {
          "length": 20,
          "start": 3216
        },
        {
          "length": 20,
          "start": 4581
        },
        {
          "length": 20,
          "start": 6564
        },
        {
          "length": 20,
          "start": 6809
        },
        {
          "length": 20,
          "start": 7023
        },
        {
          "length": 20,
          "start": 7274
        },
        {
          "length": 20,
          "start": 7391
        },
        {
          "length": 20,
          "start": 7682
        },
        {
          "length": 20,
          "start": 7904
        },
        {
          "length": 20,
          "start": 8247
        },
        {
          "length": 20,
          "start": 9614
        },
        {
          "length": 20,
          "start": 11179
        },
        {
          "length": 20,
          "start": 12414
        },
        {
          "length": 20,
          "start": 13811
        }
      ]
    }
  },
  "deployedLinkReferences": {
    "@timeswap-labs/v2-pool/contracts/structs/Pool.sol": {
      "PoolLibrary": [
        {
          "length": 20,
          "start": 1556
        },
        {
          "length": 20,
          "start": 2126
        },
        {
          "length": 20,
          "start": 2357
        },
        {
          "length": 20,
          "start": 2593
        },
        {
          "length": 20,
          "start": 3958
        },
        {
          "length": 20,
          "start": 5941
        },
        {
          "length": 20,
          "start": 6186
        },
        {
          "length": 20,
          "start": 6400
        },
        {
          "length": 20,
          "start": 6651
        },
        {
          "length": 20,
          "start": 6768
        },
        {
          "length": 20,
          "start": 7059
        },
        {
          "length": 20,
          "start": 7281
        },
        {
          "length": 20,
          "start": 7624
        },
        {
          "length": 20,
          "start": 8991
        },
        {
          "length": 20,
          "start": 10556
        },
        {
          "length": 20,
          "start": 11791
        },
        {
          "length": 20,
          "start": 13188
        }
      ]
    }
  }
}