{
  "_format": "hh-sol-artifact-1",
  "contractName": "TimeswapV2PeripheryUniswapV3QuoterRemoveLiquidityGivenPosition",
  "sourceName": "@timeswap-labs/v2-periphery-uniswapV3/contracts/lens/TimeswapV2PeripheryUniswapV3QuoterRemoveLiquidityGivenPosition.sol",
  "abi": [
    {
      "inputs": [
        {
          "internalType": "address",
          "name": "chosenOptionFactory",
          "type": "address"
        },
        {
          "internalType": "address",
          "name": "chosenPoolFactory",
          "type": "address"
        },
        {
          "internalType": "address",
          "name": "chosenTokens",
          "type": "address"
        },
        {
          "internalType": "address",
          "name": "chosenLiquidityTokens",
          "type": "address"
        },
        {
          "internalType": "address",
          "name": "chosenUniswapV3Factory",
          "type": "address"
        }
      ],
      "stateMutability": "nonpayable",
      "type": "constructor"
    },
    {
      "inputs": [
        {
          "internalType": "uint256",
          "name": "addendA0",
          "type": "uint256"
        },
        {
          "internalType": "uint256",
          "name": "addendA1",
          "type": "uint256"
        },
        {
          "internalType": "uint256",
          "name": "addendB0",
          "type": "uint256"
        },
        {
          "internalType": "uint256",
          "name": "addendB1",
          "type": "uint256"
        }
      ],
      "name": "AddOverflow",
      "type": "error"
    },
    {
      "inputs": [],
      "name": "CanOnlyBeCalledByPoolContract",
      "type": "error"
    },
    {
      "inputs": [],
      "name": "CanOnlyBeCalledByTokensContract",
      "type": "error"
    },
    {
      "inputs": [],
      "name": "CanOnlyBeCalledByUniswapV3Contract",
      "type": "error"
    },
    {
      "inputs": [
        {
          "internalType": "uint256",
          "name": "dividend0",
          "type": "uint256"
        },
        {
          "internalType": "uint256",
          "name": "dividend1",
          "type": "uint256"
        },
        {
          "internalType": "uint256",
          "name": "divisor",
          "type": "uint256"
        }
      ],
      "name": "DivOverflow",
      "type": "error"
    },
    {
      "inputs": [],
      "name": "DivideByZero",
      "type": "error"
    },
    {
      "inputs": [],
      "name": "ModuloByZero",
      "type": "error"
    },
    {
      "inputs": [
        {
          "internalType": "uint256",
          "name": "multiplicand",
          "type": "uint256"
        },
        {
          "internalType": "uint256",
          "name": "multiplier",
          "type": "uint256"
        },
        {
          "internalType": "uint256",
          "name": "divisor",
          "type": "uint256"
        }
      ],
      "name": "MulDivOverflow",
      "type": "error"
    },
    {
      "inputs": [
        {
          "internalType": "string",
          "name": "revertString",
          "type": "string"
        }
      ],
      "name": "MulticallFailed",
      "type": "error"
    },
    {
      "inputs": [
        {
          "internalType": "int256",
          "name": "amount0",
          "type": "int256"
        },
        {
          "internalType": "int256",
          "name": "amount1",
          "type": "int256"
        }
      ],
      "name": "PassCalculateInfo",
      "type": "error"
    },
    {
      "inputs": [
        {
          "components": [
            {
              "internalType": "uint160",
              "name": "timeswapV2LiquidityAfter",
              "type": "uint160"
            },
            {
              "internalType": "uint256",
              "name": "token0Amount",
              "type": "uint256"
            },
            {
              "internalType": "uint256",
              "name": "token1Amount",
              "type": "uint256"
            },
            {
              "internalType": "uint256",
              "name": "excessLong0Amount",
              "type": "uint256"
            },
            {
              "internalType": "uint256",
              "name": "excessLong1Amount",
              "type": "uint256"
            },
            {
              "internalType": "uint256",
              "name": "excessShortAmount",
              "type": "uint256"
            }
          ],
          "internalType": "struct ITimeswapV2PeripheryQuoterRemoveLiquidityGivenPosition.CallbackInfo",
          "name": "callbackInfo",
          "type": "tuple"
        },
        {
          "internalType": "bytes",
          "name": "data",
          "type": "bytes"
        }
      ],
      "name": "PassLiquidityTokenBurnCallbackInfo",
      "type": "error"
    },
    {
      "inputs": [
        {
          "components": [
            {
              "internalType": "uint160",
              "name": "timeswapV2LiquidityAfter",
              "type": "uint160"
            },
            {
              "internalType": "uint256",
              "name": "token0Amount",
              "type": "uint256"
            },
            {
              "internalType": "uint256",
              "name": "token1Amount",
              "type": "uint256"
            },
            {
              "internalType": "uint256",
              "name": "excessLong0Amount",
              "type": "uint256"
            },
            {
              "internalType": "uint256",
              "name": "excessLong1Amount",
              "type": "uint256"
            },
            {
              "internalType": "uint256",
              "name": "excessShortAmount",
              "type": "uint256"
            }
          ],
          "internalType": "struct ITimeswapV2PeripheryQuoterRemoveLiquidityGivenPosition.CallbackInfo",
          "name": "callbackInfo",
          "type": "tuple"
        },
        {
          "internalType": "bytes",
          "name": "data",
          "type": "bytes"
        }
      ],
      "name": "PassPoolBurnCallbackInfo",
      "type": "error"
    },
    {
      "inputs": [
        {
          "internalType": "int256",
          "name": "amount0",
          "type": "int256"
        },
        {
          "internalType": "int256",
          "name": "amount1",
          "type": "int256"
        },
        {
          "internalType": "uint160",
          "name": "uniswapV3SqrtPriceAfter",
          "type": "uint160"
        }
      ],
      "name": "PassUniswapV3SwapCallbackInfo",
      "type": "error"
    },
    {
      "inputs": [],
      "name": "Uint160Overflow",
      "type": "error"
    },
    {
      "inputs": [],
      "name": "ZeroAddress",
      "type": "error"
    },
    {
      "inputs": [],
      "name": "ZeroPoolAddress",
      "type": "error"
    },
    {
      "inputs": [],
      "name": "liquidityTokens",
      "outputs": [
        {
          "internalType": "address",
          "name": "",
          "type": "address"
        }
      ],
      "stateMutability": "view",
      "type": "function"
    },
    {
      "inputs": [
        {
          "internalType": "bytes[]",
          "name": "data",
          "type": "bytes[]"
        }
      ],
      "name": "multicall",
      "outputs": [
        {
          "internalType": "bytes[]",
          "name": "results",
          "type": "bytes[]"
        }
      ],
      "stateMutability": "payable",
      "type": "function"
    },
    {
      "inputs": [
        {
          "internalType": "address",
          "name": "",
          "type": "address"
        },
        {
          "internalType": "address",
          "name": "",
          "type": "address"
        },
        {
          "internalType": "uint256[]",
          "name": "",
          "type": "uint256[]"
        },
        {
          "internalType": "uint256[]",
          "name": "",
          "type": "uint256[]"
        },
        {
          "internalType": "bytes",
          "name": "",
          "type": "bytes"
        }
      ],
      "name": "onERC1155BatchReceived",
      "outputs": [
        {
          "internalType": "bytes4",
          "name": "",
          "type": "bytes4"
        }
      ],
      "stateMutability": "pure",
      "type": "function"
    },
    {
      "inputs": [
        {
          "internalType": "address",
          "name": "operator",
          "type": "address"
        },
        {
          "internalType": "address",
          "name": "",
          "type": "address"
        },
        {
          "internalType": "uint256",
          "name": "",
          "type": "uint256"
        },
        {
          "internalType": "uint256",
          "name": "",
          "type": "uint256"
        },
        {
          "internalType": "bytes",
          "name": "",
          "type": "bytes"
        }
      ],
      "name": "onERC1155Received",
      "outputs": [
        {
          "internalType": "bytes4",
          "name": "",
          "type": "bytes4"
        }
      ],
      "stateMutability": "view",
      "type": "function"
    },
    {
      "inputs": [],
      "name": "optionFactory",
      "outputs": [
        {
          "internalType": "address",
          "name": "",
          "type": "address"
        }
      ],
      "stateMutability": "view",
      "type": "function"
    },
    {
      "inputs": [],
      "name": "poolFactory",
      "outputs": [
        {
          "internalType": "address",
          "name": "",
          "type": "address"
        }
      ],
      "stateMutability": "view",
      "type": "function"
    },
    {
      "inputs": [
        {
          "components": [
            {
              "internalType": "address",
              "name": "token0",
              "type": "address"
            },
            {
              "internalType": "address",
              "name": "token1",
              "type": "address"
            },
            {
              "internalType": "uint256",
              "name": "strike",
              "type": "uint256"
            },
            {
              "internalType": "uint256",
              "name": "maturity",
              "type": "uint256"
            },
            {
              "internalType": "uint24",
              "name": "uniswapV3Fee",
              "type": "uint24"
            },
            {
              "internalType": "address",
              "name": "tokenTo",
              "type": "address"
            },
            {
              "internalType": "address",
              "name": "excessLong0To",
              "type": "address"
            },
            {
              "internalType": "address",
              "name": "excessLong1To",
              "type": "address"
            },
            {
              "internalType": "address",
              "name": "excessShortTo",
              "type": "address"
            },
            {
              "internalType": "bool",
              "name": "isToken0",
              "type": "bool"
            },
            {
              "internalType": "bool",
              "name": "preferLong0Excess",
              "type": "bool"
            },
            {
              "internalType": "uint160",
              "name": "liquidityAmount",
              "type": "uint160"
            }
          ],
          "internalType": "struct TimeswapV2PeripheryUniswapV3QuoterRemoveLiquidityGivenPositionParam",
          "name": "param",
          "type": "tuple"
        },
        {
          "internalType": "uint96",
          "name": "durationForward",
          "type": "uint96"
        }
      ],
      "name": "removeLiquidityGivenPosition",
      "outputs": [
        {
          "internalType": "uint256",
          "name": "tokenAmount",
          "type": "uint256"
        },
        {
          "internalType": "uint256",
          "name": "excessLong0Amount",
          "type": "uint256"
        },
        {
          "internalType": "uint256",
          "name": "excessLong1Amount",
          "type": "uint256"
        },
        {
          "internalType": "uint256",
          "name": "excessShortAmount",
          "type": "uint256"
        },
        {
          "internalType": "uint160",
          "name": "timeswapV2LiquidityAfter",
          "type": "uint160"
        },
        {
          "internalType": "uint160",
          "name": "uniswapV3SqrtPriceAfter",
          "type": "uint160"
        }
      ],
      "stateMutability": "nonpayable",
      "type": "function"
    },
    {
      "inputs": [
        {
          "internalType": "bytes4",
          "name": "interfaceId",
          "type": "bytes4"
        }
      ],
      "name": "supportsInterface",
      "outputs": [
        {
          "internalType": "bool",
          "name": "",
          "type": "bool"
        }
      ],
      "stateMutability": "view",
      "type": "function"
    },
    {
      "inputs": [
        {
          "components": [
            {
              "internalType": "address",
              "name": "token0",
              "type": "address"
            },
            {
              "internalType": "address",
              "name": "token1",
              "type": "address"
            },
            {
              "internalType": "uint256",
              "name": "strike",
              "type": "uint256"
            },
            {
              "internalType": "uint256",
              "name": "maturity",
              "type": "uint256"
            },
            {
              "internalType": "uint160",
              "name": "liquidityAmount",
              "type": "uint160"
            },
            {
              "internalType": "bytes",
              "name": "data",
              "type": "bytes"
            }
          ],
          "internalType": "struct TimeswapV2LiquidityTokenBurnCallbackParam",
          "name": "param",
          "type": "tuple"
        }
      ],
      "name": "timeswapV2LiquidityTokenBurnCallback",
      "outputs": [
        {
          "internalType": "bytes",
          "name": "data",
          "type": "bytes"
        }
      ],
      "stateMutability": "nonpayable",
      "type": "function"
    },
    {
      "inputs": [
        {
          "components": [
            {
              "internalType": "uint256",
              "name": "strike",
              "type": "uint256"
            },
            {
              "internalType": "uint256",
              "name": "maturity",
              "type": "uint256"
            },
            {
              "internalType": "uint256",
              "name": "long0Amount",
              "type": "uint256"
            },
            {
              "internalType": "uint256",
              "name": "long1Amount",
              "type": "uint256"
            },
            {
              "internalType": "uint256",
              "name": "shortAmount",
              "type": "uint256"
            },
            {
              "internalType": "uint160",
              "name": "liquidityAmount",
              "type": "uint160"
            },
            {
              "internalType": "bytes",
              "name": "data",
              "type": "bytes"
            }
          ],
          "internalType": "struct TimeswapV2PoolBurnCallbackParam",
          "name": "param",
          "type": "tuple"
        }
      ],
      "name": "timeswapV2PoolBurnCallback",
      "outputs": [
        {
          "internalType": "bytes",
          "name": "data",
          "type": "bytes"
        }
      ],
      "stateMutability": "nonpayable",
      "type": "function"
    },
    {
      "inputs": [
        {
          "components": [
            {
              "internalType": "uint256",
              "name": "strike",
              "type": "uint256"
            },
            {
              "internalType": "uint256",
              "name": "maturity",
              "type": "uint256"
            },
            {
              "internalType": "uint256",
              "name": "long0Balance",
              "type": "uint256"
            },
            {
              "internalType": "uint256",
              "name": "long1Balance",
              "type": "uint256"
            },
            {
              "internalType": "uint256",
              "name": "longAmount",
              "type": "uint256"
            },
            {
              "internalType": "uint256",
              "name": "shortAmount",
              "type": "uint256"
            },
            {
              "internalType": "uint160",
              "name": "liquidityAmount",
              "type": "uint160"
            },
            {
              "internalType": "bytes",
              "name": "data",
              "type": "bytes"
            }
          ],
          "internalType": "struct TimeswapV2PoolBurnChoiceCallbackParam",
          "name": "param",
          "type": "tuple"
        }
      ],
      "name": "timeswapV2PoolBurnChoiceCallback",
      "outputs": [
        {
          "internalType": "uint256",
          "name": "long0Amount",
          "type": "uint256"
        },
        {
          "internalType": "uint256",
          "name": "long1Amount",
          "type": "uint256"
        },
        {
          "internalType": "bytes",
          "name": "data",
          "type": "bytes"
        }
      ],
      "stateMutability": "nonpayable",
      "type": "function"
    },
    {
      "inputs": [
        {
          "components": [
            {
              "internalType": "address",
              "name": "token0",
              "type": "address"
            },
            {
              "internalType": "address",
              "name": "token1",
              "type": "address"
            },
            {
              "internalType": "uint256",
              "name": "strike",
              "type": "uint256"
            },
            {
              "internalType": "uint256",
              "name": "maturity",
              "type": "uint256"
            },
            {
              "internalType": "uint256",
              "name": "long0Amount",
              "type": "uint256"
            },
            {
              "internalType": "uint256",
              "name": "long1Amount",
              "type": "uint256"
            },
            {
              "internalType": "uint256",
              "name": "shortAmount",
              "type": "uint256"
            },
            {
              "internalType": "bytes",
              "name": "data",
              "type": "bytes"
            }
          ],
          "internalType": "struct TimeswapV2TokenMintCallbackParam",
          "name": "param",
          "type": "tuple"
        }
      ],
      "name": "timeswapV2TokenMintCallback",
      "outputs": [
        {
          "internalType": "bytes",
          "name": "data",
          "type": "bytes"
        }
      ],
      "stateMutability": "nonpayable",
      "type": "function"
    },
    {
      "inputs": [],
      "name": "tokens",
      "outputs": [
        {
          "internalType": "address",
          "name": "",
          "type": "address"
        }
      ],
      "stateMutability": "view",
      "type": "function"
    },
    {
      "inputs": [],
      "name": "uniswapV3Factory",
      "outputs": [
        {
          "internalType": "address",
          "name": "",
          "type": "address"
        }
      ],
      "stateMutability": "view",
      "type": "function"
    },
    {
      "inputs": [
        {
          "internalType": "int256",
          "name": "amount0Delta",
          "type": "int256"
        },
        {
          "internalType": "int256",
          "name": "amount1Delta",
          "type": "int256"
        },
        {
          "internalType": "bytes",
          "name": "data",
          "type": "bytes"
        }
      ],
      "name": "uniswapV3SwapCallback",
      "outputs": [],
      "stateMutability": "view",
      "type": "function"
    }
  ],
  "bytecode": "0x6101206040523480156200001257600080fd5b50604051620046ce380380620046ce83398101604081905262000035916200008a565b6001600160601b0319606091821b811660805294811b851660a05292831b841660c05290821b831660e052901b1661010052620000fa565b80516001600160a01b03811681146200008557600080fd5b919050565b600080600080600060a08688031215620000a357600080fd5b620000ae866200006d565b9450620000be602087016200006d565b9350620000ce604087016200006d565b9250620000de606087016200006d565b9150620000ee608087016200006d565b90509295509295909350565b60805160601c60a05160601c60c05160601c60e05160601c6101005160601c614525620001a9600039600081816101800152611c9501526000818161021501528181610611015261116901526000818161013401528181610a580152610d080152600081816102890152818161048001528181610a3701528181610ce701526111940152600081816101b40152818161165201528181611dcd01528181611ff101526121b301526145256000f3fe6080604052600436106100e85760003560e01c8063aef2b3341161008a578063e13c022c11610059578063e13c022c14610313578063f23a6e6114610333578063f3dcb84714610353578063fa461e33146103ac57600080fd5b8063aef2b33414610257578063b3461c8714610277578063bc197c81146102ab578063bc4cee8b146102e457600080fd5b80635b549182116100c65780635b549182146101a25780638bb7053d146101d65780639d63848a14610203578063ac9650d81461023757600080fd5b806301ffc9a7146100ed5780634219dc40146101225780634b8ce6021461016e575b600080fd5b3480156100f957600080fd5b5061010d610108366004613067565b6103ce565b60405190151581526020015b60405180910390f35b34801561012e57600080fd5b506101567f000000000000000000000000000000000000000000000000000000000000000081565b6040516001600160a01b039091168152602001610119565b34801561017a57600080fd5b506101567f000000000000000000000000000000000000000000000000000000000000000081565b3480156101ae57600080fd5b506101567f000000000000000000000000000000000000000000000000000000000000000081565b3480156101e257600080fd5b506101f66101f1366004613091565b610405565b6040516101199190613127565b34801561020f57600080fd5b506101567f000000000000000000000000000000000000000000000000000000000000000081565b61024a61024536600461313a565b61084b565b60405161011991906131ae565b34801561026357600080fd5b506101f6610272366004613210565b6109d8565b34801561028357600080fd5b506101567f000000000000000000000000000000000000000000000000000000000000000081565b3480156102b757600080fd5b506102cb6102c6366004613441565b610c71565b6040516001600160e01b03199091168152602001610119565b3480156102f057600080fd5b506103046102ff366004613507565b610c7d565b6040516101199392919061353b565b34801561031f57600080fd5b506101f661032e366004613507565b611162565b34801561033f57600080fd5b506102cb61034e36600461355a565b611364565b34801561035f57600080fd5b5061037361036e3660046135d9565b61138c565b6040805196875260208701959095529385019290925260608401526001600160a01b0390811660808401521660a082015260c001610119565b3480156103b857600080fd5b506103cc6103c7366004613617565b611615565b005b60006001600160e01b03198216630271189760e51b14806103ff57506301ffc9a760e01b6001600160e01b03198316145b92915050565b604080516101408101825260008082526020820181905291810182905260608181018390526080820183905260a0820183905260c0820183905260e08201839052610100820183905261012082019290925261046460c0840184613696565b81019061047191906136e3565b809350819250505060006104ae7f00000000000000000000000000000000000000000000000000000000000000008360000151846020015161171b565b905060008260e0015185604001356104c691906137e9565b9050600083610100015186606001356104df91906137e9565b9050826001600160a01b031663622fb68f604051806101000160405280896000013581526020018960200135815260200187604001516001600160a01b0316815260200187606001516001600160a01b031681526020016000600181111561054957610549613800565b8152602001858152602001848152602001604051806020016040528060008152508152506040518263ffffffff1660e01b8152600401610589919061382a565b600060405180830381600087803b1580156105a357600080fd5b505af11580156105b7573d6000803e3d6000fd5b505050506040513d6000823e601f3d908101601f191682016040526105df91908101906138f6565b505050508360e0015160001415806105fb575061010084015115155b8061060a575061012084015115155b15610764577f00000000000000000000000000000000000000000000000000000000000000006001600160a01b0316634fd991ea60405180610160016040528087600001516001600160a01b0316815260200187602001516001600160a01b03168152602001896000013581526020018960200135815260200187608001516001600160a01b031681526020018760a001516001600160a01b031681526020018760c001516001600160a01b031681526020018760e00151815260200187610100015181526020018761012001518152602001604051806020016040528060008152508152506040518263ffffffff1660e01b815260040161070c919061394f565b600060405180830381600087803b15801561072657600080fd5b505af115801561073a573d6000803e3d6000fd5b505050506040513d6000823e601f3d908101601f191682016040526107629190810190613a20565b505b604051632c54112b60e21b81528635600482015260208701356024820152600090339063b15044ac9060440160206040518083038186803b1580156107a857600080fd5b505afa1580156107bc573d6000803e3d6000fd5b505050506040513d601f19601f820116820180604052508101906107e09190613a54565b90506040518060c00160405280826001600160a01b031681526020018481526020018381526020018660e001518152602001866101000151815260200186610120015181525086604051634709938b60e01b8152600401610842929190613a71565b60405180910390fd5b6060816001600160401b038111156108655761086561326f565b60405190808252806020026020018201604052801561089857816020015b60608152602001906001900390816108835790505b50905060005b828110156109d157600080308686858181106108bc576108bc613ac5565b90506020028101906108ce9190613696565b6040516108dc929190613adb565b600060405180830381855af49150503d8060008114610917576040519150601f19603f3d011682016040523d82523d6000602084013e61091c565b606091505b50915091508161099e5760448151101561096a57604051635d2f436f60e11b815260206004820152600e60248201526d125b9d985b1a590814995cdd5b1d60921b6044820152606401610842565b600481019050808060200190518101906109849190613aeb565b604051635d2f436f60e11b81526004016108429190613127565b808484815181106109b1576109b1613ac5565b6020026020010181905250505080806109c990613b33565b91505061089e565b5092915050565b6040805160e08101825260008082526020820181905291810182905260608181018390526080820183905260a0820183905260c0820192909252610a1f60a0840184613696565b810190610a2c9190613b67565b925090506000610a997f00000000000000000000000000000000000000000000000000000000000000007f0000000000000000000000000000000000000000000000000000000000000000610a846020880188613c27565b610a946040890160208a01613c27565b611747565b9150610aaa90506020850185613c27565b610aba6040860160208701613c27565b836000015184602001518560400151866060015187608001518860a001518a604051602001610af199989796959493929190613c44565b6040516020818303038152906040529250610b0a613028565b6040805161010081018252868201358152606080880135602083015230928201839052810182905260808101919091526001600160a01b03831690635e2659f39060a0810160008152602001610b6660a08a0160808b01613c27565b6001600160a01b03168152602001878152508560c001516040518363ffffffff1660e01b8152600401610b9a929190613cc2565b600060405180830381600087803b158015610bb457600080fd5b505af1925050508015610be957506040513d6000823e601f3d908101601f19168201604052610be69190810190613d6b565b60015b610c4f573d808015610c17576040519150601f19603f3d011682016040523d82523d6000602084013e610c1c565b606091505b50610c2e81634709938b60e01b6117fc565b945084806020019051810190610c449190613dcc565b95509150610c559050565b50505050505b80846040516263ef6f60e81b8152600401610842929190613a71565b60005b95945050505050565b604080516101008101825260008082526020820181905291810182905260608181018390526080820183905260a0820183905260c0820183905260e082018390528291610ccd60e0860186613696565b810190610cda9190613e61565b8093508192505050610d367f00000000000000000000000000000000000000000000000000000000000000007f00000000000000000000000000000000000000000000000000000000000000008360000151846020015161186a565b5084608001358560a0013510610ea657610db660405180610100016040528083600001516001600160a01b0316815260200183602001516001600160a01b031681526020018760000135815260200187602001358152602001876040013581526020018760600135815260200187608001358152602001848152506119a2565b80945081955082965050505060405180610140016040528082600001516001600160a01b0316815260200182602001516001600160a01b0316815260200182604001516001600160a01b0316815260200182606001516001600160a01b0316815260200182608001516001600160a01b031681526020018260a001516001600160a01b031681526020018260c001516001600160a01b031681526020016000815260200160008152602001610e7c87608001358860a00135611a6c90919063ffffffff16565b9052604051610e9091908490602001613f2e565b604051602081830303815290604052915061115a565b6000610ee08260e00151610ebb576000610ec1565b8660a001355b8360e00151610ed4578760a00135610ed7565b60005b88356001611a71565b90506000610efa8288600001358560e00151156000611abf565b610f14886080013589600001358660e00151156000611abf565b610f1e91906137e9565b905060008360e00151610f35578760600135610f3b565b87604001355b8210610f9157610f73610f648560e00151610f5a578960600135840390565b8960400135840390565b60e08601518a35906000611afb565b90508360e00151610f88578760600135610f8e565b87604001355b91505b61103160405180610100016040528086600001516001600160a01b0316815260200186602001516001600160a01b031681526020018a6000013581526020018a6020013581526020018660e00151610fe95783610feb565b845b610ff99060408d01356137e9565b81526020018660e0015161100d578461100f565b835b61101d9060608d01356137e9565b8152602001858152602001878152506119a2565b60e08701519299509097509550611048578061104a565b815b6110549088614017565b96508360e001516110655781611067565b805b6110719087614017565b955060405180610140016040528085600001516001600160a01b0316815260200185602001516001600160a01b0316815260200185604001516001600160a01b0316815260200185606001516001600160a01b0316815260200185608001516001600160a01b031681526020018560a001516001600160a01b031681526020018560c001516001600160a01b031681526020018560e001516111135782611115565b835b81526020018560e00151611129578361112b565b825b815260006020918201526040516111459291889101613f2e565b60405160208183030381529060405294505050505b509193909250565b606061118d7f0000000000000000000000000000000000000000000000000000000000000000611b22565b60006111d57f00000000000000000000000000000000000000000000000000000000000000006111c06020860186613c27565b6111d06040870160208801613c27565b611b4e565b9050608083013515611254576040805163b2ceca7760e01b81526001600160a01b0383169163b2ceca77916112219187013590606088013590339060009060808b01359060040161402f565b600060405180830381600087803b15801561123b57600080fd5b505af115801561124f573d6000803e3d6000fd5b505050505b60a0830135156112d1576040805163b2ceca7760e01b81526001600160a01b0383169163b2ceca779161129e9187013590606088013590339060019060a08b01359060040161402f565b600060405180830381600087803b1580156112b857600080fd5b505af11580156112cc573d6000803e3d6000fd5b505050505b60c08301351561134e576040805163b2ceca7760e01b81526001600160a01b0383169163b2ceca779161131b9187013590606088013590339060029060c08b01359060040161402f565b600060405180830381600087803b15801561133557600080fd5b505af1158015611349573d6000803e3d6000fd5b505050505b5050604080516020810190915260008152919050565b60006001600160a01b038616301461137e57506000610c74565b5063f23a6e6160e01b610c74565b60008080808080806113a460a08a0160808b01614080565b6113b66101408b016101208c0161409d565b6040805162ffffff90931660208401529015159082015260600160408051601f19818403018152828201909152600080835260208301529150604080516101808101909152611566908061140d60208e018e613c27565b6001600160a01b031681526020018c602001602081019061142e9190613c27565b6001600160a01b031681526020018c6040013581526020018c6060013581526020018c610120016020810190611464919061409d565b61146e573061147e565b61147e60c08e0160a08f01613c27565b6001600160a01b0316815260200161149e6101408e016101208f0161409d565b6114b7576114b260c08e0160a08f01613c27565b6114b9565b305b6001600160a01b031681526020016114d760e08e0160c08f01613c27565b6001600160a01b031681526020016114f66101008e0160e08f01613c27565b6001600160a01b031681526020016115166101208e016101008f01613c27565b6001600160a01b031681526020016115366101808e016101608f01613c27565b6001600160a01b031681526020016115566101608e016101408f0161409d565b151581526020018490528a611bd3565b602080890196909652958752929b50909950975091955090925061160290611590908c018c613c27565b6115a060408d0160208e01613c27565b8c604001358d60800160208101906115b89190614080565b8e60a00160208101906115cb9190613c27565b8f6101200160208101906115df919061409d565b876000015188602001518a8060200190518101906115fd91906140ba565b611db4565b909b979a50959850939650919492505050565b600080611624838501856140d7565b915091508115611708576000806000838060200190518101906116479190614110565b9250925092506116797f0000000000000000000000000000000000000000000000000000000000000000848484611f5b565b6000336001600160a01b0316633850c7bd6040518163ffffffff1660e01b815260040160e06040518083038186803b1580156116b457600080fd5b505afa1580156116c8573d6000803e3d6000fd5b505050506040513d601f19601f820116820180604052508101906116ec919061416f565b50505050505090506116ff8a8a83611f9b565b50505050611713565b611713868683611fcd565b505050505050565b6000611728848484611b4e565b90506001600160a01b03811661174057611740612022565b9392505050565b60008061175e6001600160a01b038716858561171b565b6040516330af0bbf60e21b81526001600160a01b0380831660048301529193509086169063c2bc2efc9060240160206040518083038186803b1580156117a357600080fd5b505afa1580156117b7573d6000803e3d6000fd5b505050506040513d601f19601f820116820180604052508101906117db9190613a54565b90506001600160a01b0381166117f3576117f3612022565b94509492505050565b8151606090602061180e6004836137e9565b6118189190614224565b15801561184057506001600160e01b0319831661183485614238565b6001600160e01b031916145b156118625761185a84600461185581856137e9565b61203b565b9150506103ff565b835184602001fd5b60405163d81e842360e01b81526001600160a01b03838116600483015282811660248301526000919086169063d81e84239060440160206040518083038186803b1580156118b757600080fd5b505afa1580156118cb573d6000803e3d6000fd5b505050506040513d601f19601f820116820180604052508101906118ef9190613a54565b6040516330af0bbf60e21b81526001600160a01b03808316600483015291925060009186169063c2bc2efc9060240160206040518083038186803b15801561193657600080fd5b505afa15801561194a573d6000803e3d6000fd5b505050506040513d601f19601f8201168201806040525081019061196e9190613a54565b90506001600160a01b03811633146119995760405163863b47e760e01b815260040160405180910390fd5b50949350505050565b60008060606000808560e001518060200190518101906119c2919061426f565b915091506000611a3b60405180610100016040528089600001516001600160a01b0316815260200189602001516001600160a01b03168152602001896040015181526020018562ffffff1681526020018415158152602001896080015181526020018960a0015181526020018960c00151815250612147565b6040805184151560208201529299509097509192500160405160208183030381529060405293505050509193909250565b900390565b60006001600160801b038311611a9d57611a8e8584600185611afb565b611a989085614017565b611ab4565b611aaa8484600085611afb565b611ab49086614017565b90505b949350505050565b60006001600160801b038411611ae75782611ae157611a988585600085611afb565b84611ab4565b82611af25784611ab4565b611ab485856001855b600082611b1257611a9885600160801b868561233b565b611ab48585600160801b8561233b565b6001600160a01b0381163314611b4b5760405163d2bc8fc960e01b815260040160405180910390fd5b50565b60405163d81e842360e01b81526001600160a01b03838116600483015282811660248301526000919085169063d81e84239060440160206040518083038186803b158015611b9b57600080fd5b505afa158015611baf573d6000803e3d6000fd5b505050506040513d601f19601f82011682018060405250810190611ab79190613a54565b60008060008060006060600088608001518960a001518a60c001518b60e001518c61010001518d61014001518d8f6101600151604051602001611c1d9897969594939291906142a9565b6040516020818303038152906040529150611c36613028565b6040805160e0810182528b516001600160a01b0390811682526020808e01518216908301528c830151828401526060808e0151908301523060808301526101208d0151811660a083015260c082018690529151633e114f8b60e11b81527f000000000000000000000000000000000000000000000000000000000000000090921691637c229f1691611cca91600401614314565b600060405180830381600087803b158015611ce457600080fd5b505af1925050508015611d1957506040513d6000823e601f3d908101601f19168201604052611d169190810190613a20565b60015b611d7e573d808015611d47576040519150601f19603f3d011682016040523d82523d6000602084013e611d4c565b606091505b50611d5d816263ef6f60e81b6117fc565b935083806020019051810190611d739190613dcc565b94509150611d809050565b505b602081015160408201516060830151608084015160a08501519451939e929d50909b50995091975092955091935090915050565b60008085611dc25783611dc4565b845b91506000611df47f00000000000000000000000000000000000000000000000000000000000000008d8d8c612437565b905086611e015785611e03565b845b15611ed15760008c8c8b604051602001611e1f9392919061437c565b6040516020818303038152906040529050600181604051602001611e449291906143a4565b60408051601f1981840301815260c0830182526001600160a01b038c1683528a1560208401526001918301919091529150600090611eb890606081018b611e8b578a611e8d565b895b815260200188611e9d578e611ea0565b60005b81526020018490526001600160a01b03851690612459565b95509150611ec890508186614017565b94505050611f4c565b806001600160a01b0316633850c7bd6040518163ffffffff1660e01b815260040160e06040518083038186803b158015611f0a57600080fd5b505afa158015611f1e573d6000803e3d6000fd5b505050506040513d601f19601f82011682018060405250810190611f42919061416f565b5094965050505050505b50995099975050505050505050565b6000611f6985858585612798565b90506001600160a01b0381163314611f94576040516307c1698f60e01b815260040160405180910390fd5b5050505050565b604051633ab8e87b60e21b815260048101849052602481018390526001600160a01b0382166044820152606401610842565b600080600083806020019051810190611fe69190614110565b9250925092506120187f0000000000000000000000000000000000000000000000000000000000000000848484611f5b565b611713868661281b565b60405163d92e233d60e01b815260040160405180910390fd5b60608161204981601f614017565b10156120885760405162461bcd60e51b815260206004820152600e60248201526d736c6963655f6f766572666c6f7760901b6044820152606401610842565b6120928284614017565b845110156120d65760405162461bcd60e51b8152602060048201526011602482015270736c6963655f6f75744f66426f756e647360781b6044820152606401610842565b6060821580156120f55760405191506000825260208201604052611999565b6040519150601f8416801560200281840101858101878315602002848b0101015b8183101561212e578051835260209283019201612116565b5050858452601f01601f19166040525050949350505050565b6000806000806121898560800151612163578560c00151612169565b8560a001515b6121838760e0015188604001518960800151156000611abf565b9061283e565b905060008086608001516121a1578660a001516121a7565b8660c001515b156123095760006121e67f000000000000000000000000000000000000000000000000000000000000000089600001518a602001518b60600151612437565b9050600061221f8960800151612200578960a00151612206565b8960c001515b6121838b60e001518c604001518d608001516000611abf565b89516020808c015160608d015160405194955060009461224094930161437c565b60405160208183030381529060405290506000816040516020016122659291906143a4565b60408051601f1981840301815260a0830182526080808e015115845260016020850152838301869052918d0151606084015290820181905291506122b3906001600160a01b03851690612854565b508095505050506122d58860e00151848a604001518b60800151156000612b07565b91508382111561230357600196508391506123008860e00151838a604001518b608001516000612b07565b92505b5061230c565b50815b866080015161231b578161231d565b805b9450866080015161232e5780612330565b815b959794965050505050565b600080600061234a8787612b82565b91509150806000141561236b57612362828686612ba1565b92505050611ab7565b80851161239c5760405163362ced0960e11b8152600481018890526024810187905260448101869052606401610842565b600085878909600087810388169788900497600260038a028118808b02820302808b02820302808b02820302808b02820302808b02820302808b0290910302918190038190046001018684119095039485029290950394909404179283029350849050801561241a575084806124145761241461420e565b86880915155b1561242d578261242981613b33565b9350505b5050949350505050565b600061244585858585612798565b9050611ab7816001600160a01b0316612bd3565b6000806000846001600160a01b0316633850c7bd6040518163ffffffff1660e01b815260040160e06040518083038186803b15801561249757600080fd5b505afa1580156124ab573d6000803e3d6000fd5b505050506040513d601f19601f820116820180604052508101906124cf919061416f565b50505060808801519394506000931515925061252591505057846020015161251557612510600173fffd8963efd1fc6a506488495d951d5263988d266143bf565b612532565b6125106401000276a360016143e7565b6125328560800151612bfa565b90506401000276a36001600160a01b0382161161255c576125596401000276a360016143e7565b90505b73fffd8963efd1fc6a506488495d951d5263988d266001600160a01b038216106125a25761259f600173fffd8963efd1fc6a506488495d951d5263988d266143bf565b90505b84602001516125c557806001600160a01b0316826001600160a01b0316106125db565b806001600160a01b0316826001600160a01b0316115b1561271557600080876001600160a01b031663128acb083089602001518a6040015161261c5761260e8b60600151612c4a565b61261790614412565b612629565b6126298b60600151612c4a565b878c60a001516040518663ffffffff1660e01b815260040161264f95949392919061442f565b6040805180830381600087803b15801561266857600080fd5b505af1925050508015612698575060408051601f3d908101601f191682019092526126959181019061446a565b60015b6126e3573d8080156126c6576040519150601f19603f3d011682016040523d82523d6000602084013e6126cb565b606091505b506126d581612c60565b965090935091506126e69050565b50505b86602001516126fe57806126f983614412565b612708565b8161270882614412565b9096509450612790915050565b856001600160a01b0316633850c7bd6040518163ffffffff1660e01b815260040160e06040518083038186803b15801561274e57600080fd5b505afa158015612762573d6000803e3d6000fd5b505050506040513d601f19601f82011682018060405250810190612786919061416f565b5094965050505050505b509250925092565b604051630b4c774160e11b81526000906001600160a01b03861690631698ee82906127cb9087908790879060040161437c565b60206040518083038186803b1580156127e357600080fd5b505afa1580156127f7573d6000803e3d6000fd5b505050506040513d601f19601f82011682018060405250810190611ab49190613a54565b6040516377760aaf60e11b81526004810183905260248101829052604401610842565b600081831061284d5781611740565b5090919050565b6000806000846001600160a01b0316633850c7bd6040518163ffffffff1660e01b815260040160e06040518083038186803b15801561289257600080fd5b505afa1580156128a6573d6000803e3d6000fd5b505050506040513d601f19601f820116820180604052508101906128ca919061416f565b5050505050509050600084606001516000141561291b57845161290b57612906600173fffd8963efd1fc6a506488495d951d5263988d266143bf565b612928565b6129066401000276a360016143e7565b6129288560600151612bfa565b90506401000276a36001600160a01b038216116129525761294f6401000276a360016143e7565b90505b73fffd8963efd1fc6a506488495d951d5263988d266001600160a01b0382161061299857612995600173fffd8963efd1fc6a506488495d951d5263988d266143bf565b90505b84516129b857816001600160a01b0316816001600160a01b0316116129ce565b816001600160a01b0316816001600160a01b0316105b15612afe57600080876001600160a01b031663128acb083089600001518a60200151612a0f57612a018b60400151612c4a565b612a0a90614412565b612a1c565b612a1c8b60400151612c4a565b878c608001516040518663ffffffff1660e01b8152600401612a4295949392919061442f565b6040805180830381600087803b158015612a5b57600080fd5b505af1925050508015612a8b575060408051601f3d908101601f19168201909252612a889181019061446a565b60015b612ad4573d808015612ab9576040519150601f19603f3d011682016040523d82523d6000602084013e612abe565b606091505b50612ac881612c95565b9093509150612ad79050565b50505b8651612aec5780612ae783614412565b612af6565b81612af682614412565b909650945050505b50509250929050565b60006001600160801b038411612b4f5782612b3757612b32612b2986886137e9565b85600085611afb565b612b78565b612b45858560018515611afb565b612b3290876137e9565b82612b6257612b45858560008515611afb565b612b78612b6f86886137e9565b85600185611afb565b9695505050505050565b6000806000198385098385029250828110838203039150509250929050565b6000612bad838561448e565b9050818015612bc45750612bc18385614224565b15155b156117405780610c7481613b33565b6001600160a01b038116611b4b5760405163037064f160e01b815260040160405180910390fd5b60006001600160c01b038211612c21576103ff612c1c604084901b6000612cc5565b612d43565b600080612c378468010000000000000000612b82565b91509150611ab7612c1c83836000612d6d565b6000600160ff1b8210612c5c57600080fd5b5090565b60008080612c7584633ab8e87b60e21b6117fc565b806020019051810190612c8891906144a2565b9250925092509193909250565b600080612ca9836377760aaf60e11b6117fc565b806020019051810190612cbc919061446a565b91509150915091565b6000600019831415612cdf57506001600160801b036103ff565b82612cec575060006103ff565b50816001818101901c5b81811015612d1e57809150600181828681612d1357612d1361420e565b0401901c9050612cf6565b50818015612d34575082612d3282806144d0565b105b156103ff5780611ab781613b33565b60006001600160a01b03821115612c5c57604051630ba006e160e41b815260040160405180910390fd5b600082612d8557612d7e8483612cc5565b9050611740565b6000612d948585600019612dfb565b905060001991505b81811015612db957809150612db2858583612dfb565b9050612d9c565b8215612df357600080612dcc8485612b82565b9150915080861180612ddd57508187115b15612df05783612dec81613b33565b9450505b50505b509392505050565b600080612e0b8585856000612e2c565b90506000612e1d826000866000612eb1565b9092509050612b788282600260005b600080612e3a868686612f22565b90925090508015612e6f57604051636aa917ab60e01b8152600481018790526024810186905260448101859052606401610842565b821561199957600080612e828487612b82565b9150915080871180612e9357508188115b15612ea65783612ea281613b33565b9450505b505050949350505050565b8184018481108285018101908015612ede57811580612ed95750612ed66001836137e9565b86115b612ee2565b8186115b15612f18576040516347b1893f60e01b815260048101889052602481018790526044810186905260648101859052608401610842565b5094509492505050565b60008083612f3d57612f3685846000612ba1565b9150612fc9565b6000612f4884612fd1565b90506000612f5585612ffe565b90505b8515612fa957600080612f6b8885612b82565b91509150612f7b86868484612eb1565b9096509450612f8a8884612b82565b9092509050612f9c82828b6000612eb1565b9099509750612f58915050565b612fc18484612fba8a896000612ba1565b6000612eb1565b909450925050505b935093915050565b600081612ff1576040516301de42a960e41b815260040160405180910390fd5b5060008190030460010190565b60008161301e576040516319dbad9f60e01b815260040160405180910390fd5b5060008190030690565b6040518060c0016040528060006001600160a01b0316815260200160008152602001600081526020016000815260200160008152602001600081525090565b60006020828403121561307957600080fd5b81356001600160e01b03198116811461174057600080fd5b6000602082840312156130a357600080fd5b81356001600160401b038111156130b957600080fd5b820160e0818503121561174057600080fd5b60005b838110156130e65781810151838201526020016130ce565b838111156130f5576000848401525b50505050565b600081518084526131138160208601602086016130cb565b601f01601f19169290920160200192915050565b60208152600061174060208301846130fb565b6000806020838503121561314d57600080fd5b82356001600160401b038082111561316457600080fd5b818501915085601f83011261317857600080fd5b81358181111561318757600080fd5b8660208260051b850101111561319c57600080fd5b60209290920196919550909350505050565b6000602080830181845280855180835260408601915060408160051b870101925083870160005b8281101561320357603f198886030184526131f18583516130fb565b945092850192908501906001016131d5565b5092979650505050505050565b60006020828403121561322257600080fd5b81356001600160401b0381111561323857600080fd5b820160c0818503121561174057600080fd5b6001600160a01b0381168114611b4b57600080fd5b803561326a8161324a565b919050565b634e487b7160e01b600052604160045260246000fd5b60405161014081016001600160401b03811182821017156132a8576132a861326f565b60405290565b60405160e081016001600160401b03811182821017156132a8576132a861326f565b60405160c081016001600160401b03811182821017156132a8576132a861326f565b60405161010081016001600160401b03811182821017156132a8576132a861326f565b604051601f8201601f191681016001600160401b038111828210171561333d5761333d61326f565b604052919050565b600082601f83011261335657600080fd5b813560206001600160401b038211156133715761337161326f565b8160051b613380828201613315565b928352848101820192828101908785111561339a57600080fd5b83870192505b848310156133b9578235825291830191908301906133a0565b979650505050505050565b60006001600160401b038211156133dd576133dd61326f565b50601f01601f191660200190565b600082601f8301126133fc57600080fd5b813561340f61340a826133c4565b613315565b81815284602083860101111561342457600080fd5b816020850160208301376000918101602001919091529392505050565b600080600080600060a0868803121561345957600080fd5b85356134648161324a565b945060208601356134748161324a565b935060408601356001600160401b038082111561349057600080fd5b61349c89838a01613345565b945060608801359150808211156134b257600080fd5b6134be89838a01613345565b935060808801359150808211156134d457600080fd5b506134e1888289016133eb565b9150509295509295909350565b6000610100828403121561350157600080fd5b50919050565b60006020828403121561351957600080fd5b81356001600160401b0381111561352f57600080fd5b611ab7848285016134ee565b838152826020820152606060408201526000611ab460608301846130fb565b600080600080600060a0868803121561357257600080fd5b853561357d8161324a565b9450602086013561358d8161324a565b9350604086013592506060860135915060808601356001600160401b038111156135b657600080fd5b6134e1888289016133eb565b80356001600160601b038116811461326a57600080fd5b6000808284036101a08112156135ee57600080fd5b610180808212156135fe57600080fd5b84935061360c8186016135c2565b925050509250929050565b6000806000806060858703121561362d57600080fd5b843593506020850135925060408501356001600160401b038082111561365257600080fd5b818701915087601f83011261366657600080fd5b81358181111561367557600080fd5b88602082850101111561368757600080fd5b95989497505060200194505050565b6000808335601e198436030181126136ad57600080fd5b8301803591506001600160401b038211156136c757600080fd5b6020019150368190038213156136dc57600080fd5b9250929050565b6000808284036101608112156136f857600080fd5b6101408082121561370857600080fd5b613710613285565b915061371b8561325f565b82526137296020860161325f565b602083015261373a6040860161325f565b604083015261374b6060860161325f565b606083015261375c6080860161325f565b608083015261376d60a0860161325f565b60a083015261377e60c0860161325f565b60c083015260e08581013590830152610100808601359083015261012080860135908301529092508301356001600160401b038111156137bd57600080fd5b6137c9858286016133eb565b9150509250929050565b634e487b7160e01b600052601160045260246000fd5b6000828210156137fb576137fb6137d3565b500390565b634e487b7160e01b600052602160045260246000fd5b6002811061382657613826613800565b9052565b6020815281516020820152602082015160408201526000604083015160018060a01b0380821660608501528060608601511660808501525050608083015161387560a0840182613816565b5060a083015160c083015260c083015160e083015260e0830151610100808185015250611ab76101208401826130fb565b60006138b461340a846133c4565b90508281528383830111156138c857600080fd5b6117408360208301846130cb565b600082601f8301126138e757600080fd5b611740838351602085016138a6565b6000806000806080858703121561390c57600080fd5b84519350602085015192506040850151915060608501516001600160401b0381111561393757600080fd5b613943878288016138d6565b91505092959194509250565b602081526139696020820183516001600160a01b03169052565b6000602083015161398560408401826001600160a01b03169052565b50604083015160608301526060830151608083015260808301516139b460a08401826001600160a01b03169052565b5060a08301516001600160a01b03811660c08401525060c08301516001600160a01b03811660e08401525060e083015161010083810191909152830151610120808401919091528301516101408084019190915283015161016080840152611ab76101808401826130fb565b600060208284031215613a3257600080fd5b81516001600160401b03811115613a4857600080fd5b611ab7848285016138d6565b600060208284031215613a6657600080fd5b81516117408161324a565b60018060a01b0383511681526020830151602082015260408301516040820152606083015160608201526080830151608082015260a083015160a082015260e060c08201526000611ab760e08301846130fb565b634e487b7160e01b600052603260045260246000fd5b8183823760009101908152919050565b600060208284031215613afd57600080fd5b81516001600160401b03811115613b1357600080fd5b8201601f81018413613b2457600080fd5b611ab7848251602084016138a6565b6000600019821415613b4757613b476137d3565b5060010190565b8015158114611b4b57600080fd5b803561326a81613b4e565b600080828403610100811215613b7c57600080fd5b60e0811215613b8a57600080fd5b50613b936132ae565b8335613b9e8161324a565b81526020840135613bae8161324a565b60208201526040840135613bc18161324a565b60408201526060840135613bd48161324a565b6060820152613be56080850161325f565b6080820152613bf660a08501613b5c565b60a0820152613c0760c085016135c2565b60c0820152915060e08301356001600160401b038111156137bd57600080fd5b600060208284031215613c3957600080fd5b81356117408161324a565b6001600160a01b038a81168252898116602083015288811660408301528781166060830152868116608083015285811660a0830152841660c082015282151560e08201526101206101008201819052600090613ca2838201856130fb565b9c9b505050505050505050505050565b6004811061382657613826613800565b6040815282516040820152602083015160608201526000604084015160018060a01b0380821660808501528060608701511660a085015250506080840151613d1560c08401826001600160a01b03169052565b5060a0840151613d2860e0840182613cb2565b5060c0840151610100818185015260e086015191508061012085015250613d536101408401826130fb565b91505061174060208301846001600160601b03169052565b600080600080600060a08688031215613d8357600080fd5b8551613d8e8161324a565b8095505060208601519350604086015192506060860151915060808601516001600160401b03811115613dc057600080fd5b6134e1888289016138d6565b60008082840360e0811215613de057600080fd5b60c0811215613dee57600080fd5b50613df76132d0565b8351613e028161324a565b808252506020840151602082015260408401516040820152606084015160608201526080840151608082015260a084015160a08201528092505060c08301516001600160401b03811115613e5557600080fd5b6137c9858286016138d6565b600080828403610120811215613e7657600080fd5b61010080821215613e8657600080fd5b613e8e6132f2565b91508435613e9b8161324a565b8252613ea96020860161325f565b6020830152613eba6040860161325f565b6040830152613ecb6060860161325f565b6060830152613edc6080860161325f565b6080830152613eed60a0860161325f565b60a0830152613efe60c0860161325f565b60c0830152613f0f60e08601613b5c565b60e08301529092508301356001600160401b038111156137bd57600080fd5b82516001600160a01b0316815260006101606020850151613f5a60208501826001600160a01b03169052565b506040850151613f7560408501826001600160a01b03169052565b506060850151613f9060608501826001600160a01b03169052565b506080850151613fab60808501826001600160a01b03169052565b5060a0850151613fc660a08501826001600160a01b03169052565b5060c0850151613fe160c08501826001600160a01b03169052565b5060e085015160e084015261010080860151818501525061012080860151818501525080610140840152610c74818401856130fb565b6000821982111561402a5761402a6137d3565b500190565b858152602081018590526001600160a01b038416604082015260a081016003841061405c5761405c613800565b6060820193909352608001529392505050565b62ffffff81168114611b4b57600080fd5b60006020828403121561409257600080fd5b81356117408161406f565b6000602082840312156140af57600080fd5b813561174081613b4e565b6000602082840312156140cc57600080fd5b815161174081613b4e565b600080604083850312156140ea57600080fd5b82356140f581613b4e565b915060208301356001600160401b038111156137bd57600080fd5b60008060006060848603121561412557600080fd5b83516141308161324a565b60208501519093506141418161324a565b60408501519092506141528161406f565b809150509250925092565b805161ffff8116811461326a57600080fd5b600080600080600080600060e0888a03121561418a57600080fd5b87516141958161324a565b8097505060208801518060020b81146141ad57600080fd5b95506141bb6040890161415d565b94506141c96060890161415d565b93506141d76080890161415d565b925060a088015160ff811681146141ed57600080fd5b60c08901519092506141fe81613b4e565b8091505092959891949750929550565b634e487b7160e01b600052601260045260246000fd5b6000826142335761423361420e565b500690565b805160208201516001600160e01b031980821692919060048310156142675780818460040360031b1b83161693505b505050919050565b6000806040838503121561428257600080fd5b825161428d8161406f565b602084015190925061429e81613b4e565b809150509250929050565b6001600160a01b0389811682528881166020830152878116604083015286811660608301528516608082015283151560a08201526001600160601b03831660c082015261010060e08201819052600090614305838201856130fb565b9b9a5050505050505050505050565b60208152600060018060a01b0380845116602084015280602085015116604084015260408401516060840152606084015160808401528060808501511660a08401528060a08501511660c08401525060c083015160e080840152611ab76101008401826130fb565b6001600160a01b03938416815291909216602082015262ffffff909116604082015260600190565b8215158152604060208201526000611ab760408301846130fb565b60006001600160a01b03838116908316818110156143df576143df6137d3565b039392505050565b60006001600160a01b03828116848216808303821115614409576144096137d3565b01949350505050565b6000600160ff1b821415614428576144286137d3565b5060000390565b6001600160a01b0386811682528515156020830152604082018590528316606082015260a0608082018190526000906133b9908301846130fb565b6000806040838503121561447d57600080fd5b505080516020909101519092909150565b60008261449d5761449d61420e565b500490565b6000806000606084860312156144b757600080fd5b835192506020840151915060408401516141528161324a565b60008160001904831182151516156144ea576144ea6137d3565b50029056fea26469706673582212200812267828fe23e18979df4947ba804983c88aecbd3e38cf5a8c06d0d39c3bc764736f6c63430008080033",
  "linkReferences": {},
  "deployedLinkReferences": {}
}