{
  "_format": "hh-sol-artifact-1",
  "contractName": "TimeswapV2PeripheryNoDexCloseBorrowGivenPosition",
  "sourceName": "@timeswap-labs/v2-periphery-nodex/src/TimeswapV2PeripheryNoDexCloseBorrowGivenPosition.sol",
  "abi": [
    {
      "inputs": [
        {
          "internalType": "address",
          "name": "chosenOptionFactory",
          "type": "address"
        },
        {
          "internalType": "address",
          "name": "chosenPoolFactory",
          "type": "address"
        },
        {
          "internalType": "address",
          "name": "chosenTokens",
          "type": "address"
        },
        {
          "internalType": "address",
          "name": "chosenNative",
          "type": "address"
        }
      ],
      "stateMutability": "nonpayable",
      "type": "constructor"
    },
    {
      "inputs": [
        {
          "internalType": "address",
          "name": "from",
          "type": "address"
        }
      ],
      "name": "CallerNotWrappedNative",
      "type": "error"
    },
    {
      "inputs": [],
      "name": "CanOnlyBeCalledByOptionContract",
      "type": "error"
    },
    {
      "inputs": [],
      "name": "CanOnlyBeCalledByPoolContract",
      "type": "error"
    },
    {
      "inputs": [
        {
          "internalType": "uint256",
          "name": "deadline",
          "type": "uint256"
        }
      ],
      "name": "DeadlineReached",
      "type": "error"
    },
    {
      "inputs": [
        {
          "internalType": "uint256",
          "name": "value",
          "type": "uint256"
        }
      ],
      "name": "InsufficientWrappedNative",
      "type": "error"
    },
    {
      "inputs": [
        {
          "internalType": "uint256",
          "name": "tokenAmount",
          "type": "uint256"
        },
        {
          "internalType": "uint256",
          "name": "maxTokenAmount",
          "type": "uint256"
        }
      ],
      "name": "MaxTokenReached",
      "type": "error"
    },
    {
      "inputs": [
        {
          "internalType": "uint256",
          "name": "multiplicand",
          "type": "uint256"
        },
        {
          "internalType": "uint256",
          "name": "multiplier",
          "type": "uint256"
        },
        {
          "internalType": "uint256",
          "name": "divisor",
          "type": "uint256"
        }
      ],
      "name": "MulDivOverflow",
      "type": "error"
    },
    {
      "inputs": [
        {
          "internalType": "string",
          "name": "revertString",
          "type": "string"
        }
      ],
      "name": "MulticallFailed",
      "type": "error"
    },
    {
      "inputs": [
        {
          "internalType": "address",
          "name": "to",
          "type": "address"
        },
        {
          "internalType": "uint256",
          "name": "value",
          "type": "uint256"
        }
      ],
      "name": "NativeTransferFailed",
      "type": "error"
    },
    {
      "inputs": [],
      "name": "ZeroAddress",
      "type": "error"
    },
    {
      "anonymous": false,
      "inputs": [
        {
          "indexed": true,
          "internalType": "address",
          "name": "token0",
          "type": "address"
        },
        {
          "indexed": true,
          "internalType": "address",
          "name": "token1",
          "type": "address"
        },
        {
          "indexed": false,
          "internalType": "uint256",
          "name": "strike",
          "type": "uint256"
        },
        {
          "indexed": true,
          "internalType": "uint256",
          "name": "maturity",
          "type": "uint256"
        },
        {
          "indexed": false,
          "internalType": "address",
          "name": "from",
          "type": "address"
        },
        {
          "indexed": false,
          "internalType": "address",
          "name": "to",
          "type": "address"
        },
        {
          "indexed": false,
          "internalType": "bool",
          "name": "isToken0",
          "type": "bool"
        },
        {
          "indexed": false,
          "internalType": "bool",
          "name": "isLong0",
          "type": "bool"
        },
        {
          "indexed": false,
          "internalType": "uint256",
          "name": "tokenAmount",
          "type": "uint256"
        },
        {
          "indexed": false,
          "internalType": "uint256",
          "name": "positionAmount",
          "type": "uint256"
        }
      ],
      "name": "CloseBorrowGivenPosition",
      "type": "event"
    },
    {
      "inputs": [
        {
          "components": [
            {
              "internalType": "address",
              "name": "token0",
              "type": "address"
            },
            {
              "internalType": "address",
              "name": "token1",
              "type": "address"
            },
            {
              "internalType": "uint256",
              "name": "strike",
              "type": "uint256"
            },
            {
              "internalType": "uint256",
              "name": "maturity",
              "type": "uint256"
            },
            {
              "internalType": "address",
              "name": "to",
              "type": "address"
            },
            {
              "internalType": "bool",
              "name": "isToken0",
              "type": "bool"
            },
            {
              "internalType": "bool",
              "name": "isLong0",
              "type": "bool"
            },
            {
              "internalType": "uint256",
              "name": "positionAmount",
              "type": "uint256"
            },
            {
              "internalType": "uint256",
              "name": "maxTokenAmount",
              "type": "uint256"
            },
            {
              "internalType": "uint256",
              "name": "deadline",
              "type": "uint256"
            }
          ],
          "internalType": "struct TimeswapV2PeripheryNoDexCloseBorrowGivenPositionParam",
          "name": "param",
          "type": "tuple"
        }
      ],
      "name": "closeBorrowGivenPosition",
      "outputs": [
        {
          "internalType": "uint256",
          "name": "tokenAmount",
          "type": "uint256"
        }
      ],
      "stateMutability": "nonpayable",
      "type": "function"
    },
    {
      "inputs": [
        {
          "internalType": "bytes[]",
          "name": "data",
          "type": "bytes[]"
        }
      ],
      "name": "multicall",
      "outputs": [
        {
          "internalType": "bytes[]",
          "name": "results",
          "type": "bytes[]"
        }
      ],
      "stateMutability": "payable",
      "type": "function"
    },
    {
      "inputs": [
        {
          "internalType": "address",
          "name": "",
          "type": "address"
        },
        {
          "internalType": "address",
          "name": "",
          "type": "address"
        },
        {
          "internalType": "uint256[]",
          "name": "",
          "type": "uint256[]"
        },
        {
          "internalType": "uint256[]",
          "name": "",
          "type": "uint256[]"
        },
        {
          "internalType": "bytes",
          "name": "",
          "type": "bytes"
        }
      ],
      "name": "onERC1155BatchReceived",
      "outputs": [
        {
          "internalType": "bytes4",
          "name": "",
          "type": "bytes4"
        }
      ],
      "stateMutability": "pure",
      "type": "function"
    },
    {
      "inputs": [
        {
          "internalType": "address",
          "name": "operator",
          "type": "address"
        },
        {
          "internalType": "address",
          "name": "",
          "type": "address"
        },
        {
          "internalType": "uint256",
          "name": "",
          "type": "uint256"
        },
        {
          "internalType": "uint256",
          "name": "",
          "type": "uint256"
        },
        {
          "internalType": "bytes",
          "name": "",
          "type": "bytes"
        }
      ],
      "name": "onERC1155Received",
      "outputs": [
        {
          "internalType": "bytes4",
          "name": "",
          "type": "bytes4"
        }
      ],
      "stateMutability": "view",
      "type": "function"
    },
    {
      "inputs": [],
      "name": "optionFactory",
      "outputs": [
        {
          "internalType": "address",
          "name": "",
          "type": "address"
        }
      ],
      "stateMutability": "view",
      "type": "function"
    },
    {
      "inputs": [],
      "name": "poolFactory",
      "outputs": [
        {
          "internalType": "address",
          "name": "",
          "type": "address"
        }
      ],
      "stateMutability": "view",
      "type": "function"
    },
    {
      "inputs": [],
      "name": "refundNatives",
      "outputs": [],
      "stateMutability": "payable",
      "type": "function"
    },
    {
      "inputs": [
        {
          "internalType": "bytes4",
          "name": "interfaceId",
          "type": "bytes4"
        }
      ],
      "name": "supportsInterface",
      "outputs": [
        {
          "internalType": "bool",
          "name": "",
          "type": "bool"
        }
      ],
      "stateMutability": "view",
      "type": "function"
    },
    {
      "inputs": [
        {
          "components": [
            {
              "internalType": "uint256",
              "name": "strike",
              "type": "uint256"
            },
            {
              "internalType": "uint256",
              "name": "maturity",
              "type": "uint256"
            },
            {
              "internalType": "bool",
              "name": "isLong0ToLong1",
              "type": "bool"
            },
            {
              "internalType": "uint256",
              "name": "token0AndLong0Amount",
              "type": "uint256"
            },
            {
              "internalType": "uint256",
              "name": "token1AndLong1Amount",
              "type": "uint256"
            },
            {
              "internalType": "bytes",
              "name": "data",
              "type": "bytes"
            }
          ],
          "internalType": "struct TimeswapV2OptionSwapCallbackParam",
          "name": "param",
          "type": "tuple"
        }
      ],
      "name": "timeswapV2OptionSwapCallback",
      "outputs": [
        {
          "internalType": "bytes",
          "name": "data",
          "type": "bytes"
        }
      ],
      "stateMutability": "nonpayable",
      "type": "function"
    },
    {
      "inputs": [
        {
          "components": [
            {
              "internalType": "uint256",
              "name": "strike",
              "type": "uint256"
            },
            {
              "internalType": "uint256",
              "name": "maturity",
              "type": "uint256"
            },
            {
              "internalType": "uint256",
              "name": "long0Amount",
              "type": "uint256"
            },
            {
              "internalType": "uint256",
              "name": "long1Amount",
              "type": "uint256"
            },
            {
              "internalType": "uint256",
              "name": "shortAmount",
              "type": "uint256"
            },
            {
              "internalType": "bytes",
              "name": "data",
              "type": "bytes"
            }
          ],
          "internalType": "struct TimeswapV2PoolDeleverageCallbackParam",
          "name": "param",
          "type": "tuple"
        }
      ],
      "name": "timeswapV2PoolDeleverageCallback",
      "outputs": [
        {
          "internalType": "bytes",
          "name": "data",
          "type": "bytes"
        }
      ],
      "stateMutability": "nonpayable",
      "type": "function"
    },
    {
      "inputs": [
        {
          "components": [
            {
              "internalType": "uint256",
              "name": "strike",
              "type": "uint256"
            },
            {
              "internalType": "uint256",
              "name": "maturity",
              "type": "uint256"
            },
            {
              "internalType": "uint256",
              "name": "longAmount",
              "type": "uint256"
            },
            {
              "internalType": "uint256",
              "name": "shortAmount",
              "type": "uint256"
            },
            {
              "internalType": "bytes",
              "name": "data",
              "type": "bytes"
            }
          ],
          "internalType": "struct TimeswapV2PoolDeleverageChoiceCallbackParam",
          "name": "param",
          "type": "tuple"
        }
      ],
      "name": "timeswapV2PoolDeleverageChoiceCallback",
      "outputs": [
        {
          "internalType": "uint256",
          "name": "long0Amount",
          "type": "uint256"
        },
        {
          "internalType": "uint256",
          "name": "long1Amount",
          "type": "uint256"
        },
        {
          "internalType": "bytes",
          "name": "data",
          "type": "bytes"
        }
      ],
      "stateMutability": "nonpayable",
      "type": "function"
    },
    {
      "inputs": [],
      "name": "tokens",
      "outputs": [
        {
          "internalType": "address",
          "name": "",
          "type": "address"
        }
      ],
      "stateMutability": "view",
      "type": "function"
    },
    {
      "inputs": [
        {
          "internalType": "uint256",
          "name": "amountMinimum",
          "type": "uint256"
        },
        {
          "internalType": "address",
          "name": "recipient",
          "type": "address"
        }
      ],
      "name": "unwrapWrappedNatives",
      "outputs": [],
      "stateMutability": "payable",
      "type": "function"
    },
    {
      "inputs": [],
      "name": "wrappedNativeToken",
      "outputs": [
        {
          "internalType": "address",
          "name": "",
          "type": "address"
        }
      ],
      "stateMutability": "view",
      "type": "function"
    },
    {
      "stateMutability": "payable",
      "type": "receive"
    }
  ],
  "bytecode": "0x6101006040523480156200001257600080fd5b5060405162002e6538038062002e65833981016040819052620000359162000082565b6001600160601b0319606094851b811660805292841b831660a05290831b821660c05290911b1660e052620000df565b80516001600160a01b03811681146200007d57600080fd5b919050565b600080600080608085870312156200009957600080fd5b620000a48562000065565b9350620000b46020860162000065565b9250620000c46040860162000065565b9150620000d46060860162000065565b905092959194509250565b60805160601c60a05160601c60c05160601c60e05160601c612cdf620001866000396000818160f10152818161018401528181610ea901528181610f6d01528181611a2c0152611a7201526000818161025f015281816103ee01526111b10152600081816101d0015281816107c001528181610bff015261117e0152600081816102e20152818161079f01528181610bde01528181611021015261115d0152612cdf6000f3fe6080604052600436106100e15760003560e01c8063ac9650d81161007f578063bc197c8111610059578063bc197c8114610317578063dc4a484714610350578063dfef25d814610370578063f23a6e611461037857600080fd5b8063ac9650d8146102b0578063b3461c87146102d0578063b7f68a0e1461030457600080fd5b8063872ae0df116100bb578063872ae0df146101f257806387a8993a146102205780639d63848a1461024d578063aaac7a741461028157600080fd5b806301ffc9a71461013d57806317fcb39b146101725780634219dc40146101be57600080fd5b3661013857336001600160a01b037f000000000000000000000000000000000000000000000000000000000000000016146101365760405163631b2c4f60e11b81523360048201526024015b60405180910390fd5b005b600080fd5b34801561014957600080fd5b5061015d610158366004611fc5565b610398565b60405190151581526020015b60405180910390f35b34801561017e57600080fd5b506101a67f000000000000000000000000000000000000000000000000000000000000000081565b6040516001600160a01b039091168152602001610169565b3480156101ca57600080fd5b506101a67f000000000000000000000000000000000000000000000000000000000000000081565b3480156101fe57600080fd5b5061021261020d366004611fef565b6103cf565b604051908152602001610169565b34801561022c57600080fd5b5061024061023b36600461201a565b610768565b60405161016991906120a6565b34801561025957600080fd5b506101a67f000000000000000000000000000000000000000000000000000000000000000081565b34801561028d57600080fd5b506102a161029c3660046120b9565b610ba7565b604051610169939291906120f3565b6102c36102be366004612112565b610d04565b6040516101699190612186565b3480156102dc57600080fd5b506101a67f000000000000000000000000000000000000000000000000000000000000000081565b610136610312366004612200565b610e91565b34801561032357600080fd5b50610337610332366004612367565b610fe0565b6040516001600160e01b03199091168152602001610169565b34801561035c57600080fd5b5061024061036b36600461201a565b610fec565b6101366110fb565b34801561038457600080fd5b50610337610393366004612414565b61110d565b60006001600160e01b03198216630271189760e51b14806103c957506301ffc9a760e01b6001600160e01b03198316145b92915050565b60004282610120013510156103ec576103ec826101200135611135565b7f00000000000000000000000000000000000000000000000000000000000000006001600160a01b0316635c9b728233306040518060a0016040528087600001602081019061043b919061247c565b6001600160a01b0316815260200187602001602081019061045c919061247c565b6001600160a01b0316815260200187604001358152602001876060013581526020018760c001602081019061049191906124a7565b61049c57600161049f565b60005b60028111156104b0576104b06124c4565b8152508660e001356040518563ffffffff1660e01b81526004016104d794939291906124ee565b600060405180830381600087803b1580156104f157600080fd5b505af1158015610505573d6000803e3d6000fd5b5050505060003383608001602081019061051f919061247c565b61052f60c0860160a087016124a7565b604080516001600160a01b03948516602082015293909216918301919091521515606082015260800160408051601f198184030181526101008301909152915061063e9080610581602087018761247c565b6001600160a01b031681526020018560200160208101906105a2919061247c565b6001600160a01b0316815260200185604001358152602001856060013581526020018560c00160208101906105d791906124a7565b15156105e960c0880160a089016124a7565b1515146106055761060060a087016080880161247c565b610607565b305b6001600160a01b0316815260200161062560e0870160c088016124a7565b1515815260e08601356020820152604001839052611151565b805190935061065892508301602090810191508301612557565b915082610100013582111561068e57604051637218df3b60e11b815260048101839052610100840135602482015260440161012d565b60608301356106a3604085016020860161247c565b6001600160a01b03166106b9602086018661247c565b6001600160a01b03167faaf4741bf6630b5fab495b49f822e0580a90b752863d55f93b77c8cbb7444ccf6040870135336106f960a08a0160808b0161247c565b61070960c08b0160a08c016124a7565b61071960e08c0160c08d016124a7565b604080519586526001600160a01b039485166020870152929093168483015215156060840152901515608083015260a0820188905260e08981013560c08401529051918290030190a450919050565b606060008080808061077d60a0880188612570565b81019061078a91906125bd565b9a5093985091965094509250905060006107e67f00000000000000000000000000000000000000000000000000000000000000007f0000000000000000000000000000000000000000000000000000000000000000888861144b565b9050600080826001600160a01b031663622fb68f6040518061010001604052808d6000013581526020018d602001358152602001886108255730610827565b895b6001600160a01b03168152602001886108405789610842565b305b6001600160a01b031681526020016001815260200188610863576000610869565b8d608001355b81526020018861087d578d60800135610880565b60005b8152602001604051806020016040528060008152508152506040518263ffffffff1660e01b81526004016108b4919061265c565b600060405180830381600087803b1580156108ce57600080fd5b505af11580156108e2573d6000803e3d6000fd5b505050506040513d6000823e601f3d908101601f1916820160405261090a9190810190612728565b5050915091508461091f578960600135610925565b89604001355b156109b8576001600160a01b03831663b2ceca778b3560208d0135338961094d576001610950565b60005b8a61095f578f60600135610965565b8f604001355b6040518663ffffffff1660e01b8152600401610985959493929190612781565b600060405180830381600087803b15801561099f57600080fd5b505af11580156109b3573d6000803e3d6000fd5b505050505b846109c75789604001356109cd565b89606001355b15610b2457878786876109e057836109e2565b845b878d6040516020016109f9969594939291906127bb565b60408051601f19818403018152610100830182528c35835260208d810135908401526001600160a01b038981169284019290925233606084015287151560808401529a5084169063b084c2529060a0810188610a56576001610a59565b60005b6001811115610a6a57610a6a6124c4565b815260200188610a8757610a8260608f01358661281f565b610a95565b610a9560408f01358761281f565b610a9f9089612837565b81526020018c8152506040518263ffffffff1660e01b8152600401610ac4919061284e565b600060405180830381600087803b158015610ade57600080fd5b505af1158015610af2573d6000803e3d6000fd5b505050506040513d6000823e601f3d908101601f19168201604052610b1a91908101906128d4565b9a50610b9a915050565b610b97604051806101400160405280336001600160a01b031681526020018a6001600160a01b03168152602001896001600160a01b031681526020018c6000013581526020018c60200135815260200187151581526020018481526020018381526020018681526020018b815250611583565b98505b5050505050505050919050565b60008060608180808080610bbe60808a018a612570565b810190610bcb91906125bd565b9a50939850919650945092509050610c257f00000000000000000000000000000000000000000000000000000000000000007f0000000000000000000000000000000000000000000000000000000000000000878761144b565b506000610c3a60608b01358b358515846116bf565b610c449083612837565b9050610cc36040518060e00160405280886001600160a01b03168152602001876001600160a01b031681526020018c6000013581526020018c6020013581526020018515158152602001610cb686610c9d576000610c9f565b845b87610caa5785610cad565b60005b8f35600061170f565b815260200189905261174d565b604051929b509099509750610ce690879087908790879087908d90602001612923565b60405160208183030381529060405296505050505050509193909250565b6060816001600160401b03811115610d1e57610d1e612230565b604051908082528060200260200182016040528015610d5157816020015b6060815260200190600190039081610d3c5790505b50905060005b82811015610e8a5760008030868685818110610d7557610d75612966565b9050602002810190610d879190612570565b604051610d9592919061297c565b600060405180830381855af49150503d8060008114610dd0576040519150601f19603f3d011682016040523d82523d6000602084013e610dd5565b606091505b509150915081610e5757604481511015610e2357604051635d2f436f60e11b815260206004820152600e60248201526d125b9d985b1a590814995cdd5b1d60921b604482015260640161012d565b60048101905080806020019051810190610e3d919061298c565b604051635d2f436f60e11b815260040161012d91906120a6565b80848481518110610e6a57610e6a612966565b602002602001018190525050508080610e82906129d4565b915050610d57565b5092915050565b6040516370a0823160e01b81523060048201526000907f00000000000000000000000000000000000000000000000000000000000000006001600160a01b0316906370a082319060240160206040518083038186803b158015610ef357600080fd5b505afa158015610f07573d6000803e3d6000fd5b505050506040513d601f19601f82011682018060405250810190610f2b9190612557565b905082811015610f5157604051636b8c4dab60e01b81526004810182905260240161012d565b8015610fdb57604051632e1a7d4d60e01b8152600481018290527f00000000000000000000000000000000000000000000000000000000000000006001600160a01b031690632e1a7d4d90602401600060405180830381600087803b158015610fb957600080fd5b505af1158015610fcd573d6000803e3d6000fd5b50505050610fdb82826117b7565b505050565b60005b95945050505050565b606060008080808061100160a0880188612570565b81019061100e91906129ef565b9a509398509196509450925090506110477f00000000000000000000000000000000000000000000000000000000000000008686611857565b6110f0604051806101400160405280336001600160a01b03168152602001876001600160a01b03168152602001866001600160a01b0316815260200189600001358152602001896020013581526020018515158152602001856110ab5760006110ad565b845b6110bb9060608c013561281f565b8152602001856110cb57846110ce565b60005b6110dc9060808c013561281f565b815260200183815260200188815250611583565b979650505050505050565b471561110b5761110b33476117b7565b565b60006001600160a01b038616301461112757506000610fe3565b5063f23a6e6160e01b610fe3565b60405163070b57d960e41b81526004810182905260240161012d565b600080606060006111ac7f00000000000000000000000000000000000000000000000000000000000000007f00000000000000000000000000000000000000000000000000000000000000008760000151886020015161190d565b9150507f00000000000000000000000000000000000000000000000000000000000000006001600160a01b031663a38d7a1760405180610160016040528088600001516001600160a01b0316815260200188602001516001600160a01b031681526020018860400151815260200188606001518152602001306001600160a01b03168152602001306001600160a01b03168152602001306001600160a01b031681526020018860a00151611261576000611267565b8860c001515b81526020018860a0015161127f578860c00151611282565b60005b815260200160008152602001604051806020016040528060008152508152506040518263ffffffff1660e01b81526004016112bd9190612a5c565b600060405180830381600087803b1580156112d757600080fd5b505af11580156112eb573d6000803e3d6000fd5b505050506040513d6000823e601f3d908101601f191682016040526113139190810190612b2d565b508451602080870151608088015160a089015160c08a015160e08b015160405161133e979601612923565b60408051601f1981840301815260c0830182528782015183526060808901516020850152309284019290925293506001600160a01b038316916378fb9d38918101600381526020016113c18960a0015161139957600061139f565b8960c001515b8a60a001516113b2578a60c001516113b5565b60005b8b60400151600061170f565b8152602001858152506040518263ffffffff1660e01b81526004016113e69190612b61565b600060405180830381600087803b15801561140057600080fd5b505af1158015611414573d6000803e3d6000fd5b505050506040513d6000823e601f3d908101601f1916820160405261143c9190810190612728565b92989197509195509350505050565b60405163d81e842360e01b81526001600160a01b03838116600483015282811660248301526000919086169063d81e84239060440160206040518083038186803b15801561149857600080fd5b505afa1580156114ac573d6000803e3d6000fd5b505050506040513d601f19601f820116820180604052508101906114d09190612bc8565b6040516330af0bbf60e21b81526001600160a01b03808316600483015291925060009186169063c2bc2efc9060240160206040518083038186803b15801561151757600080fd5b505afa15801561152b573d6000803e3d6000fd5b505050506040513d601f19601f8201168201806040525081019061154f9190612bc8565b90506001600160a01b038116331461157a5760405163863b47e760e01b815260040160405180910390fd5b50949350505050565b606060008060008461012001518060200190518101906115a39190612be5565b9250925092506000816115ba578560e001516115c0565b8560c001515b90508560a00151151582151514156115e657808661010001516115e39190612837565b90505b8560a001511515821515141561164957808661010001511115610138576116448361161f838961010001516119c290919063ffffffff16565b8461162e578860400151611634565b88602001515b6001600160a01b031691906119c7565b61167e565b61167e8261165b578660400151611661565b86602001515b8751869085611674578960e00151611a2a565b8960c00151611a2a565b8161168d578560e00151611693565b8560c001515b6040516020016116a591815260200190565b604051602081830303815290604052945050505050919050565b60006001600160801b0384116116ec57826116e6576116e18585600085611b14565b611704565b84611704565b826116f75784611704565b6117048585600185611b14565b90505b949350505050565b60006001600160801b0383116117365761172c8584600185611b14565b6116e1908561281f565b6117438484600085611b14565b611704908661281f565b600080606060008460c0015180602001905181019061176c9190612be5565b9250505060006117888660a001518760400151841560016116bf565b905081611796576000611798565b805b9450816117a557806117a8565b60005b60c09096015194969350505050565b604080516000808252602082019092526001600160a01b0384169083906040516117e19190612c32565b60006040518083038185875af1925050503d806000811461181e576040519150601f19603f3d011682016040523d82523d6000602084013e611823565b606091505b5050905080610fdb5760405163296c17bb60e21b81526001600160a01b03841660048201526024810183905260440161012d565b60405163d81e842360e01b81526001600160a01b03838116600483015282811660248301526000919085169063d81e84239060440160206040518083038186803b1580156118a457600080fd5b505afa1580156118b8573d6000803e3d6000fd5b505050506040513d601f19601f820116820180604052508101906118dc9190612bc8565b90506001600160a01b03811633146119075760405163a5fbb7d960e01b815260040160405180910390fd5b50505050565b6000806119246001600160a01b0387168585611b3b565b6040516330af0bbf60e21b81526001600160a01b0380831660048301529193509086169063c2bc2efc9060240160206040518083038186803b15801561196957600080fd5b505afa15801561197d573d6000803e3d6000fd5b505050506040513d601f19601f820116820180604052508101906119a19190612bc8565b90506001600160a01b0381166119b9576119b9611b67565b94509492505050565b900390565b6040516001600160a01b038316602482015260448101829052610fdb90849063a9059cbb60e01b906064015b60408051601f198184030181529190526020810180516001600160e01b03166001600160e01b031990931692909217909152611b80565b7f00000000000000000000000000000000000000000000000000000000000000006001600160a01b0316846001600160a01b0316148015611a6b5750804710155b15611aff577f00000000000000000000000000000000000000000000000000000000000000006001600160a01b031663d0e30db0826040518263ffffffff1660e01b81526004016000604051808303818588803b158015611acb57600080fd5b505af1158015611adf573d6000803e3d6000fd5b50611afa935050506001600160a01b038616905083836119c7565b611907565b6119076001600160a01b038516848484611c52565b600082611b2b576116e185600160801b8685611c8a565b6117048585600160801b85611c8a565b6000611b48848484611d86565b90506001600160a01b038116611b6057611b60611b67565b9392505050565b60405163d92e233d60e01b815260040160405180910390fd5b6000611bd5826040518060400160405280602081526020017f5361666545524332303a206c6f772d6c6576656c2063616c6c206661696c6564815250856001600160a01b0316611e0b9092919063ffffffff16565b805190915015610fdb5780806020019051810190611bf39190612c4e565b610fdb5760405162461bcd60e51b815260206004820152602a60248201527f5361666545524332303a204552433230206f7065726174696f6e20646964206e6044820152691bdd081cdd58d8d9595960b21b606482015260840161012d565b6040516001600160a01b03808516602483015283166044820152606481018290526119079085906323b872dd60e01b906084016119f3565b6000806000611c998787611e1a565b915091508060001415611cba57611cb1828686611e39565b92505050611707565b808511611ceb5760405163362ced0960e11b815260048101889052602481018790526044810186905260640161012d565b600085878909600087810388169788900497600260038a028118808b02820302808b02820302808b02820302808b02820302808b02820302808b02909103029181900381900460010186841190950394850292909503949094041792830293508490508015611d6957508480611d6357611d63612c6b565b86880915155b15611d7c5782611d78816129d4565b9350505b5050949350505050565b60405163d81e842360e01b81526001600160a01b03838116600483015282811660248301526000919085169063d81e84239060440160206040518083038186803b158015611dd357600080fd5b505afa158015611de7573d6000803e3d6000fd5b505050506040513d601f19601f820116820180604052508101906117079190612bc8565b60606117078484600085611e6b565b6000806000198385098385029250828110838203039150509250929050565b6000611e458385612c81565b9050818015611e5c5750611e598385612c95565b15155b15611b605780610fe3816129d4565b606082471015611ecc5760405162461bcd60e51b815260206004820152602660248201527f416464726573733a20696e73756666696369656e742062616c616e636520666f6044820152651c8818d85b1b60d21b606482015260840161012d565b6001600160a01b0385163b611f235760405162461bcd60e51b815260206004820152601d60248201527f416464726573733a2063616c6c20746f206e6f6e2d636f6e7472616374000000604482015260640161012d565b600080866001600160a01b03168587604051611f3f9190612c32565b60006040518083038185875af1925050503d8060008114611f7c576040519150601f19603f3d011682016040523d82523d6000602084013e611f81565b606091505b50915091506110f082828660608315611f9b575081611b60565b825115611fab5782518084602001fd5b8160405162461bcd60e51b815260040161012d91906120a6565b600060208284031215611fd757600080fd5b81356001600160e01b031981168114611b6057600080fd5b6000610140828403121561200257600080fd5b50919050565b600060c0828403121561200257600080fd5b60006020828403121561202c57600080fd5b81356001600160401b0381111561204257600080fd5b61170784828501612008565b60005b83811015612069578181015183820152602001612051565b838111156119075750506000910152565b6000815180845261209281602086016020860161204e565b601f01601f19169290920160200192915050565b602081526000611b60602083018461207a565b6000602082840312156120cb57600080fd5b81356001600160401b038111156120e157600080fd5b820160a08185031215611b6057600080fd5b838152826020820152606060408201526000611704606083018461207a565b6000806020838503121561212557600080fd5b82356001600160401b038082111561213c57600080fd5b818501915085601f83011261215057600080fd5b81358181111561215f57600080fd5b8660208260051b850101111561217457600080fd5b60209290920196919550909350505050565b6000602080830181845280855180835260408601915060408160051b870101925083870160005b828110156121db57603f198886030184526121c985835161207a565b945092850192908501906001016121ad565b5092979650505050505050565b6001600160a01b03811681146121fd57600080fd5b50565b6000806040838503121561221357600080fd5b823591506020830135612225816121e8565b809150509250929050565b634e487b7160e01b600052604160045260246000fd5b604051601f8201601f191681016001600160401b038111828210171561226e5761226e612230565b604052919050565b600082601f83011261228757600080fd5b813560206001600160401b038211156122a2576122a2612230565b8160051b6122b1828201612246565b92835284810182019282810190878511156122cb57600080fd5b83870192505b848310156110f0578235825291830191908301906122d1565b60006001600160401b0382111561230357612303612230565b50601f01601f191660200190565b600082601f83011261232257600080fd5b8135612335612330826122ea565b612246565b81815284602083860101111561234a57600080fd5b816020850160208301376000918101602001919091529392505050565b600080600080600060a0868803121561237f57600080fd5b853561238a816121e8565b9450602086013561239a816121e8565b935060408601356001600160401b03808211156123b657600080fd5b6123c289838a01612276565b945060608801359150808211156123d857600080fd5b6123e489838a01612276565b935060808801359150808211156123fa57600080fd5b5061240788828901612311565b9150509295509295909350565b600080600080600060a0868803121561242c57600080fd5b8535612437816121e8565b94506020860135612447816121e8565b9350604086013592506060860135915060808601356001600160401b0381111561247057600080fd5b61240788828901612311565b60006020828403121561248e57600080fd5b8135611b60816121e8565b80151581146121fd57600080fd5b6000602082840312156124b957600080fd5b8135611b6081612499565b634e487b7160e01b600052602160045260246000fd5b600381106124ea576124ea6124c4565b9052565b60006101008201905060018060a01b03808716835280861660208401528085511660408401528060208601511660608401525060408401516080830152606084015160a0830152608084015161254760c08401826124da565b508260e083015295945050505050565b60006020828403121561256957600080fd5b5051919050565b6000808335601e1984360301811261258757600080fd5b8301803591506001600160401b038211156125a157600080fd5b6020019150368190038213156125b657600080fd5b9250929050565b60008060008060008060c087890312156125d657600080fd5b86356125e1816121e8565b955060208701356125f1816121e8565b94506040870135612601816121e8565b9350606087013561261181612499565b92506080870135915060a08701356001600160401b0381111561263357600080fd5b61263f89828a01612311565b9150509295509295509295565b600281106124ea576124ea6124c4565b6020815281516020820152602082015160408201526000604083015160018060a01b038082166060850152806060860151166080850152505060808301516126a760a084018261264c565b5060a083015160c083015260c083015160e083015260e083015161010080818501525061170761012084018261207a565b60006126e6612330846122ea565b90508281528383830111156126fa57600080fd5b611b6083602083018461204e565b600082601f83011261271957600080fd5b611b60838351602085016126d8565b6000806000806080858703121561273e57600080fd5b84519350602085015192506040850151915060608501516001600160401b0381111561276957600080fd5b61277587828801612708565b91505092959194509250565b858152602081018590526001600160a01b038416604082015260a081016127ab60608301856124da565b8260808301529695505050505050565b6001600160a01b038781168252861660208201528415156040820152606081018490526080810183905260c060a082018190526000906127fd9083018461207a565b98975050505050505050565b634e487b7160e01b600052601160045260246000fd5b6000821982111561283257612832612809565b500190565b60008282101561284957612849612809565b500390565b6020815281516020820152602082015160408201526000604083015160018060a01b0380821660608501528060608601511660808501525050608083015161289a60a084018215159052565b5060a08301516128ad60c084018261264c565b5060c083015160e083015260e083015161010080818501525061170761012084018261207a565b6000806000606084860312156128e957600080fd5b835192506020840151915060408401516001600160401b0381111561290d57600080fd5b61291986828701612708565b9150509250925092565b6001600160a01b03878116825286811660208301528516604082015283151560608201526080810183905260c060a082018190526000906127fd9083018461207a565b634e487b7160e01b600052603260045260246000fd5b8183823760009101908152919050565b60006020828403121561299e57600080fd5b81516001600160401b038111156129b457600080fd5b8201601f810184136129c557600080fd5b611707848251602084016126d8565b60006000198214156129e8576129e8612809565b5060010190565b60008060008060008060c08789031215612a0857600080fd5b8635612a13816121e8565b95506020870135612a23816121e8565b94506040870135612a3381612499565b9350606087013592506080870135915060a08701356001600160401b0381111561263357600080fd5b60208152612a766020820183516001600160a01b03169052565b60006020830151612a9260408401826001600160a01b03169052565b5060408301516060830152606083015160808301526080830151612ac160a08401826001600160a01b03169052565b5060a08301516001600160a01b03811660c08401525060c08301516001600160a01b03811660e08401525060e08301516101008381019190915283015161012080840191909152830151610140808401919091528301516101608084015261170761018084018261207a565b600060208284031215612b3f57600080fd5b81516001600160401b03811115612b5557600080fd5b61170784828501612708565b60208152815160208201526020820151604082015260018060a01b0360408301511660608201526000606083015160048110612b9f57612b9f6124c4565b80608084015250608083015160a083015260a083015160c08084015261170760e084018261207a565b600060208284031215612bda57600080fd5b8151611b60816121e8565b600080600060608486031215612bfa57600080fd5b8351612c05816121e8565b6020850151909350612c16816121e8565b6040850151909250612c2781612499565b809150509250925092565b60008251612c4481846020870161204e565b9190910192915050565b600060208284031215612c6057600080fd5b8151611b6081612499565b634e487b7160e01b600052601260045260246000fd5b600082612c9057612c90612c6b565b500490565b600082612ca457612ca4612c6b565b50069056fea264697066735822122021e7f8b2e6344a951f0e3ee760753a4535642c5bc2d019ec711d3028077cb66164736f6c63430008080033",
  "linkReferences": {},
  "deployedLinkReferences": {}
}