{
  "_format": "hh-sol-artifact-1",
  "contractName": "TimeswapV2Periphery",
  "sourceName": "@timeswap-labs/v2-periphery/contracts/TimeswapV2Periphery.sol",
  "abi": [
    {
      "inputs": [
        {
          "internalType": "address",
          "name": "chosenOptionFactory",
          "type": "address"
        },
        {
          "internalType": "address",
          "name": "chosenPoolFactory",
          "type": "address"
        }
      ],
      "stateMutability": "nonpayable",
      "type": "constructor"
    },
    {
      "inputs": [
        {
          "internalType": "address",
          "name": "token0",
          "type": "address"
        },
        {
          "internalType": "address",
          "name": "token1",
          "type": "address"
        }
      ],
      "name": "RequireDeploymentOfOption",
      "type": "error"
    },
    {
      "inputs": [
        {
          "internalType": "address",
          "name": "token0",
          "type": "address"
        },
        {
          "internalType": "address",
          "name": "token1",
          "type": "address"
        }
      ],
      "name": "RequireDeploymentOfPool",
      "type": "error"
    },
    {
      "inputs": [],
      "name": "ZeroAddress",
      "type": "error"
    },
    {
      "inputs": [
        {
          "internalType": "address",
          "name": "token0",
          "type": "address"
        },
        {
          "internalType": "address",
          "name": "token1",
          "type": "address"
        }
      ],
      "name": "deployOption",
      "outputs": [
        {
          "internalType": "address",
          "name": "optionPair",
          "type": "address"
        }
      ],
      "stateMutability": "nonpayable",
      "type": "function"
    },
    {
      "inputs": [
        {
          "internalType": "address",
          "name": "token0",
          "type": "address"
        },
        {
          "internalType": "address",
          "name": "token1",
          "type": "address"
        }
      ],
      "name": "deployPool",
      "outputs": [
        {
          "internalType": "address",
          "name": "poolPair",
          "type": "address"
        }
      ],
      "stateMutability": "nonpayable",
      "type": "function"
    },
    {
      "inputs": [
        {
          "internalType": "address",
          "name": "token0",
          "type": "address"
        },
        {
          "internalType": "address",
          "name": "token1",
          "type": "address"
        }
      ],
      "name": "getOption",
      "outputs": [
        {
          "internalType": "address",
          "name": "optionPair",
          "type": "address"
        }
      ],
      "stateMutability": "view",
      "type": "function"
    },
    {
      "inputs": [
        {
          "internalType": "address",
          "name": "token0",
          "type": "address"
        },
        {
          "internalType": "address",
          "name": "token1",
          "type": "address"
        }
      ],
      "name": "getPool",
      "outputs": [
        {
          "internalType": "address",
          "name": "optionPair",
          "type": "address"
        },
        {
          "internalType": "address",
          "name": "poolPair",
          "type": "address"
        }
      ],
      "stateMutability": "view",
      "type": "function"
    },
    {
      "inputs": [],
      "name": "optionFactory",
      "outputs": [
        {
          "internalType": "address",
          "name": "",
          "type": "address"
        }
      ],
      "stateMutability": "view",
      "type": "function"
    },
    {
      "inputs": [],
      "name": "poolFactory",
      "outputs": [
        {
          "internalType": "address",
          "name": "",
          "type": "address"
        }
      ],
      "stateMutability": "view",
      "type": "function"
    }
  ],
  "bytecode": "0x60c060405234801561001057600080fd5b5060405161061638038061061683398101604081905261002f91610069565b6001600160601b0319606092831b8116608052911b1660a05261009c565b80516001600160a01b038116811461006457600080fd5b919050565b6000806040838503121561007c57600080fd5b6100858361004d565b91506100936020840161004d565b90509250929050565b60805160601c60a05160601c6105276100ef60003960008181606c0152818161016701526102c401526000818160f6015281816101460152818161019f015281816101f6015261027c01526105276000f3fe608060405234801561001057600080fd5b50600436106100625760003560e01c80634219dc4014610067578063531aa03e146100ab578063a704a18d146100de578063b3461c87146100f1578063b6abee8b14610118578063b962bf1f1461012b575b600080fd5b61008e7f000000000000000000000000000000000000000000000000000000000000000081565b6040516001600160a01b0390911681526020015b60405180910390f35b6100be6100b936600461049b565b61013e565b604080516001600160a01b039384168152929091166020830152016100a2565b61008e6100ec36600461049b565b610198565b61008e7f000000000000000000000000000000000000000000000000000000000000000081565b61008e61012636600461049b565b6101cc565b61008e61013936600461049b565b610274565b60008061018d7f00000000000000000000000000000000000000000000000000000000000000007f0000000000000000000000000000000000000000000000000000000000000000868661034a565b909590945092505050565b60006101c57f000000000000000000000000000000000000000000000000000000000000000084846103e9565b9392505050565b604051631f34340560e11b81526001600160a01b03838116600483015282811660248301526000917f000000000000000000000000000000000000000000000000000000000000000090911690633e68680a90604401602060405180830381600087803b15801561023c57600080fd5b505af1158015610250573d6000803e3d6000fd5b505050506040513d601f19601f820116820180604052508101906101c591906104d4565b6000806102a27f0000000000000000000000000000000000000000000000000000000000000000858561044a565b6040516313db266360e31b81526001600160a01b0380831660048301529192507f000000000000000000000000000000000000000000000000000000000000000090911690639ed9331890602401602060405180830381600087803b15801561030a57600080fd5b505af115801561031e573d6000803e3d6000fd5b505050506040513d601f19601f8201168201806040525081019061034291906104d4565b949350505050565b6000806103616001600160a01b03871685856103e9565b6040516330af0bbf60e21b81526001600160a01b0380831660048301529193509086169063c2bc2efc9060240160206040518083038186803b1580156103a657600080fd5b505afa1580156103ba573d6000803e3d6000fd5b505050506040513d601f19601f820116820180604052508101906103de91906104d4565b905094509492505050565b60405163d81e842360e01b81526001600160a01b03838116600483015282811660248301526000919085169063d81e84239060440160206040518083038186803b15801561043657600080fd5b505afa15801561031e573d6000803e3d6000fd5b60006104578484846103e9565b90506001600160a01b0381166101c5576101c560405163d92e233d60e01b815260040160405180910390fd5b6001600160a01b038116811461049857600080fd5b50565b600080604083850312156104ae57600080fd5b82356104b981610483565b915060208301356104c981610483565b809150509250929050565b6000602082840312156104e657600080fd5b81516101c58161048356fea264697066735822122066062913a1ac0cc13e3d918c4ad7b8019e75c3a08d9acfbf4612b43ef0438ba364736f6c63430008080033",
  "linkReferences": {},
  "deployedLinkReferences": {}
}