{
  "_format": "hh-sol-artifact-1",
  "contractName": "TimeswapV2PeripheryNoDexWithdraw",
  "sourceName": "@timeswap-labs/v2-periphery-nodex/src/TimeswapV2PeripheryNoDexWithdraw.sol",
  "abi": [
    {
      "inputs": [
        {
          "internalType": "address",
          "name": "chosenOptionFactory",
          "type": "address"
        },
        {
          "internalType": "address",
          "name": "chosenTokens",
          "type": "address"
        },
        {
          "internalType": "address",
          "name": "chosenNative",
          "type": "address"
        }
      ],
      "stateMutability": "nonpayable",
      "type": "constructor"
    },
    {
      "inputs": [
        {
          "internalType": "address",
          "name": "from",
          "type": "address"
        }
      ],
      "name": "CallerNotWrappedNative",
      "type": "error"
    },
    {
      "inputs": [
        {
          "internalType": "uint256",
          "name": "deadline",
          "type": "uint256"
        }
      ],
      "name": "DeadlineReached",
      "type": "error"
    },
    {
      "inputs": [
        {
          "internalType": "uint256",
          "name": "value",
          "type": "uint256"
        }
      ],
      "name": "InsufficientWrappedNative",
      "type": "error"
    },
    {
      "inputs": [
        {
          "internalType": "uint256",
          "name": "tokenAmount",
          "type": "uint256"
        },
        {
          "internalType": "uint256",
          "name": "minTokenAmount",
          "type": "uint256"
        }
      ],
      "name": "MinTokenReached",
      "type": "error"
    },
    {
      "inputs": [
        {
          "internalType": "string",
          "name": "revertString",
          "type": "string"
        }
      ],
      "name": "MulticallFailed",
      "type": "error"
    },
    {
      "inputs": [
        {
          "internalType": "address",
          "name": "to",
          "type": "address"
        },
        {
          "internalType": "uint256",
          "name": "value",
          "type": "uint256"
        }
      ],
      "name": "NativeTransferFailed",
      "type": "error"
    },
    {
      "inputs": [],
      "name": "ZeroAddress",
      "type": "error"
    },
    {
      "anonymous": false,
      "inputs": [
        {
          "indexed": true,
          "internalType": "address",
          "name": "token0",
          "type": "address"
        },
        {
          "indexed": true,
          "internalType": "address",
          "name": "token1",
          "type": "address"
        },
        {
          "indexed": false,
          "internalType": "uint256",
          "name": "strike",
          "type": "uint256"
        },
        {
          "indexed": true,
          "internalType": "uint256",
          "name": "maturity",
          "type": "uint256"
        },
        {
          "indexed": false,
          "internalType": "address",
          "name": "to",
          "type": "address"
        },
        {
          "indexed": false,
          "internalType": "uint256",
          "name": "token0Amount",
          "type": "uint256"
        },
        {
          "indexed": false,
          "internalType": "uint256",
          "name": "token1Amount",
          "type": "uint256"
        },
        {
          "indexed": false,
          "internalType": "uint256",
          "name": "positionAmount",
          "type": "uint256"
        }
      ],
      "name": "Withdraw",
      "type": "event"
    },
    {
      "inputs": [
        {
          "internalType": "bytes[]",
          "name": "data",
          "type": "bytes[]"
        }
      ],
      "name": "multicall",
      "outputs": [
        {
          "internalType": "bytes[]",
          "name": "results",
          "type": "bytes[]"
        }
      ],
      "stateMutability": "payable",
      "type": "function"
    },
    {
      "inputs": [
        {
          "internalType": "address",
          "name": "",
          "type": "address"
        },
        {
          "internalType": "address",
          "name": "",
          "type": "address"
        },
        {
          "internalType": "uint256[]",
          "name": "",
          "type": "uint256[]"
        },
        {
          "internalType": "uint256[]",
          "name": "",
          "type": "uint256[]"
        },
        {
          "internalType": "bytes",
          "name": "",
          "type": "bytes"
        }
      ],
      "name": "onERC1155BatchReceived",
      "outputs": [
        {
          "internalType": "bytes4",
          "name": "",
          "type": "bytes4"
        }
      ],
      "stateMutability": "pure",
      "type": "function"
    },
    {
      "inputs": [
        {
          "internalType": "address",
          "name": "operator",
          "type": "address"
        },
        {
          "internalType": "address",
          "name": "",
          "type": "address"
        },
        {
          "internalType": "uint256",
          "name": "",
          "type": "uint256"
        },
        {
          "internalType": "uint256",
          "name": "",
          "type": "uint256"
        },
        {
          "internalType": "bytes",
          "name": "",
          "type": "bytes"
        }
      ],
      "name": "onERC1155Received",
      "outputs": [
        {
          "internalType": "bytes4",
          "name": "",
          "type": "bytes4"
        }
      ],
      "stateMutability": "view",
      "type": "function"
    },
    {
      "inputs": [],
      "name": "optionFactory",
      "outputs": [
        {
          "internalType": "address",
          "name": "",
          "type": "address"
        }
      ],
      "stateMutability": "view",
      "type": "function"
    },
    {
      "inputs": [
        {
          "internalType": "bytes4",
          "name": "interfaceId",
          "type": "bytes4"
        }
      ],
      "name": "supportsInterface",
      "outputs": [
        {
          "internalType": "bool",
          "name": "",
          "type": "bool"
        }
      ],
      "stateMutability": "view",
      "type": "function"
    },
    {
      "inputs": [],
      "name": "tokens",
      "outputs": [
        {
          "internalType": "address",
          "name": "",
          "type": "address"
        }
      ],
      "stateMutability": "view",
      "type": "function"
    },
    {
      "inputs": [
        {
          "internalType": "uint256",
          "name": "amountMinimum",
          "type": "uint256"
        },
        {
          "internalType": "address",
          "name": "recipient",
          "type": "address"
        }
      ],
      "name": "unwrapWrappedNatives",
      "outputs": [],
      "stateMutability": "payable",
      "type": "function"
    },
    {
      "inputs": [
        {
          "components": [
            {
              "internalType": "address",
              "name": "token0",
              "type": "address"
            },
            {
              "internalType": "address",
              "name": "token1",
              "type": "address"
            },
            {
              "internalType": "uint256",
              "name": "strike",
              "type": "uint256"
            },
            {
              "internalType": "uint256",
              "name": "maturity",
              "type": "uint256"
            },
            {
              "internalType": "address",
              "name": "to",
              "type": "address"
            },
            {
              "internalType": "uint256",
              "name": "positionAmount",
              "type": "uint256"
            },
            {
              "internalType": "uint256",
              "name": "minToken0Amount",
              "type": "uint256"
            },
            {
              "internalType": "uint256",
              "name": "minToken1Amount",
              "type": "uint256"
            },
            {
              "internalType": "uint256",
              "name": "deadline",
              "type": "uint256"
            }
          ],
          "internalType": "struct TimeswapV2PeripheryNoDexWithdrawParam",
          "name": "param",
          "type": "tuple"
        }
      ],
      "name": "withdraw",
      "outputs": [
        {
          "internalType": "uint256",
          "name": "token0Amount",
          "type": "uint256"
        },
        {
          "internalType": "uint256",
          "name": "token1Amount",
          "type": "uint256"
        }
      ],
      "stateMutability": "nonpayable",
      "type": "function"
    },
    {
      "inputs": [],
      "name": "wrappedNativeToken",
      "outputs": [
        {
          "internalType": "address",
          "name": "",
          "type": "address"
        }
      ],
      "stateMutability": "view",
      "type": "function"
    },
    {
      "stateMutability": "payable",
      "type": "receive"
    }
  ],
  "bytecode": "0x60e06040523480156200001157600080fd5b506040516200165b3803806200165b833981016040819052620000349162000079565b6001600160601b0319606093841b811660805291831b821660a05290911b1660c052620000c3565b80516001600160a01b03811681146200007457600080fd5b919050565b6000806000606084860312156200008f57600080fd5b6200009a846200005c565b9250620000aa602085016200005c565b9150620000ba604085016200005c565b90509250925092565b60805160601c60a05160601c60c05160601c6115366200012560003960008181609a0152818161012d0152818161074401526108080152600081816101ae015281816102e7015261090701526000818161020201526108d501526115366000f3fe60806040526004361061008a5760003560e01c8063ac9650d811610059578063ac9650d8146101d0578063b3461c87146101f0578063b7f68a0e14610224578063bc197c8114610237578063f23a6e611461027057600080fd5b806301ffc9a7146100e657806317fcb39b1461011b578063964951e0146101675780639d63848a1461019c57600080fd5b366100e157336001600160a01b037f000000000000000000000000000000000000000000000000000000000000000016146100df5760405163631b2c4f60e11b81523360048201526024015b60405180910390fd5b005b600080fd5b3480156100f257600080fd5b50610106610101366004610cbf565b610290565b60405190151581526020015b60405180910390f35b34801561012757600080fd5b5061014f7f000000000000000000000000000000000000000000000000000000000000000081565b6040516001600160a01b039091168152602001610112565b34801561017357600080fd5b50610187610182366004610ce9565b6102c7565b60408051928352602083019190915201610112565b3480156101a857600080fd5b5061014f7f000000000000000000000000000000000000000000000000000000000000000081565b6101e36101de366004610d02565b61059e565b6040516101129190610dd3565b3480156101fc57600080fd5b5061014f7f000000000000000000000000000000000000000000000000000000000000000081565b6100df610232366004610e4d565b61072c565b34801561024357600080fd5b50610257610252366004610fc2565b61087b565b6040516001600160e01b03199091168152602001610112565b34801561027c57600080fd5b5061025761028b366004611070565b610887565b60006001600160e01b03198216630271189760e51b14806102c157506301ffc9a760e01b6001600160e01b03198316145b92915050565b6000804283610100013510156102e5576102e58361010001356108af565b7f00000000000000000000000000000000000000000000000000000000000000006001600160a01b0316635c9b728233306040518060a0016040528088600001602081019061033491906110d9565b6001600160a01b0316815260200188602001602081019061035591906110d9565b6001600160a01b031681526020018860400135815260200188606001358152602001600280811115610389576103896110f6565b8152508760a001356040518563ffffffff1660e01b81526004016103b0949392919061112a565b600060405180830381600087803b1580156103ca57600080fd5b505af11580156103de573d6000803e3d6000fd5b50506040805160e0810190915261048f925090508061040060208701876110d9565b6001600160a01b0316815260200185602001602081019061042191906110d9565b6001600160a01b03168152602001856040013581526020018560600135815260200185608001602081019061045691906110d9565b6001600160a01b0316815260200161047460a08701608088016110d9565b6001600160a01b031681526020018560a001358152506108cb565b909250905060c08301358210156104c6576040516312bc00e560e11b81526004810183905260c084013560248201526044016100d6565b8260e001358110156104f8576040516312bc00e560e11b81526004810182905260e084013560248201526044016100d6565b606083013561050d60408501602086016110d9565b6001600160a01b031661052360208601866110d9565b6001600160a01b03167fb35d2cf8d01f7bf28a86cd8b97cfc561e2e58cf50215299ebe1cc430308662bd604087013561056260a0890160808a016110d9565b604080519283526001600160a01b03909116602083015281018790526060810186905260a08089013560808301520160405180910390a4915091565b60608167ffffffffffffffff8111156105b9576105b9610e7d565b6040519080825280602002602001820160405280156105ec57816020015b60608152602001906001900390816105d75790505b50905060005b82811015610725576000803086868581811061061057610610611194565b905060200281019061062291906111aa565b6040516106309291906111f8565b600060405180830381855af49150503d806000811461066b576040519150601f19603f3d011682016040523d82523d6000602084013e610670565b606091505b5091509150816106f2576044815110156106be57604051635d2f436f60e11b815260206004820152600e60248201526d125b9d985b1a590814995cdd5b1d60921b60448201526064016100d6565b600481019050808060200190518101906106d89190611238565b604051635d2f436f60e11b81526004016100d69190611281565b8084848151811061070557610705611194565b60200260200101819052505050808061071d90611294565b9150506105f2565b5092915050565b6040516370a0823160e01b81523060048201526000907f00000000000000000000000000000000000000000000000000000000000000006001600160a01b0316906370a082319060240160206040518083038186803b15801561078e57600080fd5b505afa1580156107a2573d6000803e3d6000fd5b505050506040513d601f19601f820116820180604052508101906107c691906112bd565b9050828110156107ec57604051636b8c4dab60e01b8152600481018290526024016100d6565b801561087657604051632e1a7d4d60e01b8152600481018290527f00000000000000000000000000000000000000000000000000000000000000006001600160a01b031690632e1a7d4d90602401600060405180830381600087803b15801561085457600080fd5b505af1158015610868573d6000803e3d6000fd5b505050506108768282610b4d565b505050565b60005b95945050505050565b60006001600160a01b03861630146108a15750600061087e565b5063f23a6e6160e01b61087e565b60405163070b57d960e41b8152600481018290526024016100d6565b60008060006109037f000000000000000000000000000000000000000000000000000000000000000085600001518660200151610bed565b90507f00000000000000000000000000000000000000000000000000000000000000006001600160a01b031663a38d7a1760405180610160016040528087600001516001600160a01b0316815260200187602001516001600160a01b031681526020018760400151815260200187606001518152602001306001600160a01b03168152602001306001600160a01b03168152602001306001600160a01b0316815260200160008152602001600081526020018760c001518152602001604051806020016040528060008152508152506040518263ffffffff1660e01b81526004016109ee91906112d6565b600060405180830381600087803b158015610a0857600080fd5b505af1158015610a1c573d6000803e3d6000fd5b505050506040513d6000823e601f3d908101601f19168201604052610a4491908101906113c7565b50806001600160a01b0316637087c1f66040518060e00160405280876040015181526020018760600151815260200187608001516001600160a01b031681526020018760a001516001600160a01b0316815260200160006002811115610aac57610aac6110f6565b81526020018760c001518152602001604051806020016040528060008152508152506040518263ffffffff1660e01b8152600401610aea91906113fc565b600060405180830381600087803b158015610b0457600080fd5b505af1158015610b18573d6000803e3d6000fd5b505050506040513d6000823e601f3d908101601f19168201604052610b40919081019061146d565b5091969095509350505050565b604080516000808252602082019092526001600160a01b038416908390604051610b7791906114c7565b60006040518083038185875af1925050503d8060008114610bb4576040519150601f19603f3d011682016040523d82523d6000602084013e610bb9565b606091505b50509050806108765760405163296c17bb60e21b81526001600160a01b0384166004820152602481018390526044016100d6565b6000610bfa848484610c19565b90506001600160a01b038116610c1257610c12610ca6565b9392505050565b60405163d81e842360e01b81526001600160a01b03838116600483015282811660248301526000919085169063d81e84239060440160206040518083038186803b158015610c6657600080fd5b505afa158015610c7a573d6000803e3d6000fd5b505050506040513d601f19601f82011682018060405250810190610c9e91906114e3565b949350505050565b60405163d92e233d60e01b815260040160405180910390fd5b600060208284031215610cd157600080fd5b81356001600160e01b031981168114610c1257600080fd5b60006101208284031215610cfc57600080fd5b50919050565b60008060208385031215610d1557600080fd5b823567ffffffffffffffff80821115610d2d57600080fd5b818501915085601f830112610d4157600080fd5b813581811115610d5057600080fd5b8660208260051b8501011115610d6557600080fd5b60209290920196919550909350505050565b60005b83811015610d92578181015183820152602001610d7a565b83811115610da1576000848401525b50505050565b60008151808452610dbf816020860160208601610d77565b601f01601f19169290920160200192915050565b6000602080830181845280855180835260408601915060408160051b870101925083870160005b82811015610e2857603f19888603018452610e16858351610da7565b94509285019290850190600101610dfa565b5092979650505050505050565b6001600160a01b0381168114610e4a57600080fd5b50565b60008060408385031215610e6057600080fd5b823591506020830135610e7281610e35565b809150509250929050565b634e487b7160e01b600052604160045260246000fd5b604051601f8201601f1916810167ffffffffffffffff81118282101715610ebc57610ebc610e7d565b604052919050565b600082601f830112610ed557600080fd5b8135602067ffffffffffffffff821115610ef157610ef1610e7d565b8160051b610f00828201610e93565b9283528481018201928281019087851115610f1a57600080fd5b83870192505b84831015610f3957823582529183019190830190610f20565b979650505050505050565b600067ffffffffffffffff821115610f5e57610f5e610e7d565b50601f01601f191660200190565b600082601f830112610f7d57600080fd5b8135610f90610f8b82610f44565b610e93565b818152846020838601011115610fa557600080fd5b816020850160208301376000918101602001919091529392505050565b600080600080600060a08688031215610fda57600080fd5b8535610fe581610e35565b94506020860135610ff581610e35565b9350604086013567ffffffffffffffff8082111561101257600080fd5b61101e89838a01610ec4565b9450606088013591508082111561103457600080fd5b61104089838a01610ec4565b9350608088013591508082111561105657600080fd5b5061106388828901610f6c565b9150509295509295909350565b600080600080600060a0868803121561108857600080fd5b853561109381610e35565b945060208601356110a381610e35565b93506040860135925060608601359150608086013567ffffffffffffffff8111156110cd57600080fd5b61106388828901610f6c565b6000602082840312156110eb57600080fd5b8135610c1281610e35565b634e487b7160e01b600052602160045260246000fd5b60038110610e4a57634e487b7160e01b600052602160045260246000fd5b60006101008201905060018060a01b03808716835280861660208401528085511660408401528060208601511660608401525060408401516080830152606084015160a0830152608084015161117f8161110c565b60c083015260e0909101919091529392505050565b634e487b7160e01b600052603260045260246000fd5b6000808335601e198436030181126111c157600080fd5b83018035915067ffffffffffffffff8211156111dc57600080fd5b6020019150368190038213156111f157600080fd5b9250929050565b8183823760009101908152919050565b6000611216610f8b84610f44565b905082815283838301111561122a57600080fd5b610c12836020830184610d77565b60006020828403121561124a57600080fd5b815167ffffffffffffffff81111561126157600080fd5b8201601f8101841361127257600080fd5b610c9e84825160208401611208565b602081526000610c126020830184610da7565b60006000198214156112b657634e487b7160e01b600052601160045260246000fd5b5060010190565b6000602082840312156112cf57600080fd5b5051919050565b602081526112f06020820183516001600160a01b03169052565b6000602083015161130c60408401826001600160a01b03169052565b506040830151606083015260608301516080830152608083015161133b60a08401826001600160a01b03169052565b5060a08301516001600160a01b03811660c08401525060c08301516001600160a01b03811660e08401525060e083015161010083810191909152830151610120808401919091528301516101408084019190915283015161016080840152610c9e610180840182610da7565b600082601f8301126113b857600080fd5b610c1283835160208501611208565b6000602082840312156113d957600080fd5b815167ffffffffffffffff8111156113f057600080fd5b610c9e848285016113a7565b6020815281516020820152602082015160408201526000604083015160018060a01b038082166060850152806060860151166080850152505060808301516114438161110c565b8060a08401525060a083015160c083015260c083015160e080840152610c9e610100840182610da7565b6000806000806080858703121561148357600080fd5b845193506020850151925060408501519150606085015167ffffffffffffffff8111156114af57600080fd5b6114bb878288016113a7565b91505092959194509250565b600082516114d9818460208701610d77565b9190910192915050565b6000602082840312156114f557600080fd5b8151610c1281610e3556fea26469706673582212205daabd03295440944065a97a246db50173b254ede9f2cc77bc843cc1b0a8f69464736f6c63430008080033",
  "linkReferences": {},
  "deployedLinkReferences": {}
}