{
  "_format": "hh-sol-artifact-1",
  "contractName": "TimeswapV2PeripheryNoDexCloseLendGivenPosition",
  "sourceName": "@timeswap-labs/v2-periphery-nodex/src/TimeswapV2PeripheryNoDexCloseLendGivenPosition.sol",
  "abi": [
    {
      "inputs": [
        {
          "internalType": "address",
          "name": "chosenOptionFactory",
          "type": "address"
        },
        {
          "internalType": "address",
          "name": "chosenPoolFactory",
          "type": "address"
        },
        {
          "internalType": "address",
          "name": "chosenTokens",
          "type": "address"
        },
        {
          "internalType": "address",
          "name": "chosenNative",
          "type": "address"
        }
      ],
      "stateMutability": "nonpayable",
      "type": "constructor"
    },
    {
      "inputs": [
        {
          "internalType": "address",
          "name": "from",
          "type": "address"
        }
      ],
      "name": "CallerNotWrappedNative",
      "type": "error"
    },
    {
      "inputs": [],
      "name": "CanOnlyBeCalledByPoolContract",
      "type": "error"
    },
    {
      "inputs": [
        {
          "internalType": "uint256",
          "name": "deadline",
          "type": "uint256"
        }
      ],
      "name": "DeadlineReached",
      "type": "error"
    },
    {
      "inputs": [
        {
          "internalType": "uint256",
          "name": "value",
          "type": "uint256"
        }
      ],
      "name": "InsufficientWrappedNative",
      "type": "error"
    },
    {
      "inputs": [
        {
          "internalType": "uint256",
          "name": "tokenAmount",
          "type": "uint256"
        },
        {
          "internalType": "uint256",
          "name": "minTokenAmount",
          "type": "uint256"
        }
      ],
      "name": "MinTokenReached",
      "type": "error"
    },
    {
      "inputs": [
        {
          "internalType": "uint256",
          "name": "multiplicand",
          "type": "uint256"
        },
        {
          "internalType": "uint256",
          "name": "multiplier",
          "type": "uint256"
        },
        {
          "internalType": "uint256",
          "name": "divisor",
          "type": "uint256"
        }
      ],
      "name": "MulDivOverflow",
      "type": "error"
    },
    {
      "inputs": [
        {
          "internalType": "string",
          "name": "revertString",
          "type": "string"
        }
      ],
      "name": "MulticallFailed",
      "type": "error"
    },
    {
      "inputs": [
        {
          "internalType": "address",
          "name": "to",
          "type": "address"
        },
        {
          "internalType": "uint256",
          "name": "value",
          "type": "uint256"
        }
      ],
      "name": "NativeTransferFailed",
      "type": "error"
    },
    {
      "inputs": [],
      "name": "ZeroAddress",
      "type": "error"
    },
    {
      "anonymous": false,
      "inputs": [
        {
          "indexed": true,
          "internalType": "address",
          "name": "token0",
          "type": "address"
        },
        {
          "indexed": true,
          "internalType": "address",
          "name": "token1",
          "type": "address"
        },
        {
          "indexed": false,
          "internalType": "uint256",
          "name": "strike",
          "type": "uint256"
        },
        {
          "indexed": true,
          "internalType": "uint256",
          "name": "maturity",
          "type": "uint256"
        },
        {
          "indexed": false,
          "internalType": "address",
          "name": "from",
          "type": "address"
        },
        {
          "indexed": false,
          "internalType": "address",
          "name": "to",
          "type": "address"
        },
        {
          "indexed": false,
          "internalType": "uint256",
          "name": "token0Amount",
          "type": "uint256"
        },
        {
          "indexed": false,
          "internalType": "uint256",
          "name": "token1Amount",
          "type": "uint256"
        },
        {
          "indexed": false,
          "internalType": "uint256",
          "name": "positionAmount",
          "type": "uint256"
        }
      ],
      "name": "CloseLendGivenPosition",
      "type": "event"
    },
    {
      "inputs": [
        {
          "components": [
            {
              "internalType": "address",
              "name": "token0",
              "type": "address"
            },
            {
              "internalType": "address",
              "name": "token1",
              "type": "address"
            },
            {
              "internalType": "uint256",
              "name": "strike",
              "type": "uint256"
            },
            {
              "internalType": "uint256",
              "name": "maturity",
              "type": "uint256"
            },
            {
              "internalType": "address",
              "name": "to",
              "type": "address"
            },
            {
              "internalType": "bool",
              "name": "isToken0",
              "type": "bool"
            },
            {
              "internalType": "uint256",
              "name": "positionAmount",
              "type": "uint256"
            },
            {
              "internalType": "uint256",
              "name": "minToken0Amount",
              "type": "uint256"
            },
            {
              "internalType": "uint256",
              "name": "minToken1Amount",
              "type": "uint256"
            },
            {
              "internalType": "uint256",
              "name": "deadline",
              "type": "uint256"
            }
          ],
          "internalType": "struct TimeswapV2PeripheryNoDexCloseLendGivenPositionParam",
          "name": "param",
          "type": "tuple"
        }
      ],
      "name": "closeLendGivenPosition",
      "outputs": [
        {
          "internalType": "uint256",
          "name": "token0Amount",
          "type": "uint256"
        },
        {
          "internalType": "uint256",
          "name": "token1Amount",
          "type": "uint256"
        }
      ],
      "stateMutability": "nonpayable",
      "type": "function"
    },
    {
      "inputs": [
        {
          "internalType": "bytes[]",
          "name": "data",
          "type": "bytes[]"
        }
      ],
      "name": "multicall",
      "outputs": [
        {
          "internalType": "bytes[]",
          "name": "results",
          "type": "bytes[]"
        }
      ],
      "stateMutability": "payable",
      "type": "function"
    },
    {
      "inputs": [
        {
          "internalType": "address",
          "name": "",
          "type": "address"
        },
        {
          "internalType": "address",
          "name": "",
          "type": "address"
        },
        {
          "internalType": "uint256[]",
          "name": "",
          "type": "uint256[]"
        },
        {
          "internalType": "uint256[]",
          "name": "",
          "type": "uint256[]"
        },
        {
          "internalType": "bytes",
          "name": "",
          "type": "bytes"
        }
      ],
      "name": "onERC1155BatchReceived",
      "outputs": [
        {
          "internalType": "bytes4",
          "name": "",
          "type": "bytes4"
        }
      ],
      "stateMutability": "pure",
      "type": "function"
    },
    {
      "inputs": [
        {
          "internalType": "address",
          "name": "operator",
          "type": "address"
        },
        {
          "internalType": "address",
          "name": "",
          "type": "address"
        },
        {
          "internalType": "uint256",
          "name": "",
          "type": "uint256"
        },
        {
          "internalType": "uint256",
          "name": "",
          "type": "uint256"
        },
        {
          "internalType": "bytes",
          "name": "",
          "type": "bytes"
        }
      ],
      "name": "onERC1155Received",
      "outputs": [
        {
          "internalType": "bytes4",
          "name": "",
          "type": "bytes4"
        }
      ],
      "stateMutability": "view",
      "type": "function"
    },
    {
      "inputs": [],
      "name": "optionFactory",
      "outputs": [
        {
          "internalType": "address",
          "name": "",
          "type": "address"
        }
      ],
      "stateMutability": "view",
      "type": "function"
    },
    {
      "inputs": [],
      "name": "poolFactory",
      "outputs": [
        {
          "internalType": "address",
          "name": "",
          "type": "address"
        }
      ],
      "stateMutability": "view",
      "type": "function"
    },
    {
      "inputs": [],
      "name": "refundNatives",
      "outputs": [],
      "stateMutability": "payable",
      "type": "function"
    },
    {
      "inputs": [
        {
          "internalType": "bytes4",
          "name": "interfaceId",
          "type": "bytes4"
        }
      ],
      "name": "supportsInterface",
      "outputs": [
        {
          "internalType": "bool",
          "name": "",
          "type": "bool"
        }
      ],
      "stateMutability": "view",
      "type": "function"
    },
    {
      "inputs": [
        {
          "components": [
            {
              "internalType": "uint256",
              "name": "strike",
              "type": "uint256"
            },
            {
              "internalType": "uint256",
              "name": "maturity",
              "type": "uint256"
            },
            {
              "internalType": "uint256",
              "name": "long0Amount",
              "type": "uint256"
            },
            {
              "internalType": "uint256",
              "name": "long1Amount",
              "type": "uint256"
            },
            {
              "internalType": "uint256",
              "name": "shortAmount",
              "type": "uint256"
            },
            {
              "internalType": "bytes",
              "name": "data",
              "type": "bytes"
            }
          ],
          "internalType": "struct TimeswapV2PoolLeverageCallbackParam",
          "name": "param",
          "type": "tuple"
        }
      ],
      "name": "timeswapV2PoolLeverageCallback",
      "outputs": [
        {
          "internalType": "bytes",
          "name": "data",
          "type": "bytes"
        }
      ],
      "stateMutability": "nonpayable",
      "type": "function"
    },
    {
      "inputs": [
        {
          "components": [
            {
              "internalType": "uint256",
              "name": "strike",
              "type": "uint256"
            },
            {
              "internalType": "uint256",
              "name": "maturity",
              "type": "uint256"
            },
            {
              "internalType": "uint256",
              "name": "long0Balance",
              "type": "uint256"
            },
            {
              "internalType": "uint256",
              "name": "long1Balance",
              "type": "uint256"
            },
            {
              "internalType": "uint256",
              "name": "longAmount",
              "type": "uint256"
            },
            {
              "internalType": "uint256",
              "name": "shortAmount",
              "type": "uint256"
            },
            {
              "internalType": "bytes",
              "name": "data",
              "type": "bytes"
            }
          ],
          "internalType": "struct TimeswapV2PoolLeverageChoiceCallbackParam",
          "name": "param",
          "type": "tuple"
        }
      ],
      "name": "timeswapV2PoolLeverageChoiceCallback",
      "outputs": [
        {
          "internalType": "uint256",
          "name": "long0Amount",
          "type": "uint256"
        },
        {
          "internalType": "uint256",
          "name": "long1Amount",
          "type": "uint256"
        },
        {
          "internalType": "bytes",
          "name": "data",
          "type": "bytes"
        }
      ],
      "stateMutability": "nonpayable",
      "type": "function"
    },
    {
      "inputs": [],
      "name": "tokens",
      "outputs": [
        {
          "internalType": "address",
          "name": "",
          "type": "address"
        }
      ],
      "stateMutability": "view",
      "type": "function"
    },
    {
      "inputs": [
        {
          "internalType": "uint256",
          "name": "amountMinimum",
          "type": "uint256"
        },
        {
          "internalType": "address",
          "name": "recipient",
          "type": "address"
        }
      ],
      "name": "unwrapWrappedNatives",
      "outputs": [],
      "stateMutability": "payable",
      "type": "function"
    },
    {
      "inputs": [],
      "name": "wrappedNativeToken",
      "outputs": [
        {
          "internalType": "address",
          "name": "",
          "type": "address"
        }
      ],
      "stateMutability": "view",
      "type": "function"
    },
    {
      "stateMutability": "payable",
      "type": "receive"
    }
  ],
  "bytecode": "0x6101006040523480156200001257600080fd5b50604051620022fe380380620022fe833981016040819052620000359162000082565b6001600160601b0319606094851b811660805292841b831660a05290831b821660c05290911b1660e052620000df565b80516001600160a01b03811681146200007d57600080fd5b919050565b600080600080608085870312156200009957600080fd5b620000a48562000065565b9350620000b46020860162000065565b9250620000c46040860162000065565b9150620000d46060860162000065565b905092959194509250565b60805160601c60a05160601c60c05160601c60e05160601c61218d620001716000396000818160d60152818161016901528181610b310152610bf501526000818161027a015281816106e80152610f190152600081816101b5015281816103f30152818161051a0152610ee60152600081816102ce015281816103d2015281816104f90152610ec5015261218d6000f3fe6080604052600436106100c65760003560e01c80639d63848a1161007f578063b7f68a0e11610059578063b7f68a0e146102f0578063bc197c8114610303578063dfef25d81461033c578063f23a6e611461034457600080fd5b80639d63848a14610268578063ac9650d81461029c578063b3461c87146102bc57600080fd5b806301ffc9a71461012257806317fcb39b146101575780634219dc40146101a3578063797481d0146101d75780638662fa6a146102065780638914d6551461023357600080fd5b3661011d57336001600160a01b037f0000000000000000000000000000000000000000000000000000000000000000161461011b5760405163631b2c4f60e11b81523360048201526024015b60405180910390fd5b005b600080fd5b34801561012e57600080fd5b5061014261013d3660046115b7565b610364565b60405190151581526020015b60405180910390f35b34801561016357600080fd5b5061018b7f000000000000000000000000000000000000000000000000000000000000000081565b6040516001600160a01b03909116815260200161014e565b3480156101af57600080fd5b5061018b7f000000000000000000000000000000000000000000000000000000000000000081565b3480156101e357600080fd5b506101f76101f23660046115e1565b61039b565b60405161014e93929190611677565b34801561021257600080fd5b50610226610221366004611696565b6104c2565b60405161014e91906116d0565b34801561023f57600080fd5b5061025361024e366004611793565b6106c8565b6040805192835260208301919091520161014e565b34801561027457600080fd5b5061018b7f000000000000000000000000000000000000000000000000000000000000000081565b6102af6102aa366004611833565b61098c565b60405161014e91906118a7565b3480156102c857600080fd5b5061018b7f000000000000000000000000000000000000000000000000000000000000000081565b61011b6102fe366004611909565b610b19565b34801561030f57600080fd5b5061032361031e366004611a35565b610c68565b6040516001600160e01b0319909116815260200161014e565b61011b610c74565b34801561035057600080fd5b5061032361035f366004611ae2565b610c86565b60006001600160e01b03198216630271189760e51b148061039557506301ffc9a760e01b6001600160e01b03198316145b92915050565b600080606081808080806103b260c08a018a611b4a565b8101906103bf9190611b97565b9a509398509196509450925090506104197f00000000000000000000000000000000000000000000000000000000000000007f00000000000000000000000000000000000000000000000000000000000000008787610cae565b50610482604051806101000160405280876001600160a01b03168152602001866001600160a01b031681526020018b6000013581526020018b6020013581526020018b6040013581526020018b6060013581526020018b60800135815260200188815250610de6565b604051929a5090985096506104a590869086908690869086908c90602001611c26565b604051602081830303815290604052955050505050509193909250565b60606000808080806104d760a0880188611b4a565b8101906104e49190611b97565b9a5093985091965094509250905060006105407f00000000000000000000000000000000000000000000000000000000000000007f00000000000000000000000000000000000000000000000000000000000000008888610cae565b90506000816001600160a01b031663622fb68f6040518061010001604052808c6000013581526020018c602001358152602001886001600160a01b03168152602001876001600160a01b03168152602001600060018111156105a4576105a4611c75565b81526020018c6040013581526020018c606001358152602001604051806020016040528060008152508152506040518263ffffffff1660e01b81526004016105ec9190611c9f565b600060405180830381600087803b15801561060657600080fd5b505af115801561061a573d6000803e3d6000fd5b505050506040513d6000823e601f3d908101601f191682016040526106429190810190611d6b565b50925050506001600160a01b03821663b2ceca778a3560208c013533600261066a878a611dda565b6040518663ffffffff1660e01b815260040161068a959493929190611e01565b600060405180830381600087803b1580156106a457600080fd5b505af11580156106b8573d6000803e3d6000fd5b5050505050505050505050919050565b6000804283610120015110156106e6576106e6836101200151610e9d565b7f00000000000000000000000000000000000000000000000000000000000000006001600160a01b0316635c9b728233306040518060a0016040528088600001516001600160a01b0316815260200188602001516001600160a01b03168152602001886040015181526020018860600151815260200160028081111561076e5761076e611c75565b8152508760c001516040518563ffffffff1660e01b81526004016107959493929190611e3b565b600060405180830381600087803b1580156107af57600080fd5b505af11580156107c3573d6000803e3d6000fd5b5050505060008360a001516040516020016107e2911515815260200190565b604051602081830303815290604052905061087560405180610100016040528086600001516001600160a01b0316815260200186602001516001600160a01b03168152602001866040015181526020018660600151815260200186608001516001600160a01b0316815260200186608001516001600160a01b031681526020018660c00151815260200183815250610eb9565b60e087015192955090935091508310156108b25760e08401516040516312bc00e560e11b8152610112918591600401918252602082015260400190565b8361010001518210156108e9576101008401516040516312bc00e560e11b8152610112918491600401918252602082015260400190565b836060015184602001516001600160a01b031685600001516001600160a01b03167fcd785f8093524f6ef1cb8c67d86df9f0cc1ba15e37050acfae8f286e2a22ce67876040015133896080015189898c60c0015160405161097e969594939291909586526001600160a01b0394851660208701529290931660408501526060840152608083019190915260a082015260c00190565b60405180910390a450915091565b6060816001600160401b038111156109a6576109a66116e3565b6040519080825280602002602001820160405280156109d957816020015b60608152602001906001900390816109c45790505b50905060005b82811015610b1257600080308686858181106109fd576109fd611ea4565b9050602002810190610a0f9190611b4a565b604051610a1d929190611eba565b600060405180830381855af49150503d8060008114610a58576040519150601f19603f3d011682016040523d82523d6000602084013e610a5d565b606091505b509150915081610adf57604481511015610aab57604051635d2f436f60e11b815260206004820152600e60248201526d125b9d985b1a590814995cdd5b1d60921b6044820152606401610112565b60048101905080806020019051810190610ac59190611eca565b604051635d2f436f60e11b815260040161011291906116d0565b80848481518110610af257610af2611ea4565b602002602001018190525050508080610b0a90611f12565b9150506109df565b5092915050565b6040516370a0823160e01b81523060048201526000907f00000000000000000000000000000000000000000000000000000000000000006001600160a01b0316906370a082319060240160206040518083038186803b158015610b7b57600080fd5b505afa158015610b8f573d6000803e3d6000fd5b505050506040513d601f19601f82011682018060405250810190610bb39190611f2d565b905082811015610bd957604051636b8c4dab60e01b815260048101829052602401610112565b8015610c6357604051632e1a7d4d60e01b8152600481018290527f00000000000000000000000000000000000000000000000000000000000000006001600160a01b031690632e1a7d4d90602401600060405180830381600087803b158015610c4157600080fd5b505af1158015610c55573d6000803e3d6000fd5b50505050610c638282611159565b505050565b60005b95945050505050565b4715610c8457610c843347611159565b565b60006001600160a01b0386163014610ca057506000610c6b565b5063f23a6e6160e01b610c6b565b60405163d81e842360e01b81526001600160a01b03838116600483015282811660248301526000919086169063d81e84239060440160206040518083038186803b158015610cfb57600080fd5b505afa158015610d0f573d6000803e3d6000fd5b505050506040513d601f19601f82011682018060405250810190610d339190611f46565b6040516330af0bbf60e21b81526001600160a01b03808316600483015291925060009186169063c2bc2efc9060240160206040518083038186803b158015610d7a57600080fd5b505afa158015610d8e573d6000803e3d6000fd5b505050506040513d601f19601f82011682018060405250810190610db29190611f46565b90506001600160a01b0381163314610ddd5760405163863b47e760e01b815260040160405180910390fd5b50949350505050565b600080606060008460e00151806020019051810190610e059190611f63565b90506000610e1f8660c001518760400151841560006111f9565b9050600082610e32578660a00151610e38565b86608001515b90506000818311610e4b57829150610e64565b610e618860c00151838a60400151876000611249565b90505b83610e6f5780610e71565b815b965083610e7e5781610e80565b805b604080516020810190915260008152979990985095505050505050565b60405163070b57d960e41b815260048101829052602401610112565b60008060606000610f147f00000000000000000000000000000000000000000000000000000000000000007f0000000000000000000000000000000000000000000000000000000000000000876000015188602001516112c4565b9150507f00000000000000000000000000000000000000000000000000000000000000006001600160a01b031663a38d7a1760405180610160016040528088600001516001600160a01b0316815260200188602001516001600160a01b031681526020018860400151815260200188606001518152602001306001600160a01b03168152602001306001600160a01b03168152602001306001600160a01b0316815260200160008152602001600081526020018860c001518152602001604051806020016040528060008152508152506040518263ffffffff1660e01b81526004016110009190611f80565b600060405180830381600087803b15801561101a57600080fd5b505af115801561102e573d6000803e3d6000fd5b505050506040513d6000823e601f3d908101601f191682016040526110569190810190612051565b508451602080870151608088015160a089015160c08a015160e08b0151604051611081979601611c26565b60408051808303601f1901815260e083018252878201518352606080890151602085015230848401819052908401526003608084015260c08089015160a08501528301819052905163e0260d1160e01b81529093506001600160a01b0383169163e0260d11916110f49190600401612085565b600060405180830381600087803b15801561110e57600080fd5b505af1158015611122573d6000803e3d6000fd5b505050506040513d6000823e601f3d908101601f1916820160405261114a9190810190611d6b565b92989197509195509350505050565b604080516000808252602082019092526001600160a01b03841690839060405161118391906120fd565b60006040518083038185875af1925050503d80600081146111c0576040519150601f19603f3d011682016040523d82523d6000602084013e6111c5565b606091505b5050905080610c635760405163296c17bb60e21b81526001600160a01b038416600482015260248101839052604401610112565b60006001600160801b03841161122657826112205761121b8585600085611379565b61123e565b8461123e565b82611231578461123e565b61123e8585600185611379565b90505b949350505050565b60006001600160801b03841161129157826112795761127461126b8688611dda565b85600085611379565b6112ba565b611287858560018515611379565b6112749087611dda565b826112a457611287858560008515611379565b6112ba6112b18688611dda565b85600185611379565b9695505050505050565b6000806112db6001600160a01b03871685856113a0565b6040516330af0bbf60e21b81526001600160a01b0380831660048301529193509086169063c2bc2efc9060240160206040518083038186803b15801561132057600080fd5b505afa158015611334573d6000803e3d6000fd5b505050506040513d601f19601f820116820180604052508101906113589190611f46565b90506001600160a01b038116611370576113706113cc565b94509492505050565b6000826113905761121b85600160801b86856113e5565b61123e8585600160801b856113e5565b60006113ad8484846114e1565b90506001600160a01b0381166113c5576113c56113cc565b9392505050565b60405163d92e233d60e01b815260040160405180910390fd5b60008060006113f48787611566565b9150915080600014156114155761140c828686611585565b92505050611241565b8085116114465760405163362ced0960e11b8152600481018890526024810187905260448101869052606401610112565b600085878909600087810388169788900497600260038a028118808b02820302808b02820302808b02820302808b02820302808b02820302808b029091030291819003819004600101868411909503948502929095039490940417928302935084905080156114c4575084806114be576114be612119565b86880915155b156114d757826114d381611f12565b9350505b5050949350505050565b60405163d81e842360e01b81526001600160a01b03838116600483015282811660248301526000919085169063d81e84239060440160206040518083038186803b15801561152e57600080fd5b505afa158015611542573d6000803e3d6000fd5b505050506040513d601f19601f820116820180604052508101906112419190611f46565b6000806000198385098385029250828110838203039150509250929050565b6000611591838561212f565b90508180156115a857506115a58385612143565b15155b156113c55780610c6b81611f12565b6000602082840312156115c957600080fd5b81356001600160e01b0319811681146113c557600080fd5b6000602082840312156115f357600080fd5b81356001600160401b0381111561160957600080fd5b820160e081850312156113c557600080fd5b60005b8381101561163657818101518382015260200161161e565b83811115611645576000848401525b50505050565b6000815180845261166381602086016020860161161b565b601f01601f19169290920160200192915050565b83815282602082015260606040820152600061123e606083018461164b565b6000602082840312156116a857600080fd5b81356001600160401b038111156116be57600080fd5b820160c081850312156113c557600080fd5b6020815260006113c5602083018461164b565b634e487b7160e01b600052604160045260246000fd5b60405161014081016001600160401b038111828210171561171c5761171c6116e3565b60405290565b604051601f8201601f191681016001600160401b038111828210171561174a5761174a6116e3565b604052919050565b6001600160a01b038116811461176757600080fd5b50565b803561177581611752565b919050565b801515811461176757600080fd5b80356117758161177a565b600061014082840312156117a657600080fd5b6117ae6116f9565b6117b78361176a565b81526117c56020840161176a565b602082015260408301356040820152606083013560608201526117ea6080840161176a565b60808201526117fb60a08401611788565b60a082015260c0838101359082015260e080840135908201526101008084013590820152610120928301359281019290925250919050565b6000806020838503121561184657600080fd5b82356001600160401b038082111561185d57600080fd5b818501915085601f83011261187157600080fd5b81358181111561188057600080fd5b8660208260051b850101111561189557600080fd5b60209290920196919550909350505050565b6000602080830181845280855180835260408601915060408160051b870101925083870160005b828110156118fc57603f198886030184526118ea85835161164b565b945092850192908501906001016118ce565b5092979650505050505050565b6000806040838503121561191c57600080fd5b82359150602083013561192e81611752565b809150509250929050565b600082601f83011261194a57600080fd5b813560206001600160401b03821115611965576119656116e3565b8160051b611974828201611722565b928352848101820192828101908785111561198e57600080fd5b83870192505b848310156119ad57823582529183019190830190611994565b979650505050505050565b60006001600160401b038211156119d1576119d16116e3565b50601f01601f191660200190565b600082601f8301126119f057600080fd5b8135611a036119fe826119b8565b611722565b818152846020838601011115611a1857600080fd5b816020850160208301376000918101602001919091529392505050565b600080600080600060a08688031215611a4d57600080fd5b8535611a5881611752565b94506020860135611a6881611752565b935060408601356001600160401b0380821115611a8457600080fd5b611a9089838a01611939565b94506060880135915080821115611aa657600080fd5b611ab289838a01611939565b93506080880135915080821115611ac857600080fd5b50611ad5888289016119df565b9150509295509295909350565b600080600080600060a08688031215611afa57600080fd5b8535611b0581611752565b94506020860135611b1581611752565b9350604086013592506060860135915060808601356001600160401b03811115611b3e57600080fd5b611ad5888289016119df565b6000808335601e19843603018112611b6157600080fd5b8301803591506001600160401b03821115611b7b57600080fd5b602001915036819003821315611b9057600080fd5b9250929050565b60008060008060008060c08789031215611bb057600080fd5b8635611bbb81611752565b95506020870135611bcb81611752565b94506040870135611bdb81611752565b93506060870135611beb81611752565b92506080870135915060a08701356001600160401b03811115611c0d57600080fd5b611c1989828a016119df565b9150509295509295509295565b6001600160a01b03878116825286811660208301528581166040830152841660608201526080810183905260c060a08201819052600090611c699083018461164b565b98975050505050505050565b634e487b7160e01b600052602160045260246000fd5b60028110611c9b57611c9b611c75565b9052565b6020815281516020820152602082015160408201526000604083015160018060a01b03808216606085015280606086015116608085015250506080830151611cea60a0840182611c8b565b5060a083015160c083015260c083015160e083015260e083015161010080818501525061124161012084018261164b565b6000611d296119fe846119b8565b9050828152838383011115611d3d57600080fd5b6113c583602083018461161b565b600082601f830112611d5c57600080fd5b6113c583835160208501611d1b565b60008060008060808587031215611d8157600080fd5b84519350602085015192506040850151915060608501516001600160401b03811115611dac57600080fd5b611db887828801611d4b565b91505092959194509250565b634e487b7160e01b600052601160045260246000fd5b600082821015611dec57611dec611dc4565b500390565b60038110611c9b57611c9b611c75565b858152602081018590526001600160a01b038416604082015260a08101611e2b6060830185611df1565b8260808301529695505050505050565b60006101008201905060018060a01b03808716835280861660208401528085511660408401528060208601511660608401525060408401516080830152606084015160a08301526080840151611e9460c0840182611df1565b508260e083015295945050505050565b634e487b7160e01b600052603260045260246000fd5b8183823760009101908152919050565b600060208284031215611edc57600080fd5b81516001600160401b03811115611ef257600080fd5b8201601f81018413611f0357600080fd5b61124184825160208401611d1b565b6000600019821415611f2657611f26611dc4565b5060010190565b600060208284031215611f3f57600080fd5b5051919050565b600060208284031215611f5857600080fd5b81516113c581611752565b600060208284031215611f7557600080fd5b81516113c58161177a565b60208152611f9a6020820183516001600160a01b03169052565b60006020830151611fb660408401826001600160a01b03169052565b5060408301516060830152606083015160808301526080830151611fe560a08401826001600160a01b03169052565b5060a08301516001600160a01b03811660c08401525060c08301516001600160a01b03811660e08401525060e08301516101008381019190915283015161012080840191909152830151610140808401919091528301516101608084015261124161018084018261164b565b60006020828403121561206357600080fd5b81516001600160401b0381111561207957600080fd5b61124184828501611d4b565b6020815281516020820152602082015160408201526000604083015160018060a01b03808216606085015280606086015116608085015250506080830151600481106120d3576120d3611c75565b8060a08401525060a083015160c083015260c083015160e08084015261124161010084018261164b565b6000825161210f81846020870161161b565b9190910192915050565b634e487b7160e01b600052601260045260246000fd5b60008261213e5761213e612119565b500490565b60008261215257612152612119565b50069056fea2646970667358221220c2435791b00e830252d8fafa074ef84bbf65850b3fdd7a71ca9bc08a4887266564736f6c63430008080033",
  "linkReferences": {},
  "deployedLinkReferences": {}
}