{
  "_format": "hh-sol-artifact-1",
  "contractName": "TimeswapV2LiquidityToken",
  "sourceName": "@timeswap-labs/v2-token/contracts/TimeswapV2LiquidityToken.sol",
  "abi": [
    {
      "inputs": [
        {
          "internalType": "address",
          "name": "chosenOptionFactory",
          "type": "address"
        },
        {
          "internalType": "address",
          "name": "chosenPoolFactory",
          "type": "address"
        }
      ],
      "stateMutability": "nonpayable",
      "type": "constructor"
    },
    {
      "inputs": [
        {
          "internalType": "uint256",
          "name": "maturity",
          "type": "uint256"
        }
      ],
      "name": "IncorrectMaturity",
      "type": "error"
    },
    {
      "inputs": [
        {
          "internalType": "uint256",
          "name": "multiplicand",
          "type": "uint256"
        },
        {
          "internalType": "uint256",
          "name": "multiplier",
          "type": "uint256"
        },
        {
          "internalType": "uint256",
          "name": "divisor",
          "type": "uint256"
        }
      ],
      "name": "MulDivOverflow",
      "type": "error"
    },
    {
      "inputs": [],
      "name": "NoReentrantCall",
      "type": "error"
    },
    {
      "inputs": [],
      "name": "NotApprovedToTransferFees",
      "type": "error"
    },
    {
      "inputs": [
        {
          "internalType": "uint256",
          "name": "minuend",
          "type": "uint256"
        },
        {
          "internalType": "uint256",
          "name": "subtrahend",
          "type": "uint256"
        }
      ],
      "name": "NotEnoughReceived",
      "type": "error"
    },
    {
      "inputs": [],
      "name": "NotInteracted",
      "type": "error"
    },
    {
      "inputs": [],
      "name": "ZeroAddress",
      "type": "error"
    },
    {
      "inputs": [],
      "name": "ZeroInput",
      "type": "error"
    },
    {
      "anonymous": false,
      "inputs": [
        {
          "indexed": true,
          "internalType": "address",
          "name": "account",
          "type": "address"
        },
        {
          "indexed": true,
          "internalType": "address",
          "name": "operator",
          "type": "address"
        },
        {
          "indexed": false,
          "internalType": "bool",
          "name": "approved",
          "type": "bool"
        }
      ],
      "name": "ApprovalForAll",
      "type": "event"
    },
    {
      "anonymous": false,
      "inputs": [
        {
          "indexed": true,
          "internalType": "address",
          "name": "operator",
          "type": "address"
        },
        {
          "indexed": true,
          "internalType": "address",
          "name": "from",
          "type": "address"
        },
        {
          "indexed": true,
          "internalType": "address",
          "name": "to",
          "type": "address"
        },
        {
          "indexed": false,
          "internalType": "uint256[]",
          "name": "ids",
          "type": "uint256[]"
        },
        {
          "indexed": false,
          "internalType": "uint256[]",
          "name": "values",
          "type": "uint256[]"
        }
      ],
      "name": "TransferBatch",
      "type": "event"
    },
    {
      "anonymous": false,
      "inputs": [
        {
          "indexed": false,
          "internalType": "address",
          "name": "from",
          "type": "address"
        },
        {
          "indexed": false,
          "internalType": "address",
          "name": "to",
          "type": "address"
        },
        {
          "components": [
            {
              "internalType": "address",
              "name": "token0",
              "type": "address"
            },
            {
              "internalType": "address",
              "name": "token1",
              "type": "address"
            },
            {
              "internalType": "uint256",
              "name": "strike",
              "type": "uint256"
            },
            {
              "internalType": "uint256",
              "name": "maturity",
              "type": "uint256"
            }
          ],
          "indexed": false,
          "internalType": "struct TimeswapV2LiquidityTokenPosition",
          "name": "position",
          "type": "tuple"
        },
        {
          "indexed": false,
          "internalType": "uint256",
          "name": "long0Fees",
          "type": "uint256"
        },
        {
          "indexed": false,
          "internalType": "uint256",
          "name": "long1Fees",
          "type": "uint256"
        },
        {
          "indexed": false,
          "internalType": "uint256",
          "name": "shortFees",
          "type": "uint256"
        }
      ],
      "name": "TransferFees",
      "type": "event"
    },
    {
      "anonymous": false,
      "inputs": [
        {
          "indexed": true,
          "internalType": "address",
          "name": "operator",
          "type": "address"
        },
        {
          "indexed": true,
          "internalType": "address",
          "name": "from",
          "type": "address"
        },
        {
          "indexed": true,
          "internalType": "address",
          "name": "to",
          "type": "address"
        },
        {
          "indexed": false,
          "internalType": "uint256",
          "name": "id",
          "type": "uint256"
        },
        {
          "indexed": false,
          "internalType": "uint256",
          "name": "value",
          "type": "uint256"
        }
      ],
      "name": "TransferSingle",
      "type": "event"
    },
    {
      "anonymous": false,
      "inputs": [
        {
          "indexed": false,
          "internalType": "string",
          "name": "value",
          "type": "string"
        },
        {
          "indexed": true,
          "internalType": "uint256",
          "name": "id",
          "type": "uint256"
        }
      ],
      "name": "URI",
      "type": "event"
    },
    {
      "inputs": [
        {
          "components": [
            {
              "internalType": "address",
              "name": "token0",
              "type": "address"
            },
            {
              "internalType": "address",
              "name": "token1",
              "type": "address"
            },
            {
              "internalType": "uint256",
              "name": "strike",
              "type": "uint256"
            },
            {
              "internalType": "uint256",
              "name": "maturity",
              "type": "uint256"
            },
            {
              "internalType": "address",
              "name": "to",
              "type": "address"
            },
            {
              "internalType": "uint256",
              "name": "long0Fees",
              "type": "uint256"
            },
            {
              "internalType": "uint256",
              "name": "long1Fees",
              "type": "uint256"
            },
            {
              "internalType": "uint256",
              "name": "shortFees",
              "type": "uint256"
            },
            {
              "internalType": "bytes",
              "name": "data",
              "type": "bytes"
            }
          ],
          "internalType": "struct TimeswapV2LiquidityTokenAddFeesParam",
          "name": "param",
          "type": "tuple"
        }
      ],
      "name": "addFees",
      "outputs": [
        {
          "internalType": "bytes",
          "name": "data",
          "type": "bytes"
        }
      ],
      "stateMutability": "nonpayable",
      "type": "function"
    },
    {
      "inputs": [
        {
          "internalType": "address",
          "name": "account",
          "type": "address"
        },
        {
          "internalType": "uint256",
          "name": "id",
          "type": "uint256"
        }
      ],
      "name": "balanceOf",
      "outputs": [
        {
          "internalType": "uint256",
          "name": "",
          "type": "uint256"
        }
      ],
      "stateMutability": "view",
      "type": "function"
    },
    {
      "inputs": [
        {
          "internalType": "address[]",
          "name": "accounts",
          "type": "address[]"
        },
        {
          "internalType": "uint256[]",
          "name": "ids",
          "type": "uint256[]"
        }
      ],
      "name": "balanceOfBatch",
      "outputs": [
        {
          "internalType": "uint256[]",
          "name": "",
          "type": "uint256[]"
        }
      ],
      "stateMutability": "view",
      "type": "function"
    },
    {
      "inputs": [
        {
          "components": [
            {
              "internalType": "address",
              "name": "token0",
              "type": "address"
            },
            {
              "internalType": "address",
              "name": "token1",
              "type": "address"
            },
            {
              "internalType": "uint256",
              "name": "strike",
              "type": "uint256"
            },
            {
              "internalType": "uint256",
              "name": "maturity",
              "type": "uint256"
            },
            {
              "internalType": "address",
              "name": "to",
              "type": "address"
            },
            {
              "internalType": "uint160",
              "name": "liquidityAmount",
              "type": "uint160"
            },
            {
              "internalType": "bytes",
              "name": "data",
              "type": "bytes"
            }
          ],
          "internalType": "struct TimeswapV2LiquidityTokenBurnParam",
          "name": "param",
          "type": "tuple"
        }
      ],
      "name": "burn",
      "outputs": [
        {
          "internalType": "bytes",
          "name": "data",
          "type": "bytes"
        }
      ],
      "stateMutability": "nonpayable",
      "type": "function"
    },
    {
      "inputs": [
        {
          "components": [
            {
              "internalType": "address",
              "name": "token0",
              "type": "address"
            },
            {
              "internalType": "address",
              "name": "token1",
              "type": "address"
            },
            {
              "internalType": "uint256",
              "name": "strike",
              "type": "uint256"
            },
            {
              "internalType": "uint256",
              "name": "maturity",
              "type": "uint256"
            },
            {
              "internalType": "address",
              "name": "to",
              "type": "address"
            },
            {
              "internalType": "uint256",
              "name": "long0FeesDesired",
              "type": "uint256"
            },
            {
              "internalType": "uint256",
              "name": "long1FeesDesired",
              "type": "uint256"
            },
            {
              "internalType": "uint256",
              "name": "shortFeesDesired",
              "type": "uint256"
            },
            {
              "internalType": "bytes",
              "name": "data",
              "type": "bytes"
            }
          ],
          "internalType": "struct TimeswapV2LiquidityTokenCollectParam",
          "name": "param",
          "type": "tuple"
        }
      ],
      "name": "collect",
      "outputs": [
        {
          "internalType": "uint256",
          "name": "long0Fees",
          "type": "uint256"
        },
        {
          "internalType": "uint256",
          "name": "long1Fees",
          "type": "uint256"
        },
        {
          "internalType": "uint256",
          "name": "shortFees",
          "type": "uint256"
        },
        {
          "internalType": "bytes",
          "name": "data",
          "type": "bytes"
        }
      ],
      "stateMutability": "nonpayable",
      "type": "function"
    },
    {
      "inputs": [
        {
          "internalType": "address",
          "name": "owner",
          "type": "address"
        },
        {
          "components": [
            {
              "internalType": "address",
              "name": "token0",
              "type": "address"
            },
            {
              "internalType": "address",
              "name": "token1",
              "type": "address"
            },
            {
              "internalType": "uint256",
              "name": "strike",
              "type": "uint256"
            },
            {
              "internalType": "uint256",
              "name": "maturity",
              "type": "uint256"
            }
          ],
          "internalType": "struct TimeswapV2LiquidityTokenPosition",
          "name": "timeswapV2LiquidityTokenPosition",
          "type": "tuple"
        }
      ],
      "name": "feesEarnedOf",
      "outputs": [
        {
          "internalType": "uint256",
          "name": "long0Fees",
          "type": "uint256"
        },
        {
          "internalType": "uint256",
          "name": "long1Fees",
          "type": "uint256"
        },
        {
          "internalType": "uint256",
          "name": "shortFees",
          "type": "uint256"
        }
      ],
      "stateMutability": "view",
      "type": "function"
    },
    {
      "inputs": [
        {
          "internalType": "address",
          "name": "account",
          "type": "address"
        },
        {
          "internalType": "address",
          "name": "operator",
          "type": "address"
        }
      ],
      "name": "isApprovedForAll",
      "outputs": [
        {
          "internalType": "bool",
          "name": "",
          "type": "bool"
        }
      ],
      "stateMutability": "view",
      "type": "function"
    },
    {
      "inputs": [
        {
          "components": [
            {
              "internalType": "address",
              "name": "token0",
              "type": "address"
            },
            {
              "internalType": "address",
              "name": "token1",
              "type": "address"
            },
            {
              "internalType": "uint256",
              "name": "strike",
              "type": "uint256"
            },
            {
              "internalType": "uint256",
              "name": "maturity",
              "type": "uint256"
            },
            {
              "internalType": "address",
              "name": "to",
              "type": "address"
            },
            {
              "internalType": "uint160",
              "name": "liquidityAmount",
              "type": "uint160"
            },
            {
              "internalType": "bytes",
              "name": "data",
              "type": "bytes"
            }
          ],
          "internalType": "struct TimeswapV2LiquidityTokenMintParam",
          "name": "param",
          "type": "tuple"
        }
      ],
      "name": "mint",
      "outputs": [
        {
          "internalType": "bytes",
          "name": "data",
          "type": "bytes"
        }
      ],
      "stateMutability": "nonpayable",
      "type": "function"
    },
    {
      "inputs": [],
      "name": "optionFactory",
      "outputs": [
        {
          "internalType": "address",
          "name": "",
          "type": "address"
        }
      ],
      "stateMutability": "view",
      "type": "function"
    },
    {
      "inputs": [],
      "name": "poolFactory",
      "outputs": [
        {
          "internalType": "address",
          "name": "",
          "type": "address"
        }
      ],
      "stateMutability": "view",
      "type": "function"
    },
    {
      "inputs": [
        {
          "internalType": "address",
          "name": "owner",
          "type": "address"
        },
        {
          "components": [
            {
              "internalType": "address",
              "name": "token0",
              "type": "address"
            },
            {
              "internalType": "address",
              "name": "token1",
              "type": "address"
            },
            {
              "internalType": "uint256",
              "name": "strike",
              "type": "uint256"
            },
            {
              "internalType": "uint256",
              "name": "maturity",
              "type": "uint256"
            }
          ],
          "internalType": "struct TimeswapV2LiquidityTokenPosition",
          "name": "timeswapV2LiquidityTokenPosition",
          "type": "tuple"
        }
      ],
      "name": "positionOf",
      "outputs": [
        {
          "internalType": "uint256",
          "name": "amount",
          "type": "uint256"
        }
      ],
      "stateMutability": "view",
      "type": "function"
    },
    {
      "inputs": [
        {
          "internalType": "address",
          "name": "from",
          "type": "address"
        },
        {
          "internalType": "address",
          "name": "to",
          "type": "address"
        },
        {
          "internalType": "uint256[]",
          "name": "ids",
          "type": "uint256[]"
        },
        {
          "internalType": "uint256[]",
          "name": "amounts",
          "type": "uint256[]"
        },
        {
          "internalType": "bytes",
          "name": "data",
          "type": "bytes"
        }
      ],
      "name": "safeBatchTransferFrom",
      "outputs": [],
      "stateMutability": "nonpayable",
      "type": "function"
    },
    {
      "inputs": [
        {
          "internalType": "address",
          "name": "from",
          "type": "address"
        },
        {
          "internalType": "address",
          "name": "to",
          "type": "address"
        },
        {
          "internalType": "uint256",
          "name": "id",
          "type": "uint256"
        },
        {
          "internalType": "uint256",
          "name": "amount",
          "type": "uint256"
        },
        {
          "internalType": "bytes",
          "name": "data",
          "type": "bytes"
        }
      ],
      "name": "safeTransferFrom",
      "outputs": [],
      "stateMutability": "nonpayable",
      "type": "function"
    },
    {
      "inputs": [
        {
          "internalType": "address",
          "name": "operator",
          "type": "address"
        },
        {
          "internalType": "bool",
          "name": "approved",
          "type": "bool"
        }
      ],
      "name": "setApprovalForAll",
      "outputs": [],
      "stateMutability": "nonpayable",
      "type": "function"
    },
    {
      "inputs": [
        {
          "internalType": "bytes4",
          "name": "interfaceId",
          "type": "bytes4"
        }
      ],
      "name": "supportsInterface",
      "outputs": [
        {
          "internalType": "bool",
          "name": "",
          "type": "bool"
        }
      ],
      "stateMutability": "view",
      "type": "function"
    },
    {
      "inputs": [
        {
          "internalType": "uint256",
          "name": "index",
          "type": "uint256"
        }
      ],
      "name": "tokenByIndex",
      "outputs": [
        {
          "internalType": "uint256",
          "name": "",
          "type": "uint256"
        }
      ],
      "stateMutability": "view",
      "type": "function"
    },
    {
      "inputs": [
        {
          "internalType": "address",
          "name": "owner",
          "type": "address"
        },
        {
          "internalType": "uint256",
          "name": "index",
          "type": "uint256"
        }
      ],
      "name": "tokenOfOwnerByIndex",
      "outputs": [
        {
          "internalType": "uint256",
          "name": "",
          "type": "uint256"
        }
      ],
      "stateMutability": "view",
      "type": "function"
    },
    {
      "inputs": [],
      "name": "totalIds",
      "outputs": [
        {
          "internalType": "uint256",
          "name": "",
          "type": "uint256"
        }
      ],
      "stateMutability": "view",
      "type": "function"
    },
    {
      "inputs": [
        {
          "internalType": "uint256",
          "name": "id",
          "type": "uint256"
        }
      ],
      "name": "totalSupply",
      "outputs": [
        {
          "internalType": "uint256",
          "name": "",
          "type": "uint256"
        }
      ],
      "stateMutability": "view",
      "type": "function"
    },
    {
      "inputs": [
        {
          "internalType": "address",
          "name": "from",
          "type": "address"
        },
        {
          "internalType": "address",
          "name": "to",
          "type": "address"
        },
        {
          "components": [
            {
              "internalType": "address",
              "name": "token0",
              "type": "address"
            },
            {
              "internalType": "address",
              "name": "token1",
              "type": "address"
            },
            {
              "internalType": "uint256",
              "name": "strike",
              "type": "uint256"
            },
            {
              "internalType": "uint256",
              "name": "maturity",
              "type": "uint256"
            }
          ],
          "internalType": "struct TimeswapV2LiquidityTokenPosition",
          "name": "position",
          "type": "tuple"
        },
        {
          "internalType": "uint256",
          "name": "long0Fees",
          "type": "uint256"
        },
        {
          "internalType": "uint256",
          "name": "long1Fees",
          "type": "uint256"
        },
        {
          "internalType": "uint256",
          "name": "shortFees",
          "type": "uint256"
        }
      ],
      "name": "transferFeesFrom",
      "outputs": [],
      "stateMutability": "nonpayable",
      "type": "function"
    },
    {
      "inputs": [
        {
          "internalType": "address",
          "name": "from",
          "type": "address"
        },
        {
          "internalType": "address",
          "name": "to",
          "type": "address"
        },
        {
          "components": [
            {
              "internalType": "address",
              "name": "token0",
              "type": "address"
            },
            {
              "internalType": "address",
              "name": "token1",
              "type": "address"
            },
            {
              "internalType": "uint256",
              "name": "strike",
              "type": "uint256"
            },
            {
              "internalType": "uint256",
              "name": "maturity",
              "type": "uint256"
            }
          ],
          "internalType": "struct TimeswapV2LiquidityTokenPosition",
          "name": "timeswapV2LiquidityTokenPosition",
          "type": "tuple"
        },
        {
          "internalType": "uint160",
          "name": "liquidityAmount",
          "type": "uint160"
        }
      ],
      "name": "transferTokenPositionFrom",
      "outputs": [],
      "stateMutability": "nonpayable",
      "type": "function"
    },
    {
      "inputs": [
        {
          "internalType": "uint256",
          "name": "",
          "type": "uint256"
        }
      ],
      "name": "uri",
      "outputs": [
        {
          "internalType": "string",
          "name": "",
          "type": "string"
        }
      ],
      "stateMutability": "view",
      "type": "function"
    }
  ],
  "bytecode": "0x60c06040523480156200001157600080fd5b50604051620047553803806200475583398101604081905262000034916200016f565b60408051808201909152601b81527f54696d65737761702056322075696e74313630206164647265737300000000006020820152620000738162000093565b506001600160601b0319606092831b8116608052911b1660a052620001e4565b8051620000a8906002906020840190620000ac565b5050565b828054620000ba90620001a7565b90600052602060002090601f016020900481019282620000de576000855562000129565b82601f10620000f957805160ff191683800117855562000129565b8280016001018555821562000129579182015b82811115620001295782518255916020019190600101906200010c565b50620001379291506200013b565b5090565b5b808211156200013757600081556001016200013c565b80516001600160a01b03811681146200016a57600080fd5b919050565b600080604083850312156200018357600080fd5b6200018e8362000152565b91506200019e6020840162000152565b90509250929050565b600181811c90821680620001bc57607f821691505b60208210811415620001de57634e487b7160e01b600052602260045260246000fd5b50919050565b60805160601c60a05160601c6144e362000272600039600081816101f70152818161070801528181610c8601528181610fbf0152818161126e015281816117d8015281816121c9015261329f015260008181610306015281816106e701528181610c6501528181610f9e0152818161124d015281816117b7015281816121a7015261327d01526144e36000f3fe608060405234801561001057600080fd5b50600436106101415760003560e01c80637c229f16116100b8578063b3461c871161007c578063b3461c8714610301578063bb0f77f914610328578063bd85b0391461033b578063d53693391461035b578063e985e9c51461036e578063f242432a146103aa57600080fd5b80637c229f16146102875780637facccee1461029a57806380f126e3146102c8578063a22cb465146102db578063aeb2e579146102ee57600080fd5b80633594d9bc1161010a5780633594d9bc146101d7578063390a5ba5146101ea5780634219dc40146101f25780634e1273f4146102315780634f6ccce7146102515780636ad0cef81461026457600080fd5b8062fdd58e1461014657806301ffc9a71461016c5780630e89341c1461018f5780632eb2c2d6146101af5780632f745c59146101c4575b600080fd5b610159610154366004613586565b6103bd565b6040519081526020015b60405180910390f35b61017f61017a3660046135c8565b610453565b6040519015158152602001610163565b6101a261019d3660046135e5565b6104a5565b6040516101639190613656565b6101c26101bd36600461380d565b610539565b005b6101596101d2366004613586565b610585565b6101a26101e53660046138d2565b6105c2565b600654610159565b6102197f000000000000000000000000000000000000000000000000000000000000000081565b6040516001600160a01b039091168152602001610163565b61024461023f366004613906565b610a34565b6040516101639190613a0d565b61015961025f3660046135e5565b610b5d565b610277610272366004613a33565b610b84565b6040516101639493929190613a67565b6101a26102953660046138d2565b610f1a565b6102ad6102a8366004613aa8565b611240565b60408051938452602084019290925290820152606001610163565b6101c26102d6366004613ade565b6113e9565b6101c26102e9366004613b44565b611586565b6101c26102fc366004613b82565b611595565b6102197f000000000000000000000000000000000000000000000000000000000000000081565b6101a2610336366004613a33565b6115e4565b6101596103493660046135e5565b60009081526005602052604090205490565b610159610369366004613aa8565b611af1565b61017f61037c366004613bdd565b6001600160a01b03918216600090815260016020908152604080832093909416825291909152205460ff1690565b6101c26103b8366004613c0b565b611b27565b60006001600160a01b03831661042d5760405162461bcd60e51b815260206004820152602a60248201527f455243313135353a2061646472657373207a65726f206973206e6f742061207660448201526930b634b21037bbb732b960b11b60648201526084015b60405180910390fd5b506000908152602081815260408083206001600160a01b03949094168352929052205490565b60006001600160e01b03198216636cdb3d1360e11b148061048457506001600160e01b031982166303a24d0760e21b145b8061049f57506301ffc9a760e01b6001600160e01b03198316145b92915050565b6060600280546104b490613c73565b80601f01602080910402602001604051908101604052809291908181526020018280546104e090613c73565b801561052d5780601f106105025761010080835404028352916020019161052d565b820191906000526020600020905b81548152906001019060200180831161051057829003601f168201915b50505050509050919050565b6001600160a01b0385163314806105555750610555853361037c565b6105715760405162461bcd60e51b815260040161042490613ca8565b61057e8585858585611b6c565b5050505050565b6001600160a01b03821660009081526003602052604081208054839081106105af576105af613cf7565b9060005260206000200154905092915050565b60606105d56105d083613dac565b611d65565b6040805160808101909152600090806105f16020860186613db8565b6001600160a01b031681526020018460200160208101906106129190613db8565b6001600160a01b03168152604080860135602083015260608601359101529050600061063d82611dbc565b6000818152600a6020526040902054909150806106ce57600c6000815461066390613deb565b91829055506000818152600960209081526040808320875181546001600160a01b039182166001600160a01b0319918216178355848a01516001840180549190931691161790558188015160028201556060880151600390910155858352600a909152902081905590505b6106d782611e16565b6106e082611e54565b60006107497f00000000000000000000000000000000000000000000000000000000000000007f000000000000000000000000000000000000000000000000000000000000000061073460208a018a613db8565b61074460408b0160208c01613db8565b611e96565b91506000905061075f60c0880160a08901613db8565b6040805163f78333a360e01b8152908901356004820152606089013560248201523060448201526001600160a01b0384169063f78333a39060640160206040518083038186803b1580156107b257600080fd5b505afa1580156107c6573d6000803e3d6000fd5b505050506040513d601f19601f820116820180604052508101906107ea9190613e06565b6107f49190613e23565b905061083861080960a0890160808a01613db8565b8461081a60c08b0160a08c01613db8565b6001600160a01b031660405180602001604052806000815250611f4b565b6040805160c08101909152339063bef8f8f5908061085960208c018c613db8565b6001600160a01b031681526020018a602001602081019061087a9190613db8565b6001600160a01b031681526020018a6040013581526020018a6060013581526020018a60a00160208101906108af9190613db8565b6001600160a01b031681526020016108ca60c08c018c613e4e565b8080601f01602080910402602001604051908101604052809392919081815260200183838082843760009201919091525050509152506040516001600160e01b031960e084901b1681526109219190600401613ef0565b600060405180830381600087803b15801561093b57600080fd5b505af115801561094f573d6000803e3d6000fd5b505050506040513d6000823e601f3d908101601f191682016040526109779190810190613f03565b6040805163f78333a360e01b815290890135600482015260608901356024820152306044820152909650610a21906001600160a01b0384169063f78333a39060640160206040518083038186803b1580156109d157600080fd5b505afa1580156109e5573d6000803e3d6000fd5b505050506040513d601f19601f82011682018060405250810190610a099190613e06565b6001600160a01b0316826001600160a01b031661207d565b610a2a846120a8565b5050505050919050565b60608151835114610a995760405162461bcd60e51b815260206004820152602960248201527f455243313135353a206163636f756e747320616e6420696473206c656e677468604482015268040dad2e6dac2e8c6d60bb1b6064820152608401610424565b600083516001600160401b03811115610ab457610ab4613669565b604051908082528060200260200182016040528015610add578160200160208202803683370190505b50905060005b8451811015610b5557610b28858281518110610b0157610b01613cf7565b6020026020010151858381518110610b1b57610b1b613cf7565b60200260200101516103bd565b828281518110610b3a57610b3a613cf7565b6020908102919091010152610b4e81613deb565b9050610ae3565b509392505050565b600060068281548110610b7257610b72613cf7565b90600052602060002001549050919050565b600080806060610b9b610b9686614029565b6120c9565b6040805160808101909152600090610bff9080610bbb60208a018a613db8565b6001600160a01b03168152602001886020016020810190610bdc9190613db8565b6001600160a01b031681526040808a0135602083015260608a0135910152611dbc565b9050610c0a81611e54565b6000818152600a602052604081205490610c2690339083612132565b6000818152600b602090815260408083203384529091529020610c579060a089013560c08a013560e08b013561231b565b919750955093506000610cc27f00000000000000000000000000000000000000000000000000000000000000007f0000000000000000000000000000000000000000000000000000000000000000610cb260208c018c613db8565b61074460408d0160208e01613db8565b9150506001600160a01b03811663d7e2c24a60408a013560608b0135610cee60a08d0160808e01613db8565b6040516001600160e01b031960e086901b168152600481019390935260248301919091526001600160a01b03166044820152606481018a90526084810189905260a4810188905260c401600060405180830381600087803b158015610d5257600080fd5b505af1158015610d66573d6000803e3d6000fd5b50610d7992505050610100890189613e4e565b159050610eb8576040805161010081019091523390637fac40649080610da260208d018d613db8565b6001600160a01b031681526020018b6020016020810190610dc39190613db8565b6001600160a01b031681526020018b6040013581526020018b6060013581526020018a81526020018981526020018881526020018b806101000190610e089190613e4e565b8080601f01602080910402602001604051908101604052809392919081815260200183838082843760009201919091525050509152506040516001600160e01b031960e084901b168152610e5f919060040161409d565b600060405180830381600087803b158015610e7957600080fd5b505af1158015610e8d573d6000803e3d6000fd5b505050506040513d6000823e601f3d908101601f19168201604052610eb59190810190613f03565b93505b6000828152600b602090815260408083203384529091529020610edd9088888861235a565b86151580610eea57508515155b80610ef457508415155b15610f0757610f073360008460006123af565b610f10836120a8565b5050509193509193565b6060610f286105d083613dac565b6040805160808101909152600090610f8c9080610f486020870187613db8565b6001600160a01b03168152602001856020016020810190610f699190613db8565b6001600160a01b0316815260408087013560208301526060870135910152611dbc565b9050610f9781611e54565b6000610ffb7f00000000000000000000000000000000000000000000000000000000000000007f0000000000000000000000000000000000000000000000000000000000000000610feb6020880188613db8565b6107446040890160208a01613db8565b9150506001600160a01b03811663c0e0c4c66040860135606087013561102760a0890160808a01613db8565b61103760c08a0160a08b01613db8565b6040516001600160e01b031960e087901b168152600481019490945260248401929092526001600160a01b039081166044840152166064820152608401600060405180830381600087803b15801561108e57600080fd5b505af11580156110a2573d6000803e3d6000fd5b506110b49250505060c0850185613e4e565b1590506111fd576040805160c08101909152339063aef2b33490806110dc6020890189613db8565b6001600160a01b031681526020018760200160208101906110fd9190613db8565b6001600160a01b0316815260200187604001358152602001876060013581526020018760a00160208101906111329190613db8565b6001600160a01b0316815260200161114d60c0890189613e4e565b8080601f01602080910402602001604051908101604052809392919081815260200183838082843760009201919091525050509152506040516001600160e01b031960e084901b1681526111a49190600401613ef0565b600060405180830381600087803b1580156111be57600080fd5b505af11580156111d2573d6000803e3d6000fd5b505050506040513d6000823e601f3d908101601f191682016040526111fa9190810190613f03565b92505b6000828152600a602052604090205461123090339061122260c0880160a08901613db8565b6001600160a01b0316612462565b611239826120a8565b5050919050565b600080808080808061129a7f00000000000000000000000000000000000000000000000000000000000000007f0000000000000000000000000000000000000000000000000000000000000000610cb260208c018c613db8565b6040805163647284f560e01b8152908b0135600482015260608b013560248201529092506001600160a01b038316915063647284f59060440160606040518083038186803b1580156112eb57600080fd5b505afa1580156112ff573d6000803e3d6000fd5b505050506040513d601f19601f8201168201806040525081019061132391906140b0565b9195509350915060009050600a81611348611343368c90038c018c6140de565b611dbc565b81526020808201929092526040908101600090812054808252600b84528282206001600160a01b038e168352845290829020825160c08101845281548152600182015494810194909452600281015492840192909252600382015460608401526004820154608084015260059091015460a083015291506113d66113cc8b846103bd565b82908787876125fc565b919c909b50909950975050505050505050565b6001600160a01b0386166113ff576113ff61266c565b6001600160a01b0385166114155761141561266c565b6001600160a01b038616600090815260016020908152604080832033845290915290205460ff166114595760405163a411173560e01b815260040160405180910390fd5b6000600a81611470611343368990038901896140de565b815260200190815260200160002054905083600014158061149057508215155b8061149a57508115155b156114ac576114ac8787836000612685565b6114b7878783612132565b6000818152600b602090815260408083206001600160a01b038a16845290915290206114e5908585856127b5565b6000818152600b602090815260408083206001600160a01b038b16845290915290206115139085858561235a565b8315158061152057508215155b8061152a57508115155b1561153c5761153c87878360006123af565b7fd4036aa3d96518f25340870af7842f0aa50b57bd39134f395b423806316b1e8987878787878760405161157596959493929190614152565b60405180910390a150505050505050565b6115913383836127ff565b5050565b6115de8484600a60006115b0611343368990038901896140de565b815260200190815260200160002054846001600160a01b031660405180602001604052806000815250611b27565b50505050565b60606115f2610b9683614029565b60408051608081019091526000908061160e6020860186613db8565b6001600160a01b0316815260200184602001602081019061162f9190613db8565b6001600160a01b03168152604080860135602083015260608601359101529050600061165a82611dbc565b6000818152600a6020526040902054909150806116eb57600c6000815461168090613deb565b91829055506000818152600960209081526040808320875181546001600160a01b039182166001600160a01b0319918216178355848a01516001840180549190931691161790558188015160028201556060880151600390910155858352600a909152902081905590505b6116f482611e16565b6116fd82611e54565b60a0850135151580611712575060c085013515155b80611720575060e085013515155b1561174257611742600061173a60a0880160808901613db8565b836000612685565b61175d600061175760a0880160808901613db8565b83612132565b6000818152600b602052604081206117b09160a0880180359260c08a01359260e08b01359261178f9060808d01613db8565b6001600160a01b0316815260208101919091526040016000209291906127b5565b60006118047f00000000000000000000000000000000000000000000000000000000000000007f000000000000000000000000000000000000000000000000000000000000000061073460208a018a613db8565b604080516306c8677960e41b81529089013560048201526060890135602482015230604482015290925060009150819081906001600160a01b03851690636c8677909060640160606040518083038186803b15801561186257600080fd5b505afa158015611876573d6000803e3d6000fd5b505050506040513d601f19601f8201168201806040525081019061189a91906140b0565b6040805161010081019091529295509093509150339063eca9586c90806118c460208e018e613db8565b6001600160a01b031681526020018c60200160208101906118e59190613db8565b6001600160a01b031681526020018c6040013581526020018c6060013581526020018c60a0013581526020018c60c0013581526020018c60e0013581526020018c8061010001906119369190613e4e565b8080601f01602080910402602001604051908101604052809392919081815260200183838082843760009201919091525050509152506040516001600160e01b031960e084901b16815261198d919060040161409d565b600060405180830381600087803b1580156119a757600080fd5b505af11580156119bb573d6000803e3d6000fd5b505050506040513d6000823e601f3d908101601f191682016040526119e39190810190613f03565b604080516306c8677960e41b8152908b0135600482015260608b01356024820152306044820152909850600090819081906001600160a01b03881690636c8677909060640160606040518083038186803b158015611a4057600080fd5b505afa158015611a54573d6000803e3d6000fd5b505050506040513d601f19601f82011682018060405250810190611a7891906140b0565b9250925092508b60a00135600014611aa157611aa183611a9c60a08f0135896141c9565b61207d565b60c08c013515611abd57611abd82611a9c60c08f0135886141c9565b60e08c013515611ad957611ad981611a9c60e08f0135876141c9565b611ae2896120a8565b50505050505050505050919050565b6000611b2083600a83611b0c611343368890038801886140de565b8152602001908152602001600020546103bd565b9392505050565b6001600160a01b038516331480611b435750611b43853361037c565b611b5f5760405162461bcd60e51b815260040161042490613ca8565b61057e85858585856128e0565b8151835114611bce5760405162461bcd60e51b815260206004820152602860248201527f455243313135353a2069647320616e6420616d6f756e7473206c656e677468206044820152670dad2e6dac2e8c6d60c31b6064820152608401610424565b6001600160a01b038416611bf45760405162461bcd60e51b8152600401610424906141e1565b33611c03818787878787612a26565b60005b8451811015611ce9576000858281518110611c2357611c23613cf7565b602002602001015190506000858381518110611c4157611c41613cf7565b602090810291909101810151600084815280835260408082206001600160a01b038e168352909352919091205490915081811015611c915760405162461bcd60e51b815260040161042490614226565b6000838152602081815260408083206001600160a01b038e8116855292528083208585039055908b16825281208054849290611cce9084906141c9565b9250508190555050505080611ce290613deb565b9050611c06565b50846001600160a01b0316866001600160a01b0316826001600160a01b03167f4a39dc06d4c0dbc64b70af90fd698a233a518aa5d07e595d983b8c0526c8f7fb8787604051611d39929190614270565b60405180910390a4611d4f818787878787612a8d565b611d5d818787878787612b00565b505050505050565b60808101516001600160a01b0316611d7f57611d7f61266c565b60608101516001600160601b031015611d9f57611d9f8160600151612c6b565b60a08101516001600160a01b0316611db957611db9612c87565b50565b6040805182516001600160a01b03908116602080840191909152840151168183015290820151606080830191909152820151608082015260009060a001604051602081830303815290604052805190602001209050919050565b6000818152600860205260409020546001600160601b0316611db957600081815260086020526040902080546001600160601b031916600117905550565b600081815260086020526040902054611e75906001600160601b0316612ca0565b600090815260086020526040902080546001600160601b0319166002179055565b600080611ead6001600160a01b0387168585612cf2565b6040516330af0bbf60e21b81526001600160a01b0380831660048301529193509086169063c2bc2efc9060240160206040518083038186803b158015611ef257600080fd5b505afa158015611f06573d6000803e3d6000fd5b505050506040513d601f19601f82011682018060405250810190611f2a9190613e06565b90506001600160a01b038116611f4257611f4261266c565b94509492505050565b6001600160a01b038416611fab5760405162461bcd60e51b815260206004820152602160248201527f455243313135353a206d696e7420746f20746865207a65726f206164647265736044820152607360f81b6064820152608401610424565b336000611fb785612d17565b90506000611fc485612d17565b9050611fd583600089858589612a26565b6000868152602081815260408083206001600160a01b038b168452909152812080548792906120059084906141c9565b909155505060408051878152602081018790526001600160a01b03808a1692600092918716917fc3d58168c5ae7397731d063d5bbf3d657854427343f4c083240f7aacaa2d0f62910160405180910390a461206583600089858589612a8d565b61207483600089898989612d62565b50505050505050565b8082101561159157604051631c22ff0160e21b81526004810183905260248101829052604401610424565b600090815260086020526040902080546001600160601b0319166001179055565b60808101516001600160a01b03166120e3576120e361266c565b60608101516001600160601b031015612103576121038160600151612c6b565b60a0810151158015612117575060c0810151155b8015612125575060e0810151155b15611db957611db9612c87565b816001600160a01b0316836001600160a01b031614612316576000818152600960209081526040808320815160808101835281546001600160a01b039081168083526001840154909116948201859052600283015493820193909352600390910154606082015292918291829182916121ee917f0000000000000000000000000000000000000000000000000000000000000000917f000000000000000000000000000000000000000000000000000000000000000091611e96565b6040808801516060890151915163647284f560e01b81529294506001600160a01b038516935063647284f5926122309290600401918252602082015260400190565b60606040518083038186803b15801561224857600080fd5b505afa15801561225c573d6000803e3d6000fd5b505050506040513d601f19601f8201168201806040525081019061228091906140b0565b91955093509150506001600160a01b038716156122cf576122cf6122a488876103bd565b6000878152600b602090815260408083206001600160a01b038d168452909152902090858585612e2c565b6001600160a01b03861615612074576120746122eb87876103bd565b6000878152600b602090815260408083206001600160a01b038c168452909152902090858585612e2c565b505050565b600080600061232e876003015487612ec9565b925061233e876004015486612ec9565b915061234e876005015485612ec9565b90509450945094915050565b8284600301600082825461236e9190614295565b92505081905550818460040160008282546123899190614295565b92505081905550808460050160008282546123a49190614295565b909155505050505050565b6001600160a01b03831661240857600082815260056020526040812080548392906123db908490614295565b90915550506000828152600560205260409020541580156123fa575060015b156124085761240882612edf565b6001600160a01b038416158015906124325750826001600160a01b0316846001600160a01b031614155b156115de5761244184836103bd565b15801561245357506124538483612f9b565b156115de576115de8483612fa7565b6001600160a01b0383166124c45760405162461bcd60e51b815260206004820152602360248201527f455243313135353a206275726e2066726f6d20746865207a65726f206164647260448201526265737360e81b6064820152608401610424565b3360006124d084612d17565b905060006124dd84612d17565b90506124fd83876000858560405180602001604052806000815250612a26565b6000858152602081815260408083206001600160a01b038a1684529091529020548481101561257a5760405162461bcd60e51b8152602060048201526024808201527f455243313135353a206275726e20616d6f756e7420657863656564732062616c604482015263616e636560e01b6064820152608401610424565b6000868152602081815260408083206001600160a01b038b81168086529184528285208a8703905582518b81529384018a90529092908816917fc3d58168c5ae7397731d063d5bbf3d657854427343f4c083240f7aacaa2d0f62910160405180910390a461207484886000868660405180602001604052806000815250612a8d565b6000806000612610878960000151886130f3565b886060015161261f91906141c9565b9250612630878960200151876130f3565b886080015161263f91906141c9565b9150612650878960400151866130f3565b8860a0015161265f91906141c9565b9050955095509592505050565b60405163d92e233d60e01b815260040160405180910390fd5b6001600160a01b03841661271e576000828152600560205260409020541580156126ad575060015b156126fa576126fa82600680546000838152600760205260408120829055600182018355919091527ff652222313e28459528d920b65115c16c04f3efc82aaedc97be59f3f377c0d3f0155565b600082815260056020526040812080548392906127189084906141c9565b90915550505b6001600160a01b038316158015906127485750836001600160a01b0316836001600160a01b031614155b156115de5761275783836103bd565b15801561276957506127698383612f9b565b156115de576001600160a01b03831660009081526003602081815260408084208054600484528286208887528452918520829055928252600181018355918352909120018290556115de565b828460030160008282546127c991906141c9565b92505081905550818460040160008282546127e491906141c9565b92505081905550808460050160008282546123a491906141c9565b816001600160a01b0316836001600160a01b031614156128735760405162461bcd60e51b815260206004820152602960248201527f455243313135353a2073657474696e6720617070726f76616c20737461747573604482015268103337b91039b2b63360b91b6064820152608401610424565b6001600160a01b03838116600081815260016020908152604080832094871680845294825291829020805460ff191686151590811790915591519182527f17307eab39ab6107e8899845ad3d59bd9653f200f220920489ca2b5937696c31910160405180910390a3505050565b6001600160a01b0384166129065760405162461bcd60e51b8152600401610424906141e1565b33600061291285612d17565b9050600061291f85612d17565b905061292f838989858589612a26565b6000868152602081815260408083206001600160a01b038c168452909152902054858110156129705760405162461bcd60e51b815260040161042490614226565b6000878152602081815260408083206001600160a01b038d8116855292528083208985039055908a168252812080548892906129ad9084906141c9565b909155505060408051888152602081018890526001600160a01b03808b16928c821692918816917fc3d58168c5ae7397731d063d5bbf3d657854427343f4c083240f7aacaa2d0f62910160405180910390a4612a0d848a8a86868a612a8d565b612a1b848a8a8a8a8a612d62565b505050505050505050565b612a34868686868686613128565b60005b835181101561207457828181518110612a5257612a52613cf7565b6020026020010151600014612a8557612a858686868481518110612a7857612a78613cf7565b6020026020010151612132565b600101612a37565b60005b835181101561207457828181518110612aab57612aab613cf7565b6020026020010151600014612af857612af88686868481518110612ad157612ad1613cf7565b6020026020010151868581518110612aeb57612aeb613cf7565b60200260200101516123af565b600101612a90565b6001600160a01b0384163b15611d5d5760405163bc197c8160e01b81526001600160a01b0385169063bc197c8190612b4490899089908890889088906004016142ac565b602060405180830381600087803b158015612b5e57600080fd5b505af1925050508015612b8e575060408051601f3d908101601f19168201909252612b8b9181019061430a565b60015b612c3b57612b9a614327565b806308c379a01415612bd45750612baf614343565b80612bba5750612bd6565b8060405162461bcd60e51b81526004016104249190613656565b505b60405162461bcd60e51b815260206004820152603460248201527f455243313135353a207472616e7366657220746f206e6f6e20455243313135356044820152732932b1b2b4bb32b91034b6b83632b6b2b73a32b960611b6064820152608401610424565b6001600160e01b0319811663bc197c8160e01b146120745760405162461bcd60e51b8152600401610424906143cc565b6040516335f135d360e01b815260048101829052602401610424565b60405163af458c0760e01b815260040160405180910390fd5b6001600160601b038116612cc75760405163e2228b1560e01b815260040160405180910390fd5b6001600160601b03811660021415611db95760405163865a6de560e01b815260040160405180910390fd5b6000612cff84848461319b565b90506001600160a01b038116611b2057611b2061266c565b60408051600180825281830190925260609160009190602080830190803683370190505090508281600081518110612d5157612d51613cf7565b602090810291909101015292915050565b6001600160a01b0384163b15611d5d5760405163f23a6e6160e01b81526001600160a01b0385169063f23a6e6190612da69089908990889088908890600401614414565b602060405180830381600087803b158015612dc057600080fd5b505af1925050508015612df0575060408051601f3d908101601f19168201909252612ded9181019061430a565b60015b612dfc57612b9a614327565b6001600160e01b0319811663f23a6e6160e01b146120745760405162461bcd60e51b8152600401610424906143cc565b6001600160a01b03841615612eb557612e4a848660000154856130f3565b856003016000828254612e5d91906141c9565b92505081905550612e73848660010154846130f3565b856004016000828254612e8691906141c9565b92505081905550612e9c848660020154836130f3565b856005016000828254612eaf91906141c9565b90915550505b918455600184015560029092019190915550565b6000818310612ed85781611b20565b5090919050565b600654600090612ef190600190614295565b600083815260076020526040902054909150808214612f6057600060068381548110612f1f57612f1f613cf7565b906000526020600020015490508060068381548110612f4057612f40613cf7565b600091825260208083209091019290925591825260079052604090208190555b6000838152600760205260408120556006805480612f8057612f80614459565b60019003818190600052602060002001600090559055505050565b6000611b208383613220565b6001600160a01b038216600090815260036020526040812054612fcc90600190614295565b6001600160a01b038416600090815260046020908152604080832086845290915290205490915080821461309a576001600160a01b038416600090815260036020526040812080548490811061302457613024613cf7565b906000526020600020015490508060036000876001600160a01b03166001600160a01b03168152602001908152602001600020838154811061306857613068613cf7565b60009182526020808320909101929092556001600160a01b038716815260048252604080822093825292909152208190555b6001600160a01b0384166000818152600460209081526040808320878452825280832083905592825260039052208054806130d7576130d7614459565b6001900381819060005260206000200160009055905550505050565b600082821415613104576000613120565b6131206001600160a01b038516848403600160801b600061340b565b949350505050565b60005b83518110156120745782818151811061314657613146613cf7565b602002602001015160001461319357613193868686848151811061316c5761316c613cf7565b602002602001015186858151811061318657613186613cf7565b6020026020010151612685565b60010161312b565b60405163d81e842360e01b81526001600160a01b03838116600483015282811660248301526000919085169063d81e84239060440160206040518083038186803b1580156131e857600080fd5b505afa1580156131fc573d6000803e3d6000fd5b505050506040513d601f19601f820116820180604052508101906131209190613e06565b6000818152600960209081526040808320815160808101835281546001600160a01b03908116808352600184015490911694820185905260028301549382019390935260039091015460608201529183918291829182916132c5917f0000000000000000000000000000000000000000000000000000000000000000917f00000000000000000000000000000000000000000000000000000000000000009190611e96565b6040808801516060890151915163647284f560e01b81529294506001600160a01b038516935063647284f5926133079290600401918252602082015260400190565b60606040518083038186803b15801561331f57600080fd5b505afa158015613333573d6000803e3d6000fd5b505050506040513d601f19601f8201168201806040525081019061335791906140b0565b60008a8152600b602090815260408083206001600160a01b038f1684528252808320815160c0810183528154815260018201549381019390935260028101549183019190915260038101546060830152600481015460808301526005015460a0820152939750919550935090915080806133de6133d48c8c6103bd565b85908989896125fc565b9250925092508260001480156133f2575081155b80156133fc575080155b9b9a5050505050505050505050565b600080600061341a8787613507565b91509150806000141561343b57613432828686613526565b92505050613120565b80851161346c5760405163362ced0960e11b8152600481018890526024810187905260448101869052606401610424565b600085878909600087810388169788900497600260038a028118808b02820302808b02820302808b02820302808b02820302808b02820302808b029091030291819003819004600101868411909503948502929095039490940417928302935084905080156134ea575084806134e4576134e461446f565b86880915155b156134fd57826134f981613deb565b9350505b5050949350505050565b6000806000198385098385029250828110838203039150509250929050565b60006135328385614485565b905081801561354957506135468385614499565b15155b15611b20578061355881613deb565b95945050505050565b6001600160a01b0381168114611db957600080fd5b803561358181613561565b919050565b6000806040838503121561359957600080fd5b82356135a481613561565b946020939093013593505050565b6001600160e01b031981168114611db957600080fd5b6000602082840312156135da57600080fd5b8135611b20816135b2565b6000602082840312156135f757600080fd5b5035919050565b60005b83811015613619578181015183820152602001613601565b838111156115de5750506000910152565b600081518084526136428160208601602086016135fe565b601f01601f19169290920160200192915050565b602081526000611b20602083018461362a565b634e487b7160e01b600052604160045260246000fd5b601f8201601f191681016001600160401b03811182821017156136a4576136a4613669565b6040525050565b60405160e081016001600160401b03811182821017156136cd576136cd613669565b60405290565b60405161012081016001600160401b03811182821017156136cd576136cd613669565b60006001600160401b0382111561370f5761370f613669565b5060051b60200190565b600082601f83011261372a57600080fd5b81356020613737826136f6565b604051613744828261367f565b83815260059390931b850182019282810191508684111561376457600080fd5b8286015b8481101561377f5780358352918301918301613768565b509695505050505050565b60006001600160401b038211156137a3576137a3613669565b50601f01601f191660200190565b600082601f8301126137c257600080fd5b81356137cd8161378a565b6040516137da828261367f565b8281528560208487010111156137ef57600080fd5b82602086016020830137600092810160200192909252509392505050565b600080600080600060a0868803121561382557600080fd5b853561383081613561565b9450602086013561384081613561565b935060408601356001600160401b038082111561385c57600080fd5b61386889838a01613719565b9450606088013591508082111561387e57600080fd5b61388a89838a01613719565b935060808801359150808211156138a057600080fd5b506138ad888289016137b1565b9150509295509295909350565b600060e082840312156138cc57600080fd5b50919050565b6000602082840312156138e457600080fd5b81356001600160401b038111156138fa57600080fd5b613120848285016138ba565b6000806040838503121561391957600080fd5b82356001600160401b038082111561393057600080fd5b818501915085601f83011261394457600080fd5b81356020613951826136f6565b60405161395e828261367f565b83815260059390931b850182019282810191508984111561397e57600080fd5b948201945b838610156139a557853561399681613561565b82529482019490820190613983565b965050860135925050808211156139bb57600080fd5b506139c885828601613719565b9150509250929050565b600081518084526020808501945080840160005b83811015613a02578151875295820195908201906001016139e6565b509495945050505050565b602081526000611b2060208301846139d2565b600061012082840312156138cc57600080fd5b600060208284031215613a4557600080fd5b81356001600160401b03811115613a5b57600080fd5b61312084828501613a20565b848152836020820152826040820152608060608201526000613a8c608083018461362a565b9695505050505050565b6000608082840312156138cc57600080fd5b60008060a08385031215613abb57600080fd5b8235613ac681613561565b9150613ad58460208501613a96565b90509250929050565b6000806000806000806101208789031215613af857600080fd5b8635613b0381613561565b95506020870135613b1381613561565b9450613b228860408901613a96565b935060c0870135925060e0870135915061010087013590509295509295509295565b60008060408385031215613b5757600080fd5b8235613b6281613561565b915060208301358015158114613b7757600080fd5b809150509250929050565b60008060008060e08587031215613b9857600080fd5b8435613ba381613561565b93506020850135613bb381613561565b9250613bc28660408701613a96565b915060c0850135613bd281613561565b939692955090935050565b60008060408385031215613bf057600080fd5b8235613bfb81613561565b91506020830135613b7781613561565b600080600080600060a08688031215613c2357600080fd5b8535613c2e81613561565b94506020860135613c3e81613561565b9350604086013592506060860135915060808601356001600160401b03811115613c6757600080fd5b6138ad888289016137b1565b600181811c90821680613c8757607f821691505b602082108114156138cc57634e487b7160e01b600052602260045260246000fd5b6020808252602f908201527f455243313135353a2063616c6c6572206973206e6f7420746f6b656e206f776e60408201526e195c881b9bdc88185c1c1c9bdd9959608a1b606082015260800190565b634e487b7160e01b600052603260045260246000fd5b600060e08284031215613d1f57600080fd5b613d276136ab565b9050613d3282613576565b8152613d4060208301613576565b60208201526040820135604082015260608201356060820152613d6560808301613576565b6080820152613d7660a08301613576565b60a082015260c08201356001600160401b03811115613d9457600080fd5b613da0848285016137b1565b60c08301525092915050565b600061049f3683613d0d565b600060208284031215613dca57600080fd5b8135611b2081613561565b634e487b7160e01b600052601160045260246000fd5b6000600019821415613dff57613dff613dd5565b5060010190565b600060208284031215613e1857600080fd5b8151611b2081613561565b60006001600160a01b03828116848216808303821115613e4557613e45613dd5565b01949350505050565b6000808335601e19843603018112613e6557600080fd5b8301803591506001600160401b03821115613e7f57600080fd5b602001915036819003821315613e9457600080fd5b9250929050565b600060018060a01b0380835116845280602084015116602085015260408301516040850152606083015160608501528060808401511660808501525060a082015160c060a085015261312060c085018261362a565b602081526000611b206020830184613e9b565b600060208284031215613f1557600080fd5b81516001600160401b03811115613f2b57600080fd5b8201601f81018413613f3c57600080fd5b8051613f478161378a565b604051613f54828261367f565b828152866020848601011115613f6957600080fd5b613a8c8360208301602087016135fe565b60006101208284031215613f8d57600080fd5b613f956136d3565b9050613fa082613576565b8152613fae60208301613576565b60208201526040820135604082015260608201356060820152613fd360808301613576565b608082015260a082013560a082015260c082013560c082015260e082013560e0820152610100808301356001600160401b0381111561401157600080fd5b61401d858286016137b1565b82840152505092915050565b600061049f3683613f7a565b600061010060018060a01b038084511685528060208501511660208601525060408301516040850152606083015160608501526080830151608085015260a083015160a085015260c083015160c085015260e08301518160e08601526135588286018261362a565b602081526000611b206020830184614035565b6000806000606084860312156140c557600080fd5b8351925060208401519150604084015190509250925092565b6000608082840312156140f057600080fd5b604051608081018181106001600160401b038211171561411257614112613669565b604052823561412081613561565b8152602083013561413081613561565b6020820152604083810135908201526060928301359281019290925250919050565b6001600160a01b0387811682528681166020830152610120820190863561417881613561565b81166040840152602087013561418d81613561565b8181166060850152505060408601356080830152606086013560a08301528460c08301528360e083015282610100830152979650505050505050565b600082198211156141dc576141dc613dd5565b500190565b60208082526025908201527f455243313135353a207472616e7366657220746f20746865207a65726f206164604082015264647265737360d81b606082015260800190565b6020808252602a908201527f455243313135353a20696e73756666696369656e742062616c616e636520666f60408201526939103a3930b739b332b960b11b606082015260800190565b60408152600061428360408301856139d2565b828103602084015261355881856139d2565b6000828210156142a7576142a7613dd5565b500390565b6001600160a01b0386811682528516602082015260a0604082018190526000906142d8908301866139d2565b82810360608401526142ea81866139d2565b905082810360808401526142fe818561362a565b98975050505050505050565b60006020828403121561431c57600080fd5b8151611b20816135b2565b600060033d11156143405760046000803e5060005160e01c5b90565b600060443d10156143515790565b6040516003193d81016004833e81513d6001600160401b03816024840111818411171561438057505050505090565b82850191508151818111156143985750505050505090565b843d87010160208285010111156143b25750505050505090565b6143c16020828601018761367f565b509095945050505050565b60208082526028908201527f455243313135353a204552433131353552656365697665722072656a656374656040820152676420746f6b656e7360c01b606082015260800190565b6001600160a01b03868116825285166020820152604081018490526060810183905260a06080820181905260009061444e9083018461362a565b979650505050505050565b634e487b7160e01b600052603160045260246000fd5b634e487b7160e01b600052601260045260246000fd5b6000826144945761449461446f565b500490565b6000826144a8576144a861446f565b50069056fea2646970667358221220688adb8ac3454aad140ea3a4a9c922fdc11af151552dc4393fe3a3a40c61c56664736f6c63430008080033",
  "linkReferences": {},
  "deployedLinkReferences": {}
}