{
  "_format": "hh-sol-artifact-1",
  "contractName": "TimeswapV2PeripheryUniswapV3LendGivenPrincipal",
  "sourceName": "@timeswap-labs/v2-periphery-uniswapV3/contracts/TimeswapV2PeripheryUniswapV3LendGivenPrincipal.sol",
  "abi": [
    {
      "inputs": [
        {
          "internalType": "address",
          "name": "chosenOptionFactory",
          "type": "address"
        },
        {
          "internalType": "address",
          "name": "chosenPoolFactory",
          "type": "address"
        },
        {
          "internalType": "address",
          "name": "chosenTokens",
          "type": "address"
        },
        {
          "internalType": "address",
          "name": "chosenUniswapV3Factory",
          "type": "address"
        },
        {
          "internalType": "address",
          "name": "chosenNative",
          "type": "address"
        }
      ],
      "stateMutability": "nonpayable",
      "type": "constructor"
    },
    {
      "inputs": [
        {
          "internalType": "uint256",
          "name": "addendA0",
          "type": "uint256"
        },
        {
          "internalType": "uint256",
          "name": "addendA1",
          "type": "uint256"
        },
        {
          "internalType": "uint256",
          "name": "addendB0",
          "type": "uint256"
        },
        {
          "internalType": "uint256",
          "name": "addendB1",
          "type": "uint256"
        }
      ],
      "name": "AddOverflow",
      "type": "error"
    },
    {
      "inputs": [],
      "name": "CanOnlyBeCalledByOptionContract",
      "type": "error"
    },
    {
      "inputs": [],
      "name": "CanOnlyBeCalledByPoolContract",
      "type": "error"
    },
    {
      "inputs": [],
      "name": "CanOnlyBeCalledByTokensContract",
      "type": "error"
    },
    {
      "inputs": [],
      "name": "CanOnlyBeCalledByUniswapV3Contract",
      "type": "error"
    },
    {
      "inputs": [
        {
          "internalType": "uint256",
          "name": "deadline",
          "type": "uint256"
        }
      ],
      "name": "DeadlineReached",
      "type": "error"
    },
    {
      "inputs": [
        {
          "internalType": "uint256",
          "name": "dividend0",
          "type": "uint256"
        },
        {
          "internalType": "uint256",
          "name": "dividend1",
          "type": "uint256"
        },
        {
          "internalType": "uint256",
          "name": "divisor",
          "type": "uint256"
        }
      ],
      "name": "DivOverflow",
      "type": "error"
    },
    {
      "inputs": [],
      "name": "DivideByZero",
      "type": "error"
    },
    {
      "inputs": [
        {
          "internalType": "uint256",
          "name": "positionAmount",
          "type": "uint256"
        },
        {
          "internalType": "uint256",
          "name": "minReturnAmount",
          "type": "uint256"
        }
      ],
      "name": "MinPositionReached",
      "type": "error"
    },
    {
      "inputs": [],
      "name": "ModuloByZero",
      "type": "error"
    },
    {
      "inputs": [
        {
          "internalType": "uint256",
          "name": "multiplicand",
          "type": "uint256"
        },
        {
          "internalType": "uint256",
          "name": "multiplier",
          "type": "uint256"
        },
        {
          "internalType": "uint256",
          "name": "divisor",
          "type": "uint256"
        }
      ],
      "name": "MulDivOverflow",
      "type": "error"
    },
    {
      "inputs": [
        {
          "internalType": "string",
          "name": "revertString",
          "type": "string"
        }
      ],
      "name": "MulticallFailed",
      "type": "error"
    },
    {
      "inputs": [
        {
          "internalType": "address",
          "name": "to",
          "type": "address"
        },
        {
          "internalType": "uint256",
          "name": "value",
          "type": "uint256"
        }
      ],
      "name": "NativeTransferFailed",
      "type": "error"
    },
    {
      "inputs": [
        {
          "internalType": "int256",
          "name": "amount0",
          "type": "int256"
        },
        {
          "internalType": "int256",
          "name": "amount1",
          "type": "int256"
        }
      ],
      "name": "PassCalculateInfo",
      "type": "error"
    },
    {
      "inputs": [],
      "name": "Uint160Overflow",
      "type": "error"
    },
    {
      "inputs": [],
      "name": "ZeroAddress",
      "type": "error"
    },
    {
      "inputs": [],
      "name": "ZeroPoolAddress",
      "type": "error"
    },
    {
      "anonymous": false,
      "inputs": [
        {
          "indexed": true,
          "internalType": "address",
          "name": "token0",
          "type": "address"
        },
        {
          "indexed": true,
          "internalType": "address",
          "name": "token1",
          "type": "address"
        },
        {
          "indexed": false,
          "internalType": "uint256",
          "name": "strike",
          "type": "uint256"
        },
        {
          "indexed": true,
          "internalType": "uint256",
          "name": "maturity",
          "type": "uint256"
        },
        {
          "indexed": false,
          "internalType": "uint24",
          "name": "uniswapV3Fee",
          "type": "uint24"
        },
        {
          "indexed": false,
          "internalType": "address",
          "name": "from",
          "type": "address"
        },
        {
          "indexed": false,
          "internalType": "address",
          "name": "to",
          "type": "address"
        },
        {
          "indexed": false,
          "internalType": "bool",
          "name": "isToken0",
          "type": "bool"
        },
        {
          "indexed": false,
          "internalType": "uint256",
          "name": "tokenAmount",
          "type": "uint256"
        },
        {
          "indexed": false,
          "internalType": "uint256",
          "name": "positionAmount",
          "type": "uint256"
        }
      ],
      "name": "LendGivenPrincipal",
      "type": "event"
    },
    {
      "inputs": [
        {
          "components": [
            {
              "internalType": "address",
              "name": "token0",
              "type": "address"
            },
            {
              "internalType": "address",
              "name": "token1",
              "type": "address"
            },
            {
              "internalType": "uint256",
              "name": "strike",
              "type": "uint256"
            },
            {
              "internalType": "uint256",
              "name": "maturity",
              "type": "uint256"
            },
            {
              "internalType": "uint24",
              "name": "uniswapV3Fee",
              "type": "uint24"
            },
            {
              "internalType": "address",
              "name": "to",
              "type": "address"
            },
            {
              "internalType": "bool",
              "name": "isToken0",
              "type": "bool"
            },
            {
              "internalType": "uint256",
              "name": "tokenAmount",
              "type": "uint256"
            },
            {
              "internalType": "uint256",
              "name": "minReturnAmount",
              "type": "uint256"
            },
            {
              "internalType": "uint256",
              "name": "deadline",
              "type": "uint256"
            }
          ],
          "internalType": "struct TimeswapV2PeripheryUniswapV3LendGivenPrincipalParam",
          "name": "param",
          "type": "tuple"
        }
      ],
      "name": "lendGivenPrincipal",
      "outputs": [
        {
          "internalType": "uint256",
          "name": "positionAmount",
          "type": "uint256"
        }
      ],
      "stateMutability": "payable",
      "type": "function"
    },
    {
      "inputs": [
        {
          "internalType": "bytes[]",
          "name": "data",
          "type": "bytes[]"
        }
      ],
      "name": "multicall",
      "outputs": [
        {
          "internalType": "bytes[]",
          "name": "results",
          "type": "bytes[]"
        }
      ],
      "stateMutability": "payable",
      "type": "function"
    },
    {
      "inputs": [],
      "name": "optionFactory",
      "outputs": [
        {
          "internalType": "address",
          "name": "",
          "type": "address"
        }
      ],
      "stateMutability": "view",
      "type": "function"
    },
    {
      "inputs": [],
      "name": "poolFactory",
      "outputs": [
        {
          "internalType": "address",
          "name": "",
          "type": "address"
        }
      ],
      "stateMutability": "view",
      "type": "function"
    },
    {
      "inputs": [],
      "name": "refundNatives",
      "outputs": [],
      "stateMutability": "payable",
      "type": "function"
    },
    {
      "inputs": [
        {
          "components": [
            {
              "internalType": "uint256",
              "name": "strike",
              "type": "uint256"
            },
            {
              "internalType": "uint256",
              "name": "maturity",
              "type": "uint256"
            },
            {
              "internalType": "uint256",
              "name": "token0AndLong0Amount",
              "type": "uint256"
            },
            {
              "internalType": "uint256",
              "name": "token1AndLong1Amount",
              "type": "uint256"
            },
            {
              "internalType": "uint256",
              "name": "shortAmount",
              "type": "uint256"
            },
            {
              "internalType": "bytes",
              "name": "data",
              "type": "bytes"
            }
          ],
          "internalType": "struct TimeswapV2OptionMintCallbackParam",
          "name": "param",
          "type": "tuple"
        }
      ],
      "name": "timeswapV2OptionMintCallback",
      "outputs": [
        {
          "internalType": "bytes",
          "name": "data",
          "type": "bytes"
        }
      ],
      "stateMutability": "nonpayable",
      "type": "function"
    },
    {
      "inputs": [
        {
          "components": [
            {
              "internalType": "uint256",
              "name": "strike",
              "type": "uint256"
            },
            {
              "internalType": "uint256",
              "name": "maturity",
              "type": "uint256"
            },
            {
              "internalType": "uint256",
              "name": "long0Amount",
              "type": "uint256"
            },
            {
              "internalType": "uint256",
              "name": "long1Amount",
              "type": "uint256"
            },
            {
              "internalType": "uint256",
              "name": "shortAmount",
              "type": "uint256"
            },
            {
              "internalType": "bytes",
              "name": "data",
              "type": "bytes"
            }
          ],
          "internalType": "struct TimeswapV2PoolDeleverageCallbackParam",
          "name": "param",
          "type": "tuple"
        }
      ],
      "name": "timeswapV2PoolDeleverageCallback",
      "outputs": [
        {
          "internalType": "bytes",
          "name": "data",
          "type": "bytes"
        }
      ],
      "stateMutability": "nonpayable",
      "type": "function"
    },
    {
      "inputs": [
        {
          "components": [
            {
              "internalType": "uint256",
              "name": "strike",
              "type": "uint256"
            },
            {
              "internalType": "uint256",
              "name": "maturity",
              "type": "uint256"
            },
            {
              "internalType": "uint256",
              "name": "longAmount",
              "type": "uint256"
            },
            {
              "internalType": "uint256",
              "name": "shortAmount",
              "type": "uint256"
            },
            {
              "internalType": "bytes",
              "name": "data",
              "type": "bytes"
            }
          ],
          "internalType": "struct TimeswapV2PoolDeleverageChoiceCallbackParam",
          "name": "param",
          "type": "tuple"
        }
      ],
      "name": "timeswapV2PoolDeleverageChoiceCallback",
      "outputs": [
        {
          "internalType": "uint256",
          "name": "long0Amount",
          "type": "uint256"
        },
        {
          "internalType": "uint256",
          "name": "long1Amount",
          "type": "uint256"
        },
        {
          "internalType": "bytes",
          "name": "data",
          "type": "bytes"
        }
      ],
      "stateMutability": "view",
      "type": "function"
    },
    {
      "inputs": [
        {
          "components": [
            {
              "internalType": "address",
              "name": "token0",
              "type": "address"
            },
            {
              "internalType": "address",
              "name": "token1",
              "type": "address"
            },
            {
              "internalType": "uint256",
              "name": "strike",
              "type": "uint256"
            },
            {
              "internalType": "uint256",
              "name": "maturity",
              "type": "uint256"
            },
            {
              "internalType": "uint256",
              "name": "long0Amount",
              "type": "uint256"
            },
            {
              "internalType": "uint256",
              "name": "long1Amount",
              "type": "uint256"
            },
            {
              "internalType": "uint256",
              "name": "shortAmount",
              "type": "uint256"
            },
            {
              "internalType": "bytes",
              "name": "data",
              "type": "bytes"
            }
          ],
          "internalType": "struct TimeswapV2TokenMintCallbackParam",
          "name": "param",
          "type": "tuple"
        }
      ],
      "name": "timeswapV2TokenMintCallback",
      "outputs": [
        {
          "internalType": "bytes",
          "name": "data",
          "type": "bytes"
        }
      ],
      "stateMutability": "nonpayable",
      "type": "function"
    },
    {
      "inputs": [],
      "name": "tokens",
      "outputs": [
        {
          "internalType": "address",
          "name": "",
          "type": "address"
        }
      ],
      "stateMutability": "view",
      "type": "function"
    },
    {
      "inputs": [],
      "name": "uniswapV3Factory",
      "outputs": [
        {
          "internalType": "address",
          "name": "",
          "type": "address"
        }
      ],
      "stateMutability": "view",
      "type": "function"
    },
    {
      "inputs": [
        {
          "internalType": "int256",
          "name": "amount0Delta",
          "type": "int256"
        },
        {
          "internalType": "int256",
          "name": "amount1Delta",
          "type": "int256"
        },
        {
          "internalType": "bytes",
          "name": "data",
          "type": "bytes"
        }
      ],
      "name": "uniswapV3SwapCallback",
      "outputs": [],
      "stateMutability": "nonpayable",
      "type": "function"
    },
    {
      "inputs": [],
      "name": "wrappedNativeToken",
      "outputs": [
        {
          "internalType": "address",
          "name": "",
          "type": "address"
        }
      ],
      "stateMutability": "view",
      "type": "function"
    }
  ],
  "bytecode": "0x6101206040523480156200001257600080fd5b506040516200337f3803806200337f833981016040819052620000359162000089565b6001600160601b0319606092831b811660805294821b851660a05292811b841660c05290811b831660e0521b1661010052620000f9565b80516001600160a01b03811681146200008457600080fd5b919050565b600080600080600060a08688031215620000a257600080fd5b620000ad866200006c565b9450620000bd602087016200006c565b9350620000cd604087016200006c565b9250620000dd606087016200006c565b9150620000ed608087016200006c565b90509295509295909350565b60805160601c60a05160601c60c05160601c60e05160601c6101005160601c6131ca620001b56000396000818160d90152818161170a01526117500152600081816101df015281816103590152610ca601526000818161012a0152818161057e01528181610701015261140b015260008181610262015281816103200152818161055d015281816106e001528181610cd101526113ea01526000818161018b0152818161091001528181610ddd015261181601526131ca6000f3fe6080604052600436106100c25760003560e01c8063aaac7a741161007f578063d7e14e8811610059578063d7e14e8814610284578063dfef25d8146102a5578063e13c022c146102af578063fa461e33146102cf57600080fd5b8063aaac7a7414610201578063ac9650d814610230578063b3461c871461025057600080fd5b806317fcb39b146100c75780634219dc40146101185780634a358d651461014c5780635b5491821461017957806387a8993a146101ad5780639d63848a146101cd575b600080fd5b3480156100d357600080fd5b506100fb7f000000000000000000000000000000000000000000000000000000000000000081565b6040516001600160a01b0390911681526020015b60405180910390f35b34801561012457600080fd5b506100fb7f000000000000000000000000000000000000000000000000000000000000000081565b34801561015857600080fd5b5061016c61016736600461237f565b6102ef565b60405161010f9190612475565b34801561018557600080fd5b506100fb7f000000000000000000000000000000000000000000000000000000000000000081565b3480156101b957600080fd5b5061016c6101c8366004612488565b61052d565b3480156101d957600080fd5b506100fb7f000000000000000000000000000000000000000000000000000000000000000081565b34801561020d57600080fd5b5061022161021c3660046124c2565b6106ab565b60405161010f939291906124fc565b61024361023e36600461251b565b61075a565b60405161010f919061258f565b34801561025c57600080fd5b506100fb7f000000000000000000000000000000000000000000000000000000000000000081565b6102976102923660046125f1565b6108ec565b60405190815260200161010f565b6102ad610c8d565b005b3480156102bb57600080fd5b5061016c6102ca36600461260a565b610c9f565b3480156102db57600080fd5b506102ad6102ea366004612645565b610d9d565b60606000806000808560a0015180602001905181019061030f9190612729565b9850929650909450925090506103467f00000000000000000000000000000000000000000000000000000000000000008585610e49565b608086015161035590826127c0565b90507f00000000000000000000000000000000000000000000000000000000000000006001600160a01b0316634fd991ea604051806101600160405280876001600160a01b03168152602001866001600160a01b031681526020018960000151815260200189602001518152602001306001600160a01b03168152602001306001600160a01b03168152602001856001600160a01b031681526020016000815260200160008152602001848152602001604051806020016040528060008152508152506040518263ffffffff1660e01b815260040161043491906127d8565b600060405180830381600087803b15801561044e57600080fd5b505af1158015610462573d6000803e3d6000fd5b505050506040513d6000823e601f3d908101601f1916820160405261048a91908101906128a9565b506104fe604051806101200160405280336001600160a01b03168152602001866001600160a01b03168152602001856001600160a01b031681526020018860000151815260200188602001518152602001886040015181526020018860600151815260200183815260200187815250610eff565b945080856040516020016105139291906128dd565b604051602081830303815290604052945050505050919050565b60606000808061054060a08601866128f6565b81019061054d9190612943565b96509194509250905060006105a47f00000000000000000000000000000000000000000000000000000000000000007f00000000000000000000000000000000000000000000000000000000000000008686610fe1565b90508383838860800135886040516020016105c39594939291906129b7565b60408051808303601f1901815261012083018252883583526020808a01359084015233838301819052606080850191909152306080850152600060a08501528983013560c085015289013560e0840152610100830181905290516380e0667960e01b81529096506001600160a01b038316916380e06679916106489190600401612a1c565b600060405180830381600087803b15801561066257600080fd5b505af1158015610676573d6000803e3d6000fd5b505050506040513d6000823e601f3d908101601f1916820160405261069e9190810190612abe565b9998505050505050505050565b60008060608180806106c060808801886128f6565b8101906106cd9190612b0b565b919a5098509650919450925090506107277f00000000000000000000000000000000000000000000000000000000000000007f00000000000000000000000000000000000000000000000000000000000000008585610fe1565b508282828660405160200161073f9493929190612b91565b60405160208183030381529060405293505050509193909250565b6060816001600160401b0381111561077457610774612294565b6040519080825280602002602001820160405280156107a757816020015b60608152602001906001900390816107925790505b50905060005b828110156108e557600080308686858181106107cb576107cb612bc5565b90506020028101906107dd91906128f6565b6040516107eb929190612bdb565b600060405180830381855af49150503d8060008114610826576040519150601f19603f3d011682016040523d82523d6000602084013e61082b565b606091505b5091509150816108b25760448151101561087e57604051635d2f436f60e11b815260206004820152600e60248201526d125b9d985b1a590814995cdd5b1d60921b60448201526064015b60405180910390fd5b600481019050808060200190518101906108989190612beb565b604051635d2f436f60e11b81526004016108759190612475565b808484815181106108c5576108c5612bc5565b6020026020010181905250505080806108dd90612c33565b9150506107ad565b5092915050565b600042826101200135101561090957610909826101200135611119565b60006109617f000000000000000000000000000000000000000000000000000000000000000061093c6020860186612c4e565b61094c6040870160208801612c4e565b61095c60a0880160808901612c7c565b611135565b90506000336109736020860186612c4e565b6109836040870160208801612c4e565b61099360a0880160808901612c7c565b604080516001600160a01b039586166020820152938516908401529216606082015262ffffff909116608082015260a00160405160208183030381529060405290506001816040516020016109e9929190612c99565b60408051601f1981840301815260c080840190925230835292506000918291610a5991906020820190610a229060e08b01908b01612cc2565b151581526001602082015260e089013560408083019190915289013560608201526080018590526001600160a01b0386169061115f565b909250905033610a6f60e0880160c08901612cc2565b604080516001600160a01b0390931660208401529015159082015260600160408051601f1981840301815261010083019091529350610b729080610ab660208a018a612c4e565b6001600160a01b03168152602001886020016020810190610ad79190612c4e565b6001600160a01b0316815260200188604001358152602001886060013581526020018860a0016020810190610b0c9190612c4e565b6001600160a01b03168152602001610b2a60e08a0160c08b01612cc2565b610b345783610b3d565b60e08901358590035b8152602001610b5260e08a0160c08b01612cc2565b610b635760e0890135859003610b65565b835b81526020018590526113df565b509450610100860135851015610ba95760405163ad4adf6960e01b8152600481018690526101008701356024820152604401610875565b6060860135610bbe6040880160208901612c4e565b6001600160a01b0316610bd46020890189612c4e565b6001600160a01b03167fc09bbf498c2735bad796c53c5f4c77b70df4a7e2d96bbc00ca146fd90ccac36660408a0135610c1360a08c0160808d01612c7c565b33610c2460c08e0160a08f01612c4e565b8d60c0016020810190610c379190612cc2565b6040805195865262ffffff90941660208601526001600160a01b03928316938501939093521660608301521515608082015260e0808c013560a083015260c082018b90520160405180910390a450505050919050565b4715610c9d57610c9d3347611572565b565b6060610cca7f0000000000000000000000000000000000000000000000000000000000000000611617565b6000610d127f0000000000000000000000000000000000000000000000000000000000000000610cfd6020860186612c4e565b610d0d6040870160208801612c4e565b611643565b9050806001600160a01b031663b2ceca77846040013585606001353360028860c001356040518663ffffffff1660e01b8152600401610d55959493929190612cdf565b600060405180830381600087803b158015610d6f57600080fd5b505af1158015610d83573d6000803e3d6000fd5b505060408051602081019091526000815295945050505050565b600080610dac83850185612d1f565b915091508115610e365760008060008084806020019051810190610dd09190612d6e565b9350935093509350610e047f00000000000000000000000000000000000000000000000000000000000000008484846116c8565b610e2d60008b13610e155782610e17565b835b853360008e13610e27578c611708565b8d611708565b50505050610e41565b610e418686836117f2565b505050505050565b60405163d81e842360e01b81526001600160a01b03838116600483015282811660248301526000919085169063d81e84239060440160206040518083038186803b158015610e9657600080fd5b505afa158015610eaa573d6000803e3d6000fd5b505050506040513d601f19601f82011682018060405250810190610ece9190612dcd565b90506001600160a01b0381163314610ef95760405163a5fbb7d960e01b815260040160405180910390fd5b50505050565b6060600080836101000151806020019051810190610f1d9190612dea565b9150915080610f30578360c00151610f36565b8360a001515b15610f7057610f7081610f4d578460400151610f53565b84602001515b8551849084610f66578760c00151611708565b8760a00151611708565b80610f7f578360a00151610f85565b8360c001515b15610fca578351610fca9082610f9f578560a00151610fa5565b8560c001515b83610fb4578660200151610fba565b86604001515b6001600160a01b03169190611847565b505060408051602081019091526000815292915050565b60405163d81e842360e01b81526001600160a01b03838116600483015282811660248301526000919086169063d81e84239060440160206040518083038186803b15801561102e57600080fd5b505afa158015611042573d6000803e3d6000fd5b505050506040513d601f19601f820116820180604052508101906110669190612dcd565b6040516330af0bbf60e21b81526001600160a01b03808316600483015291925060009186169063c2bc2efc9060240160206040518083038186803b1580156110ad57600080fd5b505afa1580156110c1573d6000803e3d6000fd5b505050506040513d601f19601f820116820180604052508101906110e59190612dcd565b90506001600160a01b03811633146111105760405163863b47e760e01b815260040160405180910390fd5b50949350505050565b60405163070b57d960e41b815260048101829052602401610875565b6000611143858585856118aa565b9050611157816001600160a01b0316611943565b949350505050565b6000806000846001600160a01b0316633850c7bd6040518163ffffffff1660e01b815260040160e06040518083038186803b15801561119d57600080fd5b505afa1580156111b1573d6000803e3d6000fd5b505050506040513d601f19601f820116820180604052508101906111d59190612e3b565b5050505050509050600084608001516000141561122957846020015161121957611214600173fffd8963efd1fc6a506488495d951d5263988d26612eda565b611236565b6112146401000276a36001612f02565b611236856080015161196a565b90506401000276a36001600160a01b038216116112605761125d6401000276a36001612f02565b90505b73fffd8963efd1fc6a506488495d951d5263988d266001600160a01b038216106112a6576112a3600173fffd8963efd1fc6a506488495d951d5263988d26612eda565b90505b84602001516112c957806001600160a01b0316826001600160a01b0316106112df565b806001600160a01b0316826001600160a01b0316115b156113d657600080876001600160a01b031663128acb08886000015189602001518a60400151611324576113168b606001516119c0565b61131f90612f2d565b611331565b6113318b606001516119c0565b878c60a001516040518663ffffffff1660e01b8152600401611357959493929190612f4a565b6040805180830381600087803b15801561137057600080fd5b505af1158015611384573d6000803e3d6000fd5b505050506040513d601f19601f820116820180604052508101906113a89190612f85565b9150915086602001516113c457806113bf83612f2d565b6113ce565b816113ce82612f2d565b909650945050505b50509250929050565b6000606060006114397f00000000000000000000000000000000000000000000000000000000000000007f0000000000000000000000000000000000000000000000000000000000000000866000015187602001516119d6565b9150508360000151846020015185608001518660a001518760c001518860e0015160405160200161146f96959493929190612fa9565b60408051601f1981840301815260c0830182528682015183526060808801516020850152309284019290925293506001600160a01b038316916378fb9d38918101600181526020016114d08860a001518960c001518a604001516000611a8b565b8152602001858152506040518263ffffffff1660e01b81526004016114f59190612ff7565b600060405180830381600087803b15801561150f57600080fd5b505af1158015611523573d6000803e3d6000fd5b505050506040513d6000823e601f3d908101601f1916820160405261154b9190810190612abe565b805190955061156793508501602090810192508501905061305e565b909590945092505050565b604080516000808252602082019092526001600160a01b03841690839060405161159c919061309a565b60006040518083038185875af1925050503d80600081146115d9576040519150601f19603f3d011682016040523d82523d6000602084013e6115de565b606091505b50509050806116125760405163296c17bb60e21b81526001600160a01b038416600482015260248101839052604401610875565b505050565b6001600160a01b03811633146116405760405163d2bc8fc960e01b815260040160405180910390fd5b50565b60405163d81e842360e01b81526001600160a01b03838116600483015282811660248301526000919085169063d81e84239060440160206040518083038186803b15801561169057600080fd5b505afa1580156116a4573d6000803e3d6000fd5b505050506040513d601f19601f820116820180604052508101906111579190612dcd565b60006116d6858585856118aa565b90506001600160a01b0381163314611701576040516307c1698f60e01b815260040160405180910390fd5b5050505050565b7f00000000000000000000000000000000000000000000000000000000000000006001600160a01b0316846001600160a01b03161480156117495750804710155b156117dd577f00000000000000000000000000000000000000000000000000000000000000006001600160a01b031663d0e30db0826040518263ffffffff1660e01b81526004016000604051808303818588803b1580156117a957600080fd5b505af11580156117bd573d6000803e3d6000fd5b506117d8935050506001600160a01b03861690508383611847565b610ef9565b610ef96001600160a01b038516848484611ace565b60008060008380602001905181019061180b91906130b6565b92509250925061183d7f00000000000000000000000000000000000000000000000000000000000000008484846116c8565b610e418686611b06565b6040516001600160a01b03831660248201526044810182905261161290849063a9059cbb60e01b906064015b60408051601f198184030181529190526020810180516001600160e01b03166001600160e01b031990931692909217909152611b29565b604051630b4c774160e11b81526001600160a01b038481166004830152838116602483015262ffffff8316604483015260009190861690631698ee829060640160206040518083038186803b15801561190257600080fd5b505afa158015611916573d6000803e3d6000fd5b505050506040513d601f19601f8201168201806040525081019061193a9190612dcd565b95945050505050565b6001600160a01b0381166116405760405163037064f160e01b815260040160405180910390fd5b60006001600160c01b0382116119975761199161198c604084901b6000611bfb565b611c79565b92915050565b6000806119ad8468010000000000000000611ca3565b9150915061115761198c83836000611cc2565b6000600160ff1b82106119d257600080fd5b5090565b6000806119ed6001600160a01b0387168585611d51565b6040516330af0bbf60e21b81526001600160a01b0380831660048301529193509086169063c2bc2efc9060240160206040518083038186803b158015611a3257600080fd5b505afa158015611a46573d6000803e3d6000fd5b505050506040513d601f19601f82011682018060405250810190611a6a9190612dcd565b90506001600160a01b038116611a8257611a82611d72565b94509492505050565b60006001600160801b038311611ab757611aa88584600185611d8b565b611ab290856127c0565b61193a565b611ac48484600085611d8b565b61193a90866127c0565b6040516001600160a01b0380851660248301528316604482015260648101829052610ef99085906323b872dd60e01b90608401611873565b6040516377760aaf60e11b81526004810183905260248101829052604401610875565b6000611b7e826040518060400160405280602081526020017f5361666545524332303a206c6f772d6c6576656c2063616c6c206661696c6564815250856001600160a01b0316611db29092919063ffffffff16565b8051909150156116125780806020019051810190611b9c9190613103565b6116125760405162461bcd60e51b815260206004820152602a60248201527f5361666545524332303a204552433230206f7065726174696f6e20646964206e6044820152691bdd081cdd58d8d9595960b21b6064820152608401610875565b6000600019831415611c1557506001600160801b03611991565b82611c2257506000611991565b50816001818101901c5b81811015611c5457809150600181828681611c4957611c49613120565b0401901c9050611c2c565b50818015611c6a575082611c688280613136565b105b15611991578061115781612c33565b60006001600160a01b038211156119d257604051630ba006e160e41b815260040160405180910390fd5b6000806000198385098385029250828110838203039150509250929050565b600082611cda57611cd38483611bfb565b9050611d4a565b6000611ce98585600019611dc1565b905060001991505b81811015611d0e57809150611d07858583611dc1565b9050611cf1565b8215611d4857600080611d218485611ca3565b9150915080861180611d3257508187115b15611d455783611d4181612c33565b9450505b50505b505b9392505050565b6000611d5e848484611643565b90506001600160a01b038116611d4a57611d4a5b60405163d92e233d60e01b815260040160405180910390fd5b600082611da257611ab285600160801b8685611e00565b61193a8585600160801b85611e00565b60606111578484600085611efc565b600080611dd1858585600061202d565b90506000611de38260008660006120b2565b9092509050611df682826002600061202d565b9695505050505050565b6000806000611e0f8787611ca3565b915091508060001415611e3057611e27828686612123565b92505050611157565b808511611e615760405163362ced0960e11b8152600481018890526024810187905260448101869052606401610875565b600085878909600087810388169788900497600260038a028118808b02820302808b02820302808b02820302808b02820302808b02820302808b02909103029181900381900460010186841190950394850292909503949094041792830293508490508015611edf57508480611ed957611ed9613120565b86880915155b15611ef25782611eee81612c33565b9350505b5050949350505050565b606082471015611f5d5760405162461bcd60e51b815260206004820152602660248201527f416464726573733a20696e73756666696369656e742062616c616e636520666f6044820152651c8818d85b1b60d21b6064820152608401610875565b6001600160a01b0385163b611fb45760405162461bcd60e51b815260206004820152601d60248201527f416464726573733a2063616c6c20746f206e6f6e2d636f6e74726163740000006044820152606401610875565b600080866001600160a01b03168587604051611fd0919061309a565b60006040518083038185875af1925050503d806000811461200d576040519150601f19603f3d011682016040523d82523d6000602084013e612012565b606091505b5091509150612022828286612155565b979650505050505050565b60008061203b86868661218e565b9092509050801561207057604051636aa917ab60e01b8152600481018790526024810186905260448101859052606401610875565b8215611110576000806120838487611ca3565b915091508087118061209457508188115b156120a757836120a381612c33565b9450505b505050949350505050565b81840184811082850181019080156120df578115806120da57506120d7600183613155565b86115b6120e3565b8186115b15612119576040516347b1893f60e01b815260048101889052602481018790526044810186905260648101859052608401610875565b5094509492505050565b600061212f838561316c565b905081801561214657506121438385613180565b15155b15611d4a578061193a81612c33565b60608315612164575081611d4a565b8251156121745782518084602001fd5b8160405162461bcd60e51b81526004016108759190612475565b600080836121a9576121a285846000612123565b9150612235565b60006121b48461223d565b905060006121c18561226a565b90505b8515612215576000806121d78885611ca3565b915091506121e7868684846120b2565b90965094506121f68884611ca3565b909250905061220882828b60006120b2565b90995097506121c4915050565b61222d84846122268a896000612123565b60006120b2565b909450925050505b935093915050565b60008161225d576040516301de42a960e41b815260040160405180910390fd5b5060008190030460010190565b60008161228a576040516319dbad9f60e01b815260040160405180910390fd5b5060008190030690565b634e487b7160e01b600052604160045260246000fd5b60405160c081016001600160401b03811182821017156122cc576122cc612294565b60405290565b604051601f8201601f191681016001600160401b03811182821017156122fa576122fa612294565b604052919050565b60006001600160401b0382111561231b5761231b612294565b50601f01601f191660200190565b600082601f83011261233a57600080fd5b813561234d61234882612302565b6122d2565b81815284602083860101111561236257600080fd5b816020850160208301376000918101602001919091529392505050565b60006020828403121561239157600080fd5b81356001600160401b03808211156123a857600080fd5b9083019060c082860312156123bc57600080fd5b6123c46122aa565b823581526020830135602082015260408301356040820152606083013560608201526080830135608082015260a08301358281111561240257600080fd5b61240e87828601612329565b60a08301525095945050505050565b60005b83811015612438578181015183820152602001612420565b83811115610ef95750506000910152565b6000815180845261246181602086016020860161241d565b601f01601f19169290920160200192915050565b602081526000611d4a6020830184612449565b60006020828403121561249a57600080fd5b81356001600160401b038111156124b057600080fd5b820160c08185031215611d4a57600080fd5b6000602082840312156124d457600080fd5b81356001600160401b038111156124ea57600080fd5b820160a08185031215611d4a57600080fd5b83815282602082015260606040820152600061193a6060830184612449565b6000806020838503121561252e57600080fd5b82356001600160401b038082111561254557600080fd5b818501915085601f83011261255957600080fd5b81358181111561256857600080fd5b8660208260051b850101111561257d57600080fd5b60209290920196919550909350505050565b6000602080830181845280855180835260408601915060408160051b870101925083870160005b828110156125e457603f198886030184526125d2858351612449565b945092850192908501906001016125b6565b5092979650505050505050565b6000610140828403121561260457600080fd5b50919050565b60006020828403121561261c57600080fd5b81356001600160401b0381111561263257600080fd5b82016101008185031215611d4a57600080fd5b6000806000806060858703121561265b57600080fd5b843593506020850135925060408501356001600160401b038082111561268057600080fd5b818701915087601f83011261269457600080fd5b8135818111156126a357600080fd5b8860208285010111156126b557600080fd5b95989497505060200194505050565b6001600160a01b038116811461164057600080fd5b60006126e761234884612302565b90508281528383830111156126fb57600080fd5b611d4a83602083018461241d565b600082601f83011261271a57600080fd5b611d4a838351602085016126d9565b600080600080600060a0868803121561274157600080fd5b855161274c816126c4565b602087015190955061275d816126c4565b604087015190945061276e816126c4565b6060870151608088015191945092506001600160401b0381111561279157600080fd5b61279d88828901612709565b9150509295509295909350565b634e487b7160e01b600052601160045260246000fd5b600082198211156127d3576127d36127aa565b500190565b602081526127f26020820183516001600160a01b03169052565b6000602083015161280e60408401826001600160a01b03169052565b506040830151606083015260608301516080830152608083015161283d60a08401826001600160a01b03169052565b5060a08301516001600160a01b03811660c08401525060c08301516001600160a01b03811660e08401525060e083015161010083810191909152830151610120808401919091528301516101408084019190915283015161016080840152611157610180840182612449565b6000602082840312156128bb57600080fd5b81516001600160401b038111156128d157600080fd5b61115784828501612709565b8281526040602082015260006111576040830184612449565b6000808335601e1984360301811261290d57600080fd5b8301803591506001600160401b0382111561292757600080fd5b60200191503681900382131561293c57600080fd5b9250929050565b6000806000806080858703121561295957600080fd5b8435612964816126c4565b93506020850135612974816126c4565b92506040850135612984816126c4565b915060608501356001600160401b0381111561299f57600080fd5b6129ab87828801612329565b91505092959194509250565b6001600160a01b0386811682528581166020830152841660408201526060810183905260a06080820181905260009061202290830184612449565b634e487b7160e01b600052602160045260246000fd5b60028110612a1857612a186129f2565b9052565b60208152815160208201526020820151604082015260006040830151612a4d60608401826001600160a01b03169052565b5060608301516001600160a01b03811660808401525060808301516001600160a01b03811660a08401525060a0830151612a8a60c0840182612a08565b5060c083015160e0838101919091528301516101008084019190915283015161012080840152611157610140840182612449565b60008060008060808587031215612ad457600080fd5b84519350602085015192506040850151915060608501516001600160401b03811115612aff57600080fd5b6129ab87828801612709565b60008060008060008060c08789031215612b2457600080fd5b8635612b2f816126c4565b95506020870135612b3f816126c4565b94506040870135612b4f816126c4565b9350606087013592506080870135915060a08701356001600160401b03811115612b7857600080fd5b612b8489828a01612329565b9150509295509295509295565b6001600160a01b038581168252848116602083015283166040820152608060608201819052600090611df690830184612449565b634e487b7160e01b600052603260045260246000fd5b8183823760009101908152919050565b600060208284031215612bfd57600080fd5b81516001600160401b03811115612c1357600080fd5b8201601f81018413612c2457600080fd5b611157848251602084016126d9565b6000600019821415612c4757612c476127aa565b5060010190565b600060208284031215612c6057600080fd5b8135611d4a816126c4565b62ffffff8116811461164057600080fd5b600060208284031215612c8e57600080fd5b8135611d4a81612c6b565b82151581526040602082015260006111576040830184612449565b801515811461164057600080fd5b600060208284031215612cd457600080fd5b8135611d4a81612cb4565b858152602081018590526001600160a01b038416604082015260a0810160038410612d0c57612d0c6129f2565b6060820193909352608001529392505050565b60008060408385031215612d3257600080fd5b8235612d3d81612cb4565b915060208301356001600160401b03811115612d5857600080fd5b612d6485828601612329565b9150509250929050565b60008060008060808587031215612d8457600080fd5b8451612d8f816126c4565b6020860151909450612da0816126c4565b6040860151909350612db1816126c4565b6060860151909250612dc281612c6b565b939692955090935050565b600060208284031215612ddf57600080fd5b8151611d4a816126c4565b60008060408385031215612dfd57600080fd5b8251612e08816126c4565b6020840151909250612e1981612cb4565b809150509250929050565b805161ffff81168114612e3657600080fd5b919050565b600080600080600080600060e0888a031215612e5657600080fd5b8751612e61816126c4565b8097505060208801518060020b8114612e7957600080fd5b9550612e8760408901612e24565b9450612e9560608901612e24565b9350612ea360808901612e24565b925060a088015160ff81168114612eb957600080fd5b60c0890151909250612eca81612cb4565b8091505092959891949750929550565b60006001600160a01b0383811690831681811015612efa57612efa6127aa565b039392505050565b60006001600160a01b03828116848216808303821115612f2457612f246127aa565b01949350505050565b6000600160ff1b821415612f4357612f436127aa565b5060000390565b6001600160a01b0386811682528515156020830152604082018590528316606082015260a06080820181905260009061202290830184612449565b60008060408385031215612f9857600080fd5b505080516020909101519092909150565b6001600160a01b038781168252868116602083015285166040820152606081018490526080810183905260c060a08201819052600090612feb90830184612449565b98975050505050505050565b60208152815160208201526020820151604082015260018060a01b0360408301511660608201526000606083015160048110613035576130356129f2565b80608084015250608083015160a083015260a083015160c08084015261115760e0840182612449565b6000806040838503121561307157600080fd5b8251915060208301516001600160401b0381111561308e57600080fd5b612d6485828601612709565b600082516130ac81846020870161241d565b9190910192915050565b6000806000606084860312156130cb57600080fd5b83516130d6816126c4565b60208501519093506130e7816126c4565b60408501519092506130f881612c6b565b809150509250925092565b60006020828403121561311557600080fd5b8151611d4a81612cb4565b634e487b7160e01b600052601260045260246000fd5b6000816000190483118215151615613150576131506127aa565b500290565b600082821015613167576131676127aa565b500390565b60008261317b5761317b613120565b500490565b60008261318f5761318f613120565b50069056fea2646970667358221220d6643fdfbe8d7fa2b23bcabfbb48292d2bf8ec567e38f88255647cf0dc8fdc7064736f6c63430008080033",
  "linkReferences": {},
  "deployedLinkReferences": {}
}