{
  "_format": "hh-sol-artifact-1",
  "contractName": "TimeswapV2PeripheryUniswapV3QuoterCloseLendGivenPosition",
  "sourceName": "@timeswap-labs/v2-periphery-uniswapV3/contracts/lens/TimeswapV2PeripheryUniswapV3QuoterCloseLendGivenPosition.sol",
  "abi": [
    {
      "inputs": [
        {
          "internalType": "address",
          "name": "chosenOptionFactory",
          "type": "address"
        },
        {
          "internalType": "address",
          "name": "chosenPoolFactory",
          "type": "address"
        },
        {
          "internalType": "address",
          "name": "chosenTokens",
          "type": "address"
        },
        {
          "internalType": "address",
          "name": "chosenUniswapV3Factory",
          "type": "address"
        }
      ],
      "stateMutability": "nonpayable",
      "type": "constructor"
    },
    {
      "inputs": [
        {
          "internalType": "uint256",
          "name": "addendA0",
          "type": "uint256"
        },
        {
          "internalType": "uint256",
          "name": "addendA1",
          "type": "uint256"
        },
        {
          "internalType": "uint256",
          "name": "addendB0",
          "type": "uint256"
        },
        {
          "internalType": "uint256",
          "name": "addendB1",
          "type": "uint256"
        }
      ],
      "name": "AddOverflow",
      "type": "error"
    },
    {
      "inputs": [],
      "name": "CanOnlyBeCalledByPoolContract",
      "type": "error"
    },
    {
      "inputs": [],
      "name": "CanOnlyBeCalledByUniswapV3Contract",
      "type": "error"
    },
    {
      "inputs": [
        {
          "internalType": "uint256",
          "name": "dividend0",
          "type": "uint256"
        },
        {
          "internalType": "uint256",
          "name": "dividend1",
          "type": "uint256"
        },
        {
          "internalType": "uint256",
          "name": "divisor",
          "type": "uint256"
        }
      ],
      "name": "DivOverflow",
      "type": "error"
    },
    {
      "inputs": [],
      "name": "DivideByZero",
      "type": "error"
    },
    {
      "inputs": [],
      "name": "ModuloByZero",
      "type": "error"
    },
    {
      "inputs": [
        {
          "internalType": "uint256",
          "name": "multiplicand",
          "type": "uint256"
        },
        {
          "internalType": "uint256",
          "name": "multiplier",
          "type": "uint256"
        },
        {
          "internalType": "uint256",
          "name": "divisor",
          "type": "uint256"
        }
      ],
      "name": "MulDivOverflow",
      "type": "error"
    },
    {
      "inputs": [
        {
          "internalType": "string",
          "name": "revertString",
          "type": "string"
        }
      ],
      "name": "MulticallFailed",
      "type": "error"
    },
    {
      "inputs": [
        {
          "internalType": "int256",
          "name": "amount0",
          "type": "int256"
        },
        {
          "internalType": "int256",
          "name": "amount1",
          "type": "int256"
        }
      ],
      "name": "PassCalculateInfo",
      "type": "error"
    },
    {
      "inputs": [
        {
          "internalType": "uint160",
          "name": "timeswapV2SqrtInterestRateAfter",
          "type": "uint160"
        },
        {
          "internalType": "uint256",
          "name": "token0Amount",
          "type": "uint256"
        },
        {
          "internalType": "uint256",
          "name": "token1Amount",
          "type": "uint256"
        },
        {
          "internalType": "bytes",
          "name": "data",
          "type": "bytes"
        }
      ],
      "name": "PassPoolLeverageCallbackInfo",
      "type": "error"
    },
    {
      "inputs": [
        {
          "internalType": "uint160",
          "name": "timeswapV2SqrtInterestRateAfter",
          "type": "uint160"
        },
        {
          "internalType": "uint256",
          "name": "token0Amount",
          "type": "uint256"
        },
        {
          "internalType": "uint256",
          "name": "token1Amount",
          "type": "uint256"
        },
        {
          "internalType": "bytes",
          "name": "data",
          "type": "bytes"
        }
      ],
      "name": "PassTokenBurnCallbackInfo",
      "type": "error"
    },
    {
      "inputs": [
        {
          "internalType": "int256",
          "name": "amount0",
          "type": "int256"
        },
        {
          "internalType": "int256",
          "name": "amount1",
          "type": "int256"
        },
        {
          "internalType": "uint160",
          "name": "uniswapV3SqrtPriceAfter",
          "type": "uint160"
        }
      ],
      "name": "PassUniswapV3SwapCallbackInfo",
      "type": "error"
    },
    {
      "inputs": [],
      "name": "Uint160Overflow",
      "type": "error"
    },
    {
      "inputs": [],
      "name": "ZeroAddress",
      "type": "error"
    },
    {
      "inputs": [],
      "name": "ZeroPoolAddress",
      "type": "error"
    },
    {
      "inputs": [
        {
          "components": [
            {
              "internalType": "address",
              "name": "token0",
              "type": "address"
            },
            {
              "internalType": "address",
              "name": "token1",
              "type": "address"
            },
            {
              "internalType": "uint256",
              "name": "strike",
              "type": "uint256"
            },
            {
              "internalType": "uint256",
              "name": "maturity",
              "type": "uint256"
            },
            {
              "internalType": "uint24",
              "name": "uniswapV3Fee",
              "type": "uint24"
            },
            {
              "internalType": "address",
              "name": "to",
              "type": "address"
            },
            {
              "internalType": "bool",
              "name": "isToken0",
              "type": "bool"
            },
            {
              "internalType": "uint256",
              "name": "positionAmount",
              "type": "uint256"
            }
          ],
          "internalType": "struct TimeswapV2PeripheryUniswapV3QuoterCloseLendGivenPositionParam",
          "name": "param",
          "type": "tuple"
        },
        {
          "internalType": "uint96",
          "name": "durationForward",
          "type": "uint96"
        }
      ],
      "name": "closeLendGivenPosition",
      "outputs": [
        {
          "internalType": "uint256",
          "name": "tokenAmount",
          "type": "uint256"
        },
        {
          "internalType": "uint160",
          "name": "timeswapV2SqrtInterestRateAfter",
          "type": "uint160"
        },
        {
          "internalType": "uint160",
          "name": "uniswapV3SqrtPriceAfter",
          "type": "uint160"
        }
      ],
      "stateMutability": "nonpayable",
      "type": "function"
    },
    {
      "inputs": [
        {
          "internalType": "bytes[]",
          "name": "data",
          "type": "bytes[]"
        }
      ],
      "name": "multicall",
      "outputs": [
        {
          "internalType": "bytes[]",
          "name": "results",
          "type": "bytes[]"
        }
      ],
      "stateMutability": "payable",
      "type": "function"
    },
    {
      "inputs": [
        {
          "internalType": "address",
          "name": "",
          "type": "address"
        },
        {
          "internalType": "address",
          "name": "",
          "type": "address"
        },
        {
          "internalType": "uint256[]",
          "name": "",
          "type": "uint256[]"
        },
        {
          "internalType": "uint256[]",
          "name": "",
          "type": "uint256[]"
        },
        {
          "internalType": "bytes",
          "name": "",
          "type": "bytes"
        }
      ],
      "name": "onERC1155BatchReceived",
      "outputs": [
        {
          "internalType": "bytes4",
          "name": "",
          "type": "bytes4"
        }
      ],
      "stateMutability": "pure",
      "type": "function"
    },
    {
      "inputs": [
        {
          "internalType": "address",
          "name": "operator",
          "type": "address"
        },
        {
          "internalType": "address",
          "name": "",
          "type": "address"
        },
        {
          "internalType": "uint256",
          "name": "",
          "type": "uint256"
        },
        {
          "internalType": "uint256",
          "name": "",
          "type": "uint256"
        },
        {
          "internalType": "bytes",
          "name": "",
          "type": "bytes"
        }
      ],
      "name": "onERC1155Received",
      "outputs": [
        {
          "internalType": "bytes4",
          "name": "",
          "type": "bytes4"
        }
      ],
      "stateMutability": "view",
      "type": "function"
    },
    {
      "inputs": [],
      "name": "optionFactory",
      "outputs": [
        {
          "internalType": "address",
          "name": "",
          "type": "address"
        }
      ],
      "stateMutability": "view",
      "type": "function"
    },
    {
      "inputs": [],
      "name": "poolFactory",
      "outputs": [
        {
          "internalType": "address",
          "name": "",
          "type": "address"
        }
      ],
      "stateMutability": "view",
      "type": "function"
    },
    {
      "inputs": [
        {
          "internalType": "bytes4",
          "name": "interfaceId",
          "type": "bytes4"
        }
      ],
      "name": "supportsInterface",
      "outputs": [
        {
          "internalType": "bool",
          "name": "",
          "type": "bool"
        }
      ],
      "stateMutability": "view",
      "type": "function"
    },
    {
      "inputs": [
        {
          "components": [
            {
              "internalType": "uint256",
              "name": "strike",
              "type": "uint256"
            },
            {
              "internalType": "uint256",
              "name": "maturity",
              "type": "uint256"
            },
            {
              "internalType": "uint256",
              "name": "long0Amount",
              "type": "uint256"
            },
            {
              "internalType": "uint256",
              "name": "long1Amount",
              "type": "uint256"
            },
            {
              "internalType": "uint256",
              "name": "shortAmount",
              "type": "uint256"
            },
            {
              "internalType": "bytes",
              "name": "data",
              "type": "bytes"
            }
          ],
          "internalType": "struct TimeswapV2PoolLeverageCallbackParam",
          "name": "param",
          "type": "tuple"
        }
      ],
      "name": "timeswapV2PoolLeverageCallback",
      "outputs": [
        {
          "internalType": "bytes",
          "name": "data",
          "type": "bytes"
        }
      ],
      "stateMutability": "nonpayable",
      "type": "function"
    },
    {
      "inputs": [
        {
          "components": [
            {
              "internalType": "uint256",
              "name": "strike",
              "type": "uint256"
            },
            {
              "internalType": "uint256",
              "name": "maturity",
              "type": "uint256"
            },
            {
              "internalType": "uint256",
              "name": "long0Balance",
              "type": "uint256"
            },
            {
              "internalType": "uint256",
              "name": "long1Balance",
              "type": "uint256"
            },
            {
              "internalType": "uint256",
              "name": "longAmount",
              "type": "uint256"
            },
            {
              "internalType": "uint256",
              "name": "shortAmount",
              "type": "uint256"
            },
            {
              "internalType": "bytes",
              "name": "data",
              "type": "bytes"
            }
          ],
          "internalType": "struct TimeswapV2PoolLeverageChoiceCallbackParam",
          "name": "param",
          "type": "tuple"
        }
      ],
      "name": "timeswapV2PoolLeverageChoiceCallback",
      "outputs": [
        {
          "internalType": "uint256",
          "name": "long0Amount",
          "type": "uint256"
        },
        {
          "internalType": "uint256",
          "name": "long1Amount",
          "type": "uint256"
        },
        {
          "internalType": "bytes",
          "name": "data",
          "type": "bytes"
        }
      ],
      "stateMutability": "nonpayable",
      "type": "function"
    },
    {
      "inputs": [
        {
          "components": [
            {
              "internalType": "address",
              "name": "token0",
              "type": "address"
            },
            {
              "internalType": "address",
              "name": "token1",
              "type": "address"
            },
            {
              "internalType": "uint256",
              "name": "strike",
              "type": "uint256"
            },
            {
              "internalType": "uint256",
              "name": "maturity",
              "type": "uint256"
            },
            {
              "internalType": "uint256",
              "name": "long0Amount",
              "type": "uint256"
            },
            {
              "internalType": "uint256",
              "name": "long1Amount",
              "type": "uint256"
            },
            {
              "internalType": "uint256",
              "name": "shortAmount",
              "type": "uint256"
            },
            {
              "internalType": "bytes",
              "name": "data",
              "type": "bytes"
            }
          ],
          "internalType": "struct TimeswapV2TokenBurnCallbackParam",
          "name": "param",
          "type": "tuple"
        }
      ],
      "name": "timeswapV2TokenBurnCallback",
      "outputs": [
        {
          "internalType": "bytes",
          "name": "data",
          "type": "bytes"
        }
      ],
      "stateMutability": "nonpayable",
      "type": "function"
    },
    {
      "inputs": [],
      "name": "tokens",
      "outputs": [
        {
          "internalType": "address",
          "name": "",
          "type": "address"
        }
      ],
      "stateMutability": "view",
      "type": "function"
    },
    {
      "inputs": [],
      "name": "uniswapV3Factory",
      "outputs": [
        {
          "internalType": "address",
          "name": "",
          "type": "address"
        }
      ],
      "stateMutability": "view",
      "type": "function"
    },
    {
      "inputs": [
        {
          "internalType": "int256",
          "name": "amount0Delta",
          "type": "int256"
        },
        {
          "internalType": "int256",
          "name": "amount1Delta",
          "type": "int256"
        },
        {
          "internalType": "bytes",
          "name": "data",
          "type": "bytes"
        }
      ],
      "name": "uniswapV3SwapCallback",
      "outputs": [],
      "stateMutability": "view",
      "type": "function"
    }
  ],
  "bytecode": "0x6101006040523480156200001257600080fd5b50604051620037f4380380620037f4833981016040819052620000359162000081565b6001600160601b0319606091821b811660805293811b841660a05291821b831660c052901b1660e052620000de565b80516001600160a01b03811681146200007c57600080fd5b919050565b600080600080608085870312156200009857600080fd5b620000a38562000064565b9350620000b36020860162000064565b9250620000c36040860162000064565b9150620000d36060860162000064565b905092959194509250565b60805160601c60a05160601c60c05160601c60e05160601c613683620001716000396000818161022f015261103c01526000818161010e015281816103cf0152818161063b0152610ba9015260008181610283015281816103ae0152818161061a0152610b8801526000818161015a01528181610a8b0152818161115001528181611374015261153401526136836000f3fe6080604052600436106100c25760003560e01c80639d63848a1161007f578063bc197c8111610059578063bc197c81146102a5578063f23a6e61146102de578063fa461e33146102fe578063fb05b8fe1461032057600080fd5b80639d63848a1461021d578063ac9650d814610251578063b3461c871461027157600080fd5b806301ffc9a7146100c75780634219dc40146100fc5780635b54918214610148578063797481d01461017c5780637f9969a5146101ab5780638662fa6a146101f0575b600080fd5b3480156100d357600080fd5b506100e76100e23660046125fa565b610340565b60405190151581526020015b60405180910390f35b34801561010857600080fd5b506101307f000000000000000000000000000000000000000000000000000000000000000081565b6040516001600160a01b0390911681526020016100f3565b34801561015457600080fd5b506101307f000000000000000000000000000000000000000000000000000000000000000081565b34801561018857600080fd5b5061019c610197366004612624565b610377565b6040516100f3939291906126ba565b3480156101b757600080fd5b506101cb6101c63660046127b9565b61049e565b604080519384526001600160a01b0392831660208501529116908201526060016100f3565b3480156101fc57600080fd5b5061021061020b366004612870565b6105e3565b6040516100f391906128aa565b34801561022957600080fd5b506101307f000000000000000000000000000000000000000000000000000000000000000081565b61026461025f3660046128bd565b61088d565b6040516100f39190612931565b34801561027d57600080fd5b506101307f000000000000000000000000000000000000000000000000000000000000000081565b3480156102b157600080fd5b506102c56102c0366004612a8f565b610a1a565b6040516001600160e01b031990911681526020016100f3565b3480156102ea57600080fd5b506102c56102f9366004612b3c565b610a26565b34801561030a57600080fd5b5061031e610319366004612ba4565b610a4e565b005b34801561032c57600080fd5b5061021061033b366004612c23565b610b54565b60006001600160e01b03198216630271189760e51b148061037157506301ffc9a760e01b6001600160e01b03198316145b92915050565b6000806060818080808061038e60c08a018a612c5e565b81019061039b9190612cab565b9a509398509196509450925090506103f57f00000000000000000000000000000000000000000000000000000000000000007f00000000000000000000000000000000000000000000000000000000000000008787610d80565b5061045e604051806101000160405280876001600160a01b03168152602001866001600160a01b031681526020018b6000013581526020018b6020013581526020018b6040013581526020018b6060013581526020018b60800135815260200188815250610eb8565b604051929a50909850965061048190869086908690869086908c90602001612d3a565b604051602081830303815290604052955050505050509193909250565b60008060008085608001518660c001516040516020016104d192919062ffffff9290921682521515602082015260400190565b60405160208183030381529060405290506000806105876040518061010001604052808a600001516001600160a01b031681526020018a602001516001600160a01b031681526020018a6040015181526020018a6060015181526020018a60c0015161053d5730610543565b8a60a001515b6001600160a01b031681526020018a60c00151610564578a60a00151610566565b305b6001600160a01b0316815260e08b0151602082015260400185905288610f82565b809850819650829450839550505050506105d3886000015189602001518a604001518b608001518c60a001518d60c0015188888b8060200190518101906105ce9190612d89565b611137565b9099959850965093945050505050565b60606000808080806105f860a0880188612c5e565b8101906106059190612cab565b9a5093985091965094509250905060006106617f00000000000000000000000000000000000000000000000000000000000000007f00000000000000000000000000000000000000000000000000000000000000008888610d80565b90506000816001600160a01b031663622fb68f6040518061010001604052808c6000013581526020018c602001358152602001886001600160a01b03168152602001876001600160a01b03168152602001600060018111156106c5576106c5612da6565b81526020018c6040013581526020018c606001358152602001604051806020016040528060008152508152506040518263ffffffff1660e01b815260040161070d9190612dd0565b600060405180830381600087803b15801561072757600080fd5b505af115801561073b573d6000803e3d6000fd5b505050506040513d6000823e601f3d908101601f191682016040526107639190810190612e9c565b50925050506001600160a01b03821663b2ceca778a3560208c013533600261078b878a612f0b565b6040518663ffffffff1660e01b81526004016107ab959493929190612f22565b600060405180830381600087803b1580156107c557600080fd5b505af11580156107d9573d6000803e3d6000fd5b505060405163a8f403b760e01b81528b35600482015260208c013560248201526000925033915063a8f403b79060440160206040518083038186803b15801561082157600080fd5b505afa158015610835573d6000803e3d6000fd5b505050506040513d601f19601f820116820180604052508101906108599190612f62565b9050808a604001358b606001358b60405163d6d1edb760e01b81526004016108849493929190612f7f565b60405180910390fd5b6060816001600160401b038111156108a7576108a76126d9565b6040519080825280602002602001820160405280156108da57816020015b60608152602001906001900390816108c55790505b50905060005b82811015610a1357600080308686858181106108fe576108fe612fac565b90506020028101906109109190612c5e565b60405161091e929190612fc2565b600060405180830381855af49150503d8060008114610959576040519150601f19603f3d011682016040523d82523d6000602084013e61095e565b606091505b5091509150816109e0576044815110156109ac57604051635d2f436f60e11b815260206004820152600e60248201526d125b9d985b1a590814995cdd5b1d60921b6044820152606401610884565b600481019050808060200190518101906109c69190612fd2565b604051635d2f436f60e11b815260040161088491906128aa565b808484815181106109f3576109f3612fac565b602002602001018190525050508080610a0b9061301a565b9150506108e0565b5092915050565b60005b95945050505050565b60006001600160a01b0386163014610a4057506000610a1d565b5063f23a6e6160e01b610a1d565b600080610a5d83850185613035565b915091508115610b4157600080600083806020019051810190610a809190613084565b925092509250610ab27f00000000000000000000000000000000000000000000000000000000000000008484846112de565b6000336001600160a01b0316633850c7bd6040518163ffffffff1660e01b815260040160e06040518083038186803b158015610aed57600080fd5b505afa158015610b01573d6000803e3d6000fd5b505050506040513d601f19601f82011682018060405250810190610b2591906130e3565b5050505050509050610b388a8a8361131e565b50505050610b4c565b610b4c868683611350565b505050505050565b60606000808080610b6860e0870187612c5e565b810190610b759190613182565b9850929650909450925090506000610bea7f00000000000000000000000000000000000000000000000000000000000000007f0000000000000000000000000000000000000000000000000000000000000000610bd560208b018b6131e5565b610be560408c0160208d016131e5565b6113a5565b9150610bfb905060208801886131e5565b610c0b6040890160208a016131e5565b8686868a604051602001610c2496959493929190612d3a565b60408051808303601f1901815260e0830182528982013583526060808b0135602085015230848401819052908401526003608084015260a0830186905260c083018190529051639eee6e5160e01b81529097506001600160a01b03831691639eee6e5191610c9791908690600401613202565b600060405180830381600087803b158015610cb157600080fd5b505af1925050508015610ce657506040513d6000823e601f3d908101601f19168201604052610ce39190810190612e9c565b60015b610d72573d808015610d14576040519150601f19603f3d011682016040523d82523d6000602084013e610d19565b606091505b50610d2b8163d6d1edb760e01b61145a565b9650600080600089806020019051810190610d469190613294565b60405163568f677b60e01b8152909d509295509093509150610884908490849084908e90600401612f7f565b505050505050505050919050565b60405163d81e842360e01b81526001600160a01b03838116600483015282811660248301526000919086169063d81e84239060440160206040518083038186803b158015610dcd57600080fd5b505afa158015610de1573d6000803e3d6000fd5b505050506040513d601f19601f82011682018060405250810190610e059190612f62565b6040516330af0bbf60e21b81526001600160a01b03808316600483015291925060009186169063c2bc2efc9060240160206040518083038186803b158015610e4c57600080fd5b505afa158015610e60573d6000803e3d6000fd5b505050506040513d601f19601f82011682018060405250810190610e849190612f62565b90506001600160a01b0381163314610eaf5760405163863b47e760e01b815260040160405180910390fd5b50949350505050565b60008060606000808560e00151806020019051810190610ed891906132e0565b915091506000610f5160405180610100016040528089600001516001600160a01b0316815260200189602001516001600160a01b03168152602001896040015181526020018562ffffff1681526020018415158152602001896080015181526020018960a0015181526020018960c001518152506114c8565b6040805184151560208201529299509097509192500160405160208183030381529060405293505050509193909250565b6000806060600085608001518660a001518760c00151878960e00151604051602001610fb295949392919061331a565b60408051808303601f190181526101608301825288516001600160a01b0390811684526020808b015182169085015289830151848401526060808b015190850152306080850181905260a0850181905260c080860191909152600060e086018190526101008601528a01516101208501526101408401829052915163a38d7a1760e01b81529094507f00000000000000000000000000000000000000000000000000000000000000009091169163a38d7a1791611072919060040161335c565b600060405180830381600087803b15801561108c57600080fd5b505af19250505080156110c157506040513d6000823e601f3d908101601f191682016040526110be919081019061342d565b60015b61112c573d8080156110ef576040519150601f19603f3d011682016040523d82523d6000602084013e6110f4565b606091505b506111068163568f677b60e01b61145a565b92508280602001905181019061111c9190613294565b91975095509350915061112e9050565b505b92959194509250565b600080856111455783611147565b845b915060006111777f00000000000000000000000000000000000000000000000000000000000000008d8d8c6116bc565b9050866111845785611186565b845b156112545760008c8c8b6040516020016111a293929190613461565b60405160208183030381529060405290506001816040516020016111c7929190613489565b60408051601f1981840301815260c0830182526001600160a01b038c1683528a156020840152600191830191909152915060009061123b90606081018b61120e578a611210565b895b815260200188611220578e611223565b60005b81526020018490526001600160a01b038516906116e6565b9550915061124b905081866134a4565b945050506112cf565b806001600160a01b0316633850c7bd6040518163ffffffff1660e01b815260040160e06040518083038186803b15801561128d57600080fd5b505afa1580156112a1573d6000803e3d6000fd5b505050506040513d601f19601f820116820180604052508101906112c591906130e3565b5094965050505050505b50995099975050505050505050565b60006112ec85858585611a25565b90506001600160a01b0381163314611317576040516307c1698f60e01b815260040160405180910390fd5b5050505050565b604051633ab8e87b60e21b815260048101849052602481018390526001600160a01b0382166044820152606401610884565b6000806000838060200190518101906113699190613084565b92509250925061139b7f00000000000000000000000000000000000000000000000000000000000000008484846112de565b610b4c8686611aa8565b6000806113bc6001600160a01b0387168585611acb565b6040516330af0bbf60e21b81526001600160a01b0380831660048301529193509086169063c2bc2efc9060240160206040518083038186803b15801561140157600080fd5b505afa158015611415573d6000803e3d6000fd5b505050506040513d601f19601f820116820180604052508101906114399190612f62565b90506001600160a01b03811661145157611451611af7565b94509492505050565b8151606090602061146c600483612f0b565b61147691906134d2565b15801561149e57506001600160e01b03198316611492856134e6565b6001600160e01b031916145b156114c0576114b88460046114b38185612f0b565b611b10565b915050610371565b835184602001fd5b60008060008061150a85608001516114e4578560c001516114ea565b8560a001515b6115048760e0015188604001518960800151156000611c1c565b90611c61565b90506000808660800151611522578660a00151611528565b8660c001515b1561168a5760006115677f000000000000000000000000000000000000000000000000000000000000000089600001518a602001518b606001516116bc565b905060006115a08960800151611581578960a00151611587565b8960c001515b6115048b60e001518c604001518d608001516000611c1c565b89516020808c015160608d01516040519495506000946115c1949301613461565b60405160208183030381529060405290506000816040516020016115e6929190613489565b60408051601f1981840301815260a0830182526080808e015115845260016020850152838301869052918d015160608401529082018190529150611634906001600160a01b03851690611c77565b508095505050506116568860e00151848a604001518b60800151156000611f2a565b91508382111561168457600196508391506116818860e00151838a604001518b608001516000611f2a565b92505b5061168d565b50815b866080015161169c578161169e565b805b945086608001516116af57806116b1565b815b959794965050505050565b60006116ca85858585611a25565b90506116de816001600160a01b0316611fa5565b949350505050565b6000806000846001600160a01b0316633850c7bd6040518163ffffffff1660e01b815260040160e06040518083038186803b15801561172457600080fd5b505afa158015611738573d6000803e3d6000fd5b505050506040513d601f19601f8201168201806040525081019061175c91906130e3565b5050506080880151939450600093151592506117b29150505784602001516117a25761179d600173fffd8963efd1fc6a506488495d951d5263988d2661351d565b6117bf565b61179d6401000276a36001613545565b6117bf8560800151611fcf565b90506401000276a36001600160a01b038216116117e9576117e66401000276a36001613545565b90505b73fffd8963efd1fc6a506488495d951d5263988d266001600160a01b0382161061182f5761182c600173fffd8963efd1fc6a506488495d951d5263988d2661351d565b90505b846020015161185257806001600160a01b0316826001600160a01b031610611868565b806001600160a01b0316826001600160a01b0316115b156119a257600080876001600160a01b031663128acb083089602001518a604001516118a95761189b8b6060015161201f565b6118a490613570565b6118b6565b6118b68b6060015161201f565b878c60a001516040518663ffffffff1660e01b81526004016118dc95949392919061358d565b6040805180830381600087803b1580156118f557600080fd5b505af1925050508015611925575060408051601f3d908101601f19168201909252611922918101906135c8565b60015b611970573d808015611953576040519150601f19603f3d011682016040523d82523d6000602084013e611958565b606091505b5061196281612035565b965090935091506119739050565b50505b866020015161198b578061198683613570565b611995565b8161199582613570565b9096509450611a1d915050565b856001600160a01b0316633850c7bd6040518163ffffffff1660e01b815260040160e06040518083038186803b1580156119db57600080fd5b505afa1580156119ef573d6000803e3d6000fd5b505050506040513d601f19601f82011682018060405250810190611a1391906130e3565b5094965050505050505b509250925092565b604051630b4c774160e11b81526000906001600160a01b03861690631698ee8290611a5890879087908790600401613461565b60206040518083038186803b158015611a7057600080fd5b505afa158015611a84573d6000803e3d6000fd5b505050506040513d601f19601f82011682018060405250810190610a1d9190612f62565b6040516377760aaf60e11b81526004810183905260248101829052604401610884565b6000611ad884848461206a565b90506001600160a01b038116611af057611af0611af7565b9392505050565b60405163d92e233d60e01b815260040160405180910390fd5b606081611b1e81601f6134a4565b1015611b5d5760405162461bcd60e51b815260206004820152600e60248201526d736c6963655f6f766572666c6f7760901b6044820152606401610884565b611b6782846134a4565b84511015611bab5760405162461bcd60e51b8152602060048201526011602482015270736c6963655f6f75744f66426f756e647360781b6044820152606401610884565b606082158015611bca5760405191506000825260208201604052610eaf565b6040519150601f8416801560200281840101858101878315602002848b0101015b81831015611c03578051835260209283019201611beb565b5050858452601f01601f19166040525050949350505050565b60006001600160801b038411611c495782611c4357611c3e85856000856120ef565b610a1d565b84610a1d565b82611c545784610a1d565b610a1d85856001856120ef565b6000818310611c705781611af0565b5090919050565b6000806000846001600160a01b0316633850c7bd6040518163ffffffff1660e01b815260040160e06040518083038186803b158015611cb557600080fd5b505afa158015611cc9573d6000803e3d6000fd5b505050506040513d601f19601f82011682018060405250810190611ced91906130e3565b50505050505090506000846060015160001415611d3e578451611d2e57611d29600173fffd8963efd1fc6a506488495d951d5263988d2661351d565b611d4b565b611d296401000276a36001613545565b611d4b8560600151611fcf565b90506401000276a36001600160a01b03821611611d7557611d726401000276a36001613545565b90505b73fffd8963efd1fc6a506488495d951d5263988d266001600160a01b03821610611dbb57611db8600173fffd8963efd1fc6a506488495d951d5263988d2661351d565b90505b8451611ddb57816001600160a01b0316816001600160a01b031611611df1565b816001600160a01b0316816001600160a01b0316105b15611f2157600080876001600160a01b031663128acb083089600001518a60200151611e3257611e248b6040015161201f565b611e2d90613570565b611e3f565b611e3f8b6040015161201f565b878c608001516040518663ffffffff1660e01b8152600401611e6595949392919061358d565b6040805180830381600087803b158015611e7e57600080fd5b505af1925050508015611eae575060408051601f3d908101601f19168201909252611eab918101906135c8565b60015b611ef7573d808015611edc576040519150601f19603f3d011682016040523d82523d6000602084013e611ee1565b606091505b50611eeb81612116565b9093509150611efa9050565b50505b8651611f0f5780611f0a83613570565b611f19565b81611f1982613570565b909650945050505b50509250929050565b60006001600160801b038411611f725782611f5a57611f55611f4c8688612f0b565b856000856120ef565b611f9b565b611f688585600185156120ef565b611f559087612f0b565b82611f8557611f688585600085156120ef565b611f9b611f928688612f0b565b856001856120ef565b9695505050505050565b6001600160a01b038116611fcc5760405163037064f160e01b815260040160405180910390fd5b50565b60006001600160c01b038211611ff657610371611ff1604084901b6000612146565b6121c4565b60008061200c84680100000000000000006121ee565b915091506116de611ff18383600061220d565b6000600160ff1b821061203157600080fd5b5090565b6000808061204a84633ab8e87b60e21b61145a565b80602001905181019061205d91906135ec565b9250925092509193909250565b60405163d81e842360e01b81526001600160a01b03838116600483015282811660248301526000919085169063d81e84239060440160206040518083038186803b1580156120b757600080fd5b505afa1580156120cb573d6000803e3d6000fd5b505050506040513d601f19601f820116820180604052508101906116de9190612f62565b60008261210657611c3e85600160801b868561229b565b610a1d8585600160801b8561229b565b60008061212a836377760aaf60e11b61145a565b80602001905181019061213d91906135c8565b91509150915091565b600060001983141561216057506001600160801b03610371565b8261216d57506000610371565b50816001818101901c5b8181101561219f57809150600181828681612194576121946134bc565b0401901c9050612177565b508180156121b55750826121b3828061361a565b105b1561037157806116de8161301a565b60006001600160a01b0382111561203157604051630ba006e160e41b815260040160405180910390fd5b6000806000198385098385029250828110838203039150509250929050565b6000826122255761221e8483612146565b9050611af0565b60006122348585600019612397565b905060001991505b8181101561225957809150612252858583612397565b905061223c565b82156122935760008061226c84856121ee565b915091508086118061227d57508187115b15612290578361228c8161301a565b9450505b50505b509392505050565b60008060006122aa87876121ee565b9150915080600014156122cb576122c28286866123cc565b925050506116de565b8085116122fc5760405163362ced0960e11b8152600481018890526024810187905260448101869052606401610884565b600085878909600087810388169788900497600260038a028118808b02820302808b02820302808b02820302808b02820302808b02820302808b0290910302918190038190046001018684119095039485029290950394909404179283029350849050801561237a57508480612374576123746134bc565b86880915155b1561238d57826123898161301a565b9350505b5050949350505050565b6000806123a785858560006123fe565b905060006123b9826000866000612483565b9092509050611f9b8282600260006123fe565b60006123d88385613639565b90508180156123ef57506123ec83856134d2565b15155b15611af05780610a1d8161301a565b60008061240c8686866124f4565b9092509050801561244157604051636aa917ab60e01b8152600481018790526024810186905260448101859052606401610884565b8215610eaf5760008061245484876121ee565b915091508087118061246557508188115b1561247857836124748161301a565b9450505b505050949350505050565b81840184811082850181019080156124b0578115806124ab57506124a8600183612f0b565b86115b6124b4565b8186115b156124ea576040516347b1893f60e01b815260048101889052602481018790526044810186905260648101859052608401610884565b5094509492505050565b6000808361250f57612508858460006123cc565b915061259b565b600061251a846125a3565b90506000612527856125d0565b90505b851561257b5760008061253d88856121ee565b9150915061254d86868484612483565b909650945061255c88846121ee565b909250905061256e82828b6000612483565b909950975061252a915050565b612593848461258c8a8960006123cc565b6000612483565b909450925050505b935093915050565b6000816125c3576040516301de42a960e41b815260040160405180910390fd5b5060008190030460010190565b6000816125f0576040516319dbad9f60e01b815260040160405180910390fd5b5060008190030690565b60006020828403121561260c57600080fd5b81356001600160e01b031981168114611af057600080fd5b60006020828403121561263657600080fd5b81356001600160401b0381111561264c57600080fd5b820160e08185031215611af057600080fd5b60005b83811015612679578181015183820152602001612661565b83811115612688576000848401525b50505050565b600081518084526126a681602086016020860161265e565b601f01601f19169290920160200192915050565b838152826020820152606060408201526000610a1d606083018461268e565b634e487b7160e01b600052604160045260246000fd5b60405161010081016001600160401b0381118282101715612712576127126126d9565b60405290565b604051601f8201601f191681016001600160401b0381118282101715612740576127406126d9565b604052919050565b6001600160a01b0381168114611fcc57600080fd5b803561276881612748565b919050565b62ffffff81168114611fcc57600080fd5b80356127688161276d565b8015158114611fcc57600080fd5b803561276881612789565b80356001600160601b038116811461276857600080fd5b6000808284036101208112156127ce57600080fd5b610100808212156127de57600080fd5b6127e66126ef565b915084356127f381612748565b82526128016020860161275d565b602083015260408501356040830152606085013560608301526128266080860161277e565b608083015261283760a0860161275d565b60a083015261284860c08601612797565b60c083015260e085013560e08301528193506128658186016127a2565b925050509250929050565b60006020828403121561288257600080fd5b81356001600160401b0381111561289857600080fd5b820160c08185031215611af057600080fd5b602081526000611af0602083018461268e565b600080602083850312156128d057600080fd5b82356001600160401b03808211156128e757600080fd5b818501915085601f8301126128fb57600080fd5b81358181111561290a57600080fd5b8660208260051b850101111561291f57600080fd5b60209290920196919550909350505050565b6000602080830181845280855180835260408601915060408160051b870101925083870160005b8281101561298657603f1988860301845261297485835161268e565b94509285019290850190600101612958565b5092979650505050505050565b600082601f8301126129a457600080fd5b813560206001600160401b038211156129bf576129bf6126d9565b8160051b6129ce828201612718565b92835284810182019282810190878511156129e857600080fd5b83870192505b84831015612a07578235825291830191908301906129ee565b979650505050505050565b60006001600160401b03821115612a2b57612a2b6126d9565b50601f01601f191660200190565b600082601f830112612a4a57600080fd5b8135612a5d612a5882612a12565b612718565b818152846020838601011115612a7257600080fd5b816020850160208301376000918101602001919091529392505050565b600080600080600060a08688031215612aa757600080fd5b8535612ab281612748565b94506020860135612ac281612748565b935060408601356001600160401b0380821115612ade57600080fd5b612aea89838a01612993565b94506060880135915080821115612b0057600080fd5b612b0c89838a01612993565b93506080880135915080821115612b2257600080fd5b50612b2f88828901612a39565b9150509295509295909350565b600080600080600060a08688031215612b5457600080fd5b8535612b5f81612748565b94506020860135612b6f81612748565b9350604086013592506060860135915060808601356001600160401b03811115612b9857600080fd5b612b2f88828901612a39565b60008060008060608587031215612bba57600080fd5b843593506020850135925060408501356001600160401b0380821115612bdf57600080fd5b818701915087601f830112612bf357600080fd5b813581811115612c0257600080fd5b886020828501011115612c1457600080fd5b95989497505060200194505050565b600060208284031215612c3557600080fd5b81356001600160401b03811115612c4b57600080fd5b82016101008185031215611af057600080fd5b6000808335601e19843603018112612c7557600080fd5b8301803591506001600160401b03821115612c8f57600080fd5b602001915036819003821315612ca457600080fd5b9250929050565b60008060008060008060c08789031215612cc457600080fd5b8635612ccf81612748565b95506020870135612cdf81612748565b94506040870135612cef81612748565b93506060870135612cff81612748565b92506080870135915060a08701356001600160401b03811115612d2157600080fd5b612d2d89828a01612a39565b9150509295509295509295565b6001600160a01b03878116825286811660208301528581166040830152841660608201526080810183905260c060a08201819052600090612d7d9083018461268e565b98975050505050505050565b600060208284031215612d9b57600080fd5b8151611af081612789565b634e487b7160e01b600052602160045260246000fd5b60028110612dcc57612dcc612da6565b9052565b6020815281516020820152602082015160408201526000604083015160018060a01b03808216606085015280606086015116608085015250506080830151612e1b60a0840182612dbc565b5060a083015160c083015260c083015160e083015260e08301516101008081850152506116de61012084018261268e565b6000612e5a612a5884612a12565b9050828152838383011115612e6e57600080fd5b611af083602083018461265e565b600082601f830112612e8d57600080fd5b611af083835160208501612e4c565b60008060008060808587031215612eb257600080fd5b84519350602085015192506040850151915060608501516001600160401b03811115612edd57600080fd5b612ee987828801612e7c565b91505092959194509250565b634e487b7160e01b600052601160045260246000fd5b600082821015612f1d57612f1d612ef5565b500390565b858152602081018590526001600160a01b038416604082015260a0810160038410612f4f57612f4f612da6565b6060820193909352608001529392505050565b600060208284031215612f7457600080fd5b8151611af081612748565b60018060a01b0385168152836020820152826040820152608060608201526000611f9b608083018461268e565b634e487b7160e01b600052603260045260246000fd5b8183823760009101908152919050565b600060208284031215612fe457600080fd5b81516001600160401b03811115612ffa57600080fd5b8201601f8101841361300b57600080fd5b6116de84825160208401612e4c565b600060001982141561302e5761302e612ef5565b5060010190565b6000806040838503121561304857600080fd5b823561305381612789565b915060208301356001600160401b0381111561306e57600080fd5b61307a85828601612a39565b9150509250929050565b60008060006060848603121561309957600080fd5b83516130a481612748565b60208501519093506130b581612748565b60408501519092506130c68161276d565b809150509250925092565b805161ffff8116811461276857600080fd5b600080600080600080600060e0888a0312156130fe57600080fd5b875161310981612748565b8097505060208801518060020b811461312157600080fd5b955061312f604089016130d1565b945061313d606089016130d1565b935061314b608089016130d1565b925060a088015160ff8116811461316157600080fd5b60c089015190925061317281612789565b8091505092959891949750929550565b600080600080600060a0868803121561319a57600080fd5b85356131a581612748565b945060208601356131b581612748565b9350604086013592506131ca606087016127a2565b915060808601356001600160401b03811115612b9857600080fd5b6000602082840312156131f757600080fd5b8135611af081612748565b6040815282516040820152602083015160608201526000604084015160018060a01b0380821660808501528060608701511660a0850152505060808401516004811061325057613250612da6565b8060c08401525060a084015160e083015260c084015160e061010084015261327c61012084018261268e565b915050611af060208301846001600160601b03169052565b600080600080608085870312156132aa57600080fd5b84516132b581612748565b80945050602085015192506040850151915060608501516001600160401b03811115612edd57600080fd5b600080604083850312156132f357600080fd5b82516132fe8161276d565b602084015190925061330f81612789565b809150509250929050565b6001600160a01b03868116825285166020820152604081018490526001600160601b038316606082015260a060808201819052600090612a079083018461268e565b602081526133766020820183516001600160a01b03169052565b6000602083015161339260408401826001600160a01b03169052565b50604083015160608301526060830151608083015260808301516133c160a08401826001600160a01b03169052565b5060a08301516001600160a01b03811660c08401525060c08301516001600160a01b03811660e08401525060e0830151610100838101919091528301516101208084019190915283015161014080840191909152830151610160808401526116de61018084018261268e565b60006020828403121561343f57600080fd5b81516001600160401b0381111561345557600080fd5b6116de84828501612e7c565b6001600160a01b03938416815291909216602082015262ffffff909116604082015260600190565b82151581526040602082015260006116de604083018461268e565b600082198211156134b7576134b7612ef5565b500190565b634e487b7160e01b600052601260045260246000fd5b6000826134e1576134e16134bc565b500690565b805160208201516001600160e01b031980821692919060048310156135155780818460040360031b1b83161693505b505050919050565b60006001600160a01b038381169083168181101561353d5761353d612ef5565b039392505050565b60006001600160a01b0382811684821680830382111561356757613567612ef5565b01949350505050565b6000600160ff1b82141561358657613586612ef5565b5060000390565b6001600160a01b0386811682528515156020830152604082018590528316606082015260a060808201819052600090612a079083018461268e565b600080604083850312156135db57600080fd5b505080516020909101519092909150565b60008060006060848603121561360157600080fd5b835192506020840151915060408401516130c681612748565b600081600019048311821515161561363457613634612ef5565b500290565b600082613648576136486134bc565b50049056fea2646970667358221220fb15807af372c0631d6e8cfda2c0d88113b8953c3c7eacfaa79037f9cf4ee9bc64736f6c63430008080033",
  "linkReferences": {},
  "deployedLinkReferences": {}
}