{
  "_format": "hh-sol-artifact-1",
  "contractName": "TimeswapV2PeripheryUniswapV3Withdraw",
  "sourceName": "@timeswap-labs/v2-periphery-uniswapV3/contracts/TimeswapV2PeripheryUniswapV3Withdraw.sol",
  "abi": [
    {
      "inputs": [
        {
          "internalType": "address",
          "name": "chosenOptionFactory",
          "type": "address"
        },
        {
          "internalType": "address",
          "name": "chosenTokens",
          "type": "address"
        },
        {
          "internalType": "address",
          "name": "chosenUniswapV3Factory",
          "type": "address"
        },
        {
          "internalType": "address",
          "name": "chosenNative",
          "type": "address"
        }
      ],
      "stateMutability": "nonpayable",
      "type": "constructor"
    },
    {
      "inputs": [
        {
          "internalType": "uint256",
          "name": "addendA0",
          "type": "uint256"
        },
        {
          "internalType": "uint256",
          "name": "addendA1",
          "type": "uint256"
        },
        {
          "internalType": "uint256",
          "name": "addendB0",
          "type": "uint256"
        },
        {
          "internalType": "uint256",
          "name": "addendB1",
          "type": "uint256"
        }
      ],
      "name": "AddOverflow",
      "type": "error"
    },
    {
      "inputs": [
        {
          "internalType": "address",
          "name": "from",
          "type": "address"
        }
      ],
      "name": "CallerNotWrappedNative",
      "type": "error"
    },
    {
      "inputs": [],
      "name": "CanOnlyBeCalledByUniswapV3Contract",
      "type": "error"
    },
    {
      "inputs": [
        {
          "internalType": "uint256",
          "name": "deadline",
          "type": "uint256"
        }
      ],
      "name": "DeadlineReached",
      "type": "error"
    },
    {
      "inputs": [
        {
          "internalType": "uint256",
          "name": "dividend0",
          "type": "uint256"
        },
        {
          "internalType": "uint256",
          "name": "dividend1",
          "type": "uint256"
        },
        {
          "internalType": "uint256",
          "name": "divisor",
          "type": "uint256"
        }
      ],
      "name": "DivOverflow",
      "type": "error"
    },
    {
      "inputs": [],
      "name": "DivideByZero",
      "type": "error"
    },
    {
      "inputs": [
        {
          "internalType": "uint256",
          "name": "value",
          "type": "uint256"
        }
      ],
      "name": "InsufficientWrappedNative",
      "type": "error"
    },
    {
      "inputs": [
        {
          "internalType": "uint256",
          "name": "tokenAmount",
          "type": "uint256"
        },
        {
          "internalType": "uint256",
          "name": "minTokenAmount",
          "type": "uint256"
        }
      ],
      "name": "MinTokenReached",
      "type": "error"
    },
    {
      "inputs": [],
      "name": "ModuloByZero",
      "type": "error"
    },
    {
      "inputs": [
        {
          "internalType": "string",
          "name": "revertString",
          "type": "string"
        }
      ],
      "name": "MulticallFailed",
      "type": "error"
    },
    {
      "inputs": [
        {
          "internalType": "address",
          "name": "to",
          "type": "address"
        },
        {
          "internalType": "uint256",
          "name": "value",
          "type": "uint256"
        }
      ],
      "name": "NativeTransferFailed",
      "type": "error"
    },
    {
      "inputs": [
        {
          "internalType": "int256",
          "name": "amount0",
          "type": "int256"
        },
        {
          "internalType": "int256",
          "name": "amount1",
          "type": "int256"
        }
      ],
      "name": "PassCalculateInfo",
      "type": "error"
    },
    {
      "inputs": [],
      "name": "Uint160Overflow",
      "type": "error"
    },
    {
      "inputs": [],
      "name": "ZeroAddress",
      "type": "error"
    },
    {
      "inputs": [],
      "name": "ZeroPoolAddress",
      "type": "error"
    },
    {
      "anonymous": false,
      "inputs": [
        {
          "indexed": true,
          "internalType": "address",
          "name": "token0",
          "type": "address"
        },
        {
          "indexed": true,
          "internalType": "address",
          "name": "token1",
          "type": "address"
        },
        {
          "indexed": false,
          "internalType": "uint256",
          "name": "strike",
          "type": "uint256"
        },
        {
          "indexed": true,
          "internalType": "uint256",
          "name": "maturity",
          "type": "uint256"
        },
        {
          "indexed": false,
          "internalType": "uint24",
          "name": "uniswapV3Fee",
          "type": "uint24"
        },
        {
          "indexed": false,
          "internalType": "address",
          "name": "to",
          "type": "address"
        },
        {
          "indexed": false,
          "internalType": "bool",
          "name": "isToken0",
          "type": "bool"
        },
        {
          "indexed": false,
          "internalType": "uint256",
          "name": "tokenAmount",
          "type": "uint256"
        },
        {
          "indexed": false,
          "internalType": "uint256",
          "name": "positionAmount",
          "type": "uint256"
        }
      ],
      "name": "Withdraw",
      "type": "event"
    },
    {
      "inputs": [
        {
          "internalType": "bytes[]",
          "name": "data",
          "type": "bytes[]"
        }
      ],
      "name": "multicall",
      "outputs": [
        {
          "internalType": "bytes[]",
          "name": "results",
          "type": "bytes[]"
        }
      ],
      "stateMutability": "payable",
      "type": "function"
    },
    {
      "inputs": [
        {
          "internalType": "address",
          "name": "",
          "type": "address"
        },
        {
          "internalType": "address",
          "name": "",
          "type": "address"
        },
        {
          "internalType": "uint256[]",
          "name": "",
          "type": "uint256[]"
        },
        {
          "internalType": "uint256[]",
          "name": "",
          "type": "uint256[]"
        },
        {
          "internalType": "bytes",
          "name": "",
          "type": "bytes"
        }
      ],
      "name": "onERC1155BatchReceived",
      "outputs": [
        {
          "internalType": "bytes4",
          "name": "",
          "type": "bytes4"
        }
      ],
      "stateMutability": "pure",
      "type": "function"
    },
    {
      "inputs": [
        {
          "internalType": "address",
          "name": "operator",
          "type": "address"
        },
        {
          "internalType": "address",
          "name": "",
          "type": "address"
        },
        {
          "internalType": "uint256",
          "name": "",
          "type": "uint256"
        },
        {
          "internalType": "uint256",
          "name": "",
          "type": "uint256"
        },
        {
          "internalType": "bytes",
          "name": "",
          "type": "bytes"
        }
      ],
      "name": "onERC1155Received",
      "outputs": [
        {
          "internalType": "bytes4",
          "name": "",
          "type": "bytes4"
        }
      ],
      "stateMutability": "view",
      "type": "function"
    },
    {
      "inputs": [],
      "name": "optionFactory",
      "outputs": [
        {
          "internalType": "address",
          "name": "",
          "type": "address"
        }
      ],
      "stateMutability": "view",
      "type": "function"
    },
    {
      "inputs": [
        {
          "internalType": "bytes4",
          "name": "interfaceId",
          "type": "bytes4"
        }
      ],
      "name": "supportsInterface",
      "outputs": [
        {
          "internalType": "bool",
          "name": "",
          "type": "bool"
        }
      ],
      "stateMutability": "view",
      "type": "function"
    },
    {
      "inputs": [],
      "name": "tokens",
      "outputs": [
        {
          "internalType": "address",
          "name": "",
          "type": "address"
        }
      ],
      "stateMutability": "view",
      "type": "function"
    },
    {
      "inputs": [],
      "name": "uniswapV3Factory",
      "outputs": [
        {
          "internalType": "address",
          "name": "",
          "type": "address"
        }
      ],
      "stateMutability": "view",
      "type": "function"
    },
    {
      "inputs": [
        {
          "internalType": "int256",
          "name": "amount0Delta",
          "type": "int256"
        },
        {
          "internalType": "int256",
          "name": "amount1Delta",
          "type": "int256"
        },
        {
          "internalType": "bytes",
          "name": "data",
          "type": "bytes"
        }
      ],
      "name": "uniswapV3SwapCallback",
      "outputs": [],
      "stateMutability": "nonpayable",
      "type": "function"
    },
    {
      "inputs": [
        {
          "internalType": "uint256",
          "name": "amountMinimum",
          "type": "uint256"
        },
        {
          "internalType": "address",
          "name": "recipient",
          "type": "address"
        }
      ],
      "name": "unwrapWrappedNatives",
      "outputs": [],
      "stateMutability": "payable",
      "type": "function"
    },
    {
      "inputs": [
        {
          "components": [
            {
              "internalType": "address",
              "name": "token0",
              "type": "address"
            },
            {
              "internalType": "address",
              "name": "token1",
              "type": "address"
            },
            {
              "internalType": "uint256",
              "name": "strike",
              "type": "uint256"
            },
            {
              "internalType": "uint256",
              "name": "maturity",
              "type": "uint256"
            },
            {
              "internalType": "uint24",
              "name": "uniswapV3Fee",
              "type": "uint24"
            },
            {
              "internalType": "address",
              "name": "to",
              "type": "address"
            },
            {
              "internalType": "bool",
              "name": "isToken0",
              "type": "bool"
            },
            {
              "internalType": "uint256",
              "name": "positionAmount",
              "type": "uint256"
            },
            {
              "internalType": "uint256",
              "name": "minTokenAmount",
              "type": "uint256"
            },
            {
              "internalType": "uint256",
              "name": "deadline",
              "type": "uint256"
            }
          ],
          "internalType": "struct TimeswapV2PeripheryUniswapV3WithdrawParam",
          "name": "param",
          "type": "tuple"
        }
      ],
      "name": "withdraw",
      "outputs": [
        {
          "internalType": "uint256",
          "name": "tokenAmount",
          "type": "uint256"
        }
      ],
      "stateMutability": "nonpayable",
      "type": "function"
    },
    {
      "inputs": [],
      "name": "wrappedNativeToken",
      "outputs": [
        {
          "internalType": "address",
          "name": "",
          "type": "address"
        }
      ],
      "stateMutability": "view",
      "type": "function"
    },
    {
      "stateMutability": "payable",
      "type": "receive"
    }
  ],
  "bytecode": "0x6101006040523480156200001257600080fd5b506040516200280e3803806200280e833981016040819052620000359162000082565b6001600160601b0319606094851b811660805292841b831660a05290831b821660c05290911b1660e052620000df565b80516001600160a01b03811681146200007d57600080fd5b919050565b600080600080608085870312156200009957600080fd5b620000a48562000065565b9350620000b46020860162000065565b9250620000c46040860162000065565b9150620000d46060860162000065565b905092959194509250565b60805160601c60a05160601c60c05160601c60e05160601c6126ab620001636000396000818160b001528181610143015281816104cf015261059301526000818161018f015281816109e901528181610dc70152610f880152600081816101c3015281816106590152610b570152600081816102170152610b2501526126ab6000f3fe6080604052600436106100a05760003560e01c8063b3461c8711610064578063b3461c8714610205578063b7f68a0e14610239578063bc197c811461024c578063f23a6e6114610285578063f4738314146102a5578063fa461e33146102d357600080fd5b806301ffc9a7146100fc57806317fcb39b146101315780635b5491821461017d5780639d63848a146101b1578063ac9650d8146101e557600080fd5b366100f757336001600160a01b037f000000000000000000000000000000000000000000000000000000000000000016146100f55760405163631b2c4f60e11b81523360048201526024015b60405180910390fd5b005b600080fd5b34801561010857600080fd5b5061011c610117366004611a87565b6102f3565b60405190151581526020015b60405180910390f35b34801561013d57600080fd5b506101657f000000000000000000000000000000000000000000000000000000000000000081565b6040516001600160a01b039091168152602001610128565b34801561018957600080fd5b506101657f000000000000000000000000000000000000000000000000000000000000000081565b3480156101bd57600080fd5b506101657f000000000000000000000000000000000000000000000000000000000000000081565b6101f86101f3366004611ab1565b61032a565b6040516101289190611b81565b34801561021157600080fd5b506101657f000000000000000000000000000000000000000000000000000000000000000081565b6100f5610247366004611bf8565b6104b7565b34801561025857600080fd5b5061026c610267366004611d5f565b610606565b6040516001600160e01b03199091168152602001610128565b34801561029157600080fd5b5061026c6102a0366004611e0c565b610612565b3480156102b157600080fd5b506102c56102c0366004611e74565b61063a565b604051908152602001610128565b3480156102df57600080fd5b506100f56102ee366004611e8d565b6109ac565b60006001600160e01b03198216630271189760e51b148061032457506301ffc9a760e01b6001600160e01b03198316145b92915050565b6060816001600160401b0381111561034457610344611c28565b60405190808252806020026020018201604052801561037757816020015b60608152602001906001900390816103625790505b50905060005b828110156104b0576000803086868581811061039b5761039b611f0c565b90506020028101906103ad9190611f22565b6040516103bb929190611f6f565b600060405180830381855af49150503d80600081146103f6576040519150601f19603f3d011682016040523d82523d6000602084013e6103fb565b606091505b50915091508161047d5760448151101561044957604051635d2f436f60e11b815260206004820152600e60248201526d125b9d985b1a590814995cdd5b1d60921b60448201526064016100ec565b600481019050808060200190518101906104639190611faf565b604051635d2f436f60e11b81526004016100ec9190611ff7565b8084848151811061049057610490611f0c565b6020026020010181905250505080806104a890612020565b91505061037d565b5092915050565b6040516370a0823160e01b81523060048201526000907f00000000000000000000000000000000000000000000000000000000000000006001600160a01b0316906370a082319060240160206040518083038186803b15801561051957600080fd5b505afa15801561052d573d6000803e3d6000fd5b505050506040513d601f19601f82011682018060405250810190610551919061203b565b90508281101561057757604051636b8c4dab60e01b8152600481018290526024016100ec565b801561060157604051632e1a7d4d60e01b8152600481018290527f00000000000000000000000000000000000000000000000000000000000000006001600160a01b031690632e1a7d4d90602401600060405180830381600087803b1580156105df57600080fd5b505af11580156105f3573d6000803e3d6000fd5b505050506106018282610a5f565b505050565b60005b95945050505050565b60006001600160a01b038616301461062c57506000610609565b5063f23a6e6160e01b610609565b600042826101200135101561065757610657826101200135610aff565b7f00000000000000000000000000000000000000000000000000000000000000006001600160a01b0316635c9b728233306040518060a001604052808760000160208101906106a69190612054565b6001600160a01b031681526020018760200160208101906106c79190612054565b6001600160a01b0316815260200187604001358152602001876060013581526020016002808111156106fb576106fb612071565b8152508660e001356040518563ffffffff1660e01b815260040161072294939291906120a5565b600060405180830381600087803b15801561073c57600080fd5b505af1158015610750573d6000803e3d6000fd5b5050505060008061083c6040518060e001604052808660000160208101906107789190612054565b6001600160a01b031681526020018660200160208101906107999190612054565b6001600160a01b0316815260200186604001358152602001866060013581526020018660c00160208101906107ce919061211d565b6107d857306107e8565b6107e860c0880160a08901612054565b6001600160a01b0316815260200161080660e0880160c0890161211d565b61081f5761081a60c0880160a08901612054565b610821565b305b6001600160a01b031681526020018660e00135815250610b1b565b909250905061089f6108516020860186612054565b6108616040870160208801612054565b604087013561087660a0890160808a0161214b565b61088660c08a0160a08b01612054565b61089660e08b0160c08c0161211d565b88886001610d9d565b92508361010001358310156108d5576040516312bc00e560e11b81526004810184905261010085013560248201526044016100ec565b60608401356108ea6040860160208701612054565b6001600160a01b03166109006020870187612054565b6001600160a01b03167f19f2c84719854f03afdb08bb1872efe39a9e202804129e0ebe748e4559d3753a604088013561093f60a08a0160808b0161214b565b61094f60c08b0160a08c01612054565b61095f60e08c0160c08d0161211d565b6040805194855262ffffff9390931660208501526001600160a01b039190911683830152151560608301526080820189905260e08a013560a0830152519081900360c00190a45050919050565b6000806109bb83850185612168565b915091508115610a4c576000806000838060200190518101906109de91906121b7565b925092509250610a107f0000000000000000000000000000000000000000000000000000000000000000848484610ed2565b610a443360008b13610a225789610a24565b8a5b60008c13610a325784610a34565b855b6001600160a01b03169190610f12565b505050610a57565b610a57868683610f64565b505050505050565b604080516000808252602082019092526001600160a01b038416908390604051610a899190612204565b60006040518083038185875af1925050503d8060008114610ac6576040519150601f19603f3d011682016040523d82523d6000602084013e610acb565b606091505b50509050806106015760405163296c17bb60e21b81526001600160a01b0384166004820152602481018390526044016100ec565b60405163070b57d960e41b8152600481018290526024016100ec565b6000806000610b537f000000000000000000000000000000000000000000000000000000000000000085600001518660200151610fb9565b90507f00000000000000000000000000000000000000000000000000000000000000006001600160a01b031663a38d7a1760405180610160016040528087600001516001600160a01b0316815260200187602001516001600160a01b031681526020018760400151815260200187606001518152602001306001600160a01b03168152602001306001600160a01b03168152602001306001600160a01b0316815260200160008152602001600081526020018760c001518152602001604051806020016040528060008152508152506040518263ffffffff1660e01b8152600401610c3e9190612220565b600060405180830381600087803b158015610c5857600080fd5b505af1158015610c6c573d6000803e3d6000fd5b505050506040513d6000823e601f3d908101601f19168201604052610c949190810190612311565b50806001600160a01b0316637087c1f66040518060e00160405280876040015181526020018760600151815260200187608001516001600160a01b031681526020018760a001516001600160a01b0316815260200160006002811115610cfc57610cfc612071565b81526020018760c001518152602001604051806020016040528060008152508152506040518263ffffffff1660e01b8152600401610d3a9190612345565b600060405180830381600087803b158015610d5457600080fd5b505af1158015610d68573d6000803e3d6000fd5b505050506040513d6000823e601f3d908101601f19168201604052610d9091908101906123b6565b5091969095509350505050565b600084610daa5782610dac565b835b905084610db95783610dbb565b825b15610ec5576000610dee7f00000000000000000000000000000000000000000000000000000000000000008c8c8b610fe5565b604080516001600160a01b038e811660208301528d168183015262ffffff8b16606080830191909152825180830390910181526080820190925291925090610e3d90600190839060a00161240f565b60408051601f1981840301815260c0830182526001600160a01b038b168352891560208401526001918301919091529150600090610eb190606081018a610e845789610e86565b885b815260200187610e96578d610e99565b60005b81526020018490526001600160a01b0385169061100f565b9150610ebf9050818561242a565b93505050505b9998505050505050505050565b6000610ee08585858561128f565b90506001600160a01b0381163314610f0b576040516307c1698f60e01b815260040160405180910390fd5b5050505050565b604080516001600160a01b038416602482015260448082018490528251808303909101815260649091019091526020810180516001600160e01b031663a9059cbb60e01b17905261060190849061131f565b600080600083806020019051810190610f7d91906121b7565b925092509250610faf7f0000000000000000000000000000000000000000000000000000000000000000848484610ed2565b610a5786866113f1565b6000610fc6848484611414565b90506001600160a01b038116610fde57610fde611499565b9392505050565b6000610ff38585858561128f565b9050611007816001600160a01b03166114b2565b949350505050565b6000806000846001600160a01b0316633850c7bd6040518163ffffffff1660e01b815260040160e06040518083038186803b15801561104d57600080fd5b505afa158015611061573d6000803e3d6000fd5b505050506040513d601f19601f820116820180604052508101906110859190612459565b505050505050905060008460800151600014156110d95784602001516110c9576110c4600173fffd8963efd1fc6a506488495d951d5263988d266124f8565b6110e6565b6110c46401000276a36001612520565b6110e685608001516114dc565b90506401000276a36001600160a01b038216116111105761110d6401000276a36001612520565b90505b73fffd8963efd1fc6a506488495d951d5263988d266001600160a01b0382161061115657611153600173fffd8963efd1fc6a506488495d951d5263988d266124f8565b90505b846020015161117957806001600160a01b0316826001600160a01b03161061118f565b806001600160a01b0316826001600160a01b0316115b1561128657600080876001600160a01b031663128acb08886000015189602001518a604001516111d4576111c68b6060015161152c565b6111cf9061254b565b6111e1565b6111e18b6060015161152c565b878c60a001516040518663ffffffff1660e01b8152600401611207959493929190612568565b6040805180830381600087803b15801561122057600080fd5b505af1158015611234573d6000803e3d6000fd5b505050506040513d601f19601f8201168201806040525081019061125891906125a3565b915091508660200151611274578061126f8361254b565b61127e565b8161127e8261254b565b909650945050505b50509250929050565b604051630b4c774160e11b81526001600160a01b038481166004830152838116602483015262ffffff8316604483015260009190861690631698ee829060640160206040518083038186803b1580156112e757600080fd5b505afa1580156112fb573d6000803e3d6000fd5b505050506040513d601f19601f8201168201806040525081019061060991906125c7565b6000611374826040518060400160405280602081526020017f5361666545524332303a206c6f772d6c6576656c2063616c6c206661696c6564815250856001600160a01b03166115429092919063ffffffff16565b805190915015610601578080602001905181019061139291906125e4565b6106015760405162461bcd60e51b815260206004820152602a60248201527f5361666545524332303a204552433230206f7065726174696f6e20646964206e6044820152691bdd081cdd58d8d9595960b21b60648201526084016100ec565b6040516377760aaf60e11b815260048101839052602481018290526044016100ec565b60405163d81e842360e01b81526001600160a01b03838116600483015282811660248301526000919085169063d81e84239060440160206040518083038186803b15801561146157600080fd5b505afa158015611475573d6000803e3d6000fd5b505050506040513d601f19601f8201168201806040525081019061100791906125c7565b60405163d92e233d60e01b815260040160405180910390fd5b6001600160a01b0381166114d95760405163037064f160e01b815260040160405180910390fd5b50565b60006001600160c01b038211611503576103246114fe604084901b6000611551565b6115d8565b6000806115198468010000000000000000611602565b915091506110076114fe83836000611621565b6000600160ff1b821061153e57600080fd5b5090565b606061100784846000856116af565b600060001983141561157457506fffffffffffffffffffffffffffffffff610324565b8261158157506000610324565b50816001818101901c5b818110156115b3578091506001818286816115a8576115a8612601565b0401901c905061158b565b508180156115c95750826115c78280612617565b105b15610324578061100781612020565b60006001600160a01b0382111561153e57604051630ba006e160e41b815260040160405180910390fd5b6000806000198385098385029250828110838203039150509250929050565b600082611639576116328483611551565b9050610fde565b600061164885856000196117e0565b905060001991505b8181101561166d578091506116668585836117e0565b9050611650565b82156116a7576000806116808485611602565b915091508086118061169157508187115b156116a457836116a081612020565b9450505b50505b509392505050565b6060824710156117105760405162461bcd60e51b815260206004820152602660248201527f416464726573733a20696e73756666696369656e742062616c616e636520666f6044820152651c8818d85b1b60d21b60648201526084016100ec565b6001600160a01b0385163b6117675760405162461bcd60e51b815260206004820152601d60248201527f416464726573733a2063616c6c20746f206e6f6e2d636f6e747261637400000060448201526064016100ec565b600080866001600160a01b031685876040516117839190612204565b60006040518083038185875af1925050503d80600081146117c0576040519150601f19603f3d011682016040523d82523d6000602084013e6117c5565b606091505b50915091506117d582828661181f565b979650505050505050565b6000806117f08585856000611858565b905060006118028260008660006118de565b9092509050611815828260026000611858565b9695505050505050565b6060831561182e575081610fde565b82511561183e5782518084602001fd5b8160405162461bcd60e51b81526004016100ec9190611ff7565b60008061186686868661194f565b9092509050801561189b57604051636aa917ab60e01b81526004810187905260248101869052604481018590526064016100ec565b82156118d5576000806118ae8487611602565b91509150808711806118bf57508188115b156118d257836118ce81612020565b9450505b50505b50949350505050565b818401848110828501810190801561190b578115806119065750611903600183612636565b86115b61190f565b8186115b15611945576040516347b1893f60e01b8152600481018890526024810187905260448101869052606481018590526084016100ec565b5094509492505050565b6000808361196a57611963858460006119fe565b91506119f6565b600061197584611a30565b9050600061198285611a5d565b90505b85156119d6576000806119988885611602565b915091506119a8868684846118de565b90965094506119b78884611602565b90925090506119c982828b60006118de565b9099509750611985915050565b6119ee84846119e78a8960006119fe565b60006118de565b909450925050505b935093915050565b6000611a0a838561264d565b9050818015611a215750611a1e8385612661565b15155b15610fde578061060981612020565b600081611a50576040516301de42a960e41b815260040160405180910390fd5b5060008190030460010190565b600081611a7d576040516319dbad9f60e01b815260040160405180910390fd5b5060008190030690565b600060208284031215611a9957600080fd5b81356001600160e01b031981168114610fde57600080fd5b60008060208385031215611ac457600080fd5b82356001600160401b0380821115611adb57600080fd5b818501915085601f830112611aef57600080fd5b813581811115611afe57600080fd5b8660208260051b8501011115611b1357600080fd5b60209290920196919550909350505050565b60005b83811015611b40578181015183820152602001611b28565b83811115611b4f576000848401525b50505050565b60008151808452611b6d816020860160208601611b25565b601f01601f19169290920160200192915050565b6000602080830181845280855180835260408601915060408160051b870101925083870160005b82811015611bd657603f19888603018452611bc4858351611b55565b94509285019290850190600101611ba8565b5092979650505050505050565b6001600160a01b03811681146114d957600080fd5b60008060408385031215611c0b57600080fd5b823591506020830135611c1d81611be3565b809150509250929050565b634e487b7160e01b600052604160045260246000fd5b604051601f8201601f191681016001600160401b0381118282101715611c6657611c66611c28565b604052919050565b600082601f830112611c7f57600080fd5b813560206001600160401b03821115611c9a57611c9a611c28565b8160051b611ca9828201611c3e565b9283528481018201928281019087851115611cc357600080fd5b83870192505b848310156117d557823582529183019190830190611cc9565b60006001600160401b03821115611cfb57611cfb611c28565b50601f01601f191660200190565b600082601f830112611d1a57600080fd5b8135611d2d611d2882611ce2565b611c3e565b818152846020838601011115611d4257600080fd5b816020850160208301376000918101602001919091529392505050565b600080600080600060a08688031215611d7757600080fd5b8535611d8281611be3565b94506020860135611d9281611be3565b935060408601356001600160401b0380821115611dae57600080fd5b611dba89838a01611c6e565b94506060880135915080821115611dd057600080fd5b611ddc89838a01611c6e565b93506080880135915080821115611df257600080fd5b50611dff88828901611d09565b9150509295509295909350565b600080600080600060a08688031215611e2457600080fd5b8535611e2f81611be3565b94506020860135611e3f81611be3565b9350604086013592506060860135915060808601356001600160401b03811115611e6857600080fd5b611dff88828901611d09565b60006101408284031215611e8757600080fd5b50919050565b60008060008060608587031215611ea357600080fd5b843593506020850135925060408501356001600160401b0380821115611ec857600080fd5b818701915087601f830112611edc57600080fd5b813581811115611eeb57600080fd5b886020828501011115611efd57600080fd5b95989497505060200194505050565b634e487b7160e01b600052603260045260246000fd5b6000808335601e19843603018112611f3957600080fd5b8301803591506001600160401b03821115611f5357600080fd5b602001915036819003821315611f6857600080fd5b9250929050565b8183823760009101908152919050565b6000611f8d611d2884611ce2565b9050828152838383011115611fa157600080fd5b610fde836020830184611b25565b600060208284031215611fc157600080fd5b81516001600160401b03811115611fd757600080fd5b8201601f81018413611fe857600080fd5b61100784825160208401611f7f565b602081526000610fde6020830184611b55565b634e487b7160e01b600052601160045260246000fd5b60006000198214156120345761203461200a565b5060010190565b60006020828403121561204d57600080fd5b5051919050565b60006020828403121561206657600080fd5b8135610fde81611be3565b634e487b7160e01b600052602160045260246000fd5b600381106114d957634e487b7160e01b600052602160045260246000fd5b60006101008201905060018060a01b03808716835280861660208401528085511660408401528060208601511660608401525060408401516080830152606084015160a083015260808401516120fa81612087565b60c083015260e0909101919091529392505050565b80151581146114d957600080fd5b60006020828403121561212f57600080fd5b8135610fde8161210f565b62ffffff811681146114d957600080fd5b60006020828403121561215d57600080fd5b8135610fde8161213a565b6000806040838503121561217b57600080fd5b82356121868161210f565b915060208301356001600160401b038111156121a157600080fd5b6121ad85828601611d09565b9150509250929050565b6000806000606084860312156121cc57600080fd5b83516121d781611be3565b60208501519093506121e881611be3565b60408501519092506121f98161213a565b809150509250925092565b60008251612216818460208701611b25565b9190910192915050565b6020815261223a6020820183516001600160a01b03169052565b6000602083015161225660408401826001600160a01b03169052565b506040830151606083015260608301516080830152608083015161228560a08401826001600160a01b03169052565b5060a08301516001600160a01b03811660c08401525060c08301516001600160a01b03811660e08401525060e083015161010083810191909152830151610120808401919091528301516101408084019190915283015161016080840152611007610180840182611b55565b600082601f83011261230257600080fd5b610fde83835160208501611f7f565b60006020828403121561232357600080fd5b81516001600160401b0381111561233957600080fd5b611007848285016122f1565b6020815281516020820152602082015160408201526000604083015160018060a01b0380821660608501528060608601511660808501525050608083015161238c81612087565b8060a08401525060a083015160c083015260c083015160e080840152611007610100840182611b55565b600080600080608085870312156123cc57600080fd5b84519350602085015192506040850151915060608501516001600160401b038111156123f757600080fd5b612403878288016122f1565b91505092959194509250565b82151581526040602082015260006110076040830184611b55565b6000821982111561243d5761243d61200a565b500190565b805161ffff8116811461245457600080fd5b919050565b600080600080600080600060e0888a03121561247457600080fd5b875161247f81611be3565b8097505060208801518060020b811461249757600080fd5b95506124a560408901612442565b94506124b360608901612442565b93506124c160808901612442565b925060a088015160ff811681146124d757600080fd5b60c08901519092506124e88161210f565b8091505092959891949750929550565b60006001600160a01b03838116908316818110156125185761251861200a565b039392505050565b60006001600160a01b038281168482168083038211156125425761254261200a565b01949350505050565b6000600160ff1b8214156125615761256161200a565b5060000390565b6001600160a01b0386811682528515156020830152604082018590528316606082015260a0608082018190526000906117d590830184611b55565b600080604083850312156125b657600080fd5b505080516020909101519092909150565b6000602082840312156125d957600080fd5b8151610fde81611be3565b6000602082840312156125f657600080fd5b8151610fde8161210f565b634e487b7160e01b600052601260045260246000fd5b60008160001904831182151516156126315761263161200a565b500290565b6000828210156126485761264861200a565b500390565b60008261265c5761265c612601565b500490565b60008261267057612670612601565b50069056fea26469706673582212208141cd8a650c2343d2c91a3068f482c6afa5d31e5c995353ce96685b146cb16a64736f6c63430008080033",
  "linkReferences": {},
  "deployedLinkReferences": {}
}